{"abi":[{"type":"constructor","inputs":[],"stateMutability":"nonpayable"},{"type":"function","name":"addAuthorizedAnchor","inputs":[{"name":"anchor","type":"address","internalType":"address"}],"outputs":[],"stateMutability":"nonpayable"},{"type":"function","name":"admin","inputs":[],"outputs":[{"name":"","type":"address","internalType":"address"}],"stateMutability":"view"},{"type":"function","name":"ahinBlocks","inputs":[{"name":"","type":"uint256","internalType":"uint256"}],"outputs":[{"name":"merkleRoot","type":"bytes32","internalType":"bytes32"},{"name":"prevBlockHash","type":"bytes32","internalType":"bytes32"},{"name":"timestamp","type":"uint256","internalType":"uint256"},{"name":"submitter","type":"address","internalType":"address"},{"name":"transactionCount","type":"uint256","internalType":"uint256"},{"name":"metadataURI","type":"string","internalType":"string"}],"stateMutability":"view"},{"type":"function","name":"anchorBlock","inputs":[{"name":"merkleRoot","type":"bytes32","internalType":"bytes32"},{"name":"transactionCount","type":"uint256","internalType":"uint256"},{"name":"metadataURI","type":"string","internalType":"string"}],"outputs":[],"stateMutability":"nonpayable"},{"type":"function","name":"authorizedAnchors","inputs":[{"name":"","type":"address","internalType":"address"}],"outputs":[{"name":"","type":"bool","internalType":"bool"}],"stateMutability":"view"},{"type":"function","name":"currentBlockNumber","inputs":[],"outputs":[{"name":"","type":"uint256","internalType":"uint256"}],"stateMutability":"view"},{"type":"function","name":"getBlock","inputs":[{"name":"blockNumber","type":"uint256","internalType":"uint256"}],"outputs":[{"name":"merkleRoot","type":"bytes32","internalType":"bytes32"},{"name":"prevBlockHash","type":"bytes32","internalType":"bytes32"},{"name":"timestamp","type":"uint256","internalType":"uint256"},{"name":"submitter","type":"address","internalType":"address"},{"name":"transactionCount","type":"uint256","internalType":"uint256"},{"name":"metadataURI","type":"string","internalType":"string"}],"stateMutability":"view"},{"type":"function","name":"removeAuthorizedAnchor","inputs":[{"name":"anchor","type":"address","internalType":"address"}],"outputs":[],"stateMutability":"nonpayable"},{"type":"function","name":"totalTransactionsAnchored","inputs":[],"outputs":[{"name":"","type":"uint256","internalType":"uint256"}],"stateMutability":"view"},{"type":"function","name":"verifyChainIntegrity","inputs":[{"name":"fromBlock","type":"uint256","internalType":"uint256"},{"name":"toBlock","type":"uint256","internalType":"uint256"}],"outputs":[{"name":"valid","type":"bool","internalType":"bool"}],"stateMutability":"view"},{"type":"function","name":"verifyTransaction","inputs":[{"name":"blockNumber","type":"uint256","internalType":"uint256"},{"name":"transactionHash","type":"bytes32","internalType":"bytes32"},{"name":"proof","type":"bytes32[]","internalType":"bytes32[]"}],"outputs":[{"name":"valid","type":"bool","internalType":"bool"}],"stateMutability":"view"},{"type":"event","name":"AuthorizedAnchorAdded","inputs":[{"name":"anchor","type":"address","indexed":true,"internalType":"address"}],"anonymous":false},{"type":"event","name":"AuthorizedAnchorRemoved","inputs":[{"name":"anchor","type":"address","indexed":true,"internalType":"address"}],"anonymous":false},{"type":"event","name":"BlockAnchored","inputs":[{"name":"blockNumber","type":"uint256","indexed":true,"internalType":"uint256"},{"name":"merkleRoot","type":"bytes32","indexed":false,"internalType":"bytes32"},{"name":"transactionCount","type":"uint256","indexed":false,"internalType":"uint256"},{"name":"submitter","type":"address","indexed":true,"internalType":"address"}],"anonymous":false}],"bytecode":{"object":"0x6080604052348015600e575f5ffd5b503360045f6101000a81548173ffffffffffffffffffffffffffffffffffffffff021916908373ffffffffffffffffffffffffffffffffffffffff160217905550600160035f3373ffffffffffffffffffffffffffffffffffffffff1673ffffffffffffffffffffffffffffffffffffffff1681526020019081526020015f205f6101000a81548160ff0219169083151502179055505f60018190555061188a806100b85f395ff3fe608060405234801561000f575f5ffd5b50600436106100a7575f3560e01c80639093a24f1161006f5780639093a24f14610166578063a74a8c3414610182578063b2be0d4a146101b7578063c933a794146101e7578063d63fb11e14610205578063f851a44014610235576100a7565b806304c07569146100ab5780630e646288146100e0578063375b119c146100fc578063378ec23b1461011857806355c78abc14610136575b5f5ffd5b6100c560048036038101906100c09190610d06565b610253565b6040516100d796959493929190610e07565b60405180910390f35b6100fa60048036038101906100f59190610e97565b61038d565b005b61011660048036038101906101119190610f4d565b6104b6565b005b610120610829565b60405161012d9190610fbe565b60405180910390f35b610150600480360381019061014b9190610fd7565b61082f565b60405161015d919061102f565b60405180910390f35b610180600480360381019061017b9190610e97565b610946565b005b61019c60048036038101906101979190610d06565b610a70565b6040516101ae96959493929190610e07565b60405180910390f35b6101d160048036038101906101cc9190610e97565b610b4c565b6040516101de919061102f565b60405180910390f35b6101ef610b69565b6040516101fc9190610fbe565b60405180910390f35b61021f600480360381019061021a919061109d565b610b6f565b60405161022c919061102f565b60405180910390f35b61023d610ca6565b60405161024a919061110e565b60405180910390f35b5f5f5f5f5f606060015487111561029f576040517f08c379a000000000000000000000000000000000000000000000000000000000815260040161029690611171565b60405180910390fd5b5f5f5f8981526020019081526020015f209050805f015481600101548260020154836003015f9054906101000a900473ffffffffffffffffffffffffffffffffffffffff168460040154856005018080546102f9906111bc565b80601f0160208091040260200160405190810160405280929190818152602001828054610325906111bc565b80156103705780601f1061034757610100808354040283529160200191610370565b820191905f5260205f20905b81548152906001019060200180831161035357829003601f168201915b505050505090509650965096509650965096505091939550919395565b60045f9054906101000a900473ffffffffffffffffffffffffffffffffffffffff1673ffffffffffffffffffffffffffffffffffffffff163373ffffffffffffffffffffffffffffffffffffffff161461041c576040517f08c379a000000000000000000000000000000000000000000000000000000000815260040161041390611236565b60405180910390fd5b5f60035f8373ffffffffffffffffffffffffffffffffffffffff1673ffffffffffffffffffffffffffffffffffffffff1681526020019081526020015f205f6101000a81548160ff0219169083151502179055508073ffffffffffffffffffffffffffffffffffffffff167f2b3b1f4eeb66a533e20aa06db3517bbdd94e38a6bc51a62c0290539a62eda53a60405160405180910390a250565b60035f3373ffffffffffffffffffffffffffffffffffffffff1673ffffffffffffffffffffffffffffffffffffffff1681526020019081526020015f205f9054906101000a900460ff1680610557575060045f9054906101000a900473ffffffffffffffffffffffffffffffffffffffff1673ffffffffffffffffffffffffffffffffffffffff163373ffffffffffffffffffffffffffffffffffffffff16145b610596576040517f08c379a000000000000000000000000000000000000000000000000000000000815260040161058d9061129e565b60405180910390fd5b5f5f1b84036105da576040517f08c379a00000000000000000000000000000000000000000000000000000000081526004016105d190611306565b60405180910390fd5b5f831161061c576040517f08c379a00000000000000000000000000000000000000000000000000000000081526004016106139061136e565b60405180910390fd5b5f5f6001541461067d575f5f60015481526020019081526020015f205f01545f5f60015481526020019081526020015f20600201546040516020016106629291906113cc565b60405160208183030381529060405280519060200120610681565b5f5f1b5b905060015f81548092919061069590611424565b91905055506040518060c001604052808681526020018281526020014281526020013373ffffffffffffffffffffffffffffffffffffffff16815260200185815260200184848080601f0160208091040260200160405190810160405280939291908181526020018383808284375f81840152601f19601f820116905080830192505050505050508152505f5f60015481526020019081526020015f205f820151815f015560208201518160010155604082015181600201556060820151816003015f6101000a81548173ffffffffffffffffffffffffffffffffffffffff021916908373ffffffffffffffffffffffffffffffffffffffff1602179055506080820151816004015560a08201518160050190816107b39190611638565b509050508360025f8282546107c89190611707565b925050819055503373ffffffffffffffffffffffffffffffffffffffff166001547f945ff25c0213961ff4171d6cc448e2782fe805b413962bbd657401e5205ef4d8878760405161081a92919061173a565b60405180910390a35050505050565b60015481565b5f81831115801561084257506001548211155b610881576040517f08c379a0000000000000000000000000000000000000000000000000000000008152600401610878906117ab565b60405180910390fd5b5f60018461088f9190611707565b90505b82811161093a575f5f5f6001846108a991906117c9565b81526020019081526020015f205f01545f5f6001856108c891906117c9565b81526020019081526020015f20600201546040516020016108ea9291906113cc565b604051602081830303815290604052805190602001209050805f5f8481526020019081526020015f206001015414610926575f92505050610940565b50808061093290611424565b915050610892565b50600190505b92915050565b60045f9054906101000a900473ffffffffffffffffffffffffffffffffffffffff1673ffffffffffffffffffffffffffffffffffffffff163373ffffffffffffffffffffffffffffffffffffffff16146109d5576040517f08c379a00000000000000000000000000000000000000000000000000000000081526004016109cc90611236565b60405180910390fd5b600160035f8373ffffffffffffffffffffffffffffffffffffffff1673ffffffffffffffffffffffffffffffffffffffff1681526020019081526020015f205f6101000a81548160ff0219169083151502179055508073ffffffffffffffffffffffffffffffffffffffff167f60081f9d79aa3326014af8d87b965d46a498f0b2623978aaf416487342893c1560405160405180910390a250565b5f602052805f5260405f205f91509050805f015490806001015490806002015490806003015f9054906101000a900473ffffffffffffffffffffffffffffffffffffffff1690806004015490806005018054610acb906111bc565b80601f0160208091040260200160405190810160405280929190818152602001828054610af7906111bc565b8015610b425780601f10610b1957610100808354040283529160200191610b42565b820191905f5260205f20905b815481529060010190602001808311610b2557829003601f168201915b5050505050905086565b6003602052805f5260405f205f915054906101000a900460ff1681565b60025481565b5f600154851115610bb5576040517f08c379a0000000000000000000000000000000000000000000000000000000008152600401610bac90611171565b60405180910390fd5b5f8490505f5f90505b84849050811015610c8557848482818110610bdc57610bdb6117fc565b5b90506020020135821015610c335781858583818110610bfe57610bfd6117fc565b5b90506020020135604051602001610c16929190611829565b604051602081830303815290604052805190602001209150610c78565b848482818110610c4657610c456117fc565b5b9050602002013582604051602001610c5f929190611829565b6040516020818303038152906040528051906020012091505b8080600101915050610bbe565b505f5f8781526020019081526020015f205f01548114915050949350505050565b60045f9054906101000a900473ffffffffffffffffffffffffffffffffffffffff1681565b5f5ffd5b5f5ffd5b5f819050919050565b610ce581610cd3565b8114610cef575f5ffd5b50565b5f81359050610d0081610cdc565b92915050565b5f60208284031215610d1b57610d1a610ccb565b5b5f610d2884828501610cf2565b91505092915050565b5f819050919050565b610d4381610d31565b82525050565b610d5281610cd3565b82525050565b5f73ffffffffffffffffffffffffffffffffffffffff82169050919050565b5f610d8182610d58565b9050919050565b610d9181610d77565b82525050565b5f81519050919050565b5f82825260208201905092915050565b8281835e5f83830152505050565b5f601f19601f8301169050919050565b5f610dd982610d97565b610de38185610da1565b9350610df3818560208601610db1565b610dfc81610dbf565b840191505092915050565b5f60c082019050610e1a5f830189610d3a565b610e276020830188610d3a565b610e346040830187610d49565b610e416060830186610d88565b610e4e6080830185610d49565b81810360a0830152610e608184610dcf565b9050979650505050505050565b610e7681610d77565b8114610e80575f5ffd5b50565b5f81359050610e9181610e6d565b92915050565b5f60208284031215610eac57610eab610ccb565b5b5f610eb984828501610e83565b91505092915050565b610ecb81610d31565b8114610ed5575f5ffd5b50565b5f81359050610ee681610ec2565b92915050565b5f5ffd5b5f5ffd5b5f5ffd5b5f5f83601f840112610f0d57610f0c610eec565b5b8235905067ffffffffffffffff811115610f2a57610f29610ef0565b5b602083019150836001820283011115610f4657610f45610ef4565b5b9250929050565b5f5f5f5f60608587031215610f6557610f64610ccb565b5b5f610f7287828801610ed8565b9450506020610f8387828801610cf2565b935050604085013567ffffffffffffffff811115610fa457610fa3610ccf565b5b610fb087828801610ef8565b925092505092959194509250565b5f602082019050610fd15f830184610d49565b92915050565b5f5f60408385031215610fed57610fec610ccb565b5b5f610ffa85828601610cf2565b925050602061100b85828601610cf2565b9150509250929050565b5f8115159050919050565b61102981611015565b82525050565b5f6020820190506110425f830184611020565b92915050565b5f5f83601f84011261105d5761105c610eec565b5b8235905067ffffffffffffffff81111561107a57611079610ef0565b5b60208301915083602082028301111561109657611095610ef4565b5b9250929050565b5f5f5f5f606085870312156110b5576110b4610ccb565b5b5f6110c287828801610cf2565b94505060206110d387828801610ed8565b935050604085013567ffffffffffffffff8111156110f4576110f3610ccf565b5b61110087828801611048565b925092505092959194509250565b5f6020820190506111215f830184610d88565b92915050565b7f4148494e416e63686f723a20696e76616c696420626c6f636b206e756d6265725f82015250565b5f61115b602083610da1565b915061116682611127565b602082019050919050565b5f6020820190508181035f8301526111888161114f565b9050919050565b7f4e487b71000000000000000000000000000000000000000000000000000000005f52602260045260245ffd5b5f60028204905060018216806111d357607f821691505b6020821081036111e6576111e561118f565b5b50919050565b7f4148494e416e63686f723a2063616c6c6572206973206e6f742061646d696e005f82015250565b5f611220601f83610da1565b915061122b826111ec565b602082019050919050565b5f6020820190508181035f83015261124d81611214565b9050919050565b7f4148494e416e63686f723a206e6f7420617574686f72697a65640000000000005f82015250565b5f611288601a83610da1565b915061129382611254565b602082019050919050565b5f6020820190508181035f8301526112b58161127c565b9050919050565b7f4148494e416e63686f723a20696e76616c6964206d65726b6c6520726f6f74005f82015250565b5f6112f0601f83610da1565b91506112fb826112bc565b602082019050919050565b5f6020820190508181035f83015261131d816112e4565b9050919050565b7f4148494e416e63686f723a207a65726f207472616e73616374696f6e730000005f82015250565b5f611358601d83610da1565b915061136382611324565b602082019050919050565b5f6020820190508181035f8301526113858161134c565b9050919050565b5f819050919050565b6113a66113a182610d31565b61138c565b82525050565b5f819050919050565b6113c66113c182610cd3565b6113ac565b82525050565b5f6113d78285611395565b6020820191506113e782846113b5565b6020820191508190509392505050565b7f4e487b71000000000000000000000000000000000000000000000000000000005f52601160045260245ffd5b5f61142e82610cd3565b91507fffffffffffffffffffffffffffffffffffffffffffffffffffffffffffffffff82036114605761145f6113f7565b5b600182019050919050565b7f4e487b71000000000000000000000000000000000000000000000000000000005f52604160045260245ffd5b5f819050815f5260205f209050919050565b5f6020601f8301049050919050565b5f82821b905092915050565b5f600883026114f47fffffffffffffffffffffffffffffffffffffffffffffffffffffffffffffffff826114b9565b6114fe86836114b9565b95508019841693508086168417925050509392505050565b5f819050919050565b5f61153961153461152f84610cd3565b611516565b610cd3565b9050919050565b5f819050919050565b6115528361151f565b61156661155e82611540565b8484546114c5565b825550505050565b5f5f905090565b61157d61156e565b611588818484611549565b505050565b5b818110156115ab576115a05f82611575565b60018101905061158e565b5050565b601f8211156115f0576115c181611498565b6115ca846114aa565b810160208510156115d9578190505b6115ed6115e5856114aa565b83018261158d565b50505b505050565b5f82821c905092915050565b5f6116105f19846008026115f5565b1980831691505092915050565b5f6116288383611601565b9150826002028217905092915050565b61164182610d97565b67ffffffffffffffff81111561165a5761165961146b565b5b61166482546111bc565b61166f8282856115af565b5f60209050601f8311600181146116a0575f841561168e578287015190505b611698858261161d565b8655506116ff565b601f1984166116ae86611498565b5f5b828110156116d5578489015182556001820191506020850194506020810190506116b0565b868310156116f257848901516116ee601f891682611601565b8355505b6001600288020188555050505b505050505050565b5f61171182610cd3565b915061171c83610cd3565b9250828201905080821115611734576117336113f7565b5b92915050565b5f60408201905061174d5f830185610d3a565b61175a6020830184610d49565b9392505050565b7f4148494e416e63686f723a20696e76616c69642072616e6765000000000000005f82015250565b5f611795601983610da1565b91506117a082611761565b602082019050919050565b5f6020820190508181035f8301526117c281611789565b9050919050565b5f6117d382610cd3565b91506117de83610cd3565b92508282039050818111156117f6576117f56113f7565b5b92915050565b7f4e487b71000000000000000000000000000000000000000000000000000000005f52603260045260245ffd5b5f6118348285611395565b6020820191506118448284611395565b602082019150819050939250505056fea26469706673582212202f2a825b68020768f2552585150517ac64f872b353bf5fe484acf54b8ecf3f1c64736f6c634300081d0033","linkReferences":{}},"methodIdentifiers":{"addAuthorizedAnchor(address)":"9093a24f","admin()":"f851a440","ahinBlocks(uint256)":"a74a8c34","anchorBlock(bytes32,uint256,string)":"375b119c","authorizedAnchors(address)":"b2be0d4a","currentBlockNumber()":"378ec23b","getBlock(uint256)":"04c07569","removeAuthorizedAnchor(address)":"0e646288","totalTransactionsAnchored()":"c933a794","verifyChainIntegrity(uint256,uint256)":"55c78abc","verifyTransaction(uint256,bytes32,bytes32[])":"d63fb11e"},"id":16}