{"abi":[{"type":"constructor","inputs":[],"stateMutability":"nonpayable"},{"type":"function","name":"addTrustedIssuer","inputs":[{"name":"issuer","type":"address","internalType":"address"}],"outputs":[],"stateMutability":"nonpayable"},{"type":"function","name":"admin","inputs":[],"outputs":[{"name":"","type":"address","internalType":"address"}],"stateMutability":"view"},{"type":"function","name":"credentials","inputs":[{"name":"","type":"bytes32","internalType":"bytes32"}],"outputs":[{"name":"credentialHash","type":"bytes32","internalType":"bytes32"},{"name":"issuer","type":"address","internalType":"address"},{"name":"subject","type":"address","internalType":"address"},{"name":"issuedAt","type":"uint256","internalType":"uint256"},{"name":"expiresAt","type":"uint256","internalType":"uint256"},{"name":"revoked","type":"bool","internalType":"bool"},{"name":"credentialType","type":"string","internalType":"string"}],"stateMutability":"view"},{"type":"function","name":"didRegistry","inputs":[{"name":"","type":"address","internalType":"address"}],"outputs":[{"name":"owner","type":"address","internalType":"address"},{"name":"didDocument","type":"string","internalType":"string"},{"name":"createdAt","type":"uint256","internalType":"uint256"},{"name":"updatedAt","type":"uint256","internalType":"uint256"},{"name":"status","type":"uint8","internalType":"enum CAIRegistry.DIDStatus"},{"name":"credentialHash","type":"bytes32","internalType":"bytes32"},{"name":"nonce","type":"uint256","internalType":"uint256"}],"stateMutability":"view"},{"type":"function","name":"getDID","inputs":[{"name":"did","type":"address","internalType":"address"}],"outputs":[{"name":"owner","type":"address","internalType":"address"},{"name":"didDocument","type":"string","internalType":"string"},{"name":"createdAt","type":"uint256","internalType":"uint256"},{"name":"updatedAt","type":"uint256","internalType":"uint256"},{"name":"status","type":"uint8","internalType":"enum CAIRegistry.DIDStatus"},{"name":"credentialHash","type":"bytes32","internalType":"bytes32"},{"name":"nonce","type":"uint256","internalType":"uint256"}],"stateMutability":"view"},{"type":"function","name":"incrementNonce","inputs":[{"name":"did","type":"address","internalType":"address"}],"outputs":[],"stateMutability":"nonpayable"},{"type":"function","name":"issueCredential","inputs":[{"name":"subject","type":"address","internalType":"address"},{"name":"credentialHash","type":"bytes32","internalType":"bytes32"},{"name":"credentialType","type":"string","internalType":"string"},{"name":"expiresAt","type":"uint256","internalType":"uint256"}],"outputs":[],"stateMutability":"nonpayable"},{"type":"function","name":"registerDID","inputs":[{"name":"didDocument","type":"string","internalType":"string"}],"outputs":[],"stateMutability":"nonpayable"},{"type":"function","name":"removeTrustedIssuer","inputs":[{"name":"issuer","type":"address","internalType":"address"}],"outputs":[],"stateMutability":"nonpayable"},{"type":"function","name":"revokeCredential","inputs":[{"name":"credentialHash","type":"bytes32","internalType":"bytes32"}],"outputs":[],"stateMutability":"nonpayable"},{"type":"function","name":"revokeDID","inputs":[{"name":"did","type":"address","internalType":"address"}],"outputs":[],"stateMutability":"nonpayable"},{"type":"function","name":"totalCredentials","inputs":[],"outputs":[{"name":"","type":"uint256","internalType":"uint256"}],"stateMutability":"view"},{"type":"function","name":"totalDIDs","inputs":[],"outputs":[{"name":"","type":"uint256","internalType":"uint256"}],"stateMutability":"view"},{"type":"function","name":"trustedIssuers","inputs":[{"name":"","type":"address","internalType":"address"}],"outputs":[{"name":"","type":"bool","internalType":"bool"}],"stateMutability":"view"},{"type":"function","name":"updateDID","inputs":[{"name":"newDocument","type":"string","internalType":"string"}],"outputs":[],"stateMutability":"nonpayable"},{"type":"function","name":"verifyCredential","inputs":[{"name":"credentialHash","type":"bytes32","internalType":"bytes32"}],"outputs":[{"name":"valid","type":"bool","internalType":"bool"}],"stateMutability":"view"},{"type":"event","name":"CredentialIssued","inputs":[{"name":"credentialHash","type":"bytes32","indexed":true,"internalType":"bytes32"},{"name":"subject","type":"address","indexed":true,"internalType":"address"},{"name":"timestamp","type":"uint256","indexed":false,"internalType":"uint256"}],"anonymous":false},{"type":"event","name":"CredentialRevoked","inputs":[{"name":"credentialHash","type":"bytes32","indexed":true,"internalType":"bytes32"},{"name":"timestamp","type":"uint256","indexed":false,"internalType":"uint256"}],"anonymous":false},{"type":"event","name":"DIDRegistered","inputs":[{"name":"did","type":"address","indexed":true,"internalType":"address"},{"name":"didDocument","type":"string","indexed":false,"internalType":"string"},{"name":"timestamp","type":"uint256","indexed":false,"internalType":"uint256"}],"anonymous":false},{"type":"event","name":"DIDRevoked","inputs":[{"name":"did","type":"address","indexed":true,"internalType":"address"},{"name":"timestamp","type":"uint256","indexed":false,"internalType":"uint256"}],"anonymous":false},{"type":"event","name":"DIDUpdated","inputs":[{"name":"did","type":"address","indexed":true,"internalType":"address"},{"name":"newDocument","type":"string","indexed":false,"internalType":"string"},{"name":"timestamp","type":"uint256","indexed":false,"internalType":"uint256"}],"anonymous":false},{"type":"event","name":"TrustedIssuerAdded","inputs":[{"name":"issuer","type":"address","indexed":true,"internalType":"address"}],"anonymous":false},{"type":"event","name":"TrustedIssuerRemoved","inputs":[{"name":"issuer","type":"address","indexed":true,"internalType":"address"}],"anonymous":false}],"bytecode":{"object":"0x6080604052348015600e575f5ffd5b503360035f6101000a81548173ffffffffffffffffffffffffffffffffffffffff021916908373ffffffffffffffffffffffffffffffffffffffff160217905550600160025f3373ffffffffffffffffffffffffffffffffffffffff1673ffffffffffffffffffffffffffffffffffffffff1681526020019081526020015f205f6101000a81548160ff0219169083151502179055506126c0806100b15f395ff3fe608060405234801561000f575f5ffd5b50600436106100fe575f3560e01c806392c54daf11610095578063e036a27911610064578063e036a279146102b2578063f5743c4c146102ce578063f64e30b0146102ea578063f851a44014610320576100fe565b806392c54daf1461022e578063b93d28eb1461025e578063c4566bdd1461027a578063ca6eec7814610296576100fe565b80634dbf87cc116100d15780634dbf87cc146101a8578063570810e2146101d85780635d66b80e146101f45780638ed0606514610212576100fe565b806314c95832146101025780631513d62b1461011e5780631775df091461013c578063299d034814610172575b5f5ffd5b61011c600480360381019061011791906118f2565b61033e565b005b6101266105a6565b6040516101339190611955565b60405180910390f35b610156600480360381019061015191906119c8565b6105ac565b6040516101699796959493929190611afd565b60405180910390f35b61018c60048036038101906101879190611b9b565b61069a565b60405161019f9796959493929190611be0565b60405180910390f35b6101c260048036038101906101bd9190611b9b565b6107a8565b6040516101cf9190611c54565b60405180910390f35b6101f260048036038101906101ed91906118f2565b6108b3565b005b6101fc610b62565b6040516102099190611955565b60405180910390f35b61022c60048036038101906102279190611c97565b610b68565b005b610248600480360381019061024391906119c8565b610f81565b6040516102559190611c54565b60405180910390f35b610278600480360381019061027391906119c8565b610f9e565b005b610294600480360381019061028f91906119c8565b6110c7565b005b6102b060048036038101906102ab9190611b9b565b6111f1565b005b6102cc60048036038101906102c791906119c8565b611396565b005b6102e860048036038101906102e391906119c8565b611609565b005b61030460048036038101906102ff91906119c8565b61172d565b6040516103179796959493929190611afd565b60405180910390f35b610328611864565b6040516103359190611d1b565b60405180910390f35b333373ffffffffffffffffffffffffffffffffffffffff165f5f8373ffffffffffffffffffffffffffffffffffffffff1673ffffffffffffffffffffffffffffffffffffffff1681526020019081526020015f205f015f9054906101000a900473ffffffffffffffffffffffffffffffffffffffff1673ffffffffffffffffffffffffffffffffffffffff161461040a576040517f08c379a000000000000000000000000000000000000000000000000000000000815260040161040190611d7e565b60405180910390fd5b6001600381111561041e5761041d611a72565b5b5f5f3373ffffffffffffffffffffffffffffffffffffffff1673ffffffffffffffffffffffffffffffffffffffff1681526020019081526020015f206004015f9054906101000a900460ff16600381111561047c5761047b611a72565b5b146104bc576040517f08c379a00000000000000000000000000000000000000000000000000000000081526004016104b390611de6565b60405180910390fd5b82825f5f3373ffffffffffffffffffffffffffffffffffffffff1673ffffffffffffffffffffffffffffffffffffffff1681526020019081526020015f20600101918261050a929190612038565b50425f5f3373ffffffffffffffffffffffffffffffffffffffff1673ffffffffffffffffffffffffffffffffffffffff1681526020019081526020015f20600301819055503373ffffffffffffffffffffffffffffffffffffffff167f93356fabb365197309ac6eb50274b83740341acc82af3e2058c1da7c0edbb8338484426040516105999392919061213f565b60405180910390a2505050565b60055481565b5f602052805f5260405f205f91509050805f015f9054906101000a900473ffffffffffffffffffffffffffffffffffffffff16908060010180546105ef90611e68565b80601f016020809104026020016040519081016040528092919081815260200182805461061b90611e68565b80156106665780601f1061063d57610100808354040283529160200191610666565b820191905f5260205f20905b81548152906001019060200180831161064957829003601f168201915b505050505090806002015490806003015490806004015f9054906101000a900460ff16908060050154908060060154905087565b6001602052805f5260405f205f91509050805f015490806001015f9054906101000a900473ffffffffffffffffffffffffffffffffffffffff1690806002015f9054906101000a900473ffffffffffffffffffffffffffffffffffffffff1690806003015490806004015490806005015f9054906101000a900460ff169080600601805461072790611e68565b80601f016020809104026020016040519081016040528092919081815260200182805461075390611e68565b801561079e5780601f106107755761010080835404028352916020019161079e565b820191905f5260205f20905b81548152906001019060200180831161078157829003601f168201915b5050505050905087565b5f5f60015f8481526020019081526020015f2090505f8160030154036107d1575f9150506108ae565b806005015f9054906101000a900460ff16156107f0575f9150506108ae565b8060040154421115610805575f9150506108ae565b6001600381111561081957610818611a72565b5b5f5f836002015f9054906101000a900473ffffffffffffffffffffffffffffffffffffffff1673ffffffffffffffffffffffffffffffffffffffff1673ffffffffffffffffffffffffffffffffffffffff1681526020019081526020015f206004015f9054906101000a900460ff16600381111561089a57610899611a72565b5b146108a8575f9150506108ae565b60019150505b919050565b5f60038111156108c6576108c5611a72565b5b5f5f3373ffffffffffffffffffffffffffffffffffffffff1673ffffffffffffffffffffffffffffffffffffffff1681526020019081526020015f206004015f9054906101000a900460ff16600381111561092457610923611a72565b5b14610964576040517f08c379a000000000000000000000000000000000000000000000000000000000815260040161095b906121df565b60405180910390fd5b6040518060e001604052803373ffffffffffffffffffffffffffffffffffffffff16815260200183838080601f0160208091040260200160405190810160405280939291908181526020018383808284375f81840152601f19601f820116905080830192505050505050508152602001428152602001428152602001600160038111156109f4576109f3611a72565b5b81526020015f5f1b81526020015f8152505f5f3373ffffffffffffffffffffffffffffffffffffffff1673ffffffffffffffffffffffffffffffffffffffff1681526020019081526020015f205f820151815f015f6101000a81548173ffffffffffffffffffffffffffffffffffffffff021916908373ffffffffffffffffffffffffffffffffffffffff1602179055506020820151816001019081610a9a91906121fd565b5060408201518160020155606082015181600301556080820151816004015f6101000a81548160ff02191690836003811115610ad957610ad8611a72565b5b021790555060a0820151816005015560c0820151816006015590505060045f815480929190610b07906122f9565b91905055503373ffffffffffffffffffffffffffffffffffffffff167f208dff384c909c91beffe978ba88e0014aa203180b2e6a3542e153bcc0f0fced838342604051610b569392919061213f565b60405180910390a25050565b60045481565b60025f3373ffffffffffffffffffffffffffffffffffffffff1673ffffffffffffffffffffffffffffffffffffffff1681526020019081526020015f205f9054906101000a900460ff16610bf1576040517f08c379a0000000000000000000000000000000000000000000000000000000008152600401610be89061238a565b60405180910390fd5b60016003811115610c0557610c04611a72565b5b5f5f8773ffffffffffffffffffffffffffffffffffffffff1673ffffffffffffffffffffffffffffffffffffffff1681526020019081526020015f206004015f9054906101000a900460ff166003811115610c6357610c62611a72565b5b14610ca3576040517f08c379a0000000000000000000000000000000000000000000000000000000008152600401610c9a90612418565b60405180910390fd5b5f60015f8681526020019081526020015f206003015414610cf9576040517f08c379a0000000000000000000000000000000000000000000000000000000008152600401610cf0906124a6565b60405180910390fd5b428111610d3b576040517f08c379a0000000000000000000000000000000000000000000000000000000008152600401610d329061250e565b60405180910390fd5b6040518060e001604052808581526020013373ffffffffffffffffffffffffffffffffffffffff1681526020018673ffffffffffffffffffffffffffffffffffffffff1681526020014281526020018281526020015f1515815260200184848080601f0160208091040260200160405190810160405280939291908181526020018383808284375f81840152601f19601f8201169050808301925050505050505081525060015f8681526020019081526020015f205f820151815f01556020820151816001015f6101000a81548173ffffffffffffffffffffffffffffffffffffffff021916908373ffffffffffffffffffffffffffffffffffffffff1602179055506040820151816002015f6101000a81548173ffffffffffffffffffffffffffffffffffffffff021916908373ffffffffffffffffffffffffffffffffffffffff160217905550606082015181600301556080820151816004015560a0820151816005015f6101000a81548160ff02191690831515021790555060c0820151816006019081610ecc91906121fd565b50905050835f5f8773ffffffffffffffffffffffffffffffffffffffff1673ffffffffffffffffffffffffffffffffffffffff1681526020019081526020015f206005018190555060055f815480929190610f26906122f9565b91905055508473ffffffffffffffffffffffffffffffffffffffff16847f9b60e47e0de9dd13e3abeaa344b9315385a37fc57bf220201f068e387f16d8a442604051610f729190611955565b60405180910390a35050505050565b6002602052805f5260405f205f915054906101000a900460ff1681565b60035f9054906101000a900473ffffffffffffffffffffffffffffffffffffffff1673ffffffffffffffffffffffffffffffffffffffff163373ffffffffffffffffffffffffffffffffffffffff161461102d576040517f08c379a000000000000000000000000000000000000000000000000000000000815260040161102490612576565b60405180910390fd5b5f60025f8373ffffffffffffffffffffffffffffffffffffffff1673ffffffffffffffffffffffffffffffffffffffff1681526020019081526020015f205f6101000a81548160ff0219169083151502179055508073ffffffffffffffffffffffffffffffffffffffff167f2214ded40113cc3fb63fc206cafee88270b0a903dac7245d54efdde30ebb032160405160405180910390a250565b60035f9054906101000a900473ffffffffffffffffffffffffffffffffffffffff1673ffffffffffffffffffffffffffffffffffffffff163373ffffffffffffffffffffffffffffffffffffffff1614611156576040517f08c379a000000000000000000000000000000000000000000000000000000000815260040161114d90612576565b60405180910390fd5b600160025f8373ffffffffffffffffffffffffffffffffffffffff1673ffffffffffffffffffffffffffffffffffffffff1681526020019081526020015f205f6101000a81548160ff0219169083151502179055508073ffffffffffffffffffffffffffffffffffffffff167f311d2b687f3241372ca29b49f84ab625de8e695cb75dc6f3126a2aad34bce0c560405160405180910390a250565b5f60015f8381526020019081526020015f209050806001015f9054906101000a900473ffffffffffffffffffffffffffffffffffffffff1673ffffffffffffffffffffffffffffffffffffffff163373ffffffffffffffffffffffffffffffffffffffff1614806112ae575060035f9054906101000a900473ffffffffffffffffffffffffffffffffffffffff1673ffffffffffffffffffffffffffffffffffffffff163373ffffffffffffffffffffffffffffffffffffffff16145b6112ed576040517f08c379a00000000000000000000000000000000000000000000000000000000081526004016112e490612604565b60405180910390fd5b806005015f9054906101000a900460ff161561133e576040517f08c379a00000000000000000000000000000000000000000000000000000000081526004016113359061266c565b60405180910390fd5b6001816005015f6101000a81548160ff021916908315150217905550817f75f6605999947515f809e45f97b7200bd8afc73fe9f88ea28987627467dbac844260405161138a9190611955565b60405180910390a25050565b8073ffffffffffffffffffffffffffffffffffffffff163373ffffffffffffffffffffffffffffffffffffffff16148061141c575060035f9054906101000a900473ffffffffffffffffffffffffffffffffffffffff1673ffffffffffffffffffffffffffffffffffffffff163373ffffffffffffffffffffffffffffffffffffffff16145b61145b576040517f08c379a000000000000000000000000000000000000000000000000000000000815260040161145290612604565b60405180910390fd5b6001600381111561146f5761146e611a72565b5b5f5f8373ffffffffffffffffffffffffffffffffffffffff1673ffffffffffffffffffffffffffffffffffffffff1681526020019081526020015f206004015f9054906101000a900460ff1660038111156114cd576114cc611a72565b5b1461150d576040517f08c379a000000000000000000000000000000000000000000000000000000000815260040161150490611de6565b60405180910390fd5b60025f5f8373ffffffffffffffffffffffffffffffffffffffff1673ffffffffffffffffffffffffffffffffffffffff1681526020019081526020015f206004015f6101000a81548160ff0219169083600381111561156f5761156e611a72565b5b0217905550425f5f8373ffffffffffffffffffffffffffffffffffffffff1673ffffffffffffffffffffffffffffffffffffffff1681526020019081526020015f20600301819055508073ffffffffffffffffffffffffffffffffffffffff167f9a093ae7c73f311f6bbfd4a53f263429e0a5ab016999d72403ff7bcaa81e270f426040516115fe9190611955565b60405180910390a250565b803373ffffffffffffffffffffffffffffffffffffffff165f5f8373ffffffffffffffffffffffffffffffffffffffff1673ffffffffffffffffffffffffffffffffffffffff1681526020019081526020015f205f015f9054906101000a900473ffffffffffffffffffffffffffffffffffffffff1673ffffffffffffffffffffffffffffffffffffffff16146116d5576040517f08c379a00000000000000000000000000000000000000000000000000000000081526004016116cc90611d7e565b60405180910390fd5b5f5f8373ffffffffffffffffffffffffffffffffffffffff1673ffffffffffffffffffffffffffffffffffffffff1681526020019081526020015f206006015f815480929190611724906122f9565b91905055505050565b5f60605f5f5f5f5f5f5f5f8a73ffffffffffffffffffffffffffffffffffffffff1673ffffffffffffffffffffffffffffffffffffffff1681526020019081526020015f209050805f015f9054906101000a900473ffffffffffffffffffffffffffffffffffffffff168160010182600201548360030154846004015f9054906101000a900460ff16856005015486600601548580546117cc90611e68565b80601f01602080910402602001604051908101604052809291908181526020018280546117f890611e68565b80156118435780601f1061181a57610100808354040283529160200191611843565b820191905f5260205f20905b81548152906001019060200180831161182657829003601f168201915b50505050509550975097509750975097509750975050919395979092949650565b60035f9054906101000a900473ffffffffffffffffffffffffffffffffffffffff1681565b5f5ffd5b5f5ffd5b5f5ffd5b5f5ffd5b5f5ffd5b5f5f83601f8401126118b2576118b1611891565b5b8235905067ffffffffffffffff8111156118cf576118ce611895565b5b6020830191508360018202830111156118eb576118ea611899565b5b9250929050565b5f5f6020838503121561190857611907611889565b5b5f83013567ffffffffffffffff8111156119255761192461188d565b5b6119318582860161189d565b92509250509250929050565b5f819050919050565b61194f8161193d565b82525050565b5f6020820190506119685f830184611946565b92915050565b5f73ffffffffffffffffffffffffffffffffffffffff82169050919050565b5f6119978261196e565b9050919050565b6119a78161198d565b81146119b1575f5ffd5b50565b5f813590506119c28161199e565b92915050565b5f602082840312156119dd576119dc611889565b5b5f6119ea848285016119b4565b91505092915050565b6119fc8161198d565b82525050565b5f81519050919050565b5f82825260208201905092915050565b8281835e5f83830152505050565b5f601f19601f8301169050919050565b5f611a4482611a02565b611a4e8185611a0c565b9350611a5e818560208601611a1c565b611a6781611a2a565b840191505092915050565b7f4e487b71000000000000000000000000000000000000000000000000000000005f52602160045260245ffd5b60048110611ab057611aaf611a72565b5b50565b5f819050611ac082611a9f565b919050565b5f611acf82611ab3565b9050919050565b611adf81611ac5565b82525050565b5f819050919050565b611af781611ae5565b82525050565b5f60e082019050611b105f83018a6119f3565b8181036020830152611b228189611a3a565b9050611b316040830188611946565b611b3e6060830187611946565b611b4b6080830186611ad6565b611b5860a0830185611aee565b611b6560c0830184611946565b98975050505050505050565b611b7a81611ae5565b8114611b84575f5ffd5b50565b5f81359050611b9581611b71565b92915050565b5f60208284031215611bb057611baf611889565b5b5f611bbd84828501611b87565b91505092915050565b5f8115159050919050565b611bda81611bc6565b82525050565b5f60e082019050611bf35f83018a611aee565b611c0060208301896119f3565b611c0d60408301886119f3565b611c1a6060830187611946565b611c276080830186611946565b611c3460a0830185611bd1565b81810360c0830152611c468184611a3a565b905098975050505050505050565b5f602082019050611c675f830184611bd1565b92915050565b611c768161193d565b8114611c80575f5ffd5b50565b5f81359050611c9181611c6d565b92915050565b5f5f5f5f5f60808688031215611cb057611caf611889565b5b5f611cbd888289016119b4565b9550506020611cce88828901611b87565b945050604086013567ffffffffffffffff811115611cef57611cee61188d565b5b611cfb8882890161189d565b93509350506060611d0e88828901611c83565b9150509295509295909350565b5f602082019050611d2e5f8301846119f3565b92915050565b7f43414952656769737472793a206e6f7420444944206f776e65720000000000005f82015250565b5f611d68601a83611a0c565b9150611d7382611d34565b602082019050919050565b5f6020820190508181035f830152611d9581611d5c565b9050919050565b7f43414952656769737472793a20444944206e6f742061637469766500000000005f82015250565b5f611dd0601b83611a0c565b9150611ddb82611d9c565b602082019050919050565b5f6020820190508181035f830152611dfd81611dc4565b9050919050565b5f82905092915050565b7f4e487b71000000000000000000000000000000000000000000000000000000005f52604160045260245ffd5b7f4e487b71000000000000000000000000000000000000000000000000000000005f52602260045260245ffd5b5f6002820490506001821680611e7f57607f821691505b602082108103611e9257611e91611e3b565b5b50919050565b5f819050815f5260205f209050919050565b5f6020601f8301049050919050565b5f82821b905092915050565b5f60088302611ef47fffffffffffffffffffffffffffffffffffffffffffffffffffffffffffffffff82611eb9565b611efe8683611eb9565b95508019841693508086168417925050509392505050565b5f819050919050565b5f611f39611f34611f2f8461193d565b611f16565b61193d565b9050919050565b5f819050919050565b611f5283611f1f565b611f66611f5e82611f40565b848454611ec5565b825550505050565b5f5f905090565b611f7d611f6e565b611f88818484611f49565b505050565b5b81811015611fab57611fa05f82611f75565b600181019050611f8e565b5050565b601f821115611ff057611fc181611e98565b611fca84611eaa565b81016020851015611fd9578190505b611fed611fe585611eaa565b830182611f8d565b50505b505050565b5f82821c905092915050565b5f6120105f1984600802611ff5565b1980831691505092915050565b5f6120288383612001565b9150826002028217905092915050565b6120428383611e04565b67ffffffffffffffff81111561205b5761205a611e0e565b5b6120658254611e68565b612070828285611faf565b5f601f83116001811461209d575f841561208b578287013590505b612095858261201d565b8655506120fc565b601f1984166120ab86611e98565b5f5b828110156120d2578489013582556001820191506020850194506020810190506120ad565b868310156120ef57848901356120eb601f891682612001565b8355505b6001600288020188555050505b50505050505050565b828183375f83830152505050565b5f61211e8385611a0c565b935061212b838584612105565b61213483611a2a565b840190509392505050565b5f6040820190508181035f830152612158818587612113565b90506121676020830184611946565b949350505050565b7f43414952656769737472793a2044494420616c726561647920726567697374655f8201527f7265640000000000000000000000000000000000000000000000000000000000602082015250565b5f6121c9602383611a0c565b91506121d48261216f565b604082019050919050565b5f6020820190508181035f8301526121f6816121bd565b9050919050565b61220682611a02565b67ffffffffffffffff81111561221f5761221e611e0e565b5b6122298254611e68565b612234828285611faf565b5f60209050601f831160018114612265575f8415612253578287015190505b61225d858261201d565b8655506122c4565b601f19841661227386611e98565b5f5b8281101561229a57848901518255600182019150602085019450602081019050612275565b868310156122b757848901516122b3601f891682612001565b8355505b6001600288020188555050505b505050505050565b7f4e487b71000000000000000000000000000000000000000000000000000000005f52601160045260245ffd5b5f6123038261193d565b91507fffffffffffffffffffffffffffffffffffffffffffffffffffffffffffffffff8203612335576123346122cc565b5b600182019050919050565b7f43414952656769737472793a206e6f74207472757374656420697373756572005f82015250565b5f612374601f83611a0c565b915061237f82612340565b602082019050919050565b5f6020820190508181035f8301526123a181612368565b9050919050565b7f43414952656769737472793a207375626a65637420444944206e6f74206163745f8201527f6976650000000000000000000000000000000000000000000000000000000000602082015250565b5f612402602383611a0c565b915061240d826123a8565b604082019050919050565b5f6020820190508181035f83015261242f816123f6565b9050919050565b7f43414952656769737472793a2063726564656e7469616c20616c7265616479205f8201527f6578697374730000000000000000000000000000000000000000000000000000602082015250565b5f612490602683611a0c565b915061249b82612436565b604082019050919050565b5f6020820190508181035f8301526124bd81612484565b9050919050565b7f43414952656769737472793a20696e76616c69642065787069726174696f6e005f82015250565b5f6124f8601f83611a0c565b9150612503826124c4565b602082019050919050565b5f6020820190508181035f830152612525816124ec565b9050919050565b7f43414952656769737472793a2063616c6c6572206973206e6f742061646d696e5f82015250565b5f612560602083611a0c565b915061256b8261252c565b602082019050919050565b5f6020820190508181035f83015261258d81612554565b9050919050565b7f43414952656769737472793a20756e617574686f72697a6564207265766f63615f8201527f74696f6e00000000000000000000000000000000000000000000000000000000602082015250565b5f6125ee602483611a0c565b91506125f982612594565b604082019050919050565b5f6020820190508181035f83015261261b816125e2565b9050919050565b7f43414952656769737472793a20616c7265616479207265766f6b6564000000005f82015250565b5f612656601c83611a0c565b915061266182612622565b602082019050919050565b5f6020820190508181035f8301526126838161264a565b905091905056fea26469706673582212201935dacd63d0fc543e84ecb2591bdcb97074454f3de4f74899728150d2aca25264736f6c634300081d0033","linkReferences":{}},"methodIdentifiers":{"addTrustedIssuer(address)":"c4566bdd","admin()":"f851a440","credentials(bytes32)":"299d0348","didRegistry(address)":"1775df09","getDID(address)":"f64e30b0","incrementNonce(address)":"f5743c4c","issueCredential(address,bytes32,string,uint256)":"8ed06065","registerDID(string)":"570810e2","removeTrustedIssuer(address)":"b93d28eb","revokeCredential(bytes32)":"ca6eec78","revokeDID(address)":"e036a279","totalCredentials()":"1513d62b","totalDIDs()":"5d66b80e","trustedIssuers(address)":"92c54daf","updateDID(string)":"14c95832","verifyCredential(bytes32)":"4dbf87cc"},"id":17}