{"abi":[{"type":"constructor","inputs":[{"name":"_registry","type":"address","internalType":"address"},{"name":"_anchor","type":"address","internalType":"address"}],"stateMutability":"nonpayable"},{"type":"function","name":"anchor","inputs":[],"outputs":[{"name":"","type":"address","internalType":"contract AHINAnchor"}],"stateMutability":"view"},{"type":"function","name":"completeTransaction","inputs":[{"name":"transactionId","type":"bytes32","internalType":"bytes32"},{"name":"receiptHash","type":"bytes32","internalType":"bytes32"},{"name":"receiptSignature","type":"bytes","internalType":"bytes"}],"outputs":[],"stateMutability":"nonpayable"},{"type":"function","name":"disputeTransaction","inputs":[{"name":"transactionId","type":"bytes32","internalType":"bytes32"},{"name":"reason","type":"string","internalType":"string"}],"outputs":[],"stateMutability":"nonpayable"},{"type":"function","name":"getTransaction","inputs":[{"name":"transactionId","type":"bytes32","internalType":"bytes32"}],"outputs":[{"name":"agent","type":"address","internalType":"address"},{"name":"merchant","type":"address","internalType":"address"},{"name":"amount","type":"uint256","internalType":"uint256"},{"name":"cartHash","type":"bytes32","internalType":"bytes32"},{"name":"receiptHash","type":"bytes32","internalType":"bytes32"},{"name":"status","type":"uint8","internalType":"uint8"},{"name":"timestamp","type":"uint256","internalType":"uint256"}],"stateMutability":"view"},{"type":"function","name":"initiateTransaction","inputs":[{"name":"agent","type":"address","internalType":"address"},{"name":"merchant","type":"address","internalType":"address"},{"name":"amount","type":"uint256","internalType":"uint256"},{"name":"cartHash","type":"bytes32","internalType":"bytes32"},{"name":"mandateSignature","type":"bytes","internalType":"bytes"}],"outputs":[{"name":"transactionId","type":"bytes32","internalType":"bytes32"}],"stateMutability":"nonpayable"},{"type":"function","name":"registry","inputs":[],"outputs":[{"name":"","type":"address","internalType":"contract CAIRegistry"}],"stateMutability":"view"},{"type":"function","name":"totalTransactions","inputs":[],"outputs":[{"name":"","type":"uint256","internalType":"uint256"}],"stateMutability":"view"},{"type":"function","name":"transactionNonce","inputs":[],"outputs":[{"name":"","type":"uint256","internalType":"uint256"}],"stateMutability":"view"},{"type":"function","name":"transactions","inputs":[{"name":"","type":"bytes32","internalType":"bytes32"}],"outputs":[{"name":"transactionId","type":"bytes32","internalType":"bytes32"},{"name":"agent","type":"address","internalType":"address"},{"name":"merchant","type":"address","internalType":"address"},{"name":"user","type":"address","internalType":"address"},{"name":"amount","type":"uint256","internalType":"uint256"},{"name":"cartHash","type":"bytes32","internalType":"bytes32"},{"name":"mandateHash","type":"bytes32","internalType":"bytes32"},{"name":"receiptHash","type":"bytes32","internalType":"bytes32"},{"name":"status","type":"uint8","internalType":"enum ERC8004Agent.TxStatus"},{"name":"createdAt","type":"uint256","internalType":"uint256"},{"name":"completedAt","type":"uint256","internalType":"uint256"},{"name":"disputeReason","type":"string","internalType":"string"}],"stateMutability":"view"},{"type":"function","name":"verifyTransactionIntegrity","inputs":[{"name":"transactionId","type":"bytes32","internalType":"bytes32"},{"name":"blockNumber","type":"uint256","internalType":"uint256"},{"name":"proof","type":"bytes32[]","internalType":"bytes32[]"}],"outputs":[{"name":"valid","type":"bool","internalType":"bool"}],"stateMutability":"view"},{"type":"event","name":"TransactionCompleted","inputs":[{"name":"transactionId","type":"bytes32","indexed":true,"internalType":"bytes32"},{"name":"receiptHash","type":"bytes32","indexed":false,"internalType":"bytes32"},{"name":"timestamp","type":"uint256","indexed":false,"internalType":"uint256"}],"anonymous":false},{"type":"event","name":"TransactionDisputed","inputs":[{"name":"transactionId","type":"bytes32","indexed":true,"internalType":"bytes32"},{"name":"disputer","type":"address","indexed":true,"internalType":"address"},{"name":"reason","type":"string","indexed":false,"internalType":"string"}],"anonymous":false},{"type":"event","name":"TransactionInitiated","inputs":[{"name":"transactionId","type":"bytes32","indexed":true,"internalType":"bytes32"},{"name":"agent","type":"address","indexed":true,"internalType":"address"},{"name":"merchant","type":"address","indexed":true,"internalType":"address"},{"name":"amount","type":"uint256","indexed":false,"internalType":"uint256"},{"name":"cartHash","type":"bytes32","indexed":false,"internalType":"bytes32"}],"anonymous":false}],"bytecode":{"object":"0x608060405234801561000f575f5ffd5b5060405161243438038061243483398181016040528101906100319190610116565b8160015f6101000a81548173ffffffffffffffffffffffffffffffffffffffff021916908373ffffffffffffffffffffffffffffffffffffffff1602179055508060025f6101000a81548173ffffffffffffffffffffffffffffffffffffffff021916908373ffffffffffffffffffffffffffffffffffffffff1602179055505050610154565b5f5ffd5b5f73ffffffffffffffffffffffffffffffffffffffff82169050919050565b5f6100e5826100bc565b9050919050565b6100f5816100db565b81146100ff575f5ffd5b50565b5f81519050610110816100ec565b92915050565b5f5f6040838503121561012c5761012b6100b8565b5b5f61013985828601610102565b925050602061014a85828601610102565b9150509250929050565b6122d3806101615f395ff3fe608060405234801561000f575f5ffd5b506004361061009c575f3560e01c80637b103999116100645780637b10399914610179578063b9a6003814610197578063c7944ca1146101b5578063d3fb73b4146101d3578063fef218ca146101f15761009c565b806338eaf9ff146100a05780633e293e32146100bc5780634aae13ca146100ec578063642f2eaf14610122578063660912d81461015d575b5f5ffd5b6100ba60048036038101906100b59190610f4a565b610221565b005b6100d660048036038101906100d19190611089565b61046a565b6040516100e3919061112e565b60405180910390f35b61010660048036038101906101019190611147565b610899565b60405161011997969594939291906111ab565b60405180910390f35b61013c60048036038101906101379190611147565b61094c565b6040516101549c9b9a999897969594939291906112fb565b60405180910390f35b610177600480360381019061017291906113ba565b610a96565b005b610181610d11565b60405161018e9190611486565b60405180910390f35b61019f610d36565b6040516101ac919061149f565b60405180910390f35b6101bd610d3c565b6040516101ca919061149f565b60405180910390f35b6101db610d42565b6040516101e891906114d8565b60405180910390f35b61020b60048036038101906102069190611546565b610d67565b60405161021891906115d1565b60405180910390f35b5f5f5f8581526020019081526020015f2090505f600381111561024757610246611218565b5b816008015f9054906101000a900460ff16600381111561026a57610269611218565b5b14806102aa57506001600381111561028557610284611218565b5b816008015f9054906101000a900460ff1660038111156102a8576102a7611218565b5b145b6102e9576040517f08c379a00000000000000000000000000000000000000000000000000000000081526004016102e090611634565b60405180910390fd5b806003015f9054906101000a900473ffffffffffffffffffffffffffffffffffffffff1673ffffffffffffffffffffffffffffffffffffffff163373ffffffffffffffffffffffffffffffffffffffff1614806103945750806002015f9054906101000a900473ffffffffffffffffffffffffffffffffffffffff1673ffffffffffffffffffffffffffffffffffffffff163373ffffffffffffffffffffffffffffffffffffffff16145b6103d3576040517f08c379a00000000000000000000000000000000000000000000000000000000081526004016103ca9061169c565b60405180910390fd5b6002816008015f6101000a81548160ff021916908360038111156103fa576103f9611218565b5b0217905550828282600b0191826104129291906118e5565b503373ffffffffffffffffffffffffffffffffffffffff16847f3589a8ae82b66ad424abaf039afd9fad28266fd47b19f7b0efdf130402a50790858560405161045c9291906119ec565b60405180910390a350505050565b5f5f5f60015f9054906101000a900473ffffffffffffffffffffffffffffffffffffffff1673ffffffffffffffffffffffffffffffffffffffff1663f64e30b08a6040518263ffffffff1660e01b81526004016104c79190611a0e565b5f60405180830381865afa1580156104e1573d5f5f3e3d5ffd5b505050506040513d5f823e3d601f19601f820116820180604052508101906105099190611b73565b5050945050935050505f821180156105455750600160038111156105305761052f611218565b5b81600381111561054357610542611218565b5b145b610584576040517f08c379a000000000000000000000000000000000000000000000000000000000815260040161057b90611c76565b60405180910390fd5b88888760045f81548092919061059990611cc1565b91905055426040516020016105b2959493929190611d8d565b6040516020818303038152906040528051906020012092505f85856040516105db929190611e19565b604051809103902090506040518061018001604052808581526020018b73ffffffffffffffffffffffffffffffffffffffff1681526020018a73ffffffffffffffffffffffffffffffffffffffff1681526020013373ffffffffffffffffffffffffffffffffffffffff1681526020018981526020018881526020018281526020015f5f1b81526020015f600381111561067857610677611218565b5b81526020014281526020015f815260200160405180602001604052805f8152508152505f5f8681526020019081526020015f205f820151815f01556020820151816001015f6101000a81548173ffffffffffffffffffffffffffffffffffffffff021916908373ffffffffffffffffffffffffffffffffffffffff1602179055506040820151816002015f6101000a81548173ffffffffffffffffffffffffffffffffffffffff021916908373ffffffffffffffffffffffffffffffffffffffff1602179055506060820151816003015f6101000a81548173ffffffffffffffffffffffffffffffffffffffff021916908373ffffffffffffffffffffffffffffffffffffffff1602179055506080820151816004015560a0820151816005015560c0820151816006015560e08201518160070155610100820151816008015f6101000a81548160ff021916908360038111156107d8576107d7611218565b5b0217905550610120820151816009015561014082015181600a015561016082015181600b0190816108099190611e31565b5090505060035f81548092919061081f90611cc1565b91905055508873ffffffffffffffffffffffffffffffffffffffff168a73ffffffffffffffffffffffffffffffffffffffff16857f4a9cbc89ca14788f61bf9faa2c41af6190f960c62959900c15245b6e884764188b8b604051610884929190611f00565b60405180910390a45050509695505050505050565b5f5f5f5f5f5f5f5f5f5f8a81526020019081526020015f209050806001015f9054906101000a900473ffffffffffffffffffffffffffffffffffffffff16816002015f9054906101000a900473ffffffffffffffffffffffffffffffffffffffff16826004015483600501548460070154856008015f9054906101000a900460ff16600381111561092d5761092c611218565b5b8660090154975097509750975097509750975050919395979092949650565b5f602052805f5260405f205f91509050805f015490806001015f9054906101000a900473ffffffffffffffffffffffffffffffffffffffff1690806002015f9054906101000a900473ffffffffffffffffffffffffffffffffffffffff1690806003015f9054906101000a900473ffffffffffffffffffffffffffffffffffffffff1690806004015490806005015490806006015490806007015490806008015f9054906101000a900460ff169080600901549080600a01549080600b018054610a159061171e565b80601f0160208091040260200160405190810160405280929190818152602001828054610a419061171e565b8015610a8c5780601f10610a6357610100808354040283529160200191610a8c565b820191905f5260205f20905b815481529060010190602001808311610a6f57829003601f168201915b505050505090508c565b5f5f5f8681526020019081526020015f2090505f6003811115610abc57610abb611218565b5b816008015f9054906101000a900460ff166003811115610adf57610ade611218565b5b14610b1f576040517f08c379a0000000000000000000000000000000000000000000000000000000008152600401610b1690611f71565b60405180910390fd5b806001015f9054906101000a900473ffffffffffffffffffffffffffffffffffffffff1673ffffffffffffffffffffffffffffffffffffffff163373ffffffffffffffffffffffffffffffffffffffff161480610bca5750806002015f9054906101000a900473ffffffffffffffffffffffffffffffffffffffff1673ffffffffffffffffffffffffffffffffffffffff163373ffffffffffffffffffffffffffffffffffffffff16145b610c09576040517f08c379a0000000000000000000000000000000000000000000000000000000008152600401610c0090611fd9565b60405180910390fd5b5f5f1b8403610c4d576040517f08c379a0000000000000000000000000000000000000000000000000000000008152600401610c4490612041565b60405180910390fd5b5f8383905011610c92576040517f08c379a0000000000000000000000000000000000000000000000000000000008152600401610c89906120a9565b60405180910390fd5b8381600701819055506001816008015f6101000a81548160ff02191690836003811115610cc257610cc1611218565b5b02179055504281600a0181905550847f2d9c13d7949cc660187f5be07efe6504a5b8f585d746cdc39d8743937955c9f38542604051610d029291906120c7565b60405180910390a25050505050565b60015f9054906101000a900473ffffffffffffffffffffffffffffffffffffffff1681565b60035481565b60045481565b60025f9054906101000a900473ffffffffffffffffffffffffffffffffffffffff1681565b5f5f5f5f8781526020019081526020015f2090505f816009015411610dc1576040517f08c379a0000000000000000000000000000000000000000000000000000000008152600401610db890612138565b60405180910390fd5b5f815f015482600501548360070154604051602001610de293929190612156565b60405160208183030381529060405280519060200120905060025f9054906101000a900473ffffffffffffffffffffffffffffffffffffffff1673ffffffffffffffffffffffffffffffffffffffff1663d63fb11e878388886040518563ffffffff1660e01b8152600401610e5a949392919061220a565b602060405180830381865afa158015610e75573d5f5f3e3d5ffd5b505050506040513d601f19601f82011682018060405250810190610e999190612272565b92505050949350505050565b5f604051905090565b5f5ffd5b5f5ffd5b5f819050919050565b610ec881610eb6565b8114610ed2575f5ffd5b50565b5f81359050610ee381610ebf565b92915050565b5f5ffd5b5f5ffd5b5f5ffd5b5f5f83601f840112610f0a57610f09610ee9565b5b8235905067ffffffffffffffff811115610f2757610f26610eed565b5b602083019150836001820283011115610f4357610f42610ef1565b5b9250929050565b5f5f5f60408486031215610f6157610f60610eae565b5b5f610f6e86828701610ed5565b935050602084013567ffffffffffffffff811115610f8f57610f8e610eb2565b5b610f9b86828701610ef5565b92509250509250925092565b5f73ffffffffffffffffffffffffffffffffffffffff82169050919050565b5f610fd082610fa7565b9050919050565b610fe081610fc6565b8114610fea575f5ffd5b50565b5f81359050610ffb81610fd7565b92915050565b5f819050919050565b61101381611001565b811461101d575f5ffd5b50565b5f8135905061102e8161100a565b92915050565b5f5f83601f84011261104957611048610ee9565b5b8235905067ffffffffffffffff81111561106657611065610eed565b5b60208301915083600182028301111561108257611081610ef1565b5b9250929050565b5f5f5f5f5f5f60a087890312156110a3576110a2610eae565b5b5f6110b089828a01610fed565b96505060206110c189828a01610fed565b95505060406110d289828a01611020565b94505060606110e389828a01610ed5565b935050608087013567ffffffffffffffff81111561110457611103610eb2565b5b61111089828a01611034565b92509250509295509295509295565b61112881610eb6565b82525050565b5f6020820190506111415f83018461111f565b92915050565b5f6020828403121561115c5761115b610eae565b5b5f61116984828501610ed5565b91505092915050565b61117b81610fc6565b82525050565b61118a81611001565b82525050565b5f60ff82169050919050565b6111a581611190565b82525050565b5f60e0820190506111be5f83018a611172565b6111cb6020830189611172565b6111d86040830188611181565b6111e5606083018761111f565b6111f2608083018661111f565b6111ff60a083018561119c565b61120c60c0830184611181565b98975050505050505050565b7f4e487b71000000000000000000000000000000000000000000000000000000005f52602160045260245ffd5b6004811061125657611255611218565b5b50565b5f81905061126682611245565b919050565b5f61127582611259565b9050919050565b6112858161126b565b82525050565b5f81519050919050565b5f82825260208201905092915050565b8281835e5f83830152505050565b5f601f19601f8301169050919050565b5f6112cd8261128b565b6112d78185611295565b93506112e78185602086016112a5565b6112f0816112b3565b840191505092915050565b5f6101808201905061130f5f83018f61111f565b61131c602083018e611172565b611329604083018d611172565b611336606083018c611172565b611343608083018b611181565b61135060a083018a61111f565b61135d60c083018961111f565b61136a60e083018861111f565b61137861010083018761127c565b611386610120830186611181565b611394610140830185611181565b8181036101608301526113a781846112c3565b90509d9c50505050505050505050505050565b5f5f5f5f606085870312156113d2576113d1610eae565b5b5f6113df87828801610ed5565b94505060206113f087828801610ed5565b935050604085013567ffffffffffffffff81111561141157611410610eb2565b5b61141d87828801611034565b925092505092959194509250565b5f819050919050565b5f61144e61144961144484610fa7565b61142b565b610fa7565b9050919050565b5f61145f82611434565b9050919050565b5f61147082611455565b9050919050565b61148081611466565b82525050565b5f6020820190506114995f830184611477565b92915050565b5f6020820190506114b25f830184611181565b92915050565b5f6114c282611455565b9050919050565b6114d2816114b8565b82525050565b5f6020820190506114eb5f8301846114c9565b92915050565b5f5f83601f84011261150657611505610ee9565b5b8235905067ffffffffffffffff81111561152357611522610eed565b5b60208301915083602082028301111561153f5761153e610ef1565b5b9250929050565b5f5f5f5f6060858703121561155e5761155d610eae565b5b5f61156b87828801610ed5565b945050602061157c87828801611020565b935050604085013567ffffffffffffffff81111561159d5761159c610eb2565b5b6115a9878288016114f1565b925092505092959194509250565b5f8115159050919050565b6115cb816115b7565b82525050565b5f6020820190506115e45f8301846115c2565b92915050565b7f455243383030343a20696e76616c6964207374617475730000000000000000005f82015250565b5f61161e601783611295565b9150611629826115ea565b602082019050919050565b5f6020820190508181035f83015261164b81611612565b9050919050565b7f455243383030343a20756e617574686f72697a656420646973707574650000005f82015250565b5f611686601d83611295565b915061169182611652565b602082019050919050565b5f6020820190508181035f8301526116b38161167a565b9050919050565b5f82905092915050565b7f4e487b71000000000000000000000000000000000000000000000000000000005f52604160045260245ffd5b7f4e487b71000000000000000000000000000000000000000000000000000000005f52602260045260245ffd5b5f600282049050600182168061173557607f821691505b602082108103611748576117476116f1565b5b50919050565b5f819050815f5260205f209050919050565b5f6020601f8301049050919050565b5f82821b905092915050565b5f600883026117aa7fffffffffffffffffffffffffffffffffffffffffffffffffffffffffffffffff8261176f565b6117b4868361176f565b95508019841693508086168417925050509392505050565b5f6117e66117e16117dc84611001565b61142b565b611001565b9050919050565b5f819050919050565b6117ff836117cc565b61181361180b826117ed565b84845461177b565b825550505050565b5f5f905090565b61182a61181b565b6118358184846117f6565b505050565b5b818110156118585761184d5f82611822565b60018101905061183b565b5050565b601f82111561189d5761186e8161174e565b61187784611760565b81016020851015611886578190505b61189a61189285611760565b83018261183a565b50505b505050565b5f82821c905092915050565b5f6118bd5f19846008026118a2565b1980831691505092915050565b5f6118d583836118ae565b9150826002028217905092915050565b6118ef83836116ba565b67ffffffffffffffff811115611908576119076116c4565b5b611912825461171e565b61191d82828561185c565b5f601f83116001811461194a575f8415611938578287013590505b61194285826118ca565b8655506119a9565b601f1984166119588661174e565b5f5b8281101561197f5784890135825560018201915060208501945060208101905061195a565b8683101561199c5784890135611998601f8916826118ae565b8355505b6001600288020188555050505b50505050505050565b828183375f83830152505050565b5f6119cb8385611295565b93506119d88385846119b2565b6119e1836112b3565b840190509392505050565b5f6020820190508181035f830152611a058184866119c0565b90509392505050565b5f602082019050611a215f830184611172565b92915050565b5f81519050611a3581610fd7565b92915050565b5f5ffd5b611a48826112b3565b810181811067ffffffffffffffff82111715611a6757611a666116c4565b5b80604052505050565b5f611a79610ea5565b9050611a858282611a3f565b919050565b5f67ffffffffffffffff821115611aa457611aa36116c4565b5b611aad826112b3565b9050602081019050919050565b5f611acc611ac784611a8a565b611a70565b905082815260208101848484011115611ae857611ae7611a3b565b5b611af38482856112a5565b509392505050565b5f82601f830112611b0f57611b0e610ee9565b5b8151611b1f848260208601611aba565b91505092915050565b5f81519050611b368161100a565b92915050565b60048110611b48575f5ffd5b50565b5f81519050611b5981611b3c565b92915050565b5f81519050611b6d81610ebf565b92915050565b5f5f5f5f5f5f5f60e0888a031215611b8e57611b8d610eae565b5b5f611b9b8a828b01611a27565b975050602088015167ffffffffffffffff811115611bbc57611bbb610eb2565b5b611bc88a828b01611afb565b9650506040611bd98a828b01611b28565b9550506060611bea8a828b01611b28565b9450506080611bfb8a828b01611b4b565b93505060a0611c0c8a828b01611b5f565b92505060c0611c1d8a828b01611b28565b91505092959891949750929550565b7f455243383030343a20696e76616c6964206167656e74204449440000000000005f82015250565b5f611c60601a83611295565b9150611c6b82611c2c565b602082019050919050565b5f6020820190508181035f830152611c8d81611c54565b9050919050565b7f4e487b71000000000000000000000000000000000000000000000000000000005f52601160045260245ffd5b5f611ccb82611001565b91507fffffffffffffffffffffffffffffffffffffffffffffffffffffffffffffffff8203611cfd57611cfc611c94565b5b600182019050919050565b5f8160601b9050919050565b5f611d1e82611d08565b9050919050565b5f611d2f82611d14565b9050919050565b611d47611d4282610fc6565b611d25565b82525050565b5f819050919050565b611d67611d6282610eb6565b611d4d565b82525050565b5f819050919050565b611d87611d8282611001565b611d6d565b82525050565b5f611d988288611d36565b601482019150611da88287611d36565b601482019150611db88286611d56565b602082019150611dc88285611d76565b602082019150611dd88284611d76565b6020820191508190509695505050505050565b5f81905092915050565b5f611e008385611deb565b9350611e0d8385846119b2565b82840190509392505050565b5f611e25828486611df5565b91508190509392505050565b611e3a8261128b565b67ffffffffffffffff811115611e5357611e526116c4565b5b611e5d825461171e565b611e6882828561185c565b5f60209050601f831160018114611e99575f8415611e87578287015190505b611e9185826118ca565b865550611ef8565b601f198416611ea78661174e565b5f5b82811015611ece57848901518255600182019150602085019450602081019050611ea9565b86831015611eeb5784890151611ee7601f8916826118ae565b8355505b6001600288020188555050505b505050505050565b5f604082019050611f135f830185611181565b611f20602083018461111f565b9392505050565b7f455243383030343a207472616e73616374696f6e206e6f742070656e64696e675f82015250565b5f611f5b602083611295565b9150611f6682611f27565b602082019050919050565b5f6020820190508181035f830152611f8881611f4f565b9050919050565b7f455243383030343a20756e617574686f72697a656420636f6d706c6574696f6e5f82015250565b5f611fc3602083611295565b9150611fce82611f8f565b602082019050919050565b5f6020820190508181035f830152611ff081611fb7565b9050919050565b7f455243383030343a20696e76616c6964207265636569707400000000000000005f82015250565b5f61202b601883611295565b915061203682611ff7565b602082019050919050565b5f6020820190508181035f8301526120588161201f565b9050919050565b7f455243383030343a206d697373696e67207369676e61747572650000000000005f82015250565b5f612093601a83611295565b915061209e8261205f565b602082019050919050565b5f6020820190508181035f8301526120c081612087565b9050919050565b5f6040820190506120da5f83018561111f565b6120e76020830184611181565b9392505050565b7f455243383030343a207472616e73616374696f6e206e6f7420666f756e6400005f82015250565b5f612122601e83611295565b915061212d826120ee565b602082019050919050565b5f6020820190508181035f83015261214f81612116565b9050919050565b5f6121618286611d56565b6020820191506121718285611d56565b6020820191506121818284611d56565b602082019150819050949350505050565b5f82825260208201905092915050565b5f5ffd5b82818337505050565b5f6121ba8385612192565b93507f07ffffffffffffffffffffffffffffffffffffffffffffffffffffffffffffff8311156121ed576121ec6121a2565b5b6020830292506121fe8385846121a6565b82840190509392505050565b5f60608201905061221d5f830187611181565b61222a602083018661111f565b818103604083015261223d8184866121af565b905095945050505050565b612251816115b7565b811461225b575f5ffd5b50565b5f8151905061226c81612248565b92915050565b5f6020828403121561228757612286610eae565b5b5f6122948482850161225e565b9150509291505056fea264697066735822122054383b0df61d5f631bdac862daf486d1ef44d1e6b3ec6ae24abeaa38fd8546a464736f6c634300081d0033","linkReferences":{}},"methodIdentifiers":{"anchor()":"d3fb73b4","completeTransaction(bytes32,bytes32,bytes)":"660912d8","disputeTransaction(bytes32,string)":"38eaf9ff","getTransaction(bytes32)":"4aae13ca","initiateTransaction(address,address,uint256,bytes32,bytes)":"3e293e32","registry()":"7b103999","totalTransactions()":"b9a60038","transactionNonce()":"c7944ca1","transactions(bytes32)":"642f2eaf","verifyTransactionIntegrity(bytes32,uint256,bytes32[])":"fef218ca"},"id":18}