{"contracts/MockDiamond.sol":{"MockDiamond":{"abi":[{"inputs":[],"stateMutability":"nonpayable","type":"constructor"},{"inputs":[{"internalType":"address","name":"owner","type":"address"}],"name":"OwnableInvalidOwner","type":"error"},{"inputs":[{"internalType":"address","name":"account","type":"address"}],"name":"OwnableUnauthorizedAccount","type":"error"},{"anonymous":false,"inputs":[{"indexed":true,"internalType":"address","name":"previousOwner","type":"address"},{"indexed":true,"internalType":"address","name":"newOwner","type":"address"}],"name":"OwnershipTransferred","type":"event"},{"anonymous":false,"inputs":[{"indexed":true,"internalType":"uint256","name":"tokenId","type":"uint256"},{"indexed":true,"internalType":"address","name":"owner","type":"address"}],"name":"PositionClosed","type":"event"},{"anonymous":false,"inputs":[{"indexed":true,"internalType":"uint256","name":"tokenId","type":"uint256"},{"indexed":true,"internalType":"address","name":"owner","type":"address"},{"indexed":false,"internalType":"address","name":"collateralToken","type":"address"},{"indexed":false,"internalType":"uint256","name":"collateralAmount","type":"uint256"}],"name":"PositionOpened","type":"event"},{"inputs":[{"internalType":"address","name":"tokenIn","type":"address"},{"internalType":"uint256","name":"amountIn","type":"uint256"},{"internalType":"address","name":"tokenOut","type":"address"},{"internalType":"uint256","name":"minAmountOut","type":"uint256"},{"internalType":"address","name":"swapTarget","type":"address"},{"internalType":"bytes","name":"swapData","type":"bytes"}],"name":"closeOrRemovePositionFlashLoanV2","outputs":[],"stateMutability":"nonpayable","type":"function"},{"inputs":[],"name":"getNextPositionId","outputs":[{"internalType":"uint32","name":"","type":"uint32"}],"stateMutability":"view","type":"function"},{"inputs":[{"internalType":"uint256","name":"tokenId","type":"uint256"}],"name":"getPosition","outputs":[{"internalType":"uint256","name":"collateralAmount","type":"uint256"},{"internalType":"uint256","name":"debtAmount","type":"uint256"}],"stateMutability":"view","type":"function"},{"inputs":[{"internalType":"uint256","name":"tokenId","type":"uint256"}],"name":"getPositionDebtRatio","outputs":[{"internalType":"uint256","name":"","type":"uint256"}],"stateMutability":"view","type":"function"},{"inputs":[{"components":[{"internalType":"address","name":"tokenIn","type":"address"},{"internalType":"uint256","name":"amountIn","type":"uint256"},{"internalType":"address","name":"tokenOut","type":"address"},{"internalType":"bytes","name":"swapData","type":"bytes"}],"internalType":"struct MockDiamond.SwapParams","name":"swapParams","type":"tuple"},{"internalType":"address","name":"pool","type":"address"},{"internalType":"uint256","name":"positionId","type":"uint256"},{"internalType":"uint256","name":"amount","type":"uint256"},{"internalType":"bytes","name":"data","type":"bytes"}],"name":"openOrAddPositionFlashLoanV2","outputs":[],"stateMutability":"payable","type":"function"},{"inputs":[],"name":"owner","outputs":[{"internalType":"address","name":"","type":"address"}],"stateMutability":"view","type":"function"},{"inputs":[{"internalType":"uint256","name":"","type":"uint256"}],"name":"positionCollateralAmounts","outputs":[{"internalType":"uint256","name":"","type":"uint256"}],"stateMutability":"view","type":"function"},{"inputs":[{"internalType":"uint256","name":"","type":"uint256"}],"name":"positionCollateralTokens","outputs":[{"internalType":"address","name":"","type":"address"}],"stateMutability":"view","type":"function"},{"inputs":[{"internalType":"uint256","name":"","type":"uint256"}],"name":"positionDebtAmounts","outputs":[{"internalType":"uint256","name":"","type":"uint256"}],"stateMutability":"view","type":"function"},{"inputs":[{"internalType":"uint256","name":"","type":"uint256"}],"name":"positionOwners","outputs":[{"internalType":"address","name":"","type":"address"}],"stateMutability":"view","type":"function"},{"inputs":[],"name":"renounceOwnership","outputs":[],"stateMutability":"nonpayable","type":"function"},{"inputs":[],"name":"testFunction","outputs":[{"internalType":"string","name":"","type":"string"}],"stateMutability":"pure","type":"function"},{"inputs":[{"internalType":"address","name":"newOwner","type":"address"}],"name":"transferOwnership","outputs":[],"stateMutability":"nonpayable","type":"function"}],"evm":{"bytecode":{"linkReferences":{},"object":"60806040526001805534801561001457600080fd5b50338061003b57604051631e4fbdf760e01b81526000600482015260240160405180910390fd5b6100448161004a565b5061009a565b600080546001600160a01b038381166001600160a01b0319831681178455604051919092169283917f8be0079c531659141344cd1fd0a4f28419497f9722a3daafe3b4186f6b6457e09190a35050565b61082e806100a96000396000f3fe6080604052600436106100c25760003560e01c80638da5cb5b1161007f578063eb02c30111610059578063eb02c3011461024e578063f00ba5641461029d578063f03c71f7146102ca578063f2fde38b1461030057600080fd5b80638da5cb5b146101d1578063a1b7e04f146101ef578063e16b4a9b1461020257600080fd5b8063067f4ddd146100c75780632fc027d0146100f157806362474ea11461012c578063715018a61461017a5780638543795c14610191578063861b4cfe146101b1575b600080fd5b3480156100d357600080fd5b5060015460405163ffffffff90911681526020015b60405180910390f35b3480156100fd57600080fd5b5061011e61010c366004610582565b60046020526000908152604090205481565b6040519081526020016100e8565b34801561013857600080fd5b50610162610147366004610582565b6002602052600090815260409020546001600160a01b031681565b6040516001600160a01b0390911681526020016100e8565b34801561018657600080fd5b5061018f610320565b005b34801561019d57600080fd5b5061018f6101ac366004610600565b610334565b3480156101bd57600080fd5b5061011e6101cc366004610582565b61036b565b3480156101dd57600080fd5b506000546001600160a01b0316610162565b61018f6101fd366004610689565b6103bf565b34801561020e57600080fd5b50604080518082018252601781527f4d6f636b4469616d6f6e6420697320776f726b696e6721000000000000000000602082015290516100e89190610720565b34801561025a57600080fd5b50610288610269366004610582565b6000908152600460209081526040808320546005909252909120549091565b604080519283526020830191909152016100e8565b3480156102a957600080fd5b5061011e6102b8366004610582565b60056020526000908152604090205481565b3480156102d657600080fd5b506101626102e5366004610582565b6003602052600090815260409020546001600160a01b031681565b34801561030c57600080fd5b5061018f61031b36600461076e565b6104c2565b610328610505565b6103326000610532565b565b60405133906001907fcefaf961c5013063cf501ffd9f9382e9b9c4b15741ad032fe93d7e9c7c733b2290600090a350505050505050565b600081815260046020526040812054810361038857506000919050565b6000828152600460209081526040808320546005909252909120546103af906127106107a6565b6103b991906107bd565b92915050565b60018054600091826103d0836107df565b90915550600081815260026020908152604090912080546001600160a01b031916331790559091506104049088018861076e565b600082815260036020908152604080832080546001600160a01b0319166001600160a01b03959095169490941790935560048152919020908801359081905561044e9060026107a6565b600082815260056020908152604090912091909155339082907f9931fc1a74664316f768453232cd4f17f63c060ff3c43c99e92c83814879817a90610495908b018b61076e565b604080516001600160a01b0390921682526020808d0135908301520160405180910390a350505050505050565b6104ca610505565b6001600160a01b0381166104f957604051631e4fbdf760e01b8152600060048201526024015b60405180910390fd5b61050281610532565b50565b6000546001600160a01b031633146103325760405163118cdaa760e01b81523360048201526024016104f0565b600080546001600160a01b038381166001600160a01b0319831681178455604051919092169283917f8be0079c531659141344cd1fd0a4f28419497f9722a3daafe3b4186f6b6457e09190a35050565b60006020828403121561059457600080fd5b5035919050565b80356001600160a01b03811681146105b257600080fd5b919050565b60008083601f8401126105c957600080fd5b50813567ffffffffffffffff8111156105e157600080fd5b6020830191508360208285010111156105f957600080fd5b9250929050565b600080600080600080600060c0888a03121561061b57600080fd5b6106248861059b565b9650602088013595506106396040890161059b565b94506060880135935061064e6080890161059b565b925060a088013567ffffffffffffffff81111561066a57600080fd5b6106768a828b016105b7565b989b979a50959850939692959293505050565b60008060008060008060a087890312156106a257600080fd5b863567ffffffffffffffff808211156106ba57600080fd5b908801906080828b0312156106ce57600080fd5b8197506106dd60208a0161059b565b96506040890135955060608901359450608089013591508082111561070157600080fd5b5061070e89828a016105b7565b979a9699509497509295939492505050565b600060208083528351808285015260005b8181101561074d57858101830151858201604001528201610731565b506000604082860101526040601f19601f8301168501019250505092915050565b60006020828403121561078057600080fd5b6107898261059b565b9392505050565b634e487b7160e01b600052601160045260246000fd5b80820281158282048414176103b9576103b9610790565b6000826107da57634e487b7160e01b600052601260045260246000fd5b500490565b6000600182016107f1576107f1610790565b506001019056fea2646970667358221220206ba41e524129970a4d9c69f98c7793b8b57d989b59b90b2c53be3d60b409f064736f6c63430008140033","opcodes":"PUSH1 0x80 PUSH1 0x40 MSTORE PUSH1 0x1 DUP1 SSTORE CALLVALUE DUP1 ISZERO PUSH2 0x14 JUMPI PUSH1 0x0 DUP1 REVERT JUMPDEST POP CALLER DUP1 PUSH2 0x3B JUMPI PUSH1 0x40 MLOAD PUSH4 0x1E4FBDF7 PUSH1 0xE0 SHL DUP2 MSTORE PUSH1 0x0 PUSH1 0x4 DUP3 ADD MSTORE PUSH1 0x24 ADD PUSH1 0x40 MLOAD DUP1 SWAP2 SUB SWAP1 REVERT JUMPDEST PUSH2 0x44 DUP2 PUSH2 0x4A JUMP JUMPDEST POP PUSH2 0x9A JUMP JUMPDEST PUSH1 0x0 DUP1 SLOAD PUSH1 0x1 PUSH1 0x1 PUSH1 0xA0 SHL SUB DUP4 DUP2 AND PUSH1 0x1 PUSH1 0x1 PUSH1 0xA0 SHL SUB NOT DUP4 AND DUP2 OR DUP5 SSTORE PUSH1 0x40 MLOAD SWAP2 SWAP1 SWAP3 AND SWAP3 DUP4 SWAP2 PUSH32 0x8BE0079C531659141344CD1FD0A4F28419497F9722A3DAAFE3B4186F6B6457E0 SWAP2 SWAP1 LOG3 POP POP JUMP JUMPDEST PUSH2 0x82E DUP1 PUSH2 0xA9 PUSH1 0x0 CODECOPY PUSH1 0x0 RETURN INVALID PUSH1 0x80 PUSH1 0x40 MSTORE PUSH1 0x4 CALLDATASIZE LT PUSH2 0xC2 JUMPI PUSH1 0x0 CALLDATALOAD PUSH1 0xE0 SHR DUP1 PUSH4 0x8DA5CB5B GT PUSH2 0x7F JUMPI DUP1 PUSH4 0xEB02C301 GT PUSH2 0x59 JUMPI DUP1 PUSH4 0xEB02C301 EQ PUSH2 0x24E JUMPI DUP1 PUSH4 0xF00BA564 EQ PUSH2 0x29D JUMPI DUP1 PUSH4 0xF03C71F7 EQ PUSH2 0x2CA JUMPI DUP1 PUSH4 0xF2FDE38B EQ PUSH2 0x300 JUMPI PUSH1 0x0 DUP1 REVERT JUMPDEST DUP1 PUSH4 0x8DA5CB5B EQ PUSH2 0x1D1 JUMPI DUP1 PUSH4 0xA1B7E04F EQ PUSH2 0x1EF JUMPI DUP1 PUSH4 0xE16B4A9B EQ PUSH2 0x202 JUMPI PUSH1 0x0 DUP1 REVERT JUMPDEST DUP1 PUSH4 0x67F4DDD EQ PUSH2 0xC7 JUMPI DUP1 PUSH4 0x2FC027D0 EQ PUSH2 0xF1 JUMPI DUP1 PUSH4 0x62474EA1 EQ PUSH2 0x12C JUMPI DUP1 PUSH4 0x715018A6 EQ PUSH2 0x17A JUMPI DUP1 PUSH4 0x8543795C EQ PUSH2 0x191 JUMPI DUP1 PUSH4 0x861B4CFE EQ PUSH2 0x1B1 JUMPI JUMPDEST PUSH1 0x0 DUP1 REVERT JUMPDEST CALLVALUE DUP1 ISZERO PUSH2 0xD3 JUMPI PUSH1 0x0 DUP1 REVERT JUMPDEST POP PUSH1 0x1 SLOAD PUSH1 0x40 MLOAD PUSH4 0xFFFFFFFF SWAP1 SWAP2 AND DUP2 MSTORE PUSH1 0x20 ADD JUMPDEST PUSH1 0x40 MLOAD DUP1 SWAP2 SUB SWAP1 RETURN JUMPDEST CALLVALUE DUP1 ISZERO PUSH2 0xFD JUMPI PUSH1 0x0 DUP1 REVERT JUMPDEST POP PUSH2 0x11E PUSH2 0x10C CALLDATASIZE PUSH1 0x4 PUSH2 0x582 JUMP JUMPDEST PUSH1 0x4 PUSH1 0x20 MSTORE PUSH1 0x0 SWAP1 DUP2 MSTORE PUSH1 0x40 SWAP1 KECCAK256 SLOAD DUP2 JUMP JUMPDEST PUSH1 0x40 MLOAD SWAP1 DUP2 MSTORE PUSH1 0x20 ADD PUSH2 0xE8 JUMP JUMPDEST CALLVALUE DUP1 ISZERO PUSH2 0x138 JUMPI PUSH1 0x0 DUP1 REVERT JUMPDEST POP PUSH2 0x162 PUSH2 0x147 CALLDATASIZE PUSH1 0x4 PUSH2 0x582 JUMP JUMPDEST PUSH1 0x2 PUSH1 0x20 MSTORE PUSH1 0x0 SWAP1 DUP2 MSTORE PUSH1 0x40 SWAP1 KECCAK256 SLOAD PUSH1 0x1 PUSH1 0x1 PUSH1 0xA0 SHL SUB AND DUP2 JUMP JUMPDEST PUSH1 0x40 MLOAD PUSH1 0x1 PUSH1 0x1 PUSH1 0xA0 SHL SUB SWAP1 SWAP2 AND DUP2 MSTORE PUSH1 0x20 ADD PUSH2 0xE8 JUMP JUMPDEST CALLVALUE DUP1 ISZERO PUSH2 0x186 JUMPI PUSH1 0x0 DUP1 REVERT JUMPDEST POP PUSH2 0x18F PUSH2 0x320 JUMP JUMPDEST STOP JUMPDEST CALLVALUE DUP1 ISZERO PUSH2 0x19D JUMPI PUSH1 0x0 DUP1 REVERT JUMPDEST POP PUSH2 0x18F PUSH2 0x1AC CALLDATASIZE PUSH1 0x4 PUSH2 0x600 JUMP JUMPDEST PUSH2 0x334 JUMP JUMPDEST CALLVALUE DUP1 ISZERO PUSH2 0x1BD JUMPI PUSH1 0x0 DUP1 REVERT JUMPDEST POP PUSH2 0x11E PUSH2 0x1CC CALLDATASIZE PUSH1 0x4 PUSH2 0x582 JUMP JUMPDEST PUSH2 0x36B JUMP JUMPDEST CALLVALUE DUP1 ISZERO PUSH2 0x1DD JUMPI PUSH1 0x0 DUP1 REVERT JUMPDEST POP PUSH1 0x0 SLOAD PUSH1 0x1 PUSH1 0x1 PUSH1 0xA0 SHL SUB AND PUSH2 0x162 JUMP JUMPDEST PUSH2 0x18F PUSH2 0x1FD CALLDATASIZE PUSH1 0x4 PUSH2 0x689 JUMP JUMPDEST PUSH2 0x3BF JUMP JUMPDEST CALLVALUE DUP1 ISZERO PUSH2 0x20E JUMPI PUSH1 0x0 DUP1 REVERT JUMPDEST POP PUSH1 0x40 DUP1 MLOAD DUP1 DUP3 ADD DUP3 MSTORE PUSH1 0x17 DUP2 MSTORE PUSH32 0x4D6F636B4469616D6F6E6420697320776F726B696E6721000000000000000000 PUSH1 0x20 DUP3 ADD MSTORE SWAP1 MLOAD PUSH2 0xE8 SWAP2 SWAP1 PUSH2 0x720 JUMP JUMPDEST CALLVALUE DUP1 ISZERO PUSH2 0x25A JUMPI PUSH1 0x0 DUP1 REVERT JUMPDEST POP PUSH2 0x288 PUSH2 0x269 CALLDATASIZE PUSH1 0x4 PUSH2 0x582 JUMP JUMPDEST PUSH1 0x0 SWAP1 DUP2 MSTORE PUSH1 0x4 PUSH1 0x20 SWAP1 DUP2 MSTORE PUSH1 0x40 DUP1 DUP4 KECCAK256 SLOAD PUSH1 0x5 SWAP1 SWAP3 MSTORE SWAP1 SWAP2 KECCAK256 SLOAD SWAP1 SWAP2 JUMP JUMPDEST PUSH1 0x40 DUP1 MLOAD SWAP3 DUP4 MSTORE PUSH1 0x20 DUP4 ADD SWAP2 SWAP1 SWAP2 MSTORE ADD PUSH2 0xE8 JUMP JUMPDEST CALLVALUE DUP1 ISZERO PUSH2 0x2A9 JUMPI PUSH1 0x0 DUP1 REVERT JUMPDEST POP PUSH2 0x11E PUSH2 0x2B8 CALLDATASIZE PUSH1 0x4 PUSH2 0x582 JUMP JUMPDEST PUSH1 0x5 PUSH1 0x20 MSTORE PUSH1 0x0 SWAP1 DUP2 MSTORE PUSH1 0x40 SWAP1 KECCAK256 SLOAD DUP2 JUMP JUMPDEST CALLVALUE DUP1 ISZERO PUSH2 0x2D6 JUMPI PUSH1 0x0 DUP1 REVERT JUMPDEST POP PUSH2 0x162 PUSH2 0x2E5 CALLDATASIZE PUSH1 0x4 PUSH2 0x582 JUMP JUMPDEST PUSH1 0x3 PUSH1 0x20 MSTORE PUSH1 0x0 SWAP1 DUP2 MSTORE PUSH1 0x40 SWAP1 KECCAK256 SLOAD PUSH1 0x1 PUSH1 0x1 PUSH1 0xA0 SHL SUB AND DUP2 JUMP JUMPDEST CALLVALUE DUP1 ISZERO PUSH2 0x30C JUMPI PUSH1 0x0 DUP1 REVERT JUMPDEST POP PUSH2 0x18F PUSH2 0x31B CALLDATASIZE PUSH1 0x4 PUSH2 0x76E JUMP JUMPDEST PUSH2 0x4C2 JUMP JUMPDEST PUSH2 0x328 PUSH2 0x505 JUMP JUMPDEST PUSH2 0x332 PUSH1 0x0 PUSH2 0x532 JUMP JUMPDEST JUMP JUMPDEST PUSH1 0x40 MLOAD CALLER SWAP1 PUSH1 0x1 SWAP1 PUSH32 0xCEFAF961C5013063CF501FFD9F9382E9B9C4B15741AD032FE93D7E9C7C733B22 SWAP1 PUSH1 0x0 SWAP1 LOG3 POP POP POP POP POP POP POP JUMP JUMPDEST PUSH1 0x0 DUP2 DUP2 MSTORE PUSH1 0x4 PUSH1 0x20 MSTORE PUSH1 0x40 DUP2 KECCAK256 SLOAD DUP2 SUB PUSH2 0x388 JUMPI POP PUSH1 0x0 SWAP2 SWAP1 POP JUMP JUMPDEST PUSH1 0x0 DUP3 DUP2 MSTORE PUSH1 0x4 PUSH1 0x20 SWAP1 DUP2 MSTORE PUSH1 0x40 DUP1 DUP4 KECCAK256 SLOAD PUSH1 0x5 SWAP1 SWAP3 MSTORE SWAP1 SWAP2 KECCAK256 SLOAD PUSH2 0x3AF SWAP1 PUSH2 0x2710 PUSH2 0x7A6 JUMP JUMPDEST PUSH2 0x3B9 SWAP2 SWAP1 PUSH2 0x7BD JUMP JUMPDEST SWAP3 SWAP2 POP POP JUMP JUMPDEST PUSH1 0x1 DUP1 SLOAD PUSH1 0x0 SWAP2 DUP3 PUSH2 0x3D0 DUP4 PUSH2 0x7DF JUMP JUMPDEST SWAP1 SWAP2 SSTORE POP PUSH1 0x0 DUP2 DUP2 MSTORE PUSH1 0x2 PUSH1 0x20 SWAP1 DUP2 MSTORE PUSH1 0x40 SWAP1 SWAP2 KECCAK256 DUP1 SLOAD PUSH1 0x1 PUSH1 0x1 PUSH1 0xA0 SHL SUB NOT AND CALLER OR SWAP1 SSTORE SWAP1 SWAP2 POP PUSH2 0x404 SWAP1 DUP9 ADD DUP9 PUSH2 0x76E JUMP JUMPDEST PUSH1 0x0 DUP3 DUP2 MSTORE PUSH1 0x3 PUSH1 0x20 SWAP1 DUP2 MSTORE PUSH1 0x40 DUP1 DUP4 KECCAK256 DUP1 SLOAD PUSH1 0x1 PUSH1 0x1 PUSH1 0xA0 SHL SUB NOT AND PUSH1 0x1 PUSH1 0x1 PUSH1 0xA0 SHL SUB SWAP6 SWAP1 SWAP6 AND SWAP5 SWAP1 SWAP5 OR SWAP1 SWAP4 SSTORE PUSH1 0x4 DUP2 MSTORE SWAP2 SWAP1 KECCAK256 SWAP1 DUP9 ADD CALLDATALOAD SWAP1 DUP2 SWAP1 SSTORE PUSH2 0x44E SWAP1 PUSH1 0x2 PUSH2 0x7A6 JUMP JUMPDEST PUSH1 0x0 DUP3 DUP2 MSTORE PUSH1 0x5 PUSH1 0x20 SWAP1 DUP2 MSTORE PUSH1 0x40 SWAP1 SWAP2 KECCAK256 SWAP2 SWAP1 SWAP2 SSTORE CALLER SWAP1 DUP3 SWAP1 PUSH32 0x9931FC1A74664316F768453232CD4F17F63C060FF3C43C99E92C83814879817A SWAP1 PUSH2 0x495 SWAP1 DUP12 ADD DUP12 PUSH2 0x76E JUMP JUMPDEST PUSH1 0x40 DUP1 MLOAD PUSH1 0x1 PUSH1 0x1 PUSH1 0xA0 SHL SUB SWAP1 SWAP3 AND DUP3 MSTORE PUSH1 0x20 DUP1 DUP14 ADD CALLDATALOAD SWAP1 DUP4 ADD MSTORE ADD PUSH1 0x40 MLOAD DUP1 SWAP2 SUB SWAP1 LOG3 POP POP POP POP POP POP POP JUMP JUMPDEST PUSH2 0x4CA PUSH2 0x505 JUMP JUMPDEST PUSH1 0x1 PUSH1 0x1 PUSH1 0xA0 SHL SUB DUP2 AND PUSH2 0x4F9 JUMPI PUSH1 0x40 MLOAD PUSH4 0x1E4FBDF7 PUSH1 0xE0 SHL DUP2 MSTORE PUSH1 0x0 PUSH1 0x4 DUP3 ADD MSTORE PUSH1 0x24 ADD JUMPDEST PUSH1 0x40 MLOAD DUP1 SWAP2 SUB SWAP1 REVERT JUMPDEST PUSH2 0x502 DUP2 PUSH2 0x532 JUMP JUMPDEST POP JUMP JUMPDEST PUSH1 0x0 SLOAD PUSH1 0x1 PUSH1 0x1 PUSH1 0xA0 SHL SUB AND CALLER EQ PUSH2 0x332 JUMPI PUSH1 0x40 MLOAD PUSH4 0x118CDAA7 PUSH1 0xE0 SHL DUP2 MSTORE CALLER PUSH1 0x4 DUP3 ADD MSTORE PUSH1 0x24 ADD PUSH2 0x4F0 JUMP JUMPDEST PUSH1 0x0 DUP1 SLOAD PUSH1 0x1 PUSH1 0x1 PUSH1 0xA0 SHL SUB DUP4 DUP2 AND PUSH1 0x1 PUSH1 0x1 PUSH1 0xA0 SHL SUB NOT DUP4 AND DUP2 OR DUP5 SSTORE PUSH1 0x40 MLOAD SWAP2 SWAP1 SWAP3 AND SWAP3 DUP4 SWAP2 PUSH32 0x8BE0079C531659141344CD1FD0A4F28419497F9722A3DAAFE3B4186F6B6457E0 SWAP2 SWAP1 LOG3 POP POP JUMP JUMPDEST PUSH1 0x0 PUSH1 0x20 DUP3 DUP5 SUB SLT ISZERO PUSH2 0x594 JUMPI PUSH1 0x0 DUP1 REVERT JUMPDEST POP CALLDATALOAD SWAP2 SWAP1 POP JUMP JUMPDEST DUP1 CALLDATALOAD PUSH1 0x1 PUSH1 0x1 PUSH1 0xA0 SHL SUB DUP2 AND DUP2 EQ PUSH2 0x5B2 JUMPI PUSH1 0x0 DUP1 REVERT JUMPDEST SWAP2 SWAP1 POP JUMP JUMPDEST PUSH1 0x0 DUP1 DUP4 PUSH1 0x1F DUP5 ADD SLT PUSH2 0x5C9 JUMPI PUSH1 0x0 DUP1 REVERT JUMPDEST POP DUP2 CALLDATALOAD PUSH8 0xFFFFFFFFFFFFFFFF DUP2 GT ISZERO PUSH2 0x5E1 JUMPI PUSH1 0x0 DUP1 REVERT JUMPDEST PUSH1 0x20 DUP4 ADD SWAP2 POP DUP4 PUSH1 0x20 DUP3 DUP6 ADD ADD GT ISZERO PUSH2 0x5F9 JUMPI PUSH1 0x0 DUP1 REVERT JUMPDEST SWAP3 POP SWAP3 SWAP1 POP JUMP JUMPDEST PUSH1 0x0 DUP1 PUSH1 0x0 DUP1 PUSH1 0x0 DUP1 PUSH1 0x0 PUSH1 0xC0 DUP9 DUP11 SUB SLT ISZERO PUSH2 0x61B JUMPI PUSH1 0x0 DUP1 REVERT JUMPDEST PUSH2 0x624 DUP9 PUSH2 0x59B JUMP JUMPDEST SWAP7 POP PUSH1 0x20 DUP9 ADD CALLDATALOAD SWAP6 POP PUSH2 0x639 PUSH1 0x40 DUP10 ADD PUSH2 0x59B JUMP JUMPDEST SWAP5 POP PUSH1 0x60 DUP9 ADD CALLDATALOAD SWAP4 POP PUSH2 0x64E PUSH1 0x80 DUP10 ADD PUSH2 0x59B JUMP JUMPDEST SWAP3 POP PUSH1 0xA0 DUP9 ADD CALLDATALOAD PUSH8 0xFFFFFFFFFFFFFFFF DUP2 GT ISZERO PUSH2 0x66A JUMPI PUSH1 0x0 DUP1 REVERT JUMPDEST PUSH2 0x676 DUP11 DUP3 DUP12 ADD PUSH2 0x5B7 JUMP JUMPDEST SWAP9 SWAP12 SWAP8 SWAP11 POP SWAP6 SWAP9 POP SWAP4 SWAP7 SWAP3 SWAP6 SWAP3 SWAP4 POP POP POP JUMP JUMPDEST PUSH1 0x0 DUP1 PUSH1 0x0 DUP1 PUSH1 0x0 DUP1 PUSH1 0xA0 DUP8 DUP10 SUB SLT ISZERO PUSH2 0x6A2 JUMPI PUSH1 0x0 DUP1 REVERT JUMPDEST DUP7 CALLDATALOAD PUSH8 0xFFFFFFFFFFFFFFFF DUP1 DUP3 GT ISZERO PUSH2 0x6BA JUMPI PUSH1 0x0 DUP1 REVERT JUMPDEST SWAP1 DUP9 ADD SWAP1 PUSH1 0x80 DUP3 DUP12 SUB SLT ISZERO PUSH2 0x6CE JUMPI PUSH1 0x0 DUP1 REVERT JUMPDEST DUP2 SWAP8 POP PUSH2 0x6DD PUSH1 0x20 DUP11 ADD PUSH2 0x59B JUMP JUMPDEST SWAP7 POP PUSH1 0x40 DUP10 ADD CALLDATALOAD SWAP6 POP PUSH1 0x60 DUP10 ADD CALLDATALOAD SWAP5 POP PUSH1 0x80 DUP10 ADD CALLDATALOAD SWAP2 POP DUP1 DUP3 GT ISZERO PUSH2 0x701 JUMPI PUSH1 0x0 DUP1 REVERT JUMPDEST POP PUSH2 0x70E DUP10 DUP3 DUP11 ADD PUSH2 0x5B7 JUMP JUMPDEST SWAP8 SWAP11 SWAP7 SWAP10 POP SWAP5 SWAP8 POP SWAP3 SWAP6 SWAP4 SWAP5 SWAP3 POP POP POP JUMP JUMPDEST PUSH1 0x0 PUSH1 0x20 DUP1 DUP4 MSTORE DUP4 MLOAD DUP1 DUP3 DUP6 ADD MSTORE PUSH1 0x0 JUMPDEST DUP2 DUP2 LT ISZERO PUSH2 0x74D JUMPI DUP6 DUP2 ADD DUP4 ADD MLOAD DUP6 DUP3 ADD PUSH1 0x40 ADD MSTORE DUP3 ADD PUSH2 0x731 JUMP JUMPDEST POP PUSH1 0x0 PUSH1 0x40 DUP3 DUP7 ADD ADD MSTORE PUSH1 0x40 PUSH1 0x1F NOT PUSH1 0x1F DUP4 ADD AND DUP6 ADD ADD SWAP3 POP POP POP SWAP3 SWAP2 POP POP JUMP JUMPDEST PUSH1 0x0 PUSH1 0x20 DUP3 DUP5 SUB SLT ISZERO PUSH2 0x780 JUMPI PUSH1 0x0 DUP1 REVERT JUMPDEST PUSH2 0x789 DUP3 PUSH2 0x59B JUMP JUMPDEST SWAP4 SWAP3 POP POP POP JUMP JUMPDEST PUSH4 0x4E487B71 PUSH1 0xE0 SHL PUSH1 0x0 MSTORE PUSH1 0x11 PUSH1 0x4 MSTORE PUSH1 0x24 PUSH1 0x0 REVERT JUMPDEST DUP1 DUP3 MUL DUP2 ISZERO DUP3 DUP3 DIV DUP5 EQ OR PUSH2 0x3B9 JUMPI PUSH2 0x3B9 PUSH2 0x790 JUMP JUMPDEST PUSH1 0x0 DUP3 PUSH2 0x7DA JUMPI PUSH4 0x4E487B71 PUSH1 0xE0 SHL PUSH1 0x0 MSTORE PUSH1 0x12 PUSH1 0x4 MSTORE PUSH1 0x24 PUSH1 0x0 REVERT JUMPDEST POP DIV SWAP1 JUMP JUMPDEST PUSH1 0x0 PUSH1 0x1 DUP3 ADD PUSH2 0x7F1 JUMPI PUSH2 0x7F1 PUSH2 0x790 JUMP JUMPDEST POP PUSH1 0x1 ADD SWAP1 JUMP INVALID LOG2 PUSH5 0x6970667358 0x22 SLT KECCAK256 KECCAK256 PUSH12 0xA41E524129970A4D9C69F98C PUSH24 0x93B8B57D989B59B90B2C53BE3D60B409F064736F6C634300 ADDMOD EQ STOP CALLER "},"methodIdentifiers":{"closeOrRemovePositionFlashLoanV2(address,uint256,address,uint256,address,bytes)":"8543795c","getNextPositionId()":"067f4ddd","getPosition(uint256)":"eb02c301","getPositionDebtRatio(uint256)":"861b4cfe","openOrAddPositionFlashLoanV2((address,uint256,address,bytes),address,uint256,uint256,bytes)":"a1b7e04f","owner()":"8da5cb5b","positionCollateralAmounts(uint256)":"2fc027d0","positionCollateralTokens(uint256)":"f03c71f7","positionDebtAmounts(uint256)":"f00ba564","positionOwners(uint256)":"62474ea1","renounceOwnership()":"715018a6","testFunction()":"e16b4a9b","transferOwnership(address)":"f2fde38b"}}}}}