{
  "_format": "hh-sol-artifact-1",
  "contractName": "DarkPool",
  "sourceName": "contracts/DarkPool.sol",
  "abi": [
    {
      "anonymous": false,
      "inputs": [
        {
          "indexed": true,
          "internalType": "bytes32",
          "name": "matchId",
          "type": "bytes32"
        },
        {
          "indexed": true,
          "internalType": "bytes32",
          "name": "buyOrderId",
          "type": "bytes32"
        },
        {
          "indexed": true,
          "internalType": "bytes32",
          "name": "sellOrderId",
          "type": "bytes32"
        },
        {
          "indexed": false,
          "internalType": "uint256",
          "name": "amount",
          "type": "uint256"
        },
        {
          "indexed": false,
          "internalType": "uint256",
          "name": "price",
          "type": "uint256"
        }
      ],
      "name": "OrderMatched",
      "type": "event"
    },
    {
      "anonymous": false,
      "inputs": [
        {
          "indexed": true,
          "internalType": "bytes32",
          "name": "orderId",
          "type": "bytes32"
        },
        {
          "indexed": true,
          "internalType": "address",
          "name": "trader",
          "type": "address"
        },
        {
          "indexed": false,
          "internalType": "bool",
          "name": "isBuy",
          "type": "bool"
        },
        {
          "indexed": false,
          "internalType": "uint256",
          "name": "amount",
          "type": "uint256"
        },
        {
          "indexed": false,
          "internalType": "uint256",
          "name": "price",
          "type": "uint256"
        }
      ],
      "name": "OrderPlaced",
      "type": "event"
    },
    {
      "inputs": [],
      "name": "getAllMatches",
      "outputs": [
        {
          "components": [
            {
              "internalType": "bytes32",
              "name": "id",
              "type": "bytes32"
            },
            {
              "internalType": "bytes32",
              "name": "buyOrderId",
              "type": "bytes32"
            },
            {
              "internalType": "bytes32",
              "name": "sellOrderId",
              "type": "bytes32"
            },
            {
              "internalType": "uint256",
              "name": "amount",
              "type": "uint256"
            },
            {
              "internalType": "uint256",
              "name": "price",
              "type": "uint256"
            },
            {
              "internalType": "uint256",
              "name": "timestamp",
              "type": "uint256"
            }
          ],
          "internalType": "struct DarkPool.Match[]",
          "name": "",
          "type": "tuple[]"
        }
      ],
      "stateMutability": "view",
      "type": "function"
    },
    {
      "inputs": [],
      "name": "getAllOrders",
      "outputs": [
        {
          "components": [
            {
              "internalType": "bytes32",
              "name": "id",
              "type": "bytes32"
            },
            {
              "internalType": "address",
              "name": "trader",
              "type": "address"
            },
            {
              "internalType": "bool",
              "name": "isBuy",
              "type": "bool"
            },
            {
              "internalType": "uint256",
              "name": "amount",
              "type": "uint256"
            },
            {
              "internalType": "uint256",
              "name": "price",
              "type": "uint256"
            },
            {
              "internalType": "uint256",
              "name": "timestamp",
              "type": "uint256"
            },
            {
              "internalType": "bool",
              "name": "executed",
              "type": "bool"
            }
          ],
          "internalType": "struct DarkPool.Order[]",
          "name": "",
          "type": "tuple[]"
        }
      ],
      "stateMutability": "view",
      "type": "function"
    },
    {
      "inputs": [
        {
          "internalType": "bytes32",
          "name": "matchId",
          "type": "bytes32"
        }
      ],
      "name": "getMatch",
      "outputs": [
        {
          "components": [
            {
              "internalType": "bytes32",
              "name": "id",
              "type": "bytes32"
            },
            {
              "internalType": "bytes32",
              "name": "buyOrderId",
              "type": "bytes32"
            },
            {
              "internalType": "bytes32",
              "name": "sellOrderId",
              "type": "bytes32"
            },
            {
              "internalType": "uint256",
              "name": "amount",
              "type": "uint256"
            },
            {
              "internalType": "uint256",
              "name": "price",
              "type": "uint256"
            },
            {
              "internalType": "uint256",
              "name": "timestamp",
              "type": "uint256"
            }
          ],
          "internalType": "struct DarkPool.Match",
          "name": "",
          "type": "tuple"
        }
      ],
      "stateMutability": "view",
      "type": "function"
    },
    {
      "inputs": [],
      "name": "getMatchCount",
      "outputs": [
        {
          "internalType": "uint256",
          "name": "",
          "type": "uint256"
        }
      ],
      "stateMutability": "view",
      "type": "function"
    },
    {
      "inputs": [
        {
          "internalType": "bytes32",
          "name": "orderId",
          "type": "bytes32"
        }
      ],
      "name": "getOrder",
      "outputs": [
        {
          "components": [
            {
              "internalType": "bytes32",
              "name": "id",
              "type": "bytes32"
            },
            {
              "internalType": "address",
              "name": "trader",
              "type": "address"
            },
            {
              "internalType": "bool",
              "name": "isBuy",
              "type": "bool"
            },
            {
              "internalType": "uint256",
              "name": "amount",
              "type": "uint256"
            },
            {
              "internalType": "uint256",
              "name": "price",
              "type": "uint256"
            },
            {
              "internalType": "uint256",
              "name": "timestamp",
              "type": "uint256"
            },
            {
              "internalType": "bool",
              "name": "executed",
              "type": "bool"
            }
          ],
          "internalType": "struct DarkPool.Order",
          "name": "",
          "type": "tuple"
        }
      ],
      "stateMutability": "view",
      "type": "function"
    },
    {
      "inputs": [],
      "name": "getOrderCount",
      "outputs": [
        {
          "internalType": "uint256",
          "name": "",
          "type": "uint256"
        }
      ],
      "stateMutability": "view",
      "type": "function"
    },
    {
      "inputs": [],
      "name": "matchCounter",
      "outputs": [
        {
          "internalType": "uint256",
          "name": "",
          "type": "uint256"
        }
      ],
      "stateMutability": "view",
      "type": "function"
    },
    {
      "inputs": [
        {
          "internalType": "uint256",
          "name": "",
          "type": "uint256"
        }
      ],
      "name": "matchIds",
      "outputs": [
        {
          "internalType": "bytes32",
          "name": "",
          "type": "bytes32"
        }
      ],
      "stateMutability": "view",
      "type": "function"
    },
    {
      "inputs": [],
      "name": "matchOrders",
      "outputs": [
        {
          "internalType": "bytes32",
          "name": "matchId",
          "type": "bytes32"
        },
        {
          "internalType": "bytes32",
          "name": "buyOrderId",
          "type": "bytes32"
        },
        {
          "internalType": "bytes32",
          "name": "sellOrderId",
          "type": "bytes32"
        },
        {
          "internalType": "uint256",
          "name": "amount",
          "type": "uint256"
        },
        {
          "internalType": "uint256",
          "name": "price",
          "type": "uint256"
        }
      ],
      "stateMutability": "nonpayable",
      "type": "function"
    },
    {
      "inputs": [
        {
          "internalType": "bytes32",
          "name": "",
          "type": "bytes32"
        }
      ],
      "name": "matches",
      "outputs": [
        {
          "internalType": "bytes32",
          "name": "id",
          "type": "bytes32"
        },
        {
          "internalType": "bytes32",
          "name": "buyOrderId",
          "type": "bytes32"
        },
        {
          "internalType": "bytes32",
          "name": "sellOrderId",
          "type": "bytes32"
        },
        {
          "internalType": "uint256",
          "name": "amount",
          "type": "uint256"
        },
        {
          "internalType": "uint256",
          "name": "price",
          "type": "uint256"
        },
        {
          "internalType": "uint256",
          "name": "timestamp",
          "type": "uint256"
        }
      ],
      "stateMutability": "view",
      "type": "function"
    },
    {
      "inputs": [],
      "name": "orderCounter",
      "outputs": [
        {
          "internalType": "uint256",
          "name": "",
          "type": "uint256"
        }
      ],
      "stateMutability": "view",
      "type": "function"
    },
    {
      "inputs": [
        {
          "internalType": "uint256",
          "name": "",
          "type": "uint256"
        }
      ],
      "name": "orderIds",
      "outputs": [
        {
          "internalType": "bytes32",
          "name": "",
          "type": "bytes32"
        }
      ],
      "stateMutability": "view",
      "type": "function"
    },
    {
      "inputs": [
        {
          "internalType": "bytes32",
          "name": "",
          "type": "bytes32"
        }
      ],
      "name": "orders",
      "outputs": [
        {
          "internalType": "bytes32",
          "name": "id",
          "type": "bytes32"
        },
        {
          "internalType": "address",
          "name": "trader",
          "type": "address"
        },
        {
          "internalType": "bool",
          "name": "isBuy",
          "type": "bool"
        },
        {
          "internalType": "uint256",
          "name": "amount",
          "type": "uint256"
        },
        {
          "internalType": "uint256",
          "name": "price",
          "type": "uint256"
        },
        {
          "internalType": "uint256",
          "name": "timestamp",
          "type": "uint256"
        },
        {
          "internalType": "bool",
          "name": "executed",
          "type": "bool"
        }
      ],
      "stateMutability": "view",
      "type": "function"
    },
    {
      "inputs": [
        {
          "internalType": "bool",
          "name": "isBuy",
          "type": "bool"
        },
        {
          "internalType": "uint256",
          "name": "amount",
          "type": "uint256"
        },
        {
          "internalType": "uint256",
          "name": "price",
          "type": "uint256"
        }
      ],
      "name": "placeOrder",
      "outputs": [
        {
          "internalType": "bytes32",
          "name": "",
          "type": "bytes32"
        }
      ],
      "stateMutability": "nonpayable",
      "type": "function"
    }
  ],
  "bytecode": "0x6080604052348015600f57600080fd5b506111138061001f6000396000f3fe608060405234801561001057600080fd5b50600436106100ea5760003560e01c80638d0a5fbb1161008c578063b789bf5211610066578063b789bf5214610361578063c17c5a451461036a578063ca8b4f7a1461037f578063fcc6077d1461039257600080fd5b80638d0a5fbb146102475780639c3f1e901461024f5780639fe9ada3146102ea57600080fd5b80635778472a116100c85780635778472a146101315780637bea0d1c146101fa5780637ee685461461020f5780638c4f7dae1461023f57600080fd5b806301fd1951146100ef578063237220841461010b57806336ff6a701461011e575b600080fd5b6100f860055481565b6040519081526020015b60405180910390f35b6100f8610119366004610ecc565b610437565b6100f861012c366004610ecc565b610458565b6101ed61013f366004610ecc565b6040805160e081018252600080825260208201819052918101829052606081018290526080810182905260a0810182905260c08101919091525060009081526020818152604091829020825160e0810184528154815260018201546001600160a01b0381169382019390935260ff600160a01b90930483161515938101939093526002810154606084015260038101546080840152600481015460a08401526005015416151560c082015290565b6040516101029190610f33565b610202610468565b6040516101029190610f47565b6102176105c4565b604080519586526020860194909452928401919091526060830152608082015260a001610102565b6004546100f8565b6001546100f8565b6102a561025d366004610ecc565b60006020819052908152604090208054600182015460028301546003840154600485015460059095015493946001600160a01b0384169460ff600160a01b9095048516941687565b604080519788526001600160a01b039096166020880152931515948601949094526060850191909152608084015260a0830191909152151560c082015260e001610102565b6103346102f8366004610ecc565b60036020528060005260406000206000915090508060000154908060010154908060020154908060030154908060040154908060050154905086565b604080519687526020870195909552938501929092526060840152608083015260a082015260c001610102565b6100f860025481565b610372610c1d565b6040516101029190610f95565b6100f861038d36600461100d565b610d4a565b61042a6103a0366004610ecc565b6040805160c081018252600080825260208201819052918101829052606081018290526080810182905260a081019190915250600090815260036020818152604092839020835160c081018552815481526001820154928101929092526002810154938201939093529082015460608201526004820154608082015260059091015460a082015290565b6040516101029190611047565b6001818154811061044757600080fd5b600091825260209091200154905081565b6004818154811061044757600080fd5b60015460609060009067ffffffffffffffff8111156104895761048961108a565b6040519080825280602002602001820160405280156104f057816020015b6040805160e08101825260008082526020808301829052928201819052606082018190526080820181905260a0820181905260c082015282526000199092019101816104a75790505b50905060005b6001548110156105be5760008060018381548110610516576105166110a0565b600091825260208083209091015483528281019390935260409182019020815160e0810183528154815260018201546001600160a01b0381169482019490945260ff600160a01b90940484161515928101929092526002810154606083015260038101546080830152600481015460a083015260050154909116151560c082015282518390839081106105ab576105ab6110a0565b60209081029190910101526001016104f6565b50919050565b600080808080808080600019815b6001548110156106ac576000600182815481106105f1576105f16110a0565b6000918252602080832090910154808352828252604092839020835160e0810185528154815260018201546001600160a01b0381169482019490945260ff600160a01b90940484161580159582018690526002830154606083015260038301546080830152600483015460a0830152600590920154909316151560c084015290935090919061068257508060c00151155b8015610692575084816080015110155b156106a257819650806080015194505b50506001016105d2565b5060005b600154811015610789576000600182815481106106cf576106cf6110a0565b6000918252602080832090910154808352828252604092839020835160e0810185528154815260018201546001600160a01b0381169482019490945260ff600160a01b90940484161580159582018690526002830154606083015260038301546080830152600483015460a0830152600590920154909316151560c0840152909350909161075f57508060c00151155b801561076f575083816080015111155b1561077f57819550806080015193505b50506001016106b0565b50831580159061079857508215155b80156107a45750808211155b15610c015760008060008681526020019081526020016000206040518060e0016040529081600082015481526020016001820160009054906101000a90046001600160a01b03166001600160a01b03166001600160a01b031681526020016001820160149054906101000a900460ff161515151581526020016002820154815260200160038201548152602001600482015481526020016005820160009054906101000a900460ff161515151581525050905060008060008681526020019081526020016000206040518060e0016040529081600082015481526020016001820160009054906101000a90046001600160a01b03166001600160a01b03166001600160a01b031681526020016001820160149054906101000a900460ff161515151581526020016002820154815260200160038201548152602001600482015481526020016005820160009054906101000a900460ff161515151581525050905060008160600151836060015110610920578160600151610926565b82606001515b9050600083608001519050600088884260056000815480929190610949906110b6565b909155506040805160208101959095528401929092526060830152608082015260a0016040516020818303038152906040528051906020012090506040518060c001604052808281526020018a81526020018981526020018481526020018381526020014281525060036000838152602001908152602001600020600082015181600001556020820151816001015560408201518160020155606082015181600301556080820151816004015560a08201518160050155905050600481908060018154018082558091505060019003906000526020600020016000909190919091505560018560c001901515908115158152505060018460c0019015159081151581525050846000808b81526020019081526020016000206000820151816000015560208201518160010160006101000a8154816001600160a01b0302191690836001600160a01b0316021790555060408201518160010160146101000a81548160ff021916908315150217905550606082015181600201556080820151816003015560a0820151816004015560c08201518160050160006101000a81548160ff021916908315150217905550905050836000808a81526020019081526020016000206000820151816000015560208201518160010160006101000a8154816001600160a01b0302191690836001600160a01b0316021790555060408201518160010160146101000a81548160ff021916908315150217905550606082015181600201556080820151816003015560a0820151816004015560c08201518160050160006101000a81548160ff0219169083151502179055509050508789827f901fea57579f49a3e061642b5c628f85b2a55841db9215997b624323acde0b368686604051610be1929190918252602082015260400190565b60405180910390a49c50969a50949850939650939450610c169350505050565b50600097508796508695508594508493505050505b9091929394565b60045460609060009067ffffffffffffffff811115610c3e57610c3e61108a565b604051908082528060200260200182016040528015610c9e57816020015b6040805160c08101825260008082526020808301829052928201819052606082018190526080820181905260a08201528252600019909201910181610c5c5790505b50905060005b6004548110156105be576003600060048381548110610cc557610cc56110a0565b906000526020600020015481526020019081526020016000206040518060c00160405290816000820154815260200160018201548152602001600282015481526020016003820154815260200160048201548152602001600582015481525050828281518110610d3757610d376110a0565b6020908102919091010152600101610ca4565b600080334260026000815480929190610d62906110b6565b9091555060405160609390931b6bffffffffffffffffffffffff191660208401526034830191909152605482015260740160408051601f19818403018152828252805160209182012060e084018352808452338285018181528a151586860181815260608089018d815260808a018d81524260a08c01908152600060c08d018181528a8252818c528c82209d518e5597516001808f01805498511515600160a01b026001600160a81b03199099166001600160a01b0390931692909217979097179055925160028d0155905160038c01555160048b015593516005909901805499151560ff19909a16999099179098558054808201825592527fb10e2d527612073b26eecdfd717e6a320cf44b4afac2b0732d9fcbe2b7fa0cf690910183905584519081529283018990529282018790529350909183917f9cc695921cff561d1c4a85a484d4c073e30cf8583764b433dfa8ade0b4668eaf910160405180910390a3949350505050565b600060208284031215610ede57600080fd5b5035919050565b805182526020808201516001600160a01b031690830152604080820151151590830152606080820151908301526080808201519083015260a0808201519083015260c0908101511515910152565b60e08101610f418284610ee5565b92915050565b602080825282518282018190526000918401906040840190835b81811015610f8a57610f74838551610ee5565b6020939093019260e09290920191600101610f61565b509095945050505050565b602080825282518282018190526000918401906040840190835b81811015610f8a57610ff7838551805182526020810151602083015260408101516040830152606081015160608301526080810151608083015260a081015160a08301525050565b6020939093019260c09290920191600101610faf565b60008060006060848603121561102257600080fd5b8335801515811461103257600080fd5b95602085013595506040909401359392505050565b60c08101610f418284805182526020810151602083015260408101516040830152606081015160608301526080810151608083015260a081015160a08301525050565b634e487b7160e01b600052604160045260246000fd5b634e487b7160e01b600052603260045260246000fd5b6000600182016110d657634e487b7160e01b600052601160045260246000fd5b506001019056fea26469706673582212206c03cefede082dc7f082b530810e5810a9027591ba4daf1207c283f5eda5de5a64736f6c634300081b0033",
  "linkReferences": {},
  "deployedLinkReferences": {}
}