{
  "_format": "hh-sol-artifact-1",
  "contractName": "DarkPool",
  "sourceName": "contracts/DarkPool.sol",
  "abi": [
    {
      "anonymous": false,
      "inputs": [
        {
          "indexed": true,
          "internalType": "bytes32",
          "name": "buyOrderId",
          "type": "bytes32"
        },
        {
          "indexed": true,
          "internalType": "bytes32",
          "name": "sellOrderId",
          "type": "bytes32"
        },
        {
          "indexed": false,
          "internalType": "uint256",
          "name": "amount",
          "type": "uint256"
        },
        {
          "indexed": false,
          "internalType": "uint256",
          "name": "price",
          "type": "uint256"
        }
      ],
      "name": "OrderMatched",
      "type": "event"
    },
    {
      "anonymous": false,
      "inputs": [
        {
          "indexed": true,
          "internalType": "bytes32",
          "name": "orderId",
          "type": "bytes32"
        },
        {
          "indexed": true,
          "internalType": "address",
          "name": "trader",
          "type": "address"
        },
        {
          "indexed": false,
          "internalType": "bool",
          "name": "isBuy",
          "type": "bool"
        },
        {
          "indexed": false,
          "internalType": "uint256",
          "name": "amount",
          "type": "uint256"
        },
        {
          "indexed": false,
          "internalType": "uint256",
          "name": "price",
          "type": "uint256"
        }
      ],
      "name": "OrderPlaced",
      "type": "event"
    },
    {
      "inputs": [],
      "name": "getAllOrders",
      "outputs": [
        {
          "components": [
            {
              "internalType": "bytes32",
              "name": "id",
              "type": "bytes32"
            },
            {
              "internalType": "address",
              "name": "trader",
              "type": "address"
            },
            {
              "internalType": "bool",
              "name": "isBuy",
              "type": "bool"
            },
            {
              "internalType": "uint256",
              "name": "amount",
              "type": "uint256"
            },
            {
              "internalType": "uint256",
              "name": "price",
              "type": "uint256"
            },
            {
              "internalType": "uint256",
              "name": "timestamp",
              "type": "uint256"
            },
            {
              "internalType": "bool",
              "name": "executed",
              "type": "bool"
            }
          ],
          "internalType": "struct DarkPool.Order[]",
          "name": "",
          "type": "tuple[]"
        }
      ],
      "stateMutability": "view",
      "type": "function"
    },
    {
      "inputs": [
        {
          "internalType": "bytes32",
          "name": "orderId",
          "type": "bytes32"
        }
      ],
      "name": "getOrder",
      "outputs": [
        {
          "components": [
            {
              "internalType": "bytes32",
              "name": "id",
              "type": "bytes32"
            },
            {
              "internalType": "address",
              "name": "trader",
              "type": "address"
            },
            {
              "internalType": "bool",
              "name": "isBuy",
              "type": "bool"
            },
            {
              "internalType": "uint256",
              "name": "amount",
              "type": "uint256"
            },
            {
              "internalType": "uint256",
              "name": "price",
              "type": "uint256"
            },
            {
              "internalType": "uint256",
              "name": "timestamp",
              "type": "uint256"
            },
            {
              "internalType": "bool",
              "name": "executed",
              "type": "bool"
            }
          ],
          "internalType": "struct DarkPool.Order",
          "name": "",
          "type": "tuple"
        }
      ],
      "stateMutability": "view",
      "type": "function"
    },
    {
      "inputs": [],
      "name": "getOrderCount",
      "outputs": [
        {
          "internalType": "uint256",
          "name": "",
          "type": "uint256"
        }
      ],
      "stateMutability": "view",
      "type": "function"
    },
    {
      "inputs": [],
      "name": "orderCounter",
      "outputs": [
        {
          "internalType": "uint256",
          "name": "",
          "type": "uint256"
        }
      ],
      "stateMutability": "view",
      "type": "function"
    },
    {
      "inputs": [
        {
          "internalType": "uint256",
          "name": "",
          "type": "uint256"
        }
      ],
      "name": "orderIds",
      "outputs": [
        {
          "internalType": "bytes32",
          "name": "",
          "type": "bytes32"
        }
      ],
      "stateMutability": "view",
      "type": "function"
    },
    {
      "inputs": [
        {
          "internalType": "bytes32",
          "name": "",
          "type": "bytes32"
        }
      ],
      "name": "orders",
      "outputs": [
        {
          "internalType": "bytes32",
          "name": "id",
          "type": "bytes32"
        },
        {
          "internalType": "address",
          "name": "trader",
          "type": "address"
        },
        {
          "internalType": "bool",
          "name": "isBuy",
          "type": "bool"
        },
        {
          "internalType": "uint256",
          "name": "amount",
          "type": "uint256"
        },
        {
          "internalType": "uint256",
          "name": "price",
          "type": "uint256"
        },
        {
          "internalType": "uint256",
          "name": "timestamp",
          "type": "uint256"
        },
        {
          "internalType": "bool",
          "name": "executed",
          "type": "bool"
        }
      ],
      "stateMutability": "view",
      "type": "function"
    },
    {
      "inputs": [
        {
          "internalType": "bool",
          "name": "isBuy",
          "type": "bool"
        },
        {
          "internalType": "uint256",
          "name": "amount",
          "type": "uint256"
        },
        {
          "internalType": "uint256",
          "name": "price",
          "type": "uint256"
        }
      ],
      "name": "placeOrder",
      "outputs": [
        {
          "internalType": "bytes32",
          "name": "",
          "type": "bytes32"
        }
      ],
      "stateMutability": "nonpayable",
      "type": "function"
    }
  ],
  "bytecode": "0x6080604052348015600f57600080fd5b506106d08061001f6000396000f3fe608060405234801561001057600080fd5b506004361061007d5760003560e01c80638d0a5fbb1161005b5780638d0a5fbb146101865780639c3f1e901461018e578063b789bf5214610229578063ca8b4f7a1461023257600080fd5b806323722084146100825780635778472a146100a85780637bea0d1c14610171575b600080fd5b610095610090366004610544565b610245565b6040519081526020015b60405180910390f35b6101646100b6366004610544565b6040805160e081018252600080825260208201819052918101829052606081018290526080810182905260a0810182905260c08101919091525060009081526020818152604091829020825160e0810184528154815260018201546001600160a01b0381169382019390935260ff600160a01b90930483161515938101939093526002810154606084015260038101546080840152600481015460a08401526005015416151560c082015290565b60405161009f91906105ab565b610179610266565b60405161009f91906105bf565b600154610095565b6101e461019c366004610544565b60006020819052908152604090208054600182015460028301546003840154600485015460059095015493946001600160a01b0384169460ff600160a01b9095048516941687565b604080519788526001600160a01b039096166020880152931515948601949094526060850191909152608084015260a0830191909152151560c082015260e00161009f565b61009560025481565b61009561024036600461060d565b6103c2565b6001818154811061025557600080fd5b600091825260209091200154905081565b60015460609060009067ffffffffffffffff81111561028757610287610647565b6040519080825280602002602001820160405280156102ee57816020015b6040805160e08101825260008082526020808301829052928201819052606082018190526080820181905260a0820181905260c082015282526000199092019101816102a55790505b50905060005b6001548110156103bc57600080600183815481106103145761031461065d565b600091825260208083209091015483528281019390935260409182019020815160e0810183528154815260018201546001600160a01b0381169482019490945260ff600160a01b90940484161515928101929092526002810154606083015260038101546080830152600481015460a083015260050154909116151560c082015282518390839081106103a9576103a961065d565b60209081029190910101526001016102f4565b50919050565b6000803342600260008154809291906103da90610673565b9091555060405160609390931b6bffffffffffffffffffffffff191660208401526034830191909152605482015260740160408051601f19818403018152828252805160209182012060e084018352808452338285018181528a151586860181815260608089018d815260808a018d81524260a08c01908152600060c08d018181528a8252818c528c82209d518e5597516001808f01805498511515600160a01b026001600160a81b03199099166001600160a01b0390931692909217979097179055925160028d0155905160038c01555160048b015593516005909901805499151560ff19909a16999099179098558054808201825592527fb10e2d527612073b26eecdfd717e6a320cf44b4afac2b0732d9fcbe2b7fa0cf690910183905584519081529283018990529282018790529350909183917f9cc695921cff561d1c4a85a484d4c073e30cf8583764b433dfa8ade0b4668eaf910160405180910390a3949350505050565b60006020828403121561055657600080fd5b5035919050565b805182526020808201516001600160a01b031690830152604080820151151590830152606080820151908301526080808201519083015260a0808201519083015260c0908101511515910152565b60e081016105b9828461055d565b92915050565b602080825282518282018190526000918401906040840190835b81811015610602576105ec83855161055d565b6020939093019260e092909201916001016105d9565b509095945050505050565b60008060006060848603121561062257600080fd5b8335801515811461063257600080fd5b95602085013595506040909401359392505050565b634e487b7160e01b600052604160045260246000fd5b634e487b7160e01b600052603260045260246000fd5b60006001820161069357634e487b7160e01b600052601160045260246000fd5b506001019056fea26469706673582212208f754e7b7e5cfb94fa7d258a494a0dc623a051fa4998a8e5f9ead9980549dbb864736f6c634300081b0033",
  "linkReferences": {},
  "deployedLinkReferences": {}
}