{
  "_format": "hh-sol-artifact-1",
  "contractName": "DarkPool",
  "sourceName": "contracts/DarkPool.sol",
  "abi": [
    {
      "anonymous": false,
      "inputs": [
        {
          "indexed": true,
          "internalType": "bytes32",
          "name": "buyOrderId",
          "type": "bytes32"
        },
        {
          "indexed": true,
          "internalType": "bytes32",
          "name": "sellOrderId",
          "type": "bytes32"
        },
        {
          "indexed": false,
          "internalType": "uint256",
          "name": "amount",
          "type": "uint256"
        },
        {
          "indexed": false,
          "internalType": "uint256",
          "name": "price",
          "type": "uint256"
        }
      ],
      "name": "OrderMatched",
      "type": "event"
    },
    {
      "anonymous": false,
      "inputs": [
        {
          "indexed": true,
          "internalType": "bytes32",
          "name": "orderId",
          "type": "bytes32"
        },
        {
          "indexed": true,
          "internalType": "address",
          "name": "trader",
          "type": "address"
        },
        {
          "indexed": false,
          "internalType": "bool",
          "name": "isBuy",
          "type": "bool"
        },
        {
          "indexed": false,
          "internalType": "uint256",
          "name": "amount",
          "type": "uint256"
        },
        {
          "indexed": false,
          "internalType": "uint256",
          "name": "price",
          "type": "uint256"
        }
      ],
      "name": "OrderPlaced",
      "type": "event"
    },
    {
      "inputs": [],
      "name": "getAllOrders",
      "outputs": [
        {
          "components": [
            {
              "internalType": "bytes32",
              "name": "id",
              "type": "bytes32"
            },
            {
              "internalType": "address",
              "name": "trader",
              "type": "address"
            },
            {
              "internalType": "bool",
              "name": "isBuy",
              "type": "bool"
            },
            {
              "internalType": "uint256",
              "name": "amount",
              "type": "uint256"
            },
            {
              "internalType": "uint256",
              "name": "price",
              "type": "uint256"
            },
            {
              "internalType": "uint256",
              "name": "timestamp",
              "type": "uint256"
            },
            {
              "internalType": "bool",
              "name": "executed",
              "type": "bool"
            }
          ],
          "internalType": "struct DarkPool.Order[]",
          "name": "",
          "type": "tuple[]"
        }
      ],
      "stateMutability": "view",
      "type": "function"
    },
    {
      "inputs": [
        {
          "internalType": "bytes32",
          "name": "orderId",
          "type": "bytes32"
        }
      ],
      "name": "getOrder",
      "outputs": [
        {
          "components": [
            {
              "internalType": "bytes32",
              "name": "id",
              "type": "bytes32"
            },
            {
              "internalType": "address",
              "name": "trader",
              "type": "address"
            },
            {
              "internalType": "bool",
              "name": "isBuy",
              "type": "bool"
            },
            {
              "internalType": "uint256",
              "name": "amount",
              "type": "uint256"
            },
            {
              "internalType": "uint256",
              "name": "price",
              "type": "uint256"
            },
            {
              "internalType": "uint256",
              "name": "timestamp",
              "type": "uint256"
            },
            {
              "internalType": "bool",
              "name": "executed",
              "type": "bool"
            }
          ],
          "internalType": "struct DarkPool.Order",
          "name": "",
          "type": "tuple"
        }
      ],
      "stateMutability": "view",
      "type": "function"
    },
    {
      "inputs": [],
      "name": "getOrderCount",
      "outputs": [
        {
          "internalType": "uint256",
          "name": "",
          "type": "uint256"
        }
      ],
      "stateMutability": "view",
      "type": "function"
    },
    {
      "inputs": [],
      "name": "matchOrders",
      "outputs": [
        {
          "internalType": "bytes32",
          "name": "buyOrderId",
          "type": "bytes32"
        },
        {
          "internalType": "bytes32",
          "name": "sellOrderId",
          "type": "bytes32"
        },
        {
          "internalType": "uint256",
          "name": "amount",
          "type": "uint256"
        },
        {
          "internalType": "uint256",
          "name": "price",
          "type": "uint256"
        }
      ],
      "stateMutability": "nonpayable",
      "type": "function"
    },
    {
      "inputs": [],
      "name": "orderCounter",
      "outputs": [
        {
          "internalType": "uint256",
          "name": "",
          "type": "uint256"
        }
      ],
      "stateMutability": "view",
      "type": "function"
    },
    {
      "inputs": [
        {
          "internalType": "uint256",
          "name": "",
          "type": "uint256"
        }
      ],
      "name": "orderIds",
      "outputs": [
        {
          "internalType": "bytes32",
          "name": "",
          "type": "bytes32"
        }
      ],
      "stateMutability": "view",
      "type": "function"
    },
    {
      "inputs": [
        {
          "internalType": "bytes32",
          "name": "",
          "type": "bytes32"
        }
      ],
      "name": "orders",
      "outputs": [
        {
          "internalType": "bytes32",
          "name": "id",
          "type": "bytes32"
        },
        {
          "internalType": "address",
          "name": "trader",
          "type": "address"
        },
        {
          "internalType": "bool",
          "name": "isBuy",
          "type": "bool"
        },
        {
          "internalType": "uint256",
          "name": "amount",
          "type": "uint256"
        },
        {
          "internalType": "uint256",
          "name": "price",
          "type": "uint256"
        },
        {
          "internalType": "uint256",
          "name": "timestamp",
          "type": "uint256"
        },
        {
          "internalType": "bool",
          "name": "executed",
          "type": "bool"
        }
      ],
      "stateMutability": "view",
      "type": "function"
    },
    {
      "inputs": [
        {
          "internalType": "bool",
          "name": "isBuy",
          "type": "bool"
        },
        {
          "internalType": "uint256",
          "name": "amount",
          "type": "uint256"
        },
        {
          "internalType": "uint256",
          "name": "price",
          "type": "uint256"
        }
      ],
      "name": "placeOrder",
      "outputs": [
        {
          "internalType": "bytes32",
          "name": "",
          "type": "bytes32"
        }
      ],
      "stateMutability": "nonpayable",
      "type": "function"
    }
  ],
  "bytecode": "0x6080604052348015600f57600080fd5b50610c598061001f6000396000f3fe608060405234801561001057600080fd5b50600436106100885760003560e01c80638d0a5fbb1161005b5780638d0a5fbb146101b95780639c3f1e90146101c1578063b789bf521461025c578063ca8b4f7a1461026557600080fd5b8063237220841461008d5780635778472a146100b35780637bea0d1c1461017c5780637ee6854614610191575b600080fd5b6100a061009b366004610acd565b610278565b6040519081526020015b60405180910390f35b61016f6100c1366004610acd565b6040805160e081018252600080825260208201819052918101829052606081018290526080810182905260a0810182905260c08101919091525060009081526020818152604091829020825160e0810184528154815260018201546001600160a01b0381169382019390935260ff600160a01b90930483161515938101939093526002810154606084015260038101546080840152600481015460a08401526005015416151560c082015290565b6040516100aa9190610b34565b610184610299565b6040516100aa9190610b48565b6101996103f5565b6040805194855260208501939093529183015260608201526080016100aa565b6001546100a0565b6102176101cf366004610acd565b60006020819052908152604090208054600182015460028301546003840154600485015460059095015493946001600160a01b0384169460ff600160a01b9095048516941687565b604080519788526001600160a01b039096166020880152931515948601949094526060850191909152608084015260a0830191909152151560c082015260e0016100aa565b6100a060025481565b6100a0610273366004610b96565b61094b565b6001818154811061028857600080fd5b600091825260209091200154905081565b60015460609060009067ffffffffffffffff8111156102ba576102ba610bd0565b60405190808252806020026020018201604052801561032157816020015b6040805160e08101825260008082526020808301829052928201819052606082018190526080820181905260a0820181905260c082015282526000199092019101816102d85790505b50905060005b6001548110156103ef576000806001838154811061034757610347610be6565b600091825260208083209091015483528281019390935260409182019020815160e0810183528154815260018201546001600160a01b0381169482019490945260ff600160a01b90940484161515928101929092526002810154606083015260038101546080830152600481015460a083015260050154909116151560c082015282518390839081106103dc576103dc610be6565b6020908102919091010152600101610327565b50919050565b6000808080808080600019815b6001548110156104dc5760006001828154811061042157610421610be6565b6000918252602080832090910154808352828252604092839020835160e0810185528154815260018201546001600160a01b0381169482019490945260ff600160a01b90940484161580159582018690526002830154606083015260038301546080830152600483015460a0830152600590920154909316151560c08401529093509091906104b257508060c00151155b80156104c2575084816080015110155b156104d257819650806080015194505b5050600101610402565b5060005b6001548110156105b9576000600182815481106104ff576104ff610be6565b6000918252602080832090910154808352828252604092839020835160e0810185528154815260018201546001600160a01b0381169482019490945260ff600160a01b90940484161580159582018690526002830154606083015260038301546080830152600483015460a0830152600590920154909316151560c0840152909350909161058f57508060c00151155b801561059f575083816080015111155b156105af57819550806080015193505b50506001016104e0565b5083158015906105c857508215155b80156105d45750808211155b156109335760008060008681526020019081526020016000206040518060e0016040529081600082015481526020016001820160009054906101000a90046001600160a01b03166001600160a01b03166001600160a01b031681526020016001820160149054906101000a900460ff161515151581526020016002820154815260200160038201548152602001600482015481526020016005820160009054906101000a900460ff161515151581525050905060008060008681526020019081526020016000206040518060e0016040529081600082015481526020016001820160009054906101000a90046001600160a01b03166001600160a01b03166001600160a01b031681526020016001820160149054906101000a900460ff161515151581526020016002820154815260200160038201548152602001600482015481526020016005820160009054906101000a900460ff161515151581525050905060008160600151836060015110610750578160600151610756565b82606001515b905060008360800151905060018460c001901515908115158152505060018360c0019015159081151581525050836000808a81526020019081526020016000206000820151816000015560208201518160010160006101000a8154816001600160a01b0302191690836001600160a01b0316021790555060408201518160010160146101000a81548160ff021916908315150217905550606082015181600201556080820151816003015560a0820151816004015560c08201518160050160006101000a81548160ff021916908315150217905550905050826000808981526020019081526020016000206000820151816000015560208201518160010160006101000a8154816001600160a01b0302191690836001600160a01b0316021790555060408201518160010160146101000a81548160ff021916908315150217905550606082015181600201556080820151816003015560a0820151816004015560c08201518160050160006101000a81548160ff02191690831515021790555090505086887f02ec53743c3c607de1bcc099569eca7537c84523ba23d4766f4527d46a3e32068484604051610915929190918252602082015260400190565b60405180910390a3969a509498509396509394506109459350505050565b50600096508695508594508493505050505b90919293565b60008033426002600081548092919061096390610bfc565b9091555060405160609390931b6bffffffffffffffffffffffff191660208401526034830191909152605482015260740160408051601f19818403018152828252805160209182012060e084018352808452338285018181528a151586860181815260608089018d815260808a018d81524260a08c01908152600060c08d018181528a8252818c528c82209d518e5597516001808f01805498511515600160a01b026001600160a81b03199099166001600160a01b0390931692909217979097179055925160028d0155905160038c01555160048b015593516005909901805499151560ff19909a16999099179098558054808201825592527fb10e2d527612073b26eecdfd717e6a320cf44b4afac2b0732d9fcbe2b7fa0cf690910183905584519081529283018990529282018790529350909183917f9cc695921cff561d1c4a85a484d4c073e30cf8583764b433dfa8ade0b4668eaf910160405180910390a3949350505050565b600060208284031215610adf57600080fd5b5035919050565b805182526020808201516001600160a01b031690830152604080820151151590830152606080820151908301526080808201519083015260a0808201519083015260c0908101511515910152565b60e08101610b428284610ae6565b92915050565b602080825282518282018190526000918401906040840190835b81811015610b8b57610b75838551610ae6565b6020939093019260e09290920191600101610b62565b509095945050505050565b600080600060608486031215610bab57600080fd5b83358015158114610bbb57600080fd5b95602085013595506040909401359392505050565b634e487b7160e01b600052604160045260246000fd5b634e487b7160e01b600052603260045260246000fd5b600060018201610c1c57634e487b7160e01b600052601160045260246000fd5b506001019056fea2646970667358221220925ac5fe11bc2c00e09ffed1d79026f413de427650738b4bcd0cd6d2d7793a1264736f6c634300081b0033",
  "linkReferences": {},
  "deployedLinkReferences": {}
}