{"abi":[{"type":"constructor","inputs":[],"stateMutability":"nonpayable"},{"type":"function","name":"approve","inputs":[{"name":"to","type":"address","internalType":"address"},{"name":"tokenId","type":"uint256","internalType":"uint256"}],"outputs":[],"stateMutability":"nonpayable"},{"type":"function","name":"balanceOf","inputs":[{"name":"owner","type":"address","internalType":"address"}],"outputs":[{"name":"","type":"uint256","internalType":"uint256"}],"stateMutability":"view"},{"type":"function","name":"getApproved","inputs":[{"name":"tokenId","type":"uint256","internalType":"uint256"}],"outputs":[{"name":"","type":"address","internalType":"address"}],"stateMutability":"view"},{"type":"function","name":"getMetadata","inputs":[{"name":"agentId","type":"uint256","internalType":"uint256"},{"name":"key","type":"string","internalType":"string"}],"outputs":[{"name":"","type":"bytes","internalType":"bytes"}],"stateMutability":"view"},{"type":"function","name":"isApprovedForAll","inputs":[{"name":"owner","type":"address","internalType":"address"},{"name":"operator","type":"address","internalType":"address"}],"outputs":[{"name":"","type":"bool","internalType":"bool"}],"stateMutability":"view"},{"type":"function","name":"name","inputs":[],"outputs":[{"name":"","type":"string","internalType":"string"}],"stateMutability":"view"},{"type":"function","name":"owner","inputs":[],"outputs":[{"name":"","type":"address","internalType":"address"}],"stateMutability":"view"},{"type":"function","name":"ownerOf","inputs":[{"name":"tokenId","type":"uint256","internalType":"uint256"}],"outputs":[{"name":"","type":"address","internalType":"address"}],"stateMutability":"view"},{"type":"function","name":"renounceOwnership","inputs":[],"outputs":[],"stateMutability":"nonpayable"},{"type":"function","name":"safeTransferFrom","inputs":[{"name":"from","type":"address","internalType":"address"},{"name":"to","type":"address","internalType":"address"},{"name":"tokenId","type":"uint256","internalType":"uint256"}],"outputs":[],"stateMutability":"nonpayable"},{"type":"function","name":"safeTransferFrom","inputs":[{"name":"from","type":"address","internalType":"address"},{"name":"to","type":"address","internalType":"address"},{"name":"tokenId","type":"uint256","internalType":"uint256"},{"name":"data","type":"bytes","internalType":"bytes"}],"outputs":[],"stateMutability":"nonpayable"},{"type":"function","name":"setAgentUri","inputs":[{"name":"agentId","type":"uint256","internalType":"uint256"},{"name":"newUri","type":"string","internalType":"string"}],"outputs":[],"stateMutability":"nonpayable"},{"type":"function","name":"setApprovalForAll","inputs":[{"name":"operator","type":"address","internalType":"address"},{"name":"approved","type":"bool","internalType":"bool"}],"outputs":[],"stateMutability":"nonpayable"},{"type":"function","name":"setMetadata","inputs":[{"name":"agentId","type":"uint256","internalType":"uint256"},{"name":"key","type":"string","internalType":"string"},{"name":"value","type":"bytes","internalType":"bytes"}],"outputs":[],"stateMutability":"nonpayable"},{"type":"function","name":"supportsInterface","inputs":[{"name":"interfaceId","type":"bytes4","internalType":"bytes4"}],"outputs":[{"name":"","type":"bool","internalType":"bool"}],"stateMutability":"view"},{"type":"function","name":"symbol","inputs":[],"outputs":[{"name":"","type":"string","internalType":"string"}],"stateMutability":"view"},{"type":"function","name":"tokenURI","inputs":[{"name":"tokenId","type":"uint256","internalType":"uint256"}],"outputs":[{"name":"","type":"string","internalType":"string"}],"stateMutability":"view"},{"type":"function","name":"transferFrom","inputs":[{"name":"from","type":"address","internalType":"address"},{"name":"to","type":"address","internalType":"address"},{"name":"tokenId","type":"uint256","internalType":"uint256"}],"outputs":[],"stateMutability":"nonpayable"},{"type":"function","name":"transferOwnership","inputs":[{"name":"newOwner","type":"address","internalType":"address"}],"outputs":[],"stateMutability":"nonpayable"},{"type":"event","name":"Approval","inputs":[{"name":"owner","type":"address","indexed":true,"internalType":"address"},{"name":"approved","type":"address","indexed":true,"internalType":"address"},{"name":"tokenId","type":"uint256","indexed":true,"internalType":"uint256"}],"anonymous":false},{"type":"event","name":"ApprovalForAll","inputs":[{"name":"owner","type":"address","indexed":true,"internalType":"address"},{"name":"operator","type":"address","indexed":true,"internalType":"address"},{"name":"approved","type":"bool","indexed":false,"internalType":"bool"}],"anonymous":false},{"type":"event","name":"BatchMetadataUpdate","inputs":[{"name":"_fromTokenId","type":"uint256","indexed":false,"internalType":"uint256"},{"name":"_toTokenId","type":"uint256","indexed":false,"internalType":"uint256"}],"anonymous":false},{"type":"event","name":"MetadataSet","inputs":[{"name":"agentId","type":"uint256","indexed":true,"internalType":"uint256"},{"name":"indexedKey","type":"string","indexed":true,"internalType":"string"},{"name":"key","type":"string","indexed":false,"internalType":"string"},{"name":"value","type":"bytes","indexed":false,"internalType":"bytes"}],"anonymous":false},{"type":"event","name":"MetadataUpdate","inputs":[{"name":"_tokenId","type":"uint256","indexed":false,"internalType":"uint256"}],"anonymous":false},{"type":"event","name":"OwnershipTransferred","inputs":[{"name":"previousOwner","type":"address","indexed":true,"internalType":"address"},{"name":"newOwner","type":"address","indexed":true,"internalType":"address"}],"anonymous":false},{"type":"event","name":"Registered","inputs":[{"name":"agentId","type":"uint256","indexed":true,"internalType":"uint256"},{"name":"tokenURI","type":"string","indexed":false,"internalType":"string"},{"name":"owner","type":"address","indexed":true,"internalType":"address"}],"anonymous":false},{"type":"event","name":"Transfer","inputs":[{"name":"from","type":"address","indexed":true,"internalType":"address"},{"name":"to","type":"address","indexed":true,"internalType":"address"},{"name":"tokenId","type":"uint256","indexed":true,"internalType":"uint256"}],"anonymous":false},{"type":"event","name":"UriUpdated","inputs":[{"name":"agentId","type":"uint256","indexed":true,"internalType":"uint256"},{"name":"newUri","type":"string","indexed":false,"internalType":"string"},{"name":"updatedBy","type":"address","indexed":true,"internalType":"address"}],"anonymous":false},{"type":"error","name":"ERC721IncorrectOwner","inputs":[{"name":"sender","type":"address","internalType":"address"},{"name":"tokenId","type":"uint256","internalType":"uint256"},{"name":"owner","type":"address","internalType":"address"}]},{"type":"error","name":"ERC721InsufficientApproval","inputs":[{"name":"operator","type":"address","internalType":"address"},{"name":"tokenId","type":"uint256","internalType":"uint256"}]},{"type":"error","name":"ERC721InvalidApprover","inputs":[{"name":"approver","type":"address","internalType":"address"}]},{"type":"error","name":"ERC721InvalidOperator","inputs":[{"name":"operator","type":"address","internalType":"address"}]},{"type":"error","name":"ERC721InvalidOwner","inputs":[{"name":"owner","type":"address","internalType":"address"}]},{"type":"error","name":"ERC721InvalidReceiver","inputs":[{"name":"receiver","type":"address","internalType":"address"}]},{"type":"error","name":"ERC721InvalidSender","inputs":[{"name":"sender","type":"address","internalType":"address"}]},{"type":"error","name":"ERC721NonexistentToken","inputs":[{"name":"tokenId","type":"uint256","internalType":"uint256"}]},{"type":"error","name":"OwnableInvalidOwner","inputs":[{"name":"owner","type":"address","internalType":"address"}]},{"type":"error","name":"OwnableUnauthorizedAccount","inputs":[{"name":"account","type":"address","internalType":"address"}]}],"bytecode":{"object":"0x60806040523461037257604080519081016001600160401b03811182821017610288576040908152600d82526c4167656e744964656e7469747960981b602083015280519081016001600160401b0381118282101761028857604052600381526210525160ea1b602082015281516001600160401b038111610288575f54600181811c91168015610368575b602082101461026a57601f8111610306575b50602092601f82116001146102a757928192935f9261029c575b50508160011b915f199060031b1c1916175f555b80516001600160401b03811161028857600154600181811c9116801561027e575b602082101461026a57601f8111610207575b50602091601f82116001146101a7579181925f9261019c575b50508160011b915f199060031b1c1916176001555b33156101895760078054336001600160a01b03198216811790925560405191906001600160a01b03167f8be0079c531659141344cd1fd0a4f28419497f9722a3daafe3b4186f6b6457e05f80a35f60085561130f90816103778239f35b631e4fbdf760e01b5f525f60045260245ffd5b015190505f80610117565b601f1982169260015f52805f20915f5b8581106101ef575083600195106101d7575b505050811b0160015561012c565b01515f1960f88460031b161c191690555f80806101c9565b919260206001819286850151815501940192016101b7565b60015f527fb10e2d527612073b26eecdfd717e6a320cf44b4afac2b0732d9fcbe2b7fa0cf6601f830160051c81019160208410610260575b601f0160051c01905b81811061025557506100fe565b5f8155600101610248565b909150819061023f565b634e487b7160e01b5f52602260045260245ffd5b90607f16906100ec565b634e487b7160e01b5f52604160045260245ffd5b015190505f806100b7565b601f198216935f8052805f20915f5b8681106102ee57508360019596106102d6575b505050811b015f556100cb565b01515f1960f88460031b161c191690555f80806102c9565b919260206001819286850151815501940192016102b6565b5f80527f290decd9548b62a8d60345a988386fc84ba6bc95484008f6362f93160ef3e563601f830160051c8101916020841061035e575b601f0160051c01905b818110610353575061009d565b5f8155600101610346565b909150819061033d565b90607f169061008b565b5f80fdfe6080806040526004361015610012575f80fd5b5f3560e01c90816301ffc9a714610c4a5750806306fdde0314610ba8578063081812fc14610b8a578063095ea7b314610aa057806323b872dd14610a8957806342842e0e14610a60578063466648da146108135780635a753149146105b85780636352211e1461058857806370a0823114610537578063715018a6146104dc5780638da5cb5b146104b457806395d89b41146103ea578063a22cb4651461034f578063b88d4fde146102fe578063c87b56dd146102df578063cb4799f2146101ce578063e985e9c5146101775763f2fde38b146100ed575f80fd5b3461017357602036600319011261017357610106610cf3565b61010e6112b2565b6001600160a01b0316801561016057600780546001600160a01b0319811683179091556001600160a01b03167f8be0079c531659141344cd1fd0a4f28419497f9722a3daafe3b4186f6b6457e05f80a3005b631e4fbdf760e01b5f525f60045260245ffd5b5f80fd5b3461017357604036600319011261017357610190610cf3565b610198610d09565b9060018060a01b03165f52600560205260405f209060018060a01b03165f52602052602060ff60405f2054166040519015158152f35b346101735760403660031901126101735760243567ffffffffffffffff811161017357602061020281923690600401610dcd565b6004355f526009825260405f20604051938285935191829101845e820190815203019020604051905f9080549061023882610deb565b80855291600181169081156102b85750600114610278575b6102748461026081860382610d59565b604051918291602083526020830190610ccf565b0390f35b5f90815260208120939250905b80821061029e5750909150810160200161026082610250565b919260018160209254838588010152019101909291610285565b60ff191660208087019190915292151560051b850190920192506102609150839050610250565b34610173576020366003190112610173576102746102606004356111b9565b3461017357608036600319011261017357610317610cf3565b61031f610d09565b6064359167ffffffffffffffff83116101735761034361034d933690600401610dcd565b9160443591611079565b005b3461017357604036600319011261017357610368610cf3565b60243590811515809203610173576001600160a01b03169081156103d757335f52600560205260405f20825f5260205260405f2060ff1981541660ff83161790556040519081527f17307eab39ab6107e8899845ad3d59bd9653f200f220920489ca2b5937696c3160203392a3005b50630b61174360e31b5f5260045260245ffd5b34610173575f366003190112610173576040515f60015461040a81610deb565b80845290600181169081156104905750600114610432575b6102748361026081850382610d59565b91905060015f527fb10e2d527612073b26eecdfd717e6a320cf44b4afac2b0732d9fcbe2b7fa0cf6915f905b80821061047657509091508101602001610260610422565b91926001816020925483858801015201910190929161045e565b60ff191660208086019190915291151560051b840190910191506102609050610422565b34610173575f366003190112610173576007546040516001600160a01b039091168152602090f35b34610173575f366003190112610173576104f46112b2565b600780546001600160a01b031981169091555f906001600160a01b03167f8be0079c531659141344cd1fd0a4f28419497f9722a3daafe3b4186f6b6457e08280a3005b34610173576020366003190112610173576001600160a01b03610558610cf3565b168015610575575f526003602052602060405f2054604051908152f35b6322718ad960e21b5f525f60045260245ffd5b346101735760203660031901126101735760206105a660043561127e565b6040516001600160a01b039091168152f35b346101735760403660031901126101735760243560043567ffffffffffffffff821161017357366023830112156101735781600401359167ffffffffffffffff83116101735760248101906024843692010111610173576001600160a01b036106208361127e565b168033149081156107ef575b5080156107d0575b61063d90610fed565b610648368483610d97565b825f52600660205260405f209080519067ffffffffffffffff82116107bc5761067b826106758554610deb565b8561102a565b602090601f83116001146107365791806106ce927fb41beef75d9f8d55b985319b459e96f82453580af381391f1ad531eb8f8b5a3a9695945f9261072b575b50508160011b915f199060031b1c19161790565b90555b7ff8e1a15aba9398e019f0b49df1a4fde98ee17ae345cb5f6b5e2c27f5033e8ce76020604051858152a183604051916020835281602084015260408301375f604085830101526040813395601f80199101168101030190a3005b0151905088806106ba565b90601f19831691845f52815f20925f5b8181106107a457509160019391857fb41beef75d9f8d55b985319b459e96f82453580af381391f1ad531eb8f8b5a3a989796941061078c575b505050811b0190556106d1565b01515f1960f88460031b161c1916905587808061077f565b92936020600181928786015181550195019301610746565b634e487b7160e01b5f52604160045260245ffd5b5061063d6001600160a01b036107e584610e23565b1633149050610634565b5f90815260056020908152604080832033845290915290205460ff1690508461062c565b346101735760603660031901126101735760043560243567ffffffffffffffff811161017357610847903690600401610dcd565b9060443567ffffffffffffffff811161017357610868903690600401610dcd565b91815f52600260205260018060a01b0360405f20541633148015610a2b575b8015610a0c575b61089790610fed565b815f52600960205260405f20604051602081845193828601948086845e820190815203019020845167ffffffffffffffff81116107bc576108e2816108dc8454610deb565b8461102a565b6020601f821160011461098257927f2c149ed548c6d2993cd73efe187df6eccabe4538091b33adbd25fafdb8a1468b94926109398361097294610964975f91610977575b508160011b915f199060031b1c19161790565b90555b604051809184518091835e81015f815203902095604051938493604085526040850190610ccf565b908382036020850152610ccf565b0390a3005b90508a01518b610926565b601f19821690835f52805f20915f5b8181106109f457508361096496937f2c149ed548c6d2993cd73efe187df6eccabe4538091b33adbd25fafdb8a1468b98969361097296600194106109dc575b5050811b01905561093c565b8b01515f1960f88460031b161c191690558a806109d0565b9192602060018192868d015181550194019201610991565b506108976001600160a01b03610a2184610e23565b163314905061088e565b505f828152600260209081526040808320546001600160a01b031683526005825280832033845290915290205460ff16610887565b346101735761034d610a7136610d1f565b9060405192610a81602085610d59565b5f8452611079565b346101735761034d610a9a36610d1f565b91610e47565b3461017357604036600319011261017357610ab9610cf3565b602435610ac58161127e565b33151580610b77575b80610b4a575b610b375781906001600160a01b0384811691167f8c5be1e5ebec7d5bd14f71427d1e84f3dd0314c0f7b2291e5b200ac8c7c3b9255f80a45f90815260046020526040902080546001600160a01b0319166001600160a01b03909216919091179055005b63a9fbf51f60e01b5f523360045260245ffd5b506001600160a01b0381165f90815260056020908152604080832033845290915290205460ff1615610ad4565b506001600160a01b038116331415610ace565b346101735760203660031901126101735760206105a6600435610e23565b34610173575f366003190112610173576040515f5f54610bc781610deb565b80845290600181169081156104905750600114610bee576102748361026081850382610d59565b5f8080527f290decd9548b62a8d60345a988386fc84ba6bc95484008f6362f93160ef3e563939250905b808210610c3057509091508101602001610260610422565b919260018160209254838588010152019101909291610c18565b34610173576020366003190112610173576004359063ffffffff60e01b821680920361017357602091632483248360e11b8114908115610c8c575b5015158152f35b6380ac58cd60e01b811491508115610cbe575b8115610cad575b5083610c85565b6301ffc9a760e01b14905083610ca6565b635b5e139f60e01b81149150610c9f565b805180835260209291819084018484015e5f828201840152601f01601f1916010190565b600435906001600160a01b038216820361017357565b602435906001600160a01b038216820361017357565b6060906003190112610173576004356001600160a01b038116810361017357906024356001600160a01b0381168103610173579060443590565b90601f8019910116810190811067ffffffffffffffff8211176107bc57604052565b67ffffffffffffffff81116107bc57601f01601f191660200190565b929192610da382610d7b565b91610db16040519384610d59565b829481845281830111610173578281602093845f960137010152565b9080601f8301121561017357816020610de893359101610d97565b90565b90600182811c92168015610e19575b6020831014610e0557565b634e487b7160e01b5f52602260045260245ffd5b91607f1691610dfa565b610e2c8161127e565b505f908152600460205260409020546001600160a01b031690565b6001600160a01b0390911691908215610fda575f828152600260205260409020546001600160a01b031692829033151580610f45575b5084610f0c575b805f52600360205260405f2060018154019055815f52600260205260405f20816bffffffffffffffffffffffff60a01b825416179055847fddf252ad1be2c89b69c2b068fc378daa952ba7f163c4a11628f55a4df523b3ef5f80a46001600160a01b0316808303610ef457505050565b6364283d7b60e01b5f5260045260245260445260645ffd5b815f52600460205260405f206bffffffffffffffffffffffff60a01b8154169055845f52600360205260405f205f198154019055610e84565b90915080610f89575b15610f5b5782905f610e7d565b8284610f7357637e27328960e01b5f5260045260245ffd5b63177e802f60e01b5f523360045260245260445ffd5b503384148015610fb8575b80610f4e57505f838152600460205260409020546001600160a01b03163314610f4e565b505f84815260056020908152604080832033845290915290205460ff16610f94565b633250574960e11b5f525f60045260245ffd5b15610ff457565b60405162461bcd60e51b815260206004820152600e60248201526d139bdd08185d5d1a1bdc9a5e995960921b6044820152606490fd5b601f821161103757505050565b5f5260205f20906020601f840160051c8301931061106f575b601f0160051c01905b818110611064575050565b5f8155600101611059565b9091508190611050565b9291611086818386610e47565b813b611093575b50505050565b604051630a85bd0160e11b81523360048201526001600160a01b03948516602482015260448101919091526080606482015292169190602090829081906110de906084830190610ccf565b03815f865af15f9181611174575b5061114157503d1561113a573d61110281610d7b565b906111106040519283610d59565b81523d5f602083013e5b805190816111355782633250574960e11b5f5260045260245ffd5b602001fd5b606061111a565b6001600160e01b03191663757a42ff60e11b0161116257505f80808061108d565b633250574960e11b5f5260045260245ffd5b9091506020813d6020116111b1575b8161119060209383610d59565b8101031261017357516001600160e01b03198116810361017357905f6110ec565b3d9150611183565b6111c28161127e565b505f52600660205260405f2060405190815f8254926111e084610deb565b808452936001811690811561125c5750600114611218575b5061120592500382610d59565b5f604051611214602082610d59565b5290565b90505f9291925260205f20905f915b818310611240575050906020611205928201015f6111f8565b6020919350806001915483858801015201910190918392611227565b90506020925061120594915060ff191682840152151560051b8201015f6111f8565b5f818152600260205260409020546001600160a01b03169081156112a0575090565b637e27328960e01b5f5260045260245ffd5b6007546001600160a01b031633036112c657565b63118cdaa760e01b5f523360045260245ffdfea2646970667358221220a04656571322e3a90ae290ed9189b5fb648ba8ed7f5298d91867e72d0524ab1a64736f6c634300081e0033","linkReferences":{}},"methodIdentifiers":{"approve(address,uint256)":"095ea7b3","balanceOf(address)":"70a08231","getApproved(uint256)":"081812fc","getMetadata(uint256,string)":"cb4799f2","isApprovedForAll(address,address)":"e985e9c5","name()":"06fdde03","owner()":"8da5cb5b","ownerOf(uint256)":"6352211e","renounceOwnership()":"715018a6","safeTransferFrom(address,address,uint256)":"42842e0e","safeTransferFrom(address,address,uint256,bytes)":"b88d4fde","setAgentUri(uint256,string)":"5a753149","setApprovalForAll(address,bool)":"a22cb465","setMetadata(uint256,string,bytes)":"466648da","supportsInterface(bytes4)":"01ffc9a7","symbol()":"95d89b41","tokenURI(uint256)":"c87b56dd","transferFrom(address,address,uint256)":"23b872dd","transferOwnership(address)":"f2fde38b"},"id":22}