{
  "_format": "hh-sol-artifact-1",
  "contractName": "MockDiamond",
  "sourceName": "contracts/MockDiamond.sol",
  "abi": [
    {
      "inputs": [],
      "stateMutability": "nonpayable",
      "type": "constructor"
    },
    {
      "inputs": [
        {
          "internalType": "address",
          "name": "owner",
          "type": "address"
        }
      ],
      "name": "OwnableInvalidOwner",
      "type": "error"
    },
    {
      "inputs": [
        {
          "internalType": "address",
          "name": "account",
          "type": "address"
        }
      ],
      "name": "OwnableUnauthorizedAccount",
      "type": "error"
    },
    {
      "anonymous": false,
      "inputs": [
        {
          "indexed": true,
          "internalType": "address",
          "name": "previousOwner",
          "type": "address"
        },
        {
          "indexed": true,
          "internalType": "address",
          "name": "newOwner",
          "type": "address"
        }
      ],
      "name": "OwnershipTransferred",
      "type": "event"
    },
    {
      "anonymous": false,
      "inputs": [
        {
          "indexed": true,
          "internalType": "uint256",
          "name": "tokenId",
          "type": "uint256"
        },
        {
          "indexed": true,
          "internalType": "address",
          "name": "owner",
          "type": "address"
        }
      ],
      "name": "PositionClosed",
      "type": "event"
    },
    {
      "anonymous": false,
      "inputs": [
        {
          "indexed": true,
          "internalType": "uint256",
          "name": "tokenId",
          "type": "uint256"
        },
        {
          "indexed": true,
          "internalType": "address",
          "name": "owner",
          "type": "address"
        },
        {
          "indexed": false,
          "internalType": "address",
          "name": "collateralToken",
          "type": "address"
        },
        {
          "indexed": false,
          "internalType": "uint256",
          "name": "collateralAmount",
          "type": "uint256"
        }
      ],
      "name": "PositionOpened",
      "type": "event"
    },
    {
      "inputs": [
        {
          "internalType": "address",
          "name": "tokenIn",
          "type": "address"
        },
        {
          "internalType": "uint256",
          "name": "amountIn",
          "type": "uint256"
        },
        {
          "internalType": "address",
          "name": "tokenOut",
          "type": "address"
        },
        {
          "internalType": "uint256",
          "name": "minAmountOut",
          "type": "uint256"
        },
        {
          "internalType": "address",
          "name": "swapTarget",
          "type": "address"
        },
        {
          "internalType": "bytes",
          "name": "swapData",
          "type": "bytes"
        }
      ],
      "name": "closeOrRemovePositionFlashLoanV2",
      "outputs": [],
      "stateMutability": "nonpayable",
      "type": "function"
    },
    {
      "inputs": [],
      "name": "getNextPositionId",
      "outputs": [
        {
          "internalType": "uint32",
          "name": "",
          "type": "uint32"
        }
      ],
      "stateMutability": "view",
      "type": "function"
    },
    {
      "inputs": [
        {
          "internalType": "uint256",
          "name": "tokenId",
          "type": "uint256"
        }
      ],
      "name": "getPosition",
      "outputs": [
        {
          "internalType": "uint256",
          "name": "collateralAmount",
          "type": "uint256"
        },
        {
          "internalType": "uint256",
          "name": "debtAmount",
          "type": "uint256"
        }
      ],
      "stateMutability": "view",
      "type": "function"
    },
    {
      "inputs": [
        {
          "internalType": "uint256",
          "name": "tokenId",
          "type": "uint256"
        }
      ],
      "name": "getPositionDebtRatio",
      "outputs": [
        {
          "internalType": "uint256",
          "name": "",
          "type": "uint256"
        }
      ],
      "stateMutability": "view",
      "type": "function"
    },
    {
      "inputs": [
        {
          "components": [
            {
              "internalType": "address",
              "name": "tokenIn",
              "type": "address"
            },
            {
              "internalType": "uint256",
              "name": "amountIn",
              "type": "uint256"
            },
            {
              "internalType": "address",
              "name": "tokenOut",
              "type": "address"
            },
            {
              "internalType": "bytes",
              "name": "swapData",
              "type": "bytes"
            }
          ],
          "internalType": "struct MockDiamond.SwapParams",
          "name": "swapParams",
          "type": "tuple"
        },
        {
          "internalType": "address",
          "name": "pool",
          "type": "address"
        },
        {
          "internalType": "uint256",
          "name": "positionId",
          "type": "uint256"
        },
        {
          "internalType": "uint256",
          "name": "amount",
          "type": "uint256"
        },
        {
          "internalType": "bytes",
          "name": "data",
          "type": "bytes"
        }
      ],
      "name": "openOrAddPositionFlashLoanV2",
      "outputs": [],
      "stateMutability": "payable",
      "type": "function"
    },
    {
      "inputs": [],
      "name": "owner",
      "outputs": [
        {
          "internalType": "address",
          "name": "",
          "type": "address"
        }
      ],
      "stateMutability": "view",
      "type": "function"
    },
    {
      "inputs": [
        {
          "internalType": "uint256",
          "name": "",
          "type": "uint256"
        }
      ],
      "name": "positionCollateralAmounts",
      "outputs": [
        {
          "internalType": "uint256",
          "name": "",
          "type": "uint256"
        }
      ],
      "stateMutability": "view",
      "type": "function"
    },
    {
      "inputs": [
        {
          "internalType": "uint256",
          "name": "",
          "type": "uint256"
        }
      ],
      "name": "positionCollateralTokens",
      "outputs": [
        {
          "internalType": "address",
          "name": "",
          "type": "address"
        }
      ],
      "stateMutability": "view",
      "type": "function"
    },
    {
      "inputs": [
        {
          "internalType": "uint256",
          "name": "",
          "type": "uint256"
        }
      ],
      "name": "positionDebtAmounts",
      "outputs": [
        {
          "internalType": "uint256",
          "name": "",
          "type": "uint256"
        }
      ],
      "stateMutability": "view",
      "type": "function"
    },
    {
      "inputs": [
        {
          "internalType": "uint256",
          "name": "",
          "type": "uint256"
        }
      ],
      "name": "positionOwners",
      "outputs": [
        {
          "internalType": "address",
          "name": "",
          "type": "address"
        }
      ],
      "stateMutability": "view",
      "type": "function"
    },
    {
      "inputs": [],
      "name": "renounceOwnership",
      "outputs": [],
      "stateMutability": "nonpayable",
      "type": "function"
    },
    {
      "inputs": [],
      "name": "testFunction",
      "outputs": [
        {
          "internalType": "string",
          "name": "",
          "type": "string"
        }
      ],
      "stateMutability": "pure",
      "type": "function"
    },
    {
      "inputs": [
        {
          "internalType": "address",
          "name": "newOwner",
          "type": "address"
        }
      ],
      "name": "transferOwnership",
      "outputs": [],
      "stateMutability": "nonpayable",
      "type": "function"
    }
  ],
  "bytecode": "0x60806040526001805534801561001457600080fd5b50338061003b57604051631e4fbdf760e01b81526000600482015260240160405180910390fd5b6100448161004a565b5061009a565b600080546001600160a01b038381166001600160a01b0319831681178455604051919092169283917f8be0079c531659141344cd1fd0a4f28419497f9722a3daafe3b4186f6b6457e09190a35050565b61082e806100a96000396000f3fe6080604052600436106100c25760003560e01c80638da5cb5b1161007f578063eb02c30111610059578063eb02c3011461024e578063f00ba5641461029d578063f03c71f7146102ca578063f2fde38b1461030057600080fd5b80638da5cb5b146101d1578063a1b7e04f146101ef578063e16b4a9b1461020257600080fd5b8063067f4ddd146100c75780632fc027d0146100f157806362474ea11461012c578063715018a61461017a5780638543795c14610191578063861b4cfe146101b1575b600080fd5b3480156100d357600080fd5b5060015460405163ffffffff90911681526020015b60405180910390f35b3480156100fd57600080fd5b5061011e61010c366004610582565b60046020526000908152604090205481565b6040519081526020016100e8565b34801561013857600080fd5b50610162610147366004610582565b6002602052600090815260409020546001600160a01b031681565b6040516001600160a01b0390911681526020016100e8565b34801561018657600080fd5b5061018f610320565b005b34801561019d57600080fd5b5061018f6101ac366004610600565b610334565b3480156101bd57600080fd5b5061011e6101cc366004610582565b61036b565b3480156101dd57600080fd5b506000546001600160a01b0316610162565b61018f6101fd366004610689565b6103bf565b34801561020e57600080fd5b50604080518082018252601781527f4d6f636b4469616d6f6e6420697320776f726b696e6721000000000000000000602082015290516100e89190610720565b34801561025a57600080fd5b50610288610269366004610582565b6000908152600460209081526040808320546005909252909120549091565b604080519283526020830191909152016100e8565b3480156102a957600080fd5b5061011e6102b8366004610582565b60056020526000908152604090205481565b3480156102d657600080fd5b506101626102e5366004610582565b6003602052600090815260409020546001600160a01b031681565b34801561030c57600080fd5b5061018f61031b36600461076e565b6104c2565b610328610505565b6103326000610532565b565b60405133906001907fcefaf961c5013063cf501ffd9f9382e9b9c4b15741ad032fe93d7e9c7c733b2290600090a350505050505050565b600081815260046020526040812054810361038857506000919050565b6000828152600460209081526040808320546005909252909120546103af906127106107a6565b6103b991906107bd565b92915050565b60018054600091826103d0836107df565b90915550600081815260026020908152604090912080546001600160a01b031916331790559091506104049088018861076e565b600082815260036020908152604080832080546001600160a01b0319166001600160a01b03959095169490941790935560048152919020908801359081905561044e9060026107a6565b600082815260056020908152604090912091909155339082907f9931fc1a74664316f768453232cd4f17f63c060ff3c43c99e92c83814879817a90610495908b018b61076e565b604080516001600160a01b0390921682526020808d0135908301520160405180910390a350505050505050565b6104ca610505565b6001600160a01b0381166104f957604051631e4fbdf760e01b8152600060048201526024015b60405180910390fd5b61050281610532565b50565b6000546001600160a01b031633146103325760405163118cdaa760e01b81523360048201526024016104f0565b600080546001600160a01b038381166001600160a01b0319831681178455604051919092169283917f8be0079c531659141344cd1fd0a4f28419497f9722a3daafe3b4186f6b6457e09190a35050565b60006020828403121561059457600080fd5b5035919050565b80356001600160a01b03811681146105b257600080fd5b919050565b60008083601f8401126105c957600080fd5b50813567ffffffffffffffff8111156105e157600080fd5b6020830191508360208285010111156105f957600080fd5b9250929050565b600080600080600080600060c0888a03121561061b57600080fd5b6106248861059b565b9650602088013595506106396040890161059b565b94506060880135935061064e6080890161059b565b925060a088013567ffffffffffffffff81111561066a57600080fd5b6106768a828b016105b7565b989b979a50959850939692959293505050565b60008060008060008060a087890312156106a257600080fd5b863567ffffffffffffffff808211156106ba57600080fd5b908801906080828b0312156106ce57600080fd5b8197506106dd60208a0161059b565b96506040890135955060608901359450608089013591508082111561070157600080fd5b5061070e89828a016105b7565b979a9699509497509295939492505050565b600060208083528351808285015260005b8181101561074d57858101830151858201604001528201610731565b506000604082860101526040601f19601f8301168501019250505092915050565b60006020828403121561078057600080fd5b6107898261059b565b9392505050565b634e487b7160e01b600052601160045260246000fd5b80820281158282048414176103b9576103b9610790565b6000826107da57634e487b7160e01b600052601260045260246000fd5b500490565b6000600182016107f1576107f1610790565b506001019056fea2646970667358221220206ba41e524129970a4d9c69f98c7793b8b57d989b59b90b2c53be3d60b409f064736f6c63430008140033",
  "linkReferences": {},
  "deployedLinkReferences": {}
}