{
	"data": {
		"bytecode": {
			"linkReferences": {},
			"object": "608060405234801561000f575f5ffd5b506040516118f43803806118f4833981810160405281019061003191906100d4565b805f5f6101000a81548173ffffffffffffffffffffffffffffffffffffffff021916908373ffffffffffffffffffffffffffffffffffffffff160217905550506100ff565b5f5ffd5b5f73ffffffffffffffffffffffffffffffffffffffff82169050919050565b5f6100a38261007a565b9050919050565b6100b381610099565b81146100bd575f5ffd5b50565b5f815190506100ce816100aa565b92915050565b5f602082840312156100e9576100e8610076565b5b5f6100f6848285016100c0565b91505092915050565b6117e88061010c5f395ff3fe60806040526004361061010c575f3560e01c8063bd535fe211610094578063d2cbf7ad11610063578063d2cbf7ad146103b1578063f3fef3a3146103db578063f40f0f5214610403578063fbfa77cf1461043f578063ff18bf0b1461046957610161565b8063bd535fe2146102f7578063c0a4d64d14610321578063c268f1581461034b578063d279c1911461037557610161565b8063817b1cd2116100db578063817b1cd214610213578063839145401461023d578063a609fee314610267578063b365114914610291578063bbadc93a146102bb57610161565b80631a8ed62414610165578063290b29e31461018f57806347e7ef24146101b95780635e5c06e2146101d557610161565b36610161573373ffffffffffffffffffffffffffffffffffffffff167f69f707d6b29376bd44509015848d942efe0752e0bb6836541ac943b5d73722763460405161015791906110cc565b60405180910390a2005b5f5ffd5b348015610170575f5ffd5b50610179610473565b60405161018691906110cc565b60405180910390f35b34801561019a575f5ffd5b506101a3610478565b6040516101b091906110ff565b60405180910390f35b6101d360048036038101906101ce91906111a0565b610480565b005b3480156101e0575f5ffd5b506101fb60048036038101906101f691906111de565b6106a4565b60405161020a9392919061122b565b60405180910390f35b34801561021e575f5ffd5b506102276106dd565b60405161023491906110cc565b60405180910390f35b348015610248575f5ffd5b506102516106e3565b60405161025e91906110cc565b60405180910390f35b348015610272575f5ffd5b5061027b6106eb565b60405161028891906110cc565b60405180910390f35b34801561029c575f5ffd5b506102a56106f0565b6040516102b291906110cc565b60405180910390f35b3480156102c6575f5ffd5b506102e160048036038101906102dc91906111de565b6106fc565b6040516102ee91906110cc565b60405180910390f35b348015610302575f5ffd5b5061030b610744565b60405161031891906110cc565b60405180910390f35b34801561032c575f5ffd5b50610335610758565b60405161034291906110cc565b60405180910390f35b348015610356575f5ffd5b5061035f61075f565b60405161036c91906110cc565b60405180910390f35b348015610380575f5ffd5b5061039b600480360381019061039691906111de565b610764565b6040516103a891906110cc565b60405180910390f35b3480156103bc575f5ffd5b506103c56109b2565b6040516103d291906110cc565b60405180910390f35b3480156103e6575f5ffd5b5061040160048036038101906103fc91906111a0565b6109c0565b005b34801561040e575f5ffd5b50610429600480360381019061042491906111de565b610c49565b60405161043691906110cc565b60405180910390f35b34801561044a575f5ffd5b50610453610d4c565b604051610460919061126f565b60405180910390f35b610471610d70565b005b606481565b5f6001905090565b5f5f9054906101000a900473ffffffffffffffffffffffffffffffffffffffff1673ffffffffffffffffffffffffffffffffffffffff163373ffffffffffffffffffffffffffffffffffffffff161461050e576040517f08c379a0000000000000000000000000000000000000000000000000000000008152600401610505906112e2565b60405180910390fd5b5f60015414610552576040517f08c379a00000000000000000000000000000000000000000000000000000000081526004016105499061134a565b60405180910390fd5b60018081905550803414801561056757505f81115b6105a6576040517f08c379a000000000000000000000000000000000000000000000000000000000815260040161059d906113b2565b60405180910390fd5b5f60025f8473ffffffffffffffffffffffffffffffffffffffff1673ffffffffffffffffffffffffffffffffffffffff1681526020019081526020015f2090506105ef81610e02565b81815f015f82825461060191906113fd565b925050819055508160035f82825461061991906113fd565b9250508190555042816002015f6101000a81548167ffffffffffffffff021916908367ffffffffffffffff1602179055508273ffffffffffffffffffffffffffffffffffffffff167fe1fffcc4923d04b559f4d29a8bfc6cda04eb5b0d3c460751c2402c5c5cc9109c8360405161069091906110cc565b60405180910390a2505f6001819055505050565b6002602052805f5260405f205f91509050805f015490806001015490806002015f9054906101000a900467ffffffffffffffff16905083565b60035481565b6301e1338081565b600581565b6702c68af0bb14000081565b5f60025f8373ffffffffffffffffffffffffffffffffffffffff1673ffffffffffffffffffffffffffffffffffffffff1681526020019081526020015f205f01549050919050565b5f600354476107539190611430565b905090565b5f5f905090565b600381565b5f5f5f9054906101000a900473ffffffffffffffffffffffffffffffffffffffff1673ffffffffffffffffffffffffffffffffffffffff163373ffffffffffffffffffffffffffffffffffffffff16146107f3576040517f08c379a00000000000000000000000000000000000000000000000000000000081526004016107ea906112e2565b60405180910390fd5b5f60015414610837576040517f08c379a000000000000000000000000000000000000000000000000000000000815260040161082e9061134a565b60405180910390fd5b600180819055505f60025f8473ffffffffffffffffffffffffffffffffffffffff1673ffffffffffffffffffffffffffffffffffffffff1681526020019081526020015f20905061088781610e02565b5f816001015490505f81116108d1576040517f08c379a00000000000000000000000000000000000000000000000000000000081526004016108c8906114ad565b60405180910390fd5b5f6108da610744565b90508181101561091f576040517f08c379a000000000000000000000000000000000000000000000000000000000815260040161091690611515565b60405180910390fd5b5f83600101819055506109525f5f9054906101000a900473ffffffffffffffffffffffffffffffffffffffff1683610f32565b8473ffffffffffffffffffffffffffffffffffffffff167f47cee97cb7acd717b3c0aa1435d004cd5b3c8c57d70dbceb4e4458bbd60e39d48360405161099891906110cc565b60405180910390a28193505050505f600181905550919050565b5f66b1a2bc2ec50000905090565b5f5f9054906101000a900473ffffffffffffffffffffffffffffffffffffffff1673ffffffffffffffffffffffffffffffffffffffff163373ffffffffffffffffffffffffffffffffffffffff1614610a4e576040517f08c379a0000000000000000000000000000000000000000000000000000000008152600401610a45906112e2565b60405180910390fd5b5f60015414610a92576040517f08c379a0000000000000000000000000000000000000000000000000000000008152600401610a899061134a565b60405180910390fd5b600180819055505f60025f8473ffffffffffffffffffffffffffffffffffffffff1673ffffffffffffffffffffffffffffffffffffffff1681526020019081526020015f2090505f8211610b1b576040517f08c379a0000000000000000000000000000000000000000000000000000000008152600401610b129061157d565b60405180910390fd5b81815f01541015610b61576040517f08c379a0000000000000000000000000000000000000000000000000000000008152600401610b58906115e5565b60405180910390fd5b610b6a81610e02565b81815f015f828254610b7c9190611430565b925050819055508160035f828254610b949190611430565b9250508190555042816002015f6101000a81548167ffffffffffffffff021916908367ffffffffffffffff160217905550610bef5f5f9054906101000a900473ffffffffffffffffffffffffffffffffffffffff1683610f32565b8273ffffffffffffffffffffffffffffffffffffffff167f884edad9ce6fa2440d8a54cc123490eb96d2768479d49ff9c7366125a942436483604051610c3591906110cc565b60405180910390a2505f6001819055505050565b5f5f60025f8473ffffffffffffffffffffffffffffffffffffffff1673ffffffffffffffffffffffffffffffffffffffff1681526020019081526020015f206040518060600160405290815f820154815260200160018201548152602001600282015f9054906101000a900467ffffffffffffffff1667ffffffffffffffff1667ffffffffffffffff168152505090505f815f01511480610cf757505f816040015167ffffffffffffffff16145b15610d09578060200151915050610d47565b5f816040015167ffffffffffffffff1642610d249190611430565b9050610d33825f015182610fdf565b8260200151610d4291906113fd565b925050505b919050565b5f5f9054906101000a900473ffffffffffffffffffffffffffffffffffffffff1681565b5f3411610db2576040517f08c379a0000000000000000000000000000000000000000000000000000000008152600401610da99061164d565b60405180910390fd5b3373ffffffffffffffffffffffffffffffffffffffff167f69f707d6b29376bd44509015848d942efe0752e0bb6836541ac943b5d737227634604051610df891906110cc565b60405180910390a2565b5f815f015403610e3b5742816002015f6101000a81548167ffffffffffffffff021916908367ffffffffffffffff160217905550610f2f565b5f816002015f9054906101000a900467ffffffffffffffff1667ffffffffffffffff1603610e925742816002015f6101000a81548167ffffffffffffffff021916908367ffffffffffffffff160217905550610f2f565b5f816002015f9054906101000a900467ffffffffffffffff1667ffffffffffffffff1642610ec09190611430565b90505f8103610ecf5750610f2f565b5f610edd835f015483610fdf565b90505f811115610f025780836001015f828254610efa91906113fd565b925050819055505b42836002015f6101000a81548167ffffffffffffffff021916908367ffffffffffffffff16021790555050505b50565b5f8273ffffffffffffffffffffffffffffffffffffffff1682604051610f5790611698565b5f6040518083038185875af1925050503d805f8114610f91576040519150601f19603f3d011682016040523d82523d5f602084013e610f96565b606091505b5050905080610fda576040517f08c379a0000000000000000000000000000000000000000000000000000000008152600401610fd1906116f6565b60405180910390fd5b505050565b5f5f6702c68af0bb140000841115610fff576702c68af0bb140000611001565b835b90505f6702c68af0bb1400008511611019575f61102e565b6702c68af0bb1400008561102d9190611430565b5b90505f6301e1338060646110429190611714565b856005856110509190611714565b61105a9190611714565b6110649190611782565b90505f6301e1338060646110789190611714565b866003856110869190611714565b6110909190611714565b61109a9190611782565b905080826110a891906113fd565b94505050505092915050565b5f819050919050565b6110c6816110b4565b82525050565b5f6020820190506110df5f8301846110bd565b92915050565b5f8115159050919050565b6110f9816110e5565b82525050565b5f6020820190506111125f8301846110f0565b92915050565b5f5ffd5b5f73ffffffffffffffffffffffffffffffffffffffff82169050919050565b5f6111458261111c565b9050919050565b6111558161113b565b811461115f575f5ffd5b50565b5f813590506111708161114c565b92915050565b61117f816110b4565b8114611189575f5ffd5b50565b5f8135905061119a81611176565b92915050565b5f5f604083850312156111b6576111b5611118565b5b5f6111c385828601611162565b92505060206111d48582860161118c565b9150509250929050565b5f602082840312156111f3576111f2611118565b5b5f61120084828501611162565b91505092915050565b5f67ffffffffffffffff82169050919050565b61122581611209565b82525050565b5f60608201905061123e5f8301866110bd565b61124b60208301856110bd565b611258604083018461121c565b949350505050565b6112698161113b565b82525050565b5f6020820190506112825f830184611260565b92915050565b5f82825260208201905092915050565b7f4f4e4c595f5641554c54000000000000000000000000000000000000000000005f82015250565b5f6112cc600a83611288565b91506112d782611298565b602082019050919050565b5f6020820190508181035f8301526112f9816112c0565b9050919050565b7f5245454e5452414e4359000000000000000000000000000000000000000000005f82015250565b5f611334600a83611288565b915061133f82611300565b602082019050919050565b5f6020820190508181035f83015261136181611328565b9050919050565b7f494e56414c49445f414d4f554e540000000000000000000000000000000000005f82015250565b5f61139c600e83611288565b91506113a782611368565b602082019050919050565b5f6020820190508181035f8301526113c981611390565b9050919050565b7f4e487b71000000000000000000000000000000000000000000000000000000005f52601160045260245ffd5b5f611407826110b4565b9150611412836110b4565b925082820190508082111561142a576114296113d0565b5b92915050565b5f61143a826110b4565b9150611445836110b4565b925082820390508181111561145d5761145c6113d0565b5b92915050565b7f4e4f5f52455741524453000000000000000000000000000000000000000000005f82015250565b5f611497600a83611288565b91506114a282611463565b602082019050919050565b5f6020820190508181035f8301526114c48161148b565b9050919050565b7f494e53554646494349454e545f504f4f4c0000000000000000000000000000005f82015250565b5f6114ff601183611288565b915061150a826114cb565b602082019050919050565b5f6020820190508181035f83015261152c816114f3565b9050919050565b7f5a45524f5f414d4f554e540000000000000000000000000000000000000000005f82015250565b5f611567600b83611288565b915061157282611533565b602082019050919050565b5f6020820190508181035f8301526115948161155b565b9050919050565b7f494e53554646494349454e545f5052494e434950414c000000000000000000005f82015250565b5f6115cf601683611288565b91506115da8261159b565b602082019050919050565b5f6020820190508181035f8301526115fc816115c3565b9050919050565b7f4e4f5f56414c55450000000000000000000000000000000000000000000000005f82015250565b5f611637600883611288565b915061164282611603565b602082019050919050565b5f6020820190508181035f8301526116648161162b565b9050919050565b5f81905092915050565b50565b5f6116835f8361166b565b915061168e82611675565b5f82019050919050565b5f6116a282611678565b9150819050919050565b7f4554485f5452414e534645525f4641494c0000000000000000000000000000005f82015250565b5f6116e0601183611288565b91506116eb826116ac565b602082019050919050565b5f6020820190508181035f83015261170d816116d4565b9050919050565b5f61171e826110b4565b9150611729836110b4565b9250828202611737816110b4565b9150828204841483151761174e5761174d6113d0565b5b5092915050565b7f4e487b71000000000000000000000000000000000000000000000000000000005f52601260045260245ffd5b5f61178c826110b4565b9150611797836110b4565b9250826117a7576117a6611755565b5b82820490509291505056fea264697066735822122003749043aec80119f97faaecf36ce23bea66a89cd235490b90f8c072d38cd49d64736f6c634300081e0033",
			"opcodes": "PUSH1 0x80 PUSH1 0x40 MSTORE CALLVALUE DUP1 ISZERO PUSH2 0xF JUMPI PUSH0 PUSH0 REVERT JUMPDEST POP PUSH1 0x40 MLOAD PUSH2 0x18F4 CODESIZE SUB DUP1 PUSH2 0x18F4 DUP4 CODECOPY DUP2 DUP2 ADD PUSH1 0x40 MSTORE DUP2 ADD SWAP1 PUSH2 0x31 SWAP2 SWAP1 PUSH2 0xD4 JUMP JUMPDEST DUP1 PUSH0 PUSH0 PUSH2 0x100 EXP DUP2 SLOAD DUP2 PUSH20 0xFFFFFFFFFFFFFFFFFFFFFFFFFFFFFFFFFFFFFFFF MUL NOT AND SWAP1 DUP4 PUSH20 0xFFFFFFFFFFFFFFFFFFFFFFFFFFFFFFFFFFFFFFFF AND MUL OR SWAP1 SSTORE POP POP PUSH2 0xFF JUMP JUMPDEST PUSH0 PUSH0 REVERT JUMPDEST PUSH0 PUSH20 0xFFFFFFFFFFFFFFFFFFFFFFFFFFFFFFFFFFFFFFFF DUP3 AND SWAP1 POP SWAP2 SWAP1 POP JUMP JUMPDEST PUSH0 PUSH2 0xA3 DUP3 PUSH2 0x7A JUMP JUMPDEST SWAP1 POP SWAP2 SWAP1 POP JUMP JUMPDEST PUSH2 0xB3 DUP2 PUSH2 0x99 JUMP JUMPDEST DUP2 EQ PUSH2 0xBD JUMPI PUSH0 PUSH0 REVERT JUMPDEST POP JUMP JUMPDEST PUSH0 DUP2 MLOAD SWAP1 POP PUSH2 0xCE DUP2 PUSH2 0xAA JUMP JUMPDEST SWAP3 SWAP2 POP POP JUMP JUMPDEST PUSH0 PUSH1 0x20 DUP3 DUP5 SUB SLT ISZERO PUSH2 0xE9 JUMPI PUSH2 0xE8 PUSH2 0x76 JUMP JUMPDEST JUMPDEST PUSH0 PUSH2 0xF6 DUP5 DUP3 DUP6 ADD PUSH2 0xC0 JUMP JUMPDEST SWAP2 POP POP SWAP3 SWAP2 POP POP JUMP JUMPDEST PUSH2 0x17E8 DUP1 PUSH2 0x10C PUSH0 CODECOPY PUSH0 RETURN INVALID PUSH1 0x80 PUSH1 0x40 MSTORE PUSH1 0x4 CALLDATASIZE LT PUSH2 0x10C JUMPI PUSH0 CALLDATALOAD PUSH1 0xE0 SHR DUP1 PUSH4 0xBD535FE2 GT PUSH2 0x94 JUMPI DUP1 PUSH4 0xD2CBF7AD GT PUSH2 0x63 JUMPI DUP1 PUSH4 0xD2CBF7AD EQ PUSH2 0x3B1 JUMPI DUP1 PUSH4 0xF3FEF3A3 EQ PUSH2 0x3DB JUMPI DUP1 PUSH4 0xF40F0F52 EQ PUSH2 0x403 JUMPI DUP1 PUSH4 0xFBFA77CF EQ PUSH2 0x43F JUMPI DUP1 PUSH4 0xFF18BF0B EQ PUSH2 0x469 JUMPI PUSH2 0x161 JUMP JUMPDEST DUP1 PUSH4 0xBD535FE2 EQ PUSH2 0x2F7 JUMPI DUP1 PUSH4 0xC0A4D64D EQ PUSH2 0x321 JUMPI DUP1 PUSH4 0xC268F158 EQ PUSH2 0x34B JUMPI DUP1 PUSH4 0xD279C191 EQ PUSH2 0x375 JUMPI PUSH2 0x161 JUMP JUMPDEST DUP1 PUSH4 0x817B1CD2 GT PUSH2 0xDB JUMPI DUP1 PUSH4 0x817B1CD2 EQ PUSH2 0x213 JUMPI DUP1 PUSH4 0x83914540 EQ PUSH2 0x23D JUMPI DUP1 PUSH4 0xA609FEE3 EQ PUSH2 0x267 JUMPI DUP1 PUSH4 0xB3651149 EQ PUSH2 0x291 JUMPI DUP1 PUSH4 0xBBADC93A EQ PUSH2 0x2BB JUMPI PUSH2 0x161 JUMP JUMPDEST DUP1 PUSH4 0x1A8ED624 EQ PUSH2 0x165 JUMPI DUP1 PUSH4 0x290B29E3 EQ PUSH2 0x18F JUMPI DUP1 PUSH4 0x47E7EF24 EQ PUSH2 0x1B9 JUMPI DUP1 PUSH4 0x5E5C06E2 EQ PUSH2 0x1D5 JUMPI PUSH2 0x161 JUMP JUMPDEST CALLDATASIZE PUSH2 0x161 JUMPI CALLER PUSH20 0xFFFFFFFFFFFFFFFFFFFFFFFFFFFFFFFFFFFFFFFF AND PUSH32 0x69F707D6B29376BD44509015848D942EFE0752E0BB6836541AC943B5D7372276 CALLVALUE PUSH1 0x40 MLOAD PUSH2 0x157 SWAP2 SWAP1 PUSH2 0x10CC JUMP JUMPDEST PUSH1 0x40 MLOAD DUP1 SWAP2 SUB SWAP1 LOG2 STOP JUMPDEST PUSH0 PUSH0 REVERT JUMPDEST CALLVALUE DUP1 ISZERO PUSH2 0x170 JUMPI PUSH0 PUSH0 REVERT JUMPDEST POP PUSH2 0x179 PUSH2 0x473 JUMP JUMPDEST PUSH1 0x40 MLOAD PUSH2 0x186 SWAP2 SWAP1 PUSH2 0x10CC JUMP JUMPDEST PUSH1 0x40 MLOAD DUP1 SWAP2 SUB SWAP1 RETURN JUMPDEST CALLVALUE DUP1 ISZERO PUSH2 0x19A JUMPI PUSH0 PUSH0 REVERT JUMPDEST POP PUSH2 0x1A3 PUSH2 0x478 JUMP JUMPDEST PUSH1 0x40 MLOAD PUSH2 0x1B0 SWAP2 SWAP1 PUSH2 0x10FF JUMP JUMPDEST PUSH1 0x40 MLOAD DUP1 SWAP2 SUB SWAP1 RETURN JUMPDEST PUSH2 0x1D3 PUSH1 0x4 DUP1 CALLDATASIZE SUB DUP2 ADD SWAP1 PUSH2 0x1CE SWAP2 SWAP1 PUSH2 0x11A0 JUMP JUMPDEST PUSH2 0x480 JUMP JUMPDEST STOP JUMPDEST CALLVALUE DUP1 ISZERO PUSH2 0x1E0 JUMPI PUSH0 PUSH0 REVERT JUMPDEST POP PUSH2 0x1FB PUSH1 0x4 DUP1 CALLDATASIZE SUB DUP2 ADD SWAP1 PUSH2 0x1F6 SWAP2 SWAP1 PUSH2 0x11DE JUMP JUMPDEST PUSH2 0x6A4 JUMP JUMPDEST PUSH1 0x40 MLOAD PUSH2 0x20A SWAP4 SWAP3 SWAP2 SWAP1 PUSH2 0x122B JUMP JUMPDEST PUSH1 0x40 MLOAD DUP1 SWAP2 SUB SWAP1 RETURN JUMPDEST CALLVALUE DUP1 ISZERO PUSH2 0x21E JUMPI PUSH0 PUSH0 REVERT JUMPDEST POP PUSH2 0x227 PUSH2 0x6DD JUMP JUMPDEST PUSH1 0x40 MLOAD PUSH2 0x234 SWAP2 SWAP1 PUSH2 0x10CC JUMP JUMPDEST PUSH1 0x40 MLOAD DUP1 SWAP2 SUB SWAP1 RETURN JUMPDEST CALLVALUE DUP1 ISZERO PUSH2 0x248 JUMPI PUSH0 PUSH0 REVERT JUMPDEST POP PUSH2 0x251 PUSH2 0x6E3 JUMP JUMPDEST PUSH1 0x40 MLOAD PUSH2 0x25E SWAP2 SWAP1 PUSH2 0x10CC JUMP JUMPDEST PUSH1 0x40 MLOAD DUP1 SWAP2 SUB SWAP1 RETURN JUMPDEST CALLVALUE DUP1 ISZERO PUSH2 0x272 JUMPI PUSH0 PUSH0 REVERT JUMPDEST POP PUSH2 0x27B PUSH2 0x6EB JUMP JUMPDEST PUSH1 0x40 MLOAD PUSH2 0x288 SWAP2 SWAP1 PUSH2 0x10CC JUMP JUMPDEST PUSH1 0x40 MLOAD DUP1 SWAP2 SUB SWAP1 RETURN JUMPDEST CALLVALUE DUP1 ISZERO PUSH2 0x29C JUMPI PUSH0 PUSH0 REVERT JUMPDEST POP PUSH2 0x2A5 PUSH2 0x6F0 JUMP JUMPDEST PUSH1 0x40 MLOAD PUSH2 0x2B2 SWAP2 SWAP1 PUSH2 0x10CC JUMP JUMPDEST PUSH1 0x40 MLOAD DUP1 SWAP2 SUB SWAP1 RETURN JUMPDEST CALLVALUE DUP1 ISZERO PUSH2 0x2C6 JUMPI PUSH0 PUSH0 REVERT JUMPDEST POP PUSH2 0x2E1 PUSH1 0x4 DUP1 CALLDATASIZE SUB DUP2 ADD SWAP1 PUSH2 0x2DC SWAP2 SWAP1 PUSH2 0x11DE JUMP JUMPDEST PUSH2 0x6FC JUMP JUMPDEST PUSH1 0x40 MLOAD PUSH2 0x2EE SWAP2 SWAP1 PUSH2 0x10CC JUMP JUMPDEST PUSH1 0x40 MLOAD DUP1 SWAP2 SUB SWAP1 RETURN JUMPDEST CALLVALUE DUP1 ISZERO PUSH2 0x302 JUMPI PUSH0 PUSH0 REVERT JUMPDEST POP PUSH2 0x30B PUSH2 0x744 JUMP JUMPDEST PUSH1 0x40 MLOAD PUSH2 0x318 SWAP2 SWAP1 PUSH2 0x10CC JUMP JUMPDEST PUSH1 0x40 MLOAD DUP1 SWAP2 SUB SWAP1 RETURN JUMPDEST CALLVALUE DUP1 ISZERO PUSH2 0x32C JUMPI PUSH0 PUSH0 REVERT JUMPDEST POP PUSH2 0x335 PUSH2 0x758 JUMP JUMPDEST PUSH1 0x40 MLOAD PUSH2 0x342 SWAP2 SWAP1 PUSH2 0x10CC JUMP JUMPDEST PUSH1 0x40 MLOAD DUP1 SWAP2 SUB SWAP1 RETURN JUMPDEST CALLVALUE DUP1 ISZERO PUSH2 0x356 JUMPI PUSH0 PUSH0 REVERT JUMPDEST POP PUSH2 0x35F PUSH2 0x75F JUMP JUMPDEST PUSH1 0x40 MLOAD PUSH2 0x36C SWAP2 SWAP1 PUSH2 0x10CC JUMP JUMPDEST PUSH1 0x40 MLOAD DUP1 SWAP2 SUB SWAP1 RETURN JUMPDEST CALLVALUE DUP1 ISZERO PUSH2 0x380 JUMPI PUSH0 PUSH0 REVERT JUMPDEST POP PUSH2 0x39B PUSH1 0x4 DUP1 CALLDATASIZE SUB DUP2 ADD SWAP1 PUSH2 0x396 SWAP2 SWAP1 PUSH2 0x11DE JUMP JUMPDEST PUSH2 0x764 JUMP JUMPDEST PUSH1 0x40 MLOAD PUSH2 0x3A8 SWAP2 SWAP1 PUSH2 0x10CC JUMP JUMPDEST PUSH1 0x40 MLOAD DUP1 SWAP2 SUB SWAP1 RETURN JUMPDEST CALLVALUE DUP1 ISZERO PUSH2 0x3BC JUMPI PUSH0 PUSH0 REVERT JUMPDEST POP PUSH2 0x3C5 PUSH2 0x9B2 JUMP JUMPDEST PUSH1 0x40 MLOAD PUSH2 0x3D2 SWAP2 SWAP1 PUSH2 0x10CC JUMP JUMPDEST PUSH1 0x40 MLOAD DUP1 SWAP2 SUB SWAP1 RETURN JUMPDEST CALLVALUE DUP1 ISZERO PUSH2 0x3E6 JUMPI PUSH0 PUSH0 REVERT JUMPDEST POP PUSH2 0x401 PUSH1 0x4 DUP1 CALLDATASIZE SUB DUP2 ADD SWAP1 PUSH2 0x3FC SWAP2 SWAP1 PUSH2 0x11A0 JUMP JUMPDEST PUSH2 0x9C0 JUMP JUMPDEST STOP JUMPDEST CALLVALUE DUP1 ISZERO PUSH2 0x40E JUMPI PUSH0 PUSH0 REVERT JUMPDEST POP PUSH2 0x429 PUSH1 0x4 DUP1 CALLDATASIZE SUB DUP2 ADD SWAP1 PUSH2 0x424 SWAP2 SWAP1 PUSH2 0x11DE JUMP JUMPDEST PUSH2 0xC49 JUMP JUMPDEST PUSH1 0x40 MLOAD PUSH2 0x436 SWAP2 SWAP1 PUSH2 0x10CC JUMP JUMPDEST PUSH1 0x40 MLOAD DUP1 SWAP2 SUB SWAP1 RETURN JUMPDEST CALLVALUE DUP1 ISZERO PUSH2 0x44A JUMPI PUSH0 PUSH0 REVERT JUMPDEST POP PUSH2 0x453 PUSH2 0xD4C JUMP JUMPDEST PUSH1 0x40 MLOAD PUSH2 0x460 SWAP2 SWAP1 PUSH2 0x126F JUMP JUMPDEST PUSH1 0x40 MLOAD DUP1 SWAP2 SUB SWAP1 RETURN JUMPDEST PUSH2 0x471 PUSH2 0xD70 JUMP JUMPDEST STOP JUMPDEST PUSH1 0x64 DUP2 JUMP JUMPDEST PUSH0 PUSH1 0x1 SWAP1 POP SWAP1 JUMP JUMPDEST PUSH0 PUSH0 SWAP1 SLOAD SWAP1 PUSH2 0x100 EXP SWAP1 DIV PUSH20 0xFFFFFFFFFFFFFFFFFFFFFFFFFFFFFFFFFFFFFFFF AND PUSH20 0xFFFFFFFFFFFFFFFFFFFFFFFFFFFFFFFFFFFFFFFF AND CALLER PUSH20 0xFFFFFFFFFFFFFFFFFFFFFFFFFFFFFFFFFFFFFFFF AND EQ PUSH2 0x50E JUMPI PUSH1 0x40 MLOAD PUSH32 0x8C379A000000000000000000000000000000000000000000000000000000000 DUP2 MSTORE PUSH1 0x4 ADD PUSH2 0x505 SWAP1 PUSH2 0x12E2 JUMP JUMPDEST PUSH1 0x40 MLOAD DUP1 SWAP2 SUB SWAP1 REVERT JUMPDEST PUSH0 PUSH1 0x1 SLOAD EQ PUSH2 0x552 JUMPI PUSH1 0x40 MLOAD PUSH32 0x8C379A000000000000000000000000000000000000000000000000000000000 DUP2 MSTORE PUSH1 0x4 ADD PUSH2 0x549 SWAP1 PUSH2 0x134A JUMP JUMPDEST PUSH1 0x40 MLOAD DUP1 SWAP2 SUB SWAP1 REVERT JUMPDEST PUSH1 0x1 DUP1 DUP2 SWAP1 SSTORE POP DUP1 CALLVALUE EQ DUP1 ISZERO PUSH2 0x567 JUMPI POP PUSH0 DUP2 GT JUMPDEST PUSH2 0x5A6 JUMPI PUSH1 0x40 MLOAD PUSH32 0x8C379A000000000000000000000000000000000000000000000000000000000 DUP2 MSTORE PUSH1 0x4 ADD PUSH2 0x59D SWAP1 PUSH2 0x13B2 JUMP JUMPDEST PUSH1 0x40 MLOAD DUP1 SWAP2 SUB SWAP1 REVERT JUMPDEST PUSH0 PUSH1 0x2 PUSH0 DUP5 PUSH20 0xFFFFFFFFFFFFFFFFFFFFFFFFFFFFFFFFFFFFFFFF AND PUSH20 0xFFFFFFFFFFFFFFFFFFFFFFFFFFFFFFFFFFFFFFFF AND DUP2 MSTORE PUSH1 0x20 ADD SWAP1 DUP2 MSTORE PUSH1 0x20 ADD PUSH0 KECCAK256 SWAP1 POP PUSH2 0x5EF DUP2 PUSH2 0xE02 JUMP JUMPDEST DUP2 DUP2 PUSH0 ADD PUSH0 DUP3 DUP3 SLOAD PUSH2 0x601 SWAP2 SWAP1 PUSH2 0x13FD JUMP JUMPDEST SWAP3 POP POP DUP2 SWAP1 SSTORE POP DUP2 PUSH1 0x3 PUSH0 DUP3 DUP3 SLOAD PUSH2 0x619 SWAP2 SWAP1 PUSH2 0x13FD JUMP JUMPDEST SWAP3 POP POP DUP2 SWAP1 SSTORE POP TIMESTAMP DUP2 PUSH1 0x2 ADD PUSH0 PUSH2 0x100 EXP DUP2 SLOAD DUP2 PUSH8 0xFFFFFFFFFFFFFFFF MUL NOT AND SWAP1 DUP4 PUSH8 0xFFFFFFFFFFFFFFFF AND MUL OR SWAP1 SSTORE POP DUP3 PUSH20 0xFFFFFFFFFFFFFFFFFFFFFFFFFFFFFFFFFFFFFFFF AND PUSH32 0xE1FFFCC4923D04B559F4D29A8BFC6CDA04EB5B0D3C460751C2402C5C5CC9109C DUP4 PUSH1 0x40 MLOAD PUSH2 0x690 SWAP2 SWAP1 PUSH2 0x10CC JUMP JUMPDEST PUSH1 0x40 MLOAD DUP1 SWAP2 SUB SWAP1 LOG2 POP PUSH0 PUSH1 0x1 DUP2 SWAP1 SSTORE POP POP POP JUMP JUMPDEST PUSH1 0x2 PUSH1 0x20 MSTORE DUP1 PUSH0 MSTORE PUSH1 0x40 PUSH0 KECCAK256 PUSH0 SWAP2 POP SWAP1 POP DUP1 PUSH0 ADD SLOAD SWAP1 DUP1 PUSH1 0x1 ADD SLOAD SWAP1 DUP1 PUSH1 0x2 ADD PUSH0 SWAP1 SLOAD SWAP1 PUSH2 0x100 EXP SWAP1 DIV PUSH8 0xFFFFFFFFFFFFFFFF AND SWAP1 POP DUP4 JUMP JUMPDEST PUSH1 0x3 SLOAD DUP2 JUMP JUMPDEST PUSH4 0x1E13380 DUP2 JUMP JUMPDEST PUSH1 0x5 DUP2 JUMP JUMPDEST PUSH8 0x2C68AF0BB140000 DUP2 JUMP JUMPDEST PUSH0 PUSH1 0x2 PUSH0 DUP4 PUSH20 0xFFFFFFFFFFFFFFFFFFFFFFFFFFFFFFFFFFFFFFFF AND PUSH20 0xFFFFFFFFFFFFFFFFFFFFFFFFFFFFFFFFFFFFFFFF AND DUP2 MSTORE PUSH1 0x20 ADD SWAP1 DUP2 MSTORE PUSH1 0x20 ADD PUSH0 KECCAK256 PUSH0 ADD SLOAD SWAP1 POP SWAP2 SWAP1 POP JUMP JUMPDEST PUSH0 PUSH1 0x3 SLOAD SELFBALANCE PUSH2 0x753 SWAP2 SWAP1 PUSH2 0x1430 JUMP JUMPDEST SWAP1 POP SWAP1 JUMP JUMPDEST PUSH0 PUSH0 SWAP1 POP SWAP1 JUMP JUMPDEST PUSH1 0x3 DUP2 JUMP JUMPDEST PUSH0 PUSH0 PUSH0 SWAP1 SLOAD SWAP1 PUSH2 0x100 EXP SWAP1 DIV PUSH20 0xFFFFFFFFFFFFFFFFFFFFFFFFFFFFFFFFFFFFFFFF AND PUSH20 0xFFFFFFFFFFFFFFFFFFFFFFFFFFFFFFFFFFFFFFFF AND CALLER PUSH20 0xFFFFFFFFFFFFFFFFFFFFFFFFFFFFFFFFFFFFFFFF AND EQ PUSH2 0x7F3 JUMPI PUSH1 0x40 MLOAD PUSH32 0x8C379A000000000000000000000000000000000000000000000000000000000 DUP2 MSTORE PUSH1 0x4 ADD PUSH2 0x7EA SWAP1 PUSH2 0x12E2 JUMP JUMPDEST PUSH1 0x40 MLOAD DUP1 SWAP2 SUB SWAP1 REVERT JUMPDEST PUSH0 PUSH1 0x1 SLOAD EQ PUSH2 0x837 JUMPI PUSH1 0x40 MLOAD PUSH32 0x8C379A000000000000000000000000000000000000000000000000000000000 DUP2 MSTORE PUSH1 0x4 ADD PUSH2 0x82E SWAP1 PUSH2 0x134A JUMP JUMPDEST PUSH1 0x40 MLOAD DUP1 SWAP2 SUB SWAP1 REVERT JUMPDEST PUSH1 0x1 DUP1 DUP2 SWAP1 SSTORE POP PUSH0 PUSH1 0x2 PUSH0 DUP5 PUSH20 0xFFFFFFFFFFFFFFFFFFFFFFFFFFFFFFFFFFFFFFFF AND PUSH20 0xFFFFFFFFFFFFFFFFFFFFFFFFFFFFFFFFFFFFFFFF AND DUP2 MSTORE PUSH1 0x20 ADD SWAP1 DUP2 MSTORE PUSH1 0x20 ADD PUSH0 KECCAK256 SWAP1 POP PUSH2 0x887 DUP2 PUSH2 0xE02 JUMP JUMPDEST PUSH0 DUP2 PUSH1 0x1 ADD SLOAD SWAP1 POP PUSH0 DUP2 GT PUSH2 0x8D1 JUMPI PUSH1 0x40 MLOAD PUSH32 0x8C379A000000000000000000000000000000000000000000000000000000000 DUP2 MSTORE PUSH1 0x4 ADD PUSH2 0x8C8 SWAP1 PUSH2 0x14AD JUMP JUMPDEST PUSH1 0x40 MLOAD DUP1 SWAP2 SUB SWAP1 REVERT JUMPDEST PUSH0 PUSH2 0x8DA PUSH2 0x744 JUMP JUMPDEST SWAP1 POP DUP2 DUP2 LT ISZERO PUSH2 0x91F JUMPI PUSH1 0x40 MLOAD PUSH32 0x8C379A000000000000000000000000000000000000000000000000000000000 DUP2 MSTORE PUSH1 0x4 ADD PUSH2 0x916 SWAP1 PUSH2 0x1515 JUMP JUMPDEST PUSH1 0x40 MLOAD DUP1 SWAP2 SUB SWAP1 REVERT JUMPDEST PUSH0 DUP4 PUSH1 0x1 ADD DUP2 SWAP1 SSTORE POP PUSH2 0x952 PUSH0 PUSH0 SWAP1 SLOAD SWAP1 PUSH2 0x100 EXP SWAP1 DIV PUSH20 0xFFFFFFFFFFFFFFFFFFFFFFFFFFFFFFFFFFFFFFFF AND DUP4 PUSH2 0xF32 JUMP JUMPDEST DUP5 PUSH20 0xFFFFFFFFFFFFFFFFFFFFFFFFFFFFFFFFFFFFFFFF AND PUSH32 0x47CEE97CB7ACD717B3C0AA1435D004CD5B3C8C57D70DBCEB4E4458BBD60E39D4 DUP4 PUSH1 0x40 MLOAD PUSH2 0x998 SWAP2 SWAP1 PUSH2 0x10CC JUMP JUMPDEST PUSH1 0x40 MLOAD DUP1 SWAP2 SUB SWAP1 LOG2 DUP2 SWAP4 POP POP POP POP PUSH0 PUSH1 0x1 DUP2 SWAP1 SSTORE POP SWAP2 SWAP1 POP JUMP JUMPDEST PUSH0 PUSH7 0xB1A2BC2EC50000 SWAP1 POP SWAP1 JUMP JUMPDEST PUSH0 PUSH0 SWAP1 SLOAD SWAP1 PUSH2 0x100 EXP SWAP1 DIV PUSH20 0xFFFFFFFFFFFFFFFFFFFFFFFFFFFFFFFFFFFFFFFF AND PUSH20 0xFFFFFFFFFFFFFFFFFFFFFFFFFFFFFFFFFFFFFFFF AND CALLER PUSH20 0xFFFFFFFFFFFFFFFFFFFFFFFFFFFFFFFFFFFFFFFF AND EQ PUSH2 0xA4E JUMPI PUSH1 0x40 MLOAD PUSH32 0x8C379A000000000000000000000000000000000000000000000000000000000 DUP2 MSTORE PUSH1 0x4 ADD PUSH2 0xA45 SWAP1 PUSH2 0x12E2 JUMP JUMPDEST PUSH1 0x40 MLOAD DUP1 SWAP2 SUB SWAP1 REVERT JUMPDEST PUSH0 PUSH1 0x1 SLOAD EQ PUSH2 0xA92 JUMPI PUSH1 0x40 MLOAD PUSH32 0x8C379A000000000000000000000000000000000000000000000000000000000 DUP2 MSTORE PUSH1 0x4 ADD PUSH2 0xA89 SWAP1 PUSH2 0x134A JUMP JUMPDEST PUSH1 0x40 MLOAD DUP1 SWAP2 SUB SWAP1 REVERT JUMPDEST PUSH1 0x1 DUP1 DUP2 SWAP1 SSTORE POP PUSH0 PUSH1 0x2 PUSH0 DUP5 PUSH20 0xFFFFFFFFFFFFFFFFFFFFFFFFFFFFFFFFFFFFFFFF AND PUSH20 0xFFFFFFFFFFFFFFFFFFFFFFFFFFFFFFFFFFFFFFFF AND DUP2 MSTORE PUSH1 0x20 ADD SWAP1 DUP2 MSTORE PUSH1 0x20 ADD PUSH0 KECCAK256 SWAP1 POP PUSH0 DUP3 GT PUSH2 0xB1B JUMPI PUSH1 0x40 MLOAD PUSH32 0x8C379A000000000000000000000000000000000000000000000000000000000 DUP2 MSTORE PUSH1 0x4 ADD PUSH2 0xB12 SWAP1 PUSH2 0x157D JUMP JUMPDEST PUSH1 0x40 MLOAD DUP1 SWAP2 SUB SWAP1 REVERT JUMPDEST DUP2 DUP2 PUSH0 ADD SLOAD LT ISZERO PUSH2 0xB61 JUMPI PUSH1 0x40 MLOAD PUSH32 0x8C379A000000000000000000000000000000000000000000000000000000000 DUP2 MSTORE PUSH1 0x4 ADD PUSH2 0xB58 SWAP1 PUSH2 0x15E5 JUMP JUMPDEST PUSH1 0x40 MLOAD DUP1 SWAP2 SUB SWAP1 REVERT JUMPDEST PUSH2 0xB6A DUP2 PUSH2 0xE02 JUMP JUMPDEST DUP2 DUP2 PUSH0 ADD PUSH0 DUP3 DUP3 SLOAD PUSH2 0xB7C SWAP2 SWAP1 PUSH2 0x1430 JUMP JUMPDEST SWAP3 POP POP DUP2 SWAP1 SSTORE POP DUP2 PUSH1 0x3 PUSH0 DUP3 DUP3 SLOAD PUSH2 0xB94 SWAP2 SWAP1 PUSH2 0x1430 JUMP JUMPDEST SWAP3 POP POP DUP2 SWAP1 SSTORE POP TIMESTAMP DUP2 PUSH1 0x2 ADD PUSH0 PUSH2 0x100 EXP DUP2 SLOAD DUP2 PUSH8 0xFFFFFFFFFFFFFFFF MUL NOT AND SWAP1 DUP4 PUSH8 0xFFFFFFFFFFFFFFFF AND MUL OR SWAP1 SSTORE POP PUSH2 0xBEF PUSH0 PUSH0 SWAP1 SLOAD SWAP1 PUSH2 0x100 EXP SWAP1 DIV PUSH20 0xFFFFFFFFFFFFFFFFFFFFFFFFFFFFFFFFFFFFFFFF AND DUP4 PUSH2 0xF32 JUMP JUMPDEST DUP3 PUSH20 0xFFFFFFFFFFFFFFFFFFFFFFFFFFFFFFFFFFFFFFFF AND PUSH32 0x884EDAD9CE6FA2440D8A54CC123490EB96D2768479D49FF9C7366125A9424364 DUP4 PUSH1 0x40 MLOAD PUSH2 0xC35 SWAP2 SWAP1 PUSH2 0x10CC JUMP JUMPDEST PUSH1 0x40 MLOAD DUP1 SWAP2 SUB SWAP1 LOG2 POP PUSH0 PUSH1 0x1 DUP2 SWAP1 SSTORE POP POP POP JUMP JUMPDEST PUSH0 PUSH0 PUSH1 0x2 PUSH0 DUP5 PUSH20 0xFFFFFFFFFFFFFFFFFFFFFFFFFFFFFFFFFFFFFFFF AND PUSH20 0xFFFFFFFFFFFFFFFFFFFFFFFFFFFFFFFFFFFFFFFF AND DUP2 MSTORE PUSH1 0x20 ADD SWAP1 DUP2 MSTORE PUSH1 0x20 ADD PUSH0 KECCAK256 PUSH1 0x40 MLOAD DUP1 PUSH1 0x60 ADD PUSH1 0x40 MSTORE SWAP1 DUP2 PUSH0 DUP3 ADD SLOAD DUP2 MSTORE PUSH1 0x20 ADD PUSH1 0x1 DUP3 ADD SLOAD DUP2 MSTORE PUSH1 0x20 ADD PUSH1 0x2 DUP3 ADD PUSH0 SWAP1 SLOAD SWAP1 PUSH2 0x100 EXP SWAP1 DIV PUSH8 0xFFFFFFFFFFFFFFFF AND PUSH8 0xFFFFFFFFFFFFFFFF AND PUSH8 0xFFFFFFFFFFFFFFFF AND DUP2 MSTORE POP POP SWAP1 POP PUSH0 DUP2 PUSH0 ADD MLOAD EQ DUP1 PUSH2 0xCF7 JUMPI POP PUSH0 DUP2 PUSH1 0x40 ADD MLOAD PUSH8 0xFFFFFFFFFFFFFFFF AND EQ JUMPDEST ISZERO PUSH2 0xD09 JUMPI DUP1 PUSH1 0x20 ADD MLOAD SWAP2 POP POP PUSH2 0xD47 JUMP JUMPDEST PUSH0 DUP2 PUSH1 0x40 ADD MLOAD PUSH8 0xFFFFFFFFFFFFFFFF AND TIMESTAMP PUSH2 0xD24 SWAP2 SWAP1 PUSH2 0x1430 JUMP JUMPDEST SWAP1 POP PUSH2 0xD33 DUP3 PUSH0 ADD MLOAD DUP3 PUSH2 0xFDF JUMP JUMPDEST DUP3 PUSH1 0x20 ADD MLOAD PUSH2 0xD42 SWAP2 SWAP1 PUSH2 0x13FD JUMP JUMPDEST SWAP3 POP POP POP JUMPDEST SWAP2 SWAP1 POP JUMP JUMPDEST PUSH0 PUSH0 SWAP1 SLOAD SWAP1 PUSH2 0x100 EXP SWAP1 DIV PUSH20 0xFFFFFFFFFFFFFFFFFFFFFFFFFFFFFFFFFFFFFFFF AND DUP2 JUMP JUMPDEST PUSH0 CALLVALUE GT PUSH2 0xDB2 JUMPI PUSH1 0x40 MLOAD PUSH32 0x8C379A000000000000000000000000000000000000000000000000000000000 DUP2 MSTORE PUSH1 0x4 ADD PUSH2 0xDA9 SWAP1 PUSH2 0x164D JUMP JUMPDEST PUSH1 0x40 MLOAD DUP1 SWAP2 SUB SWAP1 REVERT JUMPDEST CALLER PUSH20 0xFFFFFFFFFFFFFFFFFFFFFFFFFFFFFFFFFFFFFFFF AND PUSH32 0x69F707D6B29376BD44509015848D942EFE0752E0BB6836541AC943B5D7372276 CALLVALUE PUSH1 0x40 MLOAD PUSH2 0xDF8 SWAP2 SWAP1 PUSH2 0x10CC JUMP JUMPDEST PUSH1 0x40 MLOAD DUP1 SWAP2 SUB SWAP1 LOG2 JUMP JUMPDEST PUSH0 DUP2 PUSH0 ADD SLOAD SUB PUSH2 0xE3B JUMPI TIMESTAMP DUP2 PUSH1 0x2 ADD PUSH0 PUSH2 0x100 EXP DUP2 SLOAD DUP2 PUSH8 0xFFFFFFFFFFFFFFFF MUL NOT AND SWAP1 DUP4 PUSH8 0xFFFFFFFFFFFFFFFF AND MUL OR SWAP1 SSTORE POP PUSH2 0xF2F JUMP JUMPDEST PUSH0 DUP2 PUSH1 0x2 ADD PUSH0 SWAP1 SLOAD SWAP1 PUSH2 0x100 EXP SWAP1 DIV PUSH8 0xFFFFFFFFFFFFFFFF AND PUSH8 0xFFFFFFFFFFFFFFFF AND SUB PUSH2 0xE92 JUMPI TIMESTAMP DUP2 PUSH1 0x2 ADD PUSH0 PUSH2 0x100 EXP DUP2 SLOAD DUP2 PUSH8 0xFFFFFFFFFFFFFFFF MUL NOT AND SWAP1 DUP4 PUSH8 0xFFFFFFFFFFFFFFFF AND MUL OR SWAP1 SSTORE POP PUSH2 0xF2F JUMP JUMPDEST PUSH0 DUP2 PUSH1 0x2 ADD PUSH0 SWAP1 SLOAD SWAP1 PUSH2 0x100 EXP SWAP1 DIV PUSH8 0xFFFFFFFFFFFFFFFF AND PUSH8 0xFFFFFFFFFFFFFFFF AND TIMESTAMP PUSH2 0xEC0 SWAP2 SWAP1 PUSH2 0x1430 JUMP JUMPDEST SWAP1 POP PUSH0 DUP2 SUB PUSH2 0xECF JUMPI POP PUSH2 0xF2F JUMP JUMPDEST PUSH0 PUSH2 0xEDD DUP4 PUSH0 ADD SLOAD DUP4 PUSH2 0xFDF JUMP JUMPDEST SWAP1 POP PUSH0 DUP2 GT ISZERO PUSH2 0xF02 JUMPI DUP1 DUP4 PUSH1 0x1 ADD PUSH0 DUP3 DUP3 SLOAD PUSH2 0xEFA SWAP2 SWAP1 PUSH2 0x13FD JUMP JUMPDEST SWAP3 POP POP DUP2 SWAP1 SSTORE POP JUMPDEST TIMESTAMP DUP4 PUSH1 0x2 ADD PUSH0 PUSH2 0x100 EXP DUP2 SLOAD DUP2 PUSH8 0xFFFFFFFFFFFFFFFF MUL NOT AND SWAP1 DUP4 PUSH8 0xFFFFFFFFFFFFFFFF AND MUL OR SWAP1 SSTORE POP POP POP JUMPDEST POP JUMP JUMPDEST PUSH0 DUP3 PUSH20 0xFFFFFFFFFFFFFFFFFFFFFFFFFFFFFFFFFFFFFFFF AND DUP3 PUSH1 0x40 MLOAD PUSH2 0xF57 SWAP1 PUSH2 0x1698 JUMP JUMPDEST PUSH0 PUSH1 0x40 MLOAD DUP1 DUP4 SUB DUP2 DUP6 DUP8 GAS CALL SWAP3 POP POP POP RETURNDATASIZE DUP1 PUSH0 DUP2 EQ PUSH2 0xF91 JUMPI PUSH1 0x40 MLOAD SWAP2 POP PUSH1 0x1F NOT PUSH1 0x3F RETURNDATASIZE ADD AND DUP3 ADD PUSH1 0x40 MSTORE RETURNDATASIZE DUP3 MSTORE RETURNDATASIZE PUSH0 PUSH1 0x20 DUP5 ADD RETURNDATACOPY PUSH2 0xF96 JUMP JUMPDEST PUSH1 0x60 SWAP2 POP JUMPDEST POP POP SWAP1 POP DUP1 PUSH2 0xFDA JUMPI PUSH1 0x40 MLOAD PUSH32 0x8C379A000000000000000000000000000000000000000000000000000000000 DUP2 MSTORE PUSH1 0x4 ADD PUSH2 0xFD1 SWAP1 PUSH2 0x16F6 JUMP JUMPDEST PUSH1 0x40 MLOAD DUP1 SWAP2 SUB SWAP1 REVERT JUMPDEST POP POP POP JUMP JUMPDEST PUSH0 PUSH0 PUSH8 0x2C68AF0BB140000 DUP5 GT ISZERO PUSH2 0xFFF JUMPI PUSH8 0x2C68AF0BB140000 PUSH2 0x1001 JUMP JUMPDEST DUP4 JUMPDEST SWAP1 POP PUSH0 PUSH8 0x2C68AF0BB140000 DUP6 GT PUSH2 0x1019 JUMPI PUSH0 PUSH2 0x102E JUMP JUMPDEST PUSH8 0x2C68AF0BB140000 DUP6 PUSH2 0x102D SWAP2 SWAP1 PUSH2 0x1430 JUMP JUMPDEST JUMPDEST SWAP1 POP PUSH0 PUSH4 0x1E13380 PUSH1 0x64 PUSH2 0x1042 SWAP2 SWAP1 PUSH2 0x1714 JUMP JUMPDEST DUP6 PUSH1 0x5 DUP6 PUSH2 0x1050 SWAP2 SWAP1 PUSH2 0x1714 JUMP JUMPDEST PUSH2 0x105A SWAP2 SWAP1 PUSH2 0x1714 JUMP JUMPDEST PUSH2 0x1064 SWAP2 SWAP1 PUSH2 0x1782 JUMP JUMPDEST SWAP1 POP PUSH0 PUSH4 0x1E13380 PUSH1 0x64 PUSH2 0x1078 SWAP2 SWAP1 PUSH2 0x1714 JUMP JUMPDEST DUP7 PUSH1 0x3 DUP6 PUSH2 0x1086 SWAP2 SWAP1 PUSH2 0x1714 JUMP JUMPDEST PUSH2 0x1090 SWAP2 SWAP1 PUSH2 0x1714 JUMP JUMPDEST PUSH2 0x109A SWAP2 SWAP1 PUSH2 0x1782 JUMP JUMPDEST SWAP1 POP DUP1 DUP3 PUSH2 0x10A8 SWAP2 SWAP1 PUSH2 0x13FD JUMP JUMPDEST SWAP5 POP POP POP POP POP SWAP3 SWAP2 POP POP JUMP JUMPDEST PUSH0 DUP2 SWAP1 POP SWAP2 SWAP1 POP JUMP JUMPDEST PUSH2 0x10C6 DUP2 PUSH2 0x10B4 JUMP JUMPDEST DUP3 MSTORE POP POP JUMP JUMPDEST PUSH0 PUSH1 0x20 DUP3 ADD SWAP1 POP PUSH2 0x10DF PUSH0 DUP4 ADD DUP5 PUSH2 0x10BD JUMP JUMPDEST SWAP3 SWAP2 POP POP JUMP JUMPDEST PUSH0 DUP2 ISZERO ISZERO SWAP1 POP SWAP2 SWAP1 POP JUMP JUMPDEST PUSH2 0x10F9 DUP2 PUSH2 0x10E5 JUMP JUMPDEST DUP3 MSTORE POP POP JUMP JUMPDEST PUSH0 PUSH1 0x20 DUP3 ADD SWAP1 POP PUSH2 0x1112 PUSH0 DUP4 ADD DUP5 PUSH2 0x10F0 JUMP JUMPDEST SWAP3 SWAP2 POP POP JUMP JUMPDEST PUSH0 PUSH0 REVERT JUMPDEST PUSH0 PUSH20 0xFFFFFFFFFFFFFFFFFFFFFFFFFFFFFFFFFFFFFFFF DUP3 AND SWAP1 POP SWAP2 SWAP1 POP JUMP JUMPDEST PUSH0 PUSH2 0x1145 DUP3 PUSH2 0x111C JUMP JUMPDEST SWAP1 POP SWAP2 SWAP1 POP JUMP JUMPDEST PUSH2 0x1155 DUP2 PUSH2 0x113B JUMP JUMPDEST DUP2 EQ PUSH2 0x115F JUMPI PUSH0 PUSH0 REVERT JUMPDEST POP JUMP JUMPDEST PUSH0 DUP2 CALLDATALOAD SWAP1 POP PUSH2 0x1170 DUP2 PUSH2 0x114C JUMP JUMPDEST SWAP3 SWAP2 POP POP JUMP JUMPDEST PUSH2 0x117F DUP2 PUSH2 0x10B4 JUMP JUMPDEST DUP2 EQ PUSH2 0x1189 JUMPI PUSH0 PUSH0 REVERT JUMPDEST POP JUMP JUMPDEST PUSH0 DUP2 CALLDATALOAD SWAP1 POP PUSH2 0x119A DUP2 PUSH2 0x1176 JUMP JUMPDEST SWAP3 SWAP2 POP POP JUMP JUMPDEST PUSH0 PUSH0 PUSH1 0x40 DUP4 DUP6 SUB SLT ISZERO PUSH2 0x11B6 JUMPI PUSH2 0x11B5 PUSH2 0x1118 JUMP JUMPDEST JUMPDEST PUSH0 PUSH2 0x11C3 DUP6 DUP3 DUP7 ADD PUSH2 0x1162 JUMP JUMPDEST SWAP3 POP POP PUSH1 0x20 PUSH2 0x11D4 DUP6 DUP3 DUP7 ADD PUSH2 0x118C JUMP JUMPDEST SWAP2 POP POP SWAP3 POP SWAP3 SWAP1 POP JUMP JUMPDEST PUSH0 PUSH1 0x20 DUP3 DUP5 SUB SLT ISZERO PUSH2 0x11F3 JUMPI PUSH2 0x11F2 PUSH2 0x1118 JUMP JUMPDEST JUMPDEST PUSH0 PUSH2 0x1200 DUP5 DUP3 DUP6 ADD PUSH2 0x1162 JUMP JUMPDEST SWAP2 POP POP SWAP3 SWAP2 POP POP JUMP JUMPDEST PUSH0 PUSH8 0xFFFFFFFFFFFFFFFF DUP3 AND SWAP1 POP SWAP2 SWAP1 POP JUMP JUMPDEST PUSH2 0x1225 DUP2 PUSH2 0x1209 JUMP JUMPDEST DUP3 MSTORE POP POP JUMP JUMPDEST PUSH0 PUSH1 0x60 DUP3 ADD SWAP1 POP PUSH2 0x123E PUSH0 DUP4 ADD DUP7 PUSH2 0x10BD JUMP JUMPDEST PUSH2 0x124B PUSH1 0x20 DUP4 ADD DUP6 PUSH2 0x10BD JUMP JUMPDEST PUSH2 0x1258 PUSH1 0x40 DUP4 ADD DUP5 PUSH2 0x121C JUMP JUMPDEST SWAP5 SWAP4 POP POP POP POP JUMP JUMPDEST PUSH2 0x1269 DUP2 PUSH2 0x113B JUMP JUMPDEST DUP3 MSTORE POP POP JUMP JUMPDEST PUSH0 PUSH1 0x20 DUP3 ADD SWAP1 POP PUSH2 0x1282 PUSH0 DUP4 ADD DUP5 PUSH2 0x1260 JUMP JUMPDEST SWAP3 SWAP2 POP POP JUMP JUMPDEST PUSH0 DUP3 DUP3 MSTORE PUSH1 0x20 DUP3 ADD SWAP1 POP SWAP3 SWAP2 POP POP JUMP JUMPDEST PUSH32 0x4F4E4C595F5641554C5400000000000000000000000000000000000000000000 PUSH0 DUP3 ADD MSTORE POP JUMP JUMPDEST PUSH0 PUSH2 0x12CC PUSH1 0xA DUP4 PUSH2 0x1288 JUMP JUMPDEST SWAP2 POP PUSH2 0x12D7 DUP3 PUSH2 0x1298 JUMP JUMPDEST PUSH1 0x20 DUP3 ADD SWAP1 POP SWAP2 SWAP1 POP JUMP JUMPDEST PUSH0 PUSH1 0x20 DUP3 ADD SWAP1 POP DUP2 DUP2 SUB PUSH0 DUP4 ADD MSTORE PUSH2 0x12F9 DUP2 PUSH2 0x12C0 JUMP JUMPDEST SWAP1 POP SWAP2 SWAP1 POP JUMP JUMPDEST PUSH32 0x5245454E5452414E435900000000000000000000000000000000000000000000 PUSH0 DUP3 ADD MSTORE POP JUMP JUMPDEST PUSH0 PUSH2 0x1334 PUSH1 0xA DUP4 PUSH2 0x1288 JUMP JUMPDEST SWAP2 POP PUSH2 0x133F DUP3 PUSH2 0x1300 JUMP JUMPDEST PUSH1 0x20 DUP3 ADD SWAP1 POP SWAP2 SWAP1 POP JUMP JUMPDEST PUSH0 PUSH1 0x20 DUP3 ADD SWAP1 POP DUP2 DUP2 SUB PUSH0 DUP4 ADD MSTORE PUSH2 0x1361 DUP2 PUSH2 0x1328 JUMP JUMPDEST SWAP1 POP SWAP2 SWAP1 POP JUMP JUMPDEST PUSH32 0x494E56414C49445F414D4F554E54000000000000000000000000000000000000 PUSH0 DUP3 ADD MSTORE POP JUMP JUMPDEST PUSH0 PUSH2 0x139C PUSH1 0xE DUP4 PUSH2 0x1288 JUMP JUMPDEST SWAP2 POP PUSH2 0x13A7 DUP3 PUSH2 0x1368 JUMP JUMPDEST PUSH1 0x20 DUP3 ADD SWAP1 POP SWAP2 SWAP1 POP JUMP JUMPDEST PUSH0 PUSH1 0x20 DUP3 ADD SWAP1 POP DUP2 DUP2 SUB PUSH0 DUP4 ADD MSTORE PUSH2 0x13C9 DUP2 PUSH2 0x1390 JUMP JUMPDEST SWAP1 POP SWAP2 SWAP1 POP JUMP JUMPDEST PUSH32 0x4E487B7100000000000000000000000000000000000000000000000000000000 PUSH0 MSTORE PUSH1 0x11 PUSH1 0x4 MSTORE PUSH1 0x24 PUSH0 REVERT JUMPDEST PUSH0 PUSH2 0x1407 DUP3 PUSH2 0x10B4 JUMP JUMPDEST SWAP2 POP PUSH2 0x1412 DUP4 PUSH2 0x10B4 JUMP JUMPDEST SWAP3 POP DUP3 DUP3 ADD SWAP1 POP DUP1 DUP3 GT ISZERO PUSH2 0x142A JUMPI PUSH2 0x1429 PUSH2 0x13D0 JUMP JUMPDEST JUMPDEST SWAP3 SWAP2 POP POP JUMP JUMPDEST PUSH0 PUSH2 0x143A DUP3 PUSH2 0x10B4 JUMP JUMPDEST SWAP2 POP PUSH2 0x1445 DUP4 PUSH2 0x10B4 JUMP JUMPDEST SWAP3 POP DUP3 DUP3 SUB SWAP1 POP DUP2 DUP2 GT ISZERO PUSH2 0x145D JUMPI PUSH2 0x145C PUSH2 0x13D0 JUMP JUMPDEST JUMPDEST SWAP3 SWAP2 POP POP JUMP JUMPDEST PUSH32 0x4E4F5F5245574152445300000000000000000000000000000000000000000000 PUSH0 DUP3 ADD MSTORE POP JUMP JUMPDEST PUSH0 PUSH2 0x1497 PUSH1 0xA DUP4 PUSH2 0x1288 JUMP JUMPDEST SWAP2 POP PUSH2 0x14A2 DUP3 PUSH2 0x1463 JUMP JUMPDEST PUSH1 0x20 DUP3 ADD SWAP1 POP SWAP2 SWAP1 POP JUMP JUMPDEST PUSH0 PUSH1 0x20 DUP3 ADD SWAP1 POP DUP2 DUP2 SUB PUSH0 DUP4 ADD MSTORE PUSH2 0x14C4 DUP2 PUSH2 0x148B JUMP JUMPDEST SWAP1 POP SWAP2 SWAP1 POP JUMP JUMPDEST PUSH32 0x494E53554646494349454E545F504F4F4C000000000000000000000000000000 PUSH0 DUP3 ADD MSTORE POP JUMP JUMPDEST PUSH0 PUSH2 0x14FF PUSH1 0x11 DUP4 PUSH2 0x1288 JUMP JUMPDEST SWAP2 POP PUSH2 0x150A DUP3 PUSH2 0x14CB JUMP JUMPDEST PUSH1 0x20 DUP3 ADD SWAP1 POP SWAP2 SWAP1 POP JUMP JUMPDEST PUSH0 PUSH1 0x20 DUP3 ADD SWAP1 POP DUP2 DUP2 SUB PUSH0 DUP4 ADD MSTORE PUSH2 0x152C DUP2 PUSH2 0x14F3 JUMP JUMPDEST SWAP1 POP SWAP2 SWAP1 POP JUMP JUMPDEST PUSH32 0x5A45524F5F414D4F554E54000000000000000000000000000000000000000000 PUSH0 DUP3 ADD MSTORE POP JUMP JUMPDEST PUSH0 PUSH2 0x1567 PUSH1 0xB DUP4 PUSH2 0x1288 JUMP JUMPDEST SWAP2 POP PUSH2 0x1572 DUP3 PUSH2 0x1533 JUMP JUMPDEST PUSH1 0x20 DUP3 ADD SWAP1 POP SWAP2 SWAP1 POP JUMP JUMPDEST PUSH0 PUSH1 0x20 DUP3 ADD SWAP1 POP DUP2 DUP2 SUB PUSH0 DUP4 ADD MSTORE PUSH2 0x1594 DUP2 PUSH2 0x155B JUMP JUMPDEST SWAP1 POP SWAP2 SWAP1 POP JUMP JUMPDEST PUSH32 0x494E53554646494349454E545F5052494E434950414C00000000000000000000 PUSH0 DUP3 ADD MSTORE POP JUMP JUMPDEST PUSH0 PUSH2 0x15CF PUSH1 0x16 DUP4 PUSH2 0x1288 JUMP JUMPDEST SWAP2 POP PUSH2 0x15DA DUP3 PUSH2 0x159B JUMP JUMPDEST PUSH1 0x20 DUP3 ADD SWAP1 POP SWAP2 SWAP1 POP JUMP JUMPDEST PUSH0 PUSH1 0x20 DUP3 ADD SWAP1 POP DUP2 DUP2 SUB PUSH0 DUP4 ADD MSTORE PUSH2 0x15FC DUP2 PUSH2 0x15C3 JUMP JUMPDEST SWAP1 POP SWAP2 SWAP1 POP JUMP JUMPDEST PUSH32 0x4E4F5F56414C5545000000000000000000000000000000000000000000000000 PUSH0 DUP3 ADD MSTORE POP JUMP JUMPDEST PUSH0 PUSH2 0x1637 PUSH1 0x8 DUP4 PUSH2 0x1288 JUMP JUMPDEST SWAP2 POP PUSH2 0x1642 DUP3 PUSH2 0x1603 JUMP JUMPDEST PUSH1 0x20 DUP3 ADD SWAP1 POP SWAP2 SWAP1 POP JUMP JUMPDEST PUSH0 PUSH1 0x20 DUP3 ADD SWAP1 POP DUP2 DUP2 SUB PUSH0 DUP4 ADD MSTORE PUSH2 0x1664 DUP2 PUSH2 0x162B JUMP JUMPDEST SWAP1 POP SWAP2 SWAP1 POP JUMP JUMPDEST PUSH0 DUP2 SWAP1 POP SWAP3 SWAP2 POP POP JUMP JUMPDEST POP JUMP JUMPDEST PUSH0 PUSH2 0x1683 PUSH0 DUP4 PUSH2 0x166B JUMP JUMPDEST SWAP2 POP PUSH2 0x168E DUP3 PUSH2 0x1675 JUMP JUMPDEST PUSH0 DUP3 ADD SWAP1 POP SWAP2 SWAP1 POP JUMP JUMPDEST PUSH0 PUSH2 0x16A2 DUP3 PUSH2 0x1678 JUMP JUMPDEST SWAP2 POP DUP2 SWAP1 POP SWAP2 SWAP1 POP JUMP JUMPDEST PUSH32 0x4554485F5452414E534645525F4641494C000000000000000000000000000000 PUSH0 DUP3 ADD MSTORE POP JUMP JUMPDEST PUSH0 PUSH2 0x16E0 PUSH1 0x11 DUP4 PUSH2 0x1288 JUMP JUMPDEST SWAP2 POP PUSH2 0x16EB DUP3 PUSH2 0x16AC JUMP JUMPDEST PUSH1 0x20 DUP3 ADD SWAP1 POP SWAP2 SWAP1 POP JUMP JUMPDEST PUSH0 PUSH1 0x20 DUP3 ADD SWAP1 POP DUP2 DUP2 SUB PUSH0 DUP4 ADD MSTORE PUSH2 0x170D DUP2 PUSH2 0x16D4 JUMP JUMPDEST SWAP1 POP SWAP2 SWAP1 POP JUMP JUMPDEST PUSH0 PUSH2 0x171E DUP3 PUSH2 0x10B4 JUMP JUMPDEST SWAP2 POP PUSH2 0x1729 DUP4 PUSH2 0x10B4 JUMP JUMPDEST SWAP3 POP DUP3 DUP3 MUL PUSH2 0x1737 DUP2 PUSH2 0x10B4 JUMP JUMPDEST SWAP2 POP DUP3 DUP3 DIV DUP5 EQ DUP4 ISZERO OR PUSH2 0x174E JUMPI PUSH2 0x174D PUSH2 0x13D0 JUMP JUMPDEST JUMPDEST POP SWAP3 SWAP2 POP POP JUMP JUMPDEST PUSH32 0x4E487B7100000000000000000000000000000000000000000000000000000000 PUSH0 MSTORE PUSH1 0x12 PUSH1 0x4 MSTORE PUSH1 0x24 PUSH0 REVERT JUMPDEST PUSH0 PUSH2 0x178C DUP3 PUSH2 0x10B4 JUMP JUMPDEST SWAP2 POP PUSH2 0x1797 DUP4 PUSH2 0x10B4 JUMP JUMPDEST SWAP3 POP DUP3 PUSH2 0x17A7 JUMPI PUSH2 0x17A6 PUSH2 0x1755 JUMP JUMPDEST JUMPDEST DUP3 DUP3 DIV SWAP1 POP SWAP3 SWAP2 POP POP JUMP INVALID LOG2 PUSH5 0x6970667358 0x22 SLT KECCAK256 SUB PUSH21 0x9043AEC80119F97FAAECF36CE23BEA66A89CD23549 SIGNEXTEND SWAP1 EXTCALL 0xC0 PUSH19 0xD38CD49D64736F6C634300081E003300000000 "
		},
		"gasEstimates": {
			"creation": {
				"codeDepositCost": "1224000",
				"executionCost": "infinite",
				"totalCost": "infinite"
			},
			"external": {
				"APR_DEN()": "349",
				"APR_TIER1_NUM()": "392",
				"APR_TIER2_NUM()": "392",
				"TIER_BORDER()": "414",
				"YEAR()": "370",
				"accounts(address)": "infinite",
				"availableRewardsPool()": "infinite",
				"claimReward(address)": "infinite",
				"deposit(address,uint256)": "infinite",
				"fundRewards()": "1820",
				"getAPY()": "354",
				"getLockTime()": "376",
				"getUserStake(address)": "2945",
				"isFlexible()": "384",
				"pendingReward(address)": "infinite",
				"totalStaked()": "2448",
				"vault()": "2595",
				"withdraw(address,uint256)": "infinite"
			},
			"internal": {
				"_accrue(struct TieredETHStaking.Account storage pointer)": "infinite",
				"_calcRewards(uint256,uint256)": "infinite",
				"_safeTransferETH(address payable,uint256)": "infinite"
			}
		},
		"methodIdentifiers": {
			"APR_DEN()": "1a8ed624",
			"APR_TIER1_NUM()": "a609fee3",
			"APR_TIER2_NUM()": "c268f158",
			"TIER_BORDER()": "b3651149",
			"YEAR()": "83914540",
			"accounts(address)": "5e5c06e2",
			"availableRewardsPool()": "bd535fe2",
			"claimReward(address)": "d279c191",
			"deposit(address,uint256)": "47e7ef24",
			"fundRewards()": "ff18bf0b",
			"getAPY()": "d2cbf7ad",
			"getLockTime()": "c0a4d64d",
			"getUserStake(address)": "bbadc93a",
			"isFlexible()": "290b29e3",
			"pendingReward(address)": "f40f0f52",
			"totalStaked()": "817b1cd2",
			"vault()": "fbfa77cf",
			"withdraw(address,uint256)": "f3fef3a3"
		}
	},
	"abi": [
		{
			"inputs": [
				{
					"internalType": "address",
					"name": "_vault",
					"type": "address"
				}
			],
			"stateMutability": "nonpayable",
			"type": "constructor"
		},
		{
			"anonymous": false,
			"inputs": [
				{
					"indexed": true,
					"internalType": "address",
					"name": "user",
					"type": "address"
				},
				{
					"indexed": false,
					"internalType": "uint256",
					"name": "reward",
					"type": "uint256"
				}
			],
			"name": "Claim",
			"type": "event"
		},
		{
			"anonymous": false,
			"inputs": [
				{
					"indexed": true,
					"internalType": "address",
					"name": "user",
					"type": "address"
				},
				{
					"indexed": false,
					"internalType": "uint256",
					"name": "amount",
					"type": "uint256"
				}
			],
			"name": "Deposit",
			"type": "event"
		},
		{
			"anonymous": false,
			"inputs": [
				{
					"indexed": true,
					"internalType": "address",
					"name": "from",
					"type": "address"
				},
				{
					"indexed": false,
					"internalType": "uint256",
					"name": "amount",
					"type": "uint256"
				}
			],
			"name": "FundRewards",
			"type": "event"
		},
		{
			"anonymous": false,
			"inputs": [
				{
					"indexed": true,
					"internalType": "address",
					"name": "user",
					"type": "address"
				},
				{
					"indexed": false,
					"internalType": "uint256",
					"name": "amount",
					"type": "uint256"
				}
			],
			"name": "Withdraw",
			"type": "event"
		},
		{
			"inputs": [],
			"name": "APR_DEN",
			"outputs": [
				{
					"internalType": "uint256",
					"name": "",
					"type": "uint256"
				}
			],
			"stateMutability": "view",
			"type": "function"
		},
		{
			"inputs": [],
			"name": "APR_TIER1_NUM",
			"outputs": [
				{
					"internalType": "uint256",
					"name": "",
					"type": "uint256"
				}
			],
			"stateMutability": "view",
			"type": "function"
		},
		{
			"inputs": [],
			"name": "APR_TIER2_NUM",
			"outputs": [
				{
					"internalType": "uint256",
					"name": "",
					"type": "uint256"
				}
			],
			"stateMutability": "view",
			"type": "function"
		},
		{
			"inputs": [],
			"name": "TIER_BORDER",
			"outputs": [
				{
					"internalType": "uint256",
					"name": "",
					"type": "uint256"
				}
			],
			"stateMutability": "view",
			"type": "function"
		},
		{
			"inputs": [],
			"name": "YEAR",
			"outputs": [
				{
					"internalType": "uint256",
					"name": "",
					"type": "uint256"
				}
			],
			"stateMutability": "view",
			"type": "function"
		},
		{
			"inputs": [
				{
					"internalType": "address",
					"name": "",
					"type": "address"
				}
			],
			"name": "accounts",
			"outputs": [
				{
					"internalType": "uint256",
					"name": "principal",
					"type": "uint256"
				},
				{
					"internalType": "uint256",
					"name": "accRewards",
					"type": "uint256"
				},
				{
					"internalType": "uint64",
					"name": "lastAccrued",
					"type": "uint64"
				}
			],
			"stateMutability": "view",
			"type": "function"
		},
		{
			"inputs": [],
			"name": "availableRewardsPool",
			"outputs": [
				{
					"internalType": "uint256",
					"name": "",
					"type": "uint256"
				}
			],
			"stateMutability": "view",
			"type": "function"
		},
		{
			"inputs": [
				{
					"internalType": "address",
					"name": "user",
					"type": "address"
				}
			],
			"name": "claimReward",
			"outputs": [
				{
					"internalType": "uint256",
					"name": "",
					"type": "uint256"
				}
			],
			"stateMutability": "nonpayable",
			"type": "function"
		},
		{
			"inputs": [
				{
					"internalType": "address",
					"name": "user",
					"type": "address"
				},
				{
					"internalType": "uint256",
					"name": "amount",
					"type": "uint256"
				}
			],
			"name": "deposit",
			"outputs": [],
			"stateMutability": "payable",
			"type": "function"
		},
		{
			"inputs": [],
			"name": "fundRewards",
			"outputs": [],
			"stateMutability": "payable",
			"type": "function"
		},
		{
			"inputs": [],
			"name": "getAPY",
			"outputs": [
				{
					"internalType": "uint256",
					"name": "",
					"type": "uint256"
				}
			],
			"stateMutability": "pure",
			"type": "function"
		},
		{
			"inputs": [],
			"name": "getLockTime",
			"outputs": [
				{
					"internalType": "uint256",
					"name": "",
					"type": "uint256"
				}
			],
			"stateMutability": "pure",
			"type": "function"
		},
		{
			"inputs": [
				{
					"internalType": "address",
					"name": "user",
					"type": "address"
				}
			],
			"name": "getUserStake",
			"outputs": [
				{
					"internalType": "uint256",
					"name": "",
					"type": "uint256"
				}
			],
			"stateMutability": "view",
			"type": "function"
		},
		{
			"inputs": [],
			"name": "isFlexible",
			"outputs": [
				{
					"internalType": "bool",
					"name": "",
					"type": "bool"
				}
			],
			"stateMutability": "pure",
			"type": "function"
		},
		{
			"inputs": [
				{
					"internalType": "address",
					"name": "user",
					"type": "address"
				}
			],
			"name": "pendingReward",
			"outputs": [
				{
					"internalType": "uint256",
					"name": "",
					"type": "uint256"
				}
			],
			"stateMutability": "view",
			"type": "function"
		},
		{
			"inputs": [],
			"name": "totalStaked",
			"outputs": [
				{
					"internalType": "uint256",
					"name": "",
					"type": "uint256"
				}
			],
			"stateMutability": "view",
			"type": "function"
		},
		{
			"inputs": [],
			"name": "vault",
			"outputs": [
				{
					"internalType": "address",
					"name": "",
					"type": "address"
				}
			],
			"stateMutability": "view",
			"type": "function"
		},
		{
			"inputs": [
				{
					"internalType": "address",
					"name": "user",
					"type": "address"
				},
				{
					"internalType": "uint256",
					"name": "amount",
					"type": "uint256"
				}
			],
			"name": "withdraw",
			"outputs": [],
			"stateMutability": "nonpayable",
			"type": "function"
		},
		{
			"stateMutability": "payable",
			"type": "receive"
		}
	]
}