{"abi":[{"type":"constructor","inputs":[{"name":"_identityRegistry","type":"address","internalType":"address"}],"stateMutability":"nonpayable"},{"type":"function","name":"_clientExists","inputs":[{"name":"","type":"uint256","internalType":"uint256"},{"name":"","type":"address","internalType":"address"}],"outputs":[{"name":"","type":"bool","internalType":"bool"}],"stateMutability":"view"},{"type":"function","name":"_clients","inputs":[{"name":"","type":"uint256","internalType":"uint256"},{"name":"","type":"uint256","internalType":"uint256"}],"outputs":[{"name":"","type":"address","internalType":"address"}],"stateMutability":"view"},{"type":"function","name":"_feedback","inputs":[{"name":"","type":"uint256","internalType":"uint256"},{"name":"","type":"address","internalType":"address"},{"name":"","type":"uint64","internalType":"uint64"}],"outputs":[{"name":"score","type":"uint8","internalType":"uint8"},{"name":"tag1","type":"bytes32","internalType":"bytes32"},{"name":"tag2","type":"bytes32","internalType":"bytes32"},{"name":"isRevoked","type":"bool","internalType":"bool"}],"stateMutability":"view"},{"type":"function","name":"_lastIndex","inputs":[{"name":"","type":"uint256","internalType":"uint256"},{"name":"","type":"address","internalType":"address"}],"outputs":[{"name":"","type":"uint64","internalType":"uint64"}],"stateMutability":"view"},{"type":"function","name":"_responderExists","inputs":[{"name":"","type":"uint256","internalType":"uint256"},{"name":"","type":"address","internalType":"address"},{"name":"","type":"uint64","internalType":"uint64"},{"name":"","type":"address","internalType":"address"}],"outputs":[{"name":"","type":"bool","internalType":"bool"}],"stateMutability":"view"},{"type":"function","name":"_responders","inputs":[{"name":"","type":"uint256","internalType":"uint256"},{"name":"","type":"address","internalType":"address"},{"name":"","type":"uint64","internalType":"uint64"},{"name":"","type":"uint256","internalType":"uint256"}],"outputs":[{"name":"","type":"address","internalType":"address"}],"stateMutability":"view"},{"type":"function","name":"_responseCount","inputs":[{"name":"","type":"uint256","internalType":"uint256"},{"name":"","type":"address","internalType":"address"},{"name":"","type":"uint64","internalType":"uint64"},{"name":"","type":"address","internalType":"address"}],"outputs":[{"name":"","type":"uint64","internalType":"uint64"}],"stateMutability":"view"},{"type":"function","name":"appendResponse","inputs":[{"name":"agentId","type":"uint256","internalType":"uint256"},{"name":"clientAddress","type":"address","internalType":"address"},{"name":"feedbackIndex","type":"uint64","internalType":"uint64"},{"name":"responseUri","type":"string","internalType":"string"},{"name":"responseHash","type":"bytes32","internalType":"bytes32"}],"outputs":[],"stateMutability":"nonpayable"},{"type":"function","name":"getClients","inputs":[{"name":"agentId","type":"uint256","internalType":"uint256"}],"outputs":[{"name":"","type":"address[]","internalType":"address[]"}],"stateMutability":"view"},{"type":"function","name":"getIdentityRegistry","inputs":[],"outputs":[{"name":"","type":"address","internalType":"address"}],"stateMutability":"view"},{"type":"function","name":"getLastIndex","inputs":[{"name":"agentId","type":"uint256","internalType":"uint256"},{"name":"clientAddress","type":"address","internalType":"address"}],"outputs":[{"name":"","type":"uint64","internalType":"uint64"}],"stateMutability":"view"},{"type":"function","name":"getResponseCount","inputs":[{"name":"agentId","type":"uint256","internalType":"uint256"},{"name":"clientAddress","type":"address","internalType":"address"},{"name":"feedbackIndex","type":"uint64","internalType":"uint64"},{"name":"responders","type":"address[]","internalType":"address[]"}],"outputs":[{"name":"count","type":"uint64","internalType":"uint64"}],"stateMutability":"view"},{"type":"function","name":"getSummary","inputs":[{"name":"agentId","type":"uint256","internalType":"uint256"},{"name":"clientAddresses","type":"address[]","internalType":"address[]"},{"name":"tag1","type":"bytes32","internalType":"bytes32"},{"name":"tag2","type":"bytes32","internalType":"bytes32"}],"outputs":[{"name":"count","type":"uint64","internalType":"uint64"},{"name":"averageScore","type":"uint8","internalType":"uint8"}],"stateMutability":"view"},{"type":"function","name":"giveFeedback","inputs":[{"name":"agentId","type":"uint256","internalType":"uint256"},{"name":"score","type":"uint8","internalType":"uint8"},{"name":"tag1","type":"bytes32","internalType":"bytes32"},{"name":"tag2","type":"bytes32","internalType":"bytes32"},{"name":"feedbackUri","type":"string","internalType":"string"},{"name":"feedbackHash","type":"bytes32","internalType":"bytes32"},{"name":"feedbackAuth","type":"bytes","internalType":"bytes"}],"outputs":[],"stateMutability":"nonpayable"},{"type":"function","name":"identityRegistry","inputs":[],"outputs":[{"name":"","type":"address","internalType":"address"}],"stateMutability":"view"},{"type":"function","name":"readAllFeedback","inputs":[{"name":"agentId","type":"uint256","internalType":"uint256"},{"name":"clientAddresses","type":"address[]","internalType":"address[]"},{"name":"tag1","type":"bytes32","internalType":"bytes32"},{"name":"tag2","type":"bytes32","internalType":"bytes32"},{"name":"includeRevoked","type":"bool","internalType":"bool"}],"outputs":[{"name":"clients","type":"address[]","internalType":"address[]"},{"name":"scores","type":"uint8[]","internalType":"uint8[]"},{"name":"tag1s","type":"bytes32[]","internalType":"bytes32[]"},{"name":"tag2s","type":"bytes32[]","internalType":"bytes32[]"},{"name":"revokedStatuses","type":"bool[]","internalType":"bool[]"}],"stateMutability":"view"},{"type":"function","name":"readFeedback","inputs":[{"name":"agentId","type":"uint256","internalType":"uint256"},{"name":"clientAddress","type":"address","internalType":"address"},{"name":"index","type":"uint64","internalType":"uint64"}],"outputs":[{"name":"score","type":"uint8","internalType":"uint8"},{"name":"tag1","type":"bytes32","internalType":"bytes32"},{"name":"tag2","type":"bytes32","internalType":"bytes32"},{"name":"isRevoked","type":"bool","internalType":"bool"}],"stateMutability":"view"},{"type":"function","name":"revokeFeedback","inputs":[{"name":"agentId","type":"uint256","internalType":"uint256"},{"name":"feedbackIndex","type":"uint64","internalType":"uint64"}],"outputs":[],"stateMutability":"nonpayable"},{"type":"event","name":"FeedbackRevoked","inputs":[{"name":"agentId","type":"uint256","indexed":true,"internalType":"uint256"},{"name":"clientAddress","type":"address","indexed":true,"internalType":"address"},{"name":"feedbackIndex","type":"uint64","indexed":true,"internalType":"uint64"}],"anonymous":false},{"type":"event","name":"NewFeedback","inputs":[{"name":"agentId","type":"uint256","indexed":true,"internalType":"uint256"},{"name":"clientAddress","type":"address","indexed":true,"internalType":"address"},{"name":"score","type":"uint8","indexed":false,"internalType":"uint8"},{"name":"tag1","type":"bytes32","indexed":true,"internalType":"bytes32"},{"name":"tag2","type":"bytes32","indexed":false,"internalType":"bytes32"},{"name":"feedbackUri","type":"string","indexed":false,"internalType":"string"},{"name":"feedbackHash","type":"bytes32","indexed":false,"internalType":"bytes32"}],"anonymous":false},{"type":"event","name":"ResponseAppended","inputs":[{"name":"agentId","type":"uint256","indexed":true,"internalType":"uint256"},{"name":"clientAddress","type":"address","indexed":true,"internalType":"address"},{"name":"feedbackIndex","type":"uint64","indexed":false,"internalType":"uint64"},{"name":"responder","type":"address","indexed":true,"internalType":"address"},{"name":"responseUri","type":"string","indexed":false,"internalType":"string"},{"name":"responseHash","type":"bytes32","indexed":false,"internalType":"bytes32"}],"anonymous":false},{"type":"error","name":"ECDSAInvalidSignature","inputs":[]},{"type":"error","name":"ECDSAInvalidSignatureLength","inputs":[{"name":"length","type":"uint256","internalType":"uint256"}]},{"type":"error","name":"ECDSAInvalidSignatureS","inputs":[{"name":"s","type":"bytes32","internalType":"bytes32"}]}],"bytecode":{"object":"0x60a0346100b257601f61262438819003918201601f19168301916001600160401b038311848410176100b6578084926020946040528339810103126100b257516001600160a01b0381168082036100b2571561007e5760805260405161255990816100cb823960805181818161120401528181611d9701526121e50152f35b60405162461bcd60e51b815260206004820152600c60248201526b626164206964656e7469747960a01b6044820152606490fd5b5f80fd5b634e487b7160e01b5f52604160045260245ffdfe60806040526004361015610011575f80fd5b5f5f3560e01c8063036666b414611d26578063134e18f4146103de578063155e5bbd1461116f578063232b0810146110ab57806331259cff14610e6157806342dd519c14610de05780634ab3ca9914610cc25780635fe4b98614610c3957806361f33b7814610bb55780636e04cacd1461099e57806380b8759414610493578063a19ec2dd1461042d578063ab3f4c4c146103e3578063bc4d861b146103de578063c2349ab2146101aa578063d0bca5001461018e578063d87b21fc146101305763f2d81759146100e0575f80fd5b3461012d57604036600319011261012d5760406100fb611df3565b9160043581526001602052209060018060a01b03165f5260205260206001600160401b0360405f205416604051908152f35b80fd5b503461012d5760409061014236611f0c565b92845260026020908152949093206001600160a01b039182165f90815290855260408082206001600160401b039586168352865280822092909316815290845281902054905191168152f35b503461012d57604036600319011261012d5760406100fb611df3565b503461012d5760a036600319011261012d576004356101c7611df3565b906101d0611e1d565b90606435916001600160401b0383116103da576101f96001600160401b03933690600401611dc6565b939091169261020984151561206a565b82865260016020526040862060018060a01b0386165f5260205261023c6001600160401b0360405f2054168511156120aa565b80156103a9578286526004602090815260408088206001600160a01b0388165f90815290835281812087825283528181203382529092529020547fb1c6be0b5b8aef6539e2fac0fd131a2faa7b49edf8e505b5eb0ad487d56051d49261031792909160ff1615610334575b848852600260209081526040808a206001600160a01b038a165f9081529083528181208982528352818120338252909252902080546001600160401b03906102f090821661216b565b166001600160401b031982541617905560405195865260606020870152606086019161204a565b608435604085015233946001600160a01b0316939081900390a480f35b84885260036020526040882060018060a01b0388165f5260205260405f20865f5260205261036660405f203390612004565b848852600460209081526040808a206001600160a01b038a165f90815290835281812089825283528181203382529092529020805460ff191660011790556102a7565b60405162461bcd60e51b8152602060048201526009602482015268456d7074792055524960b81b6044820152606490fd5b8480fd5b611d82565b503461012d57604036600319011261012d5760406103ff611df3565b9160043581526006602052209060018060a01b03165f52602052602060ff60405f2054166040519015158152f35b503461012d5760409061043f36611f0c565b949192849194526004602052209060018060a01b03165f526020526001600160401b0360405f2091165f5260205260405f209060018060a01b03165f52602052602060ff60405f2054166040519015158152f35b503461012d5760a036600319011261012d576024356001600160401b03811161099a576104c4903690600401611e6d565b60843592918315158403610996578115610930576104e3913691612103565b915b8190825b845181101561062a5760043584526001602052604084206001600160a01b036105128388612157565b511660018060a01b03165f526020526001600160401b0360405f20541660015b816001600160401b038216111561054d5750506001016104e9565b936004969296959195358252816020526040822060018060a01b036105728986612157565b511660018060a01b03165f5260205260405f206001600160401b0386165f5260205260405f208415851561061c575b61060157604435151560443561060c575b610601576064351515906064356105f0575b506105e6576105d56105db91612188565b9461216b565b959195949094610532565b936105db9061216b565b60020154606435141590505f6105c4565b50936105db9061216b565b50604435600182015414156105b2565b5060ff6003820154166105a1565b50610634826120ec565b916106426040519384611f5a565b808352601f19610651826120ec565b01366020850137610661816120ec565b61066e6040519182611f5a565b81815261067a826120ec565b601f190136602083013761068d82612196565b9361069783612196565b966106ba6106a4856120ec565b946106b26040519687611f5a565b8086526120ec565b601f19013660208601378694875b82518110156108735760043589526001602052604089206001600160a01b036106f18386612157565b511660018060a01b03165f526020526001600160401b0360405f20541660015b816001600160401b038216111561072c5750506001016106c8565b9760049b929b9a919a35825281602052604082208c61075260018060a01b039188612157565b511660018060a01b03165f5260205260405f206001600160401b038a165f5260205260405f2084158515610865575b61084a576044351515604435610855575b61084a578a8d606435151560643561083a575b61082d57600361081c9385938b6107d5610822988d6107cd60ff9860018060a01b0392612157565b511692612157565b52815484166107e4868f612157565b526107f485600184015492612157565b526002810154610804858a612157565b52015416610812828c612157565b9015159052612188565b9861216b565b9a919a999099610711565b505050976108229061216b565b50606435600284015414156107a5565b50976108229061216b565b5060443560018201541415610792565b5060ff600382015416610781565b61089084878b8d898d60405196879660a0885260a0880190611e9d565b868103602088015260208084519283815201930190855b81811061091457505050816108c791876108d59594036040890152611ed9565b908582036060870152611ed9565b8381036080850152602080845192838152019301915b8181106108f9575050500390f35b825115158452859450602093840193909201916001016108eb565b825160ff168552899850602094850194909201916001016108a7565b505060043581526005602052604081206040518082602082945493848152019085526020852092855b81811061097457505061096e92500382611f5a565b916104e5565b84546001600160a01b0316835260019485019486945060209093019201610959565b8280fd5b5080fd5b503461012d57608036600319011261012d576004356109bb611df3565b6109c3611e1d565b906064356001600160401b0381116103da576109e3903690600401611e6d565b85939092906001600160a01b038216610b11575050838552600560205260408520936040518086602082985493848152019089526020892092895b818110610aef575050610a3392500386611f5a565b855b8551811015610ad3578187526001602052604087206001600160a01b03610a5c8389612157565b511660018060a01b03165f526020526001600160401b0360405f2054166001905b806001600160401b0383161115610a98575050600101610a35565b9095610ac7610acd91610ac188888b8d610ab98a60018060a01b0392612157565b51168a612250565b90611fe4565b9661216b565b90610a7d565b505050509050602091505b6001600160401b0360405191168152f35b84546001600160a01b031683526001948501948a945060209093019201610a1e565b6001600160401b038197929394959716155f14610ba057508085604092979697959493955260016020522060018060a01b0384165f526020526001600160401b0360405f205416926001955b846001600160401b0388161115610b7c57505050505060209150610ade565b9091929394610ac7610b9591610ac187878b8888612250565b959493929190610b5d565b91905060209550610bb094612250565b610ade565b503461012d57604090610bc736611e33565b9183526020838152939092206001600160a01b039092165f90815291835260408083206001600160401b03909216835290835290819020805460018201546002830154600390930154845160ff93841681529586019190915292840191909152161515606082015280608081015b0390f35b503461012d57608036600319011261012d57610c53611df3565b90610c5c611e1d565b6064359260043583526003602052604083209060018060a01b03165f526020526001600160401b0360405f2091165f5260205260405f2090815483101561012d576020610ca98484611d59565b905460405160039290921b1c6001600160a01b03168152f35b503461012d57604036600319011261012d57600435602435906001600160401b038216809203610ddc57610cf782151561206a565b808352600160209081526040808520335f9081529252902054610d25906001600160401b03168311156120aa565b80835260208381526040808520335f90815290835281812085825290925290206003015460ff16610da55780835260208381526040808520335f81815291845282822086835290935220600301805460ff19166001179055907f25156fd3288212246d8b008d5921fde376c71ed14ac2e072a506eb06fde6d09d8480a480f35b60405162461bcd60e51b815260206004820152600f60248201526e105b1c9958591e481c995d9bdad959608a1b6044820152606490fd5b5f80fd5b503461012d57602036600319011261012d576004358152600560205260408120604051918260208354918281520192825260208220915b818110610e4257610c3585610e2e81870382611f5a565b604051918291602083526020830190611e9d565b82546001600160a01b0316845260209093019260019283019201610e17565b503461012d57608036600319011261012d576004356024356001600160401b03811161099657610e95903690600401611e6d565b60643592916044359190811561104657610eb0913691612103565b92935b809181958290821515811515925b8851811015610ff6578786526001602052604086206001600160a01b03610ee8838c612157565b511660018060a01b03165f526020526001600160401b0360405f2054166001905b806001600160401b0383161115610f24575050600101610ec1565b98909a9781889b939b52876020526040882060018060a01b03610f478d86612157565b511660018060a01b03165f5260205260405f206001600160401b038d165f5260205260405f2060ff600382015416610fce578480610fe8575b610fce578680610fda575b610fce5760ff9054168101809111610fba57610faa610fb0919961216b565b9b61216b565b9098999199610f09565b634e487b7160e01b88526011600452602488fd5b50979a610fb09061216b565b508560028201541415610f8b565b508760018201541415610f80565b866001600160401b038b168781158061103957611025575060ff808260409404165b8351928352166020820152f35b634e487b7160e01b81526012600452602490fd5b506040925060ff90611018565b50508184526005602052604084206040518082602082945493848152019088526020882092885b81811061108957505061108292500382611f5a565b9293610eb3565b84546001600160a01b031683526001948501948694506020909301920161106d565b503461012d576001600160401b0360406110c436611e33565b9390931693906110d585151561206a565b808252600160205282822060018060a01b0385165f526020526111066001600160401b03845f2054168611156120aa565b815280602052209060018060a01b03165f5260205260405f20905f5260205260405f2060ff815416610c3560018301549260ff60036002830154920154169060405194859485926060929594919560ff6080860197168552602085015260408401521515910152565b34610ddc5760e0366003190112610ddc5760043560243560ff8116809103610ddc57604435916064356084356001600160401b038111610ddc576111b7903690600401611dc6565b9060c4356001600160401b038111610ddc576111d7903690600401611dc6565b9060648711611cf5576111e9866121c8565b15611cb9576040516331a9108f60e11b8152600481018790527f00000000000000000000000000000000000000000000000000000000000000006001600160a01b03169190602081602481865afa9081156117e0575f91611c9a575b50336001600160a01b03821614159081611c36575b5080611bd9575b15611b94576040516331a9108f60e11b815260048101889052602081602481865afa9081156117e0575f91611b75575b506001600160a01b031615611b3b576101218310611b00576040519260e084018481106001600160401b03821117611717576040525f8452602084015f815260408501905f825260608601935f855260808701915f835260a08801935f855260c08901965f88528660e011610ddc5760e08401948e853561131460208801611e09565b60408801356001600160401b0381168103610ddc576001600160401b03908d61133f60a08c01611e09565b906001600160a01b0361135460c08e01611e09565b1690526001600160a01b039081168d5260808b0135875260608b0135885291168752168652808d5203611ac8578351336001600160a01b0390911603611a91578151421015611a5d5780514603611a255786516001600160a01b03168a90036119ec578e6001600160401b03845116905f52600160205260405f2060018060a01b0333165f526020526001600160401b036113f48160405f205416611fb2565b16116119b15760df198801966001600160401b038c519560018060a01b03905116945116925191519060018060a01b039051169160018060a01b038b511693604051956020870197885260408701526060860152608085015260a084015260c083015260e082015260e0815261146c61010082611f5a565b5190207f19457468657265756d205369676e6564204d6573736167653a0a3332000000005f52601c52603c5f20936001600160401b03841161171757604051916114c160c0198301601f191660200184611f5a565b8483528136910111610ddc57815f6114ea92868660206114f3970137820160bf190152856123f3565b9092919261242d565b84516001600160a01b039081169116819003611882575b50505050825192604051936331a9108f60e11b85526004850152602084602481865afa9384156117e0575f94611861575b5081516001600160a01b0385811691169081149485156117eb575b50508315611768575b5050501561172b575f848152600160209081526040808320338452909152902054611592906001600160401b0316611fb2565b916040519360808501938585106001600160401b03861117611717577f54b3254e4cc01969e70376d20390cc2f6af90539d9adaa78a53ebcda17f78154956116c995604052888152600360208201918b83526040810185815260608201935f85528b5f525f60205260405f2060018060a01b0333165f5260205260405f206001600160401b0387165f5260205260ff60405f2093511660ff19845416178355516001830155516002820155019051151560ff80198354169116179055865f52600160205260405f2060018060a01b0333165f526020526001600160401b0360405f2091166001600160401b0319825416179055855f52600660205260405f2060018060a01b0333165f5260205260ff60405f205416156116da575b604051968752602087015260806040870152608086019161204a565b9260a43560608201528033940390a4005b855f5260056020526116ef3360405f20612004565b5f8681526006602090815260408083203384529091529020805460ff191660011790556116ad565b634e487b7160e01b5f52604160045260245ffd5b60405162461bcd60e51b815260206004820152601560248201527414da59db995c881b9bdd08185d5d1a1bdc9a5e9959605a1b6044820152606490fd5b6020919293505160246040518095819363020604bf60e21b835260048301525afa9182156117e0575f926117af575b50516001600160a01b0391821691161487808061155f565b6117d291925060203d6020116117d9575b6117ca8183611f5a565b810190611f7b565b9088611797565b503d6117c0565b6040513d5f823e3d90fd5b60405163e985e9c560e01b81526001600160a01b03918216600482015291166024820152909350602081604481865afa9081156117e0575f91611832575b50928a80611556565b611854915060203d60201161185a575b61184c8183611f5a565b810190611f9a565b8a611829565b503d611842565b61187b91945060203d6020116117d9576117ca8183611f5a565b928a61153b565b3b1561197857835160408051630b135d3f60e11b81526004810195909552602485015260209284926001600160a01b0390921691839182916118c891604484019161204a565b03915afa9081156117e0575f91611935575b506001600160e01b0319166374eca2c160e11b016118fb578980808061150a565b60405162461bcd60e51b81526020600482015260126024820152714261642031323731207369676e617475726560701b6044820152606490fd5b90506020813d602011611970575b8161195060209383611f5a565b81010312610ddc57516001600160e01b031981168103610ddc578a6118da565b3d9150611943565b60405162461bcd60e51b8152602060048201526011602482015270496e76616c6964207369676e617475726560781b6044820152606490fd5b60405162461bcd60e51b8152602060048201526013602482015272125b99195e131a5b5a5d08195e18d959591959606a1b6044820152606490fd5b60405162461bcd60e51b81526020600482015260116024820152700a4caced2e6e8e4f240dad2e6dac2e8c6d607b1b6044820152606490fd5b60405162461bcd60e51b815260206004820152601060248201526f086d0c2d2dc92c840dad2e6dac2e8c6d60831b6044820152606490fd5b60405162461bcd60e51b815260206004820152600c60248201526b105d5d1a08195e1c1a5c995960a21b6044820152606490fd5b60405162461bcd60e51b815260206004820152600f60248201526e086d8d2cadce840dad2e6dac2e8c6d608b1b6044820152606490fd5b60405162461bcd60e51b815260206004820152601060248201526f082cecadce892c840dad2e6dac2e8c6d60831b6044820152606490fd5b60405162461bcd60e51b8152602060048201526013602482015272092dcecc2d8d2c840c2eae8d040d8cadccee8d606b1b6044820152606490fd5b60405162461bcd60e51b8152602060048201526012602482015271155b9c9959da5cdd195c9959081859d95b9d60721b6044820152606490fd5b611b8e915060203d6020116117d9576117ca8183611f5a565b8a611291565b60405162461bcd60e51b815260206004820152601960248201527f53656c662d666565646261636b206e6f7420616c6c6f776564000000000000006044820152606490fd5b5060405163020604bf60e21b815260048101889052602081602481865afa9081156117e0575f91611c17575b506001600160a01b0316331415611261565b611c30915060203d6020116117d9576117ca8183611f5a565b8a611c05565b60405163e985e9c560e01b81526001600160a01b039190911660048201523360248201529050602081604481865afa9081156117e0575f91611c7b575b50158a61125a565b611c94915060203d60201161185a5761184c8183611f5a565b8a611c73565b611cb3915060203d6020116117d9576117ca8183611f5a565b8a611245565b60405162461bcd60e51b81526020600482015260146024820152731059d95b9d08191bd95cc81b9bdd08195e1a5cdd60621b6044820152606490fd5b60405162461bcd60e51b8152602060048201526009602482015268073636f72653e3130360bc1b6044820152606490fd5b34610ddc576040366003190112610ddc576024356004355f52600560205260405f208054821015610ddc57602091610ca9915b8054821015611d6e575f5260205f2001905f90565b634e487b7160e01b5f52603260045260245ffd5b34610ddc575f366003190112610ddc576040517f00000000000000000000000000000000000000000000000000000000000000006001600160a01b03168152602090f35b9181601f84011215610ddc578235916001600160401b038311610ddc5760208381860195010111610ddc57565b602435906001600160a01b0382168203610ddc57565b35906001600160a01b0382168203610ddc57565b604435906001600160401b0382168203610ddc57565b6060906003190112610ddc57600435906024356001600160a01b0381168103610ddc57906044356001600160401b0381168103610ddc5790565b9181601f84011215610ddc578235916001600160401b038311610ddc576020808501948460051b010111610ddc57565b90602080835192838152019201905f5b818110611eba5750505090565b82516001600160a01b0316845260209384019390920191600101611ead565b90602080835192838152019201905f5b818110611ef65750505090565b8251845260209384019390920191600101611ee9565b6080906003190112610ddc57600435906024356001600160a01b0381168103610ddc57906044356001600160401b0381168103610ddc57906064356001600160a01b0381168103610ddc5790565b90601f801991011681019081106001600160401b0382111761171757604052565b90816020910312610ddc57516001600160a01b0381168103610ddc5790565b90816020910312610ddc57518015158103610ddc5790565b6001600160401b036001911601906001600160401b038211611fd057565b634e487b7160e01b5f52601160045260245ffd5b906001600160401b03809116911601906001600160401b038211611fd057565b8054680100000000000000008110156117175761202691600182018155611d59565b81546001600160a01b0393841660039290921b91821b9390911b1916919091179055565b908060209392818452848401375f828201840152601f01601f1916010190565b1561207157565b60405162461bcd60e51b81526020600482015260116024820152700696e646578206d757374206265203e203607c1b6044820152606490fd5b156120b157565b60405162461bcd60e51b8152602060048201526013602482015272696e646578206f7574206f6620626f756e647360681b6044820152606490fd5b6001600160401b0381116117175760051b60200190565b92919061210f816120ec565b9361211d6040519586611f5a565b602085838152019160051b8101928311610ddc57905b82821061213f57505050565b6020809161214c84611e09565b815201910190612133565b8051821015611d6e5760209160051b010190565b6001600160401b03166001600160401b038114611fd05760010190565b5f198114611fd05760010190565b906121a0826120ec565b6121ad6040519182611f5a565b82815280926121be601f19916120ec565b0190602036910137565b6040516331a9108f60e11b815260048101919091526020816024817f00000000000000000000000000000000000000000000000000000000000000006001600160a01b03165afa5f918161222f575b5061222157505f90565b6001600160a01b0316151590565b61224991925060203d6020116117d9576117ca8183611f5a565b905f612217565b5f959490939080612363575050825f52600360205260405f2060018060a01b0382165f5260205260405f206001600160401b0383165f5260205260405f2092604051808560208297549384815201905f5260205f20925f5b8181106123415750506122bd92500385611f5a565b5f955b845187101561233957612331600191835f52600260205260405f20838060a01b0386165f5260205260405f206001600160401b0387165f5260205260405f20838060a01b0361230f8b8a612157565b5116848060a01b03165f526020526001600160401b0360405f20541690611fe4565b9601956122c0565b955050505050565b84546001600160a01b03168352600194850194899450602090930192016122a8565b945f96949196945b868610156123e9575f8381526002602090815260408083206001600160a01b0388811685529083528184206001600160401b038a16855290925290912091600588901b8a01359182168203610ddc576001926123e192848060a01b03165f526020526001600160401b0360405f20541690611fe4565b95019461236b565b9650945050505050565b81519190604183036124235761241c9250602082015190606060408401519301515f1a906124a1565b9192909190565b50505f9160029190565b600481101561248d578061243f575050565b600181036124565763f645eedf60e01b5f5260045ffd5b60028103612471575063fce698f760e01b5f5260045260245ffd5b60031461247b5750565b6335e2f38360e21b5f5260045260245ffd5b634e487b7160e01b5f52602160045260245ffd5b91907f7fffffffffffffffffffffffffffffff5d576e7357a4501ddfe92f46681b20a08411612518579160209360809260ff5f9560405194855216868401526040830152606082015282805260015afa156117e0575f516001600160a01b0381161561250e57905f905f90565b505f906001905f90565b5050505f916003919056fea26469706673582212209fa6a32537aca875e4f4c9aeb1bf1d73d5d823a192ee2d940271a3e3e0481dfc64736f6c634300081e0033","linkReferences":{}},"methodIdentifiers":{"_clientExists(uint256,address)":"ab3f4c4c","_clients(uint256,uint256)":"036666b4","_feedback(uint256,address,uint64)":"61f33b78","_lastIndex(uint256,address)":"d0bca500","_responderExists(uint256,address,uint64,address)":"a19ec2dd","_responders(uint256,address,uint64,uint256)":"5fe4b986","_responseCount(uint256,address,uint64,address)":"d87b21fc","appendResponse(uint256,address,uint64,string,bytes32)":"c2349ab2","getClients(uint256)":"42dd519c","getIdentityRegistry()":"bc4d861b","getLastIndex(uint256,address)":"f2d81759","getResponseCount(uint256,address,uint64,address[])":"6e04cacd","getSummary(uint256,address[],bytes32,bytes32)":"31259cff","giveFeedback(uint256,uint8,bytes32,bytes32,string,bytes32,bytes)":"155e5bbd","identityRegistry()":"134e18f4","readAllFeedback(uint256,address[],bytes32,bytes32,bool)":"80b87594","readFeedback(uint256,address,uint64)":"232b0810","revokeFeedback(uint256,uint64)":"4ab3ca99"},"id":8}