{
  "abi": [
    {
      "type": "constructor",
      "inputs": [
        {
          "name": "_poolManager",
          "type": "address",
          "internalType": "address"
        },
        {
          "name": "_modifyLiquidityRouter",
          "type": "address",
          "internalType": "address"
        }
      ],
      "stateMutability": "nonpayable"
    },
    {
      "type": "function",
      "name": "createTokenAndPool",
      "inputs": [
        {
          "name": "name_",
          "type": "string",
          "internalType": "string"
        },
        {
          "name": "symbol_",
          "type": "string",
          "internalType": "string"
        },
        {
          "name": "meta",
          "type": "tuple",
          "internalType": "struct EventToken.EventMetadata",
          "components": [
            {
              "name": "geoTag",
              "type": "string",
              "internalType": "string"
            },
            {
              "name": "weatherTag",
              "type": "string",
              "internalType": "string"
            },
            {
              "name": "eventTypes",
              "type": "string[]",
              "internalType": "string[]"
            },
            {
              "name": "eventDescription",
              "type": "string",
              "internalType": "string"
            },
            {
              "name": "supplementLink",
              "type": "string",
              "internalType": "string"
            },
            {
              "name": "eventTime",
              "type": "uint256",
              "internalType": "uint256"
            }
          ]
        },
        {
          "name": "fee",
          "type": "uint24",
          "internalType": "uint24"
        },
        {
          "name": "tokensPerNativeE18",
          "type": "uint256",
          "internalType": "uint256"
        }
      ],
      "outputs": [
        {
          "name": "tokenAddress",
          "type": "address",
          "internalType": "address"
        }
      ],
      "stateMutability": "payable"
    },
    {
      "type": "function",
      "name": "isOfficialToken",
      "inputs": [
        {
          "name": "",
          "type": "address",
          "internalType": "address"
        }
      ],
      "outputs": [
        {
          "name": "",
          "type": "bool",
          "internalType": "bool"
        }
      ],
      "stateMutability": "view"
    },
    {
      "type": "function",
      "name": "listOfficialTokens",
      "inputs": [
        {
          "name": "offset",
          "type": "uint256",
          "internalType": "uint256"
        },
        {
          "name": "limit",
          "type": "uint256",
          "internalType": "uint256"
        }
      ],
      "outputs": [
        {
          "name": "arr",
          "type": "address[]",
          "internalType": "address[]"
        }
      ],
      "stateMutability": "view"
    },
    {
      "type": "function",
      "name": "modifyLiquidityRouter",
      "inputs": [],
      "outputs": [
        {
          "name": "",
          "type": "address",
          "internalType": "address"
        }
      ],
      "stateMutability": "view"
    },
    {
      "type": "function",
      "name": "officialTokenAt",
      "inputs": [
        {
          "name": "index",
          "type": "uint256",
          "internalType": "uint256"
        }
      ],
      "outputs": [
        {
          "name": "",
          "type": "address",
          "internalType": "address"
        }
      ],
      "stateMutability": "view"
    },
    {
      "type": "function",
      "name": "poolManager",
      "inputs": [],
      "outputs": [
        {
          "name": "",
          "type": "address",
          "internalType": "address"
        }
      ],
      "stateMutability": "view"
    },
    {
      "type": "function",
      "name": "totalOfficialTokens",
      "inputs": [],
      "outputs": [
        {
          "name": "",
          "type": "uint256",
          "internalType": "uint256"
        }
      ],
      "stateMutability": "view"
    },
    {
      "type": "function",
      "name": "verifyOfficial",
      "inputs": [
        {
          "name": "token",
          "type": "address",
          "internalType": "address"
        }
      ],
      "outputs": [
        {
          "name": "",
          "type": "bool",
          "internalType": "bool"
        }
      ],
      "stateMutability": "view"
    },
    {
      "type": "event",
      "name": "OfficialTokenRegistered",
      "inputs": [
        {
          "name": "token",
          "type": "address",
          "indexed": true,
          "internalType": "address"
        },
        {
          "name": "publisher",
          "type": "address",
          "indexed": true,
          "internalType": "address"
        }
      ],
      "anonymous": false
    },
    {
      "type": "event",
      "name": "TokenDeployed",
      "inputs": [
        {
          "name": "token",
          "type": "address",
          "indexed": false,
          "internalType": "address"
        },
        {
          "name": "publisher",
          "type": "address",
          "indexed": false,
          "internalType": "address"
        },
        {
          "name": "fee",
          "type": "uint24",
          "indexed": false,
          "internalType": "uint24"
        },
        {
          "name": "nativeLiquidity",
          "type": "uint256",
          "indexed": false,
          "internalType": "uint256"
        },
        {
          "name": "liquidityTokens",
          "type": "uint256",
          "indexed": false,
          "internalType": "uint256"
        },
        {
          "name": "liquidityAdded",
          "type": "bool",
          "indexed": false,
          "internalType": "bool"
        }
      ],
      "anonymous": false
    },
    {
      "type": "event",
      "name": "TokenMetadata",
      "inputs": [
        {
          "name": "token",
          "type": "address",
          "indexed": true,
          "internalType": "address"
        },
        {
          "name": "publisher",
          "type": "address",
          "indexed": true,
          "internalType": "address"
        },
        {
          "name": "geoTag",
          "type": "string",
          "indexed": false,
          "internalType": "string"
        },
        {
          "name": "weatherTag",
          "type": "string",
          "indexed": false,
          "internalType": "string"
        },
        {
          "name": "eventTypes",
          "type": "string[]",
          "indexed": false,
          "internalType": "string[]"
        },
        {
          "name": "eventDescription",
          "type": "string",
          "indexed": false,
          "internalType": "string"
        },
        {
          "name": "supplementLink",
          "type": "string",
          "indexed": false,
          "internalType": "string"
        },
        {
          "name": "eventTime",
          "type": "uint256",
          "indexed": false,
          "internalType": "uint256"
        },
        {
          "name": "publisherAllocationBps",
          "type": "uint256",
          "indexed": false,
          "internalType": "uint256"
        },
        {
          "name": "fullname",
          "type": "string",
          "indexed": false,
          "internalType": "string"
        },
        {
          "name": "ticker",
          "type": "string",
          "indexed": false,
          "internalType": "string"
        }
      ],
      "anonymous": false
    }
  ],
  "bytecode": {
    "object": "0x60c03461011057601f61446938819003918201601f19168301916001600160401b0383118484101761011457808492604094855283398101031261011057610052602061004b83610128565b9201610128565b906001600160a01b038116156100dc576001600160a01b038216156100a65760805260a05260405161432c908161013d823960805181818161015801526104af015260a0518181816104eb0152610de20152f35b60405162461bcd60e51b815260206004820152600e60248201526d3130b2103634b8903937baba32b960911b6044820152606490fd5b60405162461bcd60e51b815260206004820152600c60248201526b3130b2103837b7b61036b3b960a11b6044820152606490fd5b5f80fd5b634e487b7160e01b5f52604160045260245ffd5b51906001600160a01b03821682036101105756fe6080806040526004361015610012575f80fd5b5f3560e01c90816294af0d14610d9a575080632897385914610d5f5780633e77df4514610c955780635b0e6717146101e65780635d2246c41461017c5780635e519cdf1461017c578063dc4c90d31461010e5763ebf15cee14610073575f80fd5b3461010a5760407ffffffffffffffffffffffffffffffffffffffffffffffffffffffffffffffffc36011261010a576100b0602435600435611036565b6040518091602082016020835281518091526020604084019201905f5b8181106100db575050500390f35b825173ffffffffffffffffffffffffffffffffffffffff168452859450602093840193909201916001016100cd565b5f80fd5b3461010a575f7ffffffffffffffffffffffffffffffffffffffffffffffffffffffffffffffffc36011261010a57602060405173ffffffffffffffffffffffffffffffffffffffff7f0000000000000000000000000000000000000000000000000000000000000000168152f35b3461010a5760207ffffffffffffffffffffffffffffffffffffffffffffffffffffffffffffffffc36011261010a5760043573ffffffffffffffffffffffffffffffffffffffff811680910361010a575f525f602052602060ff60405f2054166040519015158152f35b60a07ffffffffffffffffffffffffffffffffffffffffffffffffffffffffffffffffc36011261010a5760043567ffffffffffffffff811161010a57610230903690600401610e47565b60243567ffffffffffffffff811161010a57610250903690600401610e47565b6044359067ffffffffffffffff821161010a5760c07ffffffffffffffffffffffffffffffffffffffffffffffffffffffffffffffffc833603011261010a576040519160c0830183811067ffffffffffffffff8211176108c257604052806004013567ffffffffffffffff811161010a576102d19060043691840101610e47565b8352602481013567ffffffffffffffff811161010a576102f79060043691840101610e47565b9060208401918252604481013567ffffffffffffffff811161010a578101913660238401121561010a57600483013561032f81610ebb565b9361033d6040519586610e06565b818552602060048187019360051b830101019036821161010a5760248101925b828410610c63575050505060408501928352606482013567ffffffffffffffff811161010a576103939060043691850101610e47565b9160608601928352608481013567ffffffffffffffff811161010a576103bf9060043691840101610e47565b6080870190815260a460a0880192013582526064359662ffffff881680980361010a5760843597341598891599610c05578015610ba757606482148015610b9c575b8015610b91575b8015610b86575b15610b28578034029034820403610afb57670de0b6b3a76400009004908115998a610a9d576040516131828082019082821067ffffffffffffffff8311176108c25782918f6105548f8f8f91908f610536906105278f99610545956104896105639a610497938f611175903960e08d5260e08d0190610f4f565b908b820360208d0152610f4f565b9973ffffffffffffffffffffffffffffffffffffffff7f00000000000000000000000000000000000000000000000000000000000000001660408b015273ffffffffffffffffffffffffffffffffffffffff7f00000000000000000000000000000000000000000000000000000000000000001660608b0152898b0360808b01525160c08b5260c08b0190610f4f565b905189820360208b0152610f4f565b90518782036040890152610f92565b90518582036060870152610f4f565b8a518482036080860152610f4f565b9160a08b519101523360a082015260c03091015203905ff080156108b75773ffffffffffffffffffffffffffffffffffffffff169a5f60208d6024604051809481937f05a0ba7e0000000000000000000000000000000000000000000000000000000083528a60048401525af180156108b757610a6e575b5081610a65575b5015610a07576105fd6105f8348460c01b610f18565b61112e565b73ffffffffffffffffffffffffffffffffffffffff81116109a9576040517f5539b25b0000000000000000000000000000000000000000000000000000000081526004810183905273ffffffffffffffffffffffffffffffffffffffff91909116602482015260a081604481348f5af180156108b7576108ef575b50895f525f60205260405f2060017fffffffffffffffffffffffffffffffffffffffffffffffffffffffffffffff0082541617905560015490680100000000000000008210156108c2577f098f1153c753daad2970229d3d03c90f8f2b7dbbdb83a46f05e2d94cac81de19928b6106f784600160c09601600155610ed3565b73ffffffffffffffffffffffffffffffffffffffff829392549160031b92831b921b191617905560405191338d7f4ef4c346c69f1c42c276e1b844ad7a4759fd3eb3b0227109f71552cd8cc13a255f80a38c835233602084015260408301523460608301526080820152600160a0820152a1519251945193519051915193604051937f16a360550000000000000000000000000000000000000000000000000000000085526020856004818c5afa9485156108b7575f95610878575b509460209989979561084561080d9661083761086d9761082961085d9861081b7f93a7c555ad9febf7181dbde363183521a89a76099154a0f50cd017c16b70af5b9e6040519e8f9e8f926101208452610120840190610f4f565b916020818403910152610f4f565b8c810360408e015290610f92565b908a820360608c0152610f4f565b9088820360808a0152610f4f565b9260a087015260c086015284820360e0860152610f4f565b8281036101008401523396610f4f565b0390a3604051908152f35b95909694506020929192863d6020116108af575b8161089960209383610e06565b8101031261010a579451939590919060206107b3565b3d915061088c565b6040513d5f823e3d90fd5b7f4e487b71000000000000000000000000000000000000000000000000000000005f52604160045260245ffd5b60a0813d60a0116109a1575b8161090860a09383610e06565b8101031261010a576040519060a0820182811067ffffffffffffffff8211176108c25760405261093781611008565b825261094560208201611008565b6020830152604081015162ffffff8116810361010a5760408301526060810151908160020b820361010a576080916060840152015173ffffffffffffffffffffffffffffffffffffffff8116810361010a576080820152610678565b3d91506108fb565b60646040517f08c379a000000000000000000000000000000000000000000000000000000000815260206004820152600860248201527f6f766572666c6f770000000000000000000000000000000000000000000000006044820152fd5b60646040517f08c379a000000000000000000000000000000000000000000000000000000000815260206004820152600960248201527f62616420726174696f00000000000000000000000000000000000000000000006044820152fd5b9050158c6105e2565b6020813d602011610a95575b81610a8760209383610e06565b8101031261010a57516105db565b3d9150610a7a565b60646040517f08c379a000000000000000000000000000000000000000000000000000000000815260206004820152600560248201527f6c69713d300000000000000000000000000000000000000000000000000000006044820152fd5b7f4e487b71000000000000000000000000000000000000000000000000000000005f52601160045260245ffd5b60646040517f08c379a000000000000000000000000000000000000000000000000000000000815260206004820152600760248201527f62616420666565000000000000000000000000000000000000000000000000006044820152fd5b50612710821461040f565b50610bb88214610408565b506101f48214610401565b60646040517f08c379a000000000000000000000000000000000000000000000000000000000815260206004820152600760248201527f6261642074706e000000000000000000000000000000000000000000000000006044820152fd5b60646040517f08c379a000000000000000000000000000000000000000000000000000000000815260206004820152600b60248201527f6e656564206e61746976650000000000000000000000000000000000000000006044820152fd5b833567ffffffffffffffff811161010a57602091610c8a8392836004369288010101610e47565b81520193019261035d565b3461010a5760207ffffffffffffffffffffffffffffffffffffffffffffffffffffffffffffffffc36011261010a57600435600154811015610d015773ffffffffffffffffffffffffffffffffffffffff610cf1602092610ed3565b90549060031b1c16604051908152f35b60646040517f08c379a000000000000000000000000000000000000000000000000000000000815260206004820152600360248201527f6f6f6200000000000000000000000000000000000000000000000000000000006044820152fd5b3461010a575f7ffffffffffffffffffffffffffffffffffffffffffffffffffffffffffffffffc36011261010a576020600154604051908152f35b3461010a575f7ffffffffffffffffffffffffffffffffffffffffffffffffffffffffffffffffc36011261010a5760209073ffffffffffffffffffffffffffffffffffffffff7f0000000000000000000000000000000000000000000000000000000000000000168152f35b90601f7fffffffffffffffffffffffffffffffffffffffffffffffffffffffffffffffe0910116810190811067ffffffffffffffff8211176108c257604052565b81601f8201121561010a5780359067ffffffffffffffff82116108c25760405192610e9a60207fffffffffffffffffffffffffffffffffffffffffffffffffffffffffffffffe0601f8601160185610e06565b8284526020838301011161010a57815f926020809301838601378301015290565b67ffffffffffffffff81116108c25760051b60200190565b600154811015610eeb5760015f5260205f2001905f90565b7f4e487b71000000000000000000000000000000000000000000000000000000005f52603260045260245ffd5b8115610f22570490565b7f4e487b71000000000000000000000000000000000000000000000000000000005f52601260045260245ffd5b907fffffffffffffffffffffffffffffffffffffffffffffffffffffffffffffffe0601f602080948051918291828752018686015e5f8582860101520116010190565b9080602083519182815201916020808360051b8301019401925f915b838310610fbd57505050505090565b9091929394602080610ff9837fffffffffffffffffffffffffffffffffffffffffffffffffffffffffffffffe086600196030187528951610f4f565b97019301930191939290610fae565b519073ffffffffffffffffffffffffffffffffffffffff8216820361010a57565b91908201809211610afb57565b919060015490818410156111125761104e9084611029565b9080821161110a575b50828103908111610afb5761106b81610ebb565b906110796040519283610e06565b8082527fffffffffffffffffffffffffffffffffffffffffffffffffffffffffffffffe06110a682610ebb565b0136602084013781935f5b8281106110be5750505050565b73ffffffffffffffffffffffffffffffffffffffff6110e56110e08385611029565b610ed3565b90549060031b1c16908451811015610eeb5760019160208260051b87010152016110b1565b90505f611057565b50509050604051611124602082610e06565b5f81525f36813790565b90811561116f5760018201808311610afb5760011c825b838210611150575050565b909250611166836111618184610f18565b611029565b60011c90611145565b5f915056fe61012060405234610d41576131828038038061001a81610d72565b92833981019060e081830312610d415780516001600160401b038111610d415782610046918301610d97565b60208201519092906001600160401b038111610d415781610068918401610d97565b9161007560408201610de8565b9061008260608201610de8565b60808201519091906001600160401b038111610d415781019560c087860312610d41576040519160c083016001600160401b0381118482101761072f5760405287516001600160401b038111610d4157866100de918a01610d97565b835260208801516001600160401b038111610d4157866100ff918a01610d97565b6020840190815260408901519094906001600160401b038111610d415789019587601f88011215610d41578651966001600160401b03881161072f578760051b9060208061014e818501610d72565b809b81520192820101918a8311610d415760208201905b838210610d4557505050506040850196875260608a01516001600160401b038111610d415788610196918c01610d97565b6060860190815260808b01519098906001600160401b038111610d415760a0916101c1918d01610d97565b9a608087019b8c5201519860a08601998a526101eb60c06101e460a08701610de8565b9501610de8565b855190956001600160401b03821161072f57610208600354610dfc565b601f8111610cf3575b50602090601f8311600114610c8e5761024192915f918361066a575b50508160011b915f199060031b1c19161790565b6003555b8051906001600160401b03821161072f57610261600454610dfc565b601f8111610c40575b50602090601f8311600114610bdb5761029992915f918361066a5750508160011b915f199060031b1c19161790565b6004555b60016005556001600160a01b0316908115610ba7576001600160a01b0316908115610b75576001600160a01b03831615610b40576001600160a01b03841615610b1057600487515111610ae15760805260a05260c05260e0528451600c805462ff0000191691151560101b62ff000016919091179055518051906001600160401b03821161072f57610330600654610dfc565b601f8111610a93575b50602090601f8311600114610a2e5761036892915f918361066a5750508160011b915f199060031b1c19161790565b6006555b518051906001600160401b03821161072f57610389600754610dfc565b601f81116109e0575b50602090601f831160011461097b576103c192915f918361066a5750508160011b915f199060031b1c19161790565b6007555b5180519068010000000000000000821161072f57600854826008558083106108f9575b5060085f9081525f5160206131625f395f51905f5292916020015b8282106107f457505050505191825160018060401b03811161072f5761042a600954610dfc565b601f81116107a6575b506020601f82116001146107435781906104639394955f9261066a5750508160011b915f199060031b1c19161790565b6009555b5180519091906001600160401b03811161072f57610486600a54610dfc565b601f81116106d6575b50602092601f8211600114610675576104bf929382915f9261066a5750508160011b915f199060031b1c19161790565b600a555b51600b55600b5415610661575b60646104dd600654610dfc565b610659575b6104ed600754610dfc565b610639575b600854610618575b610505600a54610dfc565b6105f8575b60ff600c5460101c166105d8575b620186a08110156105a357610100526040516123179081610e4b82396080518181816102a80152610e6d015260a051818181610eb20152611c2d015260c05181818161079f015281816109ac0152818161180b0152611a8c015260e051818181610a6901528181610d340152611a1f01526101005181818161177101528181611afc0152611f870152f35b60405162461bcd60e51b815260206004820152600d60248201526c616c6c6f6320746f6f2062696760981b6044820152606490fd5b606481018091111561051857634e487b7160e01b5f52601160045260245ffd5b606481018091111561050a57634e487b7160e01b5f52601160045260245ffd5b6101908101809111156104fa57634e487b7160e01b5f52601160045260245ffd5b60648101809111156104f257634e487b7160e01b5f52601160045260245ffd5b5060c86104e2565b42600b556104d0565b015190505f8061022d565b601f19821693600a5f52805f20915f5b8681106106be57508360019596106106a6575b505050811b01600a556104c3565b01515f1960f88460031b161c191690555f8080610698565b91926020600181928685015181550194019201610685565b600a5f5261071f907fc65a7bb8d6351c1cf70c95a316cc6a92839c986682d98bc35f958f4883f9d2a8601f840160051c81019160208510610725575b601f0160051c0190610e34565b5f61048f565b9091508190610712565b634e487b7160e01b5f52604160045260245ffd5b601f1982169060095f52805f20915f5b81811061078e57509583600195969710610776575b505050811b01600955610467565b01515f1960f88460031b161c191690555f8080610768565b9192602060018192868b015181550194019201610753565b60095f526107ee907f6e1540171b6c0c960b71a7020d9f60077f6af931a8bbf590da0223dacf75c7af601f840160051c8101916020851061072557601f0160051c0190610e34565b5f610433565b80518051906001600160401b03821161072f576108118654610dfc565b601f81116108c9575b50602090601f83116001146108605792610851836001959460209487965f9261066a5750508160011b915f199060031b1c19161790565b87555b01940191019092610403565b90601f19831691875f52815f20925f5b8181106108b15750936020936001969387969383889510610899575b505050811b018755610854565b01515f1960f88460031b161c191690555f808061088c565b92936020600181928786015181550195019301610870565b6108f390875f5260205f20601f850160051c8101916020861061072557601f0160051c0190610e34565b5f61081a565b60085f525f5160206131625f395f51905f529081019083015b81811061091f57506103e8565b8061092c60019254610dfc565b80610939575b5001610912565b601f8111831461094e57505f81555b5f610932565b61096a90825f5283601f60205f20920160051c82019101610e34565b805f525f6020812081835555610948565b90601f1983169160075f52815f20925f5b8181106109c857509084600195949392106109b0575b505050811b016007556103c5565b01515f1960f88460031b161c191690555f80806109a2565b9293602060018192878601518155019501930161098c565b60075f52610a28907fa66cc928b5edb82af9bd49922954155ab7b0942694bea4ce44661d9a8736c688601f850160051c8101916020861061072557601f0160051c0190610e34565b5f610392565b90601f1983169160065f52815f20925f5b818110610a7b5750908460019594939210610a63575b505050811b0160065561036c565b01515f1960f88460031b161c191690555f8080610a55565b92936020600181928786015181550195019301610a3f565b60065f52610adb907ff652222313e28459528d920b65115c16c04f3efc82aaedc97be59f3f377c0d3f601f850160051c8101916020861061072557601f0160051c0190610e34565b5f610339565b60405162461bcd60e51b81526020600482015260076024820152661d1e5c195ccf8d60ca1b6044820152606490fd5b60405162461bcd60e51b8152602060048201526008602482015267189859081a5b9a5d60c21b6044820152606490fd5b60405162461bcd60e51b815260206004820152600d60248201526c3130b210383ab13634b9b432b960991b6044820152606490fd5b60405162461bcd60e51b815260206004820152600a6024820152693130b2103937baba32b960b11b6044820152606490fd5b60405162461bcd60e51b815260206004820152600c60248201526b3130b2103837b7b61036b3b960a11b6044820152606490fd5b90601f1983169160045f52815f20925f5b818110610c285750908460019594939210610c10575b505050811b0160045561029d565b01515f1960f88460031b161c191690555f8080610c02565b92936020600181928786015181550195019301610bec565b60045f52610c88907f8a35acfbc15ff81a39ae7d344fd709f28e8600b4aa8c65c6b64bfe7fe36bd19b601f850160051c8101916020861061072557601f0160051c0190610e34565b5f61026a565b90601f1983169160035f52815f20925f5b818110610cdb5750908460019594939210610cc3575b505050811b01600355610245565b01515f1960f88460031b161c191690555f8080610cb5565b92936020600181928786015181550195019301610c9f565b60035f52610d3b907fc2575a0e9e593c00f959f8c92f12db2869c3395a3b0502d05e2516446f71f85b601f850160051c8101916020861061072557601f0160051c0190610e34565b5f610211565b5f80fd5b81516001600160401b038111610d4157602091610d678e848094880101610d97565b815201910190610165565b6040519190601f01601f191682016001600160401b0381118382101761072f57604052565b81601f82011215610d41578051906001600160401b03821161072f57610dc6601f8301601f1916602001610d72565b9282845260208383010111610d4157815f9260208093018386015e8301015290565b51906001600160a01b0382168203610d4157565b90600182811c92168015610e2a575b6020831014610e1657565b634e487b7160e01b5f52602260045260245ffd5b91607f1691610e0b565b818110610e3f575050565b5f8155600101610e3456fe6080806040526004361015610012575f80fd5b5f3560e01c90816294af0d14611be55750806305a0ba7e146119d357806306fdde03146118fa578063095ea7b3146118b65780631291f79d1461179457806316a360551461173c57806318160ddd1461170157806323b872dd146115a157806323e59b511461155e5780632fd12300146113fa578063313ce567146113c157806335b194b2146107695780633637efc21461137d578063392e53cd1461133d57806348ee53c314610769578063516d6e27146107695780635539b25b14610c9857806370a0823114610c36578063894db32714610bfb578063956c179714610bc157806395d89b4114610a8d5780639ce110d714610a1f578063a9059cbb146109d0578063b0d5238a14610962578063b2118a8d1461076e578063b8a9ca1514610769578063c8983f7814610769578063d606c7b61461030f578063d9443923146102cc578063dc4c90d31461025e578063dd62ed3e146101ba5763e1f1c4a71461017b575f80fd5b346101b6575f7ffffffffffffffffffffffffffffffffffffffffffffffffffffffffffffffffc3601126101b6576020604051620186a08152f35b5f80fd5b346101b65760407ffffffffffffffffffffffffffffffffffffffffffffffffffffffffffffffffc3601126101b6576101f1611c94565b6024359073ffffffffffffffffffffffffffffffffffffffff821682036101b65773ffffffffffffffffffffffffffffffffffffffff165f52600160205273ffffffffffffffffffffffffffffffffffffffff60405f2091165f52602052602060405f2054604051908152f35b346101b6575f7ffffffffffffffffffffffffffffffffffffffffffffffffffffffffffffffffc3601126101b657602060405173ffffffffffffffffffffffffffffffffffffffff7f0000000000000000000000000000000000000000000000000000000000000000168152f35b346101b6575f7ffffffffffffffffffffffffffffffffffffffffffffffffffffffffffffffffc3601126101b657602060ff600c5460081c166040519015158152f35b346101b6575f7ffffffffffffffffffffffffffffffffffffffffffffffffffffffffffffffffc3601126101b6576040515f6006548060011c916001821691821561075f575b60208410831461054057838552849290811561072257506001146106c3575b61038092500382611d7e565b604051905f6007548060011c91600182169182156106b9575b60208410831461054057838652859290811561067c575060011461061d575b6103c492500383611d7e565b604051915f6009548060011c9160018216918215610613575b6020841083146105405783875286929081156105d65750600114610577575b61040892500384611d7e565b604051925f600a548060011c9060018116801561056d575b602083108114610540578288529081156104fe57506001146104a4575b509361048c61049a9261045583610470980384611d7e565b61047e600b549560405198899860a08a5260a08a0190611c51565b9088820360208a0152611c51565b908682036040880152611c51565b908482036060860152611c51565b9060808301520390f35b600a5f90815291507fc65a7bb8d6351c1cf70c95a316cc6a92839c986682d98bc35f958f4883f9d2a85b8183106104e4575050840160200161048c61043d565b6001816020929493945483858b01015201910191906104ce565b7fffffffffffffffffffffffffffffffffffffffffffffffffffffffffffffff001660208089019190915291151560051b8701909101915061048c905061043d565b7f4e487b71000000000000000000000000000000000000000000000000000000005f52602260045260245ffd5b91607f1691610420565b5060095f90815290917f6e1540171b6c0c960b71a7020d9f60077f6af931a8bbf590da0223dacf75c7af5b8183106105ba575050906020610408928201016103fc565b6020919350806001915483858a010152019101909185926105a2565b602092506104089491507fffffffffffffffffffffffffffffffffffffffffffffffffffffffffffffff001682840152151560051b8201016103fc565b92607f16926103dd565b5060075f90815290917fa66cc928b5edb82af9bd49922954155ab7b0942694bea4ce44661d9a8736c6885b8183106106605750509060206103c4928201016103b8565b6020919350806001915483858901015201910190918492610648565b602092506103c49491507fffffffffffffffffffffffffffffffffffffffffffffffffffffffffffffff001682840152151560051b8201016103b8565b92607f1692610399565b5060065f90815290917ff652222313e28459528d920b65115c16c04f3efc82aaedc97be59f3f377c0d3f5b81831061070657505090602061038092820101610374565b60209193508060019154838588010152019101909183926106ee565b602092506103809491507fffffffffffffffffffffffffffffffffffffffffffffffffffffffffffffff001682840152151560051b820101610374565b92607f1692610355565b611d29565b346101b65761077c36611cb7565b91610785612099565b6107c673ffffffffffffffffffffffffffffffffffffffff7f0000000000000000000000000000000000000000000000000000000000000000163314611e5e565b3073ffffffffffffffffffffffffffffffffffffffff821614610904575f928373ffffffffffffffffffffffffffffffffffffffff8194169161080a831515611ec3565b6040519060208201937fa9059cbb000000000000000000000000000000000000000000000000000000008552602483015260448201526044815261084f606482611d7e565b51925af161085b611f28565b816108cc575b501561086e576001600555005b60646040517f08c379a000000000000000000000000000000000000000000000000000000000815260206004820152600d60248201527f7472616e73666572206661696c000000000000000000000000000000000000006044820152fd5b80518015925082156108e1575b505081610861565b81925090602091810103126101b6576020015180151581036101b65781806108d9565b60646040517f08c379a000000000000000000000000000000000000000000000000000000000815260206004820152600460248201527f6d61696e000000000000000000000000000000000000000000000000000000006044820152fd5b346101b6575f7ffffffffffffffffffffffffffffffffffffffffffffffffffffffffffffffffc3601126101b657602060405173ffffffffffffffffffffffffffffffffffffffff7f0000000000000000000000000000000000000000000000000000000000000000168152f35b346101b65760407ffffffffffffffffffffffffffffffffffffffffffffffffffffffffffffffffc3601126101b657610a14610a0a611c94565b60243590336120d2565b602060405160018152f35b346101b6575f7ffffffffffffffffffffffffffffffffffffffffffffffffffffffffffffffffc3601126101b657602060405173ffffffffffffffffffffffffffffffffffffffff7f0000000000000000000000000000000000000000000000000000000000000000168152f35b346101b6575f7ffffffffffffffffffffffffffffffffffffffffffffffffffffffffffffffffc3601126101b6576040515f6004548060011c90600181168015610bb7575b60208310811461054057828552908115610b755750600114610b17575b610b1383610aff81850382611d7e565b604051918291602083526020830190611c51565b0390f35b60045f9081527f8a35acfbc15ff81a39ae7d344fd709f28e8600b4aa8c65c6b64bfe7fe36bd19b939250905b808210610b5b57509091508101602001610aff610aef565b919260018160209254838588010152019101909291610b43565b7fffffffffffffffffffffffffffffffffffffffffffffffffffffffffffffff001660208086019190915291151560051b84019091019150610aff9050610aef565b91607f1691610ad2565b346101b6575f7ffffffffffffffffffffffffffffffffffffffffffffffffffffffffffffffffc3601126101b65760206040516101908152f35b346101b6575f7ffffffffffffffffffffffffffffffffffffffffffffffffffffffffffffffffc3601126101b6576020600854604051908152f35b346101b65760207ffffffffffffffffffffffffffffffffffffffffffffffffffffffffffffffffc3601126101b65773ffffffffffffffffffffffffffffffffffffffff610c82611c94565b165f525f602052602060405f2054604051908152f35b60407ffffffffffffffffffffffffffffffffffffffffffffffffffffffffffffffffc3601126101b65760043562ffffff81168082036101b6576024359073ffffffffffffffffffffffffffffffffffffffff82168092036101b6575f6080604051610d0381611d62565b8281528260208201528260408201528260608201520152610d5b73ffffffffffffffffffffffffffffffffffffffff7f0000000000000000000000000000000000000000000000000000000000000000163314611dbf565b610d63612099565b600c5460ff8116156112df5760081c60ff166112815734156112235781156111c557305f525f60205260405f205492831561116757610da1906121c8565b9160405192610daf84611d62565b5f845230602085015282604085015260020b60608401525f6080840152604051907f6276cbbe000000000000000000000000000000000000000000000000000000008252610e4a600483018573ffffffffffffffffffffffffffffffffffffffff6080809282815116855282602082015116602086015262ffffff6040820151166040860152606081015160020b6060860152015116910152565b60a482015260208160c4815f73ffffffffffffffffffffffffffffffffffffffff7f0000000000000000000000000000000000000000000000000000000000000000165af180156110f65761112e575b5073ffffffffffffffffffffffffffffffffffffffff7f00000000000000000000000000000000000000000000000000000000000000001692610ede818530612264565b604051608081019080821067ffffffffffffffff831117611101576020916040527ffffffffffffffffffffffffffffffffffffffffffffffffffffffffffff2764c815261016482820191620d89b483526040810197858952606082015f8152604051998a9586947f5a6bcfda000000000000000000000000000000000000000000000000000000008652610fc0600487018d73ffffffffffffffffffffffffffffffffffffffff6080809282815116855282602082015116602086015262ffffff6040820151166040860152606081015160020b6060860152015116910152565b5160020b60a48601525160020b60c48501525160e4840152516101048301526101406101248301525f61014483015234905af180156110f6576110c4575b60a093506101007fffffffffffffffffffffffffffffffffffffffffffffffffffffffffffff00ff600c541617600c5560405191825260208201523460408201525f7fb0701d0262defecb05b41a72c1d5e9e8569f885b9af14c65ac26e101270a997660603093a360016005556110c2604051809273ffffffffffffffffffffffffffffffffffffffff6080809282815116855282602082015116602086015262ffffff6040820151166040860152606081015160020b6060860152015116910152565bf35b6020843d6020116110ee575b816110dd60209383611d7e565b810103126101b65760a09350610ffe565b3d91506110d0565b6040513d5f823e3d90fd5b7f4e487b71000000000000000000000000000000000000000000000000000000005f52604160045260245ffd5b6020813d60201161115f575b8161114760209383611d7e565b810103126101b657518060020b810315610e9a575f80fd5b3d915061113a565b60646040517f08c379a000000000000000000000000000000000000000000000000000000000815260206004820152600960248201527f6e6f20746f6b656e7300000000000000000000000000000000000000000000006044820152fd5b60646040517f08c379a000000000000000000000000000000000000000000000000000000000815260206004820152600760248201527f70726963653d30000000000000000000000000000000000000000000000000006044820152fd5b60646040517f08c379a000000000000000000000000000000000000000000000000000000000815260206004820152600860248201527f6e61746976653d300000000000000000000000000000000000000000000000006044820152fd5b60646040517f08c379a000000000000000000000000000000000000000000000000000000000815260206004820152600460248201527f646f6e65000000000000000000000000000000000000000000000000000000006044820152fd5b60646040517f08c379a000000000000000000000000000000000000000000000000000000000815260206004820152600a60248201527f6e6f74206d696e746564000000000000000000000000000000000000000000006044820152fd5b346101b6575f7ffffffffffffffffffffffffffffffffffffffffffffffffffffffffffffffffc3601126101b657602060ff600c54166040519015158152f35b346101b65760207ffffffffffffffffffffffffffffffffffffffffffffffffffffffffffffffffc3601126101b65760206113b9600435611f85565b604051908152f35b346101b6575f7ffffffffffffffffffffffffffffffffffffffffffffffffffffffffffffffffc3601126101b657602060405160128152f35b346101b65760207ffffffffffffffffffffffffffffffffffffffffffffffffffffffffffffffffc3601126101b6576004356008548110156115315760085f527ff3f7a9fe364faab93b216da50a3214154f22a0a2b415b23a84c8169e8b636ee301604051905f908054908160011c91600181168015611527575b602084108114610540578386529081156114e257506001146114a2575b610b1384610aff81860382611d7e565b5f90815260208120939250905b8082106114c857509091508101602001610aff82611492565b9192600181602092548385880101520191019092916114af565b7fffffffffffffffffffffffffffffffffffffffffffffffffffffffffffffff001660208087019190915292151560051b85019092019250610aff9150839050611492565b92607f1692611475565b7f4e487b71000000000000000000000000000000000000000000000000000000005f52603260045260245ffd5b346101b6575f7ffffffffffffffffffffffffffffffffffffffffffffffffffffffffffffffffc3601126101b657602060ff600c5460101c166040519015158152f35b346101b6576115af36611cb7565b9073ffffffffffffffffffffffffffffffffffffffff831692835f52600160205260405f2073ffffffffffffffffffffffffffffffffffffffff33165f5260205260405f20547fffffffffffffffffffffffffffffffffffffffffffffffffffffffffffffffff8110611628575b50610a1493506120d2565b8381106116cd5784156116a157331561167557610a14945f52600160205260405f2073ffffffffffffffffffffffffffffffffffffffff33165f526020528360405f20910390558461161d565b7f94280d62000000000000000000000000000000000000000000000000000000005f525f60045260245ffd5b7fe602df05000000000000000000000000000000000000000000000000000000005f525f60045260245ffd5b83907ffb8f41b2000000000000000000000000000000000000000000000000000000005f523360045260245260445260645ffd5b346101b6575f7ffffffffffffffffffffffffffffffffffffffffffffffffffffffffffffffffc3601126101b6576020600254604051908152f35b346101b6575f7ffffffffffffffffffffffffffffffffffffffffffffffffffffffffffffffffc3601126101b65760206040517f00000000000000000000000000000000000000000000000000000000000000008152f35b346101b65760407ffffffffffffffffffffffffffffffffffffffffffffffffffffffffffffffffc3601126101b65760043573ffffffffffffffffffffffffffffffffffffffff81168091036101b6575f808080936117f1612099565b61183273ffffffffffffffffffffffffffffffffffffffff7f0000000000000000000000000000000000000000000000000000000000000000163314611e5e565b61183d811515611ec3565b602435905af161184b611f28565b5015611858576001600555005b60646040517f08c379a000000000000000000000000000000000000000000000000000000000815260206004820152600b60248201527f6e6174697665206661696c0000000000000000000000000000000000000000006044820152fd5b346101b65760407ffffffffffffffffffffffffffffffffffffffffffffffffffffffffffffffffc3601126101b657610a146118f0611c94565b6024359033612264565b346101b6575f7ffffffffffffffffffffffffffffffffffffffffffffffffffffffffffffffffc3601126101b6576040515f6003548060011c906001811680156119c9575b60208310811461054057828552908115610b75575060011461196b57610b1383610aff81850382611d7e565b60035f9081527fc2575a0e9e593c00f959f8c92f12db2869c3395a3b0502d05e2516446f71f85b939250905b8082106119af57509091508101602001610aff610aef565b919260018160209254838588010152019101909291611997565b91607f169161193f565b346101b65760207ffffffffffffffffffffffffffffffffffffffffffffffffffffffffffffffffc3601126101b657600435611a4673ffffffffffffffffffffffffffffffffffffffff7f0000000000000000000000000000000000000000000000000000000000000000163314611dbf565b60ff600c5416611b87578015611b2957807fc05506c4e8545dae4e02438bcafa5053d94533b31d7ba2a0af905f5631fcba966060611a85602094611f85565b92611ab0847f0000000000000000000000000000000000000000000000000000000000000000612003565b611aba8130612003565b60017fffffffffffffffffffffffffffffffffffffffffffffffffffffffffffffff00600c541617600c55611aef8185611e24565b93604051918252858201527f00000000000000000000000000000000000000000000000000000000000000006040820152a1604051908152f35b60646040517f08c379a000000000000000000000000000000000000000000000000000000000815260206004820152600560248201527f6c69713d300000000000000000000000000000000000000000000000000000006044820152fd5b60646040517f08c379a000000000000000000000000000000000000000000000000000000000815260206004820152600660248201527f6d696e74656400000000000000000000000000000000000000000000000000006044820152fd5b346101b6575f7ffffffffffffffffffffffffffffffffffffffffffffffffffffffffffffffffc3601126101b65760209073ffffffffffffffffffffffffffffffffffffffff7f0000000000000000000000000000000000000000000000000000000000000000168152f35b907fffffffffffffffffffffffffffffffffffffffffffffffffffffffffffffffe0601f602080948051918291828752018686015e5f8582860101520116010190565b6004359073ffffffffffffffffffffffffffffffffffffffff821682036101b657565b7ffffffffffffffffffffffffffffffffffffffffffffffffffffffffffffffffc60609101126101b65760043573ffffffffffffffffffffffffffffffffffffffff811681036101b6579060243573ffffffffffffffffffffffffffffffffffffffff811681036101b6579060443590565b346101b6575f7ffffffffffffffffffffffffffffffffffffffffffffffffffffffffffffffffc3601126101b657602060405160648152f35b60a0810190811067ffffffffffffffff82111761110157604052565b90601f7fffffffffffffffffffffffffffffffffffffffffffffffffffffffffffffffe0910116810190811067ffffffffffffffff82111761110157604052565b15611dc657565b60646040517f08c379a000000000000000000000000000000000000000000000000000000000815260206004820152600860248201527f6e6f7420696e69740000000000000000000000000000000000000000000000006044820152fd5b91908201809211611e3157565b7f4e487b71000000000000000000000000000000000000000000000000000000005f52601160045260245ffd5b15611e6557565b60646040517f08c379a000000000000000000000000000000000000000000000000000000000815260206004820152600760248201527f6e6f7420707562000000000000000000000000000000000000000000000000006044820152fd5b15611eca57565b60646040517f08c379a000000000000000000000000000000000000000000000000000000000815260206004820152600460248201527f746f3d30000000000000000000000000000000000000000000000000000000006044820152fd5b3d15611f80573d9067ffffffffffffffff82116111015760405191611f7560207fffffffffffffffffffffffffffffffffffffffffffffffffffffffffffffffe0601f8401160184611d7e565b82523d5f602084013e565b606090565b7f00000000000000000000000000000000000000000000000000000000000000009081810290808204831490151715611e315781620186a00391620186a08311611e3157620186a014611fd6570490565b7f4e487b71000000000000000000000000000000000000000000000000000000005f52601260045260245ffd5b73ffffffffffffffffffffffffffffffffffffffff1690811561206d577fddf252ad1be2c89b69c2b068fc378daa952ba7f163c4a11628f55a4df523b3ef6020826120515f94600254611e24565b60025584845283825260408420818154019055604051908152a3565b7fec442f05000000000000000000000000000000000000000000000000000000005f525f60045260245ffd5b6002600554146120aa576002600555565b7f3ee5aeb5000000000000000000000000000000000000000000000000000000005f5260045ffd5b73ffffffffffffffffffffffffffffffffffffffff1690811561219c5773ffffffffffffffffffffffffffffffffffffffff1691821561206d57815f525f60205260405f205481811061216a57817fddf252ad1be2c89b69c2b068fc378daa952ba7f163c4a11628f55a4df523b3ef92602092855f525f84520360405f2055845f525f825260405f20818154019055604051908152a3565b827fe450d38c000000000000000000000000000000000000000000000000000000005f5260045260245260445260645ffd5b7f96c6fd1e000000000000000000000000000000000000000000000000000000005f525f60045260245ffd5b62ffffff166064811461225e576101f4811461225857610bb88114612252576127101461224d5760646040517f08c379a000000000000000000000000000000000000000000000000000000000815260206004820152600760248201527f62616420666565000000000000000000000000000000000000000000000000006044820152fd5b60c890565b50603c90565b50600a90565b50600190565b73ffffffffffffffffffffffffffffffffffffffff169081156116a15773ffffffffffffffffffffffffffffffffffffffff169182156116755760207f8c5be1e5ebec7d5bd14f71427d1e84f3dd0314c0f7b2291e5b200ac8c7c3b92591835f526001825260405f20855f5282528060405f2055604051908152a356fea26469706673582212208bce0c3a605c34c609909a804f385b955cae9befc6943a03bab03221f4c99c5064736f6c634300081e0033f3f7a9fe364faab93b216da50a3214154f22a0a2b415b23a84c8169e8b636ee3a2646970667358221220ee78853835ca09e16139afb36d1aebc2e1025577e905cb7b11b934fd9c5fe13b64736f6c634300081e0033",
    "linkReferences": {}
  },
  "methodIdentifiers": {
    "createTokenAndPool(string,string,(string,string,string[],string,string,uint256),uint24,uint256)": "5b0e6717",
    "isOfficialToken(address)": "5e519cdf",
    "listOfficialTokens(uint256,uint256)": "ebf15cee",
    "modifyLiquidityRouter()": "0094af0d",
    "officialTokenAt(uint256)": "3e77df45",
    "poolManager()": "dc4c90d3",
    "totalOfficialTokens()": "28973859",
    "verifyOfficial(address)": "5d2246c4"
  },
  "id": 36
}