{"abi":[{"type":"constructor","inputs":[{"name":"_identityRegistry","type":"address","internalType":"address"}],"stateMutability":"nonpayable"},{"type":"function","name":"_clientExists","inputs":[{"name":"","type":"uint256","internalType":"uint256"},{"name":"","type":"address","internalType":"address"}],"outputs":[{"name":"","type":"bool","internalType":"bool"}],"stateMutability":"view"},{"type":"function","name":"_clients","inputs":[{"name":"","type":"uint256","internalType":"uint256"},{"name":"","type":"uint256","internalType":"uint256"}],"outputs":[{"name":"","type":"address","internalType":"address"}],"stateMutability":"view"},{"type":"function","name":"_feedback","inputs":[{"name":"","type":"uint256","internalType":"uint256"},{"name":"","type":"address","internalType":"address"},{"name":"","type":"uint64","internalType":"uint64"}],"outputs":[{"name":"score","type":"uint8","internalType":"uint8"},{"name":"tag1","type":"bytes32","internalType":"bytes32"},{"name":"tag2","type":"bytes32","internalType":"bytes32"},{"name":"isRevoked","type":"bool","internalType":"bool"}],"stateMutability":"view"},{"type":"function","name":"_lastIndex","inputs":[{"name":"","type":"uint256","internalType":"uint256"},{"name":"","type":"address","internalType":"address"}],"outputs":[{"name":"","type":"uint64","internalType":"uint64"}],"stateMutability":"view"},{"type":"function","name":"_responderExists","inputs":[{"name":"","type":"uint256","internalType":"uint256"},{"name":"","type":"address","internalType":"address"},{"name":"","type":"uint64","internalType":"uint64"},{"name":"","type":"address","internalType":"address"}],"outputs":[{"name":"","type":"bool","internalType":"bool"}],"stateMutability":"view"},{"type":"function","name":"_responders","inputs":[{"name":"","type":"uint256","internalType":"uint256"},{"name":"","type":"address","internalType":"address"},{"name":"","type":"uint64","internalType":"uint64"},{"name":"","type":"uint256","internalType":"uint256"}],"outputs":[{"name":"","type":"address","internalType":"address"}],"stateMutability":"view"},{"type":"function","name":"_responseCount","inputs":[{"name":"","type":"uint256","internalType":"uint256"},{"name":"","type":"address","internalType":"address"},{"name":"","type":"uint64","internalType":"uint64"},{"name":"","type":"address","internalType":"address"}],"outputs":[{"name":"","type":"uint64","internalType":"uint64"}],"stateMutability":"view"},{"type":"function","name":"appendResponse","inputs":[{"name":"agentId","type":"uint256","internalType":"uint256"},{"name":"clientAddress","type":"address","internalType":"address"},{"name":"feedbackIndex","type":"uint64","internalType":"uint64"},{"name":"responseUri","type":"string","internalType":"string"},{"name":"responseHash","type":"bytes32","internalType":"bytes32"}],"outputs":[],"stateMutability":"nonpayable"},{"type":"function","name":"decodeScores","inputs":[{"name":"tag2","type":"bytes32","internalType":"bytes32"}],"outputs":[{"name":"selfScore","type":"uint128","internalType":"uint128"},{"name":"opponentScore","type":"uint128","internalType":"uint128"}],"stateMutability":"pure"},{"type":"function","name":"getAgentMatchCount","inputs":[{"name":"agentId","type":"uint256","internalType":"uint256"}],"outputs":[{"name":"","type":"uint256","internalType":"uint256"}],"stateMutability":"view"},{"type":"function","name":"getAgentMatchStats","inputs":[{"name":"agentId","type":"uint256","internalType":"uint256"}],"outputs":[{"name":"totalMatches","type":"uint256","internalType":"uint256"},{"name":"wins","type":"uint256","internalType":"uint256"},{"name":"draws","type":"uint256","internalType":"uint256"},{"name":"losses","type":"uint256","internalType":"uint256"},{"name":"totalSelfScore","type":"uint256","internalType":"uint256"},{"name":"totalOpponentScore","type":"uint256","internalType":"uint256"}],"stateMutability":"view"},{"type":"function","name":"getAgentMatches","inputs":[{"name":"agentId","type":"uint256","internalType":"uint256"}],"outputs":[{"name":"","type":"tuple[]","internalType":"struct ServerReputationRegistry.ServerFeedback[]","components":[{"name":"agentId","type":"uint256","internalType":"uint256"},{"name":"opponentAgentId","type":"uint256","internalType":"uint256"},{"name":"result","type":"uint8","internalType":"uint8"},{"name":"selfScore","type":"uint128","internalType":"uint128"},{"name":"opponentScore","type":"uint128","internalType":"uint128"},{"name":"matchLogUri","type":"string","internalType":"string"},{"name":"matchLogHash","type":"bytes32","internalType":"bytes32"},{"name":"timestamp","type":"uint256","internalType":"uint256"}]}],"stateMutability":"view"},{"type":"function","name":"getAgentMatchesPaginated","inputs":[{"name":"agentId","type":"uint256","internalType":"uint256"},{"name":"offset","type":"uint256","internalType":"uint256"},{"name":"limit","type":"uint256","internalType":"uint256"}],"outputs":[{"name":"","type":"tuple[]","internalType":"struct ServerReputationRegistry.ServerFeedback[]","components":[{"name":"agentId","type":"uint256","internalType":"uint256"},{"name":"opponentAgentId","type":"uint256","internalType":"uint256"},{"name":"result","type":"uint8","internalType":"uint8"},{"name":"selfScore","type":"uint128","internalType":"uint128"},{"name":"opponentScore","type":"uint128","internalType":"uint128"},{"name":"matchLogUri","type":"string","internalType":"string"},{"name":"matchLogHash","type":"bytes32","internalType":"bytes32"},{"name":"timestamp","type":"uint256","internalType":"uint256"}]}],"stateMutability":"view"},{"type":"function","name":"getAuthorizedServers","inputs":[],"outputs":[{"name":"","type":"address[]","internalType":"address[]"}],"stateMutability":"view"},{"type":"function","name":"getClients","inputs":[{"name":"agentId","type":"uint256","internalType":"uint256"}],"outputs":[{"name":"","type":"address[]","internalType":"address[]"}],"stateMutability":"view"},{"type":"function","name":"getHeadToHeadMatches","inputs":[{"name":"agentId1","type":"uint256","internalType":"uint256"},{"name":"agentId2","type":"uint256","internalType":"uint256"}],"outputs":[{"name":"","type":"tuple[]","internalType":"struct ServerReputationRegistry.ServerFeedback[]","components":[{"name":"agentId","type":"uint256","internalType":"uint256"},{"name":"opponentAgentId","type":"uint256","internalType":"uint256"},{"name":"result","type":"uint8","internalType":"uint8"},{"name":"selfScore","type":"uint128","internalType":"uint128"},{"name":"opponentScore","type":"uint128","internalType":"uint128"},{"name":"matchLogUri","type":"string","internalType":"string"},{"name":"matchLogHash","type":"bytes32","internalType":"bytes32"},{"name":"timestamp","type":"uint256","internalType":"uint256"}]}],"stateMutability":"view"},{"type":"function","name":"getIdentityRegistry","inputs":[],"outputs":[{"name":"","type":"address","internalType":"address"}],"stateMutability":"view"},{"type":"function","name":"getLastIndex","inputs":[{"name":"agentId","type":"uint256","internalType":"uint256"},{"name":"clientAddress","type":"address","internalType":"address"}],"outputs":[{"name":"","type":"uint64","internalType":"uint64"}],"stateMutability":"view"},{"type":"function","name":"getResponseCount","inputs":[{"name":"agentId","type":"uint256","internalType":"uint256"},{"name":"clientAddress","type":"address","internalType":"address"},{"name":"feedbackIndex","type":"uint64","internalType":"uint64"},{"name":"responders","type":"address[]","internalType":"address[]"}],"outputs":[{"name":"count","type":"uint64","internalType":"uint64"}],"stateMutability":"view"},{"type":"function","name":"getSummary","inputs":[{"name":"agentId","type":"uint256","internalType":"uint256"},{"name":"clientAddresses","type":"address[]","internalType":"address[]"},{"name":"tag1","type":"bytes32","internalType":"bytes32"},{"name":"tag2","type":"bytes32","internalType":"bytes32"}],"outputs":[{"name":"count","type":"uint64","internalType":"uint64"},{"name":"averageScore","type":"uint8","internalType":"uint8"}],"stateMutability":"view"},{"type":"function","name":"giveFeedback","inputs":[{"name":"agentId","type":"uint256","internalType":"uint256"},{"name":"score","type":"uint8","internalType":"uint8"},{"name":"tag1","type":"bytes32","internalType":"bytes32"},{"name":"tag2","type":"bytes32","internalType":"bytes32"},{"name":"feedbackUri","type":"string","internalType":"string"},{"name":"feedbackHash","type":"bytes32","internalType":"bytes32"},{"name":"feedbackAuth","type":"bytes","internalType":"bytes"}],"outputs":[],"stateMutability":"nonpayable"},{"type":"function","name":"identityRegistry","inputs":[],"outputs":[{"name":"","type":"address","internalType":"address"}],"stateMutability":"view"},{"type":"function","name":"isAuthorizedServer","inputs":[{"name":"serverAddress","type":"address","internalType":"address"}],"outputs":[{"name":"","type":"bool","internalType":"bool"}],"stateMutability":"view"},{"type":"function","name":"owner","inputs":[],"outputs":[{"name":"","type":"address","internalType":"address"}],"stateMutability":"view"},{"type":"function","name":"readAllFeedback","inputs":[{"name":"agentId","type":"uint256","internalType":"uint256"},{"name":"clientAddresses","type":"address[]","internalType":"address[]"},{"name":"tag1","type":"bytes32","internalType":"bytes32"},{"name":"tag2","type":"bytes32","internalType":"bytes32"},{"name":"includeRevoked","type":"bool","internalType":"bool"}],"outputs":[{"name":"clients","type":"address[]","internalType":"address[]"},{"name":"scores","type":"uint8[]","internalType":"uint8[]"},{"name":"tag1s","type":"bytes32[]","internalType":"bytes32[]"},{"name":"tag2s","type":"bytes32[]","internalType":"bytes32[]"},{"name":"revokedStatuses","type":"bool[]","internalType":"bool[]"}],"stateMutability":"view"},{"type":"function","name":"readFeedback","inputs":[{"name":"agentId","type":"uint256","internalType":"uint256"},{"name":"clientAddress","type":"address","internalType":"address"},{"name":"index","type":"uint64","internalType":"uint64"}],"outputs":[{"name":"score","type":"uint8","internalType":"uint8"},{"name":"tag1","type":"bytes32","internalType":"bytes32"},{"name":"tag2","type":"bytes32","internalType":"bytes32"},{"name":"isRevoked","type":"bool","internalType":"bool"}],"stateMutability":"view"},{"type":"function","name":"registerServer","inputs":[{"name":"serverAddress","type":"address","internalType":"address"}],"outputs":[],"stateMutability":"nonpayable"},{"type":"function","name":"revokeFeedback","inputs":[{"name":"agentId","type":"uint256","internalType":"uint256"},{"name":"feedbackIndex","type":"uint64","internalType":"uint64"}],"outputs":[],"stateMutability":"nonpayable"},{"type":"function","name":"submitMatchResult","inputs":[{"name":"agentId","type":"uint256","internalType":"uint256"},{"name":"opponentAgentId","type":"uint256","internalType":"uint256"},{"name":"result","type":"uint8","internalType":"uint8"},{"name":"selfScore","type":"uint128","internalType":"uint128"},{"name":"opponentScore","type":"uint128","internalType":"uint128"},{"name":"matchLogUri","type":"string","internalType":"string"},{"name":"matchLogHash","type":"bytes32","internalType":"bytes32"}],"outputs":[],"stateMutability":"nonpayable"},{"type":"function","name":"unregisterServer","inputs":[{"name":"serverAddress","type":"address","internalType":"address"}],"outputs":[],"stateMutability":"nonpayable"},{"type":"event","name":"FeedbackRevoked","inputs":[{"name":"agentId","type":"uint256","indexed":true,"internalType":"uint256"},{"name":"clientAddress","type":"address","indexed":true,"internalType":"address"},{"name":"feedbackIndex","type":"uint64","indexed":true,"internalType":"uint64"}],"anonymous":false},{"type":"event","name":"MatchResultSubmitted","inputs":[{"name":"agentId","type":"uint256","indexed":true,"internalType":"uint256"},{"name":"opponentAgentId","type":"uint256","indexed":true,"internalType":"uint256"},{"name":"serverAddress","type":"address","indexed":true,"internalType":"address"},{"name":"result","type":"uint8","indexed":false,"internalType":"uint8"},{"name":"selfScore","type":"uint128","indexed":false,"internalType":"uint128"},{"name":"opponentScore","type":"uint128","indexed":false,"internalType":"uint128"},{"name":"matchLogUri","type":"string","indexed":false,"internalType":"string"}],"anonymous":false},{"type":"event","name":"NewFeedback","inputs":[{"name":"agentId","type":"uint256","indexed":true,"internalType":"uint256"},{"name":"clientAddress","type":"address","indexed":true,"internalType":"address"},{"name":"score","type":"uint8","indexed":false,"internalType":"uint8"},{"name":"tag1","type":"bytes32","indexed":true,"internalType":"bytes32"},{"name":"tag2","type":"bytes32","indexed":false,"internalType":"bytes32"},{"name":"feedbackUri","type":"string","indexed":false,"internalType":"string"},{"name":"feedbackHash","type":"bytes32","indexed":false,"internalType":"bytes32"}],"anonymous":false},{"type":"event","name":"ResponseAppended","inputs":[{"name":"agentId","type":"uint256","indexed":true,"internalType":"uint256"},{"name":"clientAddress","type":"address","indexed":true,"internalType":"address"},{"name":"feedbackIndex","type":"uint64","indexed":false,"internalType":"uint64"},{"name":"responder","type":"address","indexed":true,"internalType":"address"},{"name":"responseUri","type":"string","indexed":false,"internalType":"string"},{"name":"responseHash","type":"bytes32","indexed":false,"internalType":"bytes32"}],"anonymous":false},{"type":"event","name":"ServerRegistered","inputs":[{"name":"serverAddress","type":"address","indexed":true,"internalType":"address"}],"anonymous":false},{"type":"event","name":"ServerUnregistered","inputs":[{"name":"serverAddress","type":"address","indexed":true,"internalType":"address"}],"anonymous":false},{"type":"error","name":"ECDSAInvalidSignature","inputs":[]},{"type":"error","name":"ECDSAInvalidSignatureLength","inputs":[{"name":"length","type":"uint256","internalType":"uint256"}]},{"type":"error","name":"ECDSAInvalidSignatureS","inputs":[{"name":"s","type":"bytes32","internalType":"bytes32"}]}],"bytecode":{"object":"0x60a0346100b957601f613a8b38819003918201601f19168301916001600160401b038311848410176100bd578084926020946040528339810103126100b957516001600160a01b0381168082036100b95715610085576080526040516139b990816100d2823960805181818161146c0152818161200101528181612aaf01526136450152f35b60405162461bcd60e51b815260206004820152600c60248201526b626164206964656e7469747960a01b6044820152606490fd5b5f80fd5b634e487b7160e01b5f52604160045260245ffdfe60806040526004361015610011575f80fd5b5f5f3560e01c8063036666b414612a145780630591a91c146129ea578063134e18f4146103bf578063155e5bbd14611f69578063232b081014611ea55780632fd0ad9714611e2957806331259cff14611bf457806342dd519c14611b735780634ab3ca9914611a595780634aec3aa5146111f25780635fe4b9861461116957806361f33b78146110ea5780636476bafe14610f6a5780636e04cacd14610d4f5780637c2388db14610c7c57806380b875941461079457806385b273cc1461076257806388f03a69146105fa57806389e02eb9146105bb5780638da5cb5b146105a057806390048a2e146104a45780639d2abeae14610474578063a19ec2dd1461040e578063ab3f4c4c146103c4578063bc4d861b146103bf578063c2349ab214610365578063d0bca50014610349578063d37f05b814610212578063d87b21fc146101b45763f2d8175914610164575f80fd5b346101b15760403660031901126101b157604061017f612b0b565b9160043581526001602052209060018060a01b03165f5260205260206001600160401b0360405f205416604051908152f35b80fd5b50346101b1576040906101c636612d15565b92845260026020908152949093206001600160a01b039182165f90815290855260408082206001600160401b039586168352865280822092909316815290845281902054905191168152f35b50346101b15760203660031901126101b15760043581526009602052604081208054909180808080805b868110610269575060c09650604051958652602086015260408501526060840152608083015260a0820152f35b94610274868961322e565b509460028601549260ff8416600281145f146102c65750916001600160801b0360036102b56102bf94836102a960019861327f565b985b60081c16906131dc565b98015416906131dc565b950161023c565b93949093600181036102f75750916001600160801b0360036102b56102bf94836102f160019861327f565b996102ab565b9490941561031b575b916001600160801b0360036102b56102bf94836001976102ab565b94916001600160801b0360036102b56102bf948361033a60019861327f565b9a959750509450505050610300565b50346101b15760403660031901126101b157604061017f612b0b565b50346101b15760a03660031901126101b15761037f612b0b565b610387612b4b565b90606435916001600160401b0383116103bb576103ab6103b8933690600401612ade565b9160843593600435613444565b80f35b8380fd5b612a9a565b50346101b15760403660031901126101b15760406103e0612b0b565b9160043581526006602052209060018060a01b03165f52602052602060ff60405f2054166040519015158152f35b50346101b15760409061042036612d15565b949192849194526004602052209060018060a01b03165f526020526001600160401b0360405f2091165f5260205260405f209060018060a01b03165f52602052602060ff60405f2054166040519015158152f35b50346101b15760203660031901126101b15760406004356001600160801b038251918060801c8352166020820152f35b50346101b157806003193601126101b15760085481805b82811061055557506104cc9061330d565b9180805b8381106104f157604051602080825281906104ed90820188612ca6565b0390f35b806104fd600192612a59565b838060a01b0391549060031b1c168352600760205260ff604084205416610525575b016104d0565b61052e81612a59565b838060a01b0391549060031b1c1661054f6105488661327f565b95886131ab565b5261051f565b61055e81612a59565b905460039190911b1c6001600160a01b031684526007602052604084205460ff1661058c575b6001016104bb565b9061059860019161327f565b919050610584565b50346101b157806003193601126101b1576020604051308152f35b50346101b15760203660031901126101b15760209060ff906040906001600160a01b036105e6612b21565b168152600784522054166040519015158152f35b50346101b15760203660031901126101b157610614612b21565b61061f303314613247565b6001600160a01b03811690811561072457818352600760205260ff6040842054166106df57818352600760205260408320805460ff1916600117905560085490600160401b8210156106cb576106808260016106a494016008556008612a85565b81546001600160a01b0393841660039290921b91821b9390911b1916919091179055565b7f24471cbbd55a42543b7aaf86db044bb2022220e151ebba9a888594552e9d343b8280a280f35b634e487b7160e01b5f52604160045260245ffd5b60405162461bcd60e51b815260206004820152601960248201527f53657276657220616c72656164792072656769737465726564000000000000006044820152606490fd5b60405162461bcd60e51b8152602060048201526016602482015275496e76616c696420736572766572206164647265737360501b6044820152606490fd5b50346101b15760603660031901126101b1576104ed61078860443560243560043561333f565b60405191829182612b9b565b50346101b15760a03660031901126101b1576024356001600160401b038111610c78576107c5903690600401612c76565b60843592918315158403610c74578115610c0e576107e4913691613157565b915b8190825b845181101561092b5760043584526001602052604084206001600160a01b0361081383886131ab565b511660018060a01b03165f526020526001600160401b0360405f20541660015b816001600160401b038216111561084e5750506001016107ea565b936004969296959195358252816020526040822060018060a01b0361087389866131ab565b511660018060a01b03165f5260205260405f206001600160401b0386165f5260205260405f208415851561091d575b61090257604435151560443561090d575b610902576064351515906064356108f1575b506108e7576108d66108dc9161327f565b946131bf565b959195949094610833565b936108dc906131bf565b60020154606435141590505f6108c5565b50936108dc906131bf565b50604435600182015414156108b3565b5060ff6003820154166108a2565b506109358261330d565b9161093f81612ffd565b61094c6040519182612e15565b81815261095882612ffd565b601f190136602083013761096b8261330d565b936109758361330d565b9661099861098285612ffd565b946109906040519687612e15565b808652612ffd565b601f19013660208601378694875b8251811015610b515760043589526001602052604089206001600160a01b036109cf83866131ab565b511660018060a01b03165f526020526001600160401b0360405f20541660015b816001600160401b0382161115610a0a5750506001016109a6565b9760049b929b9a919a35825281602052604082208c610a3060018060a01b0391886131ab565b511660018060a01b03165f5260205260405f206001600160401b038a165f5260205260405f2084158515610b43575b610b28576044351515604435610b33575b610b28578a8d6064351515606435610b18575b610b0b576003610afa9385938b610ab3610b00988d610aab60ff9860018060a01b03926131ab565b5116926131ab565b5281548416610ac2868f6131ab565b52610ad2856001840154926131ab565b526002810154610ae2858a6131ab565b52015416610af0828c6131ab565b901515905261327f565b986131bf565b9a919a9990996109ef565b50505097610b00906131bf565b5060643560028401541415610a83565b5097610b00906131bf565b5060443560018201541415610a70565b5060ff600382015416610a5f565b610b6e84878b8d898d60405196879660a0885260a0880190612ca6565b868103602088015260208084519283815201930190855b818110610bf25750505081610ba59187610bb39594036040890152612ce2565b908582036060870152612ce2565b8381036080850152602080845192838152019301915b818110610bd7575050500390f35b82511515845285945060209384019390920191600101610bc9565b825160ff16855289985060209485019490920191600101610b85565b505060043581526005602052604081206040518082602082945493848152019085526020852092855b818110610c52575050610c4c92500382612e15565b916107e6565b84546001600160a01b0316835260019485019486945060209093019201610c37565b8280fd5b5080fd5b50346101b157610c8b36612a43565b9082526009602052604082208054919280805b848110610d1d5750610caf9061328d565b93815b848110610cc757604051806104ed8882612b9b565b80826001610cd681948861322e565b50015414610ce5575b01610cb2565b610d17610cf2828761322e565b5094610d06610d008261327f565b9661304c565b610d10828b6131ab565b52886131ab565b50610cdf565b856001610d2a838761322e565b50015414610d3b575b600101610c9e565b90610d4760019161327f565b919050610d33565b50346101b15760803660031901126101b157600435610d6c612b0b565b610d74612b4b565b906064356001600160401b038111610f6657610d94903690600401612c76565b85939092906001600160a01b038216610ec2575050838552600560205260408520936040518086602082985493848152019089526020892092895b818110610ea0575050610de492500386612e15565b855b8551811015610e84578187526001602052604087206001600160a01b03610e0d83896131ab565b511660018060a01b03165f526020526001600160401b0360405f2054166001905b806001600160401b0383161115610e49575050600101610de6565b9095610e78610e7e91610e7288888b8d610e6a8a60018060a01b03926131ab565b51168a6136b0565b90612eeb565b966131bf565b90610e2e565b505050509050602091505b6001600160401b0360405191168152f35b84546001600160a01b031683526001948501948a945060209093019201610dcf565b6001600160401b038197929394959716155f14610f5157508085604092979697959493955260016020522060018060a01b0384165f526020526001600160401b0360405f205416926001955b846001600160401b0388161115610f2d57505050505060209150610e8f565b9091929394610e78610f4691610e7287878b88886136b0565b959493929190610f0e565b91905060209550610f61946136b0565b610e8f565b8480fd5b50346101b15760203660031901126101b157610f84612b21565b610f8f303314613247565b6001600160a01b03168082526007602052604082205460ff16156110ad57808252600760205260408220805460ff19169055815b600854808210156110a65782610fd883612a59565b905460039190911b1c6001600160a01b031614610ff85750600101610fc3565b5f198101908111611092579061068061101361102b93612a59565b905460039190911b1c6001600160a01b031691612a59565b600854801561107e575f190161104081612a59565b81549060018060a01b039060031b1b191690556008555b7f3e58729e291f19827fec14894fb0c325321f5d8fa00c5d9fd490288371c7e5ab8280a280f35b634e487b7160e01b83526031600452602483fd5b634e487b7160e01b84526011600452602484fd5b5050611057565b60405162461bcd60e51b815260206004820152601560248201527414d95c9d995c881b9bdd081c9959da5cdd195c9959605a1b6044820152606490fd5b50346101b1576040906110fc36612b61565b9183526020838152939092206001600160a01b039092165f90815291835260408083206001600160401b03909216835290835290819020805460018201546002830154600390930154845160ff938416815295860191909152928401919091521615156060820152608090f35b50346101b15760803660031901126101b157611183612b0b565b9061118c612b4b565b6064359260043583526003602052604083209060018060a01b03165f526020526001600160401b0360405f2091165f5260205260405f209081548310156101b15760206111d98484612a85565b905460405160039290921b1c6001600160a01b03168152f35b50346101b15760e03660031901126101b15760443560ff81168103611a55576064356001600160801b0381168103611a5557608435906001600160801b0382168203611a555760a4356001600160401b038111610f6657611257903690600401612ade565b919092338652600760205260ff60408720541615611a1057600260ff8616116119c0576024356004351461197b57611298611293600435613628565b612d9b565b6112a3602435613628565b156119365760043586526009602052604086206040516112c281612df9565b6004358152602081019160243583526040820160ff8916815260608301906001600160801b038716825260808401916001600160801b0387168352611308368a8c6131e9565b9360a0860194855260c43560c08701524260e0870152805490600160401b821015611922579061133d9160018201815561322e565b96909661190e578551875551600187015560ff80600288019351161660ff1983541617825551610100600160881b0382549160081b1690610100600160881b0319161790556001600160801b03600385019151166001600160801b0319825416179055518051906001600160401b0382116118fa576113bf6004850154613014565b601f81116118b5575b50602090601f83116001146118455791806006949260e0948d9261183a575b50508160011b915f199060031b1c19161760048501555b60c0810151600585015501519101556004358652600160209081526040808820335f90815292529020546001600160401b0316806118185750611447606460ff87161115612d63565b611455611293600435613628565b6040516331a9108f60e11b815260048035908201527f00000000000000000000000000000000000000000000000000000000000000006001600160a01b03169290602081602481875afa9081156117ee5788916117f9575b50336001600160a01b0382161415908161177a575b50806116ec575b6001600160801b039350906114de8492612e6d565b6004358852600160209081526040808a20335f908152925290205461150b906001600160401b0316612eb9565b6115a960405161151a81612dde565b60ff8a16815260038b6020830160243581526040840190888a1689198960801b16178252604060608601938085526004358152806020522060018060a01b0333165f5260205260405f206001600160401b0388165f5260205260ff8060405f209651161660ff1986541617855551600185015551600284015551151591019060ff801983541691151516179055565b600435808a52600160209081526040808c20335f818152918452828220805467ffffffffffffffff19166001600160401b039790971696909617909555928c5260068252808c20938352929052205460ff16156116ab575b60405186887f54b3254e4cc01969e70376d20390cc2f6af90539d9adaa78a53ebcda17f78154602435938061164c898c3397600435978c60c43594168d198d60801b16179086612f50565b0390a45b60ff60405197168752166020860152166040840152608060608401527f674d4c00ad3e56cc83612fef09dc66fcf14f287027a3e2673bfd0f7c35938f2d3393806116a560243595600435956080840191612f30565b0390a480f35b600435885260056020526116c23360408a20612f0b565b6004358852600660209081526040808a20335f90815292529020805460ff19166001179055611601565b5060206024936040519485809263020604bf60e21b825260043560048301525afa90811561176f576114de6001600160801b03949285938a91611740575b50919250506001600160a01b03163314156114c9565b611762915060203d602011611768575b61175a8183612e15565b810190612e36565b5f61172a565b503d611750565b6040513d89823e3d90fd5b60405163e985e9c560e01b81526001600160a01b039190911660048201523360248201529050602081604481875afa9081156117ee5788916117bf575b50155f6114c2565b6117e1915060203d6020116117e7575b6117d98183612e15565b810190612e55565b5f6117b7565b503d6117cf565b6040513d8a823e3d90fd5b611812915060203d6020116117685761175a8183612e15565b5f6114ad565b6001600160801b03926118358492868860c4359233600435613444565b611650565b015190505f806113e7565b90600485018b52808b20918b5b601f198516811061189d5750926006949260019260e09583601f19811610611885575b505050811b0160048501556113fe565b01515f1960f88460031b161c191690555f8080611875565b91926020600181928685015181550194019201611852565b600485018b5260208b20601f840160051c8101602085106118f3575b8c601f840160051c830182106118e9575050506113c8565b81556001016118d1565b50806118d1565b634e487b7160e01b8a52604160045260248afd5b634e487b7160e01b8d5260048d905260248dfd5b634e487b7160e01b8e52604160045260248efd5b60405162461bcd60e51b815260206004820152601760248201527f4f70706f6e656e7420646f6573206e6f742065786973740000000000000000006044820152606490fd5b60405162461bcd60e51b815260206004820152601860248201527f43616e6e6f7420706c617920616761696e73742073656c6600000000000000006044820152606490fd5b60405162461bcd60e51b815260206004820152602260248201527f496e76616c696420726573756c743a206d75737420626520302c20312c206f72604482015261101960f11b6064820152608490fd5b60405162461bcd60e51b815260206004820152601860248201527f4e6f7420616e20617574686f72697a65642073657276657200000000000000006044820152606490fd5b5f80fd5b50346101b15760403660031901126101b157600435602435906001600160401b038216809203611a5557611a8e821515612f7b565b808352600160209081526040808520335f9081529252902054611abc906001600160401b0316831115612fbb565b80835260208381526040808520335f90815290835281812085825290925290206003015460ff16611b3c5780835260208381526040808520335f81815291845282822086835290935220600301805460ff19166001179055907f25156fd3288212246d8b008d5921fde376c71ed14ac2e072a506eb06fde6d09d8480a480f35b60405162461bcd60e51b815260206004820152600f60248201526e105b1c9958591e481c995d9bdad959608a1b6044820152606490fd5b50346101b15760203660031901126101b1576004358152600560205260408120604051918260208354918281520192825260208220915b818110611bd5576104ed85611bc181870382612e15565b604051918291602083526020830190612ca6565b82546001600160a01b0316845260209093019260019283019201611baa565b50346101b15760803660031901126101b1576004356024356001600160401b038111610c7457611c28903690600401612c76565b604435939160643591908115611dc457611c43913691613157565b91935b849283928015159183151590855b8151811015611d7457888a52600160205260408a206001600160a01b03611c7b83856131ab565b511660018060a01b03165f526020526001600160401b0360405f20541660015b816001600160401b0382161115611cb6575050600101611c54565b8a8c5260208c905260408c20929b919a9899909891926001600160a01b03611cde8e876131ab565b511660018060a01b03165f5260205260405f206001600160401b038a165f5260205260405f2060ff600382015416611d4c578580611d66575b611d4c578780611d58575b611d4c57611d3b611d419260ff610afa935416906131dc565b9a6131bf565b9a919a999099611c9b565b509897611d41906131bf565b508660028201541415611d22565b508860018201541415611d17565b876001600160401b0388168b811580611db757611da3575060ff808260409404165b8351928352166020820152f35b634e487b7160e01b81526012600452602490fd5b506040925060ff90611d96565b50508282526005602052604082206040518082602082945493848152019086526020862092865b818110611e07575050611e0092500382612e15565b9193611c46565b84546001600160a01b0316835260019485019486945060209093019201611deb565b50346101b15760203660031901126101b1576004358152600960205260408120805490611e5582612ffd565b92611e636040519485612e15565b82845290815260208082209084015b838310611e8757604051806104ed8782612b9b565b60076020600192611e978561304c565b815201920192019190611e72565b50346101b1576001600160401b036040611ebe36612b61565b939093169390611ecf851515612f7b565b808252600160205282822060018060a01b0385165f52602052611f006001600160401b03845f205416861115612fbb565b815280602052209060018060a01b03165f5260205260405f20905f5260205260405f2060ff8154166104ed60018301549260ff60036002830154920154169060405194859485926060929594919560ff6080860197168552602085015260408401521515910152565b34611a555760e0366003190112611a555760243560ff8116600435818303611a555760443592606435926084356001600160401b038111611a5557611fb2903690600401612ade565b9160c4356001600160401b038111611a5557611fd2903690600401612ade565b611fdf6064841115612d63565b611feb61129388613628565b6040516331a9108f60e11b8152600481018890527f00000000000000000000000000000000000000000000000000000000000000006001600160a01b03169190602081602481865afa908115612561575f916129cb575b50336001600160a01b03821614159081612967575b5080612905575b61206790612e6d565b6040516331a9108f60e11b815260048101899052602081602481865afa908115612561575f916128e6575b506001600160a01b0316156128ac576101218110612871576040519260e084018481106001600160401b038211176106cb576040525f8452602084015f815260408501905f825260608601915f835260808701925f845260a08801935f855260c08901965f88528060e011611a55578e60e088019780359061211660208201612b37565b9060408101356001600160401b0381168103611a55576060828e61214460a06001600160401b039601612b37565b906001600160a01b0361215960c08501612b37565b1690526001600160a01b039081168e5260808201358a52910135895291168852168752808c5203612839578451336001600160a01b03909116036128025782514210156127ce57815146036127965785516001600160a01b031689900361275d578e6001600160401b03855116905f52600160205260405f2060018060a01b0333165f526020526001600160401b036121f78160405f205416612eb9565b16116127225760df1901946001600160401b038a519560018060a01b03905116945116925191519060018060a01b039051169160018060a01b0389511693604051956020870197885260408701526060860152608085015260a084015260c083015260e082015260e0815261226e61010082612e15565b5190207f19457468657265756d205369676e6564204d6573736167653a0a3332000000005f52601c52603c5f20916122bc6122b36122ad3685856131e9565b85613853565b9092919261388d565b84516001600160a01b0390811691168190036125f3575b50505050825192604051936331a9108f60e11b85526004850152602084602481865afa938415612561575f946125d2575b5081516001600160a01b03858116911690811494851561256c575b505083156124f9575b505050156124bc577f54b3254e4cc01969e70376d20390cc2f6af90539d9adaa78a53ebcda17f781549361247a91865f52600160205260405f2060018060a01b0333165f526020526124136123896001600160401b0360405f205416612eb9565b916040519061239782612dde565b81526003602082018c8152604083018c815260608401915f83528c5f525f60205260405f2060018060a01b0333165f5260205260405f206001600160401b0388165f5260205260ff8060405f209651161660ff1986541617855551600185015551600284015551151591019060ff801983541691151516179055565b5f87815260016020908152604080832033808552908352818420805467ffffffffffffffff19166001600160401b03969096169590951790945589835260068252808320938352929052205460ff161561247f575b604051938493339860a4359386612f50565b0390a4005b855f5260056020526124943360405f20612f0b565b5f8681526006602090815260408083203384529091529020805460ff19166001179055612468565b60405162461bcd60e51b815260206004820152601560248201527414da59db995c881b9bdd08185d5d1a1bdc9a5e9959605a1b6044820152606490fd5b6020919293505160246040518095819363020604bf60e21b835260048301525afa918215612561575f92612540575b50516001600160a01b03918216911614888080612328565b61255a91925060203d6020116117685761175a8183612e15565b9089612528565b6040513d5f823e3d90fd5b60405163e985e9c560e01b81526001600160a01b03918216600482015291166024820152909350602081604481865afa908115612561575f916125b3575b50928b8061231f565b6125cc915060203d6020116117e7576117d98183612e15565b8b6125aa565b6125ec91945060203d6020116117685761175a8183612e15565b928b612304565b3b156126e957835160408051630b135d3f60e11b81526004810195909552602485015260209284926001600160a01b039092169183918291612639916044840191612f30565b03915afa908115612561575f916126a6575b506001600160e01b0319166374eca2c160e11b0161266c578a8080806122d3565b60405162461bcd60e51b81526020600482015260126024820152714261642031323731207369676e617475726560701b6044820152606490fd5b90506020813d6020116126e1575b816126c160209383612e15565b81010312611a5557516001600160e01b031981168103611a55578b61264b565b3d91506126b4565b60405162461bcd60e51b8152602060048201526011602482015270496e76616c6964207369676e617475726560781b6044820152606490fd5b60405162461bcd60e51b8152602060048201526013602482015272125b99195e131a5b5a5d08195e18d959591959606a1b6044820152606490fd5b60405162461bcd60e51b81526020600482015260116024820152700a4caced2e6e8e4f240dad2e6dac2e8c6d607b1b6044820152606490fd5b60405162461bcd60e51b815260206004820152601060248201526f086d0c2d2dc92c840dad2e6dac2e8c6d60831b6044820152606490fd5b60405162461bcd60e51b815260206004820152600c60248201526b105d5d1a08195e1c1a5c995960a21b6044820152606490fd5b60405162461bcd60e51b815260206004820152600f60248201526e086d8d2cadce840dad2e6dac2e8c6d608b1b6044820152606490fd5b60405162461bcd60e51b815260206004820152601060248201526f082cecadce892c840dad2e6dac2e8c6d60831b6044820152606490fd5b60405162461bcd60e51b8152602060048201526013602482015272092dcecc2d8d2c840c2eae8d040d8cadccee8d606b1b6044820152606490fd5b60405162461bcd60e51b8152602060048201526012602482015271155b9c9959da5cdd195c9959081859d95b9d60721b6044820152606490fd5b6128ff915060203d6020116117685761175a8183612e15565b8b612092565b5060405163020604bf60e21b815260048101899052602081602481865afa801561256157612067915f91612948575b506001600160a01b0316331415905061205e565b612961915060203d6020116117685761175a8183612e15565b8c612934565b60405163e985e9c560e01b81526001600160a01b039190911660048201523360248201529050602081604481865afa908115612561575f916129ac575b50158b612057565b6129c5915060203d6020116117e7576117d98183612e15565b8b6129a4565b6129e4915060203d6020116117685761175a8183612e15565b8b612042565b34611a55576020366003190112611a55576004355f526009602052602060405f2054604051908152f35b34611a5557612a2236612a43565b905f52600560205260405f208054821015611a55576020916111d991612a85565b6040906003190112611a55576004359060243590565b600854811015612a715760085f5260205f2001905f90565b634e487b7160e01b5f52603260045260245ffd5b8054821015612a71575f5260205f2001905f90565b34611a55575f366003190112611a55576040517f00000000000000000000000000000000000000000000000000000000000000006001600160a01b03168152602090f35b9181601f84011215611a55578235916001600160401b038311611a555760208381860195010111611a5557565b602435906001600160a01b0382168203611a5557565b600435906001600160a01b0382168203611a5557565b35906001600160a01b0382168203611a5557565b604435906001600160401b0382168203611a5557565b6060906003190112611a5557600435906024356001600160a01b0381168103611a5557906044356001600160401b0381168103611a555790565b602081016020825282518091526040820191602060408360051b8301019401925f915b838310612bcd57505050505090565b9091929394602080610120600193603f198682030187528260e08b5180518452828101518385015260ff60408201511660408501526001600160801b0360608201511660608501526001600160801b03608082015116608085015260a081015161010060a0860152805193849182610100880152018686015e5f85848601015260c081015160c0850152015160e0830152601f8019910116010197019301930191939290612bbe565b9181601f84011215611a55578235916001600160401b038311611a55576020808501948460051b010111611a5557565b90602080835192838152019201905f5b818110612cc35750505090565b82516001600160a01b0316845260209384019390920191600101612cb6565b90602080835192838152019201905f5b818110612cff5750505090565b8251845260209384019390920191600101612cf2565b6080906003190112611a5557600435906024356001600160a01b0381168103611a5557906044356001600160401b0381168103611a5557906064356001600160a01b0381168103611a555790565b15612d6a57565b60405162461bcd60e51b8152602060048201526009602482015268073636f72653e3130360bc1b6044820152606490fd5b15612da257565b60405162461bcd60e51b81526020600482015260146024820152731059d95b9d08191bd95cc81b9bdd08195e1a5cdd60621b6044820152606490fd5b608081019081106001600160401b038211176106cb57604052565b61010081019081106001600160401b038211176106cb57604052565b90601f801991011681019081106001600160401b038211176106cb57604052565b90816020910312611a5557516001600160a01b0381168103611a555790565b90816020910312611a5557518015158103611a555790565b15612e7457565b60405162461bcd60e51b815260206004820152601960248201527f53656c662d666565646261636b206e6f7420616c6c6f776564000000000000006044820152606490fd5b6001600160401b036001911601906001600160401b038211612ed757565b634e487b7160e01b5f52601160045260245ffd5b906001600160401b03809116911601906001600160401b038211612ed757565b90815491600160401b8310156106cb5782610680916001612f2e95018155612a85565b565b908060209392818452848401375f828201840152601f01601f1916010190565b959493612f769260ff606095931688526020880152608060408801526080870191612f30565b930152565b15612f8257565b60405162461bcd60e51b81526020600482015260116024820152700696e646578206d757374206265203e203607c1b6044820152606490fd5b15612fc257565b60405162461bcd60e51b8152602060048201526013602482015272696e646578206f7574206f6620626f756e647360681b6044820152606490fd5b6001600160401b0381116106cb5760051b60200190565b90600182811c92168015613042575b602083101461302e57565b634e487b7160e01b5f52602260045260245ffd5b91607f1691613023565b9060405161305981612df9565b809280548252600181015460208301526001600160801b03600282015460ff8116604085015260081c1660608301526001600160801b03600382015416608083015260048101604051905f908054906130b182613014565b808552916001811690811561313057506001146130f3575b505091816130dd60069360e0950382612e15565b60a0850152600581015460c08501520154910152565b5f908152602081209092505b8183106131165750508101602001816130dd6130c9565b6001816020929493945483858801015201910191906130ff565b60ff191660208087019190915292151560051b850190920192508391506130dd90506130c9565b92919061316381612ffd565b936131716040519586612e15565b602085838152019160051b8101928311611a5557905b82821061319357505050565b602080916131a084612b37565b815201910190613187565b8051821015612a715760209160051b010190565b6001600160401b03166001600160401b038114612ed75760010190565b91908201809211612ed757565b9291926001600160401b0382116106cb5760405191613212601f8201601f191660200184612e15565b829481845281830111611a55578281602093845f960137010152565b8054821015612a71575f52600760205f20910201905f90565b1561324e57565b60405162461bcd60e51b81526020600482015260096024820152682737ba1037bbb732b960b91b6044820152606490fd5b5f198114612ed75760010190565b9061329782612ffd565b6132a46040519182612e15565b82815280926132b5601f1991612ffd565b01905f5b8281106132c557505050565b6020906040516132d481612df9565b5f81525f838201525f60408201525f60608201525f6080820152606060a08201525f60c08201525f60e0820152828285010152016132b9565b9061331782612ffd565b6133246040519182612e15565b8281528092613335601f1991612ffd565b0190602036910137565b5f908152600960205260409020805491926060838510156133d6575061336590846131dc565b918083116133ce575b50828203918211612ed7576133828261328d565b925f5b838110613393575050505090565b806133b26133ac6133a6600194866131dc565b8661322e565b5061304c565b6133bc82886131ab565b526133c781876131ab565b5001613385565b91505f61336e565b9350505050604051906133ea602083612e15565b5f82525f90815b8281106133fe5750505090565b60209060405161340d81612df9565b5f81525f838201525f60408201525f848201525f60808201528360a08201525f60c08201525f60e0820152828287010152016133f1565b9094939092916001600160401b03169061345f821515612f7b565b835f52600160205260405f2060018060a01b0387165f526020526134926001600160401b0360405f205416831115612fbb565b80156135f7575f8481526004602090815260408083206001600160a01b038a168452825280832085845282528083203384529091529020547fb1c6be0b5b8aef6539e2fac0fd131a2faa7b49edf8e505b5eb0ad487d56051d49361356992909160ff1615613584575b5f8681526002602090815260408083206001600160a01b038c16845282528083208784528252808320338452909152902080546001600160401b03906135429082166131bf565b166001600160401b0319825416179055604051938452606060208501526060840191612f30565b604082019490945233946001600160a01b03169381900390a4565b855f52600360205260405f2060018060a01b0389165f5260205260405f20845f526020526135b660405f203390612f0b565b5f8681526004602090815260408083206001600160a01b038c168452825280832087845282528083203384529091529020805460ff191660011790556134fb565b60405162461bcd60e51b8152602060048201526009602482015268456d7074792055524960b81b6044820152606490fd5b6040516331a9108f60e11b815260048101919091526020816024817f00000000000000000000000000000000000000000000000000000000000000006001600160a01b03165afa5f918161368f575b5061368157505f90565b6001600160a01b0316151590565b6136a991925060203d6020116117685761175a8183612e15565b905f613677565b5f9594909390806137c3575050825f52600360205260405f2060018060a01b0382165f5260205260405f206001600160401b0383165f5260205260405f2092604051808560208297549384815201905f5260205f20925f5b8181106137a157505061371d92500385612e15565b5f955b845187101561379957613791600191835f52600260205260405f20838060a01b0386165f5260205260405f206001600160401b0387165f5260205260405f20838060a01b0361376f8b8a6131ab565b5116848060a01b03165f526020526001600160401b0360405f20541690612eeb565b960195613720565b955050505050565b84546001600160a01b0316835260019485019489945060209093019201613708565b945f96949196945b86861015613849575f8381526002602090815260408083206001600160a01b0388811685529083528184206001600160401b038a16855290925290912091600588901b8a01359182168203611a555760019261384192848060a01b03165f526020526001600160401b0360405f20541690612eeb565b9501946137cb565b9650945050505050565b81519190604183036138835761387c9250602082015190606060408401519301515f1a90613901565b9192909190565b50505f9160029190565b60048110156138ed578061389f575050565b600181036138b65763f645eedf60e01b5f5260045ffd5b600281036138d1575063fce698f760e01b5f5260045260245ffd5b6003146138db5750565b6335e2f38360e21b5f5260045260245ffd5b634e487b7160e01b5f52602160045260245ffd5b91907f7fffffffffffffffffffffffffffffff5d576e7357a4501ddfe92f46681b20a08411613978579160209360809260ff5f9560405194855216868401526040830152606082015282805260015afa15612561575f516001600160a01b0381161561396e57905f905f90565b505f906001905f90565b5050505f916003919056fea264697066735822122069109ea4eb7f9326d744a1b07a46a27c1b08f2f7521082edbe611f3407dffff064736f6c634300081e0033","linkReferences":{}},"methodIdentifiers":{"_clientExists(uint256,address)":"ab3f4c4c","_clients(uint256,uint256)":"036666b4","_feedback(uint256,address,uint64)":"61f33b78","_lastIndex(uint256,address)":"d0bca500","_responderExists(uint256,address,uint64,address)":"a19ec2dd","_responders(uint256,address,uint64,uint256)":"5fe4b986","_responseCount(uint256,address,uint64,address)":"d87b21fc","appendResponse(uint256,address,uint64,string,bytes32)":"c2349ab2","decodeScores(bytes32)":"9d2abeae","getAgentMatchCount(uint256)":"0591a91c","getAgentMatchStats(uint256)":"d37f05b8","getAgentMatches(uint256)":"2fd0ad97","getAgentMatchesPaginated(uint256,uint256,uint256)":"85b273cc","getAuthorizedServers()":"90048a2e","getClients(uint256)":"42dd519c","getHeadToHeadMatches(uint256,uint256)":"7c2388db","getIdentityRegistry()":"bc4d861b","getLastIndex(uint256,address)":"f2d81759","getResponseCount(uint256,address,uint64,address[])":"6e04cacd","getSummary(uint256,address[],bytes32,bytes32)":"31259cff","giveFeedback(uint256,uint8,bytes32,bytes32,string,bytes32,bytes)":"155e5bbd","identityRegistry()":"134e18f4","isAuthorizedServer(address)":"89e02eb9","owner()":"8da5cb5b","readAllFeedback(uint256,address[],bytes32,bytes32,bool)":"80b87594","readFeedback(uint256,address,uint64)":"232b0810","registerServer(address)":"88f03a69","revokeFeedback(uint256,uint64)":"4ab3ca99","submitMatchResult(uint256,uint256,uint8,uint128,uint128,string,bytes32)":"4aec3aa5","unregisterServer(address)":"6476bafe"},"id":9}