{
  "_format": "hh3-artifact-1",
  "contractName": "PickerPayment",
  "sourceName": "contracts/PickerPayment.sol",
  "abi": [
    {
      "inputs": [],
      "stateMutability": "nonpayable",
      "type": "constructor"
    },
    {
      "inputs": [],
      "name": "AccessControlBadConfirmation",
      "type": "error"
    },
    {
      "inputs": [
        {
          "internalType": "address",
          "name": "account",
          "type": "address"
        },
        {
          "internalType": "bytes32",
          "name": "neededRole",
          "type": "bytes32"
        }
      ],
      "name": "AccessControlUnauthorizedAccount",
      "type": "error"
    },
    {
      "inputs": [],
      "name": "AddressAlreadyOperator",
      "type": "error"
    },
    {
      "inputs": [],
      "name": "AddressNotOperator",
      "type": "error"
    },
    {
      "inputs": [],
      "name": "InsufficientBalance",
      "type": "error"
    },
    {
      "inputs": [],
      "name": "InvalidPickerData",
      "type": "error"
    },
    {
      "inputs": [],
      "name": "PickerAlreadyExists",
      "type": "error"
    },
    {
      "inputs": [],
      "name": "PickerNotFound",
      "type": "error"
    },
    {
      "inputs": [],
      "name": "ReentrancyGuardReentrantCall",
      "type": "error"
    },
    {
      "inputs": [],
      "name": "TransferFailed",
      "type": "error"
    },
    {
      "inputs": [],
      "name": "ZeroAddressNotAllowed",
      "type": "error"
    },
    {
      "anonymous": false,
      "inputs": [
        {
          "indexed": true,
          "internalType": "address",
          "name": "deployer",
          "type": "address"
        },
        {
          "indexed": false,
          "internalType": "uint256",
          "name": "amount",
          "type": "uint256"
        }
      ],
      "name": "FundsWithdrawn",
      "type": "event"
    },
    {
      "anonymous": false,
      "inputs": [
        {
          "indexed": true,
          "internalType": "address",
          "name": "operator",
          "type": "address"
        }
      ],
      "name": "OperatorAdded",
      "type": "event"
    },
    {
      "anonymous": false,
      "inputs": [
        {
          "indexed": true,
          "internalType": "address",
          "name": "operator",
          "type": "address"
        }
      ],
      "name": "OperatorRemoved",
      "type": "event"
    },
    {
      "anonymous": false,
      "inputs": [
        {
          "indexed": true,
          "internalType": "bytes16",
          "name": "pickerId",
          "type": "bytes16"
        },
        {
          "indexed": false,
          "internalType": "uint256",
          "name": "amount",
          "type": "uint256"
        }
      ],
      "name": "PaymentProcessed",
      "type": "event"
    },
    {
      "anonymous": false,
      "inputs": [
        {
          "indexed": true,
          "internalType": "bytes16",
          "name": "pickerId",
          "type": "bytes16"
        },
        {
          "indexed": true,
          "internalType": "address",
          "name": "wallet",
          "type": "address"
        }
      ],
      "name": "PickerRegistered",
      "type": "event"
    },
    {
      "anonymous": false,
      "inputs": [
        {
          "indexed": true,
          "internalType": "bytes16",
          "name": "pickerId",
          "type": "bytes16"
        }
      ],
      "name": "PickerRemoved",
      "type": "event"
    },
    {
      "anonymous": false,
      "inputs": [
        {
          "indexed": true,
          "internalType": "bytes32",
          "name": "role",
          "type": "bytes32"
        },
        {
          "indexed": true,
          "internalType": "bytes32",
          "name": "previousAdminRole",
          "type": "bytes32"
        },
        {
          "indexed": true,
          "internalType": "bytes32",
          "name": "newAdminRole",
          "type": "bytes32"
        }
      ],
      "name": "RoleAdminChanged",
      "type": "event"
    },
    {
      "anonymous": false,
      "inputs": [
        {
          "indexed": true,
          "internalType": "bytes32",
          "name": "role",
          "type": "bytes32"
        },
        {
          "indexed": true,
          "internalType": "address",
          "name": "account",
          "type": "address"
        },
        {
          "indexed": true,
          "internalType": "address",
          "name": "sender",
          "type": "address"
        }
      ],
      "name": "RoleGranted",
      "type": "event"
    },
    {
      "anonymous": false,
      "inputs": [
        {
          "indexed": true,
          "internalType": "bytes32",
          "name": "role",
          "type": "bytes32"
        },
        {
          "indexed": true,
          "internalType": "address",
          "name": "account",
          "type": "address"
        },
        {
          "indexed": true,
          "internalType": "address",
          "name": "sender",
          "type": "address"
        }
      ],
      "name": "RoleRevoked",
      "type": "event"
    },
    {
      "inputs": [],
      "name": "DEFAULT_ADMIN_ROLE",
      "outputs": [
        {
          "internalType": "bytes32",
          "name": "",
          "type": "bytes32"
        }
      ],
      "stateMutability": "view",
      "type": "function"
    },
    {
      "inputs": [],
      "name": "DEV_SHARE_PERCENT",
      "outputs": [
        {
          "internalType": "uint256",
          "name": "",
          "type": "uint256"
        }
      ],
      "stateMutability": "view",
      "type": "function"
    },
    {
      "inputs": [],
      "name": "FEE_PERCENT",
      "outputs": [
        {
          "internalType": "uint256",
          "name": "",
          "type": "uint256"
        }
      ],
      "stateMutability": "view",
      "type": "function"
    },
    {
      "inputs": [],
      "name": "OPERATOR_ROLE",
      "outputs": [
        {
          "internalType": "bytes32",
          "name": "",
          "type": "bytes32"
        }
      ],
      "stateMutability": "view",
      "type": "function"
    },
    {
      "inputs": [],
      "name": "PERCENT_DENOMINATOR",
      "outputs": [
        {
          "internalType": "uint256",
          "name": "",
          "type": "uint256"
        }
      ],
      "stateMutability": "view",
      "type": "function"
    },
    {
      "inputs": [],
      "name": "getAllOperators",
      "outputs": [
        {
          "internalType": "address[]",
          "name": "",
          "type": "address[]"
        }
      ],
      "stateMutability": "view",
      "type": "function"
    },
    {
      "inputs": [],
      "name": "getAllPickers",
      "outputs": [
        {
          "components": [
            {
              "internalType": "bytes16",
              "name": "pickerId",
              "type": "bytes16"
            },
            {
              "internalType": "bytes16",
              "name": "devUserId",
              "type": "bytes16"
            },
            {
              "internalType": "address",
              "name": "devWalletAddress",
              "type": "address"
            }
          ],
          "internalType": "struct PickerPayment.Picker[]",
          "name": "",
          "type": "tuple[]"
        }
      ],
      "stateMutability": "view",
      "type": "function"
    },
    {
      "inputs": [
        {
          "internalType": "bytes32",
          "name": "role",
          "type": "bytes32"
        }
      ],
      "name": "getRoleAdmin",
      "outputs": [
        {
          "internalType": "bytes32",
          "name": "",
          "type": "bytes32"
        }
      ],
      "stateMutability": "view",
      "type": "function"
    },
    {
      "inputs": [
        {
          "internalType": "address",
          "name": "operator",
          "type": "address"
        }
      ],
      "name": "grantOperatorRole",
      "outputs": [],
      "stateMutability": "nonpayable",
      "type": "function"
    },
    {
      "inputs": [
        {
          "internalType": "bytes32",
          "name": "role",
          "type": "bytes32"
        },
        {
          "internalType": "address",
          "name": "account",
          "type": "address"
        }
      ],
      "name": "grantRole",
      "outputs": [],
      "stateMutability": "nonpayable",
      "type": "function"
    },
    {
      "inputs": [
        {
          "internalType": "bytes32",
          "name": "role",
          "type": "bytes32"
        },
        {
          "internalType": "address",
          "name": "account",
          "type": "address"
        }
      ],
      "name": "hasRole",
      "outputs": [
        {
          "internalType": "bool",
          "name": "",
          "type": "bool"
        }
      ],
      "stateMutability": "view",
      "type": "function"
    },
    {
      "inputs": [
        {
          "internalType": "address",
          "name": "account",
          "type": "address"
        }
      ],
      "name": "isOperator",
      "outputs": [
        {
          "internalType": "bool",
          "name": "",
          "type": "bool"
        }
      ],
      "stateMutability": "view",
      "type": "function"
    },
    {
      "inputs": [
        {
          "internalType": "bytes16",
          "name": "pickerId",
          "type": "bytes16"
        },
        {
          "internalType": "bytes16",
          "name": "devUserId",
          "type": "bytes16"
        },
        {
          "internalType": "address",
          "name": "devWalletAddress",
          "type": "address"
        }
      ],
      "name": "pay",
      "outputs": [],
      "stateMutability": "payable",
      "type": "function"
    },
    {
      "inputs": [
        {
          "internalType": "bytes16",
          "name": "",
          "type": "bytes16"
        }
      ],
      "name": "pickers",
      "outputs": [
        {
          "internalType": "bytes16",
          "name": "pickerId",
          "type": "bytes16"
        },
        {
          "internalType": "bytes16",
          "name": "devUserId",
          "type": "bytes16"
        },
        {
          "internalType": "address",
          "name": "devWalletAddress",
          "type": "address"
        }
      ],
      "stateMutability": "view",
      "type": "function"
    },
    {
      "inputs": [
        {
          "internalType": "address",
          "name": "wallet",
          "type": "address"
        }
      ],
      "name": "queryPickerByWallet",
      "outputs": [
        {
          "internalType": "bytes16",
          "name": "",
          "type": "bytes16"
        },
        {
          "internalType": "bytes16",
          "name": "",
          "type": "bytes16"
        }
      ],
      "stateMutability": "view",
      "type": "function"
    },
    {
      "inputs": [
        {
          "internalType": "bytes16",
          "name": "pickerId",
          "type": "bytes16"
        },
        {
          "internalType": "bytes16",
          "name": "devUserId",
          "type": "bytes16"
        },
        {
          "internalType": "address",
          "name": "devWalletAddress",
          "type": "address"
        }
      ],
      "name": "registerPicker",
      "outputs": [],
      "stateMutability": "nonpayable",
      "type": "function"
    },
    {
      "inputs": [
        {
          "internalType": "bytes16",
          "name": "pickerId",
          "type": "bytes16"
        }
      ],
      "name": "removePicker",
      "outputs": [],
      "stateMutability": "nonpayable",
      "type": "function"
    },
    {
      "inputs": [
        {
          "internalType": "bytes32",
          "name": "role",
          "type": "bytes32"
        },
        {
          "internalType": "address",
          "name": "callerConfirmation",
          "type": "address"
        }
      ],
      "name": "renounceRole",
      "outputs": [],
      "stateMutability": "nonpayable",
      "type": "function"
    },
    {
      "inputs": [
        {
          "internalType": "address",
          "name": "operator",
          "type": "address"
        }
      ],
      "name": "revokeOperatorRole",
      "outputs": [],
      "stateMutability": "nonpayable",
      "type": "function"
    },
    {
      "inputs": [
        {
          "internalType": "bytes32",
          "name": "role",
          "type": "bytes32"
        },
        {
          "internalType": "address",
          "name": "account",
          "type": "address"
        }
      ],
      "name": "revokeRole",
      "outputs": [],
      "stateMutability": "nonpayable",
      "type": "function"
    },
    {
      "inputs": [
        {
          "internalType": "bytes4",
          "name": "interfaceId",
          "type": "bytes4"
        }
      ],
      "name": "supportsInterface",
      "outputs": [
        {
          "internalType": "bool",
          "name": "",
          "type": "bool"
        }
      ],
      "stateMutability": "view",
      "type": "function"
    },
    {
      "inputs": [
        {
          "internalType": "address",
          "name": "",
          "type": "address"
        }
      ],
      "name": "walletToPickerId",
      "outputs": [
        {
          "internalType": "bytes16",
          "name": "",
          "type": "bytes16"
        }
      ],
      "stateMutability": "view",
      "type": "function"
    },
    {
      "inputs": [
        {
          "internalType": "address payable",
          "name": "recipient",
          "type": "address"
        }
      ],
      "name": "withdrawFunds",
      "outputs": [],
      "stateMutability": "nonpayable",
      "type": "function"
    },
    {
      "stateMutability": "payable",
      "type": "receive"
    }
  ],
  "bytecode": "0x6080604052348015600e575f5ffd5b5060018055601b5f336020565b5060c6565b5f828152602081815260408083206001600160a01b038516845290915281205460ff1660bd575f838152602081815260408083206001600160a01b03861684529091529020805460ff1916600117905560763390565b6001600160a01b0316826001600160a01b0316847f2f8788117e7eff1d82e926ec794901d17c78024a50270940304540a733656f0d60405160405180910390a450600160c0565b505f5b92915050565b61176f806100d35f395ff3fe60806040526004361061013f575f3560e01c806391d14854116100b3578063d547741f1161006d578063d547741f1461045d578063d6666c991461047c578063d911c6321461049b578063eaf98d23146104bc578063f5b541a6146104d0578063fd990c89146104f0575f5ffd5b806391d148541461033d5780639e6c29591461035c578063a217fddf14610370578063a439da1c14610383578063b219f7d7146103fe578063b2f959f21461041d575f5ffd5b80632f2ff15d116101045780632f2ff15d1461028157806336568abe146102a0578063574b6743146102bf57806368742da6146102e05780636d70f7ae146102ff578063836e07d31461031e575f5ffd5b806301ffc9a71461019557806312f17b38146101c9578063248a9ca31461021057806327ac0c581461024c5780632b136e711461026d575f5ffd5b366101915760405162461bcd60e51b815260206004820181905260248201527f44697265637420455448207472616e7366657273206e6f7420616c6c6f77656460448201526064015b60405180910390fd5b5f5ffd5b3480156101a0575f5ffd5b506101b46101af36600461146b565b610503565b60405190151581526020015b60405180910390f35b3480156101d4575f5ffd5b506101f76101e33660046114a6565b60036020525f908152604090205460801b81565b6040516001600160801b031990911681526020016101c0565b34801561021b575f5ffd5b5061023e61022a3660046114c1565b5f9081526020819052604090206001015490565b6040519081526020016101c0565b348015610257575f5ffd5b5061026b6102663660046114a6565b610539565b005b348015610278575f5ffd5b5061023e605f81565b34801561028c575f5ffd5b5061026b61029b3660046114d8565b61064c565b3480156102ab575f5ffd5b5061026b6102ba3660046114d8565b610676565b3480156102ca575f5ffd5b506102d36106ae565b6040516101c09190611506565b3480156102eb575f5ffd5b5061026b6102fa3660046114a6565b6107e9565b34801561030a575f5ffd5b506101b46103193660046114a6565b6108f8565b348015610329575f5ffd5b5061026b610338366004611595565b610904565b348015610348575f5ffd5b506101b46103573660046114d8565b610b3b565b348015610367575f5ffd5b5061023e606481565b34801561037b575f5ffd5b5061023e5f81565b34801561038e575f5ffd5b506103ce61039d366004611595565b60026020525f908152604090208054600190910154608082811b92600160801b9004901b906001600160a01b031683565b604080516001600160801b031994851681529390921660208401526001600160a01b0316908201526060016101c0565b348015610409575f5ffd5b5061026b6104183660046114a6565b610b63565b348015610428575f5ffd5b5061043c6104373660046114a6565b610c75565b604080516001600160801b03199384168152929091166020830152016101c0565b348015610468575f5ffd5b5061026b6104773660046114d8565b610cdb565b348015610487575f5ffd5b5061026b6104963660046115ae565b610cff565b3480156104a6575f5ffd5b506104af610f3a565b6040516101c091906115f2565b3480156104c7575f5ffd5b5061023e600581565b3480156104db575f5ffd5b5061023e5f51602061171a5f395f51905f5281565b61026b6104fe3660046115ae565b610fe0565b5f6001600160e01b03198216637965db0b60e01b148061053357506301ffc9a760e01b6001600160e01b03198316145b92915050565b5f61054381611155565b6001600160a01b0382166105995760405162461bcd60e51b815260206004820152601f60248201527f4f70657261746f7220616464726573732063616e6e6f74206265207a65726f006044820152606401610188565b6105a4600483611162565b156105f15760405162461bcd60e51b815260206004820152601e60248201527f4164647265737320697320616c726561647920616e206f70657261746f7200006044820152606401610188565b6106085f51602061171a5f395f51905f5283611186565b50610614600483611215565b506040516001600160a01b038316907fac6fa858e9350a46cec16539926e0fde25b7629f84b5a72bffaae4df888ae86d905f90a25050565b5f8281526020819052604090206001015461066681611155565b6106708383611186565b50505050565b6001600160a01b038116331461069f5760405163334bd91960e11b815260040160405180910390fd5b6106a98282611229565b505050565b60605f6106ba81611155565b6006545f8167ffffffffffffffff8111156106d7576106d7611632565b60405190808252806020026020018201604052801561072057816020015b604080516060810182525f80825260208083018290529282015282525f199092019101816106f55790505b5090505f5b828110156107e1575f6006828154811061074157610741611646565b5f918252602080832060028084049091015460019384166010026101000a9004608090811b6001600160801b031981811687529284526040958690208651606081018852815480851b86168252600160801b900490931b909316938201939093529201546001600160a01b0316928201929092528451919250908490849081106107cd576107cd611646565b602090810291909101015250600101610725565b509250505090565b5f6107f381611155565b6107fb611292565b6001600160a01b038216610822576040516342bcdf7f60e11b815260040160405180910390fd5b475f81900361084457604051631e9acf1760e31b815260040160405180910390fd5b5f836001600160a01b0316826040515f6040518083038185875af1925050503d805f811461088d576040519150601f19603f3d011682016040523d82523d5f602084013e610892565b606091505b50509050806108b4576040516312171d8360e31b815260040160405180910390fd5b60405182815233907feaff4b37086828766ad3268786972c0cd24259d4c87a80f9d3963a3c3d999b0d9060200160405180910390a250506108f460018055565b5050565b5f610533600483611162565b61091b5f51602061171a5f395f51905f5233610b3b565b8061092b575061092b5f33610b3b565b6109475760405162461bcd60e51b81526004016101889061165a565b6001600160801b03198082165f9081526002602052604090208054909160809190911b166109885760405163dc6b5b4960e01b815260040160405180910390fd5b6001808201546001600160a01b03165f90815260036020908152604080832080546001600160801b0319908116909155861683526002909152812081815590910180546001600160a01b03191690555b600654811015610b0257826001600160801b03191660068281548110610a0057610a00611646565b905f5260205f2090600291828204019190066010029054906101000a900460801b6001600160801b03191603610afa5760068054610a40906001906116bc565b81548110610a5057610a50611646565b905f5260205f2090600291828204019190066010029054906101000a900460801b60068281548110610a8457610a84611646565b905f5260205f2090600291828204019190066010026101000a8154816001600160801b03021916908360801c02179055506006805480610ac657610ac66116cf565b5f8281526020902060025f199092019182040180546001600160801b03601060018516026101000a02191690559055610b02565b6001016109d8565b506040516001600160801b03198316907f6883419a517af32c2359fc0c0758be9e7e6b476abb80a74f52a7c8452b3acb60905f90a25050565b5f918252602082815260408084206001600160a01b0393909316845291905290205460ff1690565b5f610b6d81611155565b6001600160a01b038216610bc35760405162461bcd60e51b815260206004820152601f60248201527f4f70657261746f7220616464726573732063616e6e6f74206265207a65726f006044820152606401610188565b610bce600483611162565b610c1a5760405162461bcd60e51b815260206004820152601a60248201527f41646472657373206973206e6f7420616e206f70657261746f720000000000006044820152606401610188565b610c315f51602061171a5f395f51905f5283611229565b50610c3d6004836112bc565b506040516001600160a01b038316907f80c0b871b97b595b16a7741c1b06fed0c6f6f558639f18ccbce50724325dc40d905f90a25050565b6001600160a01b0381165f90815260036020526040812054819060801b6001600160801b03198116610cac57505f93849350915050565b6001600160801b0319165f90815260026020526040902054608081811b95600160801b909204901b9350915050565b5f82815260208190526040902060010154610cf581611155565b6106708383611229565b610d165f51602061171a5f395f51905f5233610b3b565b80610d265750610d265f33610b3b565b610d425760405162461bcd60e51b81526004016101889061165a565b6001600160a01b038116610d69576040516342bcdf7f60e11b815260040160405180910390fd5b6001600160801b031983161580610d8857506001600160801b03198216155b15610da657604051633d1ef09d60e21b815260040160405180910390fd5b6001600160801b03198381165f9081526002602052604090205460801b1615610de25760405163f11ad4ed60e01b815260040160405180910390fd5b6001600160a01b0381165f9081526003602052604090205460801b6001600160801b03191615610e255760405163f11ad4ed60e01b815260040160405180910390fd5b604080516060810182526001600160801b031980861680835285821660208085019182526001600160a01b038088168688018181525f86815260028086528a822099519651608090811c600160801b0297811c979097178a5591516001998a018054919095166001600160a01b03199091161790935581835260039093528782208054948c901c9490961684179095556006805480880182559082529182047ff652222313e28459528d920b65115c16c04f3efc82aaedc97be59f3f377c0d3f018054929096166010026101000a9283026001600160801b0393909302199091169190911790935592519092917fd96742853c960268755dfdd71b39031a92594da573d3f82577efe932296802d091a3505050565b60605f610f4681611155565b5f610f5160046112d0565b90505f8167ffffffffffffffff811115610f6d57610f6d611632565b604051908082528060200260200182016040528015610f96578160200160208202803683370190505b5090505f5b828110156107e157610fae6004826112d9565b828281518110610fc057610fc0611646565b6001600160a01b0390921660209283029190910190910152600101610f9b565b610fe8611292565b6001600160801b03198084165f9081526002602052604090208054909160809190911b166110295760405163dc6b5b4960e01b815260040160405180910390fd5b80546001600160801b0319848116600160801b90920460801b16141580611060575060018101546001600160a01b03838116911614155b1561107e57604051633d1ef09d60e21b815260040160405180910390fd5b345f606461108d605f846116e3565b61109791906116fa565b90505f846001600160a01b0316826040515f6040518083038185875af1925050503d805f81146110e2576040519150601f19603f3d011682016040523d82523d5f602084013e6110e7565b606091505b5050905080611109576040516312171d8360e31b815260040160405180910390fd5b6040518381526001600160801b03198816907fa7fe88c6e2cecd28600dc57a8517b46cfe4c59017301c41730a6a06d2486912e9060200160405180910390a2505050506106a960018055565b61115f81336112e4565b50565b6001600160a01b0381165f90815260018301602052604081205415155b9392505050565b5f6111918383610b3b565b61120e575f838152602081815260408083206001600160a01b03861684529091529020805460ff191660011790556111c63390565b6001600160a01b0316826001600160a01b0316847f2f8788117e7eff1d82e926ec794901d17c78024a50270940304540a733656f0d60405160405180910390a4506001610533565b505f610533565b5f61117f836001600160a01b03841661131d565b5f6112348383610b3b565b1561120e575f838152602081815260408083206001600160a01b0386168085529252808320805460ff1916905551339286917ff6391f5c32d9c69d2a47ea670b442974b53935d1edc7fd64eb21e047a839171b9190a4506001610533565b6002600154036112b557604051633ee5aeb560e01b815260040160405180910390fd5b6002600155565b5f61117f836001600160a01b038416611362565b5f610533825490565b5f61117f8383611445565b6112ee8282610b3b565b6108f45760405163e2517d3f60e01b81526001600160a01b038216600482015260248101839052604401610188565b5f81815260018301602052604081205461120e57508154600181810184555f848152602080822090930184905584548482528286019093526040902091909155610533565b5f818152600183016020526040812054801561143c575f6113846001836116bc565b85549091505f90611397906001906116bc565b90508082146113f6575f865f0182815481106113b5576113b5611646565b905f5260205f200154905080875f0184815481106113d5576113d5611646565b5f918252602080832090910192909255918252600188019052604090208390555b8554869080611407576114076116cf565b600190038181905f5260205f20015f90559055856001015f8681526020019081526020015f205f905560019350505050610533565b5f915050610533565b5f825f01828154811061145a5761145a611646565b905f5260205f200154905092915050565b5f6020828403121561147b575f5ffd5b81356001600160e01b03198116811461117f575f5ffd5b6001600160a01b038116811461115f575f5ffd5b5f602082840312156114b6575f5ffd5b813561117f81611492565b5f602082840312156114d1575f5ffd5b5035919050565b5f5f604083850312156114e9575f5ffd5b8235915060208301356114fb81611492565b809150509250929050565b602080825282518282018190525f918401906040840190835b8181101561156e57835180516001600160801b03199081168552602080830151909116818601526040918201516001600160a01b0316918501919091529093019260609092019160010161151f565b509095945050505050565b80356001600160801b031981168114611590575f5ffd5b919050565b5f602082840312156115a5575f5ffd5b61117f82611579565b5f5f5f606084860312156115c0575f5ffd5b6115c984611579565b92506115d760208501611579565b915060408401356115e781611492565b809150509250925092565b602080825282518282018190525f918401906040840190835b8181101561156e5783516001600160a01b031683526020938401939092019160010161160b565b634e487b7160e01b5f52604160045260245ffd5b634e487b7160e01b5f52603260045260245ffd5b6020808252602e908201527f43616c6c6572206973206e6f7420616e206f70657261746f72206f7220636f6e60408201526d3a3930b1ba103232b83637bcb2b960911b606082015260800190565b634e487b7160e01b5f52601160045260245ffd5b81810381811115610533576105336116a8565b634e487b7160e01b5f52603160045260245ffd5b8082028115828204841417610533576105336116a8565b5f8261171457634e487b7160e01b5f52601260045260245ffd5b50049056fe97667070c54ef182b0f5858b034beac1b6f3089aa2d3188bb1e8929f4fa9b929a2646970667358221220785319113fe87c29752d65ce92870224563cd85146736301ac31988f70969def64736f6c634300081c0033",
  "linkReferences": {},
  "deployedLinkReferences": {},
  "immutableReferences": {},
  "inputSourceName": "project/contracts/PickerPayment.sol",
  "buildInfoId": "solc-0_8_28-134ed1c16683b4f52df9f50f079e13dd46ba75e9"
}