{"abi":[{"type":"function","name":"approve","inputs":[{"name":"to","type":"address","internalType":"address"},{"name":"tokenId","type":"uint256","internalType":"uint256"}],"outputs":[],"stateMutability":"nonpayable"},{"type":"function","name":"balanceOf","inputs":[{"name":"owner","type":"address","internalType":"address"}],"outputs":[{"name":"","type":"uint256","internalType":"uint256"}],"stateMutability":"view"},{"type":"function","name":"getApproved","inputs":[{"name":"tokenId","type":"uint256","internalType":"uint256"}],"outputs":[{"name":"","type":"address","internalType":"address"}],"stateMutability":"view"},{"type":"function","name":"getDeveloperAgents","inputs":[{"name":"developer","type":"address","internalType":"address"}],"outputs":[{"name":"","type":"uint256[]","internalType":"uint256[]"}],"stateMutability":"view"},{"type":"function","name":"getMetadata","inputs":[{"name":"agentId","type":"uint256","internalType":"uint256"},{"name":"key","type":"string","internalType":"string"}],"outputs":[{"name":"","type":"bytes","internalType":"bytes"}],"stateMutability":"view"},{"type":"function","name":"getSoccerAgentInfo","inputs":[{"name":"agentId","type":"uint256","internalType":"uint256"}],"outputs":[{"name":"","type":"tuple","internalType":"struct SoccerAgentRegistry.SoccerAgentInfo","components":[{"name":"teamName","type":"string","internalType":"string"},{"name":"modelVersion","type":"string","internalType":"string"},{"name":"registeredAt","type":"uint256","internalType":"uint256"},{"name":"isActive","type":"bool","internalType":"bool"}]}],"stateMutability":"view"},{"type":"function","name":"isApprovedForAll","inputs":[{"name":"owner","type":"address","internalType":"address"},{"name":"operator","type":"address","internalType":"address"}],"outputs":[{"name":"","type":"bool","internalType":"bool"}],"stateMutability":"view"},{"type":"function","name":"isSoccerAgent","inputs":[{"name":"agentId","type":"uint256","internalType":"uint256"}],"outputs":[{"name":"","type":"bool","internalType":"bool"}],"stateMutability":"view"},{"type":"function","name":"name","inputs":[],"outputs":[{"name":"","type":"string","internalType":"string"}],"stateMutability":"view"},{"type":"function","name":"owner","inputs":[],"outputs":[{"name":"","type":"address","internalType":"address"}],"stateMutability":"view"},{"type":"function","name":"ownerOf","inputs":[{"name":"tokenId","type":"uint256","internalType":"uint256"}],"outputs":[{"name":"","type":"address","internalType":"address"}],"stateMutability":"view"},{"type":"function","name":"registerSoccerAgent","inputs":[{"name":"teamName","type":"string","internalType":"string"},{"name":"modelVersion","type":"string","internalType":"string"},{"name":"tokenUri","type":"string","internalType":"string"}],"outputs":[{"name":"agentId","type":"uint256","internalType":"uint256"}],"stateMutability":"nonpayable"},{"type":"function","name":"registerSoccerAgent","inputs":[{"name":"teamName","type":"string","internalType":"string"},{"name":"modelVersion","type":"string","internalType":"string"},{"name":"tokenUri","type":"string","internalType":"string"},{"name":"metadata","type":"tuple[]","internalType":"struct IdentityRegistry.MetadataEntry[]","components":[{"name":"key","type":"string","internalType":"string"},{"name":"value","type":"bytes","internalType":"bytes"}]}],"outputs":[{"name":"agentId","type":"uint256","internalType":"uint256"}],"stateMutability":"nonpayable"},{"type":"function","name":"renounceOwnership","inputs":[],"outputs":[],"stateMutability":"nonpayable"},{"type":"function","name":"safeTransferFrom","inputs":[{"name":"from","type":"address","internalType":"address"},{"name":"to","type":"address","internalType":"address"},{"name":"tokenId","type":"uint256","internalType":"uint256"}],"outputs":[],"stateMutability":"nonpayable"},{"type":"function","name":"safeTransferFrom","inputs":[{"name":"from","type":"address","internalType":"address"},{"name":"to","type":"address","internalType":"address"},{"name":"tokenId","type":"uint256","internalType":"uint256"},{"name":"data","type":"bytes","internalType":"bytes"}],"outputs":[],"stateMutability":"nonpayable"},{"type":"function","name":"setAgentStatus","inputs":[{"name":"agentId","type":"uint256","internalType":"uint256"},{"name":"isActive","type":"bool","internalType":"bool"}],"outputs":[],"stateMutability":"nonpayable"},{"type":"function","name":"setAgentUri","inputs":[{"name":"agentId","type":"uint256","internalType":"uint256"},{"name":"newUri","type":"string","internalType":"string"}],"outputs":[],"stateMutability":"nonpayable"},{"type":"function","name":"setApprovalForAll","inputs":[{"name":"operator","type":"address","internalType":"address"},{"name":"approved","type":"bool","internalType":"bool"}],"outputs":[],"stateMutability":"nonpayable"},{"type":"function","name":"setMetadata","inputs":[{"name":"agentId","type":"uint256","internalType":"uint256"},{"name":"key","type":"string","internalType":"string"},{"name":"value","type":"bytes","internalType":"bytes"}],"outputs":[],"stateMutability":"nonpayable"},{"type":"function","name":"supportsInterface","inputs":[{"name":"interfaceId","type":"bytes4","internalType":"bytes4"}],"outputs":[{"name":"","type":"bool","internalType":"bool"}],"stateMutability":"view"},{"type":"function","name":"symbol","inputs":[],"outputs":[{"name":"","type":"string","internalType":"string"}],"stateMutability":"view"},{"type":"function","name":"tokenURI","inputs":[{"name":"tokenId","type":"uint256","internalType":"uint256"}],"outputs":[{"name":"","type":"string","internalType":"string"}],"stateMutability":"view"},{"type":"function","name":"transferFrom","inputs":[{"name":"from","type":"address","internalType":"address"},{"name":"to","type":"address","internalType":"address"},{"name":"tokenId","type":"uint256","internalType":"uint256"}],"outputs":[],"stateMutability":"nonpayable"},{"type":"function","name":"transferOwnership","inputs":[{"name":"newOwner","type":"address","internalType":"address"}],"outputs":[],"stateMutability":"nonpayable"},{"type":"function","name":"updateTeamName","inputs":[{"name":"agentId","type":"uint256","internalType":"uint256"},{"name":"newTeamName","type":"string","internalType":"string"}],"outputs":[],"stateMutability":"nonpayable"},{"type":"event","name":"AgentStatusChanged","inputs":[{"name":"agentId","type":"uint256","indexed":true,"internalType":"uint256"},{"name":"isActive","type":"bool","indexed":false,"internalType":"bool"}],"anonymous":false},{"type":"event","name":"Approval","inputs":[{"name":"owner","type":"address","indexed":true,"internalType":"address"},{"name":"approved","type":"address","indexed":true,"internalType":"address"},{"name":"tokenId","type":"uint256","indexed":true,"internalType":"uint256"}],"anonymous":false},{"type":"event","name":"ApprovalForAll","inputs":[{"name":"owner","type":"address","indexed":true,"internalType":"address"},{"name":"operator","type":"address","indexed":true,"internalType":"address"},{"name":"approved","type":"bool","indexed":false,"internalType":"bool"}],"anonymous":false},{"type":"event","name":"BatchMetadataUpdate","inputs":[{"name":"_fromTokenId","type":"uint256","indexed":false,"internalType":"uint256"},{"name":"_toTokenId","type":"uint256","indexed":false,"internalType":"uint256"}],"anonymous":false},{"type":"event","name":"MetadataSet","inputs":[{"name":"agentId","type":"uint256","indexed":true,"internalType":"uint256"},{"name":"indexedKey","type":"string","indexed":true,"internalType":"string"},{"name":"key","type":"string","indexed":false,"internalType":"string"},{"name":"value","type":"bytes","indexed":false,"internalType":"bytes"}],"anonymous":false},{"type":"event","name":"MetadataUpdate","inputs":[{"name":"_tokenId","type":"uint256","indexed":false,"internalType":"uint256"}],"anonymous":false},{"type":"event","name":"OwnershipTransferred","inputs":[{"name":"previousOwner","type":"address","indexed":true,"internalType":"address"},{"name":"newOwner","type":"address","indexed":true,"internalType":"address"}],"anonymous":false},{"type":"event","name":"Registered","inputs":[{"name":"agentId","type":"uint256","indexed":true,"internalType":"uint256"},{"name":"tokenURI","type":"string","indexed":false,"internalType":"string"},{"name":"owner","type":"address","indexed":true,"internalType":"address"}],"anonymous":false},{"type":"event","name":"SoccerAgentRegistered","inputs":[{"name":"agentId","type":"uint256","indexed":true,"internalType":"uint256"},{"name":"developer","type":"address","indexed":true,"internalType":"address"},{"name":"teamName","type":"string","indexed":false,"internalType":"string"},{"name":"modelVersion","type":"string","indexed":false,"internalType":"string"}],"anonymous":false},{"type":"event","name":"TeamNameUpdated","inputs":[{"name":"agentId","type":"uint256","indexed":true,"internalType":"uint256"},{"name":"oldTeamName","type":"string","indexed":false,"internalType":"string"},{"name":"newTeamName","type":"string","indexed":false,"internalType":"string"}],"anonymous":false},{"type":"event","name":"Transfer","inputs":[{"name":"from","type":"address","indexed":true,"internalType":"address"},{"name":"to","type":"address","indexed":true,"internalType":"address"},{"name":"tokenId","type":"uint256","indexed":true,"internalType":"uint256"}],"anonymous":false},{"type":"event","name":"UriUpdated","inputs":[{"name":"agentId","type":"uint256","indexed":true,"internalType":"uint256"},{"name":"newUri","type":"string","indexed":false,"internalType":"string"},{"name":"updatedBy","type":"address","indexed":true,"internalType":"address"}],"anonymous":false},{"type":"error","name":"ERC721IncorrectOwner","inputs":[{"name":"sender","type":"address","internalType":"address"},{"name":"tokenId","type":"uint256","internalType":"uint256"},{"name":"owner","type":"address","internalType":"address"}]},{"type":"error","name":"ERC721InsufficientApproval","inputs":[{"name":"operator","type":"address","internalType":"address"},{"name":"tokenId","type":"uint256","internalType":"uint256"}]},{"type":"error","name":"ERC721InvalidApprover","inputs":[{"name":"approver","type":"address","internalType":"address"}]},{"type":"error","name":"ERC721InvalidOperator","inputs":[{"name":"operator","type":"address","internalType":"address"}]},{"type":"error","name":"ERC721InvalidOwner","inputs":[{"name":"owner","type":"address","internalType":"address"}]},{"type":"error","name":"ERC721InvalidReceiver","inputs":[{"name":"receiver","type":"address","internalType":"address"}]},{"type":"error","name":"ERC721InvalidSender","inputs":[{"name":"sender","type":"address","internalType":"address"}]},{"type":"error","name":"ERC721NonexistentToken","inputs":[{"name":"tokenId","type":"uint256","internalType":"uint256"}]},{"type":"error","name":"OwnableInvalidOwner","inputs":[{"name":"owner","type":"address","internalType":"address"}]},{"type":"error","name":"OwnableUnauthorizedAccount","inputs":[{"name":"account","type":"address","internalType":"address"}]}],"bytecode":{"object":"0x60806040523461037257604080519081016001600160401b03811182821017610288576040908152600d82526c4167656e744964656e7469747960981b602083015280519081016001600160401b0381118282101761028857604052600381526210525160ea1b602082015281516001600160401b038111610288575f54600181811c91168015610368575b602082101461026a57601f8111610306575b50602092601f82116001146102a757928192935f9261029c575b50508160011b915f199060031b1c1916175f555b80516001600160401b03811161028857600154600181811c9116801561027e575b602082101461026a57601f8111610207575b50602091601f82116001146101a7579181925f9261019c575b50508160011b915f199060031b1c1916176001555b33156101895760078054336001600160a01b03198216811790925560405191906001600160a01b03167f8be0079c531659141344cd1fd0a4f28419497f9722a3daafe3b4186f6b6457e05f80a35f60085561229d90816103778239f35b631e4fbdf760e01b5f525f60045260245ffd5b015190505f80610117565b601f1982169260015f52805f20915f5b8581106101ef575083600195106101d7575b505050811b0160015561012c565b01515f1960f88460031b161c191690555f80806101c9565b919260206001819286850151815501940192016101b7565b60015f527fb10e2d527612073b26eecdfd717e6a320cf44b4afac2b0732d9fcbe2b7fa0cf6601f830160051c81019160208410610260575b601f0160051c01905b81811061025557506100fe565b5f8155600101610248565b909150819061023f565b634e487b7160e01b5f52602260045260245ffd5b90607f16906100ec565b634e487b7160e01b5f52604160045260245ffd5b015190505f806100b7565b601f198216935f8052805f20915f5b8681106102ee57508360019596106102d6575b505050811b015f556100cb565b01515f1960f88460031b161c191690555f80806102c9565b919260206001819286850151815501940192016102b6565b5f80527f290decd9548b62a8d60345a988386fc84ba6bc95484008f6362f93160ef3e563601f830160051c8101916020841061035e575b601f0160051c01905b818110610353575061009d565b5f8155600101610346565b909150819061033d565b90607f169061008b565b5f80fdfe6080806040526004361015610012575f80fd5b5f3560e01c90816301ffc9a7146117b457508063043827f11461152257806306fdde0314611480578063081812fc14611462578063095ea7b3146113785780631bc51e7d146112ae57806323b872dd14611297578063340d5dae1461126857806342842e0e14611239578063466648da1461101e57806347cbfdfd14610f6a5780635a75314914610e3e5780636352211e14610e0e57806370a0823114610dbd578063715018a614610d625780637ddde2a0146107cb5780638da5cb5b146107a357806395d89b41146106d9578063a22cb46514610638578063b88d4fde146105dc578063c4d5613114610496578063c8656281146102a1578063c87b56dd14610282578063cb4799f21461021b578063e985e9c5146101c45763f2fde38b1461013a575f80fd5b346101c05760203660031901126101c057610153611908565b61015b611edb565b6001600160a01b031680156101ad57600780546001600160a01b0319811683179091556001600160a01b03167f8be0079c531659141344cd1fd0a4f28419497f9722a3daafe3b4186f6b6457e05f80a3005b631e4fbdf760e01b5f525f60045260245ffd5b5f80fd5b346101c05760403660031901126101c0576101dd611908565b6101e561191e565b9060018060a01b03165f52600560205260405f209060018060a01b03165f52602052602060ff60405f2054166040519015158152f35b346101c05761027e61026361026a6020806102353661197d565b905f526009825260405f20604051938285935191829101845e82019081520301902060405192838092611a98565b0382611854565b6040519182916020835260208301906118e4565b0390f35b346101c05760203660031901126101c05761027e61026a600435611d36565b346101c0576102f86102b23661197d565b6001600160a01b036102c383611d92565b1633148015610457575b8015610438575b6102dd90611b3d565b815f52600a6020526102ff60405f2060405194858092611a98565b0384611854565b815f52600a60205260405f20928151936001600160401b038511610424576103318561032b83546119ac565b836119e4565b6020601f86116001146103a257857f61eb5a86794a96318bb59af5debbecaa981c483db97ce7afb898f1c2fa2f6eba9596610380925f91610397575b508160011b915f199060031b1c19161790565b90555b61039260405192839283611a73565b0390a2005b90508501518861036d565b601f19861690825f52805f20915f5b81811061040c57509187917f61eb5a86794a96318bb59af5debbecaa981c483db97ce7afb898f1c2fa2f6eba9798600194106103f4575b5050811b019055610383565b8601515f1960f88460031b161c1916905587806103e8565b9192602060018192868a0151815501940192016103b1565b634e487b7160e01b5f52604160045260245ffd5b506102dd6001600160a01b0361044d84611b19565b16331490506102d4565b506104913361046584611d92565b60018060a01b03165f52600560205260405f209060018060a01b03165f5260205260ff60405f20541690565b6102cd565b346101c05760203660031901126101c0576004355f60606040516104b981611839565b8181528160208201528260408201520152805f52600a602052600260405f2001541561058b575f52600a60205261056560405f20604051906104fa82611839565b60405161050b816102638185611a98565b8252604051610521816102638160018601611a98565b6020830190815261057860ff6003600285015494604087019586520154169160608501921515835260405195869560208752516080602088015260a08701906118e4565b9051858203601f190160408701526118e4565b9151606084015251151560808301520390f35b60405162461bcd60e51b8152602060048201526024808201527f4167656e74206e6f74207265676973746572656420617320736f63636572206160448201526319d95b9d60e21b6064820152608490fd5b346101c05760803660031901126101c0576105f5611908565b6105fd61191e565b90604435606435926001600160401b0384116101c0576106246106369436906004016118c6565b92610630838383611b7a565b33611f16565b005b346101c05760403660031901126101c057610651611908565b610659611934565b6001600160a01b039091169081156106c657335f52600560205260405f20825f526020526106968160405f209060ff801983541691151516179055565b60405190151581527f17307eab39ab6107e8899845ad3d59bd9653f200f220920489ca2b5937696c3160203392a3005b50630b61174360e31b5f5260045260245ffd5b346101c0575f3660031901126101c0576040515f6001546106f9816119ac565b808452906001811690811561077f5750600114610721575b61027e8361026a81850382611854565b60015f9081527fb10e2d527612073b26eecdfd717e6a320cf44b4afac2b0732d9fcbe2b7fa0cf6939250905b8082106107655750909150810160200161026a610711565b91926001816020925483858801015201910190929161074d565b60ff191660208086019190915291151560051b8401909101915061026a9050610711565b346101c0575f3660031901126101c0576007546040516001600160a01b039091168152602090f35b346101c05760803660031901126101c0576004356001600160401b0381116101c0576107fb9036906004016118c6565b6024356001600160401b0381116101c05761081a9036906004016118c6565b906044356001600160401b0381116101c05761083a9036906004016118c6565b91606435906001600160401b0382116101c057366023830112156101c0578160040135916001600160401b038311610424578260051b90604051936108826020840186611854565b845260246020850192820101903682116101c05760248101925b828410610cc95750505050600854936108b485611d70565b6008556108c1853361204c565b6108cb8186611dc6565b847fca52e62c367d81bb2e328eb795f7c7ba24afb478408a26c0e201d155c449bc4a6040516020815280610904339560208301906118e4565b0390a35f5b8251811015610a8f57602061091e8285611f02565b510151855f52600960205260208060405f2061093a8588611f02565b515190604051938285935191829101845e820190815203019020908051906001600160401b0382116104245761097a8261097485546119ac565b856119e4565b602090601f8311600114610a285791806109ae9260019695945f92610a1d575b50508160011b915f199060031b1c19161790565b90555b6109bb8185611f02565b5151867f2c149ed548c6d2993cd73efe187df6eccabe4538091b33adbd25fafdb8a1468b6109e98488611f02565b515192610a0460206109fb878b611f02565b51015191611d1a565b93610a1460405192839283611a73565b0390a301610909565b015190508a8061099a565b90601f19831691845f52815f20925f5b818110610a77575091600196959492918388959310610a5f575b505050811b0190556109b1565b01515f1960f88460031b161c19169055898080610a52565b92936020600181928786015181550195019301610a38565b508383604051610a9e81611839565b81815260208101938085526040820191428352606081015f8152855f52600a60205260405f2091518051906001600160401b03821161042457610aeb82610ae586546119ac565b866119e4565b602090601f8311600114610c6657610b1992915f9183610a1d5750508160011b915f199060031b1c19161790565b82555b600182019651938451976001600160401b03891161042457888896610b4760209b61097485546119ac565b8a90601f8311600114610be75793610bd19693610b90846003955f5160206122485f395f51905f529b9995610baf995f92610bdc5750508160011b915f199060031b1c19161790565b90555b51600284015551151591019060ff801983541691151516179055565b335f52600b8752610bc38460405f20611a33565b604051918291339683611a73565b0390a3604051908152f35b015190505f8061099a565b90601f19831691845f52815f20925f5b818110610c4c5750845f5160206122485f395f51905f529a9894610baf9894610bd19b989460039860019510610c35575b505050811b019055610b93565b01515f1983891b60f8161c191690558f8080610c28565b8284015185558d9b50600190940193928e01928e01610bf7565b90601f19831691855f52815f20925f5b818110610cb15750908460019594939210610c99575b505050811b018255610b1c565b01515f1960f88460031b161c19169055898080610c8c565b92936020600181928786015181550195019301610c76565b83356001600160401b0381116101c0578201604060231982360301126101c05760405191604083018381106001600160401b038211176104245760405260248201356001600160401b0381116101c057610d2990602436918501016118c6565b83526044820135926001600160401b0384116101c057610d536020949360248695369201016118c6565b8382015281520193019261089c565b346101c0575f3660031901126101c057610d7a611edb565b600780546001600160a01b031981169091555f906001600160a01b03167f8be0079c531659141344cd1fd0a4f28419497f9722a3daafe3b4186f6b6457e08280a3005b346101c05760203660031901126101c0576001600160a01b03610dde611908565b168015610dfb575f526003602052602060405f2054604051908152f35b6322718ad960e21b5f525f60045260245ffd5b346101c05760203660031901126101c0576020610e2c600435611d92565b6040516001600160a01b039091168152f35b346101c05760403660031901126101c0576024356004356001600160401b0382116101c057366023830112156101c0578160040135916001600160401b0383116101c057602481019060248436920101116101c0577fb41beef75d9f8d55b985319b459e96f82453580af381391f1ad531eb8f8b5a3a906001600160a01b03610ec684611d92565b16803314908115610f46575b508015610f27575b610ee390611b3d565b610ef7610ef1368684611890565b84611dc6565b83604051916020835281602084015260408301375f604085830101526040813395601f80199101168101030190a3005b50610ee36001600160a01b03610f3c85611b19565b1633149050610eda565b5f90815260056020908152604080832033845290915290205460ff16905085610ed2565b346101c05760203660031901126101c0576001600160a01b03610f8b611908565b165f52600b60205260405f20604051806020835491828152019081935f5260205f20905f5b8181106110085750505081610fc6910382611854565b604051918291602083019060208452518091526040830191905f5b818110610fef575050500390f35b8251845285945060209384019390920191600101610fe1565b8254845260209093019260019283019201610fb0565b346101c05760603660031901126101c0576004356024356001600160401b0381116101c0576110519036906004016118c6565b906044356001600160401b0381116101c0576110719036906004016118c6565b815f52600260205260018060a01b0360405f20541633148015611204575b80156111e5575b61109f90611b3d565b815f52600960205260405f2060206040518092865180848901845e82019081520301902081516001600160401b038111610424576110e7816110e184546119ac565b846119e4565b6020601f821160011461116257817f2c149ed548c6d2993cd73efe187df6eccabe4538091b33adbd25fafdb8a1468b949392611136925f9161115757508160011b915f199060031b1c19161790565b90555b61114284611d1a565b9361115260405192839283611a73565b0390a3005b90508401518861036d565b601f19821690835f52805f20915f5b8181106111cd57509183917f2c149ed548c6d2993cd73efe187df6eccabe4538091b33adbd25fafdb8a1468b969594600194106111b5575b5050811b019055611139565b8501515f1960f88460031b161c1916905587806111a9565b9192602060018192868a015181550194019201611171565b5061109f6001600160a01b036111fa84611b19565b1633149050611096565b505f828152600260209081526040808320546001600160a01b031683526005825280832033845290915290205460ff1661108f565b346101c05761063661124a36611943565b906040519261125a602085611854565b5f8452610630838383611b7a565b346101c05760203660031901126101c0576004355f52600a6020526020600260405f2001541515604051908152f35b346101c0576106366112a836611943565b91611b7a565b346101c05760403660031901126101c0576004357f5b7fa91ee392647b777096db0d386dc7cb7a3bfbc86ae6a10e0500de3a5ad02f60206112ed611934565b6001600160a01b036112fe85611d92565b1633148015611365575b8015611346575b61131890611b3d565b835f52600a825261133b81600360405f20019060ff801983541691151516179055565b6040519015158152a2005b506113186001600160a01b0361135b86611b19565b163314905061130f565b506113733361046586611d92565b611308565b346101c05760403660031901126101c057611391611908565b60243561139d81611d92565b3315158061144f575b80611422575b61140f5781906001600160a01b0384811691167f8c5be1e5ebec7d5bd14f71427d1e84f3dd0314c0f7b2291e5b200ac8c7c3b9255f80a45f90815260046020526040902080546001600160a01b0319166001600160a01b03909216919091179055005b63a9fbf51f60e01b5f523360045260245ffd5b506001600160a01b0381165f90815260056020908152604080832033845290915290205460ff16156113ac565b506001600160a01b0381163314156113a6565b346101c05760203660031901126101c0576020610e2c600435611b19565b346101c0575f3660031901126101c0576040515f5f5461149f816119ac565b808452906001811690811561077f57506001146114c65761027e8361026a81850382611854565b5f8080527f290decd9548b62a8d60345a988386fc84ba6bc95484008f6362f93160ef3e563939250905b8082106115085750909150810160200161026a610711565b9192600181602092548385880101520191019092916114f0565b346101c05760603660031901126101c0576004356001600160401b0381116101c0576115529036906004016118c6565b6024356001600160401b0381116101c0576115719036906004016118c6565b906044356001600160401b0381116101c0576115919036906004016118c6565b906008549161159f83611d70565b6008556115ac833361204c565b6115b68184611dc6565b827fca52e62c367d81bb2e328eb795f7c7ba24afb478408a26c0e201d155c449bc4a60405160208152806115ef339560208301906118e4565b0390a36040516115fe81611839565b81815260208101938085526040820191428352606081015f8152855f52600a60205260405f2091518051906001600160401b0382116104245761164582610ae586546119ac565b602090601f83116001146117515761167392915f9183610a1d5750508160011b915f199060031b1c19161790565b82555b600182019651938451976001600160401b038911610424578888966116a160209b61097485546119ac565b8a90601f83116001146116ea5793610bd19693610b90846003955f5160206122485f395f51905f529b9995610baf995f92610bdc5750508160011b915f199060031b1c19161790565b90601f19831691845f52815f20925f5b8181106117375750845f5160206122485f395f51905f529a9894610baf9894610bd19b989460039860019510610c3557505050811b019055610b93565b8284015185558d9b50600190940193928e01928e016116fa565b90601f19831691855f52815f20925f5b81811061179c5750908460019594939210611784575b505050811b018255611676565b01515f1960f88460031b161c19169055898080611777565b92936020600181928786015181550195019301611761565b346101c05760203660031901126101c0576004359063ffffffff60e01b82168092036101c057602091632483248360e11b81149081156117f6575b5015158152f35b6380ac58cd60e01b811491508115611828575b8115611817575b50836117ef565b6301ffc9a760e01b14905083611810565b635b5e139f60e01b81149150611809565b608081019081106001600160401b0382111761042457604052565b90601f801991011681019081106001600160401b0382111761042457604052565b6001600160401b03811161042457601f01601f191660200190565b92919261189c82611875565b916118aa6040519384611854565b8294818452818301116101c0578281602093845f960137010152565b9080601f830112156101c0578160206118e193359101611890565b90565b805180835260209291819084018484015e5f828201840152601f01601f1916010190565b600435906001600160a01b03821682036101c057565b602435906001600160a01b03821682036101c057565b6024359081151582036101c057565b60609060031901126101c0576004356001600160a01b03811681036101c057906024356001600160a01b03811681036101c0579060443590565b9060406003198301126101c05760043591602435906001600160401b0382116101c0576118e1916004016118c6565b90600182811c921680156119da575b60208310146119c657565b634e487b7160e01b5f52602260045260245ffd5b91607f16916119bb565b601f82116119f157505050565b5f5260205f20906020601f840160051c83019310611a29575b601f0160051c01905b818110611a1e575050565b5f8155600101611a13565b9091508190611a0a565b805490680100000000000000008210156104245760018201808255821015611a5f575f5260205f200155565b634e487b7160e01b5f52603260045260245ffd5b9091611a8a6118e1936040845260408401906118e4565b9160208184039101526118e4565b5f9291815491611aa7836119ac565b8083529260018116908115611afc5750600114611ac357505050565b5f9081526020812093945091925b838310611ae2575060209250010190565b600181602092949394548385870101520191019190611ad1565b915050602093945060ff929192191683830152151560051b010190565b611b2281611d92565b505f908152600460205260409020546001600160a01b031690565b15611b4457565b60405162461bcd60e51b815260206004820152600e60248201526d139bdd08185d5d1a1bdc9a5e995960921b6044820152606490fd5b6001600160a01b0390911691908215611d07575f828152600260205260409020546001600160a01b031692829033151580611c72575b5084611c3f575b805f52600360205260405f2060018154019055815f52600260205260405f20816bffffffffffffffffffffffff60a01b825416179055847fddf252ad1be2c89b69c2b068fc378daa952ba7f163c4a11628f55a4df523b3ef5f80a46001600160a01b0316808303611c2757505050565b6364283d7b60e01b5f5260045260245260445260645ffd5b5f82815260046020526040902080546001600160a01b0319169055845f52600360205260405f205f198154019055611bb7565b90915080611cb6575b15611c885782905f611bb0565b8284611ca057637e27328960e01b5f5260045260245ffd5b63177e802f60e01b5f523360045260245260445ffd5b503384148015611ce5575b80611c7b57505f838152600460205260409020546001600160a01b03163314611c7b565b505f84815260056020908152604080832033845290915290205460ff16611cc1565b633250574960e11b5f525f60045260245ffd5b602090604051918183925191829101835e81015f815203902090565b611d3f81611d92565b505f526006602052610263611d5d60405f2060405192838092611a98565b5f604051611d6c602082611854565b5290565b5f198114611d7e5760010190565b634e487b7160e01b5f52601160045260245ffd5b5f818152600260205260409020546001600160a01b0316908115611db4575090565b637e27328960e01b5f5260045260245ffd5b919091805f52600660205260405f2083516001600160401b03811161042457611df3816110e184546119ac565b6020601f8211600114611e5357816020949392611e47927ff8e1a15aba9398e019f0b49df1a4fde98ee17ae345cb5f6b5e2c27f5033e8ce797985f92610bdc5750508160011b915f199060031b1c19161790565b90555b604051908152a1565b601f19821695835f52815f20965f5b818110611ec3575096600192849260209796957ff8e1a15aba9398e019f0b49df1a4fde98ee17ae345cb5f6b5e2c27f5033e8ce7999a10611eab575b505050811b019055611e4a565b01515f1960f88460031b161c191690555f8080611e9e565b83830151895560019098019760209384019301611e62565b6007546001600160a01b03163303611eef57565b63118cdaa760e01b5f523360045260245ffd5b8051821015611a5f5760209160051b010190565b823b611f24575b5050505050565b604051630a85bd0160e11b81526001600160a01b039182166004820152918116602483015260448201939093526080606482015291169160209082908190611f709060848301906118e4565b03815f865af15f9181612007575b50611fd357503d15611fcc573d611f9481611875565b90611fa26040519283611854565b81523d5f602083013e5b80519081611fc75782633250574960e11b5f5260045260245ffd5b602001fd5b6060611fac565b6001600160e01b03191663757a42ff60e11b01611ff557505f80808080611f1d565b633250574960e11b5f5260045260245ffd5b9091506020813d602011612044575b8161202360209383611854565b810103126101c057516001600160e01b0319811681036101c057905f611f7e565b3d9150612016565b906020906040519061205e8383611854565b5f82526001600160a01b038416938415611d07575f8281526002855260409020546001600160a01b03168015159081612216575b865f526003865260405f2060018154019055835f526002865260405f20876bffffffffffffffffffffffff60a01b8254161790558387827fddf252ad1be2c89b69c2b068fc378daa952ba7f163c4a11628f55a4df523b3ef5f80a450612203573b6120fe575b50505050565b9161213b91819495936040519384928392630a85bd0160e11b84523360048501525f602485015260448401526080606484015260848301906118e4565b03815f885af15f91816121c3575b5061219e5750503d15612196573d9061216182611875565b9161216f6040519384611854565b82523d5f8284013e5b815191826121935783633250574960e11b5f5260045260245ffd5b01fd5b606090612178565b909291506001600160e01b03191663757a42ff60e11b01611ff557505f8080806120f8565b9091508381813d83116121fc575b6121db8183611854565b810103126101c057516001600160e01b0319811681036101c057905f612149565b503d6121d1565b6339e3563760e11b5f525f60045260245ffd5b5f8481526004602052604080822080546001600160a01b031916905582825260038852902080545f1901905561209256fe868573086689307c254adec5edbede6479c40698de22919e54669d54b70b4d2ea264697066735822122080efc12351c89b459af776aac309ddee65785d003af396abb9021befdc085f9964736f6c634300081e0033","linkReferences":{}},"methodIdentifiers":{"approve(address,uint256)":"095ea7b3","balanceOf(address)":"70a08231","getApproved(uint256)":"081812fc","getDeveloperAgents(address)":"47cbfdfd","getMetadata(uint256,string)":"cb4799f2","getSoccerAgentInfo(uint256)":"c4d56131","isApprovedForAll(address,address)":"e985e9c5","isSoccerAgent(uint256)":"340d5dae","name()":"06fdde03","owner()":"8da5cb5b","ownerOf(uint256)":"6352211e","registerSoccerAgent(string,string,string)":"043827f1","registerSoccerAgent(string,string,string,(string,bytes)[])":"7ddde2a0","renounceOwnership()":"715018a6","safeTransferFrom(address,address,uint256)":"42842e0e","safeTransferFrom(address,address,uint256,bytes)":"b88d4fde","setAgentStatus(uint256,bool)":"1bc51e7d","setAgentUri(uint256,string)":"5a753149","setApprovalForAll(address,bool)":"a22cb465","setMetadata(uint256,string,bytes)":"466648da","supportsInterface(bytes4)":"01ffc9a7","symbol()":"95d89b41","tokenURI(uint256)":"c87b56dd","transferFrom(address,address,uint256)":"23b872dd","transferOwnership(address)":"f2fde38b","updateTeamName(uint256,string)":"c8656281"},"id":24}