{"abi":[{"type":"function","name":"approve","inputs":[{"name":"","type":"address","internalType":"address"},{"name":"","type":"uint256","internalType":"uint256"}],"outputs":[],"stateMutability":"pure"},{"type":"function","name":"attest","inputs":[{"name":"account","type":"address","internalType":"address"},{"name":"metadataURI","type":"string","internalType":"string"}],"outputs":[{"name":"tokenId","type":"uint256","internalType":"uint256"}],"stateMutability":"nonpayable"},{"type":"function","name":"balanceOf","inputs":[{"name":"account","type":"address","internalType":"address"}],"outputs":[{"name":"","type":"uint256","internalType":"uint256"}],"stateMutability":"view"},{"type":"function","name":"getApproved","inputs":[{"name":"","type":"uint256","internalType":"uint256"}],"outputs":[{"name":"","type":"address","internalType":"address"}],"stateMutability":"pure"},{"type":"function","name":"hasIdentity","inputs":[{"name":"account","type":"address","internalType":"address"}],"outputs":[{"name":"","type":"bool","internalType":"bool"}],"stateMutability":"view"},{"type":"function","name":"isApprovedForAll","inputs":[{"name":"","type":"address","internalType":"address"},{"name":"","type":"address","internalType":"address"}],"outputs":[{"name":"","type":"bool","internalType":"bool"}],"stateMutability":"pure"},{"type":"function","name":"mintSelf","inputs":[{"name":"metadataURI","type":"string","internalType":"string"}],"outputs":[{"name":"tokenId","type":"uint256","internalType":"uint256"}],"stateMutability":"nonpayable"},{"type":"function","name":"name","inputs":[],"outputs":[{"name":"","type":"string","internalType":"string"}],"stateMutability":"view"},{"type":"function","name":"owner","inputs":[],"outputs":[{"name":"","type":"address","internalType":"address"}],"stateMutability":"view"},{"type":"function","name":"ownerOf","inputs":[{"name":"tokenId","type":"uint256","internalType":"uint256"}],"outputs":[{"name":"","type":"address","internalType":"address"}],"stateMutability":"view"},{"type":"function","name":"safeTransferFrom","inputs":[{"name":"","type":"address","internalType":"address"},{"name":"","type":"address","internalType":"address"},{"name":"","type":"uint256","internalType":"uint256"}],"outputs":[],"stateMutability":"pure"},{"type":"function","name":"safeTransferFrom","inputs":[{"name":"","type":"address","internalType":"address"},{"name":"","type":"address","internalType":"address"},{"name":"","type":"uint256","internalType":"uint256"},{"name":"","type":"bytes","internalType":"bytes"}],"outputs":[],"stateMutability":"pure"},{"type":"function","name":"setApprovalForAll","inputs":[{"name":"","type":"address","internalType":"address"},{"name":"","type":"bool","internalType":"bool"}],"outputs":[],"stateMutability":"pure"},{"type":"function","name":"supportsInterface","inputs":[{"name":"interfaceId","type":"bytes4","internalType":"bytes4"}],"outputs":[{"name":"","type":"bool","internalType":"bool"}],"stateMutability":"pure"},{"type":"function","name":"symbol","inputs":[],"outputs":[{"name":"","type":"string","internalType":"string"}],"stateMutability":"view"},{"type":"function","name":"tokenIdOf","inputs":[{"name":"account","type":"address","internalType":"address"}],"outputs":[{"name":"","type":"uint256","internalType":"uint256"}],"stateMutability":"view"},{"type":"function","name":"tokenURI","inputs":[{"name":"tokenId","type":"uint256","internalType":"uint256"}],"outputs":[{"name":"","type":"string","internalType":"string"}],"stateMutability":"view"},{"type":"function","name":"transferFrom","inputs":[{"name":"","type":"address","internalType":"address"},{"name":"","type":"address","internalType":"address"},{"name":"","type":"uint256","internalType":"uint256"}],"outputs":[],"stateMutability":"pure"},{"type":"function","name":"transferOwnership","inputs":[{"name":"newOwner","type":"address","internalType":"address"}],"outputs":[],"stateMutability":"nonpayable"},{"type":"event","name":"IdentityMinted","inputs":[{"name":"account","type":"address","indexed":true,"internalType":"address"},{"name":"tokenId","type":"uint256","indexed":true,"internalType":"uint256"},{"name":"metadataURI","type":"string","indexed":false,"internalType":"string"}],"anonymous":false},{"type":"event","name":"OwnershipTransferred","inputs":[{"name":"previousOwner","type":"address","indexed":true,"internalType":"address"},{"name":"newOwner","type":"address","indexed":true,"internalType":"address"}],"anonymous":false},{"type":"error","name":"IdentityAlreadyExists","inputs":[]},{"type":"error","name":"IdentityDoesNotExist","inputs":[]},{"type":"error","name":"Soulbound","inputs":[]}],"bytecode":{"object":"0x6080604052600180553480156012575f5ffd5b50602033602460201b60201c565b60e5565b5f5f5f9054906101000a900473ffffffffffffffffffffffffffffffffffffffff169050815f5f6101000a81548173ffffffffffffffffffffffffffffffffffffffff021916908373ffffffffffffffffffffffffffffffffffffffff1602179055508173ffffffffffffffffffffffffffffffffffffffff168173ffffffffffffffffffffffffffffffffffffffff167f8be0079c531659141344cd1fd0a4f28419497f9722a3daafe3b4186f6b6457e060405160405180910390a35050565b6117c7806100f25f395ff3fe608060405234801561000f575f5ffd5b506004361061011f575f3560e01c8063773c02d4116100ab578063a91dcd171161006f578063a91dcd171461033d578063b88d4fde1461036d578063c87b56dd14610389578063e985e9c5146103b9578063f2fde38b146103e95761011f565b8063773c02d4146102855780638da5cb5b146102b557806395d89b41146102d3578063a22cb465146102f1578063a3c06bfd1461030d5761011f565b8063237f1a21116100f2578063237f1a21146101bd57806323b872dd146101ed57806342842e0e146102095780636352211e1461022557806370a08231146102555761011f565b806301ffc9a71461012357806306fdde0314610153578063081812fc14610171578063095ea7b3146101a1575b5f5ffd5b61013d60048036038101906101389190610d51565b610405565b60405161014a9190610d96565b60405180910390f35b61015b610436565b6040516101689190610e1f565b60405180910390f35b61018b60048036038101906101869190610e72565b61046f565b6040516101989190610edc565b60405180910390f35b6101bb60048036038101906101b69190610f1f565b610478565b005b6101d760048036038101906101d29190610f5d565b6104aa565b6040516101e49190610d96565b60405180910390f35b61020760048036038101906102029190610f88565b6104f3565b005b610223600480360381019061021e9190610f88565b610525565b005b61023f600480360381019061023a9190610e72565b610557565b60405161024c9190610edc565b60405180910390f35b61026f600480360381019061026a9190610f5d565b6105fa565b60405161027c9190610fe7565b60405180910390f35b61029f600480360381019061029a9190610f5d565b61061b565b6040516102ac9190610fe7565b60405180910390f35b6102bd61069f565b6040516102ca9190610edc565b60405180910390f35b6102db6106c6565b6040516102e89190610e1f565b60405180910390f35b61030b6004803603810190610306919061102a565b6106ff565b005b610327600480360381019061032291906110c9565b610731565b6040516103349190610fe7565b60405180910390f35b61035760048036038101906103529190611126565b610842565b6040516103649190610fe7565b60405180910390f35b610387600480360381019061038291906111c6565b610856565b005b6103a3600480360381019061039e9190610e72565b610888565b6040516103b09190610e1f565b60405180910390f35b6103d360048036038101906103ce919061124a565b6109be565b6040516103e09190610d96565b60405180910390f35b61040360048036038101906103fe9190610f5d565b6109c8565b005b5f6301ffc9a760e01b827bffffffffffffffffffffffffffffffffffffffffffffffffffffffff1916149050919050565b6040518060400160405280601b81526020017f43726561746f722052657075746174696f6e204964656e74697479000000000081525081565b5f5f9050919050565b6040517fa4420a9500000000000000000000000000000000000000000000000000000000815260040160405180910390fd5b5f5f60025f8473ffffffffffffffffffffffffffffffffffffffff1673ffffffffffffffffffffffffffffffffffffffff1681526020019081526020015f205414159050919050565b6040517fa4420a9500000000000000000000000000000000000000000000000000000000815260040160405180910390fd5b6040517fa4420a9500000000000000000000000000000000000000000000000000000000815260040160405180910390fd5b5f5f60035f8481526020019081526020015f205f9054906101000a900473ffffffffffffffffffffffffffffffffffffffff1690505f73ffffffffffffffffffffffffffffffffffffffff168173ffffffffffffffffffffffffffffffffffffffff16036105f1576040517fc597feeb00000000000000000000000000000000000000000000000000000000815260040160405180910390fd5b80915050919050565b5f610604826104aa565b61060e575f610611565b60015b60ff169050919050565b5f5f60025f8473ffffffffffffffffffffffffffffffffffffffff1673ffffffffffffffffffffffffffffffffffffffff1681526020019081526020015f205490505f8103610696576040517fc597feeb00000000000000000000000000000000000000000000000000000000815260040160405180910390fd5b80915050919050565b5f5f5f9054906101000a900473ffffffffffffffffffffffffffffffffffffffff16905090565b6040518060400160405280600381526020017f435249000000000000000000000000000000000000000000000000000000000081525081565b6040517fa4420a9500000000000000000000000000000000000000000000000000000000815260040160405180910390fd5b5f5f5f9054906101000a900473ffffffffffffffffffffffffffffffffffffffff1673ffffffffffffffffffffffffffffffffffffffff163373ffffffffffffffffffffffffffffffffffffffff16146107c0576040517f08c379a00000000000000000000000000000000000000000000000000000000081526004016107b7906112d2565b60405180910390fd5b5f73ffffffffffffffffffffffffffffffffffffffff168473ffffffffffffffffffffffffffffffffffffffff160361082e576040517f08c379a00000000000000000000000000000000000000000000000000000000081526004016108259061133a565b60405180910390fd5b610839848484610ad0565b90509392505050565b5f61084e338484610ad0565b905092915050565b6040517fa4420a9500000000000000000000000000000000000000000000000000000000815260040160405180910390fd5b60605f73ffffffffffffffffffffffffffffffffffffffff1660035f8481526020019081526020015f205f9054906101000a900473ffffffffffffffffffffffffffffffffffffffff1673ffffffffffffffffffffffffffffffffffffffff160361091f576040517fc597feeb00000000000000000000000000000000000000000000000000000000815260040160405180910390fd5b60045f8381526020019081526020015f20805461093b90611385565b80601f016020809104026020016040519081016040528092919081815260200182805461096790611385565b80156109b25780601f10610989576101008083540402835291602001916109b2565b820191905f5260205f20905b81548152906001019060200180831161099557829003601f168201915b50505050509050919050565b5f5f905092915050565b5f5f9054906101000a900473ffffffffffffffffffffffffffffffffffffffff1673ffffffffffffffffffffffffffffffffffffffff163373ffffffffffffffffffffffffffffffffffffffff1614610a56576040517f08c379a0000000000000000000000000000000000000000000000000000000008152600401610a4d906112d2565b60405180910390fd5b5f73ffffffffffffffffffffffffffffffffffffffff168173ffffffffffffffffffffffffffffffffffffffff1603610ac4576040517f08c379a0000000000000000000000000000000000000000000000000000000008152600401610abb906113ff565b60405180910390fd5b610acd81610c33565b50565b5f610ada846104aa565b15610b11576040517f6b41035600000000000000000000000000000000000000000000000000000000815260040160405180910390fd5b60015f815480929190610b239061144a565b9190505590508060025f8673ffffffffffffffffffffffffffffffffffffffff1673ffffffffffffffffffffffffffffffffffffffff1681526020019081526020015f20819055508360035f8381526020019081526020015f205f6101000a81548173ffffffffffffffffffffffffffffffffffffffff021916908373ffffffffffffffffffffffffffffffffffffffff160217905550828260045f8481526020019081526020015f209182610bda929190611668565b50808473ffffffffffffffffffffffffffffffffffffffff167fa23c6059fb98710ad930a2c63a75f002d8c23ca16869e8611c53a5c25e08a7648585604051610c2492919061176f565b60405180910390a39392505050565b5f5f5f9054906101000a900473ffffffffffffffffffffffffffffffffffffffff169050815f5f6101000a81548173ffffffffffffffffffffffffffffffffffffffff021916908373ffffffffffffffffffffffffffffffffffffffff1602179055508173ffffffffffffffffffffffffffffffffffffffff168173ffffffffffffffffffffffffffffffffffffffff167f8be0079c531659141344cd1fd0a4f28419497f9722a3daafe3b4186f6b6457e060405160405180910390a35050565b5f5ffd5b5f5ffd5b5f7fffffffff0000000000000000000000000000000000000000000000000000000082169050919050565b610d3081610cfc565b8114610d3a575f5ffd5b50565b5f81359050610d4b81610d27565b92915050565b5f60208284031215610d6657610d65610cf4565b5b5f610d7384828501610d3d565b91505092915050565b5f8115159050919050565b610d9081610d7c565b82525050565b5f602082019050610da95f830184610d87565b92915050565b5f81519050919050565b5f82825260208201905092915050565b8281835e5f83830152505050565b5f601f19601f8301169050919050565b5f610df182610daf565b610dfb8185610db9565b9350610e0b818560208601610dc9565b610e1481610dd7565b840191505092915050565b5f6020820190508181035f830152610e378184610de7565b905092915050565b5f819050919050565b610e5181610e3f565b8114610e5b575f5ffd5b50565b5f81359050610e6c81610e48565b92915050565b5f60208284031215610e8757610e86610cf4565b5b5f610e9484828501610e5e565b91505092915050565b5f73ffffffffffffffffffffffffffffffffffffffff82169050919050565b5f610ec682610e9d565b9050919050565b610ed681610ebc565b82525050565b5f602082019050610eef5f830184610ecd565b92915050565b610efe81610ebc565b8114610f08575f5ffd5b50565b5f81359050610f1981610ef5565b92915050565b5f5f60408385031215610f3557610f34610cf4565b5b5f610f4285828601610f0b565b9250506020610f5385828601610e5e565b9150509250929050565b5f60208284031215610f7257610f71610cf4565b5b5f610f7f84828501610f0b565b91505092915050565b5f5f5f60608486031215610f9f57610f9e610cf4565b5b5f610fac86828701610f0b565b9350506020610fbd86828701610f0b565b9250506040610fce86828701610e5e565b9150509250925092565b610fe181610e3f565b82525050565b5f602082019050610ffa5f830184610fd8565b92915050565b61100981610d7c565b8114611013575f5ffd5b50565b5f8135905061102481611000565b92915050565b5f5f604083850312156110405761103f610cf4565b5b5f61104d85828601610f0b565b925050602061105e85828601611016565b9150509250929050565b5f5ffd5b5f5ffd5b5f5ffd5b5f5f83601f84011261108957611088611068565b5b8235905067ffffffffffffffff8111156110a6576110a561106c565b5b6020830191508360018202830111156110c2576110c1611070565b5b9250929050565b5f5f5f604084860312156110e0576110df610cf4565b5b5f6110ed86828701610f0b565b935050602084013567ffffffffffffffff81111561110e5761110d610cf8565b5b61111a86828701611074565b92509250509250925092565b5f5f6020838503121561113c5761113b610cf4565b5b5f83013567ffffffffffffffff81111561115957611158610cf8565b5b61116585828601611074565b92509250509250929050565b5f5f83601f84011261118657611185611068565b5b8235905067ffffffffffffffff8111156111a3576111a261106c565b5b6020830191508360018202830111156111bf576111be611070565b5b9250929050565b5f5f5f5f5f608086880312156111df576111de610cf4565b5b5f6111ec88828901610f0b565b95505060206111fd88828901610f0b565b945050604061120e88828901610e5e565b935050606086013567ffffffffffffffff81111561122f5761122e610cf8565b5b61123b88828901611171565b92509250509295509295909350565b5f5f604083850312156112605761125f610cf4565b5b5f61126d85828601610f0b565b925050602061127e85828601610f0b565b9150509250929050565b7f4f776e61626c653a206e6f74206f776e657200000000000000000000000000005f82015250565b5f6112bc601283610db9565b91506112c782611288565b602082019050919050565b5f6020820190508181035f8301526112e9816112b0565b9050919050565b7f4964656e74697479546f6b656e3a207a65726f206163636f756e7400000000005f82015250565b5f611324601b83610db9565b915061132f826112f0565b602082019050919050565b5f6020820190508181035f83015261135181611318565b9050919050565b7f4e487b71000000000000000000000000000000000000000000000000000000005f52602260045260245ffd5b5f600282049050600182168061139c57607f821691505b6020821081036113af576113ae611358565b5b50919050565b7f4f776e61626c653a207a65726f206164647265737300000000000000000000005f82015250565b5f6113e9601583610db9565b91506113f4826113b5565b602082019050919050565b5f6020820190508181035f830152611416816113dd565b9050919050565b7f4e487b71000000000000000000000000000000000000000000000000000000005f52601160045260245ffd5b5f61145482610e3f565b91507fffffffffffffffffffffffffffffffffffffffffffffffffffffffffffffffff82036114865761148561141d565b5b600182019050919050565b5f82905092915050565b7f4e487b71000000000000000000000000000000000000000000000000000000005f52604160045260245ffd5b5f819050815f5260205f209050919050565b5f6020601f8301049050919050565b5f82821b905092915050565b5f600883026115247fffffffffffffffffffffffffffffffffffffffffffffffffffffffffffffffff826114e9565b61152e86836114e9565b95508019841693508086168417925050509392505050565b5f819050919050565b5f61156961156461155f84610e3f565b611546565b610e3f565b9050919050565b5f819050919050565b6115828361154f565b61159661158e82611570565b8484546114f5565b825550505050565b5f5f905090565b6115ad61159e565b6115b8818484611579565b505050565b5b818110156115db576115d05f826115a5565b6001810190506115be565b5050565b601f821115611620576115f1816114c8565b6115fa846114da565b81016020851015611609578190505b61161d611615856114da565b8301826115bd565b50505b505050565b5f82821c905092915050565b5f6116405f1984600802611625565b1980831691505092915050565b5f6116588383611631565b9150826002028217905092915050565b6116728383611491565b67ffffffffffffffff81111561168b5761168a61149b565b5b6116958254611385565b6116a08282856115df565b5f601f8311600181146116cd575f84156116bb578287013590505b6116c5858261164d565b86555061172c565b601f1984166116db866114c8565b5f5b82811015611702578489013582556001820191506020850194506020810190506116dd565b8683101561171f578489013561171b601f891682611631565b8355505b6001600288020188555050505b50505050505050565b828183375f83830152505050565b5f61174e8385610db9565b935061175b838584611735565b61176483610dd7565b840190509392505050565b5f6020820190508181035f830152611788818486611743565b9050939250505056fea26469706673582212206c6ccf82f1d1908f763ff90ae1e30856c86a1b8f31212ee28016e0f99240248864736f6c634300081e0033","linkReferences":{}},"methodIdentifiers":{"approve(address,uint256)":"095ea7b3","attest(address,string)":"a3c06bfd","balanceOf(address)":"70a08231","getApproved(uint256)":"081812fc","hasIdentity(address)":"237f1a21","isApprovedForAll(address,address)":"e985e9c5","mintSelf(string)":"a91dcd17","name()":"06fdde03","owner()":"8da5cb5b","ownerOf(uint256)":"6352211e","safeTransferFrom(address,address,uint256)":"42842e0e","safeTransferFrom(address,address,uint256,bytes)":"b88d4fde","setApprovalForAll(address,bool)":"a22cb465","supportsInterface(bytes4)":"01ffc9a7","symbol()":"95d89b41","tokenIdOf(address)":"773c02d4","tokenURI(uint256)":"c87b56dd","transferFrom(address,address,uint256)":"23b872dd","transferOwnership(address)":"f2fde38b"},"id":21}