{"abi":[{"type":"constructor","inputs":[{"name":"_identityRegistry","type":"address","internalType":"address"}],"stateMutability":"nonpayable"},{"type":"function","name":"getAgentValidations","inputs":[{"name":"agentId","type":"uint256","internalType":"uint256"}],"outputs":[{"name":"","type":"bytes32[]","internalType":"bytes32[]"}],"stateMutability":"view"},{"type":"function","name":"getIdentityRegistry","inputs":[],"outputs":[{"name":"","type":"address","internalType":"address"}],"stateMutability":"view"},{"type":"function","name":"getSummary","inputs":[{"name":"agentId","type":"uint256","internalType":"uint256"},{"name":"validatorAddresses","type":"address[]","internalType":"address[]"},{"name":"tag","type":"bytes32","internalType":"bytes32"}],"outputs":[{"name":"count","type":"uint64","internalType":"uint64"},{"name":"avgResponse","type":"uint8","internalType":"uint8"}],"stateMutability":"view"},{"type":"function","name":"getValidationStatus","inputs":[{"name":"requestHash","type":"bytes32","internalType":"bytes32"}],"outputs":[{"name":"validatorAddress","type":"address","internalType":"address"},{"name":"agentId","type":"uint256","internalType":"uint256"},{"name":"response","type":"uint8","internalType":"uint8"},{"name":"responseHash","type":"bytes32","internalType":"bytes32"},{"name":"tag","type":"bytes32","internalType":"bytes32"},{"name":"lastUpdate","type":"uint256","internalType":"uint256"}],"stateMutability":"view"},{"type":"function","name":"getValidatorRequests","inputs":[{"name":"validatorAddress","type":"address","internalType":"address"}],"outputs":[{"name":"","type":"bytes32[]","internalType":"bytes32[]"}],"stateMutability":"view"},{"type":"function","name":"validationRequest","inputs":[{"name":"validatorAddress","type":"address","internalType":"address"},{"name":"agentId","type":"uint256","internalType":"uint256"},{"name":"requestUri","type":"string","internalType":"string"},{"name":"requestHash","type":"bytes32","internalType":"bytes32"}],"outputs":[],"stateMutability":"nonpayable"},{"type":"function","name":"validationResponse","inputs":[{"name":"requestHash","type":"bytes32","internalType":"bytes32"},{"name":"response","type":"uint8","internalType":"uint8"},{"name":"responseUri","type":"string","internalType":"string"},{"name":"responseHash","type":"bytes32","internalType":"bytes32"},{"name":"tag","type":"bytes32","internalType":"bytes32"}],"outputs":[],"stateMutability":"nonpayable"},{"type":"function","name":"validations","inputs":[{"name":"","type":"bytes32","internalType":"bytes32"}],"outputs":[{"name":"validatorAddress","type":"address","internalType":"address"},{"name":"agentId","type":"uint256","internalType":"uint256"},{"name":"response","type":"uint8","internalType":"uint8"},{"name":"responseHash","type":"bytes32","internalType":"bytes32"},{"name":"tag","type":"bytes32","internalType":"bytes32"},{"name":"lastUpdate","type":"uint256","internalType":"uint256"}],"stateMutability":"view"},{"type":"event","name":"ValidationRequest","inputs":[{"name":"validatorAddress","type":"address","indexed":true,"internalType":"address"},{"name":"agentId","type":"uint256","indexed":true,"internalType":"uint256"},{"name":"requestUri","type":"string","indexed":false,"internalType":"string"},{"name":"requestHash","type":"bytes32","indexed":true,"internalType":"bytes32"}],"anonymous":false},{"type":"event","name":"ValidationResponse","inputs":[{"name":"validatorAddress","type":"address","indexed":true,"internalType":"address"},{"name":"agentId","type":"uint256","indexed":true,"internalType":"uint256"},{"name":"requestHash","type":"bytes32","indexed":true,"internalType":"bytes32"},{"name":"response","type":"uint8","indexed":false,"internalType":"uint8"},{"name":"responseUri","type":"string","indexed":false,"internalType":"string"},{"name":"responseHash","type":"bytes32","indexed":false,"internalType":"bytes32"},{"name":"tag","type":"bytes32","indexed":false,"internalType":"bytes32"}],"anonymous":false}],"bytecode":{"object":"0x60a0346100ab57601f610c0038819003918201601f19168301916001600160401b038311848410176100af578084926020946040528339810103126100ab57516001600160a01b0381168082036100ab571561007757608052604051610b3c90816100c482396080518181816101e401526102940152f35b60405162461bcd60e51b815260206004820152600c60248201526b626164206964656e7469747960a01b6044820152606490fd5b5f80fd5b634e487b7160e01b5f52604160045260245ffdfe60806040526004361015610011575f80fd5b5f3560e01c806330e5993a146108225780634bf3158c146107b05780638d5d0c2d14610740578063a0aa15a114610541578063aaf400c414610213578063bc4d861b146101cf578063e28c3802146101535763ff2febfc14610071575f80fd5b3461014f57602036600319011261014f576004355f525f60205260405f2060405161009b81610a52565b61014b60018060a01b03835416918281526001840154926020820193845260ff600286015416946040830195865260ff600382015493606081019485526100fb60056004850154946080840195865201549460a0830195865215156109fc565b60018060a01b03905116955196511692519051915192604051968796879260ff9060a095929897969360c0860199600180891b031686526020860152166040840152606083015260808201520152565b0390f35b5f80fd5b3461014f57602036600319011261014f57600480355f908152602081815260409182902080546001820154600283015460038401549684015460059094015486516001600160a01b0390941684529483019190915260ff16938101939093526060830193909352608082019290925260a081019190915260c090f35b3461014f575f36600319011261014f576040517f00000000000000000000000000000000000000000000000000000000000000006001600160a01b03168152602090f35b3461014f57608036600319011261014f5761022c6109ad565b60243560443567ffffffffffffffff811161014f5761024f90369060040161097f565b606435936001600160a01b031691821561050c575f858152602081905260409020546001600160a01b03166104de576040516331a9108f60e11b8152600481018590527f00000000000000000000000000000000000000000000000000000000000000006001600160a01b031690602081602481855afa908115610491575f9161049c575b5060018060a01b03169081331491821561041b575b5050156103e5577f530436c3634a98e1e626b0898be2f1e9980cc1bd2a78c07a0aba52d0a48a50599160405161031e81610a52565b848152600560208201878152604083015f8152606084015f815260ff60808601925f845260a08701944286528d5f525f60205260405f209760018060a01b039051166bffffffffffffffffffffffff60a01b895416178855516001880155511660ff60028701911660ff1982541617905551600385015551600484015551910155845f5260016020526103b48660405f20610acd565b835f5260026020526103c98660405f20610acd565b6103e0604051928392602084526020840191610a32565b0390a4005b60405162461bcd60e51b815260206004820152600e60248201526d139bdd08185d5d1a1bdc9a5e995960921b6044820152606490fd5b602091925060446040518094819363e985e9c560e01b835260048301523360248301525afa908115610491575f91610456575b5086806102e9565b90506020813d602011610489575b8161047160209383610a82565b8101031261014f5751801515810361014f578661044e565b3d9150610464565b6040513d5f823e3d90fd5b90506020813d6020116104d6575b816104b760209383610a82565b8101031261014f57516001600160a01b038116810361014f57876102d4565b3d91506104aa565b60405162461bcd60e51b815260206004820152600660248201526565786973747360d01b6044820152606490fd5b60405162461bcd60e51b815260206004820152600d60248201526c3130b2103b30b634b230ba37b960991b6044820152606490fd5b3461014f57606036600319011261014f5760243567ffffffffffffffff811161014f573660238201121561014f57806004013567ffffffffffffffff811161014f573660248260051b8401011161014f57604435915f915f916004355f52600160205260405f20945f908654968415948515948315928315955b8b8110610611578a67ffffffffffffffff8b16801580610604576105f05760ff808260409404165b8351928352166020820152f35b634e487b7160e01b5f52601260045260245ffd5b506040915060ff5f6105e3565b61061b8183610aa4565b90549060031b1c5f525f60205260405f20888a906106c3575b86896106b6575b816106ae575b50806106a6575b610656575b506001016105bb565b600260ff919c929b9c01541681018091116106925767ffffffffffffffff909a1667ffffffffffffffff8114610692576001809101999061064d565b634e487b7160e01b5f52601160045260245ffd5b506001610648565b90508e610641565b508760048301541461063b565b9298859c9b9a91995f9e939e9998979960018060a01b038c5416975b81101561072a576024600582901b880101356001600160a01b0381169081900361014f578814610712576001018e6106df565b5093509890999a9b945060019c919c97959697610634565b50939099919a9b9c95509c919c97959697610634565b3461014f57602036600319011261014f576004355f52600160205260405f206040519081602082549182815201915f5260205f20905f5b81811061079a5761014b8561078e81870382610a82565b604051918291826109c3565b8254845260209093019260019283019201610777565b3461014f57602036600319011261014f576001600160a01b036107d16109ad565b165f52600260205260405f206040519081602082549182815201915f5260205f20905f5b81811061080c5761014b8561078e81870382610a82565b82548452602090930192600192830192016107f5565b3461014f5760a036600319011261014f5760043560243560ff811680910361014f5760443567ffffffffffffffff811161014f5761086490369060040161097f565b90916064359160843591855f525f60205260405f209360018060a01b0385541661088f8115156109fc565b330361094a576064821161091a577ff224d3d5ad74301be48e4d51ca5f1b24c7946875887327585becc59165297dcf93600286018360ff1982541617905581600387015580600487015542600587015561090a6001808060a01b03885416970154976040519586958652608060208701526080860191610a32565b91604084015260608301520390a4005b60405162461bcd60e51b81526020600482015260086024820152670726573703e3130360c41b6044820152606490fd5b60405162461bcd60e51b815260206004820152600d60248201526c3737ba103b30b634b230ba37b960991b6044820152606490fd5b9181601f8401121561014f5782359167ffffffffffffffff831161014f576020838186019501011161014f57565b600435906001600160a01b038216820361014f57565b60206040818301928281528451809452019201905f5b8181106109e65750505090565b82518452602093840193909201916001016109d9565b15610a0357565b60405162461bcd60e51b81526020600482015260076024820152663ab735b737bbb760c91b6044820152606490fd5b908060209392818452848401375f828201840152601f01601f1916010190565b60c0810190811067ffffffffffffffff821117610a6e57604052565b634e487b7160e01b5f52604160045260245ffd5b90601f8019910116810190811067ffffffffffffffff821117610a6e57604052565b8054821015610ab9575f5260205f2001905f90565b634e487b7160e01b5f52603260045260245ffd5b805468010000000000000000811015610a6e57610aef91600182018155610aa4565b819291549060031b91821b915f19901b191617905556fea264697066735822122019a4356636578760c55a586b127e228f6dab71a6fb61188f20e280960878dda264736f6c634300081e0033","linkReferences":{}},"methodIdentifiers":{"getAgentValidations(uint256)":"8d5d0c2d","getIdentityRegistry()":"bc4d861b","getSummary(uint256,address[],bytes32)":"a0aa15a1","getValidationStatus(bytes32)":"ff2febfc","getValidatorRequests(address)":"4bf3158c","validationRequest(address,uint256,string,bytes32)":"aaf400c4","validationResponse(bytes32,uint8,string,bytes32,bytes32)":"30e5993a","validations(bytes32)":"e28c3802"},"id":25}