{"abi":[{"type":"constructor","inputs":[{"name":"_focusToken","type":"address","internalType":"address"},{"name":"_rewardPool","type":"address","internalType":"address"},{"name":"_initialOwner","type":"address","internalType":"address"}],"stateMutability":"nonpayable"},{"type":"function","name":"BASE_FEE_RATE","inputs":[],"outputs":[{"name":"","type":"uint256","internalType":"uint256"}],"stateMutability":"view"},{"type":"function","name":"BASIS_POINTS","inputs":[],"outputs":[{"name":"","type":"uint256","internalType":"uint256"}],"stateMutability":"view"},{"type":"function","name":"FEE_INCREMENT_RATE","inputs":[],"outputs":[{"name":"","type":"uint256","internalType":"uint256"}],"stateMutability":"view"},{"type":"function","name":"MAX_SESSION_MINUTES","inputs":[],"outputs":[{"name":"","type":"uint256","internalType":"uint256"}],"stateMutability":"view"},{"type":"function","name":"MIN_COMPLETE_MINUTES","inputs":[],"outputs":[{"name":"","type":"uint256","internalType":"uint256"}],"stateMutability":"view"},{"type":"function","name":"authorizedBreakers","inputs":[{"name":"","type":"address","internalType":"address"}],"outputs":[{"name":"","type":"bool","internalType":"bool"}],"stateMutability":"view"},{"type":"function","name":"breakSession","inputs":[{"name":"user","type":"address","internalType":"address"}],"outputs":[],"stateMutability":"nonpayable"},{"type":"function","name":"calculateBreakFee","inputs":[{"name":"depositAmount","type":"uint256","internalType":"uint256"},{"name":"elapsedMinutes","type":"uint256","internalType":"uint256"}],"outputs":[{"name":"fee","type":"uint256","internalType":"uint256"}],"stateMutability":"pure"},{"type":"function","name":"completeSession","inputs":[],"outputs":[],"stateMutability":"nonpayable"},{"type":"function","name":"emergencyWithdraw","inputs":[{"name":"token","type":"address","internalType":"address"},{"name":"amount","type":"uint256","internalType":"uint256"},{"name":"to","type":"address","internalType":"address"}],"outputs":[],"stateMutability":"nonpayable"},{"type":"function","name":"focusToken","inputs":[],"outputs":[{"name":"","type":"address","internalType":"contract IERC20"}],"stateMutability":"view"},{"type":"function","name":"getContractStats","inputs":[],"outputs":[{"name":"stats","type":"uint256[4]","internalType":"uint256[4]"}],"stateMutability":"view"},{"type":"function","name":"getSessionProgress","inputs":[{"name":"user","type":"address","internalType":"address"}],"outputs":[{"name":"elapsedMinutes","type":"uint256","internalType":"uint256"},{"name":"remainingMinutes","type":"uint256","internalType":"uint256"},{"name":"canComplete","type":"bool","internalType":"bool"}],"stateMutability":"view"},{"type":"function","name":"getUserSession","inputs":[{"name":"user","type":"address","internalType":"address"}],"outputs":[{"name":"session","type":"tuple","internalType":"struct FocusBond.Session","components":[{"name":"user","type":"address","internalType":"address"},{"name":"startTime","type":"uint256","internalType":"uint256"},{"name":"targetMinutes","type":"uint256","internalType":"uint256"},{"name":"depositAmount","type":"uint256","internalType":"uint256"},{"name":"isActive","type":"bool","internalType":"bool"},{"name":"isCompleted","type":"bool","internalType":"bool"}]}],"stateMutability":"view"},{"type":"function","name":"getUserStats","inputs":[{"name":"user","type":"address","internalType":"address"}],"outputs":[{"name":"userStats","type":"tuple","internalType":"struct FocusBond.User","components":[{"name":"completedCount","type":"uint256","internalType":"uint256"},{"name":"reputation","type":"uint256","internalType":"uint256"},{"name":"totalDeposited","type":"uint256","internalType":"uint256"},{"name":"totalFeesLost","type":"uint256","internalType":"uint256"}]}],"stateMutability":"view"},{"type":"function","name":"hasActiveSession","inputs":[{"name":"user","type":"address","internalType":"address"}],"outputs":[{"name":"hasActive","type":"bool","internalType":"bool"}],"stateMutability":"view"},{"type":"function","name":"owner","inputs":[],"outputs":[{"name":"","type":"address","internalType":"address"}],"stateMutability":"view"},{"type":"function","name":"pause","inputs":[],"outputs":[],"stateMutability":"nonpayable"},{"type":"function","name":"paused","inputs":[],"outputs":[{"name":"","type":"bool","internalType":"bool"}],"stateMutability":"view"},{"type":"function","name":"renounceOwnership","inputs":[],"outputs":[],"stateMutability":"nonpayable"},{"type":"function","name":"rewardPool","inputs":[],"outputs":[{"name":"","type":"address","internalType":"address"}],"stateMutability":"view"},{"type":"function","name":"setAuthorizedBreaker","inputs":[{"name":"breaker","type":"address","internalType":"address"},{"name":"authorized","type":"bool","internalType":"bool"}],"outputs":[],"stateMutability":"nonpayable"},{"type":"function","name":"setRewardPool","inputs":[{"name":"_rewardPool","type":"address","internalType":"address"}],"outputs":[],"stateMutability":"nonpayable"},{"type":"function","name":"startSession","inputs":[{"name":"targetMinutes","type":"uint256","internalType":"uint256"},{"name":"depositAmount","type":"uint256","internalType":"uint256"}],"outputs":[],"stateMutability":"nonpayable"},{"type":"function","name":"totalCompletedSessions","inputs":[],"outputs":[{"name":"","type":"uint256","internalType":"uint256"}],"stateMutability":"view"},{"type":"function","name":"totalFeesCollected","inputs":[],"outputs":[{"name":"","type":"uint256","internalType":"uint256"}],"stateMutability":"view"},{"type":"function","name":"totalSessions","inputs":[],"outputs":[{"name":"","type":"uint256","internalType":"uint256"}],"stateMutability":"view"},{"type":"function","name":"transferOwnership","inputs":[{"name":"newOwner","type":"address","internalType":"address"}],"outputs":[],"stateMutability":"nonpayable"},{"type":"function","name":"unpause","inputs":[],"outputs":[],"stateMutability":"nonpayable"},{"type":"function","name":"userSessions","inputs":[{"name":"","type":"address","internalType":"address"}],"outputs":[{"name":"user","type":"address","internalType":"address"},{"name":"startTime","type":"uint256","internalType":"uint256"},{"name":"targetMinutes","type":"uint256","internalType":"uint256"},{"name":"depositAmount","type":"uint256","internalType":"uint256"},{"name":"isActive","type":"bool","internalType":"bool"},{"name":"isCompleted","type":"bool","internalType":"bool"}],"stateMutability":"view"},{"type":"function","name":"users","inputs":[{"name":"","type":"address","internalType":"address"}],"outputs":[{"name":"completedCount","type":"uint256","internalType":"uint256"},{"name":"reputation","type":"uint256","internalType":"uint256"},{"name":"totalDeposited","type":"uint256","internalType":"uint256"},{"name":"totalFeesLost","type":"uint256","internalType":"uint256"}],"stateMutability":"view"},{"type":"event","name":"AuthorizedBreakerUpdated","inputs":[{"name":"breaker","type":"address","indexed":true,"internalType":"address"},{"name":"authorized","type":"bool","indexed":false,"internalType":"bool"}],"anonymous":false},{"type":"event","name":"OwnershipTransferred","inputs":[{"name":"previousOwner","type":"address","indexed":true,"internalType":"address"},{"name":"newOwner","type":"address","indexed":true,"internalType":"address"}],"anonymous":false},{"type":"event","name":"Paused","inputs":[{"name":"account","type":"address","indexed":false,"internalType":"address"}],"anonymous":false},{"type":"event","name":"RewardPoolUpdated","inputs":[{"name":"oldPool","type":"address","indexed":true,"internalType":"address"},{"name":"newPool","type":"address","indexed":true,"internalType":"address"}],"anonymous":false},{"type":"event","name":"SessionBroken","inputs":[{"name":"user","type":"address","indexed":true,"internalType":"address"},{"name":"sessionId","type":"uint256","indexed":true,"internalType":"uint256"},{"name":"fee","type":"uint256","indexed":false,"internalType":"uint256"},{"name":"returned","type":"uint256","indexed":false,"internalType":"uint256"},{"name":"breakTime","type":"uint256","indexed":false,"internalType":"uint256"},{"name":"breaker","type":"address","indexed":false,"internalType":"address"}],"anonymous":false},{"type":"event","name":"SessionCompleted","inputs":[{"name":"user","type":"address","indexed":true,"internalType":"address"},{"name":"sessionId","type":"uint256","indexed":true,"internalType":"uint256"},{"name":"depositReturned","type":"uint256","indexed":false,"internalType":"uint256"},{"name":"completionTime","type":"uint256","indexed":false,"internalType":"uint256"}],"anonymous":false},{"type":"event","name":"SessionStarted","inputs":[{"name":"user","type":"address","indexed":true,"internalType":"address"},{"name":"sessionId","type":"uint256","indexed":true,"internalType":"uint256"},{"name":"depositAmount","type":"uint256","indexed":false,"internalType":"uint256"},{"name":"targetMinutes","type":"uint256","indexed":false,"internalType":"uint256"},{"name":"startTime","type":"uint256","indexed":false,"internalType":"uint256"}],"anonymous":false},{"type":"event","name":"Unpaused","inputs":[{"name":"account","type":"address","indexed":false,"internalType":"address"}],"anonymous":false},{"type":"error","name":"EnforcedPause","inputs":[]},{"type":"error","name":"ExpectedPause","inputs":[]},{"type":"error","name":"InsufficientBalance","inputs":[]},{"type":"error","name":"InvalidDepositAmount","inputs":[]},{"type":"error","name":"InvalidTargetMinutes","inputs":[]},{"type":"error","name":"NoActiveSession","inputs":[]},{"type":"error","name":"OwnableInvalidOwner","inputs":[{"name":"owner","type":"address","internalType":"address"}]},{"type":"error","name":"OwnableUnauthorizedAccount","inputs":[{"name":"account","type":"address","internalType":"address"}]},{"type":"error","name":"ReentrancyGuardReentrantCall","inputs":[]},{"type":"error","name":"SafeERC20FailedOperation","inputs":[{"name":"token","type":"address","internalType":"address"}]},{"type":"error","name":"SessionAlreadyActive","inputs":[]},{"type":"error","name":"SessionAlreadyCompleted","inputs":[]},{"type":"error","name":"SessionTooShort","inputs":[]},{"type":"error","name":"TransferFailed","inputs":[]},{"type":"error","name":"UnauthorizedBreaker","inputs":[]}],"bytecode":{"object":"0x60a060405234801561000f575f5ffd5b506040516128e03803806128e0833981810160405281019061003191906102a3565b80600161005061004561015260201b60201c565b61017b60201b60201c565b5f01819055505f73ffffffffffffffffffffffffffffffffffffffff168173ffffffffffffffffffffffffffffffffffffffff16036100c6575f6040517f1e4fbdf70000000000000000000000000000000000000000000000000000000081526004016100bd9190610302565b60405180910390fd5b6100d58161018460201b60201c565b508273ffffffffffffffffffffffffffffffffffffffff1660808173ffffffffffffffffffffffffffffffffffffffff16815250508160015f6101000a81548173ffffffffffffffffffffffffffffffffffffffff021916908373ffffffffffffffffffffffffffffffffffffffff16021790555050505061031b565b5f7f9b779b17422d0df92223018b32b4d1fa46e071723d6817e2486d003becc55f005f1b905090565b5f819050919050565b5f5f5f9054906101000a900473ffffffffffffffffffffffffffffffffffffffff169050815f5f6101000a81548173ffffffffffffffffffffffffffffffffffffffff021916908373ffffffffffffffffffffffffffffffffffffffff1602179055508173ffffffffffffffffffffffffffffffffffffffff168173ffffffffffffffffffffffffffffffffffffffff167f8be0079c531659141344cd1fd0a4f28419497f9722a3daafe3b4186f6b6457e060405160405180910390a35050565b5f5ffd5b5f73ffffffffffffffffffffffffffffffffffffffff82169050919050565b5f61027282610249565b9050919050565b61028281610268565b811461028c575f5ffd5b50565b5f8151905061029d81610279565b92915050565b5f5f5f606084860312156102ba576102b9610245565b5b5f6102c78682870161028f565b93505060206102d88682870161028f565b92505060406102e98682870161028f565b9150509250925092565b6102fc81610268565b82525050565b5f6020820190506103155f8301846102f3565b92915050565b60805161258a6103565f395f8181610a4201528181610e4e01528181610eba015281816110860152818161132b01526116aa015261258a5ff3fe608060405234801561000f575f5ffd5b50600436106101e3575f3560e01c80636f5db0b51161010d578063d61a4bf8116100a0578063e88cf36e1161006f578063e88cf36e14610555578063ebbb063d14610571578063f139bda8146105a1578063f2fde38b146105ab576101e3565b8063d61a4bf8146104df578063dfe6b5d6146104fb578063e1f1c4a714610519578063e4a6acc614610537576101e3565b80638da5cb5b116100dc5780638da5cb5b14610454578063a87430ba14610472578063b7d3c416146104a5578063ccdefb40146104c1576101e3565b80636f5db0b514610406578063715018a61461042457806378238c371461042e5780638456cb591461044a576101e3565b8063551512de1161018557806360c6d8ae1161015457806360c6d8ae1461038e5780636526e813146103ac57806365ad3972146103ca57806366666aa9146103e8576101e3565b8063551512de146102f25780635a15f9271461030e5780635c975abb146103405780635cffc2dd1461035e576101e3565b80633dedb843116101c15780633dedb8431461026a5780633f4ba83a146102885780634e43603a1461029257806350609c7d146102c2576101e3565b8063217a86d6146101e75780632202bae0146102055780633a3266aa14610235575b5f5ffd5b6101ef6105c7565b6040516101fc9190611d8f565b60405180910390f35b61021f600480360381019061021a9190611dd6565b6105cc565b60405161022c9190611d8f565b60405180910390f35b61024f600480360381019061024a9190611e6e565b610628565b60405161026196959493929190611ec2565b60405180910390f35b610272610698565b60405161027f9190611d8f565b60405180910390f35b61029061069d565b005b6102ac60048036038101906102a79190611e6e565b6106af565b6040516102b99190611f83565b60405180910390f35b6102dc60048036038101906102d79190611e6e565b61072d565b6040516102e99190611f9c565b60405180910390f35b61030c60048036038101906103079190611fb5565b610782565b005b61032860048036038101906103239190611e6e565b6107c2565b60405161033793929190612005565b60405180910390f35b610348610927565b6040516103559190611f9c565b60405180910390f35b61037860048036038101906103739190611e6e565b61093c565b60405161038591906120d1565b60405180910390f35b610396610a3a565b6040516103a39190611d8f565b60405180910390f35b6103b4610a40565b6040516103c19190612145565b60405180910390f35b6103d2610a64565b6040516103df9190611d8f565b60405180910390f35b6103f0610a6a565b6040516103fd919061215e565b60405180910390f35b61040e610a8f565b60405161041b9190611d8f565b60405180910390f35b61042c610a95565b005b61044860048036038101906104439190611e6e565b610aa8565b005b610452610b73565b005b61045c610b85565b604051610469919061215e565b60405180910390f35b61048c60048036038101906104879190611e6e565b610bac565b60405161049c9493929190612177565b60405180910390f35b6104bf60048036038101906104ba9190611e6e565b610bd8565b005b6104c9610f65565b6040516104d69190611d8f565b60405180910390f35b6104f960048036038101906104f49190611dd6565b610f6b565b005b6105036112c2565b6040516105109190612250565b60405180910390f35b6105216113e1565b60405161052e9190611d8f565b60405180910390f35b61053f6113e7565b60405161054c9190611d8f565b60405180910390f35b61056f600480360381019061056a9190612293565b6113ec565b005b61058b60048036038101906105869190611e6e565b61149a565b6040516105989190611f9c565b60405180910390f35b6105a96114b7565b005b6105c560048036038101906105c09190611e6e565b611769565b005b600f81565b5f5f60c8600a846105dd919061232b565b6105e7919061235b565b6103e86105f4919061239c565b90506127108111156106065761271090505b6127108185610615919061235b565b61061f919061232b565b91505092915050565b6005602052805f5260405f205f91509050805f015f9054906101000a900473ffffffffffffffffffffffffffffffffffffffff1690806001015490806002015490806003015490806004015f9054906101000a900460ff16908060040160019054906101000a900460ff16905086565b60c881565b6106a56117ed565b6106ad611874565b565b6106b7611ce7565b60065f8373ffffffffffffffffffffffffffffffffffffffff1673ffffffffffffffffffffffffffffffffffffffff1681526020019081526020015f206040518060800160405290815f820154815260200160018201548152602001600282015481526020016003820154815250509050919050565b5f60055f8373ffffffffffffffffffffffffffffffffffffffff1673ffffffffffffffffffffffffffffffffffffffff1681526020019081526020015f206004015f9054906101000a900460ff169050919050565b61078a6117ed565b6107926118d5565b6107bd81838573ffffffffffffffffffffffffffffffffffffffff166119159092919063ffffffff16565b505050565b5f5f5f5f60055f8673ffffffffffffffffffffffffffffffffffffffff1673ffffffffffffffffffffffffffffffffffffffff1681526020019081526020015f206040518060c00160405290815f82015f9054906101000a900473ffffffffffffffffffffffffffffffffffffffff1673ffffffffffffffffffffffffffffffffffffffff1673ffffffffffffffffffffffffffffffffffffffff168152602001600182015481526020016002820154815260200160038201548152602001600482015f9054906101000a900460ff161515151581526020016004820160019054906101000a900460ff161515151581525050905080608001516108cf575f5f5f93509350935050610920565b603c8160200151426108e191906123cf565b6108eb919061232b565b935080604001518410610904575f92506001915061091e565b83816040015161091491906123cf565b9250600f84101591505b505b9193909250565b5f5f60149054906101000a900460ff16905090565b610944611d0b565b60055f8373ffffffffffffffffffffffffffffffffffffffff1673ffffffffffffffffffffffffffffffffffffffff1681526020019081526020015f206040518060c00160405290815f82015f9054906101000a900473ffffffffffffffffffffffffffffffffffffffff1673ffffffffffffffffffffffffffffffffffffffff1673ffffffffffffffffffffffffffffffffffffffff168152602001600182015481526020016002820154815260200160038201548152602001600482015f9054906101000a900460ff161515151581526020016004820160019054906101000a900460ff1615151515815250509050919050565b60045481565b7f000000000000000000000000000000000000000000000000000000000000000081565b6103e881565b60015f9054906101000a900473ffffffffffffffffffffffffffffffffffffffff1681565b60025481565b610a9d6117ed565b610aa65f611968565b565b610ab06117ed565b5f60015f9054906101000a900473ffffffffffffffffffffffffffffffffffffffff1690508160015f6101000a81548173ffffffffffffffffffffffffffffffffffffffff021916908373ffffffffffffffffffffffffffffffffffffffff1602179055508173ffffffffffffffffffffffffffffffffffffffff168173ffffffffffffffffffffffffffffffffffffffff167f172da71f1c616b61d83038d9d8679e9f8592d8405647a400b24bf1852cecaed760405160405180910390a35050565b610b7b6117ed565b610b83611a29565b565b5f5f5f9054906101000a900473ffffffffffffffffffffffffffffffffffffffff16905090565b6006602052805f5260405f205f91509050805f0154908060010154908060020154908060030154905084565b610be0611a8b565b5f60055f8373ffffffffffffffffffffffffffffffffffffffff1673ffffffffffffffffffffffffffffffffffffffff1681526020019081526020015f209050806004015f9054906101000a900460ff16610c67576040517f7ff88aad00000000000000000000000000000000000000000000000000000000815260040160405180910390fd5b8060040160019054906101000a900460ff1615610cb0576040517fae9b8e9000000000000000000000000000000000000000000000000000000000815260040160405180910390fd5b8173ffffffffffffffffffffffffffffffffffffffff163373ffffffffffffffffffffffffffffffffffffffff1614158015610d33575060075f3373ffffffffffffffffffffffffffffffffffffffff1673ffffffffffffffffffffffffffffffffffffffff1681526020019081526020015f205f9054906101000a900460ff16155b15610d6a576040517f7512237b00000000000000000000000000000000000000000000000000000000815260040160405180910390fd5b5f603c826001015442610d7d91906123cf565b610d87919061232b565b90505f610d988360030154836105cc565b90505f818460030154610dab91906123cf565b90505f846004015f6101000a81548160ff0219169083151502179055508160065f8773ffffffffffffffffffffffffffffffffffffffff1673ffffffffffffffffffffffffffffffffffffffff1681526020019081526020015f206003015f828254610e17919061239c565b925050819055505f821115610eab57610e9260015f9054906101000a900473ffffffffffffffffffffffffffffffffffffffff16837f000000000000000000000000000000000000000000000000000000000000000073ffffffffffffffffffffffffffffffffffffffff166119159092919063ffffffff16565b8160045f828254610ea3919061239c565b925050819055505b5f811115610eff57610efe85827f000000000000000000000000000000000000000000000000000000000000000073ffffffffffffffffffffffffffffffffffffffff166119159092919063ffffffff16565b5b6002548573ffffffffffffffffffffffffffffffffffffffff167f8b72234c0b2762b1d707188275cd4fbef87a7bad3f1938ffb11981739130b12d84844233604051610f4e9493929190612402565b60405180910390a350505050610f62611aad565b50565b60035481565b610f73611a8b565b610f7b611ac7565b5f8103610fb4576040517ffe9ba5cd00000000000000000000000000000000000000000000000000000000815260040160405180910390fd5b600f821080610fc3575060f082115b15610ffa576040517f78dfb8d900000000000000000000000000000000000000000000000000000000815260040160405180910390fd5b60055f3373ffffffffffffffffffffffffffffffffffffffff1673ffffffffffffffffffffffffffffffffffffffff1681526020019081526020015f206004015f9054906101000a900460ff161561107e576040517f27a7585d00000000000000000000000000000000000000000000000000000000815260040160405180910390fd5b6110cb3330837f000000000000000000000000000000000000000000000000000000000000000073ffffffffffffffffffffffffffffffffffffffff16611b08909392919063ffffffff16565b6040518060c001604052803373ffffffffffffffffffffffffffffffffffffffff1681526020014281526020018381526020018281526020016001151581526020015f151581525060055f3373ffffffffffffffffffffffffffffffffffffffff1673ffffffffffffffffffffffffffffffffffffffff1681526020019081526020015f205f820151815f015f6101000a81548173ffffffffffffffffffffffffffffffffffffffff021916908373ffffffffffffffffffffffffffffffffffffffff1602179055506020820151816001015560408201518160020155606082015181600301556080820151816004015f6101000a81548160ff02191690831515021790555060a08201518160040160016101000a81548160ff0219169083151502179055509050508060065f3373ffffffffffffffffffffffffffffffffffffffff1673ffffffffffffffffffffffffffffffffffffffff1681526020019081526020015f206002015f828254611243919061239c565b9250508190555060025f81548092919061125c90612445565b91905055506002543373ffffffffffffffffffffffffffffffffffffffff167f3462f8387f45ab2b2fd99c793a818187d777228ab066e163fec6ba63116ec2c98385426040516112ae9392919061248c565b60405180910390a36112be611aad565b5050565b6112ca611d55565b600254815f600481106112e0576112df6124c1565b5b60200201818152505060035481600160048110611300576112ff6124c1565b5b602002018181525050600454816002600481106113205761131f6124c1565b5b6020020181815250507f000000000000000000000000000000000000000000000000000000000000000073ffffffffffffffffffffffffffffffffffffffff166370a08231306040518263ffffffff1660e01b8152600401611382919061215e565b602060405180830381865afa15801561139d573d5f5f3e3d5ffd5b505050506040513d601f19601f820116820180604052508101906113c19190612502565b816003600481106113d5576113d46124c1565b5b60200201818152505090565b61271081565b60f081565b6113f46117ed565b8060075f8473ffffffffffffffffffffffffffffffffffffffff1673ffffffffffffffffffffffffffffffffffffffff1681526020019081526020015f205f6101000a81548160ff0219169083151502179055508173ffffffffffffffffffffffffffffffffffffffff167ff0670cbdf70653e1266df7d036518fafc8225d7a4011fc16f7932cf9ef6b49a88260405161148e9190611f9c565b60405180910390a25050565b6007602052805f5260405f205f915054906101000a900460ff1681565b6114bf611a8b565b5f60055f3373ffffffffffffffffffffffffffffffffffffffff1673ffffffffffffffffffffffffffffffffffffffff1681526020019081526020015f209050806004015f9054906101000a900460ff16611546576040517f7ff88aad00000000000000000000000000000000000000000000000000000000815260040160405180910390fd5b8060040160019054906101000a900460ff161561158f576040517fae9b8e9000000000000000000000000000000000000000000000000000000000815260040160405180910390fd5b5f603c8260010154426115a291906123cf565b6115ac919061232b565b9050600f8110156115e9576040517ff4d7eed500000000000000000000000000000000000000000000000000000000815260040160405180910390fd5b5f826004015f6101000a81548160ff02191690831515021790555060018260040160016101000a81548160ff0219169083151502179055505f60065f3373ffffffffffffffffffffffffffffffffffffffff1673ffffffffffffffffffffffffffffffffffffffff1681526020019081526020015f209050805f015f81548092919061167490612445565b91905055506116868360020154611b5d565b816001015f828254611698919061239c565b925050819055506116ee3384600301547f000000000000000000000000000000000000000000000000000000000000000073ffffffffffffffffffffffffffffffffffffffff166119159092919063ffffffff16565b60035f81548092919061170090612445565b91905055506002543373ffffffffffffffffffffffffffffffffffffffff167ffbdd5c7e593362311dff3727ce331f5b953272a5f58c0b7c4d0dd6858c54502285600301544260405161175492919061252d565b60405180910390a3505050611767611aad565b565b6117716117ed565b5f73ffffffffffffffffffffffffffffffffffffffff168173ffffffffffffffffffffffffffffffffffffffff16036117e1575f6040517f1e4fbdf70000000000000000000000000000000000000000000000000000000081526004016117d8919061215e565b60405180910390fd5b6117ea81611968565b50565b6117f5611b7e565b73ffffffffffffffffffffffffffffffffffffffff16611813610b85565b73ffffffffffffffffffffffffffffffffffffffff161461187257611836611b7e565b6040517f118cdaa7000000000000000000000000000000000000000000000000000000008152600401611869919061215e565b60405180910390fd5b565b61187c6118d5565b5f5f60146101000a81548160ff0219169083151502179055507f5db9ee0a495bf2e6ff9c91a7834c1ba4fdd244a5e8aa4e537bd38aeae4b073aa6118be611b7e565b6040516118cb919061215e565b60405180910390a1565b6118dd610927565b611913576040517f8dfc202b00000000000000000000000000000000000000000000000000000000815260040160405180910390fd5b565b6119228383836001611b85565b61196357826040517f5274afe700000000000000000000000000000000000000000000000000000000815260040161195a919061215e565b60405180910390fd5b505050565b5f5f5f9054906101000a900473ffffffffffffffffffffffffffffffffffffffff169050815f5f6101000a81548173ffffffffffffffffffffffffffffffffffffffff021916908373ffffffffffffffffffffffffffffffffffffffff1602179055508173ffffffffffffffffffffffffffffffffffffffff168173ffffffffffffffffffffffffffffffffffffffff167f8be0079c531659141344cd1fd0a4f28419497f9722a3daafe3b4186f6b6457e060405160405180910390a35050565b611a31611ac7565b60015f60146101000a81548160ff0219169083151502179055507f62e78cea01bee320cd4e420270b5ea74000d11b0c9f74754ebdbfc544b05a258611a74611b7e565b604051611a81919061215e565b60405180910390a1565b611a93611be7565b6002611aa5611aa0611c28565b611c51565b5f0181905550565b6001611abf611aba611c28565b611c51565b5f0181905550565b611acf610927565b15611b06576040517fd93c066500000000000000000000000000000000000000000000000000000000815260040160405180910390fd5b565b611b16848484846001611c5a565b611b5757836040517f5274afe7000000000000000000000000000000000000000000000000000000008152600401611b4e919061215e565b60405180910390fd5b50505050565b5f600f82611b6b919061232b565b600a611b77919061239c565b9050919050565b5f33905090565b5f5f63a9059cbb60e01b9050604051815f525f1960601c86166004528460245260205f60445f5f8b5af1925060015f51148316611bd9578383151615611bcd573d5f823e3d81fd5b5f873b113d1516831692505b806040525050949350505050565b611bef611ccb565b15611c26576040517f3ee5aeb500000000000000000000000000000000000000000000000000000000815260040160405180910390fd5b565b5f7f9b779b17422d0df92223018b32b4d1fa46e071723d6817e2486d003becc55f005f1b905090565b5f819050919050565b5f5f6323b872dd60e01b9050604051815f525f1960601c87166004525f1960601c86166024528460445260205f60645f5f8c5af1925060015f51148316611cb8578383151615611cac573d5f823e3d81fd5b5f883b113d1516831692505b806040525f606052505095945050505050565b5f6002611cde611cd9611c28565b611c51565b5f015414905090565b60405180608001604052805f81526020015f81526020015f81526020015f81525090565b6040518060c001604052805f73ffffffffffffffffffffffffffffffffffffffff1681526020015f81526020015f81526020015f81526020015f151581526020015f151581525090565b6040518060800160405280600490602082028036833780820191505090505090565b5f819050919050565b611d8981611d77565b82525050565b5f602082019050611da25f830184611d80565b92915050565b5f5ffd5b611db581611d77565b8114611dbf575f5ffd5b50565b5f81359050611dd081611dac565b92915050565b5f5f60408385031215611dec57611deb611da8565b5b5f611df985828601611dc2565b9250506020611e0a85828601611dc2565b9150509250929050565b5f73ffffffffffffffffffffffffffffffffffffffff82169050919050565b5f611e3d82611e14565b9050919050565b611e4d81611e33565b8114611e57575f5ffd5b50565b5f81359050611e6881611e44565b92915050565b5f60208284031215611e8357611e82611da8565b5b5f611e9084828501611e5a565b91505092915050565b611ea281611e33565b82525050565b5f8115159050919050565b611ebc81611ea8565b82525050565b5f60c082019050611ed55f830189611e99565b611ee26020830188611d80565b611eef6040830187611d80565b611efc6060830186611d80565b611f096080830185611eb3565b611f1660a0830184611eb3565b979650505050505050565b611f2a81611d77565b82525050565b608082015f820151611f445f850182611f21565b506020820151611f576020850182611f21565b506040820151611f6a6040850182611f21565b506060820151611f7d6060850182611f21565b50505050565b5f608082019050611f965f830184611f30565b92915050565b5f602082019050611faf5f830184611eb3565b92915050565b5f5f5f60608486031215611fcc57611fcb611da8565b5b5f611fd986828701611e5a565b9350506020611fea86828701611dc2565b9250506040611ffb86828701611e5a565b9150509250925092565b5f6060820190506120185f830186611d80565b6120256020830185611d80565b6120326040830184611eb3565b949350505050565b61204381611e33565b82525050565b61205281611ea8565b82525050565b60c082015f82015161206c5f85018261203a565b50602082015161207f6020850182611f21565b5060408201516120926040850182611f21565b5060608201516120a56060850182611f21565b5060808201516120b86080850182612049565b5060a08201516120cb60a0850182612049565b50505050565b5f60c0820190506120e45f830184612058565b92915050565b5f819050919050565b5f61210d61210861210384611e14565b6120ea565b611e14565b9050919050565b5f61211e826120f3565b9050919050565b5f61212f82612114565b9050919050565b61213f81612125565b82525050565b5f6020820190506121585f830184612136565b92915050565b5f6020820190506121715f830184611e99565b92915050565b5f60808201905061218a5f830187611d80565b6121976020830186611d80565b6121a46040830185611d80565b6121b16060830184611d80565b95945050505050565b5f60049050919050565b5f81905092915050565b5f819050919050565b5f6121e28383611f21565b60208301905092915050565b5f602082019050919050565b612203816121ba565b61220d81846121c4565b9250612218826121ce565b805f5b8381101561224857815161222f87826121d7565b965061223a836121ee565b92505060018101905061221b565b505050505050565b5f6080820190506122635f8301846121fa565b92915050565b61227281611ea8565b811461227c575f5ffd5b50565b5f8135905061228d81612269565b92915050565b5f5f604083850312156122a9576122a8611da8565b5b5f6122b685828601611e5a565b92505060206122c78582860161227f565b9150509250929050565b7f4e487b71000000000000000000000000000000000000000000000000000000005f52601260045260245ffd5b7f4e487b71000000000000000000000000000000000000000000000000000000005f52601160045260245ffd5b5f61233582611d77565b915061234083611d77565b9250826123505761234f6122d1565b5b828204905092915050565b5f61236582611d77565b915061237083611d77565b925082820261237e81611d77565b91508282048414831517612395576123946122fe565b5b5092915050565b5f6123a682611d77565b91506123b183611d77565b92508282019050808211156123c9576123c86122fe565b5b92915050565b5f6123d982611d77565b91506123e483611d77565b92508282039050818111156123fc576123fb6122fe565b5b92915050565b5f6080820190506124155f830187611d80565b6124226020830186611d80565b61242f6040830185611d80565b61243c6060830184611e99565b95945050505050565b5f61244f82611d77565b91507fffffffffffffffffffffffffffffffffffffffffffffffffffffffffffffffff8203612481576124806122fe565b5b600182019050919050565b5f60608201905061249f5f830186611d80565b6124ac6020830185611d80565b6124b96040830184611d80565b949350505050565b7f4e487b71000000000000000000000000000000000000000000000000000000005f52603260045260245ffd5b5f815190506124fc81611dac565b92915050565b5f6020828403121561251757612516611da8565b5b5f612524848285016124ee565b91505092915050565b5f6040820190506125405f830185611d80565b61254d6020830184611d80565b939250505056fea264697066735822122011c87b335d780202b1755e5ecb9dbc2af13b8e02cf177f8d30e07a7a78a5c7ef64736f6c634300081e0033","linkReferences":{}},"methodIdentifiers":{"BASE_FEE_RATE()":"65ad3972","BASIS_POINTS()":"e1f1c4a7","FEE_INCREMENT_RATE()":"3dedb843","MAX_SESSION_MINUTES()":"e4a6acc6","MIN_COMPLETE_MINUTES()":"217a86d6","authorizedBreakers(address)":"ebbb063d","breakSession(address)":"b7d3c416","calculateBreakFee(uint256,uint256)":"2202bae0","completeSession()":"f139bda8","emergencyWithdraw(address,uint256,address)":"551512de","focusToken()":"6526e813","getContractStats()":"dfe6b5d6","getSessionProgress(address)":"5a15f927","getUserSession(address)":"5cffc2dd","getUserStats(address)":"4e43603a","hasActiveSession(address)":"50609c7d","owner()":"8da5cb5b","pause()":"8456cb59","paused()":"5c975abb","renounceOwnership()":"715018a6","rewardPool()":"66666aa9","setAuthorizedBreaker(address,bool)":"e88cf36e","setRewardPool(address)":"78238c37","startSession(uint256,uint256)":"d61a4bf8","totalCompletedSessions()":"ccdefb40","totalFeesCollected()":"60c6d8ae","totalSessions()":"6f5db0b5","transferOwnership(address)":"f2fde38b","unpause()":"3f4ba83a","userSessions(address)":"3a3266aa","users(address)":"a87430ba"},"id":0}