{"abi":[{"type":"constructor","inputs":[{"name":"name","type":"string","internalType":"string"},{"name":"symbol","type":"string","internalType":"string"},{"name":"decimals_","type":"uint8","internalType":"uint8"},{"name":"initialOwner","type":"address","internalType":"address"}],"stateMutability":"nonpayable"},{"type":"function","name":"allowance","inputs":[{"name":"owner","type":"address","internalType":"address"},{"name":"spender","type":"address","internalType":"address"}],"outputs":[{"name":"","type":"uint256","internalType":"uint256"}],"stateMutability":"view"},{"type":"function","name":"approve","inputs":[{"name":"spender","type":"address","internalType":"address"},{"name":"value","type":"uint256","internalType":"uint256"}],"outputs":[{"name":"","type":"bool","internalType":"bool"}],"stateMutability":"nonpayable"},{"type":"function","name":"balanceOf","inputs":[{"name":"account","type":"address","internalType":"address"}],"outputs":[{"name":"","type":"uint256","internalType":"uint256"}],"stateMutability":"view"},{"type":"function","name":"burn","inputs":[{"name":"amount","type":"uint256","internalType":"uint256"}],"outputs":[],"stateMutability":"nonpayable"},{"type":"function","name":"burnFrom","inputs":[{"name":"from","type":"address","internalType":"address"},{"name":"amount","type":"uint256","internalType":"uint256"}],"outputs":[],"stateMutability":"nonpayable"},{"type":"function","name":"decimals","inputs":[],"outputs":[{"name":"","type":"uint8","internalType":"uint8"}],"stateMutability":"view"},{"type":"function","name":"faucet","inputs":[{"name":"to","type":"address","internalType":"address"}],"outputs":[],"stateMutability":"nonpayable"},{"type":"function","name":"mint","inputs":[{"name":"to","type":"address","internalType":"address"},{"name":"amount","type":"uint256","internalType":"uint256"}],"outputs":[],"stateMutability":"nonpayable"},{"type":"function","name":"name","inputs":[],"outputs":[{"name":"","type":"string","internalType":"string"}],"stateMutability":"view"},{"type":"function","name":"owner","inputs":[],"outputs":[{"name":"","type":"address","internalType":"address"}],"stateMutability":"view"},{"type":"function","name":"renounceOwnership","inputs":[],"outputs":[],"stateMutability":"nonpayable"},{"type":"function","name":"symbol","inputs":[],"outputs":[{"name":"","type":"string","internalType":"string"}],"stateMutability":"view"},{"type":"function","name":"totalSupply","inputs":[],"outputs":[{"name":"","type":"uint256","internalType":"uint256"}],"stateMutability":"view"},{"type":"function","name":"transfer","inputs":[{"name":"to","type":"address","internalType":"address"},{"name":"value","type":"uint256","internalType":"uint256"}],"outputs":[{"name":"","type":"bool","internalType":"bool"}],"stateMutability":"nonpayable"},{"type":"function","name":"transferFrom","inputs":[{"name":"from","type":"address","internalType":"address"},{"name":"to","type":"address","internalType":"address"},{"name":"value","type":"uint256","internalType":"uint256"}],"outputs":[{"name":"","type":"bool","internalType":"bool"}],"stateMutability":"nonpayable"},{"type":"function","name":"transferOwnership","inputs":[{"name":"newOwner","type":"address","internalType":"address"}],"outputs":[],"stateMutability":"nonpayable"},{"type":"event","name":"Approval","inputs":[{"name":"owner","type":"address","indexed":true,"internalType":"address"},{"name":"spender","type":"address","indexed":true,"internalType":"address"},{"name":"value","type":"uint256","indexed":false,"internalType":"uint256"}],"anonymous":false},{"type":"event","name":"OwnershipTransferred","inputs":[{"name":"previousOwner","type":"address","indexed":true,"internalType":"address"},{"name":"newOwner","type":"address","indexed":true,"internalType":"address"}],"anonymous":false},{"type":"event","name":"Transfer","inputs":[{"name":"from","type":"address","indexed":true,"internalType":"address"},{"name":"to","type":"address","indexed":true,"internalType":"address"},{"name":"value","type":"uint256","indexed":false,"internalType":"uint256"}],"anonymous":false},{"type":"error","name":"ERC20InsufficientAllowance","inputs":[{"name":"spender","type":"address","internalType":"address"},{"name":"allowance","type":"uint256","internalType":"uint256"},{"name":"needed","type":"uint256","internalType":"uint256"}]},{"type":"error","name":"ERC20InsufficientBalance","inputs":[{"name":"sender","type":"address","internalType":"address"},{"name":"balance","type":"uint256","internalType":"uint256"},{"name":"needed","type":"uint256","internalType":"uint256"}]},{"type":"error","name":"ERC20InvalidApprover","inputs":[{"name":"approver","type":"address","internalType":"address"}]},{"type":"error","name":"ERC20InvalidReceiver","inputs":[{"name":"receiver","type":"address","internalType":"address"}]},{"type":"error","name":"ERC20InvalidSender","inputs":[{"name":"sender","type":"address","internalType":"address"}]},{"type":"error","name":"ERC20InvalidSpender","inputs":[{"name":"spender","type":"address","internalType":"address"}]},{"type":"error","name":"OwnableInvalidOwner","inputs":[{"name":"owner","type":"address","internalType":"address"}]},{"type":"error","name":"OwnableUnauthorizedAccount","inputs":[{"name":"account","type":"address","internalType":"address"}]}],"bytecode":{"object":"0x608060405234801561000f575f5ffd5b506040516120fc3803806120fc83398181016040528101906100319190610662565b8084848160039081610043919061090e565b508060049081610053919061090e565b5050505f73ffffffffffffffffffffffffffffffffffffffff168173ffffffffffffffffffffffffffffffffffffffff16036100c6575f6040517f1e4fbdf70000000000000000000000000000000000000000000000000000000081526004016100bd91906109ec565b60405180910390fd5b6100d58161012460201b60201c565b5081600560146101000a81548160ff021916908360ff16021790555061011b8183600a6101029190610b61565b620f42406101109190610bab565b6101e760201b60201c565b50505050610c7c565b5f60055f9054906101000a900473ffffffffffffffffffffffffffffffffffffffff1690508160055f6101000a81548173ffffffffffffffffffffffffffffffffffffffff021916908373ffffffffffffffffffffffffffffffffffffffff1602179055508173ffffffffffffffffffffffffffffffffffffffff168173ffffffffffffffffffffffffffffffffffffffff167f8be0079c531659141344cd1fd0a4f28419497f9722a3daafe3b4186f6b6457e060405160405180910390a35050565b5f73ffffffffffffffffffffffffffffffffffffffff168273ffffffffffffffffffffffffffffffffffffffff1603610257575f6040517fec442f0500000000000000000000000000000000000000000000000000000000815260040161024e91906109ec565b60405180910390fd5b6102685f838361026c60201b60201c565b5050565b5f73ffffffffffffffffffffffffffffffffffffffff168373ffffffffffffffffffffffffffffffffffffffff16036102bc578060025f8282546102b09190610bec565b9250508190555061038a565b5f5f5f8573ffffffffffffffffffffffffffffffffffffffff1673ffffffffffffffffffffffffffffffffffffffff1681526020019081526020015f2054905081811015610345578381836040517fe450d38c00000000000000000000000000000000000000000000000000000000815260040161033c93929190610c2e565b60405180910390fd5b8181035f5f8673ffffffffffffffffffffffffffffffffffffffff1673ffffffffffffffffffffffffffffffffffffffff1681526020019081526020015f2081905550505b5f73ffffffffffffffffffffffffffffffffffffffff168273ffffffffffffffffffffffffffffffffffffffff16036103d1578060025f828254039250508190555061041b565b805f5f8473ffffffffffffffffffffffffffffffffffffffff1673ffffffffffffffffffffffffffffffffffffffff1681526020019081526020015f205f82825401925050819055505b8173ffffffffffffffffffffffffffffffffffffffff168373ffffffffffffffffffffffffffffffffffffffff167fddf252ad1be2c89b69c2b068fc378daa952ba7f163c4a11628f55a4df523b3ef836040516104789190610c63565b60405180910390a3505050565b5f604051905090565b5f5ffd5b5f5ffd5b5f5ffd5b5f5ffd5b5f601f19601f8301169050919050565b7f4e487b71000000000000000000000000000000000000000000000000000000005f52604160045260245ffd5b6104e48261049e565b810181811067ffffffffffffffff82111715610503576105026104ae565b5b80604052505050565b5f610515610485565b905061052182826104db565b919050565b5f67ffffffffffffffff8211156105405761053f6104ae565b5b6105498261049e565b9050602081019050919050565b8281835e5f83830152505050565b5f61057661057184610526565b61050c565b9050828152602081018484840111156105925761059161049a565b5b61059d848285610556565b509392505050565b5f82601f8301126105b9576105b8610496565b5b81516105c9848260208601610564565b91505092915050565b5f60ff82169050919050565b6105e7816105d2565b81146105f1575f5ffd5b50565b5f81519050610602816105de565b92915050565b5f73ffffffffffffffffffffffffffffffffffffffff82169050919050565b5f61063182610608565b9050919050565b61064181610627565b811461064b575f5ffd5b50565b5f8151905061065c81610638565b92915050565b5f5f5f5f6080858703121561067a5761067961048e565b5b5f85015167ffffffffffffffff81111561069757610696610492565b5b6106a3878288016105a5565b945050602085015167ffffffffffffffff8111156106c4576106c3610492565b5b6106d0878288016105a5565b93505060406106e1878288016105f4565b92505060606106f28782880161064e565b91505092959194509250565b5f81519050919050565b7f4e487b71000000000000000000000000000000000000000000000000000000005f52602260045260245ffd5b5f600282049050600182168061074c57607f821691505b60208210810361075f5761075e610708565b5b50919050565b5f819050815f5260205f209050919050565b5f6020601f8301049050919050565b5f82821b905092915050565b5f600883026107c17fffffffffffffffffffffffffffffffffffffffffffffffffffffffffffffffff82610786565b6107cb8683610786565b95508019841693508086168417925050509392505050565b5f819050919050565b5f819050919050565b5f61080f61080a610805846107e3565b6107ec565b6107e3565b9050919050565b5f819050919050565b610828836107f5565b61083c61083482610816565b848454610792565b825550505050565b5f5f905090565b610853610844565b61085e81848461081f565b505050565b5b81811015610881576108765f8261084b565b600181019050610864565b5050565b601f8211156108c65761089781610765565b6108a084610777565b810160208510156108af578190505b6108c36108bb85610777565b830182610863565b50505b505050565b5f82821c905092915050565b5f6108e65f19846008026108cb565b1980831691505092915050565b5f6108fe83836108d7565b9150826002028217905092915050565b610917826106fe565b67ffffffffffffffff8111156109305761092f6104ae565b5b61093a8254610735565b610945828285610885565b5f60209050601f831160018114610976575f8415610964578287015190505b61096e85826108f3565b8655506109d5565b601f19841661098486610765565b5f5b828110156109ab57848901518255600182019150602085019450602081019050610986565b868310156109c857848901516109c4601f8916826108d7565b8355505b6001600288020188555050505b505050505050565b6109e681610627565b82525050565b5f6020820190506109ff5f8301846109dd565b92915050565b7f4e487b71000000000000000000000000000000000000000000000000000000005f52601160045260245ffd5b5f8160011c9050919050565b5f5f8291508390505b6001851115610a8757808604811115610a6357610a62610a05565b5b6001851615610a725780820291505b8081029050610a8085610a32565b9450610a47565b94509492505050565b5f82610a9f5760019050610b5a565b81610aac575f9050610b5a565b8160018114610ac25760028114610acc57610afb565b6001915050610b5a565b60ff841115610ade57610add610a05565b5b8360020a915084821115610af557610af4610a05565b5b50610b5a565b5060208310610133831016604e8410600b8410161715610b305782820a905083811115610b2b57610b2a610a05565b5b610b5a565b610b3d8484846001610a3e565b92509050818404811115610b5457610b53610a05565b5b81810290505b9392505050565b5f610b6b826107e3565b9150610b76836105d2565b9250610ba37fffffffffffffffffffffffffffffffffffffffffffffffffffffffffffffffff8484610a90565b905092915050565b5f610bb5826107e3565b9150610bc0836107e3565b9250828202610bce816107e3565b91508282048414831517610be557610be4610a05565b5b5092915050565b5f610bf6826107e3565b9150610c01836107e3565b9250828201905080821115610c1957610c18610a05565b5b92915050565b610c28816107e3565b82525050565b5f606082019050610c415f8301866109dd565b610c4e6020830185610c1f565b610c5b6040830184610c1f565b949350505050565b5f602082019050610c765f830184610c1f565b92915050565b61147380610c895f395ff3fe608060405234801561000f575f5ffd5b50600436106100fe575f3560e01c8063715018a611610095578063a9059cbb11610064578063a9059cbb14610286578063b86d1d63146102b6578063dd62ed3e146102d2578063f2fde38b14610302576100fe565b8063715018a61461022457806379cc67901461022e5780638da5cb5b1461024a57806395d89b4114610268576100fe565b8063313ce567116100d1578063313ce5671461019e57806340c10f19146101bc57806342966c68146101d857806370a08231146101f4576100fe565b806306fdde0314610102578063095ea7b31461012057806318160ddd1461015057806323b872dd1461016e575b5f5ffd5b61010a61031e565b6040516101179190610f07565b60405180910390f35b61013a60048036038101906101359190610fb8565b6103ae565b6040516101479190611010565b60405180910390f35b6101586103d0565b6040516101659190611038565b60405180910390f35b61018860048036038101906101839190611051565b6103d9565b6040516101959190611010565b60405180910390f35b6101a6610407565b6040516101b391906110bc565b60405180910390f35b6101d660048036038101906101d19190610fb8565b61041d565b005b6101f260048036038101906101ed91906110d5565b610433565b005b61020e60048036038101906102099190611100565b610440565b60405161021b9190611038565b60405180910390f35b61022c610485565b005b61024860048036038101906102439190610fb8565b610498565b005b6102526104b1565b60405161025f919061113a565b60405180910390f35b6102706104d9565b60405161027d9190610f07565b60405180910390f35b6102a0600480360381019061029b9190610fb8565b610569565b6040516102ad9190611010565b60405180910390f35b6102d060048036038101906102cb9190611100565b61058b565b005b6102ec60048036038101906102e79190611153565b6105c5565b6040516102f99190611038565b60405180910390f35b61031c60048036038101906103179190611100565b610647565b005b60606003805461032d906111be565b80601f0160208091040260200160405190810160405280929190818152602001828054610359906111be565b80156103a45780601f1061037b576101008083540402835291602001916103a4565b820191905f5260205f20905b81548152906001019060200180831161038757829003601f168201915b5050505050905090565b5f5f6103b86106cb565b90506103c58185856106d2565b600191505092915050565b5f600254905090565b5f5f6103e36106cb565b90506103f08582856106e4565b6103fb858585610777565b60019150509392505050565b5f600560149054906101000a900460ff16905090565b610425610867565b61042f82826108ee565b5050565b61043d338261096d565b50565b5f5f5f8373ffffffffffffffffffffffffffffffffffffffff1673ffffffffffffffffffffffffffffffffffffffff1681526020019081526020015f20549050919050565b61048d610867565b6104965f6109ec565b565b6104a38233836106e4565b6104ad828261096d565b5050565b5f60055f9054906101000a900473ffffffffffffffffffffffffffffffffffffffff16905090565b6060600480546104e8906111be565b80601f0160208091040260200160405190810160405280929190818152602001828054610514906111be565b801561055f5780601f106105365761010080835404028352916020019161055f565b820191905f5260205f20905b81548152906001019060200180831161054257829003601f168201915b5050505050905090565b5f5f6105736106cb565b9050610580818585610777565b600191505092915050565b5f600560149054906101000a900460ff16600a6105a8919061134a565b6103e86105b59190611394565b90506105c182826108ee565b5050565b5f60015f8473ffffffffffffffffffffffffffffffffffffffff1673ffffffffffffffffffffffffffffffffffffffff1681526020019081526020015f205f8373ffffffffffffffffffffffffffffffffffffffff1673ffffffffffffffffffffffffffffffffffffffff1681526020019081526020015f2054905092915050565b61064f610867565b5f73ffffffffffffffffffffffffffffffffffffffff168173ffffffffffffffffffffffffffffffffffffffff16036106bf575f6040517f1e4fbdf70000000000000000000000000000000000000000000000000000000081526004016106b6919061113a565b60405180910390fd5b6106c8816109ec565b50565b5f33905090565b6106df8383836001610aaf565b505050565b5f6106ef84846105c5565b90507fffffffffffffffffffffffffffffffffffffffffffffffffffffffffffffffff8110156107715781811015610762578281836040517ffb8f41b2000000000000000000000000000000000000000000000000000000008152600401610759939291906113d5565b60405180910390fd5b61077084848484035f610aaf565b5b50505050565b5f73ffffffffffffffffffffffffffffffffffffffff168373ffffffffffffffffffffffffffffffffffffffff16036107e7575f6040517f96c6fd1e0000000000000000000000000000000000000000000000000000000081526004016107de919061113a565b60405180910390fd5b5f73ffffffffffffffffffffffffffffffffffffffff168273ffffffffffffffffffffffffffffffffffffffff1603610857575f6040517fec442f0500000000000000000000000000000000000000000000000000000000815260040161084e919061113a565b60405180910390fd5b610862838383610c7e565b505050565b61086f6106cb565b73ffffffffffffffffffffffffffffffffffffffff1661088d6104b1565b73ffffffffffffffffffffffffffffffffffffffff16146108ec576108b06106cb565b6040517f118cdaa70000000000000000000000000000000000000000000000000000000081526004016108e3919061113a565b60405180910390fd5b565b5f73ffffffffffffffffffffffffffffffffffffffff168273ffffffffffffffffffffffffffffffffffffffff160361095e575f6040517fec442f05000000000000000000000000000000000000000000000000000000008152600401610955919061113a565b60405180910390fd5b6109695f8383610c7e565b5050565b5f73ffffffffffffffffffffffffffffffffffffffff168273ffffffffffffffffffffffffffffffffffffffff16036109dd575f6040517f96c6fd1e0000000000000000000000000000000000000000000000000000000081526004016109d4919061113a565b60405180910390fd5b6109e8825f83610c7e565b5050565b5f60055f9054906101000a900473ffffffffffffffffffffffffffffffffffffffff1690508160055f6101000a81548173ffffffffffffffffffffffffffffffffffffffff021916908373ffffffffffffffffffffffffffffffffffffffff1602179055508173ffffffffffffffffffffffffffffffffffffffff168173ffffffffffffffffffffffffffffffffffffffff167f8be0079c531659141344cd1fd0a4f28419497f9722a3daafe3b4186f6b6457e060405160405180910390a35050565b5f73ffffffffffffffffffffffffffffffffffffffff168473ffffffffffffffffffffffffffffffffffffffff1603610b1f575f6040517fe602df05000000000000000000000000000000000000000000000000000000008152600401610b16919061113a565b60405180910390fd5b5f73ffffffffffffffffffffffffffffffffffffffff168373ffffffffffffffffffffffffffffffffffffffff1603610b8f575f6040517f94280d62000000000000000000000000000000000000000000000000000000008152600401610b86919061113a565b60405180910390fd5b8160015f8673ffffffffffffffffffffffffffffffffffffffff1673ffffffffffffffffffffffffffffffffffffffff1681526020019081526020015f205f8573ffffffffffffffffffffffffffffffffffffffff1673ffffffffffffffffffffffffffffffffffffffff1681526020019081526020015f20819055508015610c78578273ffffffffffffffffffffffffffffffffffffffff168473ffffffffffffffffffffffffffffffffffffffff167f8c5be1e5ebec7d5bd14f71427d1e84f3dd0314c0f7b2291e5b200ac8c7c3b92584604051610c6f9190611038565b60405180910390a35b50505050565b5f73ffffffffffffffffffffffffffffffffffffffff168373ffffffffffffffffffffffffffffffffffffffff1603610cce578060025f828254610cc2919061140a565b92505081905550610d9c565b5f5f5f8573ffffffffffffffffffffffffffffffffffffffff1673ffffffffffffffffffffffffffffffffffffffff1681526020019081526020015f2054905081811015610d57578381836040517fe450d38c000000000000000000000000000000000000000000000000000000008152600401610d4e939291906113d5565b60405180910390fd5b8181035f5f8673ffffffffffffffffffffffffffffffffffffffff1673ffffffffffffffffffffffffffffffffffffffff1681526020019081526020015f2081905550505b5f73ffffffffffffffffffffffffffffffffffffffff168273ffffffffffffffffffffffffffffffffffffffff1603610de3578060025f8282540392505081905550610e2d565b805f5f8473ffffffffffffffffffffffffffffffffffffffff1673ffffffffffffffffffffffffffffffffffffffff1681526020019081526020015f205f82825401925050819055505b8173ffffffffffffffffffffffffffffffffffffffff168373ffffffffffffffffffffffffffffffffffffffff167fddf252ad1be2c89b69c2b068fc378daa952ba7f163c4a11628f55a4df523b3ef83604051610e8a9190611038565b60405180910390a3505050565b5f81519050919050565b5f82825260208201905092915050565b8281835e5f83830152505050565b5f601f19601f8301169050919050565b5f610ed982610e97565b610ee38185610ea1565b9350610ef3818560208601610eb1565b610efc81610ebf565b840191505092915050565b5f6020820190508181035f830152610f1f8184610ecf565b905092915050565b5f5ffd5b5f73ffffffffffffffffffffffffffffffffffffffff82169050919050565b5f610f5482610f2b565b9050919050565b610f6481610f4a565b8114610f6e575f5ffd5b50565b5f81359050610f7f81610f5b565b92915050565b5f819050919050565b610f9781610f85565b8114610fa1575f5ffd5b50565b5f81359050610fb281610f8e565b92915050565b5f5f60408385031215610fce57610fcd610f27565b5b5f610fdb85828601610f71565b9250506020610fec85828601610fa4565b9150509250929050565b5f8115159050919050565b61100a81610ff6565b82525050565b5f6020820190506110235f830184611001565b92915050565b61103281610f85565b82525050565b5f60208201905061104b5f830184611029565b92915050565b5f5f5f6060848603121561106857611067610f27565b5b5f61107586828701610f71565b935050602061108686828701610f71565b925050604061109786828701610fa4565b9150509250925092565b5f60ff82169050919050565b6110b6816110a1565b82525050565b5f6020820190506110cf5f8301846110ad565b92915050565b5f602082840312156110ea576110e9610f27565b5b5f6110f784828501610fa4565b91505092915050565b5f6020828403121561111557611114610f27565b5b5f61112284828501610f71565b91505092915050565b61113481610f4a565b82525050565b5f60208201905061114d5f83018461112b565b92915050565b5f5f6040838503121561116957611168610f27565b5b5f61117685828601610f71565b925050602061118785828601610f71565b9150509250929050565b7f4e487b71000000000000000000000000000000000000000000000000000000005f52602260045260245ffd5b5f60028204905060018216806111d557607f821691505b6020821081036111e8576111e7611191565b5b50919050565b7f4e487b71000000000000000000000000000000000000000000000000000000005f52601160045260245ffd5b5f8160011c9050919050565b5f5f8291508390505b60018511156112705780860481111561124c5761124b6111ee565b5b600185161561125b5780820291505b80810290506112698561121b565b9450611230565b94509492505050565b5f826112885760019050611343565b81611295575f9050611343565b81600181146112ab57600281146112b5576112e4565b6001915050611343565b60ff8411156112c7576112c66111ee565b5b8360020a9150848211156112de576112dd6111ee565b5b50611343565b5060208310610133831016604e8410600b84101617156113195782820a905083811115611314576113136111ee565b5b611343565b6113268484846001611227565b9250905081840481111561133d5761133c6111ee565b5b81810290505b9392505050565b5f61135482610f85565b915061135f836110a1565b925061138c7fffffffffffffffffffffffffffffffffffffffffffffffffffffffffffffffff8484611279565b905092915050565b5f61139e82610f85565b91506113a983610f85565b92508282026113b781610f85565b915082820484148315176113ce576113cd6111ee565b5b5092915050565b5f6060820190506113e85f83018661112b565b6113f56020830185611029565b6114026040830184611029565b949350505050565b5f61141482610f85565b915061141f83610f85565b9250828201905080821115611437576114366111ee565b5b9291505056fea2646970667358221220a415f533b43cb75bb611ab78a795c3d6410ccd501cd72653aa160553f0fe95dc64736f6c634300081e0033","linkReferences":{}},"methodIdentifiers":{"allowance(address,address)":"dd62ed3e","approve(address,uint256)":"095ea7b3","balanceOf(address)":"70a08231","burn(uint256)":"42966c68","burnFrom(address,uint256)":"79cc6790","decimals()":"313ce567","faucet(address)":"b86d1d63","mint(address,uint256)":"40c10f19","name()":"06fdde03","owner()":"8da5cb5b","renounceOwnership()":"715018a6","symbol()":"95d89b41","totalSupply()":"18160ddd","transfer(address,uint256)":"a9059cbb","transferFrom(address,address,uint256)":"23b872dd","transferOwnership(address)":"f2fde38b"},"id":1}