{
  "_format": "hh-sol-artifact-1",
  "contractName": "CrediNetSBT",
  "sourceName": "contracts/CrediNetSBT.sol",
  "abi": [
    {
      "inputs": [
        {
          "internalType": "string",
          "name": "name_",
          "type": "string"
        },
        {
          "internalType": "string",
          "name": "symbol_",
          "type": "string"
        },
        {
          "internalType": "string",
          "name": "baseURI_",
          "type": "string"
        }
      ],
      "stateMutability": "nonpayable",
      "type": "constructor"
    },
    {
      "inputs": [],
      "name": "ERC721EnumerableForbiddenBatchMint",
      "type": "error"
    },
    {
      "inputs": [
        {
          "internalType": "address",
          "name": "sender",
          "type": "address"
        },
        {
          "internalType": "uint256",
          "name": "tokenId",
          "type": "uint256"
        },
        {
          "internalType": "address",
          "name": "owner",
          "type": "address"
        }
      ],
      "name": "ERC721IncorrectOwner",
      "type": "error"
    },
    {
      "inputs": [
        {
          "internalType": "address",
          "name": "operator",
          "type": "address"
        },
        {
          "internalType": "uint256",
          "name": "tokenId",
          "type": "uint256"
        }
      ],
      "name": "ERC721InsufficientApproval",
      "type": "error"
    },
    {
      "inputs": [
        {
          "internalType": "address",
          "name": "approver",
          "type": "address"
        }
      ],
      "name": "ERC721InvalidApprover",
      "type": "error"
    },
    {
      "inputs": [
        {
          "internalType": "address",
          "name": "operator",
          "type": "address"
        }
      ],
      "name": "ERC721InvalidOperator",
      "type": "error"
    },
    {
      "inputs": [
        {
          "internalType": "address",
          "name": "owner",
          "type": "address"
        }
      ],
      "name": "ERC721InvalidOwner",
      "type": "error"
    },
    {
      "inputs": [
        {
          "internalType": "address",
          "name": "receiver",
          "type": "address"
        }
      ],
      "name": "ERC721InvalidReceiver",
      "type": "error"
    },
    {
      "inputs": [
        {
          "internalType": "address",
          "name": "sender",
          "type": "address"
        }
      ],
      "name": "ERC721InvalidSender",
      "type": "error"
    },
    {
      "inputs": [
        {
          "internalType": "uint256",
          "name": "tokenId",
          "type": "uint256"
        }
      ],
      "name": "ERC721NonexistentToken",
      "type": "error"
    },
    {
      "inputs": [
        {
          "internalType": "address",
          "name": "owner",
          "type": "address"
        },
        {
          "internalType": "uint256",
          "name": "index",
          "type": "uint256"
        }
      ],
      "name": "ERC721OutOfBoundsIndex",
      "type": "error"
    },
    {
      "inputs": [
        {
          "internalType": "address",
          "name": "owner",
          "type": "address"
        }
      ],
      "name": "OwnableInvalidOwner",
      "type": "error"
    },
    {
      "inputs": [
        {
          "internalType": "address",
          "name": "account",
          "type": "address"
        }
      ],
      "name": "OwnableUnauthorizedAccount",
      "type": "error"
    },
    {
      "inputs": [],
      "name": "ReentrancyGuardReentrantCall",
      "type": "error"
    },
    {
      "anonymous": false,
      "inputs": [
        {
          "indexed": true,
          "internalType": "address",
          "name": "owner",
          "type": "address"
        },
        {
          "indexed": true,
          "internalType": "address",
          "name": "approved",
          "type": "address"
        },
        {
          "indexed": true,
          "internalType": "uint256",
          "name": "tokenId",
          "type": "uint256"
        }
      ],
      "name": "Approval",
      "type": "event"
    },
    {
      "anonymous": false,
      "inputs": [
        {
          "indexed": true,
          "internalType": "address",
          "name": "owner",
          "type": "address"
        },
        {
          "indexed": true,
          "internalType": "address",
          "name": "operator",
          "type": "address"
        },
        {
          "indexed": false,
          "internalType": "bool",
          "name": "approved",
          "type": "bool"
        }
      ],
      "name": "ApprovalForAll",
      "type": "event"
    },
    {
      "anonymous": false,
      "inputs": [
        {
          "indexed": true,
          "internalType": "address",
          "name": "owner",
          "type": "address"
        },
        {
          "indexed": true,
          "internalType": "uint256",
          "name": "tokenId",
          "type": "uint256"
        },
        {
          "indexed": false,
          "internalType": "uint8",
          "name": "badgeType",
          "type": "uint8"
        }
      ],
      "name": "BadgeBurned",
      "type": "event"
    },
    {
      "anonymous": false,
      "inputs": [
        {
          "indexed": true,
          "internalType": "address",
          "name": "to",
          "type": "address"
        },
        {
          "indexed": true,
          "internalType": "uint256",
          "name": "tokenId",
          "type": "uint256"
        },
        {
          "indexed": false,
          "internalType": "uint8",
          "name": "badgeType",
          "type": "uint8"
        }
      ],
      "name": "BadgeMinted",
      "type": "event"
    },
    {
      "anonymous": false,
      "inputs": [
        {
          "indexed": true,
          "internalType": "address",
          "name": "to",
          "type": "address"
        },
        {
          "indexed": true,
          "internalType": "uint256",
          "name": "tokenId",
          "type": "uint256"
        },
        {
          "indexed": false,
          "internalType": "uint8",
          "name": "badgeType",
          "type": "uint8"
        },
        {
          "indexed": false,
          "internalType": "bytes32",
          "name": "requestHash",
          "type": "bytes32"
        },
        {
          "indexed": false,
          "internalType": "address",
          "name": "validator",
          "type": "address"
        },
        {
          "indexed": false,
          "internalType": "uint256",
          "name": "agentId",
          "type": "uint256"
        }
      ],
      "name": "BadgeMintedWithValidation",
      "type": "event"
    },
    {
      "anonymous": false,
      "inputs": [
        {
          "indexed": true,
          "internalType": "address",
          "name": "oldAgent",
          "type": "address"
        },
        {
          "indexed": true,
          "internalType": "address",
          "name": "newAgent",
          "type": "address"
        }
      ],
      "name": "DynamicAgentUpdated",
      "type": "event"
    },
    {
      "anonymous": false,
      "inputs": [
        {
          "indexed": false,
          "internalType": "uint256",
          "name": "tokenId",
          "type": "uint256"
        }
      ],
      "name": "Locked",
      "type": "event"
    },
    {
      "anonymous": false,
      "inputs": [
        {
          "indexed": true,
          "internalType": "address",
          "name": "previousOwner",
          "type": "address"
        },
        {
          "indexed": true,
          "internalType": "address",
          "name": "newOwner",
          "type": "address"
        }
      ],
      "name": "OwnershipTransferred",
      "type": "event"
    },
    {
      "anonymous": false,
      "inputs": [
        {
          "indexed": true,
          "internalType": "address",
          "name": "from",
          "type": "address"
        },
        {
          "indexed": true,
          "internalType": "address",
          "name": "to",
          "type": "address"
        },
        {
          "indexed": true,
          "internalType": "uint256",
          "name": "tokenId",
          "type": "uint256"
        }
      ],
      "name": "Transfer",
      "type": "event"
    },
    {
      "inputs": [],
      "name": "VERSION",
      "outputs": [
        {
          "internalType": "string",
          "name": "",
          "type": "string"
        }
      ],
      "stateMutability": "view",
      "type": "function"
    },
    {
      "inputs": [
        {
          "internalType": "address",
          "name": "",
          "type": "address"
        },
        {
          "internalType": "uint256",
          "name": "",
          "type": "uint256"
        }
      ],
      "name": "approve",
      "outputs": [],
      "stateMutability": "pure",
      "type": "function"
    },
    {
      "inputs": [
        {
          "internalType": "address",
          "name": "owner",
          "type": "address"
        }
      ],
      "name": "balanceOf",
      "outputs": [
        {
          "internalType": "uint256",
          "name": "",
          "type": "uint256"
        }
      ],
      "stateMutability": "view",
      "type": "function"
    },
    {
      "inputs": [
        {
          "internalType": "address[]",
          "name": "recipients",
          "type": "address[]"
        },
        {
          "internalType": "uint8",
          "name": "badgeType",
          "type": "uint8"
        },
        {
          "internalType": "string",
          "name": "tokenURI_",
          "type": "string"
        }
      ],
      "name": "batchMintBadges",
      "outputs": [
        {
          "internalType": "uint256[]",
          "name": "tokenIds",
          "type": "uint256[]"
        }
      ],
      "stateMutability": "nonpayable",
      "type": "function"
    },
    {
      "inputs": [
        {
          "internalType": "address[]",
          "name": "recipients",
          "type": "address[]"
        },
        {
          "internalType": "uint8",
          "name": "badgeType",
          "type": "uint8"
        },
        {
          "internalType": "string",
          "name": "tokenURI_",
          "type": "string"
        },
        {
          "internalType": "bytes32[]",
          "name": "requestHashes",
          "type": "bytes32[]"
        }
      ],
      "name": "batchMintBadgesWithValidation",
      "outputs": [
        {
          "internalType": "uint256[]",
          "name": "tokenIds",
          "type": "uint256[]"
        }
      ],
      "stateMutability": "nonpayable",
      "type": "function"
    },
    {
      "inputs": [
        {
          "internalType": "uint256",
          "name": "tokenId",
          "type": "uint256"
        }
      ],
      "name": "burnBadge",
      "outputs": [],
      "stateMutability": "nonpayable",
      "type": "function"
    },
    {
      "inputs": [],
      "name": "dynamicAgent",
      "outputs": [
        {
          "internalType": "address",
          "name": "",
          "type": "address"
        }
      ],
      "stateMutability": "view",
      "type": "function"
    },
    {
      "inputs": [],
      "name": "enforceRegistryChecks",
      "outputs": [
        {
          "internalType": "bool",
          "name": "",
          "type": "bool"
        }
      ],
      "stateMutability": "view",
      "type": "function"
    },
    {
      "inputs": [
        {
          "internalType": "uint256",
          "name": "tokenId",
          "type": "uint256"
        }
      ],
      "name": "getApproved",
      "outputs": [
        {
          "internalType": "address",
          "name": "",
          "type": "address"
        }
      ],
      "stateMutability": "view",
      "type": "function"
    },
    {
      "inputs": [
        {
          "internalType": "address",
          "name": "user",
          "type": "address"
        },
        {
          "internalType": "uint8",
          "name": "badgeType",
          "type": "uint8"
        }
      ],
      "name": "getBadgeTokenId",
      "outputs": [
        {
          "internalType": "uint256",
          "name": "",
          "type": "uint256"
        }
      ],
      "stateMutability": "view",
      "type": "function"
    },
    {
      "inputs": [
        {
          "internalType": "address",
          "name": "user",
          "type": "address"
        }
      ],
      "name": "getBadges",
      "outputs": [
        {
          "internalType": "uint8[]",
          "name": "",
          "type": "uint8[]"
        }
      ],
      "stateMutability": "view",
      "type": "function"
    },
    {
      "inputs": [],
      "name": "getDynamicAgent",
      "outputs": [
        {
          "internalType": "address",
          "name": "",
          "type": "address"
        }
      ],
      "stateMutability": "view",
      "type": "function"
    },
    {
      "inputs": [
        {
          "internalType": "address",
          "name": "user",
          "type": "address"
        },
        {
          "internalType": "uint8",
          "name": "badgeType",
          "type": "uint8"
        }
      ],
      "name": "hasBadge",
      "outputs": [
        {
          "internalType": "bool",
          "name": "",
          "type": "bool"
        }
      ],
      "stateMutability": "view",
      "type": "function"
    },
    {
      "inputs": [],
      "name": "identityRegistry",
      "outputs": [
        {
          "internalType": "address",
          "name": "",
          "type": "address"
        }
      ],
      "stateMutability": "view",
      "type": "function"
    },
    {
      "inputs": [
        {
          "internalType": "address",
          "name": "owner",
          "type": "address"
        },
        {
          "internalType": "address",
          "name": "operator",
          "type": "address"
        }
      ],
      "name": "isApprovedForAll",
      "outputs": [
        {
          "internalType": "bool",
          "name": "",
          "type": "bool"
        }
      ],
      "stateMutability": "view",
      "type": "function"
    },
    {
      "inputs": [
        {
          "internalType": "address",
          "name": "",
          "type": "address"
        }
      ],
      "name": "issuerAgentId",
      "outputs": [
        {
          "internalType": "uint256",
          "name": "",
          "type": "uint256"
        }
      ],
      "stateMutability": "view",
      "type": "function"
    },
    {
      "inputs": [
        {
          "internalType": "uint256",
          "name": "tokenId",
          "type": "uint256"
        }
      ],
      "name": "locked",
      "outputs": [
        {
          "internalType": "bool",
          "name": "",
          "type": "bool"
        }
      ],
      "stateMutability": "view",
      "type": "function"
    },
    {
      "inputs": [],
      "name": "minAvgScore",
      "outputs": [
        {
          "internalType": "uint8",
          "name": "",
          "type": "uint8"
        }
      ],
      "stateMutability": "view",
      "type": "function"
    },
    {
      "inputs": [],
      "name": "minValidationResponse",
      "outputs": [
        {
          "internalType": "uint8",
          "name": "",
          "type": "uint8"
        }
      ],
      "stateMutability": "view",
      "type": "function"
    },
    {
      "inputs": [
        {
          "internalType": "address",
          "name": "to",
          "type": "address"
        },
        {
          "internalType": "uint8",
          "name": "badgeType",
          "type": "uint8"
        },
        {
          "internalType": "string",
          "name": "tokenURI_",
          "type": "string"
        }
      ],
      "name": "mintBadge",
      "outputs": [
        {
          "internalType": "uint256",
          "name": "tokenId",
          "type": "uint256"
        }
      ],
      "stateMutability": "nonpayable",
      "type": "function"
    },
    {
      "inputs": [
        {
          "internalType": "address",
          "name": "to",
          "type": "address"
        },
        {
          "internalType": "uint8",
          "name": "badgeType",
          "type": "uint8"
        },
        {
          "internalType": "string",
          "name": "tokenURI_",
          "type": "string"
        },
        {
          "internalType": "bytes32",
          "name": "requestHash",
          "type": "bytes32"
        }
      ],
      "name": "mintBadgeWithValidation",
      "outputs": [
        {
          "internalType": "uint256",
          "name": "tokenId",
          "type": "uint256"
        }
      ],
      "stateMutability": "nonpayable",
      "type": "function"
    },
    {
      "inputs": [],
      "name": "name",
      "outputs": [
        {
          "internalType": "string",
          "name": "",
          "type": "string"
        }
      ],
      "stateMutability": "view",
      "type": "function"
    },
    {
      "inputs": [],
      "name": "owner",
      "outputs": [
        {
          "internalType": "address",
          "name": "",
          "type": "address"
        }
      ],
      "stateMutability": "view",
      "type": "function"
    },
    {
      "inputs": [
        {
          "internalType": "uint256",
          "name": "tokenId",
          "type": "uint256"
        }
      ],
      "name": "ownerOf",
      "outputs": [
        {
          "internalType": "address",
          "name": "",
          "type": "address"
        }
      ],
      "stateMutability": "view",
      "type": "function"
    },
    {
      "inputs": [],
      "name": "preferredValidator",
      "outputs": [
        {
          "internalType": "address",
          "name": "",
          "type": "address"
        }
      ],
      "stateMutability": "view",
      "type": "function"
    },
    {
      "inputs": [],
      "name": "renounceOwnership",
      "outputs": [],
      "stateMutability": "nonpayable",
      "type": "function"
    },
    {
      "inputs": [],
      "name": "reputationRegistry",
      "outputs": [
        {
          "internalType": "address",
          "name": "",
          "type": "address"
        }
      ],
      "stateMutability": "view",
      "type": "function"
    },
    {
      "inputs": [
        {
          "internalType": "address",
          "name": "from",
          "type": "address"
        },
        {
          "internalType": "address",
          "name": "to",
          "type": "address"
        },
        {
          "internalType": "uint256",
          "name": "tokenId",
          "type": "uint256"
        }
      ],
      "name": "safeTransferFrom",
      "outputs": [],
      "stateMutability": "nonpayable",
      "type": "function"
    },
    {
      "inputs": [
        {
          "internalType": "address",
          "name": "from",
          "type": "address"
        },
        {
          "internalType": "address",
          "name": "to",
          "type": "address"
        },
        {
          "internalType": "uint256",
          "name": "tokenId",
          "type": "uint256"
        },
        {
          "internalType": "bytes",
          "name": "data",
          "type": "bytes"
        }
      ],
      "name": "safeTransferFrom",
      "outputs": [],
      "stateMutability": "nonpayable",
      "type": "function"
    },
    {
      "inputs": [
        {
          "internalType": "address",
          "name": "",
          "type": "address"
        },
        {
          "internalType": "bool",
          "name": "",
          "type": "bool"
        }
      ],
      "name": "setApprovalForAll",
      "outputs": [],
      "stateMutability": "pure",
      "type": "function"
    },
    {
      "inputs": [
        {
          "internalType": "string",
          "name": "newBaseURI",
          "type": "string"
        }
      ],
      "name": "setBaseURI",
      "outputs": [],
      "stateMutability": "nonpayable",
      "type": "function"
    },
    {
      "inputs": [
        {
          "internalType": "address",
          "name": "_agent",
          "type": "address"
        }
      ],
      "name": "setDynamicAgent",
      "outputs": [],
      "stateMutability": "nonpayable",
      "type": "function"
    },
    {
      "inputs": [
        {
          "internalType": "bool",
          "name": "enabled",
          "type": "bool"
        }
      ],
      "name": "setEnforceRegistryChecks",
      "outputs": [],
      "stateMutability": "nonpayable",
      "type": "function"
    },
    {
      "inputs": [
        {
          "internalType": "address",
          "name": "issuer",
          "type": "address"
        },
        {
          "internalType": "uint256",
          "name": "agentId",
          "type": "uint256"
        }
      ],
      "name": "setIssuerAgentId",
      "outputs": [],
      "stateMutability": "nonpayable",
      "type": "function"
    },
    {
      "inputs": [
        {
          "internalType": "address",
          "name": "v",
          "type": "address"
        }
      ],
      "name": "setPreferredValidator",
      "outputs": [],
      "stateMutability": "nonpayable",
      "type": "function"
    },
    {
      "inputs": [
        {
          "internalType": "address",
          "name": "identity",
          "type": "address"
        },
        {
          "internalType": "address",
          "name": "reputation",
          "type": "address"
        },
        {
          "internalType": "address",
          "name": "validation",
          "type": "address"
        }
      ],
      "name": "setRegistries",
      "outputs": [],
      "stateMutability": "nonpayable",
      "type": "function"
    },
    {
      "inputs": [
        {
          "internalType": "uint8",
          "name": "_minAvgScore",
          "type": "uint8"
        },
        {
          "internalType": "uint8",
          "name": "_minValidationResponse",
          "type": "uint8"
        }
      ],
      "name": "setThresholds",
      "outputs": [],
      "stateMutability": "nonpayable",
      "type": "function"
    },
    {
      "inputs": [
        {
          "internalType": "bytes4",
          "name": "interfaceId",
          "type": "bytes4"
        }
      ],
      "name": "supportsInterface",
      "outputs": [
        {
          "internalType": "bool",
          "name": "",
          "type": "bool"
        }
      ],
      "stateMutability": "view",
      "type": "function"
    },
    {
      "inputs": [],
      "name": "symbol",
      "outputs": [
        {
          "internalType": "string",
          "name": "",
          "type": "string"
        }
      ],
      "stateMutability": "view",
      "type": "function"
    },
    {
      "inputs": [
        {
          "internalType": "uint256",
          "name": "index",
          "type": "uint256"
        }
      ],
      "name": "tokenByIndex",
      "outputs": [
        {
          "internalType": "uint256",
          "name": "",
          "type": "uint256"
        }
      ],
      "stateMutability": "view",
      "type": "function"
    },
    {
      "inputs": [
        {
          "internalType": "address",
          "name": "owner",
          "type": "address"
        },
        {
          "internalType": "uint256",
          "name": "index",
          "type": "uint256"
        }
      ],
      "name": "tokenOfOwnerByIndex",
      "outputs": [
        {
          "internalType": "uint256",
          "name": "",
          "type": "uint256"
        }
      ],
      "stateMutability": "view",
      "type": "function"
    },
    {
      "inputs": [
        {
          "internalType": "uint256",
          "name": "tokenId",
          "type": "uint256"
        }
      ],
      "name": "tokenTypeOf",
      "outputs": [
        {
          "internalType": "uint8",
          "name": "",
          "type": "uint8"
        }
      ],
      "stateMutability": "view",
      "type": "function"
    },
    {
      "inputs": [
        {
          "internalType": "uint256",
          "name": "tokenId",
          "type": "uint256"
        }
      ],
      "name": "tokenURI",
      "outputs": [
        {
          "internalType": "string",
          "name": "",
          "type": "string"
        }
      ],
      "stateMutability": "view",
      "type": "function"
    },
    {
      "inputs": [
        {
          "internalType": "uint256",
          "name": "",
          "type": "uint256"
        }
      ],
      "name": "tokenValidationHash",
      "outputs": [
        {
          "internalType": "bytes32",
          "name": "",
          "type": "bytes32"
        }
      ],
      "stateMutability": "view",
      "type": "function"
    },
    {
      "inputs": [
        {
          "internalType": "uint256",
          "name": "tokenId",
          "type": "uint256"
        }
      ],
      "name": "tokenValidationHashOf",
      "outputs": [
        {
          "internalType": "bytes32",
          "name": "",
          "type": "bytes32"
        }
      ],
      "stateMutability": "view",
      "type": "function"
    },
    {
      "inputs": [],
      "name": "totalSupply",
      "outputs": [
        {
          "internalType": "uint256",
          "name": "",
          "type": "uint256"
        }
      ],
      "stateMutability": "view",
      "type": "function"
    },
    {
      "inputs": [
        {
          "internalType": "address",
          "name": "from",
          "type": "address"
        },
        {
          "internalType": "address",
          "name": "to",
          "type": "address"
        },
        {
          "internalType": "uint256",
          "name": "tokenId",
          "type": "uint256"
        }
      ],
      "name": "transferFrom",
      "outputs": [],
      "stateMutability": "nonpayable",
      "type": "function"
    },
    {
      "inputs": [
        {
          "internalType": "address",
          "name": "newOwner",
          "type": "address"
        }
      ],
      "name": "transferOwnership",
      "outputs": [],
      "stateMutability": "nonpayable",
      "type": "function"
    },
    {
      "inputs": [],
      "name": "validationRegistry",
      "outputs": [
        {
          "internalType": "address",
          "name": "",
          "type": "address"
        }
      ],
      "stateMutability": "view",
      "type": "function"
    }
  ],
  "bytecode": "0x608060405234620004df576200459b803803806200001d81620004e4565b9283398101606082820312620004df5781516001600160401b039190828111620004df57816200004f9185016200050a565b9060209384810151848111620004df57826200006d9183016200050a565b916040820151858111620004df576200008792016200050a565b825191848311620004c9576000908154936001958686811c96168015620004be575b89871014620003c8578190601f968781116200046b575b50899087831160011462000407578592620003fb575b5050600019600383901b1c191690861b1782555b805190868211620003e75785548681811c91168015620003dc575b89821014620003c85790818684931162000375575b5088908683116001146200031157849262000305575b5050600019600383901b1c191690851b1784555b3315620002ed57600a8054336001600160a01b0319821681179092556001600160a01b03167f8be0079c531659141344cd1fd0a4f28419497f9722a3daafe3b4186f6b6457e08380a383600b558151948511620002d9576011548481811c91168015620002ce575b87821014620002ba5783811162000271575b508592851160011462000208579394508492919083620001fc575b50501b916000199060031b1c1916176011555b60405161401e90816200057d8239f35b015192503880620001d9565b6011815285812093958591601f198316915b888383106200025657505050106200023c575b505050811b01601155620001ec565b015160001960f88460031b161c191690553880806200022d565b8587015188559096019594850194879350908101906200021a565b601182528682208480880160051c820192898910620002b0575b0160051c019085905b828110620002a4575050620001be565b83815501859062000294565b925081926200028b565b634e487b7160e01b82526022600452602482fd5b90607f1690620001ac565b634e487b7160e01b81526041600452602490fd5b60249060405190631e4fbdf760e01b82526004820152fd5b01519050388062000130565b8785528985208894509190601f198416865b8c8282106200035e575050841162000344575b505050811b01845562000144565b015160001960f88460031b161c1916905538808062000336565b8385015186558b9790950194938401930162000323565b9091508684528884208680850160051c8201928b8610620003be575b918991869594930160051c01915b828110620003af5750506200011a565b8681558594508991016200039f565b9250819262000391565b634e487b7160e01b84526022600452602484fd5b90607f169062000105565b634e487b7160e01b83526041600452602483fd5b015190503880620000d6565b8580528a86208994509190601f198416875b8d8282106200045457505084116200043a575b505050811b018255620000ea565b015160001960f88460031b161c191690553880806200042c565b8385015186558c9790950194938401930162000419565b9091508480528985208780850160051c8201928c8610620004b4575b918a91869594930160051c01915b828110620004a5575050620000c0565b8781558594508a910162000495565b9250819262000487565b95607f1695620000a9565b634e487b7160e01b600052604160045260246000fd5b600080fd5b6040519190601f01601f191682016001600160401b03811183821017620004c957604052565b919080601f84011215620004df5782516001600160401b038111620004c95760209062000540601f8201601f19168301620004e4565b92818452828287010111620004df5760005b8181106200056857508260009394955001015290565b85810183015184820184015282016200055256fe608080604052600436101561001357600080fd5b60003560e01c90816301ffc9a7146125855750806303828e45146124b457806306fdde0314612409578063081812fc146123cb578063095ea7b31461237457806311243a9d14612242578063134e18f41461221957806318160ddd146121fb57806323b872dd146121e457806328516e021461195d5780632aa7b027146121c05780632e7f1db71461219a5780632f745c5914612173578063303c5d42146119fa57806332d9365214611986578063394806e31461195d5780633af0c6881461190757806342842e0e146118d95780634c6b993a146118b05780634f6ccce71461185a57806355de28ae146114ac57806355f804b31461134457806362ad02851461130a5780636352211e146112da57806370a08231146112af5780637102712414611286578063715018a6146112295780637d3f0cb0146111da5780637febfe5b146111975780638596bcd7146111525780638da5cb5b1461112957806395d89b4114611046578063a22cb46514610fdc578063a81195a41461076b578063adbd802814610719578063b45a3c0e146106e3578063b88d4fde14610676578063bfce86b3146105c1578063c87b56dd1461058e578063c8db44e314610565578063d05ecc9114610526578063d11411fd146104fa578063d39e3c5514610490578063e09fc2eb14610416578063e355abcb146103f2578063e985e9c51461039c578063f2fde38b1461030e578063f8b61b81146102bd5763ffa1ad741461023a57600080fd5b346102b85760003660031901126102b85760405160408101908082106001600160401b038311176102a25761029e916040526011815270043726564694e6574205342542076312e3607c1b602082015260405191829160208352602083019061260b565b0390f35b634e487b7160e01b600052604160045260246000fd5b600080fd5b346102b85760403660031901126102b8576102d66125bc565b6102de612660565b9060018060a01b0316600052600f60205260ff604060002091166000526020526020604060002054604051908152f35b346102b85760203660031901126102b8576103276125bc565b61032f61323a565b6001600160a01b0390811690811561038357600a54826bffffffffffffffffffffffff60a01b821617600a55167f8be0079c531659141344cd1fd0a4f28419497f9722a3daafe3b4186f6b6457e0600080a3005b604051631e4fbdf760e01b815260006004820152602490fd5b346102b85760403660031901126102b8576103b56125bc565b6103bd6125d2565b9060018060a01b03809116600052600560205260406000209116600052602052602060ff604060002054166040519015158152f35b346102b85760003660031901126102b857602060ff60145460a81c16604051908152f35b346102b85760803660031901126102b85761042f6125bc565b610437612660565b6044356001600160401b0381116102b8576020926104839261046061047d933690600401612670565b939061046a61323a565b610472613266565b606435943691612778565b916132e0565b6001600b55604051908152f35b346102b85760203660031901126102b8576104a96125bc565b6104b161323a565b601880546001600160a01b039283166001600160a01b0319821681179092559091167f72e5efaab5e99fdcbdfb9aad5dd43056c51d9a09be9591680c52ce56a85377de600080a3005b346102b85760203660031901126102b85760043560005260176020526020604060002054604051908152f35b346102b85760403660031901126102b85761053f6125bc565b61054761323a565b6001600160a01b031660009081526016602052604090206024359055005b346102b85760003660031901126102b8576013546040516001600160a01b039091168152602090f35b346102b85760203660031901126102b85761029e6105ad600435612d61565b60405191829160208352602083019061260b565b346102b85760403660031901126102b85760043560ff81168082036102b85760646105ea612660565b916105f361323a565b111580610668575b1561062d576014805461ffff60a01b191660a09390931b60ff60a01b169290921760a89190911b60ff60a81b16179055005b60405162461bcd60e51b81526020600482015260136024820152725342543a20626164207468726573686f6c647360681b6044820152606490fd5b50606460ff821611156105fb565b346102b85760803660031901126102b85761068f6125bc565b6106976125d2565b90604435606435926001600160401b0384116102b857366023850112156102b8576106cf6106e1943690602481600401359101612778565b926106db8383836128ef565b33613ebd565b005b346102b85760203660031901126102b8576004356000526002602052602060018060a01b03604060002054161515604051908152f35b346102b85760203660031901126102b857600435600081815260026020526040902054610750906001600160a01b03161515612d16565b600052600d602052602060ff60406000205416604051908152f35b346102b85760603660031901126102b8576004356001600160401b0381116102b85761079b903690600401612630565b6107a3612660565b916044356001600160401b0381116102b8576107c3903690600401612670565b93906107cd61323a565b6107d5613266565b8315610f9f576107e484612899565b9360005b818110610802576001600b556040518061029e888261269d565b6108156108108284886128cb565b6128db565b90610821368986612778565b916000906001600160a01b03811615610f635760018060a01b038116600052600e602052604060002060ff881660005260205260ff60406000205416610f265760ff60155460a01c16610bf357600c9160018354018093556040519461088686612721565b600086526001600160a01b0361089c8585613aaa565b16610bda576108ae8996858533613d79565b6000848152600d60209081526040808320805460ff8b1660ff1991821681179092556001600160a01b038816808652600e8552838620838752855283862080549092166001179091558452600f835281842090845290915290208490558051610af2575b506018546001600160a01b031680610a9f575b50808360405160ff881681527f6e79522d33e3590933a0f11623ebc984abab3d341dd3e9b88e4e2503b15d9ab6602060018060a01b03871692a3610993575b505060019250600080516020613fc98339815191526020604051838152a161098c8289612835565b52016107e8565b808160ff60155460a01c166109ec575b849360019793600080516020613fa98339815191529360809360ff604051971687526020870152898060a01b031660408601526060850152878060a01b031692a385928a610964565b929394955050503381526016602052604081205490602460a0600180821b036014541660405192838092633fcbfaff60e21b82528660048301525afa908115610a94578594600197969484600080516020613fa9833981519152946080948e9791610a61575b509450925093975093506109a3565b610a83915060a03d60a011610a8d575b610a7b818361273c565b8101906132ab565b5050505038610a52565b503d610a71565b6040513d84823e3d90fd5b8095503b156102b857604051631c9ffc5d60e21b81526001600160a01b03831660048201526024810184905288956000908290604490829084905af11561092557610aea915061270e565b60008b610925565b9450826000526010602052604060002085516001600160401b0381116102a2578996610b2882610b22855461285f565b85612ca1565b602090601f8311600114610b6d57610b59929160009183610b62575b50508160011b916000199060031b1c19161790565b90555b8b610912565b015190508f80610b44565b908360005260206000209160005b601f1985168110610bbf575090839291600194601f19811610610ba6575b505050811b019055610b5c565b015160001960f88460031b161c191690558e8080610b99565b8183015184558d9a5060019093019260209283019201610b7b565b6040516339e3563760e11b815260006004820152602490fd5b6012546001600160a01b031680151580610f12575b80610efe575b15610ebf57336000526016602052604060002054908115610e7a576020602491604051928380926331a9108f60e11b82528660048301525afa908115610dcd57600091610e40575b50336001600160a01b0390911603610dfb5760018060a01b036013541660405191610c8083612721565b600083526040519283916331259cff60e01b835260848301906004840152608060248401528151809152602060a4840192019060005b818110610dd957505050918180604094600060448301526000606483015203915afa908115610dcd57600091610d7f575b5060ff8060145460a01c16911610610d3a5760405162461bcd60e51b815260206004820152601960248201527814d0950e881c995c5d595cdd12185cda081c995c5d5a5c9959603a1b6044820152606490fd5b60405162461bcd60e51b815260206004820152601f60248201527f5342543a2072657075746174696f6e2062656c6f77207468726573686f6c64006044820152606490fd5b90506040813d604011610dc5575b81610d9a6040938361273c565b810103126102b85780516001600160401b038116036102b8576020610dbf910161329d565b81610ce7565b3d9150610d8d565b6040513d6000823e3d90fd5b82516001600160a01b0316845286945060209384019390920191600101610cb6565b60405162461bcd60e51b815260206004820152601b60248201527f5342543a206167656e744964206f776e6572206d69736d6174636800000000006044820152606490fd5b90506020813d602011610e72575b81610e5b6020938361273c565b810103126102b857610e6c90613289565b82610c56565b3d9150610e4e565b60405162461bcd60e51b815260206004820152601b60248201527f5342543a20697373756572206167656e744964206e6f742073657400000000006044820152606490fd5b60405162461bcd60e51b815260206004820152601760248201527614d0950e881c9959da5cdd1c9a595cc81b9bdd081cd95d604a1b6044820152606490fd5b506014546001600160a01b03161515610c0e565b506013546001600160a01b03161515610c08565b60405162461bcd60e51b81526020600482015260156024820152745342543a20616c726561647920686173207479706560581b6044820152606490fd5b60405162461bcd60e51b81526020600482015260146024820152735342543a20746f207a65726f206164647265737360601b6044820152606490fd5b60405162461bcd60e51b81526020600482015260156024820152745342543a20656d70747920726563697069656e747360581b6044820152606490fd5b346102b85760403660031901126102b857610ff56125bc565b50602435801515036102b85760405162461bcd60e51b815260206004820152601f60248201527f5342543a20736574417070726f76616c466f72416c6c2064697361626c6564006044820152606490fd5b346102b85760003660031901126102b85760405160006001826001549261106c8461285f565b92838352602094856001821691826000146111095750506001146110ac575b506110989250038361273c565b61029e60405192828493845283019061260b565b84915060016000527fb10e2d527612073b26eecdfd717e6a320cf44b4afac2b0732d9fcbe2b7fa0cf6906000915b8583106110f157505061109893508201018561108b565b805483890185015287945086939092019181016110da565b60ff19168582015261109895151560051b850101925087915061108b9050565b346102b85760003660031901126102b857600a546040516001600160a01b039091168152602090f35b346102b85760203660031901126102b8576004358015158091036102b85761117861323a565b6015805460ff60a01b191660a09290921b60ff60a01b16919091179055005b346102b85760203660031901126102b8576111b06125bc565b6111b861323a565b601580546001600160a01b0319166001600160a01b0392909216919091179055005b346102b85760203660031901126102b857600435600081815260026020526040902054611211906001600160a01b03161515612d16565b60005260176020526020604060002054604051908152f35b346102b85760003660031901126102b85761124261323a565b600a80546001600160a01b031981169091556000906001600160a01b03167f8be0079c531659141344cd1fd0a4f28419497f9722a3daafe3b4186f6b6457e08280a3005b346102b85760003660031901126102b8576015546040516001600160a01b039091168152602090f35b346102b85760203660031901126102b85760206112d26112cd6125bc565b612cdd565b604051908152f35b346102b85760203660031901126102b85760206112f86004356131ff565b6040516001600160a01b039091168152f35b346102b85760203660031901126102b8576001600160a01b0361132b6125bc565b1660005260166020526020604060002054604051908152f35b346102b8576020806003193601126102b8576001600160401b036004358181116102b857611376903690600401612670565b9161137f61323a565b82116102a25761139060115461285f565b601f8111611457575b50600092601f83116001146113da57506113ca92600091836113cf5750508160011b916000199060031b1c19161790565b601155005b013590508380610b44565b601f198316937f31ecc21a745e3968a04e9570e4425bc18fa8019c68028196b546d1669c200c6892916000905b86821061143f5750508360019510611425575b505050811b01601155005b0135600019600384901b60f8161c1916905582808061141a565b80600184968294958701358155019501920190611407565b61149c907f31ecc21a745e3968a04e9570e4425bc18fa8019c68028196b546d1669c200c68601f850160051c810191602086106114a2575b601f0160051c0190612c8a565b83611399565b909150819061148f565b346102b8576020806003193601126102b857600435906114ca61323a565b6114d2613266565b6114db826131ff565b9082600052600d815260ff60406000205416916002825260018060a01b03908160406000205416151580611852575b61181457846000526002835281604060002054168015908115806117e6575b6000888152600287526040812080546001600160a01b03191690558890837fddf252ad1be2c89b69c2b068fc378daa952ba7f163c4a11628f55a4df523b3ef8280a48215611761575050600854866000526009855280604060002055600160401b8110156102a257866115a58260016115be9401600855612c53565b90919082549060031b91821b91600019901b1916179055565b6008546000199081810190811161174b5787600052600986526115e660406000205491612c53565b90549060031b1c6115fa816115a584612c53565b6000526009865260406000205586600052600060408120556008548015611735570161163961162882612c53565b8154906000199060031b1b19169055565b60085561171c57907fab66c88d9db75fd15dcbd30c6e3ca07ddce55b3286189b30facd6ea979724d909291169283600052600e82526040600020816000528252604060002060ff199081815416905584600052600f835260406000208260005283526000604081205585600052600d835260406000209081541690556010825260406000206116c8815461285f565b90816116df575b5050604051908152a36001600b55005b81601f600093116001146116f75750555b85806116cf565b908083918252611715601f878420940160051c840160018501612c8a565b55556116f0565b604051637e27328960e01b815260048101869052602490fd5b634e487b7160e01b600052603160045260246000fd5b634e487b7160e01b600052601160045260246000fd5b61176c575b506115be565b61177581612cdd565b876000526007865260406000205491600052600686526040600020918181036117bb575b5087600052600786526000604081205560005284526000604081205586611766565b8160005282875260406000205481600052806040600020556000526007875260406000205588611799565b600486526040600081812080546001600160a01b031916905583815260038852208054600019019055611529565b60405162461bcd60e51b815260048101849052601660248201527514d0950e881d1c985b9cd9995c88191a5cd8589b195960521b6044820152606490fd5b50600061150a565b346102b85760203660031901126102b85760043560085481101561189157611883602091612c53565b90546040519160031b1c8152f35b6044906040519063295f44f760e21b8252600060048301526024820152fd5b346102b85760003660031901126102b8576014546040516001600160a01b039091168152602090f35b346102b8576106e16118ea366126d9565b90604051926118f884612721565b600084526106db8383836128ef565b346102b85760403660031901126102b8576119206125bc565b611928612660565b9060018060a01b0316600052600e60205260ff60406000209116600052602052602060ff604060002054166040519015158152f35b346102b85760003660031901126102b8576018546040516001600160a01b039091168152602090f35b346102b85760603660031901126102b85761199f6125bc565b6119a76125d2565b6001600160a01b036044358181169392908490036102b8576119c761323a565b816bffffffffffffffffffffffff60a01b9316836012541617601255168160135416176013556014541617601455600080f35b346102b85760603660031901126102b857611a136125bc565b611a1b612660565b6044916001600160401b03919083358381116102b857611a42611a59913690600401612670565b611a4a61323a565b611a52613266565b3691612778565b6000946001600160a01b038316156121385760018060a01b038316600052600e602052604060002060ff851660005260205260ff604060002054166120fc5760ff60155460a01c16611de057506001600c54019384600c55604051611abd81612721565b600081526001600160a01b03611ad38786613aaa565b16610bda57611ae490868533613d79565b6000858152600d60209081526040808320805460ff891660ff1991821681179092556001600160a01b038816808652600e8552838620838752855283862080549092166001179091558452600f835281842090845290915290208590558151611d09575b50506018546001600160a01b031680611cb7575b50838360405160ff851681527f6e79522d33e3590933a0f11623ebc984abab3d341dd3e9b88e4e2503b15d9ab6602060018060a01b03861692a3611bc2575b602083600080516020613fc983398151915282604051838152a16001600b55604051908152f35b83849060ff60155460a01c16611c1c575b849392600080516020613fa98339815191529260809260209860ff604051971687528987015260018060a01b03166040860152606085015260018060a01b031692a38280611b9b565b505033845260166020526040842054602460a0600180821b036014541660405192838092633fcbfaff60e21b82528a60048301525afa908115611cac5792600080516020613fa9833981519152928760809388979660209a91611c89575b50935097509250929350611bd3565b611ca2915060a03d60a011610a8d57610a7b818361273c565b505050508a611c7a565b6040513d88823e3d90fd5b803b156102b857604051631c9ffc5d60e21b81526001600160a01b038316600482015260248101859052906000908290604490829084905af115611b5c57611d0091945061270e565b60009284611b5c565b84600052601060205260406000209180519182116102a257611d2f82610b22855461285f565b602090601f8311600114611d7457611d5f929160009183611d695750508160011b916000199060031b1c19161790565b90555b8480611b48565b015190508880610b44565b9190836000526020600020906000935b601f1984168510611dc5576001945083601f19811610611dac575b505050811b019055611d62565b015160001960f88460031b161c19169055878080611d9f565b81810151835560209485019460019093019290910190611d84565b6012546001600160a01b03169085821515806120e8575b806120d4575b1561209657336000526016602052604060002054928315612052576020602491604051928380926331a9108f60e11b82528860048301525afa908115610dcd57600091612018575b50336001600160a01b0390911603611fd45760018060a01b036013541660405193611e6f85612721565b600085526040519485916331259cff60e01b835260848301906004840152608060248401528151809152602060a4840192019060005b818110611fb2575050509181806040946000888301526000606483015203915afa908115610dcd57600091611f69575b506064925060ff8060145460a01c16911610611f28577814d0950e881c995c5d595cdd12185cda081c995c5d5a5c9959603a1b6040519162461bcd60e51b83526020600484015260196024840152820152fd5b7f5342543a2072657075746174696f6e2062656c6f77207468726573686f6c64006040519162461bcd60e51b835260206004840152601f6024840152820152fd5b90506040833d604011611faa575b81611f846040938361273c565b810103126102b8578251908116036102b857611fa460206064930161329d565b83611ed5565b3d9150611f77565b82516001600160a01b0316845288945060209384019390920191600101611ea5565b60405162461bcd60e51b815260206004820152601b60248201527f5342543a206167656e744964206f776e6572206d69736d61746368000000000081840152606490fd5b90506020813d60201161204a575b816120336020938361273c565b810103126102b85761204490613289565b84611e45565b3d9150612026565b60405162461bcd60e51b815260206004820152601b60248201527f5342543a20697373756572206167656e744964206e6f7420736574000000000081850152606490fd5b60405162461bcd60e51b815260206004820152601760248201527614d0950e881c9959da5cdd1c9a595cc81b9bdd081cd95d604a1b81840152606490fd5b506014546001600160a01b03161515611dfd565b506013546001600160a01b03161515611df7565b606490745342543a20616c726561647920686173207479706560581b6040519162461bcd60e51b83526020600484015260156024840152820152fd5b606490735342543a20746f207a65726f206164647265737360601b6040519162461bcd60e51b83526020600484015260146024840152820152fd5b346102b85760403660031901126102b85760206112d26121916125bc565b60243590612bf3565b346102b85760003660031901126102b857602060ff60155460a01c166040519015158152f35b346102b85760003660031901126102b857602060ff60145460a01c16604051908152f35b346102b8576106e16121f5366126d9565b916128ef565b346102b85760003660031901126102b8576020600854604051908152f35b346102b85760003660031901126102b8576012546040516001600160a01b039091168152602090f35b346102b85760803660031901126102b8576001600160401b036004358181116102b857612273903690600401612630565b9161227c612660565b906044358181116102b857612295903690600401612670565b9290916064359081116102b8576122b0903690600401612630565b6122bb93919361323a565b6122c3613266565b8615158061236b575b15612336576122da87612899565b9660005b8181106122f8576001600b556040518061029e8b8261269d565b8061232561230c610810600194868d6128cb565b61231783878b6128cb565b35908861047d368d8b612778565b61232f828c612835565b52016122de565b60405162461bcd60e51b815260206004820152600d60248201526c5342543a20626164206172677360981b6044820152606490fd5b508087146122cc565b346102b85760403660031901126102b85761238d6125bc565b5060405162461bcd60e51b815260206004820152601560248201527414d0950e88185c1c1c9bdd9948191a5cd8589b1959605a1b6044820152606490fd5b346102b85760203660031901126102b8576004356123e8816131ff565b506000526004602052602060018060a01b0360406000205416604051908152f35b346102b85760003660031901126102b85760405160008054908261242c8361285f565b918282526020936001908560018216918260001461110957505060011461245a57506110989250038361273c565b6000808052859250907f290decd9548b62a8d60345a988386fc84ba6bc95484008f6362f93160ef3e5635b85831061249c57505061109893508201018561108b565b80548389018501528794508693909201918101612485565b346102b8576020806003193601126102b8576124ce6125bc565b6124d781612cdd565b6124e08161281e565b906124ee604051928361273c565b8082526124fa8161281e565b8285019390601f190136853760005b8281106125575750505090604051928392818401908285525180915260408401929160005b82811061253d57505050500390f35b835160ff168552869550938101939281019260010161252e565b8061256460019284612bf3565b600052600d875260ff6040600020541661257e8287612835565b5201612509565b346102b85760203660031901126102b857600435906001600160e01b0319821682036102b8576125b66020926127af565b15158152f35b600435906001600160a01b03821682036102b857565b602435906001600160a01b03821682036102b857565b60005b8381106125fb5750506000910152565b81810151838201526020016125eb565b90602091612624815180928185528580860191016125e8565b601f01601f1916010190565b9181601f840112156102b8578235916001600160401b0383116102b8576020808501948460051b0101116102b857565b6024359060ff821682036102b857565b9181601f840112156102b8578235916001600160401b0383116102b857602083818601950101116102b857565b602090602060408183019282815285518094520193019160005b8281106126c5575050505090565b8351855293810193928101926001016126b7565b60609060031901126102b8576001600160a01b039060043582811681036102b8579160243590811681036102b8579060443590565b6001600160401b0381116102a257604052565b602081019081106001600160401b038211176102a257604052565b90601f801991011681019081106001600160401b038211176102a257604052565b6001600160401b0381116102a257601f01601f191660200190565b9291926127848261275d565b91612792604051938461273c565b8294818452818301116102b8578281602093846000960137010152565b6001600160e01b031916635a2d1e0760e11b81146128185763780e9d6360e01b81149081156127dc575090565b6380ac58cd60e01b811491508115612807575b81156127f9575090565b6301ffc9a760e01b14905090565b635b5e139f60e01b811491506127ef565b50600190565b6001600160401b0381116102a25760051b60200190565b80518210156128495760209160051b010190565b634e487b7160e01b600052603260045260246000fd5b90600182811c9216801561288f575b602083101461287957565b634e487b7160e01b600052602260045260246000fd5b91607f169161286e565b906128a38261281e565b6128b0604051918261273c565b82815280926128c1601f199161281e565b0190602036910137565b91908110156128495760051b0190565b356001600160a01b03811681036102b85790565b6001600160a01b0382811693918415612bda5760009483865260209560028752604096848883205416151580612bd2575b612b9657858252600281528488832054169633151580612b08575b5087158015612ad9575b84845260038352898420805460010190558784526002835289842080546001600160a01b0319168617905587858a7fddf252ad1be2c89b69c2b068fc378daa952ba7f163c4a11628f55a4df523b3ef8780a415612a6d5760085487845260098352808a852055600160401b811015612a5957876115a58260016129cb9401600855612c53565b838803612a07575b5050505016928383036129e65750505050565b6064945051926364283d7b60e01b8452600484015260248301526044820152fd5b612a1090612cdd565b600019810193908411612a455782916007918a94526006815283832085845281528784842055878352522055388080806129d3565b634e487b7160e01b83526011600452602483fd5b634e487b7160e01b84526041600452602484fd5b8784146129cb57612a7d88612cdd565b878452600783528984205490898552600684528a852091818103612ab7575b5088855260078452848b8120558452825282898120556129cb565b8186528285528b862054818752808d8820558652600785528b86205538612a9c565b8784526004835289842080546001600160a01b0319169055888452600383528984208054600019019055612945565b80612b55575b15612b19573861293b565b888789612b36576024915190637e27328960e01b82526004820152fd5b905163177e802f60e01b81523360048201526024810191909152604490fd5b503388148015612b7a575b80612b0e57508683526004825233868a8520541614612b0e565b5087835260058252888320338452825260ff8984205416612b60565b60649088519062461bcd60e51b82526004820152601660248201527514d0950e881d1c985b9cd9995c88191a5cd8589b195960521b6044820152fd5b506001612920565b604051633250574960e11b815260006004820152602490fd5b612bfc81612cdd565b821015612c285760018060a01b0316600052600660205260406000209060005260205260406000205490565b60405163295f44f760e21b81526001600160a01b039190911660048201526024810191909152604490fd5b6008548110156128495760086000527ff3f7a9fe364faab93b216da50a3214154f22a0a2b415b23a84c8169e8b636ee30190600090565b818110612c95575050565b60008155600101612c8a565b9190601f8111612cb057505050565b612cdb926000526020600020906020601f840160051c830193106114a257601f0160051c0190612c8a565b565b6001600160a01b03168015612cfd57600052600360205260406000205490565b6040516322718ad960e21b815260006004820152602490fd5b15612d1d57565b606460405162461bcd60e51b815260206004820152602060248201527f5342543a20717565727920666f72206e6f6e6578697374656e7420746f6b656e6044820152fd5b60008181526002602090815260408083205490939192906001600160a01b03908116156131af57601854168183826130c6575b905250601083528381208451815493918184612daf8761285f565b928383526001978989821691826000146130a6575050600114613068575b50612dda9250038261273c565b805161305f5750612dea816131ff565b50845160115490938385612dfd8461285f565b9182825288820194898582169182600014613044575050600114612fe9575b612e289250038661273c565b845115612fd25782839185947a184f03e93ff9f4daa797ed6e38ed64bf6a1f0100000000000000009081811015612fc5575b5050876d04ee2d6d415b85acef810000000080851015612fb7575b5050662386f26fc1000080841015612fa8575b506305f5e10080841015612f99575b5061271080841015612f8a575b506064831015612f7a575b600a80931015612f71575b9081602186612ee3838d9901612edb612ed28261275d565b9a519a8b61273c565b808a5261275d565b888c019990601f1901368b3750870101905b612f3b575b5050505090612f2c612f3895949392612f1d9751978895518092888801906125e8565b840191518093868401906125e8565b0103808452018261273c565b90565b600019019083906f181899199a1a9b1b9c1cb0b131b232b360811b8282061a835304918215612f6c57919082612ef5565b612efa565b80940193612eba565b9391606460029104920193612eaf565b60049195930492019338612ea4565b60089195930492019338612e97565b60109195930492019338612e88565b950194909204918738612e75565b8a96500492503880612e5a565b505050929150505190612fe482612721565b815290565b505060118552858786847f31ecc21a745e3968a04e9570e4425bc18fa8019c68028196b546d1669c200c685b85831061302b575050612e289350820101612e1c565b80919294505483858c0101520191018890848993613015565b60ff19168752612e2894151560051b8401019150612e1c9050565b94505050505090565b915050845281868086208787915b85831061308d575050612dda935082010138612dcd565b8091929450548385880101520191018790878593613076565b60ff191685820152612dda95151560051b8501019250389150612dcd9050565b613107926130d3826131ff565b88516304ea9aab60e51b81526001600160a01b03909116600482015260248101929092529092839190829081906044820190565b03915afa82918161312f575b50613120575b8183612d94565b80511561311957935050505090565b9091503d8084833e613141818361273c565b81019085818303126131ab578051906001600160401b0382116131a7570181601f820112156131ab578051906131768261275d565b926131838951948561273c565b8284528783830101116131a757906131a0918780850191016125e8565b9038613113565b8480fd5b8380fd5b845162461bcd60e51b8152600481018590526024808201527f5342543a2055524920717565727920666f72206e6f6e6578697374656e74207460448201526337b5b2b760e11b6064820152608490fd5b6000818152600260205260409020546001600160a01b0316908115613222575090565b60249060405190637e27328960e01b82526004820152fd5b600a546001600160a01b0316330361324e57565b60405163118cdaa760e01b8152336004820152602490fd5b6002600b5414613277576002600b55565b604051633ee5aeb560e01b8152600490fd5b51906001600160a01b03821682036102b857565b519060ff821682036102b857565b908160a09103126102b8576132bf81613289565b916020820151916132d26040820161329d565b916080606083015192015190565b9193926001600160a01b03831691906000908315610f6357838252600e6020526040822060ff8416835260205260ff604083205416610f265760155460ff8160a01c166136b9575b506001600c54019485600c55859760405161334281612721565b8481526001600160a01b036133578985613aaa565b166136a05761336890888433613d79565b868452600d6020526040842060ff199060ff871682825416179055868552600e6020526040852060ff8716865260205260016040862091825416179055858452600f6020526040842060ff8616855260205286604085205580516135b9575b5081151590816135a6575b6018546001600160a01b0316908161354e575b505085857f6e79522d33e3590933a0f11623ebc984abab3d341dd3e9b88e4e2503b15d9ab6602060405160ff89168152a361343a575b505050506020600080516020613fc983398151915291604051908152a1565b81908260ff60155460a01c1661349d575b5060808694600080516020613fc9833981519152979460209794600080516020613fa98339815191529460ff604051941684528984015260018060a01b031660408301526060820152a391388061341b565b925090503382526016602052604082205491602460a0600180821b036014541660405192838092633fcbfaff60e21b82528760048301525afa918215613542579487959460209794600080516020613fa983398151915294608094600080516020613fc98339815191529b989161351f575b509598509350945094965061344b565b613538915060a03d60a011610a8d57610a7b818361273c565b505050503861350f565b604051903d90823e3d90fd5b813b156131a757604051631c9ffc5d60e21b81526001600160a01b03919091166004820152602481018890529084908290604490829084905af1613593575b806133e5565b61359f9093919361270e565b913861358d565b86845260176020528260408520556133d2565b868452601060205260408420908051906001600160401b03821161368c576135e582610b22855461285f565b602090601f831160011461362857613614929187918361361d5750508160011b916000199060031b1c19161790565b90555b386133c7565b015190503880610b44565b838752602087209190601f198416885b818110613674575090846001959493921061365b575b505050811b019055613617565b015160001960f88460031b161c1916905538808061364e565b92936020600181928786015181550195019301613638565b634e487b7160e01b86526041600452602486fd5b6040516339e3563760e11b815260048101869052602490fd5b6012546001600160a01b031680151580613a96575b80613a82575b15610ebf5733845260166020526040842054908115610e7a576020602491604051928380926331a9108f60e11b82528660048301525afa908115613a77578591613a3d575b50336001600160a01b0390911603610dfb5760018060a01b0360135416906040519261374484612721565b858452604051916331259cff60e01b835260848301816004850152608060248501528551809152602060a48501960190885b818110613a1e57505050604083604495898783015281806064998c8b83015203915afa928315613a135787936139bf575b506014549260ff808560a01c1691161061397b57851561393b5760405160016234050160e21b03198152600481018790529260a0846024816001600160a01b0385165afa91821561393057889489908a94613906575b50036138c35760ff809160a81c16911610613880576001600160a01b0316908161382a575b505050613328565b6001600160a01b03160361383f578080613822565b7f5342543a2076616c696461746f72206d69736d617463680000000000000000006040519162461bcd60e51b83526020600484015260176024840152820152fd5b50507f5342543a2076616c69646174696f6e206e6f74207061737365640000000000006040519162461bcd60e51b835260206004840152601a6024840152820152fd5b60405162461bcd60e51b815260206004820152601e60248201527f5342543a2076616c69646174696f6e206167656e74206d69736d617463680000818701528690fd5b9195505061392491925060a03d60a011610a8d57610a7b818361273c565b505092919490386137fd565b6040513d8a823e3d90fd5b5050507814d0950e881c995c5d595cdd12185cda081c995c5d5a5c9959603a1b6040519162461bcd60e51b83526020600484015260196024840152820152fd5b5050507f5342543a2072657075746174696f6e2062656c6f77207468726573686f6c64006040519162461bcd60e51b835260206004840152601f6024840152820152fd5b9092506040813d604011613a0b575b816139db6040938361273c565b81010312613a075780516001600160401b03811603613a07576020613a00910161329d565b91386137a7565b8680fd5b3d91506139ce565b6040513d89823e3d90fd5b82516001600160a01b0316885260209788019790920191600101613776565b90506020813d602011613a6f575b81613a586020938361273c565b810103126131a757613a6990613289565b38613719565b3d9150613a4b565b6040513d87823e3d90fd5b506014546001600160a01b031615156136d4565b506013546001600160a01b031615156136ce565b9060008181526020916002835260018060a01b0390604091808385205416151580613d6e575b613d315781845260028552808385205416958615918215613d05575b8116918215908115613cef575b8487526002885285872080546001600160a01b0319168517905584848a7fddf252ad1be2c89b69c2b068fc378daa952ba7f163c4a11628f55a4df523b3ef8a80a415613c8357600854848752600988528086882055600160401b811015613c6f57846115a5826001613b6e9401600855612c53565b15613c0657505060085460001994858201918211613bf25790600983928695948652818152613ba08587205493612c53565b90549060031b1c613bb4816115a586612c53565b865252828420558252812055600854908115613bde575001613bd861162882612c53565b60085590565b634e487b7160e01b81526031600452602490fd5b634e487b7160e01b85526011600452602485fd5b81879693929695949503613c1e575b50505050505090565b613c2790612cdd565b600019810195908611613c5b5783526006825283832085845282528383208190558252600790522055388080808080613c15565b634e487b7160e01b84526011600452602484fd5b634e487b7160e01b87526041600452602487fd5b878314613b6e57613c9388612cdd565b8487526007885285872054908988526006895286882091818103613ccd575b50858852600789528787812055875287528585812055613b6e565b818952828a5287892054818a5280898b2055895260078a528789205538613cb2565b8387526003885285872060018154019055613af9565b6004875284862080546001600160a01b0319169055878652600387528486208054600019019055613aec565b825162461bcd60e51b815260048101869052601660248201527514d0950e881d1c985b9cd9995c88191a5cd8589b195960521b6044820152606490fd5b508086161515613ad0565b90929192803b613d8a575b50505050565b90613dd99293949160018060a01b038091169460405191630a85bd0160e11b9384845216600483015260009687602484015260448301526080606483015281806020968793608483019061260b565b038189895af1869181613e7d575b50613e48575050503d600014613e3f573d613e018161275d565b90613e0f604051928361273c565b81528093823d92013e5b82519283613e3a57604051633250574960e11b815260048101849052602490fd5b019050fd5b60609250613e19565b919450915063ffffffff60e01b1603613e65575038808080613d84565b60249060405190633250574960e11b82526004820152fd5b9091508481813d8311613eb6575b613e95818361273c565b81010312613a0757516001600160e01b031981168103613a07579038613de7565b503d613e8b565b90939192833b613ecf575b5050505050565b604051630a85bd0160e11b8082526001600160a01b039384166004830152958316602482015260448101919091526080606482015294921692602092918590613f1c90608483019061260b565b039483816000978189895af1869181613f68575b50613f4a575050503d600014613e3f573d613e018161275d565b919450915063ffffffff60e01b1603613e6557503880808080613ec8565b9091508481813d8311613fa1575b613f80818361273c565b81010312613a0757516001600160e01b031981168103613a07579038613f30565b503d613f7656fe9e09537d8825edea7e44281de62247d4db0a74167276adc64d7dc5fff8bdb26d032bc66be43dbccb7487781d168eb7bda224628a3b2c3388bdf69b532a3a1611a26469706673582212205f727f1595c9350220558c6a2b0331d1662523ddee0ec72b33d193af4db56fda64736f6c63430008180033",
  "linkReferences": {},
  "deployedLinkReferences": {}
}