{
  "_format": "hh3-artifact-1",
  "contractName": "ERC20Factory",
  "sourceName": "contracts/ERC20Factory.sol",
  "abi": [
    {
      "anonymous": false,
      "inputs": [
        {
          "indexed": true,
          "internalType": "address",
          "name": "tokenAddress",
          "type": "address"
        },
        {
          "indexed": false,
          "internalType": "string",
          "name": "name",
          "type": "string"
        },
        {
          "indexed": false,
          "internalType": "string",
          "name": "symbol",
          "type": "string"
        }
      ],
      "name": "TokenCreated",
      "type": "event"
    },
    {
      "inputs": [
        {
          "internalType": "string",
          "name": "name",
          "type": "string"
        },
        {
          "internalType": "string",
          "name": "symbol",
          "type": "string"
        },
        {
          "internalType": "uint8",
          "name": "decimals",
          "type": "uint8"
        },
        {
          "internalType": "uint256",
          "name": "initialSupply",
          "type": "uint256"
        },
        {
          "internalType": "address",
          "name": "initialHolder",
          "type": "address"
        }
      ],
      "name": "createERC20",
      "outputs": [
        {
          "internalType": "address",
          "name": "",
          "type": "address"
        }
      ],
      "stateMutability": "nonpayable",
      "type": "function"
    }
  ],
  "bytecode": "0x6080604052348015600e575f5ffd5b5061112c8061001c5f395ff3fe608060405234801561000f575f5ffd5b5060043610610029575f3560e01c8063a10808a61461002d575b5f5ffd5b61004061003b366004610192565b61005c565b6040516001600160a01b03909116815260200160405180910390f35b5f5f868686868660405161006f906100e6565b61007d959493929190610264565b604051809103905ff080158015610096573d5f5f3e3d5ffd5b509050806001600160a01b03167fffc04f682c7b287e4b552dacd4b833d7c33dc0549cd6da84388408e4830c056288886040516100d49291906102b2565b60405180910390a29695505050505050565b610e17806102e083390190565b634e487b7160e01b5f52604160045260245ffd5b5f82601f830112610116575f5ffd5b813567ffffffffffffffff811115610130576101306100f3565b604051601f8201601f19908116603f0116810167ffffffffffffffff8111828210171561015f5761015f6100f3565b604052818152838201602001851015610176575f5ffd5b816020850160208301375f918101602001919091529392505050565b5f5f5f5f5f60a086880312156101a6575f5ffd5b853567ffffffffffffffff8111156101bc575f5ffd5b6101c888828901610107565b955050602086013567ffffffffffffffff8111156101e4575f5ffd5b6101f088828901610107565b945050604086013560ff81168114610206575f5ffd5b92506060860135915060808601356001600160a01b0381168114610228575f5ffd5b809150509295509295909350565b5f81518084528060208401602086015e5f602082860101526020601f19601f83011685010191505092915050565b60a081525f61027660a0830188610236565b82810360208401526102888188610236565b60ff969096166040840152505060608101929092526001600160a01b031660809091015292915050565b604081525f6102c46040830185610236565b82810360208401526102d68185610236565b9594505050505056fe608060405234801561000f575f5ffd5b50604051610e17380380610e1783398101604081905261002e916102fd565b338585600361003d8382610426565b50600461004a8282610426565b5050506001600160a01b03811661007b57604051631e4fbdf760e01b81525f60048201526024015b60405180910390fd5b610084816100b1565b506005805460ff60a01b1916600160a01b60ff8616021790556100a78183610102565b5050505050610505565b600580546001600160a01b038381166001600160a01b0319831681179093556040519116919082907f8be0079c531659141344cd1fd0a4f28419497f9722a3daafe3b4186f6b6457e0905f90a35050565b6001600160a01b03821661012b5760405163ec442f0560e01b81525f6004820152602401610072565b6101365f838361013a565b5050565b6001600160a01b038316610164578060025f82825461015991906104e0565b909155506101d49050565b6001600160a01b0383165f90815260208190526040902054818110156101b65760405163391434e360e21b81526001600160a01b03851660048201526024810182905260448101839052606401610072565b6001600160a01b0384165f9081526020819052604090209082900390555b6001600160a01b0382166101f05760028054829003905561020e565b6001600160a01b0382165f9081526020819052604090208054820190555b816001600160a01b0316836001600160a01b03167fddf252ad1be2c89b69c2b068fc378daa952ba7f163c4a11628f55a4df523b3ef8360405161025391815260200190565b60405180910390a3505050565b634e487b7160e01b5f52604160045260245ffd5b5f82601f830112610283575f5ffd5b81516001600160401b0381111561029c5761029c610260565b604051601f8201601f19908116603f011681016001600160401b03811182821017156102ca576102ca610260565b6040528181528382016020018510156102e1575f5ffd5b8160208501602083015e5f918101602001919091529392505050565b5f5f5f5f5f60a08688031215610311575f5ffd5b85516001600160401b03811115610326575f5ffd5b61033288828901610274565b602088015190965090506001600160401b0381111561034f575f5ffd5b61035b88828901610274565b945050604086015160ff81168114610371575f5ffd5b6060870151608088015191945092506001600160a01b0381168114610394575f5ffd5b809150509295509295909350565b600181811c908216806103b657607f821691505b6020821081036103d457634e487b7160e01b5f52602260045260245ffd5b50919050565b601f82111561042157805f5260205f20601f840160051c810160208510156103ff5750805b601f840160051c820191505b8181101561041e575f815560010161040b565b50505b505050565b81516001600160401b0381111561043f5761043f610260565b6104538161044d84546103a2565b846103da565b6020601f821160018114610485575f831561046e5750848201515b5f19600385901b1c1916600184901b17845561041e565b5f84815260208120601f198516915b828110156104b45787850151825560209485019460019092019101610494565b50848210156104d157868401515f19600387901b60f8161c191681555b50505050600190811b01905550565b808201808211156104ff57634e487b7160e01b5f52601160045260245ffd5b92915050565b610905806105125f395ff3fe608060405234801561000f575f5ffd5b50600436106100e5575f3560e01c8063715018a6116100885780639dc29fac116100635780639dc29fac146101d6578063a9059cbb146101e9578063dd62ed3e146101fc578063f2fde38b14610234575f5ffd5b8063715018a6146101ab5780638da5cb5b146101b357806395d89b41146101ce575f5ffd5b806323b872dd116100c357806323b872dd1461013c578063313ce5671461014f57806340c10f191461016e57806370a0823114610183575f5ffd5b806306fdde03146100e9578063095ea7b31461010757806318160ddd1461012a575b5f5ffd5b6100f1610247565b6040516100fe9190610775565b60405180910390f35b61011a6101153660046107c5565b6102d7565b60405190151581526020016100fe565b6002545b6040519081526020016100fe565b61011a61014a3660046107ed565b6102f0565b600554600160a01b900460ff1660405160ff90911681526020016100fe565b61018161017c3660046107c5565b610313565b005b61012e610191366004610827565b6001600160a01b03165f9081526020819052604090205490565b610181610329565b6005546040516001600160a01b0390911681526020016100fe565b6100f161033c565b6101816101e43660046107c5565b61034b565b61011a6101f73660046107c5565b61035d565b61012e61020a366004610847565b6001600160a01b039182165f90815260016020908152604080832093909416825291909152205490565b610181610242366004610827565b61036a565b60606003805461025690610878565b80601f016020809104026020016040519081016040528092919081815260200182805461028290610878565b80156102cd5780601f106102a4576101008083540402835291602001916102cd565b820191905f5260205f20905b8154815290600101906020018083116102b057829003601f168201915b5050505050905090565b5f336102e48185856103ac565b60019150505b92915050565b5f336102fd8582856103be565b61030885858561043a565b506001949350505050565b61031b610497565b61032582826104c4565b5050565b610331610497565b61033a5f6104f8565b565b60606004805461025690610878565b610353610497565b6103258282610549565b5f336102e481858561043a565b610372610497565b6001600160a01b0381166103a057604051631e4fbdf760e01b81525f60048201526024015b60405180910390fd5b6103a9816104f8565b50565b6103b9838383600161057d565b505050565b6001600160a01b038381165f908152600160209081526040808320938616835292905220545f19811015610434578181101561042657604051637dc7a0d960e11b81526001600160a01b03841660048201526024810182905260448101839052606401610397565b61043484848484035f61057d565b50505050565b6001600160a01b03831661046357604051634b637e8f60e11b81525f6004820152602401610397565b6001600160a01b03821661048c5760405163ec442f0560e01b81525f6004820152602401610397565b6103b983838361064f565b6005546001600160a01b0316331461033a5760405163118cdaa760e01b8152336004820152602401610397565b6001600160a01b0382166104ed5760405163ec442f0560e01b81525f6004820152602401610397565b6103255f838361064f565b600580546001600160a01b038381166001600160a01b0319831681179093556040519116919082907f8be0079c531659141344cd1fd0a4f28419497f9722a3daafe3b4186f6b6457e0905f90a35050565b6001600160a01b03821661057257604051634b637e8f60e11b81525f6004820152602401610397565b610325825f8361064f565b6001600160a01b0384166105a65760405163e602df0560e01b81525f6004820152602401610397565b6001600160a01b0383166105cf57604051634a1406b160e11b81525f6004820152602401610397565b6001600160a01b038085165f908152600160209081526040808320938716835292905220829055801561043457826001600160a01b0316846001600160a01b03167f8c5be1e5ebec7d5bd14f71427d1e84f3dd0314c0f7b2291e5b200ac8c7c3b9258460405161064191815260200190565b60405180910390a350505050565b6001600160a01b038316610679578060025f82825461066e91906108b0565b909155506106e99050565b6001600160a01b0383165f90815260208190526040902054818110156106cb5760405163391434e360e21b81526001600160a01b03851660048201526024810182905260448101839052606401610397565b6001600160a01b0384165f9081526020819052604090209082900390555b6001600160a01b03821661070557600280548290039055610723565b6001600160a01b0382165f9081526020819052604090208054820190555b816001600160a01b0316836001600160a01b03167fddf252ad1be2c89b69c2b068fc378daa952ba7f163c4a11628f55a4df523b3ef8360405161076891815260200190565b60405180910390a3505050565b602081525f82518060208401528060208501604085015e5f604082850101526040601f19601f83011684010191505092915050565b80356001600160a01b03811681146107c0575f5ffd5b919050565b5f5f604083850312156107d6575f5ffd5b6107df836107aa565b946020939093013593505050565b5f5f5f606084860312156107ff575f5ffd5b610808846107aa565b9250610816602085016107aa565b929592945050506040919091013590565b5f60208284031215610837575f5ffd5b610840826107aa565b9392505050565b5f5f60408385031215610858575f5ffd5b610861836107aa565b915061086f602084016107aa565b90509250929050565b600181811c9082168061088c57607f821691505b6020821081036108aa57634e487b7160e01b5f52602260045260245ffd5b50919050565b808201808211156102ea57634e487b7160e01b5f52601160045260245ffdfea26469706673582212207f4f401e11ff7cf24b3afbaba0904e67dec9985216881a0c6e4bdd7f5becbe2f64736f6c634300081c0033a264697066735822122018787632251e797ad2cf0511efe09fc929fe9c411f977801688565b1bcc53f1b64736f6c634300081c0033",
  "linkReferences": {},
  "deployedLinkReferences": {},
  "immutableReferences": {},
  "inputSourceName": "project/contracts/ERC20Factory.sol",
  "buildInfoId": "solc-0_8_28-2dc972d124b64b48e1580c488e612ae1a87e1453"
}