{
  "_format": "hh3-artifact-1",
  "contractName": "ERC721Factory",
  "sourceName": "contracts/ERC721Factory.sol",
  "abi": [
    {
      "anonymous": false,
      "inputs": [
        {
          "indexed": true,
          "internalType": "address",
          "name": "creator",
          "type": "address"
        },
        {
          "indexed": true,
          "internalType": "address",
          "name": "collection",
          "type": "address"
        },
        {
          "indexed": false,
          "internalType": "string",
          "name": "name",
          "type": "string"
        },
        {
          "indexed": false,
          "internalType": "string",
          "name": "symbol",
          "type": "string"
        }
      ],
      "name": "CollectionCreated",
      "type": "event"
    },
    {
      "inputs": [
        {
          "internalType": "string",
          "name": "name",
          "type": "string"
        },
        {
          "internalType": "string",
          "name": "symbol",
          "type": "string"
        },
        {
          "internalType": "string",
          "name": "baseURI",
          "type": "string"
        }
      ],
      "name": "createCollection",
      "outputs": [
        {
          "internalType": "address",
          "name": "",
          "type": "address"
        }
      ],
      "stateMutability": "nonpayable",
      "type": "function"
    },
    {
      "inputs": [
        {
          "internalType": "address",
          "name": "user",
          "type": "address"
        }
      ],
      "name": "getCollections",
      "outputs": [
        {
          "internalType": "address[]",
          "name": "",
          "type": "address[]"
        }
      ],
      "stateMutability": "view",
      "type": "function"
    },
    {
      "inputs": [
        {
          "internalType": "address",
          "name": "",
          "type": "address"
        },
        {
          "internalType": "uint256",
          "name": "",
          "type": "uint256"
        }
      ],
      "name": "userCollections",
      "outputs": [
        {
          "internalType": "address",
          "name": "",
          "type": "address"
        }
      ],
      "stateMutability": "view",
      "type": "function"
    }
  ],
  "bytecode": "0x6080604052348015600e575f5ffd5b5061190b8061001c5f395ff3fe608060405234801561000f575f5ffd5b506004361061003f575f3560e01c8063127f149814610043578063428a61711461006c578063ece86c2114610097575b5f5ffd5b61005661005136600461022f565b6100aa565b604051610063919061024f565b60405180910390f35b61007f61007a36600461029a565b61011b565b6040516001600160a01b039091168152602001610063565b61007f6100a5366004610361565b61014e565b6001600160a01b0381165f908152602081815260409182902080548351818402810184019094528084526060939283018282801561010f57602002820191905f5260205f20905b81546001600160a01b031681526001909101906020018083116100f1575b50505050509050919050565b5f602052815f5260405f208181548110610133575f80fd5b5f918252602090912001546001600160a01b03169150829050565b5f5f8484843360405161016090610207565b61016d949392919061041d565b604051809103905ff080158015610186573d5f5f3e3d5ffd5b50335f818152602081815260408083208054600181018255908452919092200180546001600160a01b0319166001600160a01b0385169081179091559051929350917f5fead977881b23a0dbf2f905699203f29cefea57a576d2d4f412523191258e84906101f7908990899061046f565b60405180910390a3949350505050565b6114398061049d83390190565b80356001600160a01b038116811461022a575f5ffd5b919050565b5f6020828403121561023f575f5ffd5b61024882610214565b9392505050565b602080825282518282018190525f918401906040840190835b8181101561028f5783516001600160a01b0316835260209384019390920191600101610268565b509095945050505050565b5f5f604083850312156102ab575f5ffd5b6102b483610214565b946020939093013593505050565b634e487b7160e01b5f52604160045260245ffd5b5f82601f8301126102e5575f5ffd5b813567ffffffffffffffff8111156102ff576102ff6102c2565b604051601f8201601f19908116603f0116810167ffffffffffffffff8111828210171561032e5761032e6102c2565b604052818152838201602001851015610345575f5ffd5b816020850160208301375f918101602001919091529392505050565b5f5f5f60608486031215610373575f5ffd5b833567ffffffffffffffff811115610389575f5ffd5b610395868287016102d6565b935050602084013567ffffffffffffffff8111156103b1575f5ffd5b6103bd868287016102d6565b925050604084013567ffffffffffffffff8111156103d9575f5ffd5b6103e5868287016102d6565b9150509250925092565b5f81518084528060208401602086015e5f602082860101526020601f19601f83011685010191505092915050565b608081525f61042f60808301876103ef565b828103602084015261044181876103ef565b9050828103604084015261045581866103ef565b91505060018060a01b038316606083015295945050505050565b604081525f61048160408301856103ef565b828103602084015261049381856103ef565b9594505050505056fe608060405234801561000f575f5ffd5b5060405161143938038061143983398101604081905261002e9161018c565b8084845f61003c83826102bf565b50600161004982826102bf565b5050506001600160a01b03811661007957604051631e4fbdf760e01b81525f600482015260240160405180910390fd5b6100828161009e565b50600761008f83826102bf565b50505f60085550610379915050565b600680546001600160a01b038381166001600160a01b0319831681179093556040519116919082907f8be0079c531659141344cd1fd0a4f28419497f9722a3daafe3b4186f6b6457e0905f90a35050565b634e487b7160e01b5f52604160045260245ffd5b5f82601f830112610112575f5ffd5b81516001600160401b0381111561012b5761012b6100ef565b604051601f8201601f19908116603f011681016001600160401b0381118282101715610159576101596100ef565b604052818152838201602001851015610170575f5ffd5b8160208501602083015e5f918101602001919091529392505050565b5f5f5f5f6080858703121561019f575f5ffd5b84516001600160401b038111156101b4575f5ffd5b6101c087828801610103565b602087015190955090506001600160401b038111156101dd575f5ffd5b6101e987828801610103565b604087015190945090506001600160401b03811115610206575f5ffd5b61021287828801610103565b606087015190935090506001600160a01b0381168114610230575f5ffd5b939692955090935050565b600181811c9082168061024f57607f821691505b60208210810361026d57634e487b7160e01b5f52602260045260245ffd5b50919050565b601f8211156102ba57805f5260205f20601f840160051c810160208510156102985750805b601f840160051c820191505b818110156102b7575f81556001016102a4565b50505b505050565b81516001600160401b038111156102d8576102d86100ef565b6102ec816102e6845461023b565b84610273565b6020601f82116001811461031e575f83156103075750848201515b5f19600385901b1c1916600184901b1784556102b7565b5f84815260208120601f198516915b8281101561034d578785015182556020948501946001909201910161032d565b508482101561036a57868401515f19600387901b60f8161c191681555b50505050600190811b01905550565b6110b3806103865f395ff3fe608060405234801561000f575f5ffd5b5060043610610111575f3560e01c8063715018a61161009e578063b88d4fde1161006e578063b88d4fde14610233578063c87b56dd14610246578063d082e38114610259578063e985e9c514610262578063f2fde38b14610275575f5ffd5b8063715018a6146101ff5780638da5cb5b1461020757806395d89b4114610218578063a22cb46514610220575f5ffd5b806323b872dd116100e457806323b872dd1461019257806342842e0e146101a55780636352211e146101b85780636a627842146101cb57806370a08231146101de575f5ffd5b806301ffc9a71461011557806306fdde031461013d578063081812fc14610152578063095ea7b31461017d575b5f5ffd5b610128610123366004610d3c565b610288565b60405190151581526020015b60405180910390f35b6101456102d9565b6040516101349190610d85565b610165610160366004610d97565b610368565b6040516001600160a01b039091168152602001610134565b61019061018b366004610dc9565b61038f565b005b6101906101a0366004610df1565b61039e565b6101906101b3366004610df1565b61042c565b6101656101c6366004610d97565b61044b565b6101906101d9366004610e2b565b610455565b6101f16101ec366004610e2b565b610480565b604051908152602001610134565b6101906104c5565b6006546001600160a01b0316610165565b6101456104d8565b61019061022e366004610e44565b6104e7565b610190610241366004610e91565b6104f2565b610145610254366004610d97565b61050a565b6101f160085481565b610128610270366004610f6e565b61056f565b610190610283366004610e2b565b61059c565b5f6001600160e01b031982166380ac58cd60e01b14806102b857506001600160e01b03198216635b5e139f60e01b145b806102d357506301ffc9a760e01b6001600160e01b03198316145b92915050565b60605f80546102e790610f9f565b80601f016020809104026020016040519081016040528092919081815260200182805461031390610f9f565b801561035e5780601f106103355761010080835404028352916020019161035e565b820191905f5260205f20905b81548152906001019060200180831161034157829003601f168201915b5050505050905090565b5f610372826105d9565b505f828152600460205260409020546001600160a01b03166102d3565b61039a828233610611565b5050565b6001600160a01b0382166103cc57604051633250574960e11b81525f60048201526024015b60405180910390fd5b5f6103d883833361061e565b9050836001600160a01b0316816001600160a01b031614610426576040516364283d7b60e01b81526001600160a01b03808616600483015260248201849052821660448201526064016103c3565b50505050565b61044683838360405180602001604052805f8152506104f2565b505050565b5f6102d3826105d9565b61045d610710565b6104698160085461073d565b60088054905f61047883610fd7565b919050555050565b5f6001600160a01b0382166104aa576040516322718ad960e21b81525f60048201526024016103c3565b506001600160a01b03165f9081526003602052604090205490565b6104cd610710565b6104d65f610756565b565b6060600180546102e790610f9f565b61039a3383836107a7565b6104fd84848461039e565b6104263385858585610845565b6060610515826105d9565b505f61051f61096d565b90505f81511161053d5760405180602001604052805f815250610568565b806105478461097c565b604051602001610558929190611012565b6040516020818303038152906040525b9392505050565b6001600160a01b039182165f90815260056020908152604080832093909416825291909152205460ff1690565b6105a4610710565b6001600160a01b0381166105cd57604051631e4fbdf760e01b81525f60048201526024016103c3565b6105d681610756565b50565b5f818152600260205260408120546001600160a01b0316806102d357604051637e27328960e01b8152600481018490526024016103c3565b6104468383836001610a0c565b5f828152600260205260408120546001600160a01b039081169083161561064a5761064a818486610b10565b6001600160a01b03811615610684576106655f855f5f610a0c565b6001600160a01b0381165f90815260036020526040902080545f190190555b6001600160a01b038516156106b2576001600160a01b0385165f908152600360205260409020805460010190555b5f8481526002602052604080822080546001600160a01b0319166001600160a01b0389811691821790925591518793918516917fddf252ad1be2c89b69c2b068fc378daa952ba7f163c4a11628f55a4df523b3ef91a4949350505050565b6006546001600160a01b031633146104d65760405163118cdaa760e01b81523360048201526024016103c3565b61039a828260405180602001604052805f815250610b74565b600680546001600160a01b038381166001600160a01b0319831681179093556040519116919082907f8be0079c531659141344cd1fd0a4f28419497f9722a3daafe3b4186f6b6457e0905f90a35050565b6001600160a01b0382166107d957604051630b61174360e31b81526001600160a01b03831660048201526024016103c3565b6001600160a01b038381165f81815260056020908152604080832094871680845294825291829020805460ff191686151590811790915591519182527f17307eab39ab6107e8899845ad3d59bd9653f200f220920489ca2b5937696c31910160405180910390a3505050565b6001600160a01b0383163b1561096657604051630a85bd0160e11b81526001600160a01b0384169063150b7a0290610887908890889087908790600401611026565b6020604051808303815f875af19250505080156108c1575060408051601f3d908101601f191682019092526108be91810190611062565b60015b610928573d8080156108ee576040519150601f19603f3d011682016040523d82523d5f602084013e6108f3565b606091505b5080515f0361092057604051633250574960e11b81526001600160a01b03851660048201526024016103c3565b805160208201fd5b6001600160e01b03198116630a85bd0160e11b1461096457604051633250574960e11b81526001600160a01b03851660048201526024016103c3565b505b5050505050565b6060600780546102e790610f9f565b60605f61098883610b8b565b60010190505f8167ffffffffffffffff8111156109a7576109a7610e7d565b6040519080825280601f01601f1916602001820160405280156109d1576020820181803683370190505b5090508181016020015b5f19016f181899199a1a9b1b9c1cb0b131b232b360811b600a86061a8153600a85049450846109db57509392505050565b8080610a2057506001600160a01b03821615155b15610ae1575f610a2f846105d9565b90506001600160a01b03831615801590610a5b5750826001600160a01b0316816001600160a01b031614155b8015610a6e5750610a6c818461056f565b155b15610a975760405163a9fbf51f60e01b81526001600160a01b03841660048201526024016103c3565b8115610adf5783856001600160a01b0316826001600160a01b03167f8c5be1e5ebec7d5bd14f71427d1e84f3dd0314c0f7b2291e5b200ac8c7c3b92560405160405180910390a45b505b50505f90815260046020526040902080546001600160a01b0319166001600160a01b0392909216919091179055565b610b1b838383610c62565b610446576001600160a01b038316610b4957604051637e27328960e01b8152600481018290526024016103c3565b60405163177e802f60e01b81526001600160a01b0383166004820152602481018290526044016103c3565b610b7e8383610cc6565b610446335f858585610845565b5f8072184f03e93ff9f4daa797ed6e38ed64bf6a1f0160401b8310610bc95772184f03e93ff9f4daa797ed6e38ed64bf6a1f0160401b830492506040015b6d04ee2d6d415b85acef81000000008310610bf5576d04ee2d6d415b85acef8100000000830492506020015b662386f26fc100008310610c1357662386f26fc10000830492506010015b6305f5e1008310610c2b576305f5e100830492506008015b6127108310610c3f57612710830492506004015b60648310610c51576064830492506002015b600a83106102d35760010192915050565b5f6001600160a01b03831615801590610cbe5750826001600160a01b0316846001600160a01b03161480610c9b5750610c9b848461056f565b80610cbe57505f828152600460205260409020546001600160a01b038481169116145b949350505050565b6001600160a01b038216610cef57604051633250574960e11b81525f60048201526024016103c3565b5f610cfb83835f61061e565b90506001600160a01b03811615610446576040516339e3563760e11b81525f60048201526024016103c3565b6001600160e01b0319811681146105d6575f5ffd5b5f60208284031215610d4c575f5ffd5b813561056881610d27565b5f81518084528060208401602086015e5f602082860101526020601f19601f83011685010191505092915050565b602081525f6105686020830184610d57565b5f60208284031215610da7575f5ffd5b5035919050565b80356001600160a01b0381168114610dc4575f5ffd5b919050565b5f5f60408385031215610dda575f5ffd5b610de383610dae565b946020939093013593505050565b5f5f5f60608486031215610e03575f5ffd5b610e0c84610dae565b9250610e1a60208501610dae565b929592945050506040919091013590565b5f60208284031215610e3b575f5ffd5b61056882610dae565b5f5f60408385031215610e55575f5ffd5b610e5e83610dae565b915060208301358015158114610e72575f5ffd5b809150509250929050565b634e487b7160e01b5f52604160045260245ffd5b5f5f5f5f60808587031215610ea4575f5ffd5b610ead85610dae565b9350610ebb60208601610dae565b925060408501359150606085013567ffffffffffffffff811115610edd575f5ffd5b8501601f81018713610eed575f5ffd5b803567ffffffffffffffff811115610f0757610f07610e7d565b604051601f8201601f19908116603f0116810167ffffffffffffffff81118282101715610f3657610f36610e7d565b604052818152828201602001891015610f4d575f5ffd5b816020840160208301375f6020838301015280935050505092959194509250565b5f5f60408385031215610f7f575f5ffd5b610f8883610dae565b9150610f9660208401610dae565b90509250929050565b600181811c90821680610fb357607f821691505b602082108103610fd157634e487b7160e01b5f52602260045260245ffd5b50919050565b5f60018201610ff457634e487b7160e01b5f52601160045260245ffd5b5060010190565b5f81518060208401855e5f93019283525090919050565b5f610cbe6110208386610ffb565b84610ffb565b6001600160a01b03858116825284166020820152604081018390526080606082018190525f9061105890830184610d57565b9695505050505050565b5f60208284031215611072575f5ffd5b815161056881610d2756fea26469706673582212206b251d630844f399547f9c8e6d0b2d7a54d07c3da22f2823562027977e4201ac64736f6c634300081c0033a264697066735822122014c5ae947b485ed85cc2d2b7c8bc50449109cdbae5b4202640870689b9fd638164736f6c634300081c0033",
  "linkReferences": {},
  "deployedLinkReferences": {},
  "immutableReferences": {},
  "inputSourceName": "project/contracts/ERC721Factory.sol",
  "buildInfoId": "solc-0_8_28-ee40398de14f4b26d234f47b4586a431d2d046c0"
}