{
  "_format": "hh-sol-artifact-1",
  "contractName": "AquaFluxCore",
  "sourceName": "contracts/core/AquaFluxCore.sol",
  "abi": [
    {
      "inputs": [],
      "stateMutability": "nonpayable",
      "type": "constructor"
    },
    {
      "inputs": [],
      "name": "AccessControlBadConfirmation",
      "type": "error"
    },
    {
      "inputs": [
        {
          "internalType": "address",
          "name": "account",
          "type": "address"
        },
        {
          "internalType": "bytes32",
          "name": "neededRole",
          "type": "bytes32"
        }
      ],
      "name": "AccessControlUnauthorizedAccount",
      "type": "error"
    },
    {
      "inputs": [
        {
          "internalType": "address",
          "name": "target",
          "type": "address"
        }
      ],
      "name": "AddressEmptyCode",
      "type": "error"
    },
    {
      "inputs": [
        {
          "internalType": "address",
          "name": "implementation",
          "type": "address"
        }
      ],
      "name": "ERC1967InvalidImplementation",
      "type": "error"
    },
    {
      "inputs": [],
      "name": "ERC1967NonPayable",
      "type": "error"
    },
    {
      "inputs": [],
      "name": "EnforcedPause",
      "type": "error"
    },
    {
      "inputs": [],
      "name": "ExpectedPause",
      "type": "error"
    },
    {
      "inputs": [],
      "name": "FailedCall",
      "type": "error"
    },
    {
      "inputs": [],
      "name": "InvalidInitialization",
      "type": "error"
    },
    {
      "inputs": [],
      "name": "NotInitializing",
      "type": "error"
    },
    {
      "inputs": [],
      "name": "ReentrancyGuardReentrantCall",
      "type": "error"
    },
    {
      "inputs": [
        {
          "internalType": "address",
          "name": "token",
          "type": "address"
        }
      ],
      "name": "SafeERC20FailedOperation",
      "type": "error"
    },
    {
      "inputs": [],
      "name": "UUPSUnauthorizedCallContext",
      "type": "error"
    },
    {
      "inputs": [
        {
          "internalType": "bytes32",
          "name": "slot",
          "type": "bytes32"
        }
      ],
      "name": "UUPSUnsupportedProxiableUUID",
      "type": "error"
    },
    {
      "anonymous": false,
      "inputs": [
        {
          "indexed": true,
          "internalType": "bytes32",
          "name": "assetId",
          "type": "bytes32"
        },
        {
          "indexed": true,
          "internalType": "address",
          "name": "user",
          "type": "address"
        },
        {
          "indexed": false,
          "internalType": "uint256",
          "name": "amount",
          "type": "uint256"
        }
      ],
      "name": "AssetMerged",
      "type": "event"
    },
    {
      "anonymous": false,
      "inputs": [
        {
          "indexed": true,
          "internalType": "bytes32",
          "name": "assetId",
          "type": "bytes32"
        },
        {
          "indexed": true,
          "internalType": "address",
          "name": "stoppedBy",
          "type": "address"
        }
      ],
      "name": "AssetOperationsStopped",
      "type": "event"
    },
    {
      "anonymous": false,
      "inputs": [
        {
          "indexed": true,
          "internalType": "bytes32",
          "name": "assetId",
          "type": "bytes32"
        },
        {
          "indexed": true,
          "internalType": "address",
          "name": "pausedBy",
          "type": "address"
        }
      ],
      "name": "AssetPaused",
      "type": "event"
    },
    {
      "anonymous": false,
      "inputs": [
        {
          "indexed": true,
          "internalType": "bytes32",
          "name": "assetId",
          "type": "bytes32"
        },
        {
          "indexed": true,
          "internalType": "address",
          "name": "issuer",
          "type": "address"
        },
        {
          "indexed": false,
          "internalType": "address",
          "name": "underlying",
          "type": "address"
        },
        {
          "indexed": false,
          "internalType": "uint256",
          "name": "maturity",
          "type": "uint256"
        },
        {
          "indexed": false,
          "internalType": "uint256",
          "name": "couponRate",
          "type": "uint256"
        },
        {
          "indexed": false,
          "internalType": "uint256",
          "name": "couponAllocationC",
          "type": "uint256"
        },
        {
          "indexed": false,
          "internalType": "uint256",
          "name": "couponAllocationS",
          "type": "uint256"
        },
        {
          "indexed": false,
          "internalType": "string",
          "name": "name",
          "type": "string"
        },
        {
          "indexed": false,
          "internalType": "string",
          "name": "metadataURI",
          "type": "string"
        }
      ],
      "name": "AssetRegistered",
      "type": "event"
    },
    {
      "anonymous": false,
      "inputs": [
        {
          "indexed": true,
          "internalType": "bytes32",
          "name": "assetId",
          "type": "bytes32"
        },
        {
          "indexed": true,
          "internalType": "address",
          "name": "user",
          "type": "address"
        },
        {
          "indexed": false,
          "internalType": "uint256",
          "name": "amount",
          "type": "uint256"
        }
      ],
      "name": "AssetSplit",
      "type": "event"
    },
    {
      "anonymous": false,
      "inputs": [
        {
          "indexed": true,
          "internalType": "bytes32",
          "name": "assetId",
          "type": "bytes32"
        },
        {
          "indexed": true,
          "internalType": "address",
          "name": "unpausedBy",
          "type": "address"
        }
      ],
      "name": "AssetUnpaused",
      "type": "event"
    },
    {
      "anonymous": false,
      "inputs": [
        {
          "indexed": true,
          "internalType": "bytes32",
          "name": "assetId",
          "type": "bytes32"
        },
        {
          "indexed": true,
          "internalType": "address",
          "name": "user",
          "type": "address"
        },
        {
          "indexed": false,
          "internalType": "uint256",
          "name": "amount",
          "type": "uint256"
        }
      ],
      "name": "AssetUnwrapped",
      "type": "event"
    },
    {
      "anonymous": false,
      "inputs": [
        {
          "indexed": true,
          "internalType": "bytes32",
          "name": "assetId",
          "type": "bytes32"
        }
      ],
      "name": "AssetVerified",
      "type": "event"
    },
    {
      "anonymous": false,
      "inputs": [
        {
          "indexed": true,
          "internalType": "bytes32",
          "name": "assetId",
          "type": "bytes32"
        },
        {
          "indexed": true,
          "internalType": "address",
          "name": "user",
          "type": "address"
        },
        {
          "indexed": false,
          "internalType": "uint256",
          "name": "amount",
          "type": "uint256"
        }
      ],
      "name": "AssetWrapped",
      "type": "event"
    },
    {
      "anonymous": false,
      "inputs": [
        {
          "indexed": true,
          "internalType": "bytes32",
          "name": "assetId",
          "type": "bytes32"
        },
        {
          "indexed": false,
          "internalType": "uint256",
          "name": "oldCAllocation",
          "type": "uint256"
        },
        {
          "indexed": false,
          "internalType": "uint256",
          "name": "oldSAllocation",
          "type": "uint256"
        },
        {
          "indexed": false,
          "internalType": "uint256",
          "name": "newCAllocation",
          "type": "uint256"
        },
        {
          "indexed": false,
          "internalType": "uint256",
          "name": "newSAllocation",
          "type": "uint256"
        },
        {
          "indexed": true,
          "internalType": "address",
          "name": "updatedBy",
          "type": "address"
        }
      ],
      "name": "CouponAllocationUpdated",
      "type": "event"
    },
    {
      "anonymous": false,
      "inputs": [
        {
          "indexed": true,
          "internalType": "bytes32",
          "name": "assetId",
          "type": "bytes32"
        },
        {
          "indexed": false,
          "internalType": "uint256",
          "name": "pAllocation",
          "type": "uint256"
        },
        {
          "indexed": false,
          "internalType": "uint256",
          "name": "cAllocation",
          "type": "uint256"
        },
        {
          "indexed": false,
          "internalType": "uint256",
          "name": "sAllocation",
          "type": "uint256"
        },
        {
          "indexed": false,
          "internalType": "uint256",
          "name": "protocolFeeReward",
          "type": "uint256"
        },
        {
          "indexed": true,
          "internalType": "address",
          "name": "setBy",
          "type": "address"
        }
      ],
      "name": "DistributionPlanSet",
      "type": "event"
    },
    {
      "anonymous": false,
      "inputs": [
        {
          "indexed": true,
          "internalType": "address",
          "name": "oldFactory",
          "type": "address"
        },
        {
          "indexed": true,
          "internalType": "address",
          "name": "newFactory",
          "type": "address"
        }
      ],
      "name": "FactoryChanged",
      "type": "event"
    },
    {
      "anonymous": false,
      "inputs": [
        {
          "indexed": true,
          "internalType": "bytes32",
          "name": "assetId",
          "type": "bytes32"
        },
        {
          "indexed": true,
          "internalType": "string",
          "name": "operation",
          "type": "string"
        },
        {
          "indexed": true,
          "internalType": "address",
          "name": "user",
          "type": "address"
        },
        {
          "indexed": false,
          "internalType": "uint256",
          "name": "operationAmount",
          "type": "uint256"
        },
        {
          "indexed": false,
          "internalType": "uint256",
          "name": "feeAmount",
          "type": "uint256"
        }
      ],
      "name": "FeeCollected",
      "type": "event"
    },
    {
      "anonymous": false,
      "inputs": [
        {
          "indexed": true,
          "internalType": "bytes32",
          "name": "assetId",
          "type": "bytes32"
        },
        {
          "indexed": true,
          "internalType": "address",
          "name": "withdrawnBy",
          "type": "address"
        },
        {
          "indexed": false,
          "internalType": "uint256",
          "name": "amount",
          "type": "uint256"
        }
      ],
      "name": "FundsWithdrawnForRedemption",
      "type": "event"
    },
    {
      "anonymous": false,
      "inputs": [
        {
          "indexed": true,
          "internalType": "string",
          "name": "operation",
          "type": "string"
        },
        {
          "indexed": false,
          "internalType": "uint256",
          "name": "oldFeeRate",
          "type": "uint256"
        },
        {
          "indexed": false,
          "internalType": "uint256",
          "name": "newFeeRate",
          "type": "uint256"
        },
        {
          "indexed": true,
          "internalType": "address",
          "name": "updatedBy",
          "type": "address"
        }
      ],
      "name": "GlobalFeeRateUpdated",
      "type": "event"
    },
    {
      "anonymous": false,
      "inputs": [
        {
          "indexed": false,
          "internalType": "uint64",
          "name": "version",
          "type": "uint64"
        }
      ],
      "name": "Initialized",
      "type": "event"
    },
    {
      "anonymous": false,
      "inputs": [
        {
          "indexed": true,
          "internalType": "bytes32",
          "name": "assetId",
          "type": "bytes32"
        },
        {
          "indexed": true,
          "internalType": "address",
          "name": "user",
          "type": "address"
        },
        {
          "indexed": true,
          "internalType": "address",
          "name": "tokenAddress",
          "type": "address"
        },
        {
          "indexed": false,
          "internalType": "uint256",
          "name": "tokenBalance",
          "type": "uint256"
        },
        {
          "indexed": false,
          "internalType": "uint256",
          "name": "rewardAmount",
          "type": "uint256"
        }
      ],
      "name": "MaturityRewardClaimed",
      "type": "event"
    },
    {
      "anonymous": false,
      "inputs": [
        {
          "indexed": true,
          "internalType": "bytes32",
          "name": "assetId",
          "type": "bytes32"
        },
        {
          "indexed": false,
          "internalType": "string",
          "name": "oldMetadataURI",
          "type": "string"
        },
        {
          "indexed": false,
          "internalType": "string",
          "name": "newMetadataURI",
          "type": "string"
        },
        {
          "indexed": true,
          "internalType": "address",
          "name": "updatedBy",
          "type": "address"
        }
      ],
      "name": "MetadataURIUpdated",
      "type": "event"
    },
    {
      "anonymous": false,
      "inputs": [
        {
          "indexed": true,
          "internalType": "bytes32",
          "name": "assetId",
          "type": "bytes32"
        },
        {
          "indexed": false,
          "internalType": "uint256",
          "name": "oldOperationDeadline",
          "type": "uint256"
        },
        {
          "indexed": false,
          "internalType": "uint256",
          "name": "newOperationDeadline",
          "type": "uint256"
        },
        {
          "indexed": true,
          "internalType": "address",
          "name": "updatedBy",
          "type": "address"
        }
      ],
      "name": "OperationDeadlineUpdated",
      "type": "event"
    },
    {
      "anonymous": false,
      "inputs": [
        {
          "indexed": false,
          "internalType": "address",
          "name": "account",
          "type": "address"
        }
      ],
      "name": "Paused",
      "type": "event"
    },
    {
      "anonymous": false,
      "inputs": [
        {
          "indexed": true,
          "internalType": "bytes32",
          "name": "assetId",
          "type": "bytes32"
        },
        {
          "indexed": true,
          "internalType": "address",
          "name": "to",
          "type": "address"
        },
        {
          "indexed": false,
          "internalType": "uint256",
          "name": "amount",
          "type": "uint256"
        },
        {
          "indexed": true,
          "internalType": "address",
          "name": "withdrawnBy",
          "type": "address"
        }
      ],
      "name": "ProtocolFeesWithdrawn",
      "type": "event"
    },
    {
      "anonymous": false,
      "inputs": [
        {
          "indexed": true,
          "internalType": "bytes32",
          "name": "assetId",
          "type": "bytes32"
        },
        {
          "indexed": true,
          "internalType": "address",
          "name": "injectedBy",
          "type": "address"
        },
        {
          "indexed": false,
          "internalType": "uint256",
          "name": "amount",
          "type": "uint256"
        }
      ],
      "name": "RedemptionRevenueInjected",
      "type": "event"
    },
    {
      "anonymous": false,
      "inputs": [
        {
          "indexed": true,
          "internalType": "bytes32",
          "name": "role",
          "type": "bytes32"
        },
        {
          "indexed": true,
          "internalType": "bytes32",
          "name": "previousAdminRole",
          "type": "bytes32"
        },
        {
          "indexed": true,
          "internalType": "bytes32",
          "name": "newAdminRole",
          "type": "bytes32"
        }
      ],
      "name": "RoleAdminChanged",
      "type": "event"
    },
    {
      "anonymous": false,
      "inputs": [
        {
          "indexed": true,
          "internalType": "bytes32",
          "name": "role",
          "type": "bytes32"
        },
        {
          "indexed": true,
          "internalType": "address",
          "name": "account",
          "type": "address"
        },
        {
          "indexed": true,
          "internalType": "address",
          "name": "sender",
          "type": "address"
        }
      ],
      "name": "RoleGranted",
      "type": "event"
    },
    {
      "anonymous": false,
      "inputs": [
        {
          "indexed": true,
          "internalType": "bytes32",
          "name": "role",
          "type": "bytes32"
        },
        {
          "indexed": true,
          "internalType": "address",
          "name": "account",
          "type": "address"
        },
        {
          "indexed": true,
          "internalType": "address",
          "name": "sender",
          "type": "address"
        }
      ],
      "name": "RoleRevoked",
      "type": "event"
    },
    {
      "anonymous": false,
      "inputs": [
        {
          "indexed": true,
          "internalType": "bytes32",
          "name": "assetId",
          "type": "bytes32"
        },
        {
          "indexed": false,
          "internalType": "uint256",
          "name": "oldSTokenFeeAllocation",
          "type": "uint256"
        },
        {
          "indexed": false,
          "internalType": "uint256",
          "name": "newSTokenFeeAllocation",
          "type": "uint256"
        },
        {
          "indexed": true,
          "internalType": "address",
          "name": "updatedBy",
          "type": "address"
        }
      ],
      "name": "STokenFeeAllocationUpdated",
      "type": "event"
    },
    {
      "anonymous": false,
      "inputs": [
        {
          "indexed": false,
          "internalType": "address",
          "name": "account",
          "type": "address"
        }
      ],
      "name": "Unpaused",
      "type": "event"
    },
    {
      "anonymous": false,
      "inputs": [
        {
          "indexed": true,
          "internalType": "address",
          "name": "implementation",
          "type": "address"
        }
      ],
      "name": "Upgraded",
      "type": "event"
    },
    {
      "inputs": [],
      "name": "ADMIN_ROLE",
      "outputs": [
        {
          "internalType": "bytes32",
          "name": "",
          "type": "bytes32"
        }
      ],
      "stateMutability": "view",
      "type": "function"
    },
    {
      "inputs": [],
      "name": "DEFAULT_ADMIN_ROLE",
      "outputs": [
        {
          "internalType": "bytes32",
          "name": "",
          "type": "bytes32"
        }
      ],
      "stateMutability": "view",
      "type": "function"
    },
    {
      "inputs": [],
      "name": "OPERATION_MERGE",
      "outputs": [
        {
          "internalType": "string",
          "name": "",
          "type": "string"
        }
      ],
      "stateMutability": "view",
      "type": "function"
    },
    {
      "inputs": [],
      "name": "OPERATION_REGISTER",
      "outputs": [
        {
          "internalType": "string",
          "name": "",
          "type": "string"
        }
      ],
      "stateMutability": "view",
      "type": "function"
    },
    {
      "inputs": [],
      "name": "OPERATION_SPLIT",
      "outputs": [
        {
          "internalType": "string",
          "name": "",
          "type": "string"
        }
      ],
      "stateMutability": "view",
      "type": "function"
    },
    {
      "inputs": [],
      "name": "OPERATION_UNWRAP",
      "outputs": [
        {
          "internalType": "string",
          "name": "",
          "type": "string"
        }
      ],
      "stateMutability": "view",
      "type": "function"
    },
    {
      "inputs": [],
      "name": "OPERATION_WRAP",
      "outputs": [
        {
          "internalType": "string",
          "name": "",
          "type": "string"
        }
      ],
      "stateMutability": "view",
      "type": "function"
    },
    {
      "inputs": [],
      "name": "OPERATOR_ROLE",
      "outputs": [
        {
          "internalType": "bytes32",
          "name": "",
          "type": "bytes32"
        }
      ],
      "stateMutability": "view",
      "type": "function"
    },
    {
      "inputs": [],
      "name": "UPGRADE_INTERFACE_VERSION",
      "outputs": [
        {
          "internalType": "string",
          "name": "",
          "type": "string"
        }
      ],
      "stateMutability": "view",
      "type": "function"
    },
    {
      "inputs": [],
      "name": "VERIFIER_ROLE",
      "outputs": [
        {
          "internalType": "bytes32",
          "name": "",
          "type": "bytes32"
        }
      ],
      "stateMutability": "view",
      "type": "function"
    },
    {
      "inputs": [
        {
          "internalType": "bytes32",
          "name": "",
          "type": "bytes32"
        }
      ],
      "name": "assetFeeBalances",
      "outputs": [
        {
          "internalType": "uint256",
          "name": "",
          "type": "uint256"
        }
      ],
      "stateMutability": "view",
      "type": "function"
    },
    {
      "inputs": [
        {
          "internalType": "bytes32",
          "name": "",
          "type": "bytes32"
        },
        {
          "internalType": "string",
          "name": "",
          "type": "string"
        }
      ],
      "name": "assetFeesByOperation",
      "outputs": [
        {
          "internalType": "uint256",
          "name": "",
          "type": "uint256"
        }
      ],
      "stateMutability": "view",
      "type": "function"
    },
    {
      "inputs": [
        {
          "internalType": "bytes32",
          "name": "",
          "type": "bytes32"
        }
      ],
      "name": "assetFeesCollected",
      "outputs": [
        {
          "internalType": "uint256",
          "name": "",
          "type": "uint256"
        }
      ],
      "stateMutability": "view",
      "type": "function"
    },
    {
      "inputs": [
        {
          "internalType": "bytes32",
          "name": "",
          "type": "bytes32"
        }
      ],
      "name": "assets",
      "outputs": [
        {
          "internalType": "address",
          "name": "issuer",
          "type": "address"
        },
        {
          "internalType": "address",
          "name": "underlying",
          "type": "address"
        },
        {
          "internalType": "uint256",
          "name": "maturity",
          "type": "uint256"
        },
        {
          "internalType": "uint256",
          "name": "operationDeadline",
          "type": "uint256"
        },
        {
          "internalType": "uint256",
          "name": "couponRate",
          "type": "uint256"
        },
        {
          "internalType": "uint256",
          "name": "couponAllocationC",
          "type": "uint256"
        },
        {
          "internalType": "uint256",
          "name": "couponAllocationS",
          "type": "uint256"
        },
        {
          "internalType": "uint256",
          "name": "sTokenFeeAllocation",
          "type": "uint256"
        },
        {
          "internalType": "string",
          "name": "name",
          "type": "string"
        },
        {
          "internalType": "string",
          "name": "metadataURI",
          "type": "string"
        },
        {
          "internalType": "bool",
          "name": "verified",
          "type": "bool"
        },
        {
          "internalType": "bool",
          "name": "paused",
          "type": "bool"
        },
        {
          "internalType": "address",
          "name": "aqToken",
          "type": "address"
        },
        {
          "internalType": "address",
          "name": "pToken",
          "type": "address"
        },
        {
          "internalType": "address",
          "name": "cToken",
          "type": "address"
        },
        {
          "internalType": "address",
          "name": "sToken",
          "type": "address"
        }
      ],
      "stateMutability": "view",
      "type": "function"
    },
    {
      "inputs": [
        {
          "internalType": "bytes32",
          "name": "assetId",
          "type": "bytes32"
        }
      ],
      "name": "claimAllMaturityRewards",
      "outputs": [],
      "stateMutability": "nonpayable",
      "type": "function"
    },
    {
      "inputs": [
        {
          "internalType": "bytes32",
          "name": "assetId",
          "type": "bytes32"
        },
        {
          "internalType": "address",
          "name": "tokenAddress",
          "type": "address"
        }
      ],
      "name": "claimMaturityReward",
      "outputs": [],
      "stateMutability": "nonpayable",
      "type": "function"
    },
    {
      "inputs": [
        {
          "internalType": "bytes32",
          "name": "",
          "type": "bytes32"
        }
      ],
      "name": "distributionPlans",
      "outputs": [
        {
          "internalType": "uint256",
          "name": "pTokenAllocation",
          "type": "uint256"
        },
        {
          "internalType": "uint256",
          "name": "cTokenAllocation",
          "type": "uint256"
        },
        {
          "internalType": "uint256",
          "name": "sTokenAllocation",
          "type": "uint256"
        },
        {
          "internalType": "uint256",
          "name": "protocolFeeReward",
          "type": "uint256"
        },
        {
          "internalType": "uint256",
          "name": "allocationTimestamp",
          "type": "uint256"
        }
      ],
      "stateMutability": "view",
      "type": "function"
    },
    {
      "inputs": [],
      "name": "factory",
      "outputs": [
        {
          "internalType": "contract ITokenFactory",
          "name": "",
          "type": "address"
        }
      ],
      "stateMutability": "view",
      "type": "function"
    },
    {
      "inputs": [
        {
          "internalType": "bytes32",
          "name": "assetId",
          "type": "bytes32"
        }
      ],
      "name": "getAssetFeeBalance",
      "outputs": [
        {
          "internalType": "uint256",
          "name": "balance",
          "type": "uint256"
        }
      ],
      "stateMutability": "view",
      "type": "function"
    },
    {
      "inputs": [
        {
          "internalType": "bytes32",
          "name": "assetId",
          "type": "bytes32"
        },
        {
          "internalType": "string",
          "name": "operation",
          "type": "string"
        }
      ],
      "name": "getAssetFeesByOperation",
      "outputs": [
        {
          "internalType": "uint256",
          "name": "fees",
          "type": "uint256"
        }
      ],
      "stateMutability": "view",
      "type": "function"
    },
    {
      "inputs": [
        {
          "internalType": "bytes32",
          "name": "assetId",
          "type": "bytes32"
        }
      ],
      "name": "getAssetFeesCollected",
      "outputs": [
        {
          "internalType": "uint256",
          "name": "totalFees",
          "type": "uint256"
        }
      ],
      "stateMutability": "view",
      "type": "function"
    },
    {
      "inputs": [
        {
          "internalType": "bytes32",
          "name": "assetId",
          "type": "bytes32"
        }
      ],
      "name": "getAssetInfo",
      "outputs": [
        {
          "components": [
            {
              "internalType": "address",
              "name": "issuer",
              "type": "address"
            },
            {
              "internalType": "address",
              "name": "underlying",
              "type": "address"
            },
            {
              "internalType": "uint256",
              "name": "maturity",
              "type": "uint256"
            },
            {
              "internalType": "uint256",
              "name": "operationDeadline",
              "type": "uint256"
            },
            {
              "internalType": "uint256",
              "name": "couponRate",
              "type": "uint256"
            },
            {
              "internalType": "uint256",
              "name": "couponAllocationC",
              "type": "uint256"
            },
            {
              "internalType": "uint256",
              "name": "couponAllocationS",
              "type": "uint256"
            },
            {
              "internalType": "uint256",
              "name": "sTokenFeeAllocation",
              "type": "uint256"
            },
            {
              "internalType": "string",
              "name": "name",
              "type": "string"
            },
            {
              "internalType": "string",
              "name": "metadataURI",
              "type": "string"
            },
            {
              "internalType": "bool",
              "name": "verified",
              "type": "bool"
            },
            {
              "internalType": "bool",
              "name": "paused",
              "type": "bool"
            },
            {
              "internalType": "address",
              "name": "aqToken",
              "type": "address"
            },
            {
              "internalType": "address",
              "name": "pToken",
              "type": "address"
            },
            {
              "internalType": "address",
              "name": "cToken",
              "type": "address"
            },
            {
              "internalType": "address",
              "name": "sToken",
              "type": "address"
            }
          ],
          "internalType": "struct IAquaFluxCore.AssetInfo",
          "name": "",
          "type": "tuple"
        }
      ],
      "stateMutability": "view",
      "type": "function"
    },
    {
      "inputs": [
        {
          "internalType": "bytes32",
          "name": "assetId",
          "type": "bytes32"
        }
      ],
      "name": "getAssetLifecycleState",
      "outputs": [
        {
          "internalType": "uint8",
          "name": "",
          "type": "uint8"
        }
      ],
      "stateMutability": "view",
      "type": "function"
    },
    {
      "inputs": [
        {
          "internalType": "bytes32",
          "name": "assetId",
          "type": "bytes32"
        },
        {
          "internalType": "address",
          "name": "user",
          "type": "address"
        },
        {
          "internalType": "address",
          "name": "tokenAddress",
          "type": "address"
        }
      ],
      "name": "getClaimableReward",
      "outputs": [
        {
          "internalType": "uint256",
          "name": "",
          "type": "uint256"
        }
      ],
      "stateMutability": "view",
      "type": "function"
    },
    {
      "inputs": [
        {
          "internalType": "string",
          "name": "operation",
          "type": "string"
        }
      ],
      "name": "getGlobalFeeRate",
      "outputs": [
        {
          "internalType": "uint256",
          "name": "feeRate",
          "type": "uint256"
        }
      ],
      "stateMutability": "view",
      "type": "function"
    },
    {
      "inputs": [
        {
          "internalType": "bytes32",
          "name": "role",
          "type": "bytes32"
        }
      ],
      "name": "getRoleAdmin",
      "outputs": [
        {
          "internalType": "bytes32",
          "name": "",
          "type": "bytes32"
        }
      ],
      "stateMutability": "view",
      "type": "function"
    },
    {
      "inputs": [
        {
          "internalType": "address",
          "name": "",
          "type": "address"
        }
      ],
      "name": "getTotalWithdrawableFeesForToken",
      "outputs": [
        {
          "internalType": "uint256",
          "name": "totalFees",
          "type": "uint256"
        }
      ],
      "stateMutability": "pure",
      "type": "function"
    },
    {
      "inputs": [
        {
          "internalType": "bytes32",
          "name": "assetId",
          "type": "bytes32"
        }
      ],
      "name": "getWithdrawableFees",
      "outputs": [
        {
          "internalType": "uint256",
          "name": "",
          "type": "uint256"
        }
      ],
      "stateMutability": "view",
      "type": "function"
    },
    {
      "inputs": [
        {
          "internalType": "string",
          "name": "",
          "type": "string"
        }
      ],
      "name": "globalFeeRates",
      "outputs": [
        {
          "internalType": "uint256",
          "name": "",
          "type": "uint256"
        }
      ],
      "stateMutability": "view",
      "type": "function"
    },
    {
      "inputs": [
        {
          "internalType": "bytes32",
          "name": "role",
          "type": "bytes32"
        },
        {
          "internalType": "address",
          "name": "account",
          "type": "address"
        }
      ],
      "name": "grantRole",
      "outputs": [],
      "stateMutability": "nonpayable",
      "type": "function"
    },
    {
      "inputs": [
        {
          "internalType": "bytes32",
          "name": "role",
          "type": "bytes32"
        },
        {
          "internalType": "address",
          "name": "account",
          "type": "address"
        }
      ],
      "name": "hasRole",
      "outputs": [
        {
          "internalType": "bool",
          "name": "",
          "type": "bool"
        }
      ],
      "stateMutability": "view",
      "type": "function"
    },
    {
      "inputs": [
        {
          "internalType": "address",
          "name": "_factory",
          "type": "address"
        },
        {
          "internalType": "address",
          "name": "admin",
          "type": "address"
        }
      ],
      "name": "initialize",
      "outputs": [],
      "stateMutability": "nonpayable",
      "type": "function"
    },
    {
      "inputs": [
        {
          "internalType": "bytes32",
          "name": "assetId",
          "type": "bytes32"
        },
        {
          "internalType": "uint256",
          "name": "amount",
          "type": "uint256"
        }
      ],
      "name": "injectRedemptionRevenue",
      "outputs": [],
      "stateMutability": "nonpayable",
      "type": "function"
    },
    {
      "inputs": [
        {
          "internalType": "bytes32",
          "name": "assetId",
          "type": "bytes32"
        }
      ],
      "name": "isAssetPaused",
      "outputs": [
        {
          "internalType": "bool",
          "name": "",
          "type": "bool"
        }
      ],
      "stateMutability": "view",
      "type": "function"
    },
    {
      "inputs": [
        {
          "internalType": "bytes32",
          "name": "assetId",
          "type": "bytes32"
        }
      ],
      "name": "isAssetRegistered",
      "outputs": [
        {
          "internalType": "bool",
          "name": "",
          "type": "bool"
        }
      ],
      "stateMutability": "view",
      "type": "function"
    },
    {
      "inputs": [
        {
          "internalType": "bytes32",
          "name": "assetId",
          "type": "bytes32"
        }
      ],
      "name": "isAssetVerified",
      "outputs": [
        {
          "internalType": "bool",
          "name": "",
          "type": "bool"
        }
      ],
      "stateMutability": "view",
      "type": "function"
    },
    {
      "inputs": [
        {
          "internalType": "bytes32",
          "name": "",
          "type": "bytes32"
        }
      ],
      "name": "maturityManagement",
      "outputs": [
        {
          "internalType": "bool",
          "name": "operationsStopped",
          "type": "bool"
        },
        {
          "internalType": "bool",
          "name": "fundsWithdrawn",
          "type": "bool"
        },
        {
          "internalType": "bool",
          "name": "revenueInjected",
          "type": "bool"
        },
        {
          "internalType": "bool",
          "name": "distributionSet",
          "type": "bool"
        },
        {
          "internalType": "uint256",
          "name": "withdrawnAmount",
          "type": "uint256"
        },
        {
          "internalType": "uint256",
          "name": "totalRevenueInjected",
          "type": "uint256"
        },
        {
          "internalType": "uint256",
          "name": "injectionTimestamp",
          "type": "uint256"
        }
      ],
      "stateMutability": "view",
      "type": "function"
    },
    {
      "inputs": [
        {
          "internalType": "bytes32",
          "name": "assetId",
          "type": "bytes32"
        },
        {
          "internalType": "uint256",
          "name": "amount",
          "type": "uint256"
        }
      ],
      "name": "merge",
      "outputs": [],
      "stateMutability": "nonpayable",
      "type": "function"
    },
    {
      "inputs": [],
      "name": "pause",
      "outputs": [],
      "stateMutability": "nonpayable",
      "type": "function"
    },
    {
      "inputs": [
        {
          "internalType": "bytes32",
          "name": "assetId",
          "type": "bytes32"
        }
      ],
      "name": "pauseAsset",
      "outputs": [],
      "stateMutability": "nonpayable",
      "type": "function"
    },
    {
      "inputs": [],
      "name": "paused",
      "outputs": [
        {
          "internalType": "bool",
          "name": "",
          "type": "bool"
        }
      ],
      "stateMutability": "view",
      "type": "function"
    },
    {
      "inputs": [],
      "name": "proxiableUUID",
      "outputs": [
        {
          "internalType": "bytes32",
          "name": "",
          "type": "bytes32"
        }
      ],
      "stateMutability": "view",
      "type": "function"
    },
    {
      "inputs": [
        {
          "internalType": "address",
          "name": "underlying",
          "type": "address"
        },
        {
          "internalType": "uint256",
          "name": "maturity",
          "type": "uint256"
        },
        {
          "internalType": "uint256",
          "name": "operationDeadline",
          "type": "uint256"
        },
        {
          "internalType": "uint256",
          "name": "couponRate",
          "type": "uint256"
        },
        {
          "internalType": "uint256",
          "name": "couponAllocationC",
          "type": "uint256"
        },
        {
          "internalType": "uint256",
          "name": "couponAllocationS",
          "type": "uint256"
        },
        {
          "internalType": "uint256",
          "name": "sTokenFeeAllocation",
          "type": "uint256"
        },
        {
          "internalType": "string",
          "name": "name",
          "type": "string"
        },
        {
          "internalType": "string",
          "name": "metadataURI",
          "type": "string"
        }
      ],
      "name": "register",
      "outputs": [
        {
          "internalType": "bytes32",
          "name": "assetId",
          "type": "bytes32"
        }
      ],
      "stateMutability": "nonpayable",
      "type": "function"
    },
    {
      "inputs": [
        {
          "internalType": "bytes32",
          "name": "role",
          "type": "bytes32"
        },
        {
          "internalType": "address",
          "name": "callerConfirmation",
          "type": "address"
        }
      ],
      "name": "renounceRole",
      "outputs": [],
      "stateMutability": "nonpayable",
      "type": "function"
    },
    {
      "inputs": [
        {
          "internalType": "bytes32",
          "name": "role",
          "type": "bytes32"
        },
        {
          "internalType": "address",
          "name": "account",
          "type": "address"
        }
      ],
      "name": "revokeRole",
      "outputs": [],
      "stateMutability": "nonpayable",
      "type": "function"
    },
    {
      "inputs": [
        {
          "internalType": "bytes32",
          "name": "assetId",
          "type": "bytes32"
        },
        {
          "internalType": "uint256",
          "name": "pAllocation",
          "type": "uint256"
        },
        {
          "internalType": "uint256",
          "name": "cAllocation",
          "type": "uint256"
        },
        {
          "internalType": "uint256",
          "name": "sAllocation",
          "type": "uint256"
        },
        {
          "internalType": "uint256",
          "name": "protocolFeeReward",
          "type": "uint256"
        }
      ],
      "name": "setDistributionPlan",
      "outputs": [],
      "stateMutability": "nonpayable",
      "type": "function"
    },
    {
      "inputs": [
        {
          "internalType": "address",
          "name": "newFactory",
          "type": "address"
        }
      ],
      "name": "setFactory",
      "outputs": [],
      "stateMutability": "nonpayable",
      "type": "function"
    },
    {
      "inputs": [
        {
          "internalType": "string",
          "name": "operation",
          "type": "string"
        },
        {
          "internalType": "uint256",
          "name": "feeRate",
          "type": "uint256"
        }
      ],
      "name": "setGlobalFeeRate",
      "outputs": [],
      "stateMutability": "nonpayable",
      "type": "function"
    },
    {
      "inputs": [
        {
          "internalType": "bytes32",
          "name": "assetId",
          "type": "bytes32"
        },
        {
          "internalType": "uint256",
          "name": "amount",
          "type": "uint256"
        }
      ],
      "name": "split",
      "outputs": [],
      "stateMutability": "nonpayable",
      "type": "function"
    },
    {
      "inputs": [
        {
          "internalType": "bytes32",
          "name": "assetId",
          "type": "bytes32"
        }
      ],
      "name": "stopAssetOperations",
      "outputs": [],
      "stateMutability": "nonpayable",
      "type": "function"
    },
    {
      "inputs": [
        {
          "internalType": "bytes4",
          "name": "interfaceId",
          "type": "bytes4"
        }
      ],
      "name": "supportsInterface",
      "outputs": [
        {
          "internalType": "bool",
          "name": "",
          "type": "bool"
        }
      ],
      "stateMutability": "view",
      "type": "function"
    },
    {
      "inputs": [],
      "name": "unpause",
      "outputs": [],
      "stateMutability": "nonpayable",
      "type": "function"
    },
    {
      "inputs": [
        {
          "internalType": "bytes32",
          "name": "assetId",
          "type": "bytes32"
        }
      ],
      "name": "unpauseAsset",
      "outputs": [],
      "stateMutability": "nonpayable",
      "type": "function"
    },
    {
      "inputs": [
        {
          "internalType": "bytes32",
          "name": "assetId",
          "type": "bytes32"
        },
        {
          "internalType": "uint256",
          "name": "amount",
          "type": "uint256"
        }
      ],
      "name": "unwrap",
      "outputs": [],
      "stateMutability": "nonpayable",
      "type": "function"
    },
    {
      "inputs": [
        {
          "internalType": "bytes32",
          "name": "assetId",
          "type": "bytes32"
        },
        {
          "internalType": "uint256",
          "name": "newCouponAllocationC",
          "type": "uint256"
        },
        {
          "internalType": "uint256",
          "name": "newCouponAllocationS",
          "type": "uint256"
        }
      ],
      "name": "updateCouponAllocation",
      "outputs": [],
      "stateMutability": "nonpayable",
      "type": "function"
    },
    {
      "inputs": [
        {
          "internalType": "bytes32",
          "name": "assetId",
          "type": "bytes32"
        },
        {
          "internalType": "string",
          "name": "newMetadataURI",
          "type": "string"
        }
      ],
      "name": "updateMetadataURI",
      "outputs": [],
      "stateMutability": "nonpayable",
      "type": "function"
    },
    {
      "inputs": [
        {
          "internalType": "bytes32",
          "name": "assetId",
          "type": "bytes32"
        },
        {
          "internalType": "uint256",
          "name": "newOperationDeadline",
          "type": "uint256"
        }
      ],
      "name": "updateOperationDeadline",
      "outputs": [],
      "stateMutability": "nonpayable",
      "type": "function"
    },
    {
      "inputs": [
        {
          "internalType": "bytes32",
          "name": "assetId",
          "type": "bytes32"
        },
        {
          "internalType": "uint256",
          "name": "newSTokenFeeAllocation",
          "type": "uint256"
        }
      ],
      "name": "updateSTokenFeeAllocation",
      "outputs": [],
      "stateMutability": "nonpayable",
      "type": "function"
    },
    {
      "inputs": [
        {
          "internalType": "address",
          "name": "newImplementation",
          "type": "address"
        },
        {
          "internalType": "bytes",
          "name": "data",
          "type": "bytes"
        }
      ],
      "name": "upgradeToAndCall",
      "outputs": [],
      "stateMutability": "payable",
      "type": "function"
    },
    {
      "inputs": [
        {
          "internalType": "bytes32",
          "name": "",
          "type": "bytes32"
        },
        {
          "internalType": "address",
          "name": "",
          "type": "address"
        },
        {
          "internalType": "address",
          "name": "",
          "type": "address"
        }
      ],
      "name": "userClaimed",
      "outputs": [
        {
          "internalType": "bool",
          "name": "",
          "type": "bool"
        }
      ],
      "stateMutability": "view",
      "type": "function"
    },
    {
      "inputs": [
        {
          "internalType": "bytes32",
          "name": "assetId",
          "type": "bytes32"
        }
      ],
      "name": "verify",
      "outputs": [],
      "stateMutability": "nonpayable",
      "type": "function"
    },
    {
      "inputs": [],
      "name": "version",
      "outputs": [
        {
          "internalType": "string",
          "name": "",
          "type": "string"
        }
      ],
      "stateMutability": "pure",
      "type": "function"
    },
    {
      "inputs": [
        {
          "internalType": "bytes32[]",
          "name": "assetIds",
          "type": "bytes32[]"
        },
        {
          "internalType": "address",
          "name": "to",
          "type": "address"
        }
      ],
      "name": "withdrawAllProtocolFees",
      "outputs": [],
      "stateMutability": "nonpayable",
      "type": "function"
    },
    {
      "inputs": [
        {
          "internalType": "bytes32",
          "name": "assetId",
          "type": "bytes32"
        },
        {
          "internalType": "uint256",
          "name": "amount",
          "type": "uint256"
        }
      ],
      "name": "withdrawForRedemption",
      "outputs": [],
      "stateMutability": "nonpayable",
      "type": "function"
    },
    {
      "inputs": [
        {
          "internalType": "bytes32",
          "name": "assetId",
          "type": "bytes32"
        },
        {
          "internalType": "address",
          "name": "to",
          "type": "address"
        },
        {
          "internalType": "uint256",
          "name": "amount",
          "type": "uint256"
        }
      ],
      "name": "withdrawProtocolFees",
      "outputs": [],
      "stateMutability": "nonpayable",
      "type": "function"
    },
    {
      "inputs": [
        {
          "internalType": "bytes32",
          "name": "assetId",
          "type": "bytes32"
        },
        {
          "internalType": "uint256",
          "name": "amount",
          "type": "uint256"
        }
      ],
      "name": "wrap",
      "outputs": [],
      "stateMutability": "nonpayable",
      "type": "function"
    }
  ],
  "bytecode": "0x60a08060405234620000d157306080527ff0c57e16840df040f15088dc2f81fe391c3923bec73e23a9662efc9c229c6a009081549060ff8260401c16620000c257506001600160401b036002600160401b0319828216016200007c575b604051615f7b9081620000d782396080518181816139bf0152613a780152f35b6001600160401b031990911681179091556040519081527fc7f505b2f371ae2175ee4913f4499e1f2633a7b5936321eed1cdaeb6115181d290602090a13880806200005c565b63f92ee8a960e01b8152600490fd5b600080fdfe608080604052600436101561001357600080fd5b600090813560e01c90816301ffc9a7146149b3575080630642f2d31461481957806309a1d0a0146147fd578063248a9ca3146147c35780632a7f1e0e146145025780632f2ff15d146144b7578063341b1f8c146143e157806334b588e41461438457806336568abe1461433c5780633dd56a9d146143205780633f1f4a32146142e55780633f4ba83a1461426d578063449b72fb14613ffe57806345158c7014613e14578063485cc95514613c725780634ee42b7a14613c565780634f1ef28614613a2957806352d1902d146139ac57806353420f811461397a5780635404957f1461381457806354fd4d50146137ce57806358c32ec11461377b5780635bb47808146136c95780635c975abb1461369957806360c5189e1461349f5780636bc565a51461348357806371dc97391461345357806371ec07b81461343157806375b238fc146133f657806375e36616146132bf5780637682caa314612f7657806378a3dc5014612f245780637a6631de14612da55780637bdb977d14612ccc5780638456cb5914612c645780638a3d510b14612c145780638a7b568214612b9b5780638d7be74614612af25780638de896361461250357806391d14854146124aa578063960a4d07146120415780639746701314611f6657806399c156fe14610a635780639a52d983146109975780639fda5b6614611e1d578063a217fddf14611e01578063a5d75fa414611ddb578063ad3cb1cc14611d91578063add785971461165f578063b04dce3a14611635578063b8d355c114610e69578063c1d8a72b14610d95578063c45a015514610d6e578063c763f19614610cdc578063c7d9044114610cb2578063cfdba8b514610adc578063d547741f14610a8d578063da42dd4f14610a63578063db6c35ca14610a0c578063e7705db6146109d1578063ed6fb6861461099c578063f19f3f2314610997578063f5b541a61461095c578063f616a549146105c7578063fefaad5d146103355763fff168a8146102f757600080fd5b34610332576020366003190112610332576004356000908152600560209081526040909120546001600160a01b031615156040519015158152f35b80fd5b503461033257602036600319011261033257806040916101e0835161035981614a5d565b82815282602082015282858201528260608201528260808201528260a08201528260c08201528260e082015260606101008201526060610120820152826101408201528261016082015282610180820152826101a0820152826101c082015201526004358152600560205220604051906103d282614a5d565b80546001600160a01b0390811683526001820154166020830152600281015460408301526003810154606083015260048101546080830152600581015460a0830152600681015460c0830152600781015460e083015261043460088201614d4c565b61010083015261044660098201614d4c565b610120830152600a81015460ff8116151561014084015260ff8160081c16151561016084015260018060a01b039060101c1661018083015260018060a01b03600b820154166101a083015260018060a01b03600c820154166101c0830152600d60018060a01b03910154166101e082015260405180916020825260018060a01b03815116602083015260018060a01b0360208201511660408301526040810151606083015260608101516080830152608081015160a083015260a081015160c083015260c081015160e083015260e081015161010083015261055661053e610100830151610200610120860152610220850190614b17565b610120830151848203601f1901610140860152614b17565b906101408101511515610160840152610160810151151561018084015260018060a01b03610180820151166101a084015260018060a01b036101a0820151166101c084015260018060a01b036101c0820151166101e08401526101e060018060a01b03910151166102008301520390f35b5034610332576105d636614c5a565b906105df615b23565b6105e7615b53565b80835260206005815261060760ff600a60408720015460081c16156152ea565b61061961061383615b7e565b15615336565b600082815260056020526040902054610641906001600160a01b03161515614df1565b614df1565b8184526005815261065b60ff600a60408720015416615382565b610666831515614e80565b8184526005815283604081206001810160018060a01b039081600a81835416946106af8a6106a561069f828d61069a614c70565b615c9b565b82614f18565b9730903390615acb565b019181835460101c1615610768575b50505460101c16803b15610764576040516340c10f1960e01b8152336004820152602481019290925282908290604490829084905af1801561075957610741575b50507fc21a6fac39a711b88e8a5010a27f3f35361791695b418e7b8583e4876cfe4737906040519384523393a36001600080516020615f268339815191525580f35b61074a90614a34565b6107555783386106ff565b8380fd5b6040513d84823e3d90fd5b8280fd5b5416604051906395d89b4160e01b918281528681600481855afa9283156109515787918294610935575b506107d16029604051809668020b8bab0a3363abc160bd1b8d8301526107c18d82519283918686019101614af4565b8101036009810187520185614a94565b60046040518094819382525afa91821561092a5787918793610902575b506108779061082a6023604051809662030b8960ed1b8783015261081a81518092898686019101614af4565b8101036003810187520185614a94565b8588541690888b61088960405197889687958694635cabed6d60e01b8652608060048701526002608487015261415160f01b60a4870152602486015260c0604486015260c4850190614b17565b83810360031901606485015290614b17565b03925af180156108f7576108c39186916108ca575b50825462010000600160b01b03191660109190911b62010000600160b01b0316178255565b81386106be565b6108ea9150873d89116108f0575b6108e28183614a94565b810190615563565b3861089e565b503d6108d8565b6040513d87823e3d90fd5b610877919350610923903d808a833e61091b8183614a94565b810190615505565b92906107ee565b6040513d88823e3d90fd5b61094a9194503d8084833e61091b8183614a94565b9238610792565b6040513d89823e3d90fd5b503461033257806003193601126103325760206040517f97667070c54ef182b0f5858b034beac1b6f3089aa2d3188bb1e8929f4fa9b9298152f35b614ce6565b50346103325760203660031901126103325760ff600a604060209360043581526005855220015460081c166040519015158152f35b503461033257806003193601126103325760206040517f0ce23c3e399818cfee81a7ab0880f714e53d7672b08df0fa62f2843416e1ea098152f35b503461033257602036600319011261033257604060a0916004358152600860205220805490600181015490600281015460046003830154920154926040519485526020850152604084015260608301526080820152f35b50346103325760203660031901126103325760406020916004358152600283522054604051908152f35b503461033257604036600319011261033257610ad8600435610aad614a08565b90808452600080516020615ee6833981519152602052610ad360016040862001546156cd565b615a48565b5080f35b503461033257610aeb36614c5a565b90610af4615671565b600081815260056020526040902054610b17906001600160a01b03161515614df1565b610b2081615b7e565b15610c6d5780835260206007815260ff604085205460081c16610c2957610b48831515614e80565b8184526005815260408085206001015490516370a0823160e01b815230600482015291906001600160a01b03168183602481845afa801561092a5785938791610bef575b5092610be391610bbf827fb17993bcb9dc8c0c5a1ad2908b586ed22f910059dd6edc5cddce81d1c18a4370961015614ecc565b8588526007845281600160408a2061010061ff001982541617815501553390615700565b6040519384523393a380f35b809450838092503d8311610c22575b610c088183614a94565b81010312610c1d579151849290610be3610b8c565b600080fd5b503d610bfe565b6064906040519062461bcd60e51b82526004820152601760248201527f46756e647320616c72656164792077697468647261776e0000000000000000006044820152fd5b60405162461bcd60e51b815260206004820152601a60248201527f4f7065726174696f6e73206e6f742073746f70706564207965740000000000006044820152606490fd5b50346103325760203660031901126103325760406020916004358152600483522054604051908152f35b503461033257610ceb36614c5a565b90610cf4615671565b600081815260056020526040902054610d17906001600160a01b03161515614df1565b610d25612710831115615616565b80835260056020526007604084200191808354935560405192835260208301527f36abea49256a65093e2465a3a55a77025866b8a52ff4ba2010d51ce3dfd167c460403393a380f35b5034610332578060031936011261033257546040516001600160a01b039091168152602090f35b503461033257602036600319011261033257600435610db2615671565b600081815260056020526040902054610dd5906001600160a01b03161515614df1565b808252600560205260ff600a60408420015460081c1615610e3157808252600560205260408220600a01805461ff001916905533907f02da00e8d98bc3b8b41e1186c37628eb282fad049d127685993989b62992a3d68380a380f35b60405162461bcd60e51b815260206004820152601060248201526f105cdcd95d081b9bdd081c185d5cd95960821b6044820152606490fd5b50346103325761012036600319011261033257610e84614a1e565b60e4356001600160401b03811161076457610ea3903690600401614bd9565b9190610104356001600160401b03811161163157610ec5903690600401614bd9565b9390926001600160a01b038116156115ec574260243511156115a757610eee4260443511615406565b610efd60243560443510615463565b61271080606435116115625780610f1b610f4b926084351115614f48565b610f298160a4351115614f94565b610f4181610f3b60a435608435614f3b565b14614fe0565b60c4351115615616565b81156115275784156114ea5760065460001981146114d65760018101600655610fee610128604051926001600160601b03198560601b166020850152602435603485015260443560548501526064356074850152608435609485015260a43560b485015260c43560d4850152858760f486013783898b818b8a85019260f4840190815237013360601b60f482015261010892838201520390810184520182614a94565b602081519101209461101586600052600560205260018060a01b0360406000205416151590565b6114915761102a86611025614ad0565b615bac565b5060405161103781614a5d565b3381526001600160a01b038316602082015260243560408201526044356060820152606435608082015260843560a082015260a43560c082015260c43560e0820152611084368587614b3c565b610100820152611095368388614b3c565b610120820152876101408201528761016082015287610180820152876101a0820152876101c0820152876101e082015286885260056020526040882060018060a01b038251166001600160601b0360a01b8254161781556001810160018060a01b036020840151166001600160601b0360a01b82541617905560408201516002820155606082015160038201556080820151600482015560a0820151600582015560c0820151600682015560e082015160078201556101008201518051906001600160401b0382116114135761117b826111726008860154614d12565b6008860161502b565b602090601f8311600114611427576111ab92918c9183611368575b50508160011b916000199060031b1c19161790565b60088201555b6101208201518051906001600160401b038211611413579060209a83926111ed836111e460098f9c9b9a99980154614d12565b6009870161502b565b8c91601f8411600114611373579361124a847fd77d133c282431ef38ba81990430955afdc75e376740c1251757ae485b1f88269b9c9561135d999895600d9561134d99926113685750508160011b916000199060031b1c19161790565b60098201555b610140830151600a820180546101608601516101808701516001600160b01b031990921660ff941515949094169390931792151560081b61ff00169290921760109290921b62010000600160b01b0316919091179055600b810160018060a01b036101a0850151166001600160601b0360a01b825416179055600c810160018060a01b036101c0850151166001600160601b0360a01b82541617905501906101e060018060a01b03910151166001600160601b0360a01b82541617905560405195869560018060a01b031686526024358c8701526064356040870152608435606087015260a435608087015260e060a087015260e0860191615081565b9083820360c08501523397615081565b0390a3604051908152f35b015190503880611196565b9060098594939b96950182528d8220915b601f19841681106113f9575092600183600d937fd77d133c282431ef38ba81990430955afdc75e376740c1251757ae485b1f88269c9d61135d9a999761134d9997601f198116106113e0575b505050811b016009820155611250565b015160001960f88460031b161c191690553880806113d0565b818c015183559a8e019a8d9a506001909201918e01611384565b634e487b7160e01b8b52604160045260248bfd5b600884018c5260208c209190601f1984168d5b8181106114795750908460019594939210611460575b505050811b0160088201556111b1565b015160001960f88460031b161c19169055388080611450565b9293602060018192878601518155019501930161143a565b60405162461bcd60e51b815260206004820152601860248201527f417373657420616c7265616479207265676973746572656400000000000000006044820152606490fd5b634e487b7160e01b87526011600452602487fd5b60405162461bcd60e51b815260206004820152601560248201527413595d1859185d1848155492481c995c5d5a5c9959605a1b6044820152606490fd5b60405162461bcd60e51b8152602060048201526013602482015272105cdcd95d081b985b59481c995c5d5a5c9959606a1b6044820152606490fd5b60405162461bcd60e51b815260206004820152601b60248201527f436f75706f6e2072617465206d757374206265203c3d203130302500000000006044820152606490fd5b60405162461bcd60e51b815260206004820152601e60248201527f4d61747572697479206d75737420626520696e207468652066757475726500006044820152606490fd5b60405162461bcd60e51b815260206004820152601860248201527f496e76616c696420756e6465726c79696e6720746f6b656e00000000000000006044820152606490fd5b8480fd5b5034610332576020366003190112610332576020611654600435615582565b60ff60405191168152f35b50346103325761166e36614c5a565b90611677615b23565b61167f615b53565b80835260206005815261169f60ff600a60408720015460081c16156152ea565b6116ab61061383615b7e565b6000828152600560205260409020546116ce906001600160a01b03161515614df1565b818452600581526116e860ff600a60408720015416615382565b6116f3831515614e80565b8184526005815260408420600a810180548692906001600160a01b03906117209060101c821615156153c3565b80611737611731898961069a614c90565b89614f18565b935460101c16803b1561163157604051632770a7eb60e21b8152336004820152602481018990529085908290604490829084905af19081156108f7578591611d7d575b5050600b8201918183541615611c02575b600c8101928284541615611a8a575b82600d83019281845416156118e8575b5090541692833b156118cb576040516340c10f1960e01b808252336004830152602482018790529490919087908390604490829084905af1801561095157849288916118cf575b50505416803b156118cb57604051848152336004820152602481018690529086908290604490829084905af190811561092a5786916118b7575b5050541691823b156107555760405191825233600483015260248201529082908290604490829084905af18015610759576118a3575b50507fc7989fb9f80bce884c1a106ac6cea9cf2c5fc92ab09afdf376c0af194bbe5a48906040519384523393a36001600080516020615f268339815191525580f35b6118ac90614a34565b610755578338611861565b6118c090614a34565b61163157843861182b565b8580fd5b6118db91929350614a34565b6118cb57829086386117f1565b600101541690604051916395d89b4160e01b8084528884600481855afa908115611a7f5761195460278c8c94611944988691611a65575b50604051988266029b0b332ba3c960cd1b8b9485015282519283918686019101614af4565b8101036007810188520186614a94565b60046040518094819382525afa928315611a5a57610877938a928a91611a40575b508b8a604051926119af602185605360f81b93848a83015261199f815180928c8686019101614af4565b8101036001810187520185614a94565b6119f48a83541694604051998a9788968795635cabed6d60e01b8752608060048801526001608488015260a4870152602486015260c0604486015260c4850190614b17565b03925af191821561095157849283918991611a23575b5084546001600160a01b031916911617835590386117aa565b611a3a91508a3d8c116108f0576108e28183614a94565b38611a0a565b611a5491503d808c833e61091b8183614a94565b38611975565b6040513d8a823e3d90fd5b611a7991503d8088833e61091b8183614a94565b3861191f565b6040513d8b823e3d90fd5b82600183015416604051906395d89b4160e01b8083528883600481855afa908115611a7f57611af760278c8c94611ae7978691611be8575b50604051978266021b7bab837b7160cd1b8a9485015282519283918686019101614af4565b8101036007810187520185614a94565b60046040518094819382525afa918215611a5a57610877928a928a91611bce575b508b8a60405192611b42602185604360f81b93848a83015261199f815180928c8686019101614af4565b611b878a8354169460405198899788968795635cabed6d60e01b8752608060048801526001608488015260a4870152602486015260c0604486015260c4850190614b17565b03925af180156109515784918891611bb1575b5085546001600160a01b031916911617845561179a565b611bc89150893d8b116108f0576108e28183614a94565b38611b9a565b611be291503d808c833e61091b8183614a94565b38611b18565b611bfc91503d8088833e61091b8183614a94565b38611ac2565b81600182015416604051906395d89b4160e01b8083528783600481855afa908115611a5a57611c72602a8b8b94611c62978691611d63575b506040519782690283934b731b4b830b6160b51b8a9485015282519283918686019101614af4565b810103600a810187520185614a94565b60046040518094819382525afa918215610951576108779289928991611d49575b508a8960405192611cbd602185600560fc1b93848a83015261199f815180928c8686019101614af4565b611d02898354169460405198899788968795635cabed6d60e01b8752608060048801526001608488015260a4870152602486015260c0604486015260c4850190614b17565b03925af1801561092a5783918791611d2c575b5084546001600160a01b031916911617835561178b565b611d439150883d8a116108f0576108e28183614a94565b38611d15565b611d5d91503d808b833e61091b8183614a94565b38611c93565b611d7791503d8088833e61091b8183614a94565b38611c3a565b611d8690614a34565b61075557833861177a565b5034610332578060031936011261033257611dd7604051611db181614a79565b60058152640352e302e360dc1b6020820152604051918291602083526020830190614b17565b0390f35b503461033257602036600319011261033257602090611df8614a1e565b50604051908152f35b5034610332578060031936011261033257602090604051908152f35b5034610332576020366003190112610332576004358152600560205260409020600160a01b60019003815416600160a01b6001900360018301541690600283015492600381015490600481015460058201549360068301549060078401549060088501611e8990614d4c565b91611e9660098701614d4c565b93600a87015498600160a01b60019003600b8901541696600160a01b60019003600c8a01541698600160a01b6001900390600d015416996040519d8e809e61020098825260208201526040015260608d015260808c015260a08b015260c08a015260e0890152806101008901528701611f0e91614b17565b868103610120880152611f2091614b17565b60ff8086161515610140880152600886901c16151561016087015260109490941c6001600160a01b03166101808601526101a08501526101c08401526101e08301520390f35b503461033257602036600319011261033257600435611f83615671565b600081815260056020526040902054611fa6906001600160a01b03161515614df1565b808252600560205260ff600a60408420015460081c1661200557808252600560205260408220600a01805461ff00191661010017905533907f5ac53fde0717faafa96cb842d1a6ceec7ef49f3b4f84c25b8041e726da342c068380a380f35b60405162461bcd60e51b8152602060048201526014602482015273105cdcd95d08185b1c9958591e481c185d5cd95960621b6044820152606490fd5b50346103325760403660031901126103325760043561205e614a08565b612066615b23565b600082815260056020526040902054612089906001600160a01b03161515614df1565b818352602091600783526120a660ff604086205460181c166154c2565b808452600983526040842033600052835260406000209260018060a01b038093169384600052815260ff604060002054166124745781855260058152604085209060088152604086209380600b84015416861494858015612465575b8015612456575b156124195786156123df57604051956370a0823160e01b9182885233600489015284886024818c5afa9788156123d4578a986123a5575b508715612367576040516318160ddd60e01b81529185836004818d5afa92831561235c578b9361232d575b5082156122f65788612192939261218d928d906000146122ab5750545b6150a2565b6150b5565b9384156122715760010183838254169260246040518095819382523060048301525afa8015611a7f5785928a9161223c575b50926121d58361220a951015614ecc565b868a526009855260408a2033600052855260406000208960005285526040600020600160ff1982541617905533915416615700565b604051938452830152600080516020615ec683398151915260403393a46001600080516020615f268339815191525580f35b809350858092503d831161226a575b6122558183614a94565b81010312610c1d5790518491906121d56121c4565b503d61224b565b60405162461bcd60e51b81526004810185905260126024820152714e6f2072657761726420746f20636c61696d60701b6044820152606490fd5b9087600c8b0154168d146000146122c7576001915001546150a2565b87600d8b0154168d146122db575b506150a2565b6122f091506003600282015491015490614f3b565b386122d5565b60405162461bcd60e51b815260048101879052600f60248201526e4e6f20746f74616c20737570706c7960881b6044820152606490fd5b9092508581813d8311612355575b6123458183614a94565b81010312610c1d5751913861216b565b503d61233b565b6040513d8d823e3d90fd5b60405162461bcd60e51b81526004810186905260166024820152752737903a37b5b2b739903a379031b630b4b6903337b960511b6044820152606490fd5b9097508481813d83116123cd575b6123bd8183614a94565b81010312610c1d57519638612140565b503d6123b3565b6040513d8c823e3d90fd5b60405162461bcd60e51b8152600481018490526012602482015271151bdad95b881b9bdd0819195c1b1bde595960721b6044820152606490fd5b60405162461bcd60e51b8152600481018490526015602482015274496e76616c696420746f6b656e206164647265737360581b6044820152606490fd5b5081600d850154168714612109565b5081600c850154168714612102565b6064906040519062461bcd60e51b82526004820152600f60248201526e105b1c9958591e4818db185a5b5959608a1b6044820152fd5b50346103325760403660031901126103325760406124c6614a08565b916004358152600080516020615ee6833981519152602052209060018060a01b0316600052602052602060ff604060002054166040519015158152f35b503461033257602080600319360112612aee57600435612521615b23565b600081815260056020526040902054612544906001600160a01b03161515614df1565b8083526007825261255e60ff604085205460181c166154c2565b80835260058252604080842060088452908420600b8201805486946001600160a01b039493929091851680151580612ac5575b612990575b5050600c83018481541680151580612964575b612819575b5050600d8301918483541691821515806127ed575b61269a575b50505050821561265f5760010154166040516370a0823160e01b81523060048201528381602481855afa9384156108f757859461262d575b505061261182612618941015614ecc565b3390615700565b6001600080516020615f268339815191525580f35b90809450813d8311612658575b6126448183614a94565b81010312610c1d5791519161261182612600565b503d61263a565b60405162461bcd60e51b81526004810185905260136024820152724e6f207265776172647320746f20636c61696d60681b6044820152606490fd5b6040516370a0823160e01b8152336004820152918883602481875afa9283156123d4578a936127be575b50826126d1575b506125c8565b6040516318160ddd60e01b81528981600481885afa90811561235c578b91612791575b5080612701575b506126cb565b61218d84612188846003600261271c97015491015490614f3b565b9283612729575b806126fb565b8382939495986127659289948d5260098c5260408d20336000528c526040600020906000528b526040600020600160ff19825416179055614f3b565b9654169260405192835287830152600080516020615ec683398151915260403393a43880808080612723565b90508981813d83116127b7575b6127a88183614a94565b81010312610c1d5751386126f4565b503d61279e565b9092508881813d83116127e6575b6127d68183614a94565b81010312610c1d575191386126c4565b503d6127cc565b508089526009885260408920336000528852604060002083600052885260ff60406000205416156125c3565b6040516370a0823160e01b81523360048201528881602481855afa9081156123d4578a91612937575b508061284f575b506125ae565b6040516318160ddd60e01b81528981600481865afa90811561235c578b9161290a575b508061287f575b50612849565b6128919061218d8360018901546150a2565b918a8a846128a1575b5050612879565b996128dc92604083600988999e8b8f999a97525220336000528d526040600020906000528c526040600020600160ff19825416179055614f3b565b975416916040519182528882015282600080516020615ec683398151915260403393a4388080808a8a61289a565b90508981813d8311612930575b6129218183614a94565b81010312610c1d575138612872565b503d612917565b90508881813d831161295d575b61294e8183614a94565b81010312610c1d575138612842565b503d612944565b508289526009885260408920336000528852604060002081600052885260ff60406000205416156125a9565b6040516370a0823160e01b81523360048201528881602481855afa9081156123d4578a91612a98575b50806129c6575b50612596565b6040516318160ddd60e01b81528981600481865afa90811561235c578b91612a6b575b50806129f6575b506129c0565b612a059061218d8388546150a2565b9182156129f0579091929750838a526009895260408a2033600052895260406000209060005288526040600020600160ff198254161790558582975416916040519182528882015282600080516020615ec683398151915260403393a4388080806129f0565b90508981813d8311612a91575b612a828183614a94565b81010312610c1d5751386129e9565b503d612a78565b90508881813d8311612abe575b612aaf8183614a94565b81010312610c1d5751386129b9565b503d612aa5565b506009885260408920336000528852604060002081600052885260ff6040600020541615612591565b5080fd5b503461033257612b0136614c5a565b90612b0a615671565b600081815260056020526040902054612b2d906001600160a01b03161515614df1565b612b38428311615406565b8083526005602052612b5260026040852001548310615463565b80835260056020526003604084200191808354935560405192835260208301527fd9b10f43435bf91ec0ef1576432597ebfd0a9556ffa38bebfaa165f244d9f0e660403393a380f35b503461033257602036600319011261033257604060e0916004358152600760205220805490600181015490600360028201549101549160ff6040519481811615158652818160081c1615156020870152818160101c161515604087015260181c1615156060850152608084015260a083015260c0820152f35b503461033257604090612c2636614cb1565b93918391935260096020522060018060a01b0380921660005260205260406000209116600052602052602060ff604060002054166040519015158152f35b5034610332578060031936011261033257612c7d615671565b612c85615b53565b600080516020615f06833981519152600160ff198254161790557f62e78cea01bee320cd4e420270b5ea74000d11b0c9f74754ebdbfc544b05a2586020604051338152a180f35b503461033257602036600319011261033257600435612ce9615671565b600081815260056020526040902054612d0c906001600160a01b03161515614df1565b808252600760205260ff604083205416612d6057808252600760205260408220805460ff1916600117905533907f456b9f6fbe35377469fc523d01f5e6710149c14cf1bff8b02d0dbaa71bff56098380a380f35b60405162461bcd60e51b815260206004820152601a60248201527f4f7065726174696f6e7320616c72656164792073746f707065640000000000006044820152606490fd5b503461033257612db436614c5a565b90612dbd615b23565b612dc5615b53565b8083526005602052612de460ff600a60408620015460081c16156152ea565b612df061061382615b7e565b600081815260056020526040902054612e13906001600160a01b03161515614df1565b8083526005602052612e2e60ff600a60408620015416615382565b612e39821515614e80565b808352600560205260408320600a810180546001600160a01b039290612e659060101c841615156153c3565b8583612e7d612e77888861069a614bb7565b88614f18565b935460101c16803b15612aee57604051632770a7eb60e21b8152336004820152602481018890529082908290604490829084905af1801561075957612f10575b5050612ecf9260013392015416615700565b6040519182527f023cfa59788a4c9837acb2ba9aa41117d01906864767ac2d893f4f1e5f6ad7db60203393a36001600080516020615f268339815191525580f35b612f1990614a34565b6118cb578538612ebd565b503461033257602036600319011261033257600435906001600160401b03821161033257602080612f583660048601614bd9565b91908260405193849283378101600181520301902054604051908152f35b503461033257612f8536614c5a565b612f90929192615b23565b612f98615b53565b82825260209260058452612fb960ff600a60408620015460081c16156152ea565b612fc561061382615b7e565b600081815260056020526040902054612fe8906001600160a01b03161515614df1565b8083526005845261300260ff600a60408620015416615382565b61300d821515614e80565b808352600584526040832093600a850160018060a01b0361303581835460101c1615156153c3565b600b870191818354161561328457600c880197828954161561324957600d01828154161561320e578261306e611731898961069a614c39565b945416803b1561320a57604051632770a7eb60e21b808252336004830152602482018a905292918a908290604490829084905af180156123d4576131f1575b5083899a9996979899541690813b156131ed57604051838152336004820152602481018b90529187908390604490829084905af1801561095157859288916131d4575b50505416803b156118cb576040519182523360048301526024820189905285908290604490829084905af19081156108f75785916131c0575b50505460101c16803b15610764576040516340c10f1960e01b8152336004820152602481019290925282908290604490829084905af18015610759576131ac575b50507fc235eba48e10a0582145ff7ee852044eb3bf1897d0fd7878cfe274e64716d46f906040519384523393a36001600080516020615f268339815191525580f35b6131b590614a34565b61075557833861316a565b6131c990614a34565b610755578338613129565b6131e091929350614a34565b6118cb57839086386130f0565b8680fd5b98613200859b9798999a614a34565b98979695996130ad565b8880fd5b60405162461bcd60e51b815260048101869052601360248201527214d51bdad95b881b9bdd0819195c1b1bde5959606a1b6044820152606490fd5b60405162461bcd60e51b815260048101869052601360248201527210d51bdad95b881b9bdd0819195c1b1bde5959606a1b6044820152606490fd5b60405162461bcd60e51b815260048101859052601360248201527214151bdad95b881b9bdd0819195c1b1bde5959606a1b6044820152606490fd5b503461033257602080600319360112612aee57600435907f0ce23c3e399818cfee81a7ab0880f714e53d7672b08df0fa62f2843416e1ea09808452600080516020615ee6833981519152825260408420338552825260ff604085205416156133d85750600082815260056020526040902054613345906001600160a01b03161515614df1565b8183526005815260ff600a6040852001541661339b578183526005905260408220600a01805460ff191660011790557f6a2e6b77dde91b70f9f741510d82ff84bb1d6f96d078f916cbafa293f21f6fa88280a280f35b6064906040519062461bcd60e51b825260048201526016602482015275105cdcd95d08185b1c9958591e481d995c9a599a595960521b6044820152fd5b6044906040519063e2517d3f60e01b82523360048301526024820152fd5b503461033257806003193601126103325760206040517fa49807205ce4d355092ef5a8a18f56e8913cf4a201fbe287825b095693c217758152f35b503461033257602061344b61344536614cb1565b916150d5565b604051908152f35b5034610332578060031936011261033257611dd761346f614c90565b604051918291602083526020830190614b17565b5034610332578060031936011261033257611dd761346f614c70565b5034610332576134ae36614c06565b6134b9929192615671565b6000828152600560205260409020546134dc906001600160a01b03161515614df1565b8015613654578184526020906005602052600960408620016134fd81614d4c565b926001600160401b038311613640576135208361351a8454614d12565b8461502b565b8690601f84116001146135b15750827f1629c6efdf7ca7328c8ba14007d5bda3ff0807d0f03510e39ad224ca667e9ba2949261357982613590966135a0958c916135a6575b508160011b916000199060031b1c19161790565b90555b604051938493604085526040850190614b17565b9083820360208501523397615081565b0390a380f35b90508a013538613565565b90601f198416838952602089209289905b828210613628575050926135a0928592613590967f1629c6efdf7ca7328c8ba14007d5bda3ff0807d0f03510e39ad224ca667e9ba298961061360e575b5050600182811b01905561357c565b890135600019600385901b60f8161c1916905538806135ff565b80600185968294968d013581550195019301906135c2565b634e487b7160e01b87526041600452602487fd5b60405162461bcd60e51b815260206004820152601c60248201527f4d65746164617461205552492063616e6e6f7420626520656d707479000000006044820152606490fd5b5034610332578060031936011261033257602060ff600080516020615f0683398151915254166040519015158152f35b5034610332576020366003190112610332576136e3614a1e565b6136eb615671565b6001600160a01b039081169081156137365782546001600160a01b0319811683178455167ff36cf3b7f3187ed5217f19ea5137ed68a98983b4d678c78eb886fc378d2c13cf8380a380f35b60405162461bcd60e51b815260206004820152601760248201527f496e76616c696420666163746f727920616464726573730000000000000000006044820152606490fd5b5034610332576040366003190112610332576024356001600160401b038111612aee5760209160406137b46137c5933690600401614b73565b916004358152600385522090614b91565b54604051908152f35b5034610332578060031936011261033257611dd76040516137ee81614a79565b60058152640312e302e360dc1b6020820152604051918291602083526020830190614b17565b50346103325761382336614c5a565b9061382c615671565b60008181526005602052604090205461384f906001600160a01b03161515614df1565b80835260206007815260ff604085205460081c1615613936578184526007815260ff604085205460101c166138f2577f8d8f6dc24c442e6a580dfb7e36c3e5c08f77f38b29042da643782ab3f0834a6f906138ab841515614e80565b82855260058152610be38460018060a01b0360016040892001541660078452604088206201000062ff00001982541617815582600282015560034291015530903390615acb565b6064906040519062461bcd60e51b82526004820152601860248201527f526576656e756520616c726561647920696e6a656374656400000000000000006044820152fd5b6064906040519062461bcd60e51b82526004820152601760248201527f46756e6473206e6f742077697468647261776e207965740000000000000000006044820152fd5b50346103325760203660031901126103325760ff600a6040602093600435815260058552200154166040519015158152f35b50346103325780600319360112610332577f00000000000000000000000000000000000000000000000000000000000000006001600160a01b03163003613a175760206040517f360894a13ba1a3210667c828492db98dca3e2076cc3735a920a3ca505d382bbc8152f35b60405163703e46dd60e11b8152600490fd5b50604036600319011261033257613a3e614a1e565b6024356001600160401b038111610764573660238201121561076457613a6e903690602481600401359101614b3c565b6001600160a01b037f00000000000000000000000000000000000000000000000000000000000000008116308114908115613c28575b50613a1757613ab1615671565b6040516352d1902d60e01b8152908316926020918281600481885afa869181613bf9575b50613af357604051634c9c8ce360e01b815260048101869052602490fd5b9385947f360894a13ba1a3210667c828492db98dca3e2076cc3735a920a3ca505d382bbc90818103613be15750823b15613bc85780546001600160a01b0319168217905560405185917fbc7cd75a20ee27fd9adebab32041f755214dbc6bffa90cc0225b39da2e5c2d3b8380a2845115613bab5750808484610ad896519101845af4903d15613ba2573d613b8681614ab5565b90613b946040519283614a94565b81528581943d92013e615e42565b60609250615e42565b935050505034613bb9575080f35b63b398979f60e01b8152600490fd5b604051634c9c8ce360e01b815260048101839052602490fd5b60249060405190632a87526960e21b82526004820152fd5b9091508381813d8311613c21575b613c118183614a94565b810103126131ed57519038613ad5565b503d613c07565b9050817f360894a13ba1a3210667c828492db98dca3e2076cc3735a920a3ca505d382bbc5416141538613aa4565b5034610332578060031936011261033257611dd761346f614c39565b503461033257604036600319011261033257613c8c614a1e565b613c94614a08565b907ff0c57e16840df040f15088dc2f81fe391c3923bec73e23a9662efc9c229c6a009182549060ff8260401c1615926001600160401b03831680159081613e0c575b6001149081613e02575b159081613df9575b50613de75767ffffffffffffffff1983166001178555613d819284613dc8575b50613d11615e01565b613d19615e01565b613d21615e01565b6001600080516020615f2683398151915255613d3b615e01565b613d43615e01565b85546001600160a01b0319166001600160a01b0391909116178555613d6781615741565b50613d71816157cf565b50613d7b8161587f565b50615929565b50613d8a575080f35b68ff00000000000000001981541690557fc7f505b2f371ae2175ee4913f4499e1f2633a7b5936321eed1cdaeb6115181d2602060405160018152a180f35b68ffffffffffffffffff19166801000000000000000117855538613d08565b60405163f92ee8a960e01b8152600490fd5b90501538613ce8565b303b159150613ce0565b859150613cd6565b5034610332576040366003190112610332576004356001600160401b038111612aee57613e45903690600401614bd9565b602435613e50615671565b613e5b368385614b3c565b91825192602093848201908120613e70614ad0565b86815191012014918215613fe3575b8215613fc8575b8215613fad575b8215613f92575b505015613f59576127108211613f145760405181858237838183810160018152030190205493826040518383823785818581016001815203019020558160405192839283378101868152039020916040519384528301527f1caf688fbb0f146dc2cfbb987266a1bc7dd64c441c3484fa77637fdd1a1f7a6c60403393a380f35b60405162461bcd60e51b815260048101849052601860248201527f4665652072617465206d757374206265203c3d203130302500000000000000006044820152606490fd5b60405162461bcd60e51b815260048101849052601160248201527024b73b30b634b21037b832b930ba34b7b760791b6044820152606490fd5b5190209050613f9f614bb7565b848151910120143880613e94565b809250518120613fbb614c39565b8681519101201491613e8d565b809250518120613fd6614c90565b8681519101201491613e86565b809250518120613ff1614c70565b8681519101201491613e7f565b5034610332576040366003190112610332576001600160401b038060043511612aee57366023600435011215612aee576004356004013511610332573660246004356004013560051b60043501011161033257614059614a08565b614061615671565b6140756001600160a01b0382161515614e34565b6004356004013515614233578190825b6004356004013581106140e05750501561409c5780f35b606460405162461bcd60e51b815260206004820152602060248201527f4e6f206665657320617661696c61626c6520666f72207769746864726177616c6044820152fd5b61410d61063c60248360051b600435010135600052600560205260018060a01b0360406000205416151590565b60248160051b60043501013584526004602052604084205480614134575b50600101614085565b600560205260018060a01b03600160408720015416906040516370a0823160e01b8152306004820152602081602481865afa801561095157829188916141fe575b501015614183575b5061412b565b6141b581856141af82879699602460019960051b6004350101358c5260046020528b6040812055614f3b565b97615700565b6040519081523390838060a01b038516907fc8899facc19104a48043e708272a7e7e430241b9b0549a3a81bcab6e0c4f5520602060248660051b60043501013592a4903861417d565b9150506020813d60201161422b575b8161421a60209383614a94565b810103126131ed5781905138614175565b3d915061420d565b60405162461bcd60e51b8152602060048201526012602482015271139bc8185cdcd95d1cc81c1c9bdd9a59195960721b6044820152606490fd5b5034610332578060031936011261033257614286615671565b600080516020615f06833981519152805460ff8116156142d35760ff191690557f5db9ee0a495bf2e6ff9c91a7834c1ba4fdd244a5e8aa4e537bd38aeae4b073aa6020604051338152a180f35b604051638dfc202b60e01b8152600490fd5b5034610332576040602080926142fa36614c06565b949183919352600384522083604051948593843782019081520301902054604051908152f35b5034610332578060031936011261033257611dd761346f614bb7565b503461033257604036600319011261033257614356614a08565b336001600160a01b0382160361437257610ad890600435615a48565b60405163334bd91960e11b8152600490fd5b503461033257602036600319011261033257600435906001600160401b0382116103325760206143ce816143bb3660048701614b73565b8160405193828580945193849201614af4565b8101600181520301902054604051908152f35b5034610332576060366003190112610332576044356004357fdc3b7fa75af0d543251ba37149f4abe7ed44f1f597044b0b95699b27f02719f4602435614425615671565b600083815260056020526040902054614448906001600160a01b03161515614df1565b61447061271061445a81841115614f48565b61446681871115614f94565b610f3b8684614f3b565b828552600560205260408520936135a06005860191806006845498018581549555556040519384933398859094939260609260808301968352602083015260408201520152565b503461033257604036600319011261033257610ad86004356144d7614a08565b90808452600080516020615ee68339815191526020526144fd60016040862001546156cd565b6159d3565b50346103325760a0366003190112610332576004356024908135916044356064359160843590614530615671565b600085815260056020526040902054614553906001600160a01b03161515614df1565b8487526020906007825260ff604089205460101c1615614780578588526007825260ff604089205460181c1661473d5761459a8361459587614595888c614f3b565b614f3b565b80156146e95786895260078352600260408a20015410614694576040519060a08201908282106001600160401b0383111761468257506135a0927ffc59960dcdba9c080ba737b67326a18f3fb944adfc7512d85001e469c7059a5b969594926007926040528981526004898c84840189815260408501908b8252604060608701938a855260808801954287528152600889522095518655516001860155516002850155516003840155519101555260408820630100000063ff000000198254161790556040519384933398859094939260609260808301968352602083015260408201520152565b634e487b7160e01b8a52604160045289fd5b9060296084926040519262461bcd60e51b845260048401528201527f546f74616c20616c6c6f636174696f6e206578636565647320696e6a656374656044820152686420726576656e756560b81b6064820152fd5b60405162461bcd60e51b8152600481018490526027818401527f546f74616c20616c6c6f636174696f6e206d75737420626520677265617465726044820152660207468616e20360cc1b6064820152608490fd5b9060186064926040519262461bcd60e51b845260048401528201527f446973747269627574696f6e20616c72656164792073657400000000000000006044820152fd5b9060186064926040519262461bcd60e51b845260048401528201527f526576656e7565206e6f7420696e6a65637465642079657400000000000000006044820152fd5b503461033257602036600319011261033257600160406020926004358152600080516020615ee68339815191528452200154604051908152f35b5034610332578060031936011261033257611dd761346f614ad0565b503461033257606036600319011261033257600435614836614a08565b60443591614842615671565b600081815260056020526040902054614865906001600160a01b03161515614df1565b6001600160a01b03828116929061487d841515614e34565b614888851515614e80565b828652602090600482526040872054861161496e578387526005825260408088206001015490516370a0823160e01b815230600482015291168282602481845afa8015611a5a5787928991614935575b5093829161490c614929947fc8899facc19104a48043e708272a7e7e430241b9b0549a3a81bcab6e0c4f5520971015614ecc565b868a526004855260408a20614922848254614f18565b9055615700565b6040519485523394a480f35b80929350848092503d8311614967575b61494f8183614a94565b8101031261496357518691906149296148d8565b8780fd5b503d614945565b60405162461bcd60e51b815260048101839052601860248201527f496e73756666696369656e74206665652062616c616e636500000000000000006044820152606490fd5b905034612aee576020366003190112612aee5760043563ffffffff60e01b81168091036107645760209250637965db0b60e01b81149081156149f7575b5015158152f35b6301ffc9a760e01b149050386149f0565b602435906001600160a01b0382168203610c1d57565b600435906001600160a01b0382168203610c1d57565b6001600160401b038111614a4757604052565b634e487b7160e01b600052604160045260246000fd5b61020081019081106001600160401b03821117614a4757604052565b604081019081106001600160401b03821117614a4757604052565b90601f801991011681019081106001600160401b03821117614a4757604052565b6001600160401b038111614a4757601f01601f191660200190565b60405190614add82614a79565b60088252673932b3b4b9ba32b960c11b6020830152565b60005b838110614b075750506000910152565b8181015183820152602001614af7565b90602091614b3081518092818552858086019101614af4565b601f01601f1916010190565b929192614b4882614ab5565b91614b566040519384614a94565b829481845281830111610c1d578281602093846000960137010152565b9080601f83011215610c1d57816020614b8e93359101614b3c565b90565b602090614bab928260405194838680955193849201614af4565b82019081520301902090565b60405190614bc482614a79565b60068252650756e777261760d41b6020830152565b9181601f84011215610c1d578235916001600160401b038311610c1d5760208381860195010111610c1d57565b906040600319830112610c1d5760043591602435906001600160401b038211610c1d57614c3591600401614bd9565b9091565b60405190614c4682614a79565b60058252646d6572676560d81b6020830152565b6040906003190112610c1d576004359060243590565b60405190614c7d82614a79565b60048252630777261760e41b6020830152565b60405190614c9d82614a79565b60058252641cdc1b1a5d60da1b6020830152565b6060906003190112610c1d57600435906001600160a01b03906024358281168103610c1d57916044359081168103610c1d5790565b34610c1d576020366003190112610c1d5760043560005260046020526020604060002054604051908152f35b90600182811c92168015614d42575b6020831014614d2c57565b634e487b7160e01b600052602260045260246000fd5b91607f1691614d21565b90604051918260008254614d5f81614d12565b90818452602094600191600181169081600014614dcf5750600114614d90575b505050614d8e92500383614a94565b565b600090815285812095935091905b818310614db7575050614d8e9350820101388080614d7f565b85548884018501529485019487945091830191614d9e565b92505050614d8e94925060ff191682840152151560051b820101388080614d7f565b15614df857565b60405162461bcd60e51b8152602060048201526014602482015273105cdcd95d081b9bdd081c9959da5cdd195c995960621b6044820152606490fd5b15614e3b57565b60405162461bcd60e51b815260206004820152601960248201527f496e76616c696420726563697069656e742061646472657373000000000000006044820152606490fd5b15614e8757565b60405162461bcd60e51b815260206004820152601d60248201527f416d6f756e74206d7573742062652067726561746572207468616e20300000006044820152606490fd5b15614ed357565b60405162461bcd60e51b815260206004820152601d60248201527f496e73756666696369656e7420636f6e74726163742062616c616e63650000006044820152606490fd5b91908203918211614f2557565b634e487b7160e01b600052601160045260246000fd5b91908201809211614f2557565b15614f4f57565b60405162461bcd60e51b815260206004820152601c60248201527f4320616c6c6f636174696f6e206d757374206265203c3d2031303025000000006044820152606490fd5b15614f9b57565b60405162461bcd60e51b815260206004820152601c60248201527f5320616c6c6f636174696f6e206d757374206265203c3d2031303025000000006044820152606490fd5b15614fe757565b606460405162461bcd60e51b815260206004820152602060248201527f43202b205320616c6c6f636174696f6e206d75737420657175616c20313030256044820152fd5b90601f811161503957505050565b6000916000526020600020906020601f850160051c83019410615077575b601f0160051c01915b82811061506c57505050565b818155600101615060565b9092508290615057565b908060209392818452848401376000828201840152601f01601f1916010190565b81810292918115918404141715614f2557565b81156150bf570490565b634e487b7160e01b600052601260045260246000fd5b6000818152600560205260409020549091906001600160a01b03161580156152ce575b6152c657600092828452602090600982526040928386209360018060a01b0380921694858852845281818820931692838852845260ff81882054166152bd57858752600584528087209082600b830154168414948515806152ad575b8061529d575b615259578415615259578151966370a0823160e01b885260048801528087602481885afa968715615293578997615264575b5086156152595781516318160ddd60e01b8152978189600481895afa98891561524f578a9961521c575b508815615210578952600890528720614b8e9761218d969590949193919290156151e5575050509050546150a2565b600c81015482168303615200575050506001915001546150a2565b600d015416146122db57506150a2565b50505050505050505090565b9098508181813d8311615248575b6152348183614a94565b81010312615244575197386151b6565b8980fd5b503d61522a565b83513d8c823e3d90fd5b505050505050505090565b9080975081813d831161528c575b61527c8183614a94565b8101031261320a5751953861518c565b503d615272565b82513d8b823e3d90fd5b5083600d8401541685141561515a565b5083600c84015416851415615154565b50505050505090565b505050600090565b5081600052600760205260ff60406000205460181c16156150f8565b156152f157565b60405162461bcd60e51b815260206004820152601b60248201527f4173736574206f7065726174696f6e73206172652070617573656400000000006044820152606490fd5b1561533d57565b60405162461bcd60e51b815260206004820152601c60248201527f4173736574206f7065726174696f6e73206172652073746f70706564000000006044820152606490fd5b1561538957565b60405162461bcd60e51b8152602060048201526012602482015271105cdcd95d081b9bdd081d995c9a599a595960721b6044820152606490fd5b156153ca57565b60405162461bcd60e51b8152602060048201526014602482015273105c551bdad95b881b9bdd0819195c1b1bde595960621b6044820152606490fd5b1561540d57565b60405162461bcd60e51b815260206004820152602860248201527f4f7065726174696f6e20646561646c696e65206d75737420626520696e207468604482015267652066757475726560c01b6064820152608490fd5b1561546a57565b60405162461bcd60e51b815260206004820152602a60248201527f4f7065726174696f6e20646561646c696e65206d757374206265206265666f7260448201526965206d6174757269747960b01b6064820152608490fd5b156154c957565b60405162461bcd60e51b8152602060048201526014602482015273111a5cdd1c9a589d5d1a5bdb881b9bdd081cd95d60621b6044820152606490fd5b602081830312610c1d578051906001600160401b038211610c1d570181601f82011215610c1d57805161553781614ab5565b926155456040519485614a94565b81845260208284010111610c1d57614b8e9160208085019101614af4565b90816020910312610c1d57516001600160a01b0381168103610c1d5790565b6000818152600560205260409020546155a5906001600160a01b03161515614df1565b6000526005602052604060002060076020526040600020549060ff82166155dc5760039150015442106155d757600190565b600090565b5060ff8160081c16156156105760ff8160101c161561560a5760181c60ff161561560557600590565b600390565b50600290565b50600190565b1561561d57565b60405162461bcd60e51b815260206004820152602660248201527f5320546f6b656e2066656520616c6c6f636174696f6e206d757374206265203c6044820152653d203130302560d01b6064820152608490fd5b3360009081527fb16e88c42fd4e48df2dd6a2eabd6bc9aec654ec170056b470819f8892cc6431c60205260409020547fa49807205ce4d355092ef5a8a18f56e8913cf4a201fbe287825b095693c217759060ff16156133d85750565b80600052600080516020615ee683398151915260205260406000203360005260205260ff60406000205416156133d85750565b60405163a9059cbb60e01b60208201526001600160a01b03929092166024830152604480830193909352918152614d8e9161573c606483614a94565b615d99565b6001600160a01b031660008181527fb7db2dd08fcb62d0c9e08c51941cae53c267786a0b75803fb7960902fc8ef97d6020526040812054909190600080516020615ee68339815191529060ff166157ca578280526020526040822081835260205260408220600160ff198254161790553391600080516020615ea68339815191528180a4600190565b505090565b6001600160a01b031660008181527fb16e88c42fd4e48df2dd6a2eabd6bc9aec654ec170056b470819f8892cc6431c60205260408120549091907fa49807205ce4d355092ef5a8a18f56e8913cf4a201fbe287825b095693c2177590600080516020615ee68339815191529060ff16615879578184526020526040832082845260205260408320600160ff19825416179055600080516020615ea6833981519152339380a4600190565b50505090565b6001600160a01b031660008181527fd56b761303e15a4cbea84f37eba80a5289f49fda0b4884e30ac1d73eb9b8b14360205260408120549091907f0ce23c3e399818cfee81a7ab0880f714e53d7672b08df0fa62f2843416e1ea0990600080516020615ee68339815191529060ff16615879578184526020526040832082845260205260408320600160ff19825416179055600080516020615ea6833981519152339380a4600190565b6001600160a01b031660008181527f448256db8f8fb95ee3eaaf89c1051414494e85cebb6057fcf996cc3d0ccfb45660205260408120549091907f97667070c54ef182b0f5858b034beac1b6f3089aa2d3188bb1e8929f4fa9b92990600080516020615ee68339815191529060ff16615879578184526020526040832082845260205260408320600160ff19825416179055600080516020615ea6833981519152339380a4600190565b90600091808352600080516020615ee683398151915280602052604084209260018060a01b03169283855260205260ff60408520541615600014615879578184526020526040832082845260205260408320600160ff19825416179055600080516020615ea6833981519152339380a4600190565b90600091808352600080516020615ee683398151915280602052604084209260018060a01b03169283855260205260ff60408520541660001461587957818452602052604083208284526020526040832060ff1981541690557ff6391f5c32d9c69d2a47ea670b442974b53935d1edc7fd64eb21e047a839171b339380a4600190565b6040516323b872dd60e01b60208201526001600160a01b03928316602482015292909116604483015260648083019390935291815260a08101918183106001600160401b03841117614a4757614d8e92604052615d99565b600080516020615f268339815191526002815414615b415760029055565b604051633ee5aeb560e01b8152600490fd5b60ff600080516020615f068339815191525416615b6c57565b60405163d93c066560e01b8152600490fd5b600052600760205260ff60406000205416615ba757600560205260036040600020015442101590565b600190565b919060408051918451602093848181890193615bc9818387614af4565b81016001815203019020548015615c905761271090049586615bed575b5050505050565b7f9e44146d004de130d635311a2b7337f1e63f9727bf4c3f0e8f949b2bb08c34f891615c729185600086815260028952818120615c2b8c8254614f3b565b905586815260038952615c4082822084614b91565b615c4b8c8254614f3b565b90558681526004895220615c608a8254614f3b565b90558551928392839251928391614af4565b81010390209286815195600187528601523394a43880808080615be6565b506000955050505050565b9291906040908151918551906020938481818a0194615cbb818388614af4565b81016001815203019020548015615d8d57615cd961271091876150a2565b04809781615ceb575b50505050505050565b7f9e44146d004de130d635311a2b7337f1e63f9727bf4c3f0e8f949b2bb08c34f893615d709184600088815260028a52818120615d29878254614f3b565b905588815260038a52615d3e82822084614b91565b615d49878254614f3b565b905588815260048a5220615d5e858254614f3b565b90558451928392839251928391614af4565b81010390209482519687528601523394a438808080808681615ce2565b50600096505050505050565b906000602091828151910182855af115615df5576000513d615dec57506001600160a01b0381163b155b615dca5750565b604051635274afe760e01b81526001600160a01b039091166004820152602490fd5b60011415615dc3565b6040513d6000823e3d90fd5b60ff7ff0c57e16840df040f15088dc2f81fe391c3923bec73e23a9662efc9c229c6a005460401c1615615e3057565b604051631afcd79f60e31b8152600490fd5b90615e695750805115615e5757602081519101fd5b60405163d6bda27560e01b8152600490fd5b81511580615e9c575b615e7a575090565b604051639996b31560e01b81526001600160a01b039091166004820152602490fd5b50803b15615e7256fe2f8788117e7eff1d82e926ec794901d17c78024a50270940304540a733656f0d90c5333029704b35d78087044a9e7d67aa6b14f73e21d93ccad374c46876a65202dd7bc7dec4dceedda775e58dd541e08a116c6c53815c0bd028192f7b626800cd5ed15c6e187e77e9aee88184c21f4f2182ab5827cb3b7e07fbedcd63f033009b779b17422d0df92223018b32b4d1fa46e071723d6817e2486d003becc55f00a264697066735822122008c632bfbac2e061862cc01f4fa5f3a50a50b61ab556bb0702024212037c14c264736f6c63430008180033",
  "linkReferences": {},
  "deployedLinkReferences": {}
}