{
  "_format": "hh-sol-artifact-1",
  "contractName": "TokenFactory",
  "sourceName": "contracts/core/TokenFactory.sol",
  "abi": [
    {
      "inputs": [],
      "stateMutability": "nonpayable",
      "type": "constructor"
    },
    {
      "inputs": [],
      "name": "AccessControlBadConfirmation",
      "type": "error"
    },
    {
      "inputs": [
        {
          "internalType": "address",
          "name": "account",
          "type": "address"
        },
        {
          "internalType": "bytes32",
          "name": "neededRole",
          "type": "bytes32"
        }
      ],
      "name": "AccessControlUnauthorizedAccount",
      "type": "error"
    },
    {
      "inputs": [],
      "name": "FailedDeployment",
      "type": "error"
    },
    {
      "inputs": [
        {
          "internalType": "uint256",
          "name": "balance",
          "type": "uint256"
        },
        {
          "internalType": "uint256",
          "name": "needed",
          "type": "uint256"
        }
      ],
      "name": "InsufficientBalance",
      "type": "error"
    },
    {
      "anonymous": false,
      "inputs": [
        {
          "indexed": true,
          "internalType": "string",
          "name": "tokenType",
          "type": "string"
        },
        {
          "indexed": true,
          "internalType": "address",
          "name": "implementation",
          "type": "address"
        }
      ],
      "name": "ImplementationSet",
      "type": "event"
    },
    {
      "anonymous": false,
      "inputs": [
        {
          "indexed": true,
          "internalType": "bytes32",
          "name": "role",
          "type": "bytes32"
        },
        {
          "indexed": true,
          "internalType": "bytes32",
          "name": "previousAdminRole",
          "type": "bytes32"
        },
        {
          "indexed": true,
          "internalType": "bytes32",
          "name": "newAdminRole",
          "type": "bytes32"
        }
      ],
      "name": "RoleAdminChanged",
      "type": "event"
    },
    {
      "anonymous": false,
      "inputs": [
        {
          "indexed": true,
          "internalType": "bytes32",
          "name": "role",
          "type": "bytes32"
        },
        {
          "indexed": true,
          "internalType": "address",
          "name": "account",
          "type": "address"
        },
        {
          "indexed": true,
          "internalType": "address",
          "name": "sender",
          "type": "address"
        }
      ],
      "name": "RoleGranted",
      "type": "event"
    },
    {
      "anonymous": false,
      "inputs": [
        {
          "indexed": true,
          "internalType": "bytes32",
          "name": "role",
          "type": "bytes32"
        },
        {
          "indexed": true,
          "internalType": "address",
          "name": "account",
          "type": "address"
        },
        {
          "indexed": true,
          "internalType": "address",
          "name": "sender",
          "type": "address"
        }
      ],
      "name": "RoleRevoked",
      "type": "event"
    },
    {
      "anonymous": false,
      "inputs": [
        {
          "indexed": true,
          "internalType": "string",
          "name": "tokenType",
          "type": "string"
        },
        {
          "indexed": true,
          "internalType": "bytes32",
          "name": "assetId",
          "type": "bytes32"
        },
        {
          "indexed": true,
          "internalType": "address",
          "name": "tokenAddress",
          "type": "address"
        }
      ],
      "name": "TokenDeployed",
      "type": "event"
    },
    {
      "inputs": [],
      "name": "ADMIN_ROLE",
      "outputs": [
        {
          "internalType": "bytes32",
          "name": "",
          "type": "bytes32"
        }
      ],
      "stateMutability": "view",
      "type": "function"
    },
    {
      "inputs": [],
      "name": "DEFAULT_ADMIN_ROLE",
      "outputs": [
        {
          "internalType": "bytes32",
          "name": "",
          "type": "bytes32"
        }
      ],
      "stateMutability": "view",
      "type": "function"
    },
    {
      "inputs": [],
      "name": "DEPLOYER_ROLE",
      "outputs": [
        {
          "internalType": "bytes32",
          "name": "",
          "type": "bytes32"
        }
      ],
      "stateMutability": "view",
      "type": "function"
    },
    {
      "inputs": [
        {
          "internalType": "string",
          "name": "tokenType",
          "type": "string"
        },
        {
          "internalType": "bytes32",
          "name": "assetId",
          "type": "bytes32"
        },
        {
          "internalType": "string",
          "name": "name",
          "type": "string"
        },
        {
          "internalType": "string",
          "name": "symbol",
          "type": "string"
        }
      ],
      "name": "deployToken",
      "outputs": [
        {
          "internalType": "address",
          "name": "",
          "type": "address"
        }
      ],
      "stateMutability": "nonpayable",
      "type": "function"
    },
    {
      "inputs": [
        {
          "internalType": "string",
          "name": "tokenType",
          "type": "string"
        },
        {
          "internalType": "bytes32",
          "name": "assetId",
          "type": "bytes32"
        }
      ],
      "name": "getDeployedToken",
      "outputs": [
        {
          "internalType": "address",
          "name": "",
          "type": "address"
        }
      ],
      "stateMutability": "view",
      "type": "function"
    },
    {
      "inputs": [
        {
          "internalType": "string",
          "name": "tokenType",
          "type": "string"
        }
      ],
      "name": "getImplementation",
      "outputs": [
        {
          "internalType": "address",
          "name": "",
          "type": "address"
        }
      ],
      "stateMutability": "view",
      "type": "function"
    },
    {
      "inputs": [
        {
          "internalType": "bytes32",
          "name": "role",
          "type": "bytes32"
        }
      ],
      "name": "getRoleAdmin",
      "outputs": [
        {
          "internalType": "bytes32",
          "name": "",
          "type": "bytes32"
        }
      ],
      "stateMutability": "view",
      "type": "function"
    },
    {
      "inputs": [
        {
          "internalType": "bytes32",
          "name": "role",
          "type": "bytes32"
        },
        {
          "internalType": "address",
          "name": "account",
          "type": "address"
        }
      ],
      "name": "grantRole",
      "outputs": [],
      "stateMutability": "nonpayable",
      "type": "function"
    },
    {
      "inputs": [
        {
          "internalType": "bytes32",
          "name": "role",
          "type": "bytes32"
        },
        {
          "internalType": "address",
          "name": "account",
          "type": "address"
        }
      ],
      "name": "hasRole",
      "outputs": [
        {
          "internalType": "bool",
          "name": "",
          "type": "bool"
        }
      ],
      "stateMutability": "view",
      "type": "function"
    },
    {
      "inputs": [
        {
          "internalType": "string",
          "name": "tokenType",
          "type": "string"
        },
        {
          "internalType": "bytes32",
          "name": "assetId",
          "type": "bytes32"
        }
      ],
      "name": "isTokenDeployed",
      "outputs": [
        {
          "internalType": "bool",
          "name": "",
          "type": "bool"
        }
      ],
      "stateMutability": "view",
      "type": "function"
    },
    {
      "inputs": [
        {
          "internalType": "string",
          "name": "tokenType",
          "type": "string"
        },
        {
          "internalType": "bytes32",
          "name": "assetId",
          "type": "bytes32"
        }
      ],
      "name": "predictTokenAddress",
      "outputs": [
        {
          "internalType": "address",
          "name": "",
          "type": "address"
        }
      ],
      "stateMutability": "view",
      "type": "function"
    },
    {
      "inputs": [
        {
          "internalType": "bytes32",
          "name": "role",
          "type": "bytes32"
        },
        {
          "internalType": "address",
          "name": "callerConfirmation",
          "type": "address"
        }
      ],
      "name": "renounceRole",
      "outputs": [],
      "stateMutability": "nonpayable",
      "type": "function"
    },
    {
      "inputs": [
        {
          "internalType": "bytes32",
          "name": "role",
          "type": "bytes32"
        },
        {
          "internalType": "address",
          "name": "account",
          "type": "address"
        }
      ],
      "name": "revokeRole",
      "outputs": [],
      "stateMutability": "nonpayable",
      "type": "function"
    },
    {
      "inputs": [
        {
          "internalType": "string",
          "name": "tokenType",
          "type": "string"
        },
        {
          "internalType": "address",
          "name": "implementation",
          "type": "address"
        }
      ],
      "name": "setImplementation",
      "outputs": [],
      "stateMutability": "nonpayable",
      "type": "function"
    },
    {
      "inputs": [
        {
          "internalType": "bytes4",
          "name": "interfaceId",
          "type": "bytes4"
        }
      ],
      "name": "supportsInterface",
      "outputs": [
        {
          "internalType": "bool",
          "name": "",
          "type": "bool"
        }
      ],
      "stateMutability": "view",
      "type": "function"
    },
    {
      "inputs": [],
      "name": "version",
      "outputs": [
        {
          "internalType": "string",
          "name": "",
          "type": "string"
        }
      ],
      "stateMutability": "pure",
      "type": "function"
    }
  ],
  "bytecode": "0x608060405234610036576100123361003b565b5061001c336100b9565b5061002633610159565b50604051610fd790816101f58239f35b600080fd5b6001600160a01b031660008181527fad3228b676f7d3cd4284a5443f17f1962b36e491b30a40b2405849e597ba5fb5602052604081205490919060ff166100b557818052816020526040822081835260205260408220600160ff1982541617905533916000805160206111cc8339815191528180a4600190565b5090565b6001600160a01b031660008181527f7d7ffb7a348e1c6a02869081a26547b49160dd3df72d1d75a570eb9b698292ec60205260408120549091907fa49807205ce4d355092ef5a8a18f56e8913cf4a201fbe287825b095693c217759060ff1661015457808352826020526040832082845260205260408320600160ff198254161790556000805160206111cc833981519152339380a4600190565b505090565b6001600160a01b031660008181527f740c5e3e456bed56f053f960110118ba9b95a1f5359a82283516fb2e81b6e37e60205260408120549091907ffc425f2263d0df187444b70e47283d622c70181c5baebb1306a01edba1ce184c9060ff1661015457808352826020526040832082845260205260408320600160ff198254161790556000805160206111cc833981519152339380a460019056fe608060408181526004918236101561001657600080fd5b600092833560e01c91826301ffc9a714610bc05750816306419fe514610a71578163068df1ba14610a4c578163248a9ca314610a225781632f2ff15d146109f857816336568abe146109b257816350f649c31461098557816354fd4d50146108e65781635cabed6d1461028f5781636b6838961461023057816375b238fc146101f557816391d14854146101b0578163a217fddf14610195578163d547741f1461015257508063ecd00261146101185763f3150c84146100d557600080fd5b3461011457602091826100e736610c5c565b92909182865193849283378101600281520301902090825283528160018060a01b03912054169051908152f35b5080fd5b5034610114578160031936011261011457602090517ffc425f2263d0df187444b70e47283d622c70181c5baebb1306a01edba1ce184c8152f35b9190503461019157806003193601126101915761018d91356101886001610177610c46565b938387528660205286200154610e4a565b610f0c565b5080f35b8280fd5b50503461011457816003193601126101145751908152602090f35b905034610191578160031936011261019157816020936101ce610c46565b92358152808552209060018060a01b0316600052825260ff81600020541690519015158152f35b505034610114578160031936011261011457602090517fa49807205ce4d355092ef5a8a18f56e8913cf4a201fbe287825b095693c217758152f35b82843461028c57602036600319011261028c5782359067ffffffffffffffff821161028c575060209261026591369101610c13565b8083519283376001908201908152819003830190205490516001600160a01b039091168152f35b80fd5b9050823461028c57608036600319011261028c5767ffffffffffffffff928235848111610191576102c39036908501610c13565b9160249283359260449687358981116108e2576102e39036908301610c13565b91606480359b8c1161053c57899a9b369083019061030091610c13565b91909c7ffc425f2263d0df187444b70e47283d622c70181c5baebb1306a01edba1ce184c808d5260209d8e8181528b82209133905252898d205460ff16156108c8575087156108945789156108625785156108345782156108045788518888823760018982019081528190038e019020546001600160a01b0390818116156107ca5761038d8c8b8b610c8f565b6107905760378f8f6009918f8f8f918f91806e5af43d82803e903d91602b57fd5bf3946103d3925193818592898401978837820190888201520386810184520182610d08565b51902095763d602d80600a3d3981f3363d3d373d3d3d363d7300000062ffffff8260881c161784526effffffffffffffffffffffffffffff199060781b16179052f5169a8b15610780578d888e8b8d516104428582818101948088873781018683820152038084520182610d08565b5190208d518481019061415160f01b82526002815261046081610cec565b5190200361054057505050505050883b1561053c5789939291886104989289519e8f96879663155f273b60e01b885233958801610e08565b038183895af180156105325795809798869761050f575b505090600080516020610f82833981519152915b835182828237898184810160028152030190208589528952838820866bffffffffffffffffffffffff60a01b825416179055818451928392833781016000815203902091519580a48152f35b61051e91929394959650610cc2565b61052e57908493929186896104af565b8580fd5b83513d88823e3d90fd5b8980fd5b8b8d8051858101908386833761056487828681018883820152038084520182610d08565b519020815186810190600560fc1b82526001815261058181610cec565b51902003610609575050505050505050883b1561053c5789939291886105bb9289519e8f96879663155f273b60e01b885233958801610e08565b038183895af18015610532579580979886976105ea575b505090600080516020610f82833981519152916104c3565b6105f991929394959650610cc2565b61052e57908493929186896105d2565b61062c918591519381859284840197883782019083820152038084520182610d08565b519020908b5190810190604360f81b82526001815261064a81610cec565b5190200361067f57505050883b1561053c5789939291886105bb9289519e8f96879663155f273b60e01b885233958801610e08565b8d9e979d8e8e6106a8838d8f519381859284840197883782019083820152038084520182610d08565b519020908b5190810190605360f81b8252600181526106c681610cec565b5190200361074857505050883b1561053c5789939291886106fb928951978896879663155f273b60e01b885233958801610e08565b038183895af1801561053257610725575b50600080516020610f82833981519152908495966104c3565b908495610740600080516020610f8283398151915293610cc2565b95509061070c565b84918f75556e737570706f7274656420746f6b656e207479706560501b926016918d519562461bcd60e51b8752860152840152820152fd5b895163b06ebf3d60e01b81528590fd5b505075151bdad95b88185b1c9958591e4819195c1b1bde595960521b849160168f8e908d519562461bcd60e51b8752860152840152820152fd5b505075125b5c1b195b595b9d185d1a5bdb881b9bdd081cd95d60521b849160168f8e908d519562461bcd60e51b8752860152840152820152fd5b6d125b9d985b1a59081cde5b589bdb60921b8491600e8f8e908d519562461bcd60e51b8752860152840152820152fd5b6b496e76616c6964206e616d6560a01b8491600c8f8e908d519562461bcd60e51b8752860152840152820152fd5b6f125b9d985b1a5908185cdcd95d08125160821b849160108f8e908d519562461bcd60e51b8752860152840152820152fd5b71496e76616c696420746f6b656e207479706560701b849160128f8e908d519562461bcd60e51b8752860152840152820152fd5b895163e2517d3f60e01b81523381870152808d0191909152fd5b8780fd5b9050346101915782600319360112610191578151908282019082821067ffffffffffffffff8311176109725750825260058152602090640312e302e360dc1b6020820152825193849260208452825192836020860152825b84811061095c57505050828201840152601f01601f19168101030190f35b818101830151888201880152879550820161093e565b634e487b7160e01b855260419052602484fd5b505034610114576020906109a161099b36610c5c565b91610d2a565b90516001600160a01b039091168152f35b8383346101145780600319360112610114576109cc610c46565b90336001600160a01b038316036109e9575061018d919235610f0c565b5163334bd91960e11b81528390fd5b9190503461019157806003193601126101915761018d9135610a1d6001610177610c46565b610e8e565b90503461019157602036600319011261019157816020936001923581528085522001549051908152f35b50503461011457602090610a68610a6236610c5c565b91610c8f565b90519015158152f35b91905034610191578060031936011261019157813567ffffffffffffffff8111610bbc57610aa29036908401610c13565b91610aab610c46565b7fa49807205ce4d355092ef5a8a18f56e8913cf4a201fbe287825b095693c217758087528660205282872033885260205260ff838820541615610b9e57506001600160a01b0316938415610b5c575080839151828482376020818481016001815203019020856bffffffffffffffffffffffff60a01b82541617905551928392833781018481520390207f375b7133c0e6f3d406d968216a8fa18d29638c07b405b42adafcb5b0074f5a468380a380f35b6020606492519162461bcd60e51b8352820152601e60248201527f496e76616c696420696d706c656d656e746174696f6e206164647265737300006044820152fd5b825163e2517d3f60e01b815233818801526024810191909152604490fd5b8380fd5b849134610191576020366003190112610191573563ffffffff60e01b81168091036101915760209250637965db0b60e01b8114908115610c02575b5015158152f35b6301ffc9a760e01b14905083610bfb565b9181601f84011215610c415782359167ffffffffffffffff8311610c415760208381860195010111610c4157565b600080fd5b602435906001600160a01b0382168203610c4157565b6040600319820112610c41576004359067ffffffffffffffff8211610c4157610c8791600401610c13565b909160243590565b602090826040519384928337600290820190815203019020600091825260205260409020546001600160a01b0316151590565b67ffffffffffffffff8111610cd657604052565b634e487b7160e01b600052604160045260246000fd5b6040810190811067ffffffffffffffff821117610cd657604052565b90601f8019910116810190811067ffffffffffffffff821117610cd657604052565b919060405192818185376001848301908152849003602001909320546001600160a01b0393908416908115610ddd57605593610d876040604395815193818592602084019788378201906020820152036020810184520182610d08565b519020604051913060388401526f5af43d82803e903d91602b57fd5bf3ff60248401526014830152733d602d80600a3d3981f3363d3d373d3d3d363d73825260588201526037600c820120607882015201201690565b5050505050600090565b908060209392818452848401376000828201840152601f01601f1916010190565b949695929093610e26606095610e3494608089526080890191610de7565b918683036020880152610de7565b60408401959095526001600160a01b0316910152565b80600052600060205260406000203360005260205260ff6040600020541615610e705750565b6044906040519063e2517d3f60e01b82523360048301526024820152fd5b9060009180835282602052604083209160018060a01b03169182845260205260ff60408420541615600014610f0757808352826020526040832082845260205260408320600160ff198254161790557f2f8788117e7eff1d82e926ec794901d17c78024a50270940304540a733656f0d339380a4600190565b505090565b9060009180835282602052604083209160018060a01b03169182845260205260ff604084205416600014610f075780835282602052604083208284526020526040832060ff1981541690557ff6391f5c32d9c69d2a47ea670b442974b53935d1edc7fd64eb21e047a839171b339380a460019056fe55015661ce539aec61fafa06fd233267fa487ef85461ada13fc2253aa7d59914a2646970667358221220303f3e7e869981c03b98585ef8754352c5a997a19dc7e91bb6055412fcddd05464736f6c634300081800332f8788117e7eff1d82e926ec794901d17c78024a50270940304540a733656f0d",
  "linkReferences": {},
  "deployedLinkReferences": {}
}