{"abi":[{"type":"constructor","inputs":[{"name":"token","type":"address","internalType":"contract IMintableERC20"},{"name":"identityToken_","type":"address","internalType":"contract IdentityToken"},{"name":"reputationBadge_","type":"address","internalType":"contract ReputationBadge"},{"name":"badgeRuleRegistry_","type":"address","internalType":"contract BadgeRuleRegistry"},{"name":"dataFeed_","type":"address","internalType":"contract ReputationDataFeed"},{"name":"identityURI","type":"string","internalType":"string"},{"name":"welcomeAmount","type":"uint256","internalType":"uint256"}],"stateMutability":"nonpayable"},{"type":"function","name":"badgeRuleRegistry","inputs":[],"outputs":[{"name":"","type":"address","internalType":"contract BadgeRuleRegistry"}],"stateMutability":"view"},{"type":"function","name":"buyerWelcomeAmount","inputs":[],"outputs":[{"name":"","type":"uint256","internalType":"uint256"}],"stateMutability":"view"},{"type":"function","name":"creatorAt","inputs":[{"name":"index","type":"uint256","internalType":"uint256"}],"outputs":[{"name":"","type":"address","internalType":"address"}],"stateMutability":"view"},{"type":"function","name":"creatorRegistryLength","inputs":[],"outputs":[{"name":"","type":"uint256","internalType":"uint256"}],"stateMutability":"view"},{"type":"function","name":"dataFeed","inputs":[],"outputs":[{"name":"","type":"address","internalType":"contract ReputationDataFeed"}],"stateMutability":"view"},{"type":"function","name":"deactivateWork","inputs":[{"name":"workId","type":"bytes32","internalType":"bytes32"}],"outputs":[],"stateMutability":"nonpayable"},{"type":"function","name":"getBuyerStat","inputs":[{"name":"account","type":"address","internalType":"address"}],"outputs":[{"name":"","type":"tuple","internalType":"struct Marketplace.BuyerStat","components":[{"name":"totalPurchases","type":"uint256","internalType":"uint256"},{"name":"totalVolume","type":"uint256","internalType":"uint256"}]}],"stateMutability":"view"},{"type":"function","name":"getCreatorStat","inputs":[{"name":"account","type":"address","internalType":"address"}],"outputs":[{"name":"","type":"tuple","internalType":"struct Marketplace.CreatorStat","components":[{"name":"totalSales","type":"uint256","internalType":"uint256"},{"name":"totalVolume","type":"uint256","internalType":"uint256"}]}],"stateMutability":"view"},{"type":"function","name":"getEligibleRules","inputs":[{"name":"account","type":"address","internalType":"address"},{"name":"target","type":"uint8","internalType":"enum BadgeRuleRegistry.BadgeTarget"}],"outputs":[{"name":"","type":"uint256[]","internalType":"uint256[]"}],"stateMutability":"view"},{"type":"function","name":"getWork","inputs":[{"name":"workId","type":"bytes32","internalType":"bytes32"}],"outputs":[{"name":"","type":"tuple","internalType":"struct Marketplace.Listing","components":[{"name":"creator","type":"address","internalType":"address"},{"name":"price","type":"uint256","internalType":"uint256"},{"name":"active","type":"bool","internalType":"bool"},{"name":"sold","type":"uint256","internalType":"uint256"}]}],"stateMutability":"view"},{"type":"function","name":"identityMetadataURI","inputs":[],"outputs":[{"name":"","type":"string","internalType":"string"}],"stateMutability":"view"},{"type":"function","name":"identityToken","inputs":[],"outputs":[{"name":"","type":"address","internalType":"contract IdentityToken"}],"stateMutability":"view"},{"type":"function","name":"listWork","inputs":[{"name":"workId","type":"bytes32","internalType":"bytes32"},{"name":"price","type":"uint256","internalType":"uint256"}],"outputs":[],"stateMutability":"nonpayable"},{"type":"function","name":"owner","inputs":[],"outputs":[{"name":"","type":"address","internalType":"address"}],"stateMutability":"view"},{"type":"function","name":"purchase","inputs":[{"name":"workId","type":"bytes32","internalType":"bytes32"}],"outputs":[],"stateMutability":"nonpayable"},{"type":"function","name":"reputationBadge","inputs":[],"outputs":[{"name":"","type":"address","internalType":"contract ReputationBadge"}],"stateMutability":"view"},{"type":"function","name":"setBadgeContract","inputs":[{"name":"newBadge","type":"address","internalType":"contract ReputationBadge"}],"outputs":[],"stateMutability":"nonpayable"},{"type":"function","name":"setBadgeRuleRegistry","inputs":[{"name":"newRegistry","type":"address","internalType":"contract BadgeRuleRegistry"}],"outputs":[],"stateMutability":"nonpayable"},{"type":"function","name":"setBuyerWelcomeAmount","inputs":[{"name":"newAmount","type":"uint256","internalType":"uint256"}],"outputs":[],"stateMutability":"nonpayable"},{"type":"function","name":"setDataFeed","inputs":[{"name":"newFeed","type":"address","internalType":"contract ReputationDataFeed"}],"outputs":[],"stateMutability":"nonpayable"},{"type":"function","name":"setIdentityMetadataURI","inputs":[{"name":"newURI","type":"string","internalType":"string"}],"outputs":[],"stateMutability":"nonpayable"},{"type":"function","name":"settlementToken","inputs":[],"outputs":[{"name":"","type":"address","internalType":"contract IMintableERC20"}],"stateMutability":"view"},{"type":"function","name":"transferOwnership","inputs":[{"name":"newOwner","type":"address","internalType":"address"}],"outputs":[],"stateMutability":"nonpayable"},{"type":"event","name":"BadgeAwarded","inputs":[{"name":"account","type":"address","indexed":true,"internalType":"address"},{"name":"ruleId","type":"uint256","indexed":true,"internalType":"uint256"}],"anonymous":false},{"type":"event","name":"OwnershipTransferred","inputs":[{"name":"previousOwner","type":"address","indexed":true,"internalType":"address"},{"name":"newOwner","type":"address","indexed":true,"internalType":"address"}],"anonymous":false},{"type":"event","name":"PurchaseCompleted","inputs":[{"name":"buyer","type":"address","indexed":true,"internalType":"address"},{"name":"creator","type":"address","indexed":true,"internalType":"address"},{"name":"workId","type":"bytes32","indexed":true,"internalType":"bytes32"},{"name":"price","type":"uint256","indexed":false,"internalType":"uint256"}],"anonymous":false},{"type":"event","name":"WorkDeactivated","inputs":[{"name":"workId","type":"bytes32","indexed":true,"internalType":"bytes32"},{"name":"caller","type":"address","indexed":true,"internalType":"address"}],"anonymous":false},{"type":"event","name":"WorkListed","inputs":[{"name":"workId","type":"bytes32","indexed":true,"internalType":"bytes32"},{"name":"creator","type":"address","indexed":true,"internalType":"address"},{"name":"price","type":"uint256","indexed":false,"internalType":"uint256"}],"anonymous":false},{"type":"error","name":"AlreadyPurchased","inputs":[]},{"type":"error","name":"InvalidPrice","inputs":[]},{"type":"error","name":"NotWorkCreator","inputs":[]},{"type":"error","name":"WorkAlreadyActive","inputs":[]},{"type":"error","name":"WorkNotActive","inputs":[]},{"type":"error","name":"WorkNotFound","inputs":[]}],"bytecode":{"object":"0x608060405234801561000f575f5ffd5b506040516140d53803806140d583398181016040528101906100319190610541565b858585610043336101a960201b60201c565b8260015f6101000a81548173ffffffffffffffffffffffffffffffffffffffff021916908373ffffffffffffffffffffffffffffffffffffffff1602179055508160025f6101000a81548173ffffffffffffffffffffffffffffffffffffffff021916908373ffffffffffffffffffffffffffffffffffffffff1602179055508060035f6101000a81548173ffffffffffffffffffffffffffffffffffffffff021916908373ffffffffffffffffffffffffffffffffffffffff1602179055505050508660045f6101000a81548173ffffffffffffffffffffffffffffffffffffffff021916908373ffffffffffffffffffffffffffffffffffffffff1602179055508260055f6101000a81548173ffffffffffffffffffffffffffffffffffffffff021916908373ffffffffffffffffffffffffffffffffffffffff16021790555081600690816101959190610801565b5080600781905550505050505050506108d0565b5f5f5f9054906101000a900473ffffffffffffffffffffffffffffffffffffffff169050815f5f6101000a81548173ffffffffffffffffffffffffffffffffffffffff021916908373ffffffffffffffffffffffffffffffffffffffff1602179055508173ffffffffffffffffffffffffffffffffffffffff168173ffffffffffffffffffffffffffffffffffffffff167f8be0079c531659141344cd1fd0a4f28419497f9722a3daafe3b4186f6b6457e060405160405180910390a35050565b5f604051905090565b5f5ffd5b5f5ffd5b5f73ffffffffffffffffffffffffffffffffffffffff82169050919050565b5f6102a48261027b565b9050919050565b5f6102b58261029a565b9050919050565b6102c5816102ab565b81146102cf575f5ffd5b50565b5f815190506102e0816102bc565b92915050565b5f6102f08261029a565b9050919050565b610300816102e6565b811461030a575f5ffd5b50565b5f8151905061031b816102f7565b92915050565b5f61032b8261029a565b9050919050565b61033b81610321565b8114610345575f5ffd5b50565b5f8151905061035681610332565b92915050565b5f6103668261029a565b9050919050565b6103768161035c565b8114610380575f5ffd5b50565b5f815190506103918161036d565b92915050565b5f6103a18261029a565b9050919050565b6103b181610397565b81146103bb575f5ffd5b50565b5f815190506103cc816103a8565b92915050565b5f5ffd5b5f5ffd5b5f601f19601f8301169050919050565b7f4e487b71000000000000000000000000000000000000000000000000000000005f52604160045260245ffd5b610420826103da565b810181811067ffffffffffffffff8211171561043f5761043e6103ea565b5b80604052505050565b5f61045161026a565b905061045d8282610417565b919050565b5f67ffffffffffffffff82111561047c5761047b6103ea565b5b610485826103da565b9050602081019050919050565b8281835e5f83830152505050565b5f6104b26104ad84610462565b610448565b9050828152602081018484840111156104ce576104cd6103d6565b5b6104d9848285610492565b509392505050565b5f82601f8301126104f5576104f46103d2565b5b81516105058482602086016104a0565b91505092915050565b5f819050919050565b6105208161050e565b811461052a575f5ffd5b50565b5f8151905061053b81610517565b92915050565b5f5f5f5f5f5f5f60e0888a03121561055c5761055b610273565b5b5f6105698a828b016102d2565b975050602061057a8a828b0161030d565b965050604061058b8a828b01610348565b955050606061059c8a828b01610383565b94505060806105ad8a828b016103be565b93505060a088015167ffffffffffffffff8111156105ce576105cd610277565b5b6105da8a828b016104e1565b92505060c06105eb8a828b0161052d565b91505092959891949750929550565b5f81519050919050565b7f4e487b71000000000000000000000000000000000000000000000000000000005f52602260045260245ffd5b5f600282049050600182168061064857607f821691505b60208210810361065b5761065a610604565b5b50919050565b5f819050815f5260205f209050919050565b5f6020601f8301049050919050565b5f82821b905092915050565b5f600883026106bd7fffffffffffffffffffffffffffffffffffffffffffffffffffffffffffffffff82610682565b6106c78683610682565b95508019841693508086168417925050509392505050565b5f819050919050565b5f6107026106fd6106f88461050e565b6106df565b61050e565b9050919050565b5f819050919050565b61071b836106e8565b61072f61072782610709565b84845461068e565b825550505050565b5f5f905090565b610746610737565b610751818484610712565b505050565b5b81811015610774576107695f8261073e565b600181019050610757565b5050565b601f8211156107b95761078a81610661565b61079384610673565b810160208510156107a2578190505b6107b66107ae85610673565b830182610756565b50505b505050565b5f82821c905092915050565b5f6107d95f19846008026107be565b1980831691505092915050565b5f6107f183836107ca565b9150826002028217905092915050565b61080a826105fa565b67ffffffffffffffff811115610823576108226103ea565b5b61082d8254610631565b610838828285610778565b5f60209050601f831160018114610869575f8415610857578287015190505b61086185826107e6565b8655506108c8565b601f19841661087786610661565b5f5b8281101561089e57848901518255600182019150602085019450602081019050610879565b868310156108bb57848901516108b7601f8916826107ca565b8355505b6001600288020188555050505b505050505050565b6137f8806108dd5f395ff3fe608060405234801561000f575f5ffd5b506004361061014b575f3560e01c80637daf2caf116100c15780639e42ff901161007a5780639e42ff9014610377578063a592981514610395578063b9a364c4146103c5578063cc445611146103e1578063f2fde38b146103fd578063fcacff6d146104195761014b565b80637daf2caf146102c5578063824a2437146102e3578063828184e6146102ff5780638a31c2551461031d5780638da5cb5b1461033b5780639b2490b1146103595761014b565b806350b4ca2e1161011357806350b4ca2e146101f157806357e1b8ef1461022157806358fa4367146102515780636438046b1461026f57806367e15f1b1461028b5780637b9e618d146102a75761014b565b80630261d7561461014f578063302665371461016b57806342740fa01461019b57806347d212da146101b75780634cb33a2f146101d3575b5f5ffd5b61016960048036038101906101649190612578565b610449565b005b610185600480360381019061018091906125f6565b6104ed565b60405161019291906126e5565b60405180910390f35b6101b560048036038101906101b091906125f6565b61059a565b005b6101d160048036038101906101cc9190612739565b6107a7565b005b6101db610841565b6040516101e89190612773565b60405180910390f35b61020b600480360381019061020691906127d9565b610847565b60405161021891906128bf565b60405180910390f35b61023b600480360381019061023691906128df565b610c3e565b6040516102489190612937565b60405180910390f35b610259610ca8565b60405161026691906129ab565b60405180910390f35b610289600480360381019061028491906129ee565b610ccd565b005b6102a560048036038101906102a09190612a54565b610d65565b005b6102af610e36565b6040516102bc9190612a9f565b60405180910390f35b6102cd610e5b565b6040516102da9190612b28565b60405180910390f35b6102fd60048036038101906102f89190612b83565b610ee7565b005b610307610f81565b6040516103149190612bce565b60405180910390f35b610325610fa6565b6040516103329190612c07565b60405180910390f35b610343610fcb565b6040516103509190612c2f565b60405180910390f35b610361610ff2565b60405161036e9190612773565b60405180910390f35b61037f610ffe565b60405161038c9190612c68565b60405180910390f35b6103af60048036038101906103aa91906129ee565b611023565b6040516103bc9190612c2f565b60405180910390f35b6103df60048036038101906103da9190612c81565b6110ae565b005b6103fb60048036038101906103f691906125f6565b611300565b005b610417600480360381019061041291906128df565b611a50565b005b610433600480360381019061042e91906128df565b611b58565b6040516104409190612cec565b60405180910390f35b5f5f9054906101000a900473ffffffffffffffffffffffffffffffffffffffff1673ffffffffffffffffffffffffffffffffffffffff163373ffffffffffffffffffffffffffffffffffffffff16146104d7576040517f08c379a00000000000000000000000000000000000000000000000000000000081526004016104ce90612d4f565b60405180910390fd5b8181600691826104e8929190612f98565b505050565b6104f561249a565b60085f8381526020019081526020015f206040518060800160405290815f82015f9054906101000a900473ffffffffffffffffffffffffffffffffffffffff1673ffffffffffffffffffffffffffffffffffffffff1673ffffffffffffffffffffffffffffffffffffffff16815260200160018201548152602001600282015f9054906101000a900460ff161515151581526020016003820154815250509050919050565b5f60085f8381526020019081526020015f2090505f73ffffffffffffffffffffffffffffffffffffffff16815f015f9054906101000a900473ffffffffffffffffffffffffffffffffffffffff1673ffffffffffffffffffffffffffffffffffffffff1603610635576040517f119dcfc000000000000000000000000000000000000000000000000000000000815260040160405180910390fd5b806002015f9054906101000a900460ff1661067c576040517fa355f50700000000000000000000000000000000000000000000000000000000815260040160405180910390fd5b805f015f9054906101000a900473ffffffffffffffffffffffffffffffffffffffff1673ffffffffffffffffffffffffffffffffffffffff163373ffffffffffffffffffffffffffffffffffffffff161415801561070d57506106dd610fcb565b73ffffffffffffffffffffffffffffffffffffffff163373ffffffffffffffffffffffffffffffffffffffff1614155b15610744576040517f07c78e9000000000000000000000000000000000000000000000000000000000815260040160405180910390fd5b5f816002015f6101000a81548160ff0219169083151502179055503373ffffffffffffffffffffffffffffffffffffffff16827ffe122d9b3943b9c985b077dee64e312f6071788e061e7c4bf8ef66975c88145b60405160405180910390a35050565b5f5f9054906101000a900473ffffffffffffffffffffffffffffffffffffffff1673ffffffffffffffffffffffffffffffffffffffff163373ffffffffffffffffffffffffffffffffffffffff1614610835576040517f08c379a000000000000000000000000000000000000000000000000000000000815260040161082c90612d4f565b60405180910390fd5b61083e81611bc2565b50565b60075481565b60605f5f6108558585611c73565b915091505f60035f9054906101000a900473ffffffffffffffffffffffffffffffffffffffff1673ffffffffffffffffffffffffffffffffffffffff1663f6bcf6336040518163ffffffff1660e01b8152600401602060405180830381865afa1580156108c4573d5f5f3e3d5ffd5b505050506040513d601f19601f820116820180604052508101906108e89190613079565b90505f8167ffffffffffffffff81111561090557610904612d77565b5b6040519080825280602002602001820160405280156109335781602001602082028036833780820191505090505b5090505f5f5f90505b83811015610b8d575f60035f9054906101000a900473ffffffffffffffffffffffffffffffffffffffff1673ffffffffffffffffffffffffffffffffffffffff1663b54e8536836040518263ffffffff1660e01b815260040161099f9190612773565b602060405180830381865afa1580156109ba573d5f5f3e3d5ffd5b505050506040513d601f19601f820116820180604052508101906109de9190613079565b90505f60035f9054906101000a900473ffffffffffffffffffffffffffffffffffffffff1673ffffffffffffffffffffffffffffffffffffffff166348462037836040518263ffffffff1660e01b8152600401610a3b9190612773565b5f60405180830381865afa158015610a55573d5f5f3e3d5ffd5b505050506040513d5f823e3d601f19601f82011682018060405250810190610a7d91906132b3565b9050610a89818b611d85565b610a94575050610b80565b610a9f818989611df9565b8015610b46575060025f9054906101000a900473ffffffffffffffffffffffffffffffffffffffff1673ffffffffffffffffffffffffffffffffffffffff16634c6a70ce8c835f01516040518363ffffffff1660e01b8152600401610b059291906132fa565b602060405180830381865afa158015610b20573d5f5f3e3d5ffd5b505050506040513d601f19601f82011682018060405250810190610b449190613321565b155b15610b7d57805f0151858581518110610b6257610b6161334c565b5b6020026020010181815250508380610b79906133a6565b9450505b50505b808060010191505061093c565b505f8167ffffffffffffffff811115610ba957610ba8612d77565b5b604051908082528060200260200182016040528015610bd75781602001602082028036833780820191505090505b5090505f5f90505b82811015610c2e57838181518110610bfa57610bf961334c565b5b6020026020010151828281518110610c1557610c1461334c565b5b6020026020010181815250508080600101915050610bdf565b5080965050505050505092915050565b610c466124d6565b600a5f8373ffffffffffffffffffffffffffffffffffffffff1673ffffffffffffffffffffffffffffffffffffffff1681526020019081526020015f206040518060400160405290815f82015481526020016001820154815250509050919050565b60035f9054906101000a900473ffffffffffffffffffffffffffffffffffffffff1681565b5f5f9054906101000a900473ffffffffffffffffffffffffffffffffffffffff1673ffffffffffffffffffffffffffffffffffffffff163373ffffffffffffffffffffffffffffffffffffffff1614610d5b576040517f08c379a0000000000000000000000000000000000000000000000000000000008152600401610d5290612d4f565b60405180910390fd5b8060078190555050565b5f5f9054906101000a900473ffffffffffffffffffffffffffffffffffffffff1673ffffffffffffffffffffffffffffffffffffffff163373ffffffffffffffffffffffffffffffffffffffff1614610df3576040517f08c379a0000000000000000000000000000000000000000000000000000000008152600401610dea90612d4f565b60405180910390fd5b8060055f6101000a81548173ffffffffffffffffffffffffffffffffffffffff021916908373ffffffffffffffffffffffffffffffffffffffff16021790555050565b60045f9054906101000a900473ffffffffffffffffffffffffffffffffffffffff1681565b60068054610e6890612dd1565b80601f0160208091040260200160405190810160405280929190818152602001828054610e9490612dd1565b8015610edf5780601f10610eb657610100808354040283529160200191610edf565b820191905f5260205f20905b815481529060010190602001808311610ec257829003601f168201915b505050505081565b5f5f9054906101000a900473ffffffffffffffffffffffffffffffffffffffff1673ffffffffffffffffffffffffffffffffffffffff163373ffffffffffffffffffffffffffffffffffffffff1614610f75576040517f08c379a0000000000000000000000000000000000000000000000000000000008152600401610f6c90612d4f565b60405180910390fd5b610f7e81611e2f565b50565b60025f9054906101000a900473ffffffffffffffffffffffffffffffffffffffff1681565b60015f9054906101000a900473ffffffffffffffffffffffffffffffffffffffff1681565b5f5f5f9054906101000a900473ffffffffffffffffffffffffffffffffffffffff16905090565b5f600c80549050905090565b60055f9054906101000a900473ffffffffffffffffffffffffffffffffffffffff1681565b5f600c80549050821061106b576040517f08c379a000000000000000000000000000000000000000000000000000000000815260040161106290613437565b60405180910390fd5b600c828154811061107f5761107e61334c565b5b905f5260205f20015f9054906101000a900473ffffffffffffffffffffffffffffffffffffffff169050919050565b5f81036110e6576040517ebfc92100000000000000000000000000000000000000000000000000000000815260040160405180910390fd5b5f60085f8481526020019081526020015f209050806002015f9054906101000a900460ff1615611142576040517fae1482aa00000000000000000000000000000000000000000000000000000000815260040160405180910390fd5b33815f015f6101000a81548173ffffffffffffffffffffffffffffffffffffffff021916908373ffffffffffffffffffffffffffffffffffffffff1602179055508181600101819055506001816002015f6101000a81548160ff0219169083151502179055503373ffffffffffffffffffffffffffffffffffffffff16837f2e6cdc5c245866ae9a44527a8aff4a7619f3f2339af3431438fccc3313194506846040516111ef9190612773565b60405180910390a3600d5f3373ffffffffffffffffffffffffffffffffffffffff1673ffffffffffffffffffffffffffffffffffffffff1681526020019081526020015f205f9054906101000a900460ff166112fb576001600d5f3373ffffffffffffffffffffffffffffffffffffffff1673ffffffffffffffffffffffffffffffffffffffff1681526020019081526020015f205f6101000a81548160ff021916908315150217905550600c33908060018154018082558091505060019003905f5260205f20015f9091909190916101000a81548173ffffffffffffffffffffffffffffffffffffffff021916908373ffffffffffffffffffffffffffffffffffffffff1602179055505b505050565b5f60085f8381526020019081526020015f2090505f73ffffffffffffffffffffffffffffffffffffffff16815f015f9054906101000a900473ffffffffffffffffffffffffffffffffffffffff1673ffffffffffffffffffffffffffffffffffffffff160361139b576040517f119dcfc000000000000000000000000000000000000000000000000000000000815260040160405180910390fd5b806002015f9054906101000a900460ff166113e2576040517fa355f50700000000000000000000000000000000000000000000000000000000815260040160405180910390fd5b5f3390505f825f015f9054906101000a900473ffffffffffffffffffffffffffffffffffffffff1690505f8360010154905060095f8681526020019081526020015f205f8473ffffffffffffffffffffffffffffffffffffffff1673ffffffffffffffffffffffffffffffffffffffff1681526020019081526020015f205f9054906101000a900460ff16156114a4576040517f3367b55400000000000000000000000000000000000000000000000000000000815260040160405180910390fd5b5f600a5f8573ffffffffffffffffffffffffffffffffffffffff1673ffffffffffffffffffffffffffffffffffffffff1681526020019081526020015f2090505f815f01541480156114f757505f600754115b156115885760045f9054906101000a900473ffffffffffffffffffffffffffffffffffffffff1673ffffffffffffffffffffffffffffffffffffffff166340c10f19856007546040518363ffffffff1660e01b815260040161155a9291906132fa565b5f604051808303815f87803b158015611571575f5ffd5b505af1158015611583573d5f5f3e3d5ffd5b505050505b60045f9054906101000a900473ffffffffffffffffffffffffffffffffffffffff1673ffffffffffffffffffffffffffffffffffffffff166323b872dd8585856040518463ffffffff1660e01b81526004016115e693929190613455565b6020604051808303815f875af1158015611602573d5f5f3e3d5ffd5b505050506040513d601f19601f820116820180604052508101906116269190613321565b611665576040517f08c379a000000000000000000000000000000000000000000000000000000000815260040161165c906134d4565b60405180910390fd5b6001856003015f82825461167991906134f2565b92505081905550600160095f8881526020019081526020015f205f8673ffffffffffffffffffffffffffffffffffffffff1673ffffffffffffffffffffffffffffffffffffffff1681526020019081526020015f205f6101000a81548160ff02191690831515021790555061177684600680546116f590612dd1565b80601f016020809104026020016040519081016040528092919081815260200182805461172190612dd1565b801561176c5780601f106117435761010080835404028352916020019161176c565b820191905f5260205f20905b81548152906001019060200180831161174f57829003601f168201915b5050505050611ee0565b6001815f015f82825461178991906134f2565b9250508190555081816001015f8282546117a391906134f2565b925050819055505f600b5f8573ffffffffffffffffffffffffffffffffffffffff1673ffffffffffffffffffffffffffffffffffffffff1681526020019081526020015f2090506001815f015f8282546117fd91906134f2565b9250508190555082816001015f82825461181791906134f2565b92505081905550611831855f845f0154856001015461201f565b611845846001835f0154846001015461201f565b5f73ffffffffffffffffffffffffffffffffffffffff1660055f9054906101000a900473ffffffffffffffffffffffffffffffffffffffff1673ffffffffffffffffffffffffffffffffffffffff16146119e25760055f9054906101000a900473ffffffffffffffffffffffffffffffffffffffff1673ffffffffffffffffffffffffffffffffffffffff166333020066866040518060400160405280865f0154815260200186600101548152506040518363ffffffff1660e01b8152600401611910929190613552565b5f604051808303815f87803b158015611927575f5ffd5b505af1158015611939573d5f5f3e3d5ffd5b5050505060055f9054906101000a900473ffffffffffffffffffffffffffffffffffffffff1673ffffffffffffffffffffffffffffffffffffffff16638a00bc98856040518060400160405280855f0154815260200185600101548152506040518363ffffffff1660e01b81526004016119b49291906135a6565b5f604051808303815f87803b1580156119cb575f5ffd5b505af11580156119dd573d5f5f3e3d5ffd5b505050505b868473ffffffffffffffffffffffffffffffffffffffff168673ffffffffffffffffffffffffffffffffffffffff167e623294dbc14a8f7fff0691e6022921ec627d46089766686ddf2faa707e589d86604051611a3f9190612773565b60405180910390a450505050505050565b5f5f9054906101000a900473ffffffffffffffffffffffffffffffffffffffff1673ffffffffffffffffffffffffffffffffffffffff163373ffffffffffffffffffffffffffffffffffffffff1614611ade576040517f08c379a0000000000000000000000000000000000000000000000000000000008152600401611ad590612d4f565b60405180910390fd5b5f73ffffffffffffffffffffffffffffffffffffffff168173ffffffffffffffffffffffffffffffffffffffff1603611b4c576040517f08c379a0000000000000000000000000000000000000000000000000000000008152600401611b4390613617565b60405180910390fd5b611b5581612245565b50565b611b606124ee565b600b5f8373ffffffffffffffffffffffffffffffffffffffff1673ffffffffffffffffffffffffffffffffffffffff1681526020019081526020015f206040518060400160405290815f82015481526020016001820154815250509050919050565b5f73ffffffffffffffffffffffffffffffffffffffff168173ffffffffffffffffffffffffffffffffffffffff1603611c30576040517f08c379a0000000000000000000000000000000000000000000000000000000008152600401611c279061367f565b60405180910390fd5b8060025f6101000a81548173ffffffffffffffffffffffffffffffffffffffff021916908373ffffffffffffffffffffffffffffffffffffffff16021790555050565b5f5f5f6001811115611c8857611c8761369d565b5b836001811115611c9b57611c9a61369d565b5b03611d11575f600a5f8673ffffffffffffffffffffffffffffffffffffffff1673ffffffffffffffffffffffffffffffffffffffff1681526020019081526020015f206040518060400160405290815f82015481526020016001820154815250509050805f015192508060200151915050611d7e565b5f600b5f8673ffffffffffffffffffffffffffffffffffffffff1673ffffffffffffffffffffffffffffffffffffffff1681526020019081526020015f206040518060400160405290815f82015481526020016001820154815250509050805f0151925080602001519150505b9250929050565b5f8260a001518015611dbe57505f6001811115611da557611da461369d565b5b83602001516001811115611dbc57611dbb61369d565b5b145b8015611df15750816001811115611dd857611dd761369d565b5b83604001516001811115611def57611dee61369d565b5b145b905092915050565b5f5f846060015103611e0e5760019050611e28565b836060015183101580611e25575083606001518210155b90505b9392505050565b5f73ffffffffffffffffffffffffffffffffffffffff168173ffffffffffffffffffffffffffffffffffffffff1603611e9d576040517f08c379a0000000000000000000000000000000000000000000000000000000008152600401611e949061373a565b60405180910390fd5b8060035f6101000a81548173ffffffffffffffffffffffffffffffffffffffff021916908373ffffffffffffffffffffffffffffffffffffffff16021790555050565b60015f9054906101000a900473ffffffffffffffffffffffffffffffffffffffff1673ffffffffffffffffffffffffffffffffffffffff1663237f1a21836040518263ffffffff1660e01b8152600401611f3a9190612c2f565b602060405180830381865afa158015611f55573d5f5f3e3d5ffd5b505050506040513d601f19601f82011682018060405250810190611f799190613321565b61201b5760015f9054906101000a900473ffffffffffffffffffffffffffffffffffffffff1673ffffffffffffffffffffffffffffffffffffffff1663a3c06bfd83836040518363ffffffff1660e01b8152600401611fd9929190613758565b6020604051808303815f875af1158015611ff5573d5f5f3e3d5ffd5b505050506040513d601f19601f820116820180604052508101906120199190613079565b505b5050565b5f60035f9054906101000a900473ffffffffffffffffffffffffffffffffffffffff1673ffffffffffffffffffffffffffffffffffffffff1663f6bcf6336040518163ffffffff1660e01b8152600401602060405180830381865afa15801561208a573d5f5f3e3d5ffd5b505050506040513d601f19601f820116820180604052508101906120ae9190613079565b90505f5f90505b8181101561223d575f60035f9054906101000a900473ffffffffffffffffffffffffffffffffffffffff1673ffffffffffffffffffffffffffffffffffffffff1663b54e8536836040518263ffffffff1660e01b81526004016121189190612773565b602060405180830381865afa158015612133573d5f5f3e3d5ffd5b505050506040513d601f19601f820116820180604052508101906121579190613079565b90505f60035f9054906101000a900473ffffffffffffffffffffffffffffffffffffffff1673ffffffffffffffffffffffffffffffffffffffff166348462037836040518263ffffffff1660e01b81526004016121b49190612773565b5f60405180830381865afa1580156121ce573d5f5f3e3d5ffd5b505050506040513d5f823e3d601f19601f820116820180604052508101906121f691906132b3565b90506122028188611d85565b61220d575050612230565b612218818787611df9565b612223575050612230565b61222d8882612306565b50505b80806001019150506120b5565b505050505050565b5f5f5f9054906101000a900473ffffffffffffffffffffffffffffffffffffffff169050815f5f6101000a81548173ffffffffffffffffffffffffffffffffffffffff021916908373ffffffffffffffffffffffffffffffffffffffff1602179055508173ffffffffffffffffffffffffffffffffffffffff168173ffffffffffffffffffffffffffffffffffffffff167f8be0079c531659141344cd1fd0a4f28419497f9722a3daafe3b4186f6b6457e060405160405180910390a35050565b60025f9054906101000a900473ffffffffffffffffffffffffffffffffffffffff1673ffffffffffffffffffffffffffffffffffffffff16634c6a70ce83835f01516040518363ffffffff1660e01b81526004016123659291906132fa565b602060405180830381865afa158015612380573d5f5f3e3d5ffd5b505050506040513d601f19601f820116820180604052508101906123a49190613321565b6124965760025f9054906101000a900473ffffffffffffffffffffffffffffffffffffffff1673ffffffffffffffffffffffffffffffffffffffff16632edf741f83835f015184608001516040518463ffffffff1660e01b815260040161240d93929190613786565b6020604051808303815f875af1158015612429573d5f5f3e3d5ffd5b505050506040513d601f19601f8201168201806040525081019061244d9190613079565b50805f01518273ffffffffffffffffffffffffffffffffffffffff167f1538e5a8b6d7b9193ea22abf96eb33aa999b6bc1d9728157028f859e32dc2dbb60405160405180910390a35b5050565b60405180608001604052805f73ffffffffffffffffffffffffffffffffffffffff1681526020015f81526020015f151581526020015f81525090565b60405180604001604052805f81526020015f81525090565b60405180604001604052805f81526020015f81525090565b5f604051905090565b5f5ffd5b5f5ffd5b5f5ffd5b5f5ffd5b5f5ffd5b5f5f83601f84011261253857612537612517565b5b8235905067ffffffffffffffff8111156125555761255461251b565b5b6020830191508360018202830111156125715761257061251f565b5b9250929050565b5f5f6020838503121561258e5761258d61250f565b5b5f83013567ffffffffffffffff8111156125ab576125aa612513565b5b6125b785828601612523565b92509250509250929050565b5f819050919050565b6125d5816125c3565b81146125df575f5ffd5b50565b5f813590506125f0816125cc565b92915050565b5f6020828403121561260b5761260a61250f565b5b5f612618848285016125e2565b91505092915050565b5f73ffffffffffffffffffffffffffffffffffffffff82169050919050565b5f61264a82612621565b9050919050565b61265a81612640565b82525050565b5f819050919050565b61267281612660565b82525050565b5f8115159050919050565b61268c81612678565b82525050565b608082015f8201516126a65f850182612651565b5060208201516126b96020850182612669565b5060408201516126cc6040850182612683565b5060608201516126df6060850182612669565b50505050565b5f6080820190506126f85f830184612692565b92915050565b5f61270882612640565b9050919050565b612718816126fe565b8114612722575f5ffd5b50565b5f813590506127338161270f565b92915050565b5f6020828403121561274e5761274d61250f565b5b5f61275b84828501612725565b91505092915050565b61276d81612660565b82525050565b5f6020820190506127865f830184612764565b92915050565b61279581612640565b811461279f575f5ffd5b50565b5f813590506127b08161278c565b92915050565b600281106127c2575f5ffd5b50565b5f813590506127d3816127b6565b92915050565b5f5f604083850312156127ef576127ee61250f565b5b5f6127fc858286016127a2565b925050602061280d858286016127c5565b9150509250929050565b5f81519050919050565b5f82825260208201905092915050565b5f819050602082019050919050565b5f61284b8383612669565b60208301905092915050565b5f602082019050919050565b5f61286d82612817565b6128778185612821565b935061288283612831565b805f5b838110156128b25781516128998882612840565b97506128a483612857565b925050600181019050612885565b5085935050505092915050565b5f6020820190508181035f8301526128d78184612863565b905092915050565b5f602082840312156128f4576128f361250f565b5b5f612901848285016127a2565b91505092915050565b604082015f82015161291e5f850182612669565b5060208201516129316020850182612669565b50505050565b5f60408201905061294a5f83018461290a565b92915050565b5f819050919050565b5f61297361296e61296984612621565b612950565b612621565b9050919050565b5f61298482612959565b9050919050565b5f6129958261297a565b9050919050565b6129a58161298b565b82525050565b5f6020820190506129be5f83018461299c565b92915050565b6129cd81612660565b81146129d7575f5ffd5b50565b5f813590506129e8816129c4565b92915050565b5f60208284031215612a0357612a0261250f565b5b5f612a10848285016129da565b91505092915050565b5f612a2382612640565b9050919050565b612a3381612a19565b8114612a3d575f5ffd5b50565b5f81359050612a4e81612a2a565b92915050565b5f60208284031215612a6957612a6861250f565b5b5f612a7684828501612a40565b91505092915050565b5f612a898261297a565b9050919050565b612a9981612a7f565b82525050565b5f602082019050612ab25f830184612a90565b92915050565b5f81519050919050565b5f82825260208201905092915050565b8281835e5f83830152505050565b5f601f19601f8301169050919050565b5f612afa82612ab8565b612b048185612ac2565b9350612b14818560208601612ad2565b612b1d81612ae0565b840191505092915050565b5f6020820190508181035f830152612b408184612af0565b905092915050565b5f612b5282612640565b9050919050565b612b6281612b48565b8114612b6c575f5ffd5b50565b5f81359050612b7d81612b59565b92915050565b5f60208284031215612b9857612b9761250f565b5b5f612ba584828501612b6f565b91505092915050565b5f612bb88261297a565b9050919050565b612bc881612bae565b82525050565b5f602082019050612be15f830184612bbf565b92915050565b5f612bf18261297a565b9050919050565b612c0181612be7565b82525050565b5f602082019050612c1a5f830184612bf8565b92915050565b612c2981612640565b82525050565b5f602082019050612c425f830184612c20565b92915050565b5f612c528261297a565b9050919050565b612c6281612c48565b82525050565b5f602082019050612c7b5f830184612c59565b92915050565b5f5f60408385031215612c9757612c9661250f565b5b5f612ca4858286016125e2565b9250506020612cb5858286016129da565b9150509250929050565b604082015f820151612cd35f850182612669565b506020820151612ce66020850182612669565b50505050565b5f604082019050612cff5f830184612cbf565b92915050565b7f4f776e61626c653a206e6f74206f776e657200000000000000000000000000005f82015250565b5f612d39601283612ac2565b9150612d4482612d05565b602082019050919050565b5f6020820190508181035f830152612d6681612d2d565b9050919050565b5f82905092915050565b7f4e487b71000000000000000000000000000000000000000000000000000000005f52604160045260245ffd5b7f4e487b71000000000000000000000000000000000000000000000000000000005f52602260045260245ffd5b5f6002820490506001821680612de857607f821691505b602082108103612dfb57612dfa612da4565b5b50919050565b5f819050815f5260205f209050919050565b5f6020601f8301049050919050565b5f82821b905092915050565b5f60088302612e5d7fffffffffffffffffffffffffffffffffffffffffffffffffffffffffffffffff82612e22565b612e678683612e22565b95508019841693508086168417925050509392505050565b5f612e99612e94612e8f84612660565b612950565b612660565b9050919050565b5f819050919050565b612eb283612e7f565b612ec6612ebe82612ea0565b848454612e2e565b825550505050565b5f5f905090565b612edd612ece565b612ee8818484612ea9565b505050565b5b81811015612f0b57612f005f82612ed5565b600181019050612eee565b5050565b601f821115612f5057612f2181612e01565b612f2a84612e13565b81016020851015612f39578190505b612f4d612f4585612e13565b830182612eed565b50505b505050565b5f82821c905092915050565b5f612f705f1984600802612f55565b1980831691505092915050565b5f612f888383612f61565b9150826002028217905092915050565b612fa28383612d6d565b67ffffffffffffffff811115612fbb57612fba612d77565b5b612fc58254612dd1565b612fd0828285612f0f565b5f601f831160018114612ffd575f8415612feb578287013590505b612ff58582612f7d565b86555061305c565b601f19841661300b86612e01565b5f5b828110156130325784890135825560018201915060208501945060208101905061300d565b8683101561304f578489013561304b601f891682612f61565b8355505b6001600288020188555050505b50505050505050565b5f81519050613073816129c4565b92915050565b5f6020828403121561308e5761308d61250f565b5b5f61309b84828501613065565b91505092915050565b5f5ffd5b6130b182612ae0565b810181811067ffffffffffffffff821117156130d0576130cf612d77565b5b80604052505050565b5f6130e2612506565b90506130ee82826130a8565b919050565b5f5ffd5b60028110613103575f5ffd5b50565b5f81519050613114816130f7565b92915050565b5f81519050613128816127b6565b92915050565b5f5ffd5b5f67ffffffffffffffff82111561314c5761314b612d77565b5b61315582612ae0565b9050602081019050919050565b5f61317461316f84613132565b6130d9565b9050828152602081018484840111156131905761318f61312e565b5b61319b848285612ad2565b509392505050565b5f82601f8301126131b7576131b6612517565b5b81516131c7848260208601613162565b91505092915050565b6131d981612678565b81146131e3575f5ffd5b50565b5f815190506131f4816131d0565b92915050565b5f60c0828403121561320f5761320e6130a4565b5b61321960c06130d9565b90505f61322884828501613065565b5f83015250602061323b84828501613106565b602083015250604061324f8482850161311a565b604083015250606061326384828501613065565b606083015250608082015167ffffffffffffffff811115613287576132866130f3565b5b613293848285016131a3565b60808301525060a06132a7848285016131e6565b60a08301525092915050565b5f602082840312156132c8576132c761250f565b5b5f82015167ffffffffffffffff8111156132e5576132e4612513565b5b6132f1848285016131fa565b91505092915050565b5f60408201905061330d5f830185612c20565b61331a6020830184612764565b9392505050565b5f602082840312156133365761333561250f565b5b5f613343848285016131e6565b91505092915050565b7f4e487b71000000000000000000000000000000000000000000000000000000005f52603260045260245ffd5b7f4e487b71000000000000000000000000000000000000000000000000000000005f52601160045260245ffd5b5f6133b082612660565b91507fffffffffffffffffffffffffffffffffffffffffffffffffffffffffffffffff82036133e2576133e1613379565b5b600182019050919050565b7f4d61726b6574706c6163653a20696e646578206f7574206f6620626f756e64735f82015250565b5f613421602083612ac2565b915061342c826133ed565b602082019050919050565b5f6020820190508181035f83015261344e81613415565b9050919050565b5f6060820190506134685f830186612c20565b6134756020830185612c20565b6134826040830184612764565b949350505050565b7f4d61726b6574706c6163653a207472616e73666572206661696c6564000000005f82015250565b5f6134be601c83612ac2565b91506134c98261348a565b602082019050919050565b5f6020820190508181035f8301526134eb816134b2565b9050919050565b5f6134fc82612660565b915061350783612660565b925082820190508082111561351f5761351e613379565b5b92915050565b604082015f8201516135395f850182612669565b50602082015161354c6020850182612669565b50505050565b5f6060820190506135655f830185612c20565b6135726020830184613525565b9392505050565b604082015f82015161358d5f850182612669565b5060208201516135a06020850182612669565b50505050565b5f6060820190506135b95f830185612c20565b6135c66020830184613579565b9392505050565b7f4f776e61626c653a207a65726f206164647265737300000000000000000000005f82015250565b5f613601601583612ac2565b915061360c826135cd565b602082019050919050565b5f6020820190508181035f83015261362e816135f5565b9050919050565b7f52657075746174696f6e436f6e74726f6c6c65723a207a65726f2062616467655f82015250565b5f613669602083612ac2565b915061367482613635565b602082019050919050565b5f6020820190508181035f8301526136968161365d565b9050919050565b7f4e487b71000000000000000000000000000000000000000000000000000000005f52602160045260245ffd5b7f52657075746174696f6e436f6e74726f6c6c65723a207a65726f2072656769735f8201527f7472790000000000000000000000000000000000000000000000000000000000602082015250565b5f613724602383612ac2565b915061372f826136ca565b604082019050919050565b5f6020820190508181035f83015261375181613718565b9050919050565b5f60408201905061376b5f830185612c20565b818103602083015261377d8184612af0565b90509392505050565b5f6060820190506137995f830186612c20565b6137a66020830185612764565b81810360408301526137b88184612af0565b905094935050505056fea2646970667358221220ec23f036a2e032688ab4d92156913c2b40d3e7fb765fd1dca91a185a2a1b942d64736f6c634300081e0033","linkReferences":{}},"methodIdentifiers":{"badgeRuleRegistry()":"58fa4367","buyerWelcomeAmount()":"4cb33a2f","creatorAt(uint256)":"a5929815","creatorRegistryLength()":"9b2490b1","dataFeed()":"9e42ff90","deactivateWork(bytes32)":"42740fa0","getBuyerStat(address)":"57e1b8ef","getCreatorStat(address)":"fcacff6d","getEligibleRules(address,uint8)":"50b4ca2e","getWork(bytes32)":"30266537","identityMetadataURI()":"7daf2caf","identityToken()":"8a31c255","listWork(bytes32,uint256)":"b9a364c4","owner()":"8da5cb5b","purchase(bytes32)":"cc445611","reputationBadge()":"828184e6","setBadgeContract(address)":"47d212da","setBadgeRuleRegistry(address)":"824a2437","setBuyerWelcomeAmount(uint256)":"6438046b","setDataFeed(address)":"67e15f1b","setIdentityMetadataURI(string)":"0261d756","settlementToken()":"7b9e618d","transferOwnership(address)":"f2fde38b"},"id":22}