{"abi":[{"type":"function","name":"createRule","inputs":[{"name":"input","type":"tuple","internalType":"struct BadgeRuleRegistry.BadgeRuleInput","components":[{"name":"ruleId","type":"uint256","internalType":"uint256"},{"name":"trigger","type":"uint8","internalType":"enum BadgeRuleRegistry.TriggerType"},{"name":"target","type":"uint8","internalType":"enum BadgeRuleRegistry.BadgeTarget"},{"name":"threshold","type":"uint256","internalType":"uint256"},{"name":"metadataURI","type":"string","internalType":"string"},{"name":"enabled","type":"bool","internalType":"bool"}]}],"outputs":[],"stateMutability":"nonpayable"},{"type":"function","name":"getRule","inputs":[{"name":"ruleId","type":"uint256","internalType":"uint256"}],"outputs":[{"name":"","type":"tuple","internalType":"struct BadgeRuleRegistry.BadgeRule","components":[{"name":"ruleId","type":"uint256","internalType":"uint256"},{"name":"trigger","type":"uint8","internalType":"enum BadgeRuleRegistry.TriggerType"},{"name":"target","type":"uint8","internalType":"enum BadgeRuleRegistry.BadgeTarget"},{"name":"threshold","type":"uint256","internalType":"uint256"},{"name":"metadataURI","type":"string","internalType":"string"},{"name":"enabled","type":"bool","internalType":"bool"}]}],"stateMutability":"view"},{"type":"function","name":"owner","inputs":[],"outputs":[{"name":"","type":"address","internalType":"address"}],"stateMutability":"view"},{"type":"function","name":"ruleCount","inputs":[],"outputs":[{"name":"","type":"uint256","internalType":"uint256"}],"stateMutability":"view"},{"type":"function","name":"ruleExists","inputs":[{"name":"ruleId","type":"uint256","internalType":"uint256"}],"outputs":[{"name":"","type":"bool","internalType":"bool"}],"stateMutability":"view"},{"type":"function","name":"ruleIdAt","inputs":[{"name":"index","type":"uint256","internalType":"uint256"}],"outputs":[{"name":"","type":"uint256","internalType":"uint256"}],"stateMutability":"view"},{"type":"function","name":"setRuleStatus","inputs":[{"name":"ruleId","type":"uint256","internalType":"uint256"},{"name":"enabled","type":"bool","internalType":"bool"}],"outputs":[],"stateMutability":"nonpayable"},{"type":"function","name":"transferOwnership","inputs":[{"name":"newOwner","type":"address","internalType":"address"}],"outputs":[],"stateMutability":"nonpayable"},{"type":"function","name":"updateRule","inputs":[{"name":"ruleId","type":"uint256","internalType":"uint256"},{"name":"metadataURI","type":"string","internalType":"string"}],"outputs":[],"stateMutability":"nonpayable"},{"type":"event","name":"BadgeRuleCreated","inputs":[{"name":"ruleId","type":"uint256","indexed":true,"internalType":"uint256"},{"name":"trigger","type":"uint8","indexed":false,"internalType":"enum BadgeRuleRegistry.TriggerType"},{"name":"target","type":"uint8","indexed":false,"internalType":"enum BadgeRuleRegistry.BadgeTarget"},{"name":"threshold","type":"uint256","indexed":false,"internalType":"uint256"},{"name":"metadataURI","type":"string","indexed":false,"internalType":"string"},{"name":"enabled","type":"bool","indexed":false,"internalType":"bool"}],"anonymous":false},{"type":"event","name":"BadgeRuleStatusChanged","inputs":[{"name":"ruleId","type":"uint256","indexed":true,"internalType":"uint256"},{"name":"enabled","type":"bool","indexed":false,"internalType":"bool"}],"anonymous":false},{"type":"event","name":"BadgeRuleUpdated","inputs":[{"name":"ruleId","type":"uint256","indexed":true,"internalType":"uint256"},{"name":"trigger","type":"uint8","indexed":false,"internalType":"enum BadgeRuleRegistry.TriggerType"},{"name":"target","type":"uint8","indexed":false,"internalType":"enum BadgeRuleRegistry.BadgeTarget"},{"name":"threshold","type":"uint256","indexed":false,"internalType":"uint256"},{"name":"metadataURI","type":"string","indexed":false,"internalType":"string"}],"anonymous":false},{"type":"event","name":"OwnershipTransferred","inputs":[{"name":"previousOwner","type":"address","indexed":true,"internalType":"address"},{"name":"newOwner","type":"address","indexed":true,"internalType":"address"}],"anonymous":false},{"type":"error","name":"RuleAlreadyExists","inputs":[{"name":"ruleId","type":"uint256","internalType":"uint256"}]},{"type":"error","name":"RuleNotFound","inputs":[{"name":"ruleId","type":"uint256","internalType":"uint256"}]}],"bytecode":{"object":"0x6080604052348015600e575f5ffd5b50601c33602060201b60201c565b60e1565b5f5f5f9054906101000a900473ffffffffffffffffffffffffffffffffffffffff169050815f5f6101000a81548173ffffffffffffffffffffffffffffffffffffffff021916908373ffffffffffffffffffffffffffffffffffffffff1602179055508173ffffffffffffffffffffffffffffffffffffffff168173ffffffffffffffffffffffffffffffffffffffff167f8be0079c531659141344cd1fd0a4f28419497f9722a3daafe3b4186f6b6457e060405160405180910390a35050565b611923806100ee5f395ff3fe608060405234801561000f575f5ffd5b5060043610610091575f3560e01c80638fd485d6116100645780638fd485d61461011b578063ade466c114610137578063b54e853614610167578063f2fde38b14610197578063f6bcf633146101b357610091565b806330c16ba81461009557806341d505f9146100b157806348462037146100cd5780638da5cb5b146100fd575b5f5ffd5b6100af60048036038101906100aa9190610d01565b6101d1565b005b6100cb60048036038101906100c69190610d93565b610339565b005b6100e760048036038101906100e29190610dd1565b61049c565b6040516100f49190610fc9565b60405180910390f35b610105610645565b6040516101129190611028565b60405180910390f35b61013560048036038101906101309190611063565b61066c565b005b610151600480360381019061014c9190610dd1565b6109ae565b60405161015e91906110b9565b60405180910390f35b610181600480360381019061017c9190610dd1565b6109cd565b60405161018e91906110e1565b60405180910390f35b6101b160048036038101906101ac9190611124565b610a39565b005b6101bb610b41565b6040516101c891906110e1565b60405180910390f35b5f5f9054906101000a900473ffffffffffffffffffffffffffffffffffffffff1673ffffffffffffffffffffffffffffffffffffffff163373ffffffffffffffffffffffffffffffffffffffff161461025f576040517f08c379a0000000000000000000000000000000000000000000000000000000008152600401610256906111a9565b60405180910390fd5b5f60015f8581526020019081526020015f2090505f815f0154036102ba57836040517f38eeb5bd0000000000000000000000000000000000000000000000000000000081526004016102b191906110e1565b60405180910390fd5b82828260030191826102cd9291906113fb565b50837fd92d305fd9a443b45ccb444bf74438ebf8d5d1e95377d6e7c2d7d08e81b85f22826001015f9054906101000a900460ff168360010160019054906101000a900460ff168460020154878760405161032b959493929190611520565b60405180910390a250505050565b5f5f9054906101000a900473ffffffffffffffffffffffffffffffffffffffff1673ffffffffffffffffffffffffffffffffffffffff163373ffffffffffffffffffffffffffffffffffffffff16146103c7576040517f08c379a00000000000000000000000000000000000000000000000000000000081526004016103be906111a9565b60405180910390fd5b5f60015f8481526020019081526020015f2090505f815f01540361042257826040517f38eeb5bd00000000000000000000000000000000000000000000000000000000815260040161041991906110e1565b60405180910390fd5b811515816004015f9054906101000a900460ff161515036104435750610498565b81816004015f6101000a81548160ff021916908315150217905550827f8ba10f021c29009933167220373dcb848fdee2e3133bc6f8635e35b53a7287b08360405161048e91906110b9565b60405180910390a2505b5050565b6104a4610c0e565b5f60015f8481526020019081526020015f206040518060c00160405290815f8201548152602001600182015f9054906101000a900460ff1660018111156104ee576104ed610e0b565b5b6001811115610500576104ff610e0b565b5b81526020016001820160019054906101000a900460ff16600181111561052957610528610e0b565b5b600181111561053b5761053a610e0b565b5b8152602001600282015481526020016003820180546105599061122b565b80601f01602080910402602001604051908101604052809291908181526020018280546105859061122b565b80156105d05780601f106105a7576101008083540402835291602001916105d0565b820191905f5260205f20905b8154815290600101906020018083116105b357829003601f168201915b50505050508152602001600482015f9054906101000a900460ff16151515158152505090505f815f01510361063c57826040517f38eeb5bd00000000000000000000000000000000000000000000000000000000815260040161063391906110e1565b60405180910390fd5b80915050919050565b5f5f5f9054906101000a900473ffffffffffffffffffffffffffffffffffffffff16905090565b5f5f9054906101000a900473ffffffffffffffffffffffffffffffffffffffff1673ffffffffffffffffffffffffffffffffffffffff163373ffffffffffffffffffffffffffffffffffffffff16146106fa576040517f08c379a00000000000000000000000000000000000000000000000000000000081526004016106f1906111a9565b60405180910390fd5b5f60015f835f013581526020019081526020015f205f01541461075757805f01356040517f1fbbc87100000000000000000000000000000000000000000000000000000000815260040161074e91906110e1565b60405180910390fd5b6040518060c00160405280825f0135815260200182602001602081019061077e919061158f565b60018111156107905761078f610e0b565b5b81526020018260400160208101906107a891906115dd565b60018111156107ba576107b9610e0b565b5b8152602001826060013581526020018280608001906107d99190611614565b8080601f0160208091040260200160405190810160405280939291908181526020018383808284375f81840152601f19601f8201169050808301925050505050505081526020018260a00160208101906108339190611676565b151581525060015f835f013581526020019081526020015f205f820151815f01556020820151816001015f6101000a81548160ff0219169083600181111561087e5761087d610e0b565b5b021790555060408201518160010160016101000a81548160ff021916908360018111156108ae576108ad610e0b565b5b02179055506060820151816002015560808201518160030190816108d291906116a1565b5060a0820151816004015f6101000a81548160ff0219169083151502179055509050506002815f0135908060018154018082558091505060019003905f5260205f20015f9091909190915055805f01357f78a158709a3266e040b9789e2fd744c3126a94d523ccdaa338f9abd45d36adae826020016020810190610956919061158f565b83604001602081019061096991906115dd565b846060013585806080019061097e9190611614565b8760a00160208101906109919190611676565b6040516109a396959493929190611770565b60405180910390a250565b5f5f60015f8481526020019081526020015f205f015414159050919050565b5f6002805490508210610a15576040517f08c379a0000000000000000000000000000000000000000000000000000000008152600401610a0c9061183a565b60405180910390fd5b60028281548110610a2957610a28611858565b5b905f5260205f2001549050919050565b5f5f9054906101000a900473ffffffffffffffffffffffffffffffffffffffff1673ffffffffffffffffffffffffffffffffffffffff163373ffffffffffffffffffffffffffffffffffffffff1614610ac7576040517f08c379a0000000000000000000000000000000000000000000000000000000008152600401610abe906111a9565b60405180910390fd5b5f73ffffffffffffffffffffffffffffffffffffffff168173ffffffffffffffffffffffffffffffffffffffff1603610b35576040517f08c379a0000000000000000000000000000000000000000000000000000000008152600401610b2c906118cf565b60405180910390fd5b610b3e81610b4d565b50565b5f600280549050905090565b5f5f5f9054906101000a900473ffffffffffffffffffffffffffffffffffffffff169050815f5f6101000a81548173ffffffffffffffffffffffffffffffffffffffff021916908373ffffffffffffffffffffffffffffffffffffffff1602179055508173ffffffffffffffffffffffffffffffffffffffff168173ffffffffffffffffffffffffffffffffffffffff167f8be0079c531659141344cd1fd0a4f28419497f9722a3daafe3b4186f6b6457e060405160405180910390a35050565b6040518060c001604052805f81526020015f6001811115610c3257610c31610e0b565b5b81526020015f6001811115610c4a57610c49610e0b565b5b81526020015f8152602001606081526020015f151581525090565b5f5ffd5b5f5ffd5b5f819050919050565b610c7f81610c6d565b8114610c89575f5ffd5b50565b5f81359050610c9a81610c76565b92915050565b5f5ffd5b5f5ffd5b5f5ffd5b5f5f83601f840112610cc157610cc0610ca0565b5b8235905067ffffffffffffffff811115610cde57610cdd610ca4565b5b602083019150836001820283011115610cfa57610cf9610ca8565b5b9250929050565b5f5f5f60408486031215610d1857610d17610c65565b5b5f610d2586828701610c8c565b935050602084013567ffffffffffffffff811115610d4657610d45610c69565b5b610d5286828701610cac565b92509250509250925092565b5f8115159050919050565b610d7281610d5e565b8114610d7c575f5ffd5b50565b5f81359050610d8d81610d69565b92915050565b5f5f60408385031215610da957610da8610c65565b5b5f610db685828601610c8c565b9250506020610dc785828601610d7f565b9150509250929050565b5f60208284031215610de657610de5610c65565b5b5f610df384828501610c8c565b91505092915050565b610e0581610c6d565b82525050565b7f4e487b71000000000000000000000000000000000000000000000000000000005f52602160045260245ffd5b60028110610e4957610e48610e0b565b5b50565b5f819050610e5982610e38565b919050565b5f610e6882610e4c565b9050919050565b610e7881610e5e565b82525050565b60028110610e8f57610e8e610e0b565b5b50565b5f819050610e9f82610e7e565b919050565b5f610eae82610e92565b9050919050565b610ebe81610ea4565b82525050565b5f81519050919050565b5f82825260208201905092915050565b8281835e5f83830152505050565b5f601f19601f8301169050919050565b5f610f0682610ec4565b610f108185610ece565b9350610f20818560208601610ede565b610f2981610eec565b840191505092915050565b610f3d81610d5e565b82525050565b5f60c083015f830151610f585f860182610dfc565b506020830151610f6b6020860182610e6f565b506040830151610f7e6040860182610eb5565b506060830151610f916060860182610dfc565b5060808301518482036080860152610fa98282610efc565b91505060a0830151610fbe60a0860182610f34565b508091505092915050565b5f6020820190508181035f830152610fe18184610f43565b905092915050565b5f73ffffffffffffffffffffffffffffffffffffffff82169050919050565b5f61101282610fe9565b9050919050565b61102281611008565b82525050565b5f60208201905061103b5f830184611019565b92915050565b5f5ffd5b5f60c0828403121561105a57611059611041565b5b81905092915050565b5f6020828403121561107857611077610c65565b5b5f82013567ffffffffffffffff81111561109557611094610c69565b5b6110a184828501611045565b91505092915050565b6110b381610d5e565b82525050565b5f6020820190506110cc5f8301846110aa565b92915050565b6110db81610c6d565b82525050565b5f6020820190506110f45f8301846110d2565b92915050565b61110381611008565b811461110d575f5ffd5b50565b5f8135905061111e816110fa565b92915050565b5f6020828403121561113957611138610c65565b5b5f61114684828501611110565b91505092915050565b5f82825260208201905092915050565b7f4f776e61626c653a206e6f74206f776e657200000000000000000000000000005f82015250565b5f61119360128361114f565b915061119e8261115f565b602082019050919050565b5f6020820190508181035f8301526111c081611187565b9050919050565b5f82905092915050565b7f4e487b71000000000000000000000000000000000000000000000000000000005f52604160045260245ffd5b7f4e487b71000000000000000000000000000000000000000000000000000000005f52602260045260245ffd5b5f600282049050600182168061124257607f821691505b602082108103611255576112546111fe565b5b50919050565b5f819050815f5260205f209050919050565b5f6020601f8301049050919050565b5f82821b905092915050565b5f600883026112b77fffffffffffffffffffffffffffffffffffffffffffffffffffffffffffffffff8261127c565b6112c1868361127c565b95508019841693508086168417925050509392505050565b5f819050919050565b5f6112fc6112f76112f284610c6d565b6112d9565b610c6d565b9050919050565b5f819050919050565b611315836112e2565b61132961132182611303565b848454611288565b825550505050565b5f5f905090565b611340611331565b61134b81848461130c565b505050565b5b8181101561136e576113635f82611338565b600181019050611351565b5050565b601f8211156113b3576113848161125b565b61138d8461126d565b8101602085101561139c578190505b6113b06113a88561126d565b830182611350565b50505b505050565b5f82821c905092915050565b5f6113d35f19846008026113b8565b1980831691505092915050565b5f6113eb83836113c4565b9150826002028217905092915050565b61140583836111c7565b67ffffffffffffffff81111561141e5761141d6111d1565b5b611428825461122b565b611433828285611372565b5f601f831160018114611460575f841561144e578287013590505b61145885826113e0565b8655506114bf565b601f19841661146e8661125b565b5f5b8281101561149557848901358255600182019150602085019450602081019050611470565b868310156114b257848901356114ae601f8916826113c4565b8355505b6001600288020188555050505b50505050505050565b6114d181610e5e565b82525050565b6114e081610ea4565b82525050565b828183375f83830152505050565b5f6114ff838561114f565b935061150c8385846114e6565b61151583610eec565b840190509392505050565b5f6080820190506115335f8301886114c8565b61154060208301876114d7565b61154d60408301866110d2565b81810360608301526115608184866114f4565b90509695505050505050565b60028110611578575f5ffd5b50565b5f813590506115898161156c565b92915050565b5f602082840312156115a4576115a3610c65565b5b5f6115b18482850161157b565b91505092915050565b600281106115c6575f5ffd5b50565b5f813590506115d7816115ba565b92915050565b5f602082840312156115f2576115f1610c65565b5b5f6115ff848285016115c9565b91505092915050565b5f5ffd5b5f5ffd5b5f5ffd5b5f5f833560016020038436030381126116305761162f611608565b5b80840192508235915067ffffffffffffffff8211156116525761165161160c565b5b60208301925060018202360383131561166e5761166d611610565b5b509250929050565b5f6020828403121561168b5761168a610c65565b5b5f61169884828501610d7f565b91505092915050565b6116aa82610ec4565b67ffffffffffffffff8111156116c3576116c26111d1565b5b6116cd825461122b565b6116d8828285611372565b5f60209050601f831160018114611709575f84156116f7578287015190505b61170185826113e0565b865550611768565b601f1984166117178661125b565b5f5b8281101561173e57848901518255600182019150602085019450602081019050611719565b8683101561175b5784890151611757601f8916826113c4565b8355505b6001600288020188555050505b505050505050565b5f60a0820190506117835f8301896114c8565b61179060208301886114d7565b61179d60408301876110d2565b81810360608301526117b08185876114f4565b90506117bf60808301846110aa565b979650505050505050565b7f426164676552756c6552656769737472793a20696e646578206f7574206f66205f8201527f626f756e64730000000000000000000000000000000000000000000000000000602082015250565b5f61182460268361114f565b915061182f826117ca565b604082019050919050565b5f6020820190508181035f83015261185181611818565b9050919050565b7f4e487b71000000000000000000000000000000000000000000000000000000005f52603260045260245ffd5b7f4f776e61626c653a207a65726f206164647265737300000000000000000000005f82015250565b5f6118b960158361114f565b91506118c482611885565b602082019050919050565b5f6020820190508181035f8301526118e6816118ad565b905091905056fea2646970667358221220e5ca6cdc70c9a9e06cf07997497cef2dece08ce9ab61ebe4851c6a3f48e1943764736f6c634300081e0033","linkReferences":{}},"methodIdentifiers":{"createRule((uint256,uint8,uint8,uint256,string,bool))":"8fd485d6","getRule(uint256)":"48462037","owner()":"8da5cb5b","ruleCount()":"f6bcf633","ruleExists(uint256)":"ade466c1","ruleIdAt(uint256)":"b54e8536","setRuleStatus(uint256,bool)":"41d505f9","transferOwnership(address)":"f2fde38b","updateRule(uint256,string)":"30c16ba8"},"id":20}