{
	"data": {
		"bytecode": {
			"linkReferences": {},
			"object": "6080604052348015600e575f5ffd5b506115258061001c5f395ff3fe6080604052600436106100eb575f3560e01c80638391454011610089578063c268f15811610058578063c268f15814610337578063d0e30db014610361578063e9fad8ee1461036b578063ff18bf0b1461038157610140565b8063839145401461028f578063a609fee3146102b9578063b3651149146102e3578063bd535fe21461030d57610140565b806343ad2977116100c557806343ad2977146101d25780634e71d92d146102115780635e5c06e214610227578063817b1cd21461026557610140565b80631a8ed624146101445780632e1a7d4d1461016e57806331d7a2621461019657610140565b36610140573373ffffffffffffffffffffffffffffffffffffffff167f69f707d6b29376bd44509015848d942efe0752e0bb6836541ac943b5d7372276346040516101369190610f04565b60405180910390a2005b5f5ffd5b34801561014f575f5ffd5b5061015861038b565b6040516101659190610f04565b60405180910390f35b348015610179575f5ffd5b50610194600480360381019061018f9190610f4b565b610390565b005b3480156101a1575f5ffd5b506101bc60048036038101906101b79190610fd0565b610568565b6040516101c99190610f04565b60405180910390f35b3480156101dd575f5ffd5b506101f860048036038101906101f39190610fd0565b61066b565b6040516102089493929190610ffb565b60405180910390f35b34801561021c575f5ffd5b5061022561077e565b005b348015610232575f5ffd5b5061024d60048036038101906102489190610fd0565b610915565b60405161025c93929190611060565b60405180910390f35b348015610270575f5ffd5b5061027961094e565b6040516102869190610f04565b60405180910390f35b34801561029a575f5ffd5b506102a3610954565b6040516102b09190610f04565b60405180910390f35b3480156102c4575f5ffd5b506102cd61095c565b6040516102da9190610f04565b60405180910390f35b3480156102ee575f5ffd5b506102f7610961565b6040516103049190610f04565b60405180910390f35b348015610318575f5ffd5b5061032161096d565b60405161032e9190610f04565b60405180910390f35b348015610342575f5ffd5b5061034b610981565b6040516103589190610f04565b60405180910390f35b610369610986565b005b348015610376575f5ffd5b5061037f610b0d565b005b610389610ba8565b005b606481565b5f5f54146103d3576040517f08c379a00000000000000000000000000000000000000000000000000000000081526004016103ca906110ef565b60405180910390fd5b60015f819055505f60015f3373ffffffffffffffffffffffffffffffffffffffff1673ffffffffffffffffffffffffffffffffffffffff1681526020019081526020015f2090505f821161045c576040517f08c379a000000000000000000000000000000000000000000000000000000000815260040161045390611157565b60405180910390fd5b81815f015410156104a2576040517f08c379a0000000000000000000000000000000000000000000000000000000008152600401610499906111bf565b60405180910390fd5b6104ab81610c3a565b81815f015f8282546104bd919061120a565b925050819055508160025f8282546104d5919061120a565b9250508190555042816002015f6101000a81548167ffffffffffffffff021916908367ffffffffffffffff1602179055506105103383610d6a565b3373ffffffffffffffffffffffffffffffffffffffff167f884edad9ce6fa2440d8a54cc123490eb96d2768479d49ff9c7366125a9424364836040516105569190610f04565b60405180910390a2505f5f8190555050565b5f5f60015f8473ffffffffffffffffffffffffffffffffffffffff1673ffffffffffffffffffffffffffffffffffffffff1681526020019081526020015f206040518060600160405290815f820154815260200160018201548152602001600282015f9054906101000a900467ffffffffffffffff1667ffffffffffffffff1667ffffffffffffffff168152505090505f815f0151148061061657505f816040015167ffffffffffffffff16145b15610628578060200151915050610666565b5f816040015167ffffffffffffffff1642610643919061120a565b9050610652825f015182610e17565b8260200151610661919061123d565b925050505b919050565b5f5f5f5f5f60015f8773ffffffffffffffffffffffffffffffffffffffff1673ffffffffffffffffffffffffffffffffffffffff1681526020019081526020015f206040518060600160405290815f820154815260200160018201548152602001600282015f9054906101000a900467ffffffffffffffff1667ffffffffffffffff1667ffffffffffffffff16815250509050805f01519450806020015193505f815f015111801561072a57505f816040015167ffffffffffffffff16115b1561075d575f816040015167ffffffffffffffff164261074a919061120a565b9050610759825f015182610e17565b9350505b82848661076a919061123d565b610774919061123d565b9150509193509193565b5f5f54146107c1576040517f08c379a00000000000000000000000000000000000000000000000000000000081526004016107b8906110ef565b60405180910390fd5b60015f819055505f60015f3373ffffffffffffffffffffffffffffffffffffffff1673ffffffffffffffffffffffffffffffffffffffff1681526020019081526020015f20905061081181610c3a565b5f816001015490505f811161085b576040517f08c379a0000000000000000000000000000000000000000000000000000000008152600401610852906112ba565b60405180910390fd5b5f61086461096d565b9050818110156108a9576040517f08c379a00000000000000000000000000000000000000000000000000000000081526004016108a090611322565b60405180910390fd5b5f83600101819055506108bc3383610d6a565b3373ffffffffffffffffffffffffffffffffffffffff167f47cee97cb7acd717b3c0aa1435d004cd5b3c8c57d70dbceb4e4458bbd60e39d4836040516109029190610f04565b60405180910390a25050505f5f81905550565b6001602052805f5260405f205f91509050805f015490806001015490806002015f9054906101000a900467ffffffffffffffff16905083565b60025481565b6301e1338081565b600581565b6702c68af0bb14000081565b5f6002544761097c919061120a565b905090565b600381565b5f5f54146109c9576040517f08c379a00000000000000000000000000000000000000000000000000000000081526004016109c0906110ef565b60405180910390fd5b60015f819055505f3411610a12576040517f08c379a0000000000000000000000000000000000000000000000000000000008152600401610a099061138a565b60405180910390fd5b5f60015f3373ffffffffffffffffffffffffffffffffffffffff1673ffffffffffffffffffffffffffffffffffffffff1681526020019081526020015f209050610a5b81610c3a565b34815f015f828254610a6d919061123d565b925050819055503460025f828254610a85919061123d565b9250508190555042816002015f6101000a81548167ffffffffffffffff021916908367ffffffffffffffff1602179055503373ffffffffffffffffffffffffffffffffffffffff167fe1fffcc4923d04b559f4d29a8bfc6cda04eb5b0d3c460751c2402c5c5cc9109c34604051610afc9190610f04565b60405180910390a2505f5f81905550565b610b5560015f3373ffffffffffffffffffffffffffffffffffffffff1673ffffffffffffffffffffffffffffffffffffffff1681526020019081526020015f205f0154610390565b5f60015f3373ffffffffffffffffffffffffffffffffffffffff1673ffffffffffffffffffffffffffffffffffffffff1681526020019081526020015f20600101541115610ba657610ba561077e565b5b565b5f3411610bea576040517f08c379a0000000000000000000000000000000000000000000000000000000008152600401610be19061138a565b60405180910390fd5b3373ffffffffffffffffffffffffffffffffffffffff167f69f707d6b29376bd44509015848d942efe0752e0bb6836541ac943b5d737227634604051610c309190610f04565b60405180910390a2565b5f815f015403610c735742816002015f6101000a81548167ffffffffffffffff021916908367ffffffffffffffff160217905550610d67565b5f816002015f9054906101000a900467ffffffffffffffff1667ffffffffffffffff1603610cca5742816002015f6101000a81548167ffffffffffffffff021916908367ffffffffffffffff160217905550610d67565b5f816002015f9054906101000a900467ffffffffffffffff1667ffffffffffffffff1642610cf8919061120a565b90505f8103610d075750610d67565b5f610d15835f015483610e17565b90505f811115610d3a5780836001015f828254610d32919061123d565b925050819055505b42836002015f6101000a81548167ffffffffffffffff021916908367ffffffffffffffff16021790555050505b50565b5f8273ffffffffffffffffffffffffffffffffffffffff1682604051610d8f906113d5565b5f6040518083038185875af1925050503d805f8114610dc9576040519150601f19603f3d011682016040523d82523d5f602084013e610dce565b606091505b5050905080610e12576040517f08c379a0000000000000000000000000000000000000000000000000000000008152600401610e0990611433565b60405180910390fd5b505050565b5f5f6702c68af0bb140000841115610e37576702c68af0bb140000610e39565b835b90505f6702c68af0bb1400008511610e51575f610e66565b6702c68af0bb14000085610e65919061120a565b5b90505f6301e133806064610e7a9190611451565b85600585610e889190611451565b610e929190611451565b610e9c91906114bf565b90505f6301e133806064610eb09190611451565b86600385610ebe9190611451565b610ec89190611451565b610ed291906114bf565b90508082610ee0919061123d565b94505050505092915050565b5f819050919050565b610efe81610eec565b82525050565b5f602082019050610f175f830184610ef5565b92915050565b5f5ffd5b610f2a81610eec565b8114610f34575f5ffd5b50565b5f81359050610f4581610f21565b92915050565b5f60208284031215610f6057610f5f610f1d565b5b5f610f6d84828501610f37565b91505092915050565b5f73ffffffffffffffffffffffffffffffffffffffff82169050919050565b5f610f9f82610f76565b9050919050565b610faf81610f95565b8114610fb9575f5ffd5b50565b5f81359050610fca81610fa6565b92915050565b5f60208284031215610fe557610fe4610f1d565b5b5f610ff284828501610fbc565b91505092915050565b5f60808201905061100e5f830187610ef5565b61101b6020830186610ef5565b6110286040830185610ef5565b6110356060830184610ef5565b95945050505050565b5f67ffffffffffffffff82169050919050565b61105a8161103e565b82525050565b5f6060820190506110735f830186610ef5565b6110806020830185610ef5565b61108d6040830184611051565b949350505050565b5f82825260208201905092915050565b7f5245454e5452414e4359000000000000000000000000000000000000000000005f82015250565b5f6110d9600a83611095565b91506110e4826110a5565b602082019050919050565b5f6020820190508181035f830152611106816110cd565b9050919050565b7f5a45524f5f414d4f554e540000000000000000000000000000000000000000005f82015250565b5f611141600b83611095565b915061114c8261110d565b602082019050919050565b5f6020820190508181035f83015261116e81611135565b9050919050565b7f494e53554646494349454e545f5052494e434950414c000000000000000000005f82015250565b5f6111a9601683611095565b91506111b482611175565b602082019050919050565b5f6020820190508181035f8301526111d68161119d565b9050919050565b7f4e487b71000000000000000000000000000000000000000000000000000000005f52601160045260245ffd5b5f61121482610eec565b915061121f83610eec565b9250828203905081811115611237576112366111dd565b5b92915050565b5f61124782610eec565b915061125283610eec565b925082820190508082111561126a576112696111dd565b5b92915050565b7f4e4f5f52455741524453000000000000000000000000000000000000000000005f82015250565b5f6112a4600a83611095565b91506112af82611270565b602082019050919050565b5f6020820190508181035f8301526112d181611298565b9050919050565b7f494e53554646494349454e545f5245574152445f504f4f4c00000000000000005f82015250565b5f61130c601883611095565b9150611317826112d8565b602082019050919050565b5f6020820190508181035f83015261133981611300565b9050919050565b7f4e4f5f56414c55450000000000000000000000000000000000000000000000005f82015250565b5f611374600883611095565b915061137f82611340565b602082019050919050565b5f6020820190508181035f8301526113a181611368565b9050919050565b5f81905092915050565b50565b5f6113c05f836113a8565b91506113cb826113b2565b5f82019050919050565b5f6113df826113b5565b9150819050919050565b7f4554485f5452414e534645525f4641494c0000000000000000000000000000005f82015250565b5f61141d601183611095565b9150611428826113e9565b602082019050919050565b5f6020820190508181035f83015261144a81611411565b9050919050565b5f61145b82610eec565b915061146683610eec565b925082820261147481610eec565b9150828204841483151761148b5761148a6111dd565b5b5092915050565b7f4e487b71000000000000000000000000000000000000000000000000000000005f52601260045260245ffd5b5f6114c982610eec565b91506114d483610eec565b9250826114e4576114e3611492565b5b82820490509291505056fea26469706673582212207b46dbb8d42647c43c741283b02bb155ad8c7e726a2375df609c6092ded47e4464736f6c634300081c0033",
			"opcodes": "PUSH1 0x80 PUSH1 0x40 MSTORE CALLVALUE DUP1 ISZERO PUSH1 0xE JUMPI PUSH0 PUSH0 REVERT JUMPDEST POP PUSH2 0x1525 DUP1 PUSH2 0x1C PUSH0 CODECOPY PUSH0 RETURN INVALID PUSH1 0x80 PUSH1 0x40 MSTORE PUSH1 0x4 CALLDATASIZE LT PUSH2 0xEB JUMPI PUSH0 CALLDATALOAD PUSH1 0xE0 SHR DUP1 PUSH4 0x83914540 GT PUSH2 0x89 JUMPI DUP1 PUSH4 0xC268F158 GT PUSH2 0x58 JUMPI DUP1 PUSH4 0xC268F158 EQ PUSH2 0x337 JUMPI DUP1 PUSH4 0xD0E30DB0 EQ PUSH2 0x361 JUMPI DUP1 PUSH4 0xE9FAD8EE EQ PUSH2 0x36B JUMPI DUP1 PUSH4 0xFF18BF0B EQ PUSH2 0x381 JUMPI PUSH2 0x140 JUMP JUMPDEST DUP1 PUSH4 0x83914540 EQ PUSH2 0x28F JUMPI DUP1 PUSH4 0xA609FEE3 EQ PUSH2 0x2B9 JUMPI DUP1 PUSH4 0xB3651149 EQ PUSH2 0x2E3 JUMPI DUP1 PUSH4 0xBD535FE2 EQ PUSH2 0x30D JUMPI PUSH2 0x140 JUMP JUMPDEST DUP1 PUSH4 0x43AD2977 GT PUSH2 0xC5 JUMPI DUP1 PUSH4 0x43AD2977 EQ PUSH2 0x1D2 JUMPI DUP1 PUSH4 0x4E71D92D EQ PUSH2 0x211 JUMPI DUP1 PUSH4 0x5E5C06E2 EQ PUSH2 0x227 JUMPI DUP1 PUSH4 0x817B1CD2 EQ PUSH2 0x265 JUMPI PUSH2 0x140 JUMP JUMPDEST DUP1 PUSH4 0x1A8ED624 EQ PUSH2 0x144 JUMPI DUP1 PUSH4 0x2E1A7D4D EQ PUSH2 0x16E JUMPI DUP1 PUSH4 0x31D7A262 EQ PUSH2 0x196 JUMPI PUSH2 0x140 JUMP JUMPDEST CALLDATASIZE PUSH2 0x140 JUMPI CALLER PUSH20 0xFFFFFFFFFFFFFFFFFFFFFFFFFFFFFFFFFFFFFFFF AND PUSH32 0x69F707D6B29376BD44509015848D942EFE0752E0BB6836541AC943B5D7372276 CALLVALUE PUSH1 0x40 MLOAD PUSH2 0x136 SWAP2 SWAP1 PUSH2 0xF04 JUMP JUMPDEST PUSH1 0x40 MLOAD DUP1 SWAP2 SUB SWAP1 LOG2 STOP JUMPDEST PUSH0 PUSH0 REVERT JUMPDEST CALLVALUE DUP1 ISZERO PUSH2 0x14F JUMPI PUSH0 PUSH0 REVERT JUMPDEST POP PUSH2 0x158 PUSH2 0x38B JUMP JUMPDEST PUSH1 0x40 MLOAD PUSH2 0x165 SWAP2 SWAP1 PUSH2 0xF04 JUMP JUMPDEST PUSH1 0x40 MLOAD DUP1 SWAP2 SUB SWAP1 RETURN JUMPDEST CALLVALUE DUP1 ISZERO PUSH2 0x179 JUMPI PUSH0 PUSH0 REVERT JUMPDEST POP PUSH2 0x194 PUSH1 0x4 DUP1 CALLDATASIZE SUB DUP2 ADD SWAP1 PUSH2 0x18F SWAP2 SWAP1 PUSH2 0xF4B JUMP JUMPDEST PUSH2 0x390 JUMP JUMPDEST STOP JUMPDEST CALLVALUE DUP1 ISZERO PUSH2 0x1A1 JUMPI PUSH0 PUSH0 REVERT JUMPDEST POP PUSH2 0x1BC PUSH1 0x4 DUP1 CALLDATASIZE SUB DUP2 ADD SWAP1 PUSH2 0x1B7 SWAP2 SWAP1 PUSH2 0xFD0 JUMP JUMPDEST PUSH2 0x568 JUMP JUMPDEST PUSH1 0x40 MLOAD PUSH2 0x1C9 SWAP2 SWAP1 PUSH2 0xF04 JUMP JUMPDEST PUSH1 0x40 MLOAD DUP1 SWAP2 SUB SWAP1 RETURN JUMPDEST CALLVALUE DUP1 ISZERO PUSH2 0x1DD JUMPI PUSH0 PUSH0 REVERT JUMPDEST POP PUSH2 0x1F8 PUSH1 0x4 DUP1 CALLDATASIZE SUB DUP2 ADD SWAP1 PUSH2 0x1F3 SWAP2 SWAP1 PUSH2 0xFD0 JUMP JUMPDEST PUSH2 0x66B JUMP JUMPDEST PUSH1 0x40 MLOAD PUSH2 0x208 SWAP5 SWAP4 SWAP3 SWAP2 SWAP1 PUSH2 0xFFB JUMP JUMPDEST PUSH1 0x40 MLOAD DUP1 SWAP2 SUB SWAP1 RETURN JUMPDEST CALLVALUE DUP1 ISZERO PUSH2 0x21C JUMPI PUSH0 PUSH0 REVERT JUMPDEST POP PUSH2 0x225 PUSH2 0x77E JUMP JUMPDEST STOP JUMPDEST CALLVALUE DUP1 ISZERO PUSH2 0x232 JUMPI PUSH0 PUSH0 REVERT JUMPDEST POP PUSH2 0x24D PUSH1 0x4 DUP1 CALLDATASIZE SUB DUP2 ADD SWAP1 PUSH2 0x248 SWAP2 SWAP1 PUSH2 0xFD0 JUMP JUMPDEST PUSH2 0x915 JUMP JUMPDEST PUSH1 0x40 MLOAD PUSH2 0x25C SWAP4 SWAP3 SWAP2 SWAP1 PUSH2 0x1060 JUMP JUMPDEST PUSH1 0x40 MLOAD DUP1 SWAP2 SUB SWAP1 RETURN JUMPDEST CALLVALUE DUP1 ISZERO PUSH2 0x270 JUMPI PUSH0 PUSH0 REVERT JUMPDEST POP PUSH2 0x279 PUSH2 0x94E JUMP JUMPDEST PUSH1 0x40 MLOAD PUSH2 0x286 SWAP2 SWAP1 PUSH2 0xF04 JUMP JUMPDEST PUSH1 0x40 MLOAD DUP1 SWAP2 SUB SWAP1 RETURN JUMPDEST CALLVALUE DUP1 ISZERO PUSH2 0x29A JUMPI PUSH0 PUSH0 REVERT JUMPDEST POP PUSH2 0x2A3 PUSH2 0x954 JUMP JUMPDEST PUSH1 0x40 MLOAD PUSH2 0x2B0 SWAP2 SWAP1 PUSH2 0xF04 JUMP JUMPDEST PUSH1 0x40 MLOAD DUP1 SWAP2 SUB SWAP1 RETURN JUMPDEST CALLVALUE DUP1 ISZERO PUSH2 0x2C4 JUMPI PUSH0 PUSH0 REVERT JUMPDEST POP PUSH2 0x2CD PUSH2 0x95C JUMP JUMPDEST PUSH1 0x40 MLOAD PUSH2 0x2DA SWAP2 SWAP1 PUSH2 0xF04 JUMP JUMPDEST PUSH1 0x40 MLOAD DUP1 SWAP2 SUB SWAP1 RETURN JUMPDEST CALLVALUE DUP1 ISZERO PUSH2 0x2EE JUMPI PUSH0 PUSH0 REVERT JUMPDEST POP PUSH2 0x2F7 PUSH2 0x961 JUMP JUMPDEST PUSH1 0x40 MLOAD PUSH2 0x304 SWAP2 SWAP1 PUSH2 0xF04 JUMP JUMPDEST PUSH1 0x40 MLOAD DUP1 SWAP2 SUB SWAP1 RETURN JUMPDEST CALLVALUE DUP1 ISZERO PUSH2 0x318 JUMPI PUSH0 PUSH0 REVERT JUMPDEST POP PUSH2 0x321 PUSH2 0x96D JUMP JUMPDEST PUSH1 0x40 MLOAD PUSH2 0x32E SWAP2 SWAP1 PUSH2 0xF04 JUMP JUMPDEST PUSH1 0x40 MLOAD DUP1 SWAP2 SUB SWAP1 RETURN JUMPDEST CALLVALUE DUP1 ISZERO PUSH2 0x342 JUMPI PUSH0 PUSH0 REVERT JUMPDEST POP PUSH2 0x34B PUSH2 0x981 JUMP JUMPDEST PUSH1 0x40 MLOAD PUSH2 0x358 SWAP2 SWAP1 PUSH2 0xF04 JUMP JUMPDEST PUSH1 0x40 MLOAD DUP1 SWAP2 SUB SWAP1 RETURN JUMPDEST PUSH2 0x369 PUSH2 0x986 JUMP JUMPDEST STOP JUMPDEST CALLVALUE DUP1 ISZERO PUSH2 0x376 JUMPI PUSH0 PUSH0 REVERT JUMPDEST POP PUSH2 0x37F PUSH2 0xB0D JUMP JUMPDEST STOP JUMPDEST PUSH2 0x389 PUSH2 0xBA8 JUMP JUMPDEST STOP JUMPDEST PUSH1 0x64 DUP2 JUMP JUMPDEST PUSH0 PUSH0 SLOAD EQ PUSH2 0x3D3 JUMPI PUSH1 0x40 MLOAD PUSH32 0x8C379A000000000000000000000000000000000000000000000000000000000 DUP2 MSTORE PUSH1 0x4 ADD PUSH2 0x3CA SWAP1 PUSH2 0x10EF JUMP JUMPDEST PUSH1 0x40 MLOAD DUP1 SWAP2 SUB SWAP1 REVERT JUMPDEST PUSH1 0x1 PUSH0 DUP2 SWAP1 SSTORE POP PUSH0 PUSH1 0x1 PUSH0 CALLER PUSH20 0xFFFFFFFFFFFFFFFFFFFFFFFFFFFFFFFFFFFFFFFF AND PUSH20 0xFFFFFFFFFFFFFFFFFFFFFFFFFFFFFFFFFFFFFFFF AND DUP2 MSTORE PUSH1 0x20 ADD SWAP1 DUP2 MSTORE PUSH1 0x20 ADD PUSH0 KECCAK256 SWAP1 POP PUSH0 DUP3 GT PUSH2 0x45C JUMPI PUSH1 0x40 MLOAD PUSH32 0x8C379A000000000000000000000000000000000000000000000000000000000 DUP2 MSTORE PUSH1 0x4 ADD PUSH2 0x453 SWAP1 PUSH2 0x1157 JUMP JUMPDEST PUSH1 0x40 MLOAD DUP1 SWAP2 SUB SWAP1 REVERT JUMPDEST DUP2 DUP2 PUSH0 ADD SLOAD LT ISZERO PUSH2 0x4A2 JUMPI PUSH1 0x40 MLOAD PUSH32 0x8C379A000000000000000000000000000000000000000000000000000000000 DUP2 MSTORE PUSH1 0x4 ADD PUSH2 0x499 SWAP1 PUSH2 0x11BF JUMP JUMPDEST PUSH1 0x40 MLOAD DUP1 SWAP2 SUB SWAP1 REVERT JUMPDEST PUSH2 0x4AB DUP2 PUSH2 0xC3A JUMP JUMPDEST DUP2 DUP2 PUSH0 ADD PUSH0 DUP3 DUP3 SLOAD PUSH2 0x4BD SWAP2 SWAP1 PUSH2 0x120A JUMP JUMPDEST SWAP3 POP POP DUP2 SWAP1 SSTORE POP DUP2 PUSH1 0x2 PUSH0 DUP3 DUP3 SLOAD PUSH2 0x4D5 SWAP2 SWAP1 PUSH2 0x120A JUMP JUMPDEST SWAP3 POP POP DUP2 SWAP1 SSTORE POP TIMESTAMP DUP2 PUSH1 0x2 ADD PUSH0 PUSH2 0x100 EXP DUP2 SLOAD DUP2 PUSH8 0xFFFFFFFFFFFFFFFF MUL NOT AND SWAP1 DUP4 PUSH8 0xFFFFFFFFFFFFFFFF AND MUL OR SWAP1 SSTORE POP PUSH2 0x510 CALLER DUP4 PUSH2 0xD6A JUMP JUMPDEST CALLER PUSH20 0xFFFFFFFFFFFFFFFFFFFFFFFFFFFFFFFFFFFFFFFF AND PUSH32 0x884EDAD9CE6FA2440D8A54CC123490EB96D2768479D49FF9C7366125A9424364 DUP4 PUSH1 0x40 MLOAD PUSH2 0x556 SWAP2 SWAP1 PUSH2 0xF04 JUMP JUMPDEST PUSH1 0x40 MLOAD DUP1 SWAP2 SUB SWAP1 LOG2 POP PUSH0 PUSH0 DUP2 SWAP1 SSTORE POP POP JUMP JUMPDEST PUSH0 PUSH0 PUSH1 0x1 PUSH0 DUP5 PUSH20 0xFFFFFFFFFFFFFFFFFFFFFFFFFFFFFFFFFFFFFFFF AND PUSH20 0xFFFFFFFFFFFFFFFFFFFFFFFFFFFFFFFFFFFFFFFF AND DUP2 MSTORE PUSH1 0x20 ADD SWAP1 DUP2 MSTORE PUSH1 0x20 ADD PUSH0 KECCAK256 PUSH1 0x40 MLOAD DUP1 PUSH1 0x60 ADD PUSH1 0x40 MSTORE SWAP1 DUP2 PUSH0 DUP3 ADD SLOAD DUP2 MSTORE PUSH1 0x20 ADD PUSH1 0x1 DUP3 ADD SLOAD DUP2 MSTORE PUSH1 0x20 ADD PUSH1 0x2 DUP3 ADD PUSH0 SWAP1 SLOAD SWAP1 PUSH2 0x100 EXP SWAP1 DIV PUSH8 0xFFFFFFFFFFFFFFFF AND PUSH8 0xFFFFFFFFFFFFFFFF AND PUSH8 0xFFFFFFFFFFFFFFFF AND DUP2 MSTORE POP POP SWAP1 POP PUSH0 DUP2 PUSH0 ADD MLOAD EQ DUP1 PUSH2 0x616 JUMPI POP PUSH0 DUP2 PUSH1 0x40 ADD MLOAD PUSH8 0xFFFFFFFFFFFFFFFF AND EQ JUMPDEST ISZERO PUSH2 0x628 JUMPI DUP1 PUSH1 0x20 ADD MLOAD SWAP2 POP POP PUSH2 0x666 JUMP JUMPDEST PUSH0 DUP2 PUSH1 0x40 ADD MLOAD PUSH8 0xFFFFFFFFFFFFFFFF AND TIMESTAMP PUSH2 0x643 SWAP2 SWAP1 PUSH2 0x120A JUMP JUMPDEST SWAP1 POP PUSH2 0x652 DUP3 PUSH0 ADD MLOAD DUP3 PUSH2 0xE17 JUMP JUMPDEST DUP3 PUSH1 0x20 ADD MLOAD PUSH2 0x661 SWAP2 SWAP1 PUSH2 0x123D JUMP JUMPDEST SWAP3 POP POP POP JUMPDEST SWAP2 SWAP1 POP JUMP JUMPDEST PUSH0 PUSH0 PUSH0 PUSH0 PUSH0 PUSH1 0x1 PUSH0 DUP8 PUSH20 0xFFFFFFFFFFFFFFFFFFFFFFFFFFFFFFFFFFFFFFFF AND PUSH20 0xFFFFFFFFFFFFFFFFFFFFFFFFFFFFFFFFFFFFFFFF AND DUP2 MSTORE PUSH1 0x20 ADD SWAP1 DUP2 MSTORE PUSH1 0x20 ADD PUSH0 KECCAK256 PUSH1 0x40 MLOAD DUP1 PUSH1 0x60 ADD PUSH1 0x40 MSTORE SWAP1 DUP2 PUSH0 DUP3 ADD SLOAD DUP2 MSTORE PUSH1 0x20 ADD PUSH1 0x1 DUP3 ADD SLOAD DUP2 MSTORE PUSH1 0x20 ADD PUSH1 0x2 DUP3 ADD PUSH0 SWAP1 SLOAD SWAP1 PUSH2 0x100 EXP SWAP1 DIV PUSH8 0xFFFFFFFFFFFFFFFF AND PUSH8 0xFFFFFFFFFFFFFFFF AND PUSH8 0xFFFFFFFFFFFFFFFF AND DUP2 MSTORE POP POP SWAP1 POP DUP1 PUSH0 ADD MLOAD SWAP5 POP DUP1 PUSH1 0x20 ADD MLOAD SWAP4 POP PUSH0 DUP2 PUSH0 ADD MLOAD GT DUP1 ISZERO PUSH2 0x72A JUMPI POP PUSH0 DUP2 PUSH1 0x40 ADD MLOAD PUSH8 0xFFFFFFFFFFFFFFFF AND GT JUMPDEST ISZERO PUSH2 0x75D JUMPI PUSH0 DUP2 PUSH1 0x40 ADD MLOAD PUSH8 0xFFFFFFFFFFFFFFFF AND TIMESTAMP PUSH2 0x74A SWAP2 SWAP1 PUSH2 0x120A JUMP JUMPDEST SWAP1 POP PUSH2 0x759 DUP3 PUSH0 ADD MLOAD DUP3 PUSH2 0xE17 JUMP JUMPDEST SWAP4 POP POP JUMPDEST DUP3 DUP5 DUP7 PUSH2 0x76A SWAP2 SWAP1 PUSH2 0x123D JUMP JUMPDEST PUSH2 0x774 SWAP2 SWAP1 PUSH2 0x123D JUMP JUMPDEST SWAP2 POP POP SWAP2 SWAP4 POP SWAP2 SWAP4 JUMP JUMPDEST PUSH0 PUSH0 SLOAD EQ PUSH2 0x7C1 JUMPI PUSH1 0x40 MLOAD PUSH32 0x8C379A000000000000000000000000000000000000000000000000000000000 DUP2 MSTORE PUSH1 0x4 ADD PUSH2 0x7B8 SWAP1 PUSH2 0x10EF JUMP JUMPDEST PUSH1 0x40 MLOAD DUP1 SWAP2 SUB SWAP1 REVERT JUMPDEST PUSH1 0x1 PUSH0 DUP2 SWAP1 SSTORE POP PUSH0 PUSH1 0x1 PUSH0 CALLER PUSH20 0xFFFFFFFFFFFFFFFFFFFFFFFFFFFFFFFFFFFFFFFF AND PUSH20 0xFFFFFFFFFFFFFFFFFFFFFFFFFFFFFFFFFFFFFFFF AND DUP2 MSTORE PUSH1 0x20 ADD SWAP1 DUP2 MSTORE PUSH1 0x20 ADD PUSH0 KECCAK256 SWAP1 POP PUSH2 0x811 DUP2 PUSH2 0xC3A JUMP JUMPDEST PUSH0 DUP2 PUSH1 0x1 ADD SLOAD SWAP1 POP PUSH0 DUP2 GT PUSH2 0x85B JUMPI PUSH1 0x40 MLOAD PUSH32 0x8C379A000000000000000000000000000000000000000000000000000000000 DUP2 MSTORE PUSH1 0x4 ADD PUSH2 0x852 SWAP1 PUSH2 0x12BA JUMP JUMPDEST PUSH1 0x40 MLOAD DUP1 SWAP2 SUB SWAP1 REVERT JUMPDEST PUSH0 PUSH2 0x864 PUSH2 0x96D JUMP JUMPDEST SWAP1 POP DUP2 DUP2 LT ISZERO PUSH2 0x8A9 JUMPI PUSH1 0x40 MLOAD PUSH32 0x8C379A000000000000000000000000000000000000000000000000000000000 DUP2 MSTORE PUSH1 0x4 ADD PUSH2 0x8A0 SWAP1 PUSH2 0x1322 JUMP JUMPDEST PUSH1 0x40 MLOAD DUP1 SWAP2 SUB SWAP1 REVERT JUMPDEST PUSH0 DUP4 PUSH1 0x1 ADD DUP2 SWAP1 SSTORE POP PUSH2 0x8BC CALLER DUP4 PUSH2 0xD6A JUMP JUMPDEST CALLER PUSH20 0xFFFFFFFFFFFFFFFFFFFFFFFFFFFFFFFFFFFFFFFF AND PUSH32 0x47CEE97CB7ACD717B3C0AA1435D004CD5B3C8C57D70DBCEB4E4458BBD60E39D4 DUP4 PUSH1 0x40 MLOAD PUSH2 0x902 SWAP2 SWAP1 PUSH2 0xF04 JUMP JUMPDEST PUSH1 0x40 MLOAD DUP1 SWAP2 SUB SWAP1 LOG2 POP POP POP PUSH0 PUSH0 DUP2 SWAP1 SSTORE POP JUMP JUMPDEST PUSH1 0x1 PUSH1 0x20 MSTORE DUP1 PUSH0 MSTORE PUSH1 0x40 PUSH0 KECCAK256 PUSH0 SWAP2 POP SWAP1 POP DUP1 PUSH0 ADD SLOAD SWAP1 DUP1 PUSH1 0x1 ADD SLOAD SWAP1 DUP1 PUSH1 0x2 ADD PUSH0 SWAP1 SLOAD SWAP1 PUSH2 0x100 EXP SWAP1 DIV PUSH8 0xFFFFFFFFFFFFFFFF AND SWAP1 POP DUP4 JUMP JUMPDEST PUSH1 0x2 SLOAD DUP2 JUMP JUMPDEST PUSH4 0x1E13380 DUP2 JUMP JUMPDEST PUSH1 0x5 DUP2 JUMP JUMPDEST PUSH8 0x2C68AF0BB140000 DUP2 JUMP JUMPDEST PUSH0 PUSH1 0x2 SLOAD SELFBALANCE PUSH2 0x97C SWAP2 SWAP1 PUSH2 0x120A JUMP JUMPDEST SWAP1 POP SWAP1 JUMP JUMPDEST PUSH1 0x3 DUP2 JUMP JUMPDEST PUSH0 PUSH0 SLOAD EQ PUSH2 0x9C9 JUMPI PUSH1 0x40 MLOAD PUSH32 0x8C379A000000000000000000000000000000000000000000000000000000000 DUP2 MSTORE PUSH1 0x4 ADD PUSH2 0x9C0 SWAP1 PUSH2 0x10EF JUMP JUMPDEST PUSH1 0x40 MLOAD DUP1 SWAP2 SUB SWAP1 REVERT JUMPDEST PUSH1 0x1 PUSH0 DUP2 SWAP1 SSTORE POP PUSH0 CALLVALUE GT PUSH2 0xA12 JUMPI PUSH1 0x40 MLOAD PUSH32 0x8C379A000000000000000000000000000000000000000000000000000000000 DUP2 MSTORE PUSH1 0x4 ADD PUSH2 0xA09 SWAP1 PUSH2 0x138A JUMP JUMPDEST PUSH1 0x40 MLOAD DUP1 SWAP2 SUB SWAP1 REVERT JUMPDEST PUSH0 PUSH1 0x1 PUSH0 CALLER PUSH20 0xFFFFFFFFFFFFFFFFFFFFFFFFFFFFFFFFFFFFFFFF AND PUSH20 0xFFFFFFFFFFFFFFFFFFFFFFFFFFFFFFFFFFFFFFFF AND DUP2 MSTORE PUSH1 0x20 ADD SWAP1 DUP2 MSTORE PUSH1 0x20 ADD PUSH0 KECCAK256 SWAP1 POP PUSH2 0xA5B DUP2 PUSH2 0xC3A JUMP JUMPDEST CALLVALUE DUP2 PUSH0 ADD PUSH0 DUP3 DUP3 SLOAD PUSH2 0xA6D SWAP2 SWAP1 PUSH2 0x123D JUMP JUMPDEST SWAP3 POP POP DUP2 SWAP1 SSTORE POP CALLVALUE PUSH1 0x2 PUSH0 DUP3 DUP3 SLOAD PUSH2 0xA85 SWAP2 SWAP1 PUSH2 0x123D JUMP JUMPDEST SWAP3 POP POP DUP2 SWAP1 SSTORE POP TIMESTAMP DUP2 PUSH1 0x2 ADD PUSH0 PUSH2 0x100 EXP DUP2 SLOAD DUP2 PUSH8 0xFFFFFFFFFFFFFFFF MUL NOT AND SWAP1 DUP4 PUSH8 0xFFFFFFFFFFFFFFFF AND MUL OR SWAP1 SSTORE POP CALLER PUSH20 0xFFFFFFFFFFFFFFFFFFFFFFFFFFFFFFFFFFFFFFFF AND PUSH32 0xE1FFFCC4923D04B559F4D29A8BFC6CDA04EB5B0D3C460751C2402C5C5CC9109C CALLVALUE PUSH1 0x40 MLOAD PUSH2 0xAFC SWAP2 SWAP1 PUSH2 0xF04 JUMP JUMPDEST PUSH1 0x40 MLOAD DUP1 SWAP2 SUB SWAP1 LOG2 POP PUSH0 PUSH0 DUP2 SWAP1 SSTORE POP JUMP JUMPDEST PUSH2 0xB55 PUSH1 0x1 PUSH0 CALLER PUSH20 0xFFFFFFFFFFFFFFFFFFFFFFFFFFFFFFFFFFFFFFFF AND PUSH20 0xFFFFFFFFFFFFFFFFFFFFFFFFFFFFFFFFFFFFFFFF AND DUP2 MSTORE PUSH1 0x20 ADD SWAP1 DUP2 MSTORE PUSH1 0x20 ADD PUSH0 KECCAK256 PUSH0 ADD SLOAD PUSH2 0x390 JUMP JUMPDEST PUSH0 PUSH1 0x1 PUSH0 CALLER PUSH20 0xFFFFFFFFFFFFFFFFFFFFFFFFFFFFFFFFFFFFFFFF AND PUSH20 0xFFFFFFFFFFFFFFFFFFFFFFFFFFFFFFFFFFFFFFFF AND DUP2 MSTORE PUSH1 0x20 ADD SWAP1 DUP2 MSTORE PUSH1 0x20 ADD PUSH0 KECCAK256 PUSH1 0x1 ADD SLOAD GT ISZERO PUSH2 0xBA6 JUMPI PUSH2 0xBA5 PUSH2 0x77E JUMP JUMPDEST JUMPDEST JUMP JUMPDEST PUSH0 CALLVALUE GT PUSH2 0xBEA JUMPI PUSH1 0x40 MLOAD PUSH32 0x8C379A000000000000000000000000000000000000000000000000000000000 DUP2 MSTORE PUSH1 0x4 ADD PUSH2 0xBE1 SWAP1 PUSH2 0x138A JUMP JUMPDEST PUSH1 0x40 MLOAD DUP1 SWAP2 SUB SWAP1 REVERT JUMPDEST CALLER PUSH20 0xFFFFFFFFFFFFFFFFFFFFFFFFFFFFFFFFFFFFFFFF AND PUSH32 0x69F707D6B29376BD44509015848D942EFE0752E0BB6836541AC943B5D7372276 CALLVALUE PUSH1 0x40 MLOAD PUSH2 0xC30 SWAP2 SWAP1 PUSH2 0xF04 JUMP JUMPDEST PUSH1 0x40 MLOAD DUP1 SWAP2 SUB SWAP1 LOG2 JUMP JUMPDEST PUSH0 DUP2 PUSH0 ADD SLOAD SUB PUSH2 0xC73 JUMPI TIMESTAMP DUP2 PUSH1 0x2 ADD PUSH0 PUSH2 0x100 EXP DUP2 SLOAD DUP2 PUSH8 0xFFFFFFFFFFFFFFFF MUL NOT AND SWAP1 DUP4 PUSH8 0xFFFFFFFFFFFFFFFF AND MUL OR SWAP1 SSTORE POP PUSH2 0xD67 JUMP JUMPDEST PUSH0 DUP2 PUSH1 0x2 ADD PUSH0 SWAP1 SLOAD SWAP1 PUSH2 0x100 EXP SWAP1 DIV PUSH8 0xFFFFFFFFFFFFFFFF AND PUSH8 0xFFFFFFFFFFFFFFFF AND SUB PUSH2 0xCCA JUMPI TIMESTAMP DUP2 PUSH1 0x2 ADD PUSH0 PUSH2 0x100 EXP DUP2 SLOAD DUP2 PUSH8 0xFFFFFFFFFFFFFFFF MUL NOT AND SWAP1 DUP4 PUSH8 0xFFFFFFFFFFFFFFFF AND MUL OR SWAP1 SSTORE POP PUSH2 0xD67 JUMP JUMPDEST PUSH0 DUP2 PUSH1 0x2 ADD PUSH0 SWAP1 SLOAD SWAP1 PUSH2 0x100 EXP SWAP1 DIV PUSH8 0xFFFFFFFFFFFFFFFF AND PUSH8 0xFFFFFFFFFFFFFFFF AND TIMESTAMP PUSH2 0xCF8 SWAP2 SWAP1 PUSH2 0x120A JUMP JUMPDEST SWAP1 POP PUSH0 DUP2 SUB PUSH2 0xD07 JUMPI POP PUSH2 0xD67 JUMP JUMPDEST PUSH0 PUSH2 0xD15 DUP4 PUSH0 ADD SLOAD DUP4 PUSH2 0xE17 JUMP JUMPDEST SWAP1 POP PUSH0 DUP2 GT ISZERO PUSH2 0xD3A JUMPI DUP1 DUP4 PUSH1 0x1 ADD PUSH0 DUP3 DUP3 SLOAD PUSH2 0xD32 SWAP2 SWAP1 PUSH2 0x123D JUMP JUMPDEST SWAP3 POP POP DUP2 SWAP1 SSTORE POP JUMPDEST TIMESTAMP DUP4 PUSH1 0x2 ADD PUSH0 PUSH2 0x100 EXP DUP2 SLOAD DUP2 PUSH8 0xFFFFFFFFFFFFFFFF MUL NOT AND SWAP1 DUP4 PUSH8 0xFFFFFFFFFFFFFFFF AND MUL OR SWAP1 SSTORE POP POP POP JUMPDEST POP JUMP JUMPDEST PUSH0 DUP3 PUSH20 0xFFFFFFFFFFFFFFFFFFFFFFFFFFFFFFFFFFFFFFFF AND DUP3 PUSH1 0x40 MLOAD PUSH2 0xD8F SWAP1 PUSH2 0x13D5 JUMP JUMPDEST PUSH0 PUSH1 0x40 MLOAD DUP1 DUP4 SUB DUP2 DUP6 DUP8 GAS CALL SWAP3 POP POP POP RETURNDATASIZE DUP1 PUSH0 DUP2 EQ PUSH2 0xDC9 JUMPI PUSH1 0x40 MLOAD SWAP2 POP PUSH1 0x1F NOT PUSH1 0x3F RETURNDATASIZE ADD AND DUP3 ADD PUSH1 0x40 MSTORE RETURNDATASIZE DUP3 MSTORE RETURNDATASIZE PUSH0 PUSH1 0x20 DUP5 ADD RETURNDATACOPY PUSH2 0xDCE JUMP JUMPDEST PUSH1 0x60 SWAP2 POP JUMPDEST POP POP SWAP1 POP DUP1 PUSH2 0xE12 JUMPI PUSH1 0x40 MLOAD PUSH32 0x8C379A000000000000000000000000000000000000000000000000000000000 DUP2 MSTORE PUSH1 0x4 ADD PUSH2 0xE09 SWAP1 PUSH2 0x1433 JUMP JUMPDEST PUSH1 0x40 MLOAD DUP1 SWAP2 SUB SWAP1 REVERT JUMPDEST POP POP POP JUMP JUMPDEST PUSH0 PUSH0 PUSH8 0x2C68AF0BB140000 DUP5 GT ISZERO PUSH2 0xE37 JUMPI PUSH8 0x2C68AF0BB140000 PUSH2 0xE39 JUMP JUMPDEST DUP4 JUMPDEST SWAP1 POP PUSH0 PUSH8 0x2C68AF0BB140000 DUP6 GT PUSH2 0xE51 JUMPI PUSH0 PUSH2 0xE66 JUMP JUMPDEST PUSH8 0x2C68AF0BB140000 DUP6 PUSH2 0xE65 SWAP2 SWAP1 PUSH2 0x120A JUMP JUMPDEST JUMPDEST SWAP1 POP PUSH0 PUSH4 0x1E13380 PUSH1 0x64 PUSH2 0xE7A SWAP2 SWAP1 PUSH2 0x1451 JUMP JUMPDEST DUP6 PUSH1 0x5 DUP6 PUSH2 0xE88 SWAP2 SWAP1 PUSH2 0x1451 JUMP JUMPDEST PUSH2 0xE92 SWAP2 SWAP1 PUSH2 0x1451 JUMP JUMPDEST PUSH2 0xE9C SWAP2 SWAP1 PUSH2 0x14BF JUMP JUMPDEST SWAP1 POP PUSH0 PUSH4 0x1E13380 PUSH1 0x64 PUSH2 0xEB0 SWAP2 SWAP1 PUSH2 0x1451 JUMP JUMPDEST DUP7 PUSH1 0x3 DUP6 PUSH2 0xEBE SWAP2 SWAP1 PUSH2 0x1451 JUMP JUMPDEST PUSH2 0xEC8 SWAP2 SWAP1 PUSH2 0x1451 JUMP JUMPDEST PUSH2 0xED2 SWAP2 SWAP1 PUSH2 0x14BF JUMP JUMPDEST SWAP1 POP DUP1 DUP3 PUSH2 0xEE0 SWAP2 SWAP1 PUSH2 0x123D JUMP JUMPDEST SWAP5 POP POP POP POP POP SWAP3 SWAP2 POP POP JUMP JUMPDEST PUSH0 DUP2 SWAP1 POP SWAP2 SWAP1 POP JUMP JUMPDEST PUSH2 0xEFE DUP2 PUSH2 0xEEC JUMP JUMPDEST DUP3 MSTORE POP POP JUMP JUMPDEST PUSH0 PUSH1 0x20 DUP3 ADD SWAP1 POP PUSH2 0xF17 PUSH0 DUP4 ADD DUP5 PUSH2 0xEF5 JUMP JUMPDEST SWAP3 SWAP2 POP POP JUMP JUMPDEST PUSH0 PUSH0 REVERT JUMPDEST PUSH2 0xF2A DUP2 PUSH2 0xEEC JUMP JUMPDEST DUP2 EQ PUSH2 0xF34 JUMPI PUSH0 PUSH0 REVERT JUMPDEST POP JUMP JUMPDEST PUSH0 DUP2 CALLDATALOAD SWAP1 POP PUSH2 0xF45 DUP2 PUSH2 0xF21 JUMP JUMPDEST SWAP3 SWAP2 POP POP JUMP JUMPDEST PUSH0 PUSH1 0x20 DUP3 DUP5 SUB SLT ISZERO PUSH2 0xF60 JUMPI PUSH2 0xF5F PUSH2 0xF1D JUMP JUMPDEST JUMPDEST PUSH0 PUSH2 0xF6D DUP5 DUP3 DUP6 ADD PUSH2 0xF37 JUMP JUMPDEST SWAP2 POP POP SWAP3 SWAP2 POP POP JUMP JUMPDEST PUSH0 PUSH20 0xFFFFFFFFFFFFFFFFFFFFFFFFFFFFFFFFFFFFFFFF DUP3 AND SWAP1 POP SWAP2 SWAP1 POP JUMP JUMPDEST PUSH0 PUSH2 0xF9F DUP3 PUSH2 0xF76 JUMP JUMPDEST SWAP1 POP SWAP2 SWAP1 POP JUMP JUMPDEST PUSH2 0xFAF DUP2 PUSH2 0xF95 JUMP JUMPDEST DUP2 EQ PUSH2 0xFB9 JUMPI PUSH0 PUSH0 REVERT JUMPDEST POP JUMP JUMPDEST PUSH0 DUP2 CALLDATALOAD SWAP1 POP PUSH2 0xFCA DUP2 PUSH2 0xFA6 JUMP JUMPDEST SWAP3 SWAP2 POP POP JUMP JUMPDEST PUSH0 PUSH1 0x20 DUP3 DUP5 SUB SLT ISZERO PUSH2 0xFE5 JUMPI PUSH2 0xFE4 PUSH2 0xF1D JUMP JUMPDEST JUMPDEST PUSH0 PUSH2 0xFF2 DUP5 DUP3 DUP6 ADD PUSH2 0xFBC JUMP JUMPDEST SWAP2 POP POP SWAP3 SWAP2 POP POP JUMP JUMPDEST PUSH0 PUSH1 0x80 DUP3 ADD SWAP1 POP PUSH2 0x100E PUSH0 DUP4 ADD DUP8 PUSH2 0xEF5 JUMP JUMPDEST PUSH2 0x101B PUSH1 0x20 DUP4 ADD DUP7 PUSH2 0xEF5 JUMP JUMPDEST PUSH2 0x1028 PUSH1 0x40 DUP4 ADD DUP6 PUSH2 0xEF5 JUMP JUMPDEST PUSH2 0x1035 PUSH1 0x60 DUP4 ADD DUP5 PUSH2 0xEF5 JUMP JUMPDEST SWAP6 SWAP5 POP POP POP POP POP JUMP JUMPDEST PUSH0 PUSH8 0xFFFFFFFFFFFFFFFF DUP3 AND SWAP1 POP SWAP2 SWAP1 POP JUMP JUMPDEST PUSH2 0x105A DUP2 PUSH2 0x103E JUMP JUMPDEST DUP3 MSTORE POP POP JUMP JUMPDEST PUSH0 PUSH1 0x60 DUP3 ADD SWAP1 POP PUSH2 0x1073 PUSH0 DUP4 ADD DUP7 PUSH2 0xEF5 JUMP JUMPDEST PUSH2 0x1080 PUSH1 0x20 DUP4 ADD DUP6 PUSH2 0xEF5 JUMP JUMPDEST PUSH2 0x108D PUSH1 0x40 DUP4 ADD DUP5 PUSH2 0x1051 JUMP JUMPDEST SWAP5 SWAP4 POP POP POP POP JUMP JUMPDEST PUSH0 DUP3 DUP3 MSTORE PUSH1 0x20 DUP3 ADD SWAP1 POP SWAP3 SWAP2 POP POP JUMP JUMPDEST PUSH32 0x5245454E5452414E435900000000000000000000000000000000000000000000 PUSH0 DUP3 ADD MSTORE POP JUMP JUMPDEST PUSH0 PUSH2 0x10D9 PUSH1 0xA DUP4 PUSH2 0x1095 JUMP JUMPDEST SWAP2 POP PUSH2 0x10E4 DUP3 PUSH2 0x10A5 JUMP JUMPDEST PUSH1 0x20 DUP3 ADD SWAP1 POP SWAP2 SWAP1 POP JUMP JUMPDEST PUSH0 PUSH1 0x20 DUP3 ADD SWAP1 POP DUP2 DUP2 SUB PUSH0 DUP4 ADD MSTORE PUSH2 0x1106 DUP2 PUSH2 0x10CD JUMP JUMPDEST SWAP1 POP SWAP2 SWAP1 POP JUMP JUMPDEST PUSH32 0x5A45524F5F414D4F554E54000000000000000000000000000000000000000000 PUSH0 DUP3 ADD MSTORE POP JUMP JUMPDEST PUSH0 PUSH2 0x1141 PUSH1 0xB DUP4 PUSH2 0x1095 JUMP JUMPDEST SWAP2 POP PUSH2 0x114C DUP3 PUSH2 0x110D JUMP JUMPDEST PUSH1 0x20 DUP3 ADD SWAP1 POP SWAP2 SWAP1 POP JUMP JUMPDEST PUSH0 PUSH1 0x20 DUP3 ADD SWAP1 POP DUP2 DUP2 SUB PUSH0 DUP4 ADD MSTORE PUSH2 0x116E DUP2 PUSH2 0x1135 JUMP JUMPDEST SWAP1 POP SWAP2 SWAP1 POP JUMP JUMPDEST PUSH32 0x494E53554646494349454E545F5052494E434950414C00000000000000000000 PUSH0 DUP3 ADD MSTORE POP JUMP JUMPDEST PUSH0 PUSH2 0x11A9 PUSH1 0x16 DUP4 PUSH2 0x1095 JUMP JUMPDEST SWAP2 POP PUSH2 0x11B4 DUP3 PUSH2 0x1175 JUMP JUMPDEST PUSH1 0x20 DUP3 ADD SWAP1 POP SWAP2 SWAP1 POP JUMP JUMPDEST PUSH0 PUSH1 0x20 DUP3 ADD SWAP1 POP DUP2 DUP2 SUB PUSH0 DUP4 ADD MSTORE PUSH2 0x11D6 DUP2 PUSH2 0x119D JUMP JUMPDEST SWAP1 POP SWAP2 SWAP1 POP JUMP JUMPDEST PUSH32 0x4E487B7100000000000000000000000000000000000000000000000000000000 PUSH0 MSTORE PUSH1 0x11 PUSH1 0x4 MSTORE PUSH1 0x24 PUSH0 REVERT JUMPDEST PUSH0 PUSH2 0x1214 DUP3 PUSH2 0xEEC JUMP JUMPDEST SWAP2 POP PUSH2 0x121F DUP4 PUSH2 0xEEC JUMP JUMPDEST SWAP3 POP DUP3 DUP3 SUB SWAP1 POP DUP2 DUP2 GT ISZERO PUSH2 0x1237 JUMPI PUSH2 0x1236 PUSH2 0x11DD JUMP JUMPDEST JUMPDEST SWAP3 SWAP2 POP POP JUMP JUMPDEST PUSH0 PUSH2 0x1247 DUP3 PUSH2 0xEEC JUMP JUMPDEST SWAP2 POP PUSH2 0x1252 DUP4 PUSH2 0xEEC JUMP JUMPDEST SWAP3 POP DUP3 DUP3 ADD SWAP1 POP DUP1 DUP3 GT ISZERO PUSH2 0x126A JUMPI PUSH2 0x1269 PUSH2 0x11DD JUMP JUMPDEST JUMPDEST SWAP3 SWAP2 POP POP JUMP JUMPDEST PUSH32 0x4E4F5F5245574152445300000000000000000000000000000000000000000000 PUSH0 DUP3 ADD MSTORE POP JUMP JUMPDEST PUSH0 PUSH2 0x12A4 PUSH1 0xA DUP4 PUSH2 0x1095 JUMP JUMPDEST SWAP2 POP PUSH2 0x12AF DUP3 PUSH2 0x1270 JUMP JUMPDEST PUSH1 0x20 DUP3 ADD SWAP1 POP SWAP2 SWAP1 POP JUMP JUMPDEST PUSH0 PUSH1 0x20 DUP3 ADD SWAP1 POP DUP2 DUP2 SUB PUSH0 DUP4 ADD MSTORE PUSH2 0x12D1 DUP2 PUSH2 0x1298 JUMP JUMPDEST SWAP1 POP SWAP2 SWAP1 POP JUMP JUMPDEST PUSH32 0x494E53554646494349454E545F5245574152445F504F4F4C0000000000000000 PUSH0 DUP3 ADD MSTORE POP JUMP JUMPDEST PUSH0 PUSH2 0x130C PUSH1 0x18 DUP4 PUSH2 0x1095 JUMP JUMPDEST SWAP2 POP PUSH2 0x1317 DUP3 PUSH2 0x12D8 JUMP JUMPDEST PUSH1 0x20 DUP3 ADD SWAP1 POP SWAP2 SWAP1 POP JUMP JUMPDEST PUSH0 PUSH1 0x20 DUP3 ADD SWAP1 POP DUP2 DUP2 SUB PUSH0 DUP4 ADD MSTORE PUSH2 0x1339 DUP2 PUSH2 0x1300 JUMP JUMPDEST SWAP1 POP SWAP2 SWAP1 POP JUMP JUMPDEST PUSH32 0x4E4F5F56414C5545000000000000000000000000000000000000000000000000 PUSH0 DUP3 ADD MSTORE POP JUMP JUMPDEST PUSH0 PUSH2 0x1374 PUSH1 0x8 DUP4 PUSH2 0x1095 JUMP JUMPDEST SWAP2 POP PUSH2 0x137F DUP3 PUSH2 0x1340 JUMP JUMPDEST PUSH1 0x20 DUP3 ADD SWAP1 POP SWAP2 SWAP1 POP JUMP JUMPDEST PUSH0 PUSH1 0x20 DUP3 ADD SWAP1 POP DUP2 DUP2 SUB PUSH0 DUP4 ADD MSTORE PUSH2 0x13A1 DUP2 PUSH2 0x1368 JUMP JUMPDEST SWAP1 POP SWAP2 SWAP1 POP JUMP JUMPDEST PUSH0 DUP2 SWAP1 POP SWAP3 SWAP2 POP POP JUMP JUMPDEST POP JUMP JUMPDEST PUSH0 PUSH2 0x13C0 PUSH0 DUP4 PUSH2 0x13A8 JUMP JUMPDEST SWAP2 POP PUSH2 0x13CB DUP3 PUSH2 0x13B2 JUMP JUMPDEST PUSH0 DUP3 ADD SWAP1 POP SWAP2 SWAP1 POP JUMP JUMPDEST PUSH0 PUSH2 0x13DF DUP3 PUSH2 0x13B5 JUMP JUMPDEST SWAP2 POP DUP2 SWAP1 POP SWAP2 SWAP1 POP JUMP JUMPDEST PUSH32 0x4554485F5452414E534645525F4641494C000000000000000000000000000000 PUSH0 DUP3 ADD MSTORE POP JUMP JUMPDEST PUSH0 PUSH2 0x141D PUSH1 0x11 DUP4 PUSH2 0x1095 JUMP JUMPDEST SWAP2 POP PUSH2 0x1428 DUP3 PUSH2 0x13E9 JUMP JUMPDEST PUSH1 0x20 DUP3 ADD SWAP1 POP SWAP2 SWAP1 POP JUMP JUMPDEST PUSH0 PUSH1 0x20 DUP3 ADD SWAP1 POP DUP2 DUP2 SUB PUSH0 DUP4 ADD MSTORE PUSH2 0x144A DUP2 PUSH2 0x1411 JUMP JUMPDEST SWAP1 POP SWAP2 SWAP1 POP JUMP JUMPDEST PUSH0 PUSH2 0x145B DUP3 PUSH2 0xEEC JUMP JUMPDEST SWAP2 POP PUSH2 0x1466 DUP4 PUSH2 0xEEC JUMP JUMPDEST SWAP3 POP DUP3 DUP3 MUL PUSH2 0x1474 DUP2 PUSH2 0xEEC JUMP JUMPDEST SWAP2 POP DUP3 DUP3 DIV DUP5 EQ DUP4 ISZERO OR PUSH2 0x148B JUMPI PUSH2 0x148A PUSH2 0x11DD JUMP JUMPDEST JUMPDEST POP SWAP3 SWAP2 POP POP JUMP JUMPDEST PUSH32 0x4E487B7100000000000000000000000000000000000000000000000000000000 PUSH0 MSTORE PUSH1 0x12 PUSH1 0x4 MSTORE PUSH1 0x24 PUSH0 REVERT JUMPDEST PUSH0 PUSH2 0x14C9 DUP3 PUSH2 0xEEC JUMP JUMPDEST SWAP2 POP PUSH2 0x14D4 DUP4 PUSH2 0xEEC JUMP JUMPDEST SWAP3 POP DUP3 PUSH2 0x14E4 JUMPI PUSH2 0x14E3 PUSH2 0x1492 JUMP JUMPDEST JUMPDEST DUP3 DUP3 DIV SWAP1 POP SWAP3 SWAP2 POP POP JUMP INVALID LOG2 PUSH5 0x6970667358 0x22 SLT KECCAK256 PUSH28 0x46DBB8D42647C43C741283B02BB155AD8C7E726A2375DF609C6092DE 0xD4 PUSH31 0x4464736F6C634300081C003300000000000000000000000000000000000000 "
		},
		"gasEstimates": {
			"creation": {
				"codeDepositCost": "1082600",
				"executionCost": "1125",
				"totalCost": "1083725"
			},
			"external": {
				"APR_DEN()": "349",
				"APR_TIER1_NUM()": "370",
				"APR_TIER2_NUM()": "347",
				"TIER_BORDER()": "392",
				"YEAR()": "348",
				"accounts(address)": "infinite",
				"availableRewardsPool()": "infinite",
				"claim()": "infinite",
				"deposit()": "infinite",
				"exit()": "infinite",
				"fundRewards()": "1798",
				"getAccountSummary(address)": "infinite",
				"pendingRewards(address)": "infinite",
				"totalStaked()": "2514",
				"withdraw(uint256)": "infinite"
			},
			"internal": {
				"_accrue(struct TieredETHStaking.Account storage pointer)": "infinite",
				"_calcRewards(uint256,uint256)": "infinite",
				"_safeTransferETH(address payable,uint256)": "infinite"
			}
		},
		"methodIdentifiers": {
			"APR_DEN()": "1a8ed624",
			"APR_TIER1_NUM()": "a609fee3",
			"APR_TIER2_NUM()": "c268f158",
			"TIER_BORDER()": "b3651149",
			"YEAR()": "83914540",
			"accounts(address)": "5e5c06e2",
			"availableRewardsPool()": "bd535fe2",
			"claim()": "4e71d92d",
			"deposit()": "d0e30db0",
			"exit()": "e9fad8ee",
			"fundRewards()": "ff18bf0b",
			"getAccountSummary(address)": "43ad2977",
			"pendingRewards(address)": "31d7a262",
			"totalStaked()": "817b1cd2",
			"withdraw(uint256)": "2e1a7d4d"
		}
	},
	"abi": [
		{
			"anonymous": false,
			"inputs": [
				{
					"indexed": true,
					"internalType": "address",
					"name": "user",
					"type": "address"
				},
				{
					"indexed": false,
					"internalType": "uint256",
					"name": "amount",
					"type": "uint256"
				}
			],
			"name": "Claim",
			"type": "event"
		},
		{
			"anonymous": false,
			"inputs": [
				{
					"indexed": true,
					"internalType": "address",
					"name": "user",
					"type": "address"
				},
				{
					"indexed": false,
					"internalType": "uint256",
					"name": "amount",
					"type": "uint256"
				}
			],
			"name": "Deposit",
			"type": "event"
		},
		{
			"anonymous": false,
			"inputs": [
				{
					"indexed": true,
					"internalType": "address",
					"name": "from",
					"type": "address"
				},
				{
					"indexed": false,
					"internalType": "uint256",
					"name": "amount",
					"type": "uint256"
				}
			],
			"name": "FundRewards",
			"type": "event"
		},
		{
			"anonymous": false,
			"inputs": [
				{
					"indexed": true,
					"internalType": "address",
					"name": "user",
					"type": "address"
				},
				{
					"indexed": false,
					"internalType": "uint256",
					"name": "amount",
					"type": "uint256"
				}
			],
			"name": "Withdraw",
			"type": "event"
		},
		{
			"inputs": [],
			"name": "APR_DEN",
			"outputs": [
				{
					"internalType": "uint256",
					"name": "",
					"type": "uint256"
				}
			],
			"stateMutability": "view",
			"type": "function"
		},
		{
			"inputs": [],
			"name": "APR_TIER1_NUM",
			"outputs": [
				{
					"internalType": "uint256",
					"name": "",
					"type": "uint256"
				}
			],
			"stateMutability": "view",
			"type": "function"
		},
		{
			"inputs": [],
			"name": "APR_TIER2_NUM",
			"outputs": [
				{
					"internalType": "uint256",
					"name": "",
					"type": "uint256"
				}
			],
			"stateMutability": "view",
			"type": "function"
		},
		{
			"inputs": [],
			"name": "TIER_BORDER",
			"outputs": [
				{
					"internalType": "uint256",
					"name": "",
					"type": "uint256"
				}
			],
			"stateMutability": "view",
			"type": "function"
		},
		{
			"inputs": [],
			"name": "YEAR",
			"outputs": [
				{
					"internalType": "uint256",
					"name": "",
					"type": "uint256"
				}
			],
			"stateMutability": "view",
			"type": "function"
		},
		{
			"inputs": [
				{
					"internalType": "address",
					"name": "",
					"type": "address"
				}
			],
			"name": "accounts",
			"outputs": [
				{
					"internalType": "uint256",
					"name": "principal",
					"type": "uint256"
				},
				{
					"internalType": "uint256",
					"name": "accRewards",
					"type": "uint256"
				},
				{
					"internalType": "uint64",
					"name": "lastAccrued",
					"type": "uint64"
				}
			],
			"stateMutability": "view",
			"type": "function"
		},
		{
			"inputs": [],
			"name": "availableRewardsPool",
			"outputs": [
				{
					"internalType": "uint256",
					"name": "",
					"type": "uint256"
				}
			],
			"stateMutability": "view",
			"type": "function"
		},
		{
			"inputs": [],
			"name": "claim",
			"outputs": [],
			"stateMutability": "nonpayable",
			"type": "function"
		},
		{
			"inputs": [],
			"name": "deposit",
			"outputs": [],
			"stateMutability": "payable",
			"type": "function"
		},
		{
			"inputs": [],
			"name": "exit",
			"outputs": [],
			"stateMutability": "nonpayable",
			"type": "function"
		},
		{
			"inputs": [],
			"name": "fundRewards",
			"outputs": [],
			"stateMutability": "payable",
			"type": "function"
		},
		{
			"inputs": [
				{
					"internalType": "address",
					"name": "user",
					"type": "address"
				}
			],
			"name": "getAccountSummary",
			"outputs": [
				{
					"internalType": "uint256",
					"name": "principal",
					"type": "uint256"
				},
				{
					"internalType": "uint256",
					"name": "accRewards",
					"type": "uint256"
				},
				{
					"internalType": "uint256",
					"name": "pending",
					"type": "uint256"
				},
				{
					"internalType": "uint256",
					"name": "total",
					"type": "uint256"
				}
			],
			"stateMutability": "view",
			"type": "function"
		},
		{
			"inputs": [
				{
					"internalType": "address",
					"name": "user",
					"type": "address"
				}
			],
			"name": "pendingRewards",
			"outputs": [
				{
					"internalType": "uint256",
					"name": "",
					"type": "uint256"
				}
			],
			"stateMutability": "view",
			"type": "function"
		},
		{
			"inputs": [],
			"name": "totalStaked",
			"outputs": [
				{
					"internalType": "uint256",
					"name": "",
					"type": "uint256"
				}
			],
			"stateMutability": "view",
			"type": "function"
		},
		{
			"inputs": [
				{
					"internalType": "uint256",
					"name": "amount",
					"type": "uint256"
				}
			],
			"name": "withdraw",
			"outputs": [],
			"stateMutability": "nonpayable",
			"type": "function"
		},
		{
			"stateMutability": "payable",
			"type": "receive"
		}
	]
}