{
  "abi": [
    {
      "type": "constructor",
      "inputs": [
        {
          "name": "initialOwner",
          "type": "address",
          "internalType": "address"
        }
      ],
      "stateMutability": "nonpayable"
    },
    {
      "type": "function",
      "name": "allowance",
      "inputs": [
        {
          "name": "owner",
          "type": "address",
          "internalType": "address"
        },
        {
          "name": "spender",
          "type": "address",
          "internalType": "address"
        },
        {
          "name": "id",
          "type": "uint256",
          "internalType": "uint256"
        }
      ],
      "outputs": [
        {
          "name": "amount",
          "type": "uint256",
          "internalType": "uint256"
        }
      ],
      "stateMutability": "view"
    },
    {
      "type": "function",
      "name": "approve",
      "inputs": [
        {
          "name": "spender",
          "type": "address",
          "internalType": "address"
        },
        {
          "name": "id",
          "type": "uint256",
          "internalType": "uint256"
        },
        {
          "name": "amount",
          "type": "uint256",
          "internalType": "uint256"
        }
      ],
      "outputs": [
        {
          "name": "",
          "type": "bool",
          "internalType": "bool"
        }
      ],
      "stateMutability": "nonpayable"
    },
    {
      "type": "function",
      "name": "balanceOf",
      "inputs": [
        {
          "name": "owner",
          "type": "address",
          "internalType": "address"
        },
        {
          "name": "id",
          "type": "uint256",
          "internalType": "uint256"
        }
      ],
      "outputs": [
        {
          "name": "balance",
          "type": "uint256",
          "internalType": "uint256"
        }
      ],
      "stateMutability": "view"
    },
    {
      "type": "function",
      "name": "burn",
      "inputs": [
        {
          "name": "from",
          "type": "address",
          "internalType": "address"
        },
        {
          "name": "id",
          "type": "uint256",
          "internalType": "uint256"
        },
        {
          "name": "amount",
          "type": "uint256",
          "internalType": "uint256"
        }
      ],
      "outputs": [],
      "stateMutability": "nonpayable"
    },
    {
      "type": "function",
      "name": "clear",
      "inputs": [
        {
          "name": "currency",
          "type": "address",
          "internalType": "Currency"
        },
        {
          "name": "amount",
          "type": "uint256",
          "internalType": "uint256"
        }
      ],
      "outputs": [],
      "stateMutability": "nonpayable"
    },
    {
      "type": "function",
      "name": "collectProtocolFees",
      "inputs": [
        {
          "name": "recipient",
          "type": "address",
          "internalType": "address"
        },
        {
          "name": "currency",
          "type": "address",
          "internalType": "Currency"
        },
        {
          "name": "amount",
          "type": "uint256",
          "internalType": "uint256"
        }
      ],
      "outputs": [
        {
          "name": "amountCollected",
          "type": "uint256",
          "internalType": "uint256"
        }
      ],
      "stateMutability": "nonpayable"
    },
    {
      "type": "function",
      "name": "donate",
      "inputs": [
        {
          "name": "key",
          "type": "tuple",
          "internalType": "struct PoolKey",
          "components": [
            {
              "name": "currency0",
              "type": "address",
              "internalType": "Currency"
            },
            {
              "name": "currency1",
              "type": "address",
              "internalType": "Currency"
            },
            {
              "name": "fee",
              "type": "uint24",
              "internalType": "uint24"
            },
            {
              "name": "tickSpacing",
              "type": "int24",
              "internalType": "int24"
            },
            {
              "name": "hooks",
              "type": "address",
              "internalType": "contract IHooks"
            }
          ]
        },
        {
          "name": "amount0",
          "type": "uint256",
          "internalType": "uint256"
        },
        {
          "name": "amount1",
          "type": "uint256",
          "internalType": "uint256"
        },
        {
          "name": "hookData",
          "type": "bytes",
          "internalType": "bytes"
        }
      ],
      "outputs": [
        {
          "name": "delta",
          "type": "int256",
          "internalType": "BalanceDelta"
        }
      ],
      "stateMutability": "nonpayable"
    },
    {
      "type": "function",
      "name": "extsload",
      "inputs": [
        {
          "name": "slot",
          "type": "bytes32",
          "internalType": "bytes32"
        }
      ],
      "outputs": [
        {
          "name": "",
          "type": "bytes32",
          "internalType": "bytes32"
        }
      ],
      "stateMutability": "view"
    },
    {
      "type": "function",
      "name": "extsload",
      "inputs": [
        {
          "name": "startSlot",
          "type": "bytes32",
          "internalType": "bytes32"
        },
        {
          "name": "nSlots",
          "type": "uint256",
          "internalType": "uint256"
        }
      ],
      "outputs": [
        {
          "name": "",
          "type": "bytes32[]",
          "internalType": "bytes32[]"
        }
      ],
      "stateMutability": "view"
    },
    {
      "type": "function",
      "name": "extsload",
      "inputs": [
        {
          "name": "slots",
          "type": "bytes32[]",
          "internalType": "bytes32[]"
        }
      ],
      "outputs": [
        {
          "name": "",
          "type": "bytes32[]",
          "internalType": "bytes32[]"
        }
      ],
      "stateMutability": "view"
    },
    {
      "type": "function",
      "name": "exttload",
      "inputs": [
        {
          "name": "slots",
          "type": "bytes32[]",
          "internalType": "bytes32[]"
        }
      ],
      "outputs": [
        {
          "name": "",
          "type": "bytes32[]",
          "internalType": "bytes32[]"
        }
      ],
      "stateMutability": "view"
    },
    {
      "type": "function",
      "name": "exttload",
      "inputs": [
        {
          "name": "slot",
          "type": "bytes32",
          "internalType": "bytes32"
        }
      ],
      "outputs": [
        {
          "name": "",
          "type": "bytes32",
          "internalType": "bytes32"
        }
      ],
      "stateMutability": "view"
    },
    {
      "type": "function",
      "name": "initialize",
      "inputs": [
        {
          "name": "key",
          "type": "tuple",
          "internalType": "struct PoolKey",
          "components": [
            {
              "name": "currency0",
              "type": "address",
              "internalType": "Currency"
            },
            {
              "name": "currency1",
              "type": "address",
              "internalType": "Currency"
            },
            {
              "name": "fee",
              "type": "uint24",
              "internalType": "uint24"
            },
            {
              "name": "tickSpacing",
              "type": "int24",
              "internalType": "int24"
            },
            {
              "name": "hooks",
              "type": "address",
              "internalType": "contract IHooks"
            }
          ]
        },
        {
          "name": "sqrtPriceX96",
          "type": "uint160",
          "internalType": "uint160"
        }
      ],
      "outputs": [
        {
          "name": "tick",
          "type": "int24",
          "internalType": "int24"
        }
      ],
      "stateMutability": "nonpayable"
    },
    {
      "type": "function",
      "name": "isOperator",
      "inputs": [
        {
          "name": "owner",
          "type": "address",
          "internalType": "address"
        },
        {
          "name": "operator",
          "type": "address",
          "internalType": "address"
        }
      ],
      "outputs": [
        {
          "name": "isOperator",
          "type": "bool",
          "internalType": "bool"
        }
      ],
      "stateMutability": "view"
    },
    {
      "type": "function",
      "name": "mint",
      "inputs": [
        {
          "name": "to",
          "type": "address",
          "internalType": "address"
        },
        {
          "name": "id",
          "type": "uint256",
          "internalType": "uint256"
        },
        {
          "name": "amount",
          "type": "uint256",
          "internalType": "uint256"
        }
      ],
      "outputs": [],
      "stateMutability": "nonpayable"
    },
    {
      "type": "function",
      "name": "modifyLiquidity",
      "inputs": [
        {
          "name": "key",
          "type": "tuple",
          "internalType": "struct PoolKey",
          "components": [
            {
              "name": "currency0",
              "type": "address",
              "internalType": "Currency"
            },
            {
              "name": "currency1",
              "type": "address",
              "internalType": "Currency"
            },
            {
              "name": "fee",
              "type": "uint24",
              "internalType": "uint24"
            },
            {
              "name": "tickSpacing",
              "type": "int24",
              "internalType": "int24"
            },
            {
              "name": "hooks",
              "type": "address",
              "internalType": "contract IHooks"
            }
          ]
        },
        {
          "name": "params",
          "type": "tuple",
          "internalType": "struct IPoolManager.ModifyLiquidityParams",
          "components": [
            {
              "name": "tickLower",
              "type": "int24",
              "internalType": "int24"
            },
            {
              "name": "tickUpper",
              "type": "int24",
              "internalType": "int24"
            },
            {
              "name": "liquidityDelta",
              "type": "int256",
              "internalType": "int256"
            },
            {
              "name": "salt",
              "type": "bytes32",
              "internalType": "bytes32"
            }
          ]
        },
        {
          "name": "hookData",
          "type": "bytes",
          "internalType": "bytes"
        }
      ],
      "outputs": [
        {
          "name": "callerDelta",
          "type": "int256",
          "internalType": "BalanceDelta"
        },
        {
          "name": "feesAccrued",
          "type": "int256",
          "internalType": "BalanceDelta"
        }
      ],
      "stateMutability": "nonpayable"
    },
    {
      "type": "function",
      "name": "owner",
      "inputs": [],
      "outputs": [
        {
          "name": "",
          "type": "address",
          "internalType": "address"
        }
      ],
      "stateMutability": "view"
    },
    {
      "type": "function",
      "name": "protocolFeeController",
      "inputs": [],
      "outputs": [
        {
          "name": "",
          "type": "address",
          "internalType": "address"
        }
      ],
      "stateMutability": "view"
    },
    {
      "type": "function",
      "name": "protocolFeesAccrued",
      "inputs": [
        {
          "name": "currency",
          "type": "address",
          "internalType": "Currency"
        }
      ],
      "outputs": [
        {
          "name": "amount",
          "type": "uint256",
          "internalType": "uint256"
        }
      ],
      "stateMutability": "view"
    },
    {
      "type": "function",
      "name": "setOperator",
      "inputs": [
        {
          "name": "operator",
          "type": "address",
          "internalType": "address"
        },
        {
          "name": "approved",
          "type": "bool",
          "internalType": "bool"
        }
      ],
      "outputs": [
        {
          "name": "",
          "type": "bool",
          "internalType": "bool"
        }
      ],
      "stateMutability": "nonpayable"
    },
    {
      "type": "function",
      "name": "setProtocolFee",
      "inputs": [
        {
          "name": "key",
          "type": "tuple",
          "internalType": "struct PoolKey",
          "components": [
            {
              "name": "currency0",
              "type": "address",
              "internalType": "Currency"
            },
            {
              "name": "currency1",
              "type": "address",
              "internalType": "Currency"
            },
            {
              "name": "fee",
              "type": "uint24",
              "internalType": "uint24"
            },
            {
              "name": "tickSpacing",
              "type": "int24",
              "internalType": "int24"
            },
            {
              "name": "hooks",
              "type": "address",
              "internalType": "contract IHooks"
            }
          ]
        },
        {
          "name": "newProtocolFee",
          "type": "uint24",
          "internalType": "uint24"
        }
      ],
      "outputs": [],
      "stateMutability": "nonpayable"
    },
    {
      "type": "function",
      "name": "setProtocolFeeController",
      "inputs": [
        {
          "name": "controller",
          "type": "address",
          "internalType": "address"
        }
      ],
      "outputs": [],
      "stateMutability": "nonpayable"
    },
    {
      "type": "function",
      "name": "settle",
      "inputs": [],
      "outputs": [
        {
          "name": "",
          "type": "uint256",
          "internalType": "uint256"
        }
      ],
      "stateMutability": "payable"
    },
    {
      "type": "function",
      "name": "settleFor",
      "inputs": [
        {
          "name": "recipient",
          "type": "address",
          "internalType": "address"
        }
      ],
      "outputs": [
        {
          "name": "",
          "type": "uint256",
          "internalType": "uint256"
        }
      ],
      "stateMutability": "payable"
    },
    {
      "type": "function",
      "name": "supportsInterface",
      "inputs": [
        {
          "name": "interfaceId",
          "type": "bytes4",
          "internalType": "bytes4"
        }
      ],
      "outputs": [
        {
          "name": "",
          "type": "bool",
          "internalType": "bool"
        }
      ],
      "stateMutability": "view"
    },
    {
      "type": "function",
      "name": "swap",
      "inputs": [
        {
          "name": "key",
          "type": "tuple",
          "internalType": "struct PoolKey",
          "components": [
            {
              "name": "currency0",
              "type": "address",
              "internalType": "Currency"
            },
            {
              "name": "currency1",
              "type": "address",
              "internalType": "Currency"
            },
            {
              "name": "fee",
              "type": "uint24",
              "internalType": "uint24"
            },
            {
              "name": "tickSpacing",
              "type": "int24",
              "internalType": "int24"
            },
            {
              "name": "hooks",
              "type": "address",
              "internalType": "contract IHooks"
            }
          ]
        },
        {
          "name": "params",
          "type": "tuple",
          "internalType": "struct IPoolManager.SwapParams",
          "components": [
            {
              "name": "zeroForOne",
              "type": "bool",
              "internalType": "bool"
            },
            {
              "name": "amountSpecified",
              "type": "int256",
              "internalType": "int256"
            },
            {
              "name": "sqrtPriceLimitX96",
              "type": "uint160",
              "internalType": "uint160"
            }
          ]
        },
        {
          "name": "hookData",
          "type": "bytes",
          "internalType": "bytes"
        }
      ],
      "outputs": [
        {
          "name": "swapDelta",
          "type": "int256",
          "internalType": "BalanceDelta"
        }
      ],
      "stateMutability": "nonpayable"
    },
    {
      "type": "function",
      "name": "sync",
      "inputs": [
        {
          "name": "currency",
          "type": "address",
          "internalType": "Currency"
        }
      ],
      "outputs": [],
      "stateMutability": "nonpayable"
    },
    {
      "type": "function",
      "name": "take",
      "inputs": [
        {
          "name": "currency",
          "type": "address",
          "internalType": "Currency"
        },
        {
          "name": "to",
          "type": "address",
          "internalType": "address"
        },
        {
          "name": "amount",
          "type": "uint256",
          "internalType": "uint256"
        }
      ],
      "outputs": [],
      "stateMutability": "nonpayable"
    },
    {
      "type": "function",
      "name": "transfer",
      "inputs": [
        {
          "name": "receiver",
          "type": "address",
          "internalType": "address"
        },
        {
          "name": "id",
          "type": "uint256",
          "internalType": "uint256"
        },
        {
          "name": "amount",
          "type": "uint256",
          "internalType": "uint256"
        }
      ],
      "outputs": [
        {
          "name": "",
          "type": "bool",
          "internalType": "bool"
        }
      ],
      "stateMutability": "nonpayable"
    },
    {
      "type": "function",
      "name": "transferFrom",
      "inputs": [
        {
          "name": "sender",
          "type": "address",
          "internalType": "address"
        },
        {
          "name": "receiver",
          "type": "address",
          "internalType": "address"
        },
        {
          "name": "id",
          "type": "uint256",
          "internalType": "uint256"
        },
        {
          "name": "amount",
          "type": "uint256",
          "internalType": "uint256"
        }
      ],
      "outputs": [
        {
          "name": "",
          "type": "bool",
          "internalType": "bool"
        }
      ],
      "stateMutability": "nonpayable"
    },
    {
      "type": "function",
      "name": "transferOwnership",
      "inputs": [
        {
          "name": "newOwner",
          "type": "address",
          "internalType": "address"
        }
      ],
      "outputs": [],
      "stateMutability": "nonpayable"
    },
    {
      "type": "function",
      "name": "unlock",
      "inputs": [
        {
          "name": "data",
          "type": "bytes",
          "internalType": "bytes"
        }
      ],
      "outputs": [
        {
          "name": "result",
          "type": "bytes",
          "internalType": "bytes"
        }
      ],
      "stateMutability": "nonpayable"
    },
    {
      "type": "function",
      "name": "updateDynamicLPFee",
      "inputs": [
        {
          "name": "key",
          "type": "tuple",
          "internalType": "struct PoolKey",
          "components": [
            {
              "name": "currency0",
              "type": "address",
              "internalType": "Currency"
            },
            {
              "name": "currency1",
              "type": "address",
              "internalType": "Currency"
            },
            {
              "name": "fee",
              "type": "uint24",
              "internalType": "uint24"
            },
            {
              "name": "tickSpacing",
              "type": "int24",
              "internalType": "int24"
            },
            {
              "name": "hooks",
              "type": "address",
              "internalType": "contract IHooks"
            }
          ]
        },
        {
          "name": "newDynamicLPFee",
          "type": "uint24",
          "internalType": "uint24"
        }
      ],
      "outputs": [],
      "stateMutability": "nonpayable"
    },
    {
      "type": "event",
      "name": "Approval",
      "inputs": [
        {
          "name": "owner",
          "type": "address",
          "indexed": true,
          "internalType": "address"
        },
        {
          "name": "spender",
          "type": "address",
          "indexed": true,
          "internalType": "address"
        },
        {
          "name": "id",
          "type": "uint256",
          "indexed": true,
          "internalType": "uint256"
        },
        {
          "name": "amount",
          "type": "uint256",
          "indexed": false,
          "internalType": "uint256"
        }
      ],
      "anonymous": false
    },
    {
      "type": "event",
      "name": "Donate",
      "inputs": [
        {
          "name": "id",
          "type": "bytes32",
          "indexed": true,
          "internalType": "PoolId"
        },
        {
          "name": "sender",
          "type": "address",
          "indexed": true,
          "internalType": "address"
        },
        {
          "name": "amount0",
          "type": "uint256",
          "indexed": false,
          "internalType": "uint256"
        },
        {
          "name": "amount1",
          "type": "uint256",
          "indexed": false,
          "internalType": "uint256"
        }
      ],
      "anonymous": false
    },
    {
      "type": "event",
      "name": "Initialize",
      "inputs": [
        {
          "name": "id",
          "type": "bytes32",
          "indexed": true,
          "internalType": "PoolId"
        },
        {
          "name": "currency0",
          "type": "address",
          "indexed": true,
          "internalType": "Currency"
        },
        {
          "name": "currency1",
          "type": "address",
          "indexed": true,
          "internalType": "Currency"
        },
        {
          "name": "fee",
          "type": "uint24",
          "indexed": false,
          "internalType": "uint24"
        },
        {
          "name": "tickSpacing",
          "type": "int24",
          "indexed": false,
          "internalType": "int24"
        },
        {
          "name": "hooks",
          "type": "address",
          "indexed": false,
          "internalType": "contract IHooks"
        },
        {
          "name": "sqrtPriceX96",
          "type": "uint160",
          "indexed": false,
          "internalType": "uint160"
        },
        {
          "name": "tick",
          "type": "int24",
          "indexed": false,
          "internalType": "int24"
        }
      ],
      "anonymous": false
    },
    {
      "type": "event",
      "name": "ModifyLiquidity",
      "inputs": [
        {
          "name": "id",
          "type": "bytes32",
          "indexed": true,
          "internalType": "PoolId"
        },
        {
          "name": "sender",
          "type": "address",
          "indexed": true,
          "internalType": "address"
        },
        {
          "name": "tickLower",
          "type": "int24",
          "indexed": false,
          "internalType": "int24"
        },
        {
          "name": "tickUpper",
          "type": "int24",
          "indexed": false,
          "internalType": "int24"
        },
        {
          "name": "liquidityDelta",
          "type": "int256",
          "indexed": false,
          "internalType": "int256"
        },
        {
          "name": "salt",
          "type": "bytes32",
          "indexed": false,
          "internalType": "bytes32"
        }
      ],
      "anonymous": false
    },
    {
      "type": "event",
      "name": "OperatorSet",
      "inputs": [
        {
          "name": "owner",
          "type": "address",
          "indexed": true,
          "internalType": "address"
        },
        {
          "name": "operator",
          "type": "address",
          "indexed": true,
          "internalType": "address"
        },
        {
          "name": "approved",
          "type": "bool",
          "indexed": false,
          "internalType": "bool"
        }
      ],
      "anonymous": false
    },
    {
      "type": "event",
      "name": "OwnershipTransferred",
      "inputs": [
        {
          "name": "user",
          "type": "address",
          "indexed": true,
          "internalType": "address"
        },
        {
          "name": "newOwner",
          "type": "address",
          "indexed": true,
          "internalType": "address"
        }
      ],
      "anonymous": false
    },
    {
      "type": "event",
      "name": "PoolReserves",
      "inputs": [
        {
          "name": "id",
          "type": "bytes32",
          "indexed": true,
          "internalType": "PoolId"
        },
        {
          "name": "currency0",
          "type": "address",
          "indexed": true,
          "internalType": "address"
        },
        {
          "name": "currency1",
          "type": "address",
          "indexed": true,
          "internalType": "address"
        },
        {
          "name": "reserve0",
          "type": "uint256",
          "indexed": false,
          "internalType": "uint256"
        },
        {
          "name": "reserve1",
          "type": "uint256",
          "indexed": false,
          "internalType": "uint256"
        },
        {
          "name": "nativeGlobalBalance",
          "type": "uint256",
          "indexed": false,
          "internalType": "uint256"
        },
        {
          "name": "sqrtPriceX96",
          "type": "uint160",
          "indexed": false,
          "internalType": "uint160"
        },
        {
          "name": "liquidity",
          "type": "uint128",
          "indexed": false,
          "internalType": "uint128"
        },
        {
          "name": "tick",
          "type": "int24",
          "indexed": false,
          "internalType": "int24"
        }
      ],
      "anonymous": false
    },
    {
      "type": "event",
      "name": "ProtocolFeeControllerUpdated",
      "inputs": [
        {
          "name": "protocolFeeController",
          "type": "address",
          "indexed": true,
          "internalType": "address"
        }
      ],
      "anonymous": false
    },
    {
      "type": "event",
      "name": "ProtocolFeeUpdated",
      "inputs": [
        {
          "name": "id",
          "type": "bytes32",
          "indexed": true,
          "internalType": "PoolId"
        },
        {
          "name": "protocolFee",
          "type": "uint24",
          "indexed": false,
          "internalType": "uint24"
        }
      ],
      "anonymous": false
    },
    {
      "type": "event",
      "name": "Swap",
      "inputs": [
        {
          "name": "id",
          "type": "bytes32",
          "indexed": true,
          "internalType": "PoolId"
        },
        {
          "name": "sender",
          "type": "address",
          "indexed": true,
          "internalType": "address"
        },
        {
          "name": "amount0",
          "type": "int128",
          "indexed": false,
          "internalType": "int128"
        },
        {
          "name": "amount1",
          "type": "int128",
          "indexed": false,
          "internalType": "int128"
        },
        {
          "name": "sqrtPriceX96",
          "type": "uint160",
          "indexed": false,
          "internalType": "uint160"
        },
        {
          "name": "liquidity",
          "type": "uint128",
          "indexed": false,
          "internalType": "uint128"
        },
        {
          "name": "tick",
          "type": "int24",
          "indexed": false,
          "internalType": "int24"
        },
        {
          "name": "fee",
          "type": "uint24",
          "indexed": false,
          "internalType": "uint24"
        }
      ],
      "anonymous": false
    },
    {
      "type": "event",
      "name": "Transfer",
      "inputs": [
        {
          "name": "caller",
          "type": "address",
          "indexed": false,
          "internalType": "address"
        },
        {
          "name": "from",
          "type": "address",
          "indexed": true,
          "internalType": "address"
        },
        {
          "name": "to",
          "type": "address",
          "indexed": true,
          "internalType": "address"
        },
        {
          "name": "id",
          "type": "uint256",
          "indexed": true,
          "internalType": "uint256"
        },
        {
          "name": "amount",
          "type": "uint256",
          "indexed": false,
          "internalType": "uint256"
        }
      ],
      "anonymous": false
    },
    {
      "type": "error",
      "name": "AlreadyUnlocked",
      "inputs": []
    },
    {
      "type": "error",
      "name": "CurrenciesOutOfOrderOrEqual",
      "inputs": [
        {
          "name": "currency0",
          "type": "address",
          "internalType": "address"
        },
        {
          "name": "currency1",
          "type": "address",
          "internalType": "address"
        }
      ]
    },
    {
      "type": "error",
      "name": "CurrencyNotSettled",
      "inputs": []
    },
    {
      "type": "error",
      "name": "DelegateCallNotAllowed",
      "inputs": []
    },
    {
      "type": "error",
      "name": "InvalidCaller",
      "inputs": []
    },
    {
      "type": "error",
      "name": "ManagerLocked",
      "inputs": []
    },
    {
      "type": "error",
      "name": "MustClearExactPositiveDelta",
      "inputs": []
    },
    {
      "type": "error",
      "name": "NonzeroNativeValue",
      "inputs": []
    },
    {
      "type": "error",
      "name": "PoolNotInitialized",
      "inputs": []
    },
    {
      "type": "error",
      "name": "ProtocolFeeCurrencySynced",
      "inputs": []
    },
    {
      "type": "error",
      "name": "ProtocolFeeTooLarge",
      "inputs": [
        {
          "name": "fee",
          "type": "uint24",
          "internalType": "uint24"
        }
      ]
    },
    {
      "type": "error",
      "name": "SwapAmountCannotBeZero",
      "inputs": []
    },
    {
      "type": "error",
      "name": "TickSpacingTooLarge",
      "inputs": [
        {
          "name": "tickSpacing",
          "type": "int24",
          "internalType": "int24"
        }
      ]
    },
    {
      "type": "error",
      "name": "TickSpacingTooSmall",
      "inputs": [
        {
          "name": "tickSpacing",
          "type": "int24",
          "internalType": "int24"
        }
      ]
    },
    {
      "type": "error",
      "name": "UnauthorizedDynamicLPFeeUpdate",
      "inputs": []
    }
  ],
  "bytecode": {
    "object": "0x60a03460a057601f615faa38819003918201601f19168301916001600160401b0383118484101760a45780849260209460405283398101031260a057516001600160a01b0381169081900360a0575f80546001600160a01b0319168217815560405191907f8be0079c531659141344cd1fd0a4f28419497f9722a3daafe3b4186f6b6457e08180a330608052615ef190816100b98239608051816136250152f35b5f80fd5b634e487b7160e01b5f52604160045260245ffdfe60a0806040526004361015610012575f80fd5b5f3560e01c908162fdd58e14612dd45750806301ffc9a714612d15578063095bcdb614612c6b5780630b0d9c0914612bdf57806311da60b414612b84578063156e29f614612ad45780631e2eaeaf14612a9a578063234266d7146127fb5780632d7713891461275057806335fd631a146126dc5780633dd45adb14612678578063426a8493146125f457806348c89491146123695780635275965114612251578063558a72971461217a578063598af9e7146120e25780635a6bcfda1461154e5780636276cbbe146110955780637e87ce7d14610f5857806380f0b44c14610e865780638161b87414610d305780638da5cb5b14610ce057806397e8cd4e14610c7d5780639bf6645f14610c30578063a584119414610b65578063b6363cf214610ad4578063dbd035ff14610a7e578063f02de3b214610a2d578063f135baaa146109f3578063f2fde38b14610947578063f3cd914c146104ff578063f5298aca146103345763fe99049a14610186575f80fd5b346103305760807ffffffffffffffffffffffffffffffffffffffffffffffffffffffffffffffffc360112610330576101bd612e3e565b6101c5612e61565b90604435917f1b3d7edb2e9c0b0e7c525b20aaaef0f5940d2ed71663c7d39266ecafac72885961027973ffffffffffffffffffffffffffffffffffffffff80606435951693843314158061030d575b610287575b845f52600460205260405f20875f5260205260405f2061023a8782546130ec565b90551693845f52600460205260405f20865f5260205260405f2061025f8282546130f9565b905560408051338152602081019290925290918291820190565b0390a4602060405160018152f35b845f52600560205260405f208233165f5260205260405f20875f5260205260405f2054867fffffffffffffffffffffffffffffffffffffffffffffffffffffffffffffffff82036102da575b5050610219565b6102e3916130ec565b855f52600560205260405f208333165f5260205260405f20885f5260205260405f20555f866102d3565b50845f52600360205260405f208233165f5260205260ff60405f20541615610214565b5f80fd5b346103305761034236612e84565b7fc090fc4683624cfc3884e9d8de5eca132f2d0ec062aff75d43c0465d5ceeab235c156104d7577f1b3d7edb2e9c0b0e7c525b20aaaef0f5940d2ed71663c7d39266ecafac7288596103ed73ffffffffffffffffffffffffffffffffffffffff805f9516956103bb6103b3866131a9565b3390896131ef565b169233841415806104a0575b6103f2575b8385526004602052604085208686526020526040852061025f8282546130ec565b0390a4005b83855260056020526040852073ffffffffffffffffffffffffffffffffffffffff33168652602052604085208686526020526040852054817fffffffffffffffffffffffffffffffffffffffffffffffffffffffffffffffff8203610459575b50506103cc565b610462916130ec565b84865260056020526040862073ffffffffffffffffffffffffffffffffffffffff331687526020526040862087875260205260408620558681610452565b5083855260036020526040852073ffffffffffffffffffffffffffffffffffffffff3316865260205260ff604086205416156103c7565b7f54e3ca0d000000000000000000000000000000000000000000000000000000005f5260045ffd5b34610330576101207ffffffffffffffffffffffffffffffffffffffffffffffffffffffffffffffffc3601126103305761053836612f80565b60607fffffffffffffffffffffffffffffffffffffffffffffffffffffffffffffff5c3601126103305760405161056e81612ef5565b60a4358015158103610330578152602081019060c435825260e4359073ffffffffffffffffffffffffffffffffffffffff8216820361033057604081019182526101043567ffffffffffffffff8111610330576105cf90369060040161304c565b9290937fc090fc4683624cfc3884e9d8de5eca132f2d0ec062aff75d43c0465d5ceeab235c156104d75761060161360e565b511561091f57849160a0832093845f52600660205260405f209561062487613675565b6080850196858383868b5173ffffffffffffffffffffffffffffffffffffffff169361064f94613c43565b90959196606089015160020b9083511515905173ffffffffffffffffffffffffffffffffffffffff1691604051996106868b612f11565b8a5260208a01526040890152606088015262ffffff166080870152805115155f1460209a610869997f8d060588a299d20d6adde48169888631be20f791e7dfeb50d458ae59256484a86106fb6108569a60c0956108fe5773ffffffffffffffffffffffffffffffffffffffff85511697614a58565b9190969298816108cf575b505073ffffffffffffffffffffffffffffffffffffffff815116908862ffffff60408301986fffffffffffffffffffffffffffffffff8a5116946020850195865160020b91604051958060801d600f0b8752600f0b60208701526040860152606085015260808401521660a0820152857f40e9cecb9f5f1f1c5b9c97dec2917b7ee92e57ba5563708daca94dd84ad7112f853393a3602073ffffffffffffffffffffffffffffffffffffffff87511696019173ffffffffffffffffffffffffffffffffffffffff8351169787155f146108c05747935b8961089a575047925b6fffffffffffffffffffffffffffffffff73ffffffffffffffffffffffffffffffffffffffff47925116925116925160020b93604051958652602086015260408501526060840152608083015260a0820152a48673ffffffffffffffffffffffffffffffffffffffff8a5116613e80565b80949194610871575b5050823391613751565b604051908152f35b73ffffffffffffffffffffffffffffffffffffffff6108939251169083613751565b848061085f565b73ffffffffffffffffffffffffffffffffffffffff6108ba915116613b91565b926107e5565b6108c988613b91565b936107dc565b73ffffffffffffffffffffffffffffffffffffffff165f5260206001905260405f209081540190555f80610706565b8f73ffffffffffffffffffffffffffffffffffffffff908601511697614a58565b7fbe8b8507000000000000000000000000000000000000000000000000000000005f5260045ffd5b346103305760207ffffffffffffffffffffffffffffffffffffffffffffffffffffffffffffffffc360112610330577fffffffffffffffffffffffff000000000000000000000000000000000000000061099f612e3e565b73ffffffffffffffffffffffffffffffffffffffff5f54916109c48284163314613106565b1691829116175f55337f8be0079c531659141344cd1fd0a4f28419497f9722a3daafe3b4186f6b6457e05f80a3005b346103305760207ffffffffffffffffffffffffffffffffffffffffffffffffffffffffffffffffc360112610330576004355c5f5260205ff35b34610330575f7ffffffffffffffffffffffffffffffffffffffffffffffffffffffffffffffffc36011261033057602073ffffffffffffffffffffffffffffffffffffffff60025416604051908152f35b3461033057610a8c3661307a565b6040519160408360208152836020820152019160051b8301916020806040850193925b8335548152019101908483821015610acb575060208091610aaf565b60408186030190f35b346103305760407ffffffffffffffffffffffffffffffffffffffffffffffffffffffffffffffffc36011261033057610b0b612e3e565b73ffffffffffffffffffffffffffffffffffffffff610b28612e61565b91165f52600360205273ffffffffffffffffffffffffffffffffffffffff60405f2091165f52602052602060ff60405f2054166040519015158152f35b346103305760207ffffffffffffffffffffffffffffffffffffffffffffffffffffffffffffffffc36011261033057610b9c612e3e565b73ffffffffffffffffffffffffffffffffffffffff81169081610be05750505f7f27e098c505d44ec3574004bca052aabf76bd35004c182099d8c575fb238593b95d005b610be990613b91565b907f27e098c505d44ec3574004bca052aabf76bd35004c182099d8c575fb238593b95d7f1e0745a7db1623981f0b2a5d4232364c00787266eb75ad546f190e6cebe9bd955d005b3461033057610c3e3661307a565b6040519160408360208152836020820152019160051b8301916020806040850193925b83355c8152019101908483821015610acb575060208091610c61565b346103305760207ffffffffffffffffffffffffffffffffffffffffffffffffffffffffffffffffc3601126103305773ffffffffffffffffffffffffffffffffffffffff610cc9612e3e565b165f526001602052602060405f2054604051908152f35b34610330575f7ffffffffffffffffffffffffffffffffffffffffffffffffffffffffffffffffc36011261033057602073ffffffffffffffffffffffffffffffffffffffff5f5416604051908152f35b346103305760607ffffffffffffffffffffffffffffffffffffffffffffffffffffffffffffffffc36011261033057610d67612e3e565b610d6f612e61565b60443573ffffffffffffffffffffffffffffffffffffffff600254163303610e5e5773ffffffffffffffffffffffffffffffffffffffff821680151580610e1e575b610df6576020936108699280610dee5750815f526001855260405f20549384925b5f526001865260405f20610de78482546130ec565b90556132f7565b938492610dd2565b7fc79e5948000000000000000000000000000000000000000000000000000000005f5260045ffd5b508073ffffffffffffffffffffffffffffffffffffffff7f27e098c505d44ec3574004bca052aabf76bd35004c182099d8c575fb238593b95c1614610db1565b7f48f5c3ed000000000000000000000000000000000000000000000000000000005f5260045ffd5b346103305760407ffffffffffffffffffffffffffffffffffffffffffffffffffffffffffffffffc36011261033057610ebd612e3e565b7fc090fc4683624cfc3884e9d8de5eca132f2d0ec062aff75d43c0465d5ceeab235c156104d757335f90815273ffffffffffffffffffffffffffffffffffffffff8216602052604090205c610f136024356131a9565b9081600f0b03610f3057610f2e9133915f03600f0b906131ef565b005b7fbda73abf000000000000000000000000000000000000000000000000000000005f5260045ffd5b346103305760c07ffffffffffffffffffffffffffffffffffffffffffffffffffffffffffffffffc36011261033057610f9036612f80565b610f98612f6e565b9073ffffffffffffffffffffffffffffffffffffffff600254163303610e5e57623e900062fff0008316106103e9610fff841610161561106457602060a07fe9c42593e71f84403b84352cd168d693e2c9fcd1fdbcc3feb21d92b43e6696f9922092835f526006825260405f2061100e81613675565b805479ffffff00000000000000000000000000000000000000000000008360b81b16907fffffffffffff000000ffffffffffffffffffffffffffffffffffffffffffffff1617905562ffffff60405191168152a2005b62ffffff827fa7abe2f7000000000000000000000000000000000000000000000000000000005f521660045260245ffd5b346103305760c07ffffffffffffffffffffffffffffffffffffffffffffffffffffffffffffffffc360112610330576110cd36612f80565b60a4359073ffffffffffffffffffffffffffffffffffffffff8216808303610330576110f761360e565b6060820191825160020b617fff81136115235750825160020b600181126114f8575073ffffffffffffffffffffffffffffffffffffffff815116602082019073ffffffffffffffffffffffffffffffffffffffff825116808210156114c1575050608082019073ffffffffffffffffffffffffffffffffffffffff82511690604084019161118b62ffffff84511682613ab6565b1561149657506111a062ffffff835116613b74565b96835173ffffffffffffffffffffffffffffffffffffffff8116908133036113df575b505060a0852090815f52600660205260405f2090815473ffffffffffffffffffffffffffffffffffffffff166113b7576020997fdd466e674ea557f56295e2d0218a125ea4b4f0f6f3307b95f85e6110838d6438927cffffff000000000000000000000000000000000000000000000000000061124160a0946146fb565b9260d01b168a76ffffff000000000000000000000000000000000000000084861b161717905562ffffff73ffffffffffffffffffffffffffffffffffffffff808a5116965116965116995160020b73ffffffffffffffffffffffffffffffffffffffff885116906040519b8c528c8c015260408b01528860608b015260020b98896080820152a45173ffffffffffffffffffffffffffffffffffffffff8116908133036112f3575b8585604051908152f35b61100016611302575b806112e9565b6113ae9261138c604051937f6fe7e6eb0000000000000000000000000000000000000000000000000000000088860152336024860152604485019073ffffffffffffffffffffffffffffffffffffffff6080809282815116855282602082015116602086015262ffffff6040820151166040860152606081015160020b6060860152015116910152565b60e48301528361010483015261010482526113a961012483612f2d565b614024565b508280806112fc565b7f7983c051000000000000000000000000000000000000000000000000000000005f5260045ffd5b612000166113ee575b806111c3565b61148f90604051907fdc98354e000000000000000000000000000000000000000000000000000000006020830152336024830152611479604483018973ffffffffffffffffffffffffffffffffffffffff6080809282815116855282602082015116602086015262ffffff6040820151166040860152606081015160020b6060860152015116910152565b8860e483015260e482526113a961010483612f2d565b50886113e8565b7fe65af6a0000000000000000000000000000000000000000000000000000000005f5260045260245ffd5b60449250604051917f6e6c983000000000000000000000000000000000000000000000000000000000835260048301526024820152fd5b7fe9e90588000000000000000000000000000000000000000000000000000000005f5260045260245ffd5b7fb70024f8000000000000000000000000000000000000000000000000000000005f5260045260245ffd5b34610330576101407ffffffffffffffffffffffffffffffffffffffffffffffffffffffffffffffffc3601126103305761158736612f80565b60807fffffffffffffffffffffffffffffffffffffffffffffffffffffffffffffff5c36011261033057604051906115be82612ed9565b60a4358060020b810361033057825260c4358060020b810361033057602083015260e43560408301526101043560608301526101243567ffffffffffffffff81116103305761161190369060040161304c565b90927fc090fc4683624cfc3884e9d8de5eca132f2d0ec062aff75d43c0465d5ceeab235c156104d75761164261360e565b60a0832093845f52600660205260405f20608052611661608051613675565b608084015173ffffffffffffffffffffffffffffffffffffffff811690813303611fdd575b5050815160020b92602083015160020b916116a46040850151613884565b93606087015160020b9760608201516040519960c08b018b811067ffffffffffffffff821117611fb057604052338b528860208c01528660408c015287600f0b60608c015260808b015260a08a01525f9185881215611f79577ffffffffffffffffffffffffffffffffffffffffffffffffffffffffffff276188812611f4d57620d89e88613611f21576040519261173b84612ed9565b5f84525f60208501525f60408501525f606085015287600f0b611c24575b600460805101978960020b5f528860205260405f20988860020b5f5260205260405f206080515460a01c60020b8b81125f14611bce575060028060018c0154600184015490039b015491015490039b5b60a073ffffffffffffffffffffffffffffffffffffffff825116910151906040519160268301528960068301528b600383015281525f603a600c83012091816040820152816020820152525f5260066080510160205260405f20976fffffffffffffffffffffffffffffffff8954169982600f0b155f14611b71578a15611b495761186e61186860409f9b61194d9c61195f9e5b60018301956118606002611854848a548503615802565b95019283548503615802565b9655556131a9565b916131a9565b6fffffffffffffffffffffffffffffffff169060801b179a8b965f84600f0b12611adb575b5082600f0b611997575b5050506118c36118b48560801d8360801d01613884565b9185600f0b90600f0b01613884565b6fffffffffffffffffffffffffffffffff169060801b1791815160020b90602083015160020b8c8401516060850151918e5194855260208501528d84015260608301527ff208f4912782fd25c7f114ca3723a2d5dd6f3bcc3ac8db5af63baa85f711d5ec60803393a38873ffffffffffffffffffffffffffffffffffffffff60808201511661395a565b8094919461196b575b50833391613751565b82519182526020820152f35b6119919073ffffffffffffffffffffffffffffffffffffffff6080840151169083613751565b85611956565b60805154929350909173ffffffffffffffffffffffffffffffffffffffff81169060a01c60020b828112156119fd575050906119f1926119e66119dc6119ec94614257565b91600f0b92614257565b90614626565b613884565b60801b5b8b808061189d565b92809193125f14611aa857611a3c91611a296119ec6119ec93611a2388600f0b91614257565b87614626565b93611a3786600f0b92614257565b6145c9565b6fffffffffffffffffffffffffffffffff169060801b17906fffffffffffffffffffffffffffffffff611a7b60036080510192600f0b8284541661466d565b167fffffffffffffffffffffffffffffffff000000000000000000000000000000008254161790556119f5565b906119ec925092611abe6119dc611ac495614257565b906145c9565b6fffffffffffffffffffffffffffffffff166119f5565b808f9151611b1d575b0151611af1575b8e611893565b611b188260805160049160020b5f52016020525f6002604082208281558260018201550155565b611aeb565b611b448360805160049160020b5f52016020525f6002604082208281558260018201550155565b611ae4565b7faefeb924000000000000000000000000000000000000000000000000000000005f5260045ffd5b61186e61186860409f9b61194d9c61195f9e6fffffffffffffffffffffffffffffffff611ba189600f0b8361466d565b167fffffffffffffffffffffffffffffffff0000000000000000000000000000000084541617835561183d565b9099908913611bf45760028060018c0154600184015490039b015491015490039b6117a9565b9860026001608051015460018c01549003600183015490039a81806080510154910154900391015490039b6117a9565b6004608051018960020b5f5280602052898960405f20611c7d81546fffffffffffffffffffffffffffffffff611c6081831695600f0b8661466d565b16931594858515141595611eed575b508d600f0b9060801d613e39565b60801b82179055602087015285528760020b5f5260205260405f208054906fffffffffffffffffffffffffffffffff8216611cbb8b600f0b8261466d565b901592836fffffffffffffffffffffffffffffffff831615141593611ec0575b8b600f0b9060801d600f0b03916f7fffffffffffffffffffffffffffffff83137fffffffffffffffffffffffffffffffff80000000000000000000000000000000841217611e9357826fffffffffffffffffffffffffffffffff935060801b83831617905516606086015260408501525f88600f0b1215611da0575b8351611d84575b60408401511561175957611d7f60808c015160020b8860056080510161420b565b611759565b611d9b60808c015160020b8a60056080510161420b565b611d5e565b60808b015160020b6fffffffffffffffffffffffffffffffff600181602088015116925f817ffffffffffffffffffffffffffffffffffffffffffffffffffffffffffff276180712817ffffffffffffffffffffffffffffffffffffffffffffffffffffffffffff27618050390620d89e8050301810416809111611e67576fffffffffffffffffffffffffffffffff6060860151161115611d5757867fb8e3c385000000000000000000000000000000000000000000000000000000005f5260045260245ffd5b897fb8e3c385000000000000000000000000000000000000000000000000000000005f5260045260245ffd5b7f4e487b71000000000000000000000000000000000000000000000000000000005f52601160045260245ffd5b6080515460a01c60020b8b13611cdb57600160805101546001840155600260805101546002840155611cdb565b6080515460a01c60020b1215611f04575b8e611c6f565b600160805101546001840155600260805101546002840155611efe565b857f1ad777f8000000000000000000000000000000000000000000000000000000005f5260045260245ffd5b877fd5e2f7ab000000000000000000000000000000000000000000000000000000005f5260045260245ffd5b60448887604051917fc4433ed500000000000000000000000000000000000000000000000000000000835260048301526024820152fd5b7f4e487b71000000000000000000000000000000000000000000000000000000005f52604160045260245ffd5b5f6040850151138080916120d5575b1561206a5750506040517f259982e5000000000000000000000000000000000000000000000000000000006020820152612061916113a9826120358887898c33602487016137ca565b037fffffffffffffffffffffffffffffffffffffffffffffffffffffffffffffffe08101845283612f2d565b505b8580611686565b1590816120c7575b5061207e575b50612063565b6040517f21d0ee700000000000000000000000000000000000000000000000000000000060208201526120c0916113a9826120358887898c33602487016137ca565b5085612078565b610200915016151587612072565b5061080082161515611fec565b346103305760607ffffffffffffffffffffffffffffffffffffffffffffffffffffffffffffffffc36011261033057612119612e3e565b73ffffffffffffffffffffffffffffffffffffffff612136612e61565b91165f52600560205273ffffffffffffffffffffffffffffffffffffffff60405f2091165f5260205260405f206044355f52602052602060405f2054604051908152f35b346103305760407ffffffffffffffffffffffffffffffffffffffffffffffffffffffffffffffffc360112610330576121b1612e3e565b602435908115158092036103305773ffffffffffffffffffffffffffffffffffffffff90335f52600360205260405f208282165f5260205260405f207fffffffffffffffffffffffffffffffffffffffffffffffffffffffffffffff0081541660ff851617905560405192835216907fceb576d9f15e4e200fdb5096d64d5dfd667e16def20c1eefd14256d8e3faa26760203392a3602060405160018152f35b346103305760c07ffffffffffffffffffffffffffffffffffffffffffffffffffffffffffffffffc3601126103305761228936612f80565b612291612f6e565b906280000062ffffff60408301511614801590612345575b61231d5760a0906122b98361378d565b205f52600660205260405f20906122cf82613675565b81547fffffff000000ffffffffffffffffffffffffffffffffffffffffffffffffffff1660d09190911b7cffffff000000000000000000000000000000000000000000000000000016179055005b7f30d21641000000000000000000000000000000000000000000000000000000005f5260045ffd5b5073ffffffffffffffffffffffffffffffffffffffff6080820151163314156122a9565b346103305760207ffffffffffffffffffffffffffffffffffffffffffffffffffffffffffffffffc3601126103305760043567ffffffffffffffff8111610330576123b890369060040161304c565b7fc090fc4683624cfc3884e9d8de5eca132f2d0ec062aff75d43c0465d5ceeab235c6125cc57612444915f9160017fc090fc4683624cfc3884e9d8de5eca132f2d0ec062aff75d43c0465d5ceeab235d60405193849283927f91dd734600000000000000000000000000000000000000000000000000000000845260206004850152602484019161316b565b038183335af19081156125c1575f91612519575b507f7d4b3164c6e45b97e7d87b7125a44c5828d005af88f9d751cfd78729c5d99a0b5c6124f15760406020915f7fc090fc4683624cfc3884e9d8de5eca132f2d0ec062aff75d43c0465d5ceeab235d7fffffffffffffffffffffffffffffffffffffffffffffffffffffffffffffffe0601f835194859381855280519182918282880152018686015e5f85828601015201168101030190f35b7f5212cba1000000000000000000000000000000000000000000000000000000005f5260045ffd5b90503d805f833e61252a8183612f2d565b8101906020818303126103305780519067ffffffffffffffff8211610330570181601f820112156103305780519067ffffffffffffffff8211611fb0576040519261259d60207fffffffffffffffffffffffffffffffffffffffffffffffffffffffffffffffe0601f8601160185612f2d565b8284526020838301011161033057815f9260208093018386015e8301015281612458565b6040513d5f823e3d90fd5b7f5090d6c6000000000000000000000000000000000000000000000000000000005f5260045ffd5b346103305773ffffffffffffffffffffffffffffffffffffffff61261736612e84565b91929092335f52600560205260405f208282165f5260205260405f20845f526020528260405f205560405192835216907fb3fd5071835887567a0671151121894ddccc2842f1d10bedad13e0d17cace9a760203392a4602060405160018152f35b60207ffffffffffffffffffffffffffffffffffffffffffffffffffffffffffffffffc360112610330576126aa612e3e565b7fc090fc4683624cfc3884e9d8de5eca132f2d0ec062aff75d43c0465d5ceeab235c156104d75761086960209161352c565b346103305760407ffffffffffffffffffffffffffffffffffffffffffffffffffffffffffffffffc360112610330576024356004356040519160408360208152826020820152019060051b8301916001602060408501935b83548152019101908483821015610acb57506020600191612734565b346103305760207ffffffffffffffffffffffffffffffffffffffffffffffffffffffffffffffffc3601126103305773ffffffffffffffffffffffffffffffffffffffff61279c612e3e565b6127aa825f54163314613106565b16807fffffffffffffffffffffffff000000000000000000000000000000000000000060025416176002557fb4bd8ef53df690b9943d3318996006dbb82a25f54719d8c8035b516a2a5b8acc5f80a2005b34610330576101007ffffffffffffffffffffffffffffffffffffffffffffffffffffffffffffffffc3601126103305761283436612f80565b60c4359060a43560e43567ffffffffffffffff81116103305761285b90369060040161304c565b9190937fc090fc4683624cfc3884e9d8de5eca132f2d0ec062aff75d43c0465d5ceeab235c156104d75761288d61360e565b60a0842094855f52600660205260405f20946128a886613675565b60808101805173ffffffffffffffffffffffffffffffffffffffff811690813303612a42575b50506fffffffffffffffffffffffffffffffff600388015416978815612a1a576020986128fa876131a9565b5f03612905876131a9565b5f036fffffffffffffffffffffffffffffffff169060801b179887612a06575b866129f1575b5050612938338985613751565b60405190868252858a8301527f29ef05caaff9404b7cb6d1c0e9bbae9eaa7ab2541feba1a9c4248594c08156cb60403393a3519273ffffffffffffffffffffffffffffffffffffffff841693843303612996575b8888604051908152f35b6010166129a4575b8061298c565b6129e5956113a993612035926040519788957fe1b4af69000000000000000000000000000000000000000000000000000000008d88015233602488016136bb565b5082808080808061299e565b600201908660801b048154019055898061292b565b60018101828960801b048154019055612925565b7fa74f97ab000000000000000000000000000000000000000000000000000000005f5260045ffd5b602016612a50575b806128ce565b6040517fb6a8b0fa000000000000000000000000000000000000000000000000000000006020820152612a93916113a9826120358b898b8d8b33602488016136bb565b5088612a4a565b346103305760207ffffffffffffffffffffffffffffffffffffffffffffffffffffffffffffffffc36011261033057600435545f5260205ff35b3461033057612ae236612e84565b907fc090fc4683624cfc3884e9d8de5eca132f2d0ec062aff75d43c0465d5ceeab235c156104d7577f1b3d7edb2e9c0b0e7c525b20aaaef0f5940d2ed71663c7d39266ecafac7288596103ed73ffffffffffffffffffffffffffffffffffffffff805f941695612b61612b54876131a9565b8603600f0b3390896131ef565b16938484526004602052604084208685526020526040842061025f8282546130f9565b5f7ffffffffffffffffffffffffffffffffffffffffffffffffffffffffffffffffc360112610330577fc090fc4683624cfc3884e9d8de5eca132f2d0ec062aff75d43c0465d5ceeab235c156104d75760206108693361352c565b346103305760607ffffffffffffffffffffffffffffffffffffffffffffffffffffffffffffffffc36011261033057612c16612e3e565b612c1e612e61565b604435907fc090fc4683624cfc3884e9d8de5eca132f2d0ec062aff75d43c0465d5ceeab235c156104d757610f2e92612c66612c59846131a9565b5f03600f0b3390836131ef565b6132f7565b346103305773ffffffffffffffffffffffffffffffffffffffff612c8e36612e84565b91929092335f52600460205260405f20845f5260205260405f20612cb38482546130ec565b90551690815f52600460205260405f20835f5260205260405f20612cd88282546130f9565b9055604080513380825260208201939093527f1b3d7edb2e9c0b0e7c525b20aaaef0f5940d2ed71663c7d39266ecafac7288599181908101610279565b346103305760207ffffffffffffffffffffffffffffffffffffffffffffffffffffffffffffffffc360112610330576004357fffffffff00000000000000000000000000000000000000000000000000000000811680910361033057807f01ffc9a70000000000000000000000000000000000000000000000000000000060209214908115612daa575b506040519015158152f35b7f0f632fb30000000000000000000000000000000000000000000000000000000091501482612d9f565b346103305760407ffffffffffffffffffffffffffffffffffffffffffffffffffffffffffffffffc3601126103305760209073ffffffffffffffffffffffffffffffffffffffff612e23612e3e565b165f526004825260405f206024355f52825260405f20548152f35b6004359073ffffffffffffffffffffffffffffffffffffffff8216820361033057565b6024359073ffffffffffffffffffffffffffffffffffffffff8216820361033057565b7ffffffffffffffffffffffffffffffffffffffffffffffffffffffffffffffffc60609101126103305760043573ffffffffffffffffffffffffffffffffffffffff8116810361033057906024359060443590565b6080810190811067ffffffffffffffff821117611fb057604052565b6060810190811067ffffffffffffffff821117611fb057604052565b60a0810190811067ffffffffffffffff821117611fb057604052565b90601f7fffffffffffffffffffffffffffffffffffffffffffffffffffffffffffffffe0910116810190811067ffffffffffffffff821117611fb057604052565b60a4359062ffffff8216820361033057565b7ffffffffffffffffffffffffffffffffffffffffffffffffffffffffffffffffc60a09101126103305760405190612fb782612f11565b8160043573ffffffffffffffffffffffffffffffffffffffff8116810361033057815260243573ffffffffffffffffffffffffffffffffffffffff8116810361033057602082015260443562ffffff811681036103305760408201526064358060020b81036103305760608201526084359073ffffffffffffffffffffffffffffffffffffffff821682036103305760800152565b9181601f840112156103305782359167ffffffffffffffff8311610330576020838186019501011161033057565b9060207ffffffffffffffffffffffffffffffffffffffffffffffffffffffffffffffffc8301126103305760043567ffffffffffffffff811161033057826023820112156103305780600401359267ffffffffffffffff84116103305760248460051b83010111610330576024019190565b91908203918211611e9357565b91908201809211611e9357565b1561310d57565b60646040517f08c379a000000000000000000000000000000000000000000000000000000000815260206004820152600c60248201527f554e415554484f52495a454400000000000000000000000000000000000000006044820152fd5b601f82602094937fffffffffffffffffffffffffffffffffffffffffffffffffffffffffffffffe093818652868601375f8582860101520116010190565b6f800000000000000000000000000000008110156131c757600f0b90565b7f93dafdf1000000000000000000000000000000000000000000000000000000005f5260045ffd5b9190600f0b9182156132f257613225919073ffffffffffffffffffffffffffffffffffffffff8092165f521660205260405f2090565b613231815c9283613c28565b80915d6132a257507fffffffffffffffffffffffffffffffffffffffffffffffffffffffffffffffff7f7d4b3164c6e45b97e7d87b7125a44c5828d005af88f9d751cfd78729c5d99a0b5c017f7d4b3164c6e45b97e7d87b7125a44c5828d005af88f9d751cfd78729c5d99a0b5d5b565b156132a957565b60017f7d4b3164c6e45b97e7d87b7125a44c5828d005af88f9d751cfd78729c5d99a0b5c017f7d4b3164c6e45b97e7d87b7125a44c5828d005af88f9d751cfd78729c5d99a0b5d565b505050565b90919073ffffffffffffffffffffffffffffffffffffffff811690816133e95750505f80808093855af1156133295750565b7fffffffffffffffffffffffffffffffffffffffffffffffffffffffffffffffe0601f3d011673ffffffffffffffffffffffffffffffffffffffff604051927f90bfb8650000000000000000000000000000000000000000000000000000000084521660048301525f6024830152608060448301528060a00160648301523d60848301523d5f60a484013e7ff4b3b1bc0000000000000000000000000000000000000000000000000000000060c4828401600460a4820152015260e40190fd5b60205f60448194968260409573ffffffffffffffffffffffffffffffffffffffff988751998a947fa9059cbb00000000000000000000000000000000000000000000000000000000865216600485015260248401525af13d15601f3d116001855114161716928281528260208201520152156134625750565b7fffffffffffffffffffffffffffffffffffffffffffffffffffffffffffffffe0601f3d0116604051917f90bfb86500000000000000000000000000000000000000000000000000000000835260048301527fa9059cbb000000000000000000000000000000000000000000000000000000006024830152608060448301528060a00160648301523d60848301523d5f60a484013e7ff27f64e40000000000000000000000000000000000000000000000000000000060c4828401600460a4820152015260e40190fd5b7f27e098c505d44ec3574004bca052aabf76bd35004c182099d8c575fb238593b95c919073ffffffffffffffffffffffffffffffffffffffff8316613581576132a09034935b61357b856131a9565b906131ef565b346135e6576132a0906135bd7f1e0745a7db1623981f0b2a5d4232364c00787266eb75ad546f190e6cebe9bd955c6135b886613b91565b6130ec565b935f7f27e098c505d44ec3574004bca052aabf76bd35004c182099d8c575fb238593b95d613572565b7fb0ec849e000000000000000000000000000000000000000000000000000000005f5260045ffd5b73ffffffffffffffffffffffffffffffffffffffff7f000000000000000000000000000000000000000000000000000000000000000016300361364d57565b7f0d89438e000000000000000000000000000000000000000000000000000000005f5260045ffd5b5473ffffffffffffffffffffffffffffffffffffffff161561369357565b7f486aa307000000000000000000000000000000000000000000000000000000005f5260045ffd5b91926137366101209473ffffffffffffffffffffffffffffffffffffffff61374e999794168552602085019073ffffffffffffffffffffffffffffffffffffffff6080809282815116855282602082015116602086015262ffffff6040820151166040860152606081015160020b6060860152015116910152565b60c083015260e082015281610100820152019161316b565b90565b9073ffffffffffffffffffffffffffffffffffffffff60206132a0949361378085848351168660801d906131ef565b01511690600f0b906131ef565b62ffffff16620f4240811161379f5750565b7f14002113000000000000000000000000000000000000000000000000000000005f5260045260245ffd5b9061374e95936138476101609473ffffffffffffffffffffffffffffffffffffffff61387694168552602085019073ffffffffffffffffffffffffffffffffffffffff6080809282815116855282602082015116602086015262ffffff6040820151166040860152606081015160020b6060860152015116910152565b8051600290810b60c08501526020820151900b60e0840152604081015161010084015260600151610120830152565b81610140820152019161316b565b9081600f0b9182036131c757565b926139409061391161374e99979473ffffffffffffffffffffffffffffffffffffffff6101a09895168752602087019073ffffffffffffffffffffffffffffffffffffffff6080809282815116855282602082015116602086015262ffffff6040820151166040860152606081015160020b6060860152015116910152565b8051600290810b60c08701526020820151900b60e0860152604081015161010086015260600151610120850152565b61014083015261016082015281610180820152019161316b565b939590919296945f9673ffffffffffffffffffffffffffffffffffffffff86163314613aab57885f6040870151135f14613a3a5761040087166139a1575b50505050505050565b613a2d9799985092613a26969594926139ee92613a1a956040519788967f9f063efc0000000000000000000000000000000000000000000000000000000060208901523360248901613892565b037fffffffffffffffffffffffffffffffffffffffffffffffffffffffffffffffe08101835282612f2d565b6002821615159161469e565b80926146be565b915f808080808080613998565b9594939291906101008616613a525750505050505050565b613a2d979950869850916139ee91613a9f9493613a26986040519788967f6c2bbe7e0000000000000000000000000000000000000000000000000000000060208901523360248901613892565b6001821615159161469e565b505f96505050505050565b608081161580613b68575b613b3e57604081161580613b5c575b613b3e5761040081161580613b50575b613b3e5761010081161580613b44575b613b3e5773ffffffffffffffffffffffffffffffffffffffff8116613b1e575062ffffff1662800000141590565b613fff161590811591613b2f575090565b62800000915062ffffff161490565b50505f90565b50600181161515613af0565b50600281161515613ae0565b50600481161515613ad0565b50600881161515613ac1565b6280000062ffffff821614613b8c5761374e8161378d565b505f90565b73ffffffffffffffffffffffffffffffffffffffff1680613bb157504790565b6020602491604051928380927f70a082310000000000000000000000000000000000000000000000000000000082523060048301525afa9081156125c1575f91613bf9575090565b90506020813d602011613c20575b81613c1460209383612f2d565b81010312610330575190565b3d9150613c07565b9190915f8382019384129112908015821691151617611e9357565b6020830151955f9586959194913373ffffffffffffffffffffffffffffffffffffffff851614613e2c5760808416613c7d575b5050505050565b613d65926139ee613d5f92613d4b946040519586947f575e24b4000000000000000000000000000000000000000000000000000000006020870152336024870152613d15604487018c73ffffffffffffffffffffffffffffffffffffffff6080809282815116855282602082015116602086015262ffffff6040820151166040860152606081015160020b6060860152015116910152565b8051151560e487015260208101516101048701526040015173ffffffffffffffffffffffffffffffffffffffff16610124860152565b61014061014485015261016484019161316b565b82614024565b916060835103613e04576040015162ffffff166280000014613df8575b600816613d93575b80808080613c76565b604001519250608083901d600f0b8015613d8a57613db4905f861295613c28565b9315613df0575f84135b613dc8575f613d8a565b7ffa0b71d6000000000000000000000000000000000000000000000000000000005f5260045ffd5b5f8412613dbe565b60608201519350613d82565b7f1e048e1d000000000000000000000000000000000000000000000000000000005f5260045ffd5b505f965086955050505050565b90600f0b90600f0b01907fffffffffffffffffffffffffffffffff8000000000000000000000000000000082126f7fffffffffffffffffffffffffffffff831317611e9357565b9196959394929473ffffffffffffffffffffffffffffffffffffffff83163314614017578460801d94600f0b938860408516613f3f575b50505050505f9481600f0b15801590613f33575b613ed7575b5050509190565b613f0e9395505f60208201511290511515145f14613f16576fffffffffffffffffffffffffffffffff169060801b175b80936146be565b5f8080613ed0565b906fffffffffffffffffffffffffffffffff169060801b17613f07565b5082600f0b1515613ecb565b613ffb614007946139ee6119ec9561400d999895613fe0613d15966040519788967fb47b2fb1000000000000000000000000000000000000000000000000000000006020890152336024890152604488019073ffffffffffffffffffffffffffffffffffffffff6080809282815116855282602082015116602086015262ffffff6040820151166040860152606081015160020b6060860152015116910152565b8c61014485015261016061016485015261018484019161316b565b6004821615159161469e565b90613e39565b5f80808088613eb7565b5050505050909150905f90565b9190918251925f8060208301958682865af1156140c2575050604051917fffffffffffffffffffffffffffffffffffffffffffffffffffffffffffffffe0603f3d011683016040523d83523d9060208401915f833e602084511091821561408e575b5050613e0457565b5190517fffffffff000000000000000000000000000000000000000000000000000000009182169116141590505f80614086565b5183517fffffffff00000000000000000000000000000000000000000000000000000000811691600481106141d6575b50507fffffffff000000000000000000000000000000000000000000000000000000007fffffffffffffffffffffffffffffffffffffffffffffffffffffffffffffffe0601f3d01169173ffffffffffffffffffffffffffffffffffffffff604051947f90bfb865000000000000000000000000000000000000000000000000000000008652166004850152166024830152608060448301528060a00160648301523d60848301523d5f60a484013e7fa9e35b2f0000000000000000000000000000000000000000000000000000000060c4828401600460a4820152015260e40190fd5b7fffffffff000000000000000000000000000000000000000000000000000000009250829060040360031b1b161682806140f2565b919060020b9060020b908181076142395705908160081d5f52602052600160ff60405f2092161b8154189055565b601c906044926040519163d4d8f3e683526020830152604082015201fd5b60020b908160ff1d82810118620d89e8811161459d5763ffffffff9192600182167001fffcb933bd6fad37aa2d162d1a59400102700100000000000000000000000000000000189160028116614581575b60048116614565575b60088116614549575b6010811661452d575b60208116614511575b604081166144f5575b608081166144d9575b61010081166144bd575b61020081166144a1575b6104008116614485575b6108008116614469575b611000811661444d575b6120008116614431575b6140008116614415575b61800081166143f9575b6201000081166143dd575b6202000081166143c2575b6204000081166143a7575b620800001661438e575b5f12614367575b0160201c90565b7fffffffffffffffffffffffffffffffffffffffffffffffffffffffffffffffff04614360565b6b048a170391f7dc42444e8fa290910260801c90614359565b6d2216e584f5fa1ea926041bedfe9890920260801c9161434f565b916e5d6af8dedb81196699c329225ee6040260801c91614344565b916f09aa508b5b7a84e1c677de54f3e99bc90260801c91614339565b916f31be135f97d08fd981231505542fcfa60260801c9161432e565b916f70d869a156d2a1b890bb3df62baf32f70260801c91614324565b916fa9f746462d870fdf8a65dc1f90e061e50260801c9161431a565b916fd097f3bdfd2022b8845ad8f792aa58250260801c91614310565b916fe7159475a2c29b7443b29c7fa6e889d90260801c91614306565b916ff3392b0822b70005940c7a398e4b70f30260801c916142fc565b916ff987a7253ac413176f2b074cf7815e540260801c916142f2565b916ffcbe86c7900a88aedcffc83b479aa3a40260801c916142e8565b916ffe5dee046a99a2a811c461f1969c30530260801c916142de565b916fff2ea16466c96a3843ec78b326b528610260801c916142d5565b916fff973b41fa98c081472e6896dfb254c00260801c916142cc565b916fffcb9843d60f6159c9db58835c9266440260801c916142c3565b916fffe5caca7e10e4e61c3624eaa0941cd00260801c916142ba565b916ffff2e50f5f656932ef12357cf3c7fdcc0260801c916142b1565b916ffff97272373d413259a46990580e213a0260801c916142a8565b827f8b86327a000000000000000000000000000000000000000000000000000000005f5260045260245ffd5b905f83600f0b125f146145fe576145f4925f036fffffffffffffffffffffffffffffffff1691615b3c565b5f81126131c75790565b61461a926fffffffffffffffffffffffffffffffff1691615ae1565b5f81126131c7575f0390565b905f83600f0b125f14614651576145f4925f036fffffffffffffffffffffffffffffffff1691615c33565b61461a926fffffffffffffffffffffffffffffffff1691615b7c565b906fffffffffffffffffffffffffffffffff90600f0b911601908160801c61469157565b6393dafdf15f526004601cfd5b906146a891614024565b9015613b8c576040815103613e04576040015190565b6146e1906146d38360801d8260801d03613884565b92600f0b90600f0b03613884565b6fffffffffffffffffffffffffffffffff169060801b1790565b73fffd8963efd1fc6a506488495d951d516396168273ffffffffffffffffffffffffffffffffffffffff7ffffffffffffffffffffffffffffffffffffffffffffffffffffffffefffd895d830116116149df5777ffffffffffffffffffffffffffffffffffffffff000000008160201b168060ff61477883615cda565b1691608083106149d357507fffffffffffffffffffffffffffffffffffffffffffffffffffffffffffffff8182011c5b800280607f1c8160ff1c1c800280607f1c8160ff1c1c800280607f1c8160ff1c1c800280607f1c8160ff1c1c800280607f1c8160ff1c1c800280607f1c8160ff1c1c80029081607f1c8260ff1c1c80029283607f1c8460ff1c1c80029485607f1c8660ff1c1c80029687607f1c8860ff1c1c80029889607f1c8a60ff1c1c80029a8b607f1c8c60ff1c1c80029c8d80607f1c9060ff1c1c800260cd1c6604000000000000169d60cc1c6608000000000000169c60cb1c6610000000000000169b60ca1c6620000000000000169a60c91c6640000000000000169960c81c6680000000000000169860c71c670100000000000000169760c61c670200000000000000169660c51c670400000000000000169560c41c670800000000000000169460c31c671000000000000000169360c21c672000000000000000169260c11c674000000000000000169160c01c67800000000000000016907fffffffffffffffffffffffffffffffffffffffffffffffffffffffffffffff800160401b1717171717171717171717171717693627a301d71055774c85027ffffffffffffffffffffffffffffffffffd709b7e5480fba5a50fed5e62ffc556810160801d60020b906fdb2df09e81959a81455e260799a0632f0160801d60020b918282145f146149905750905090565b73ffffffffffffffffffffffffffffffffffffffff1673ffffffffffffffffffffffffffffffffffffffff6149c484614257565b16116149ce575090565b905090565b905081607f031b6147a8565b73ffffffffffffffffffffffffffffffffffffffff907f61487524000000000000000000000000000000000000000000000000000000005f521660045260245ffd5b8115614a2b570490565b7f4e487b71000000000000000000000000000000000000000000000000000000005f52601260045260245ffd5b6040519290915f614a6885612ef5565b5f855260208501925f845260408601955f875280968654956040860151159586155f146157f457610fff8860b81c16945b8151925f948a73ffffffffffffffffffffffffffffffffffffffff16918288528b60a01c60020b90526fffffffffffffffffffffffffffffffff60038d0154169052608083015162400000811615155f146157e55762bfffff16614afc8161378d565b61ffff88166157ca575b8096620f424062ffffff83161015615799575b8451156157835750508861572357606083019073ffffffffffffffffffffffffffffffffffffffff825116818110156156ec5750505173ffffffffffffffffffffffffffffffffffffffff166401000276a38111156156c157505b604051986101008a018a811067ffffffffffffffff821117611fb0576040525f8a525f60208b01525f60408b01525f60608b01525f60808b01525f60a08b01525f60c08b015288155f146156b35760018b0154949390945b60e08b01525b80158015615679575b61551f5788868d8c8e73ffffffffffffffffffffffffffffffffffffffff8351168252602083015160020b602089015160020b90815f8183071291050386155f14615374576fffffffffffffffffffffffffffffffff937ffffffffffffffffffffffffffffffffffffffffffffffffffffffffffff2761860409460019484600560ff60609716938260020b60081d890b5f5201602052875f207fffffffffffffffffffffffffffffffffffffffffffffffffffffffffffffffff8460ff031c9054169283151593845f146153625790614cb660ff92615cda565b90031660020b900360020b0260020b5b905b15158684015260020b8060208401521315615337575b620d89e8602082015160020b1215615329575b73ffffffffffffffffffffffffffffffffffffffff614d16602083015160020b614257565b16918291015273ffffffffffffffffffffffffffffffffffffffff8551169673ffffffffffffffffffffffffffffffffffffffff60608c0151169283911516818310189118021892015116928d73ffffffffffffffffffffffffffffffffffffffff8316821015915f87125f1461517e5762ffffff8516620f424003614d9e81895f03615884565b94841561516d57614db0888483615b7c565b955b8681106150b157509660a093929173ffffffffffffffffffffffffffffffffffffffff98978891620f424062ffffff8316145f1461509d575050865b955b1561508f5791614dff92615b3c565b925b60c0820152015260808d0152168c525f8351135f1461505f5760a08a0151905f82126131c7570392614e3c60808b015160c08c0151906130f9565b5f81126131c7578103908113600116611e9357935b61ffff8716615017575b6fffffffffffffffffffffffffffffffff60408d01511680614ffd575b5073ffffffffffffffffffffffffffffffffffffffff8c511673ffffffffffffffffffffffffffffffffffffffff60608c01511681145f14614fc1575060408a0151614f0f575b88614f02577fffffffffffffffffffffffffffffffffffffffffffffffffffffffffffffffff60208b015160020b0160020b5b60020b60208d01525b9392614bd2565b60208a015160020b614ef2565b88614f95576fffffffffffffffffffffffffffffffff614f7c8d8d8d600460e08201519260206002820154935b015160020b60020b5f520160205260405f2091600183019081549003905560028201908154900390555460801d908c15614f87575b60400151831661466d565b1660408d0152614ebf565b5f91909103600f0b90614f71565b6fffffffffffffffffffffffffffffffff614f7c8d8d8d6004600183015492602060e084015193614f3c565b73ffffffffffffffffffffffffffffffffffffffff8b51168103614fe6575b50614efb565b614fef906146fb565b60020b60208d01525f614fe0565b60c08b015160801b0460e08b01510160e08b01525f614e78565b9662ffffff861661ffff8816036150425760c08a0151905b8160c08c01510360c08c01520196614e5b565b620f424060808b015161ffff89169060c08d01510102049061502f565b60808a015160c08b015101905f82126131c757019260a08a01515f81126131c75761508991613c28565b93614e51565b61509892615c33565b614dff565b62ffffff6150ac921689615d67565b614dee565b9650505092505082918415811517615160578e60a09173ffffffffffffffffffffffffffffffffffffffff96845f146150fb576150ef878284615e06565b80978a015f0395614df0565b8787116151395761513461512f6151276fffffffffffffffffffffffffffffffff84168a60601b614a21565b8a85166130f9565b615e9a565b6150ef565b61513461512f61515b6fffffffffffffffffffffffffffffffff84168a615989565b615127565b634f2461b85f526004601cfd5b615178888285615ae1565b95614db2565b9193509190831561531857615194858284615b3c565b915b8287106151f6579073ffffffffffffffffffffffffffffffffffffffff9560a09280965b156151e757916151c992615b7c565b925b6151e262ffffff8d16620f42408190039086615d67565b614e01565b6151f092615ae1565b926151cb565b50915050838315821517615160578d83156152ee575073ffffffffffffffffffffffffffffffffffffffff851161529b578460601b6fffffffffffffffffffffffffffffffff851680820615159104015b73ffffffffffffffffffffffffffffffffffffffff8316928184111561528e578f939573ffffffffffffffffffffffffffffffffffffffff60a093819803165b80966151ba565b634323a5555f526004601cfd5b6fffffffffffffffffffffffffffffffff84166152c6816c0100000000000000000000000088615a42565b908015614a2b576c010000000000000000000000008709156152475760010180615247575f80fd5b9180856153138873ffffffffffffffffffffffffffffffffffffffff9860a095615d90565b615287565b615323858383615c33565b91615196565b620d89e86020820152614cf1565b7ffffffffffffffffffffffffffffffffffffffffffffffffffffffffffff276186020820152614cde565b5060020b900360020b0260020b614cc6565b60019194939650600592955001938460020b60081d60010b5f520160205260405f207fffffffffffffffffffffffffffffffffffffffffffffffffffffffffffffffff600160ff86161b0119905416908d8b831592831597885f146154c05750505050610330578f9160018f8f96907ffffffffffffffffffffffffffffffffffffffffffffffffffffffffffff276186060928f989560409660ff896fffffffffffffffffffffffffffffffff9a5f03166101e07f804040554300526644320000502061067405302602000010750620017611707760fc7fb6db6db6ddddddddd34d34d349249249210842108c6318c639ce739cffffffff840260f81c161b60f71c167e1f0d1e100c1d070f090b19131c1706010e11080a1a141802121b1503160405601f85851693831c63d76453e004161a17031660020b9060020b0160020b0260020b5b90614cc8565b90956fffffffffffffffffffffffffffffffff955060409450600193987ffffffffffffffffffffffffffffffffffffffffffffffffffffffffffff27618918960ff6060969b811681031660020b9060020b0160020b0260020b6154ba565b949891955099969298919598602088015160a01b76ffffff0000000000000000000000000000000000000000167fffffffffffffffffff000000000000000000000000000000000000000000000073ffffffffffffffffffffffffffffffffffffffff8a51169216171782556fffffffffffffffffffffffffffffffff6003830154166fffffffffffffffffffffffffffffffff604089015116809103615634575b5082156156255760e060029101519101555b825190155f82121461560f57506155ed6155f59293613884565b925103613884565b6fffffffffffffffffffffffffffffffff169060801b1793565b6155f592509061561f9103613884565b91613884565b60e060019101519101556155d3565b6fffffffffffffffffffffffffffffffff167fffffffffffffffffffffffffffffffff000000000000000000000000000000006003840154161760038301555f6155c1565b5073ffffffffffffffffffffffffffffffffffffffff8c511673ffffffffffffffffffffffffffffffffffffffff60608501511614614bdb565b60028b015494939094614bcc565b7f9e4d7cc7000000000000000000000000000000000000000000000000000000005f5260045260245ffd5b60449250604051917f7c9c6e8f00000000000000000000000000000000000000000000000000000000835260048301526024820152fd5b606083019073ffffffffffffffffffffffffffffffffffffffff825116818111156156ec5750505173ffffffffffffffffffffffffffffffffffffffff1673fffd8963efd1fc6a506488495d951d5263988d268110156156c15750614b74565b9a509a50509950505050505050505f925f929190565b5f85511315614b19577f96206246000000000000000000000000000000000000000000000000000000005f5260045ffd5b62ffffff610fff89169116620f424081830204910103614b06565b508960d01c62ffffff16614afc565b610fff8860c41c1694614a99565b90808202917fffffffffffffffffffffffffffffffffffffffffffffffffffffffffffffffff828209918380841093039280840393847001000000000000000000000000000000001115610330571461587b57700100000000000000000000000000000000910990828211900360801b910360801c1790565b50505060801c90565b818102907fffffffffffffffffffffffffffffffffffffffffffffffffffffffffffffffff83820990828083109203918083039283620f424011156103305714615903577fde8f6cefed634549b62c77574f722e1ac57e23f24d8fd5cb790fb65668c2613993620f4240910990828211900360fa1b910360061c170290565b5050620f424091500490565b90808202917fffffffffffffffffffffffffffffffffffffffffffffffffffffffffffffffff828209918380841093039280840393846c0100000000000000000000000011156103305714615980576c01000000000000000000000000910990828211900360a01b910360601c1790565b50505060601c90565b908160601b907fffffffffffffffffffffffffffffffffffffffffffffffffffffffffffffffff6c010000000000000000000000008409928280851094039380850394858411156103305714615a3b576c0100000000000000000000000082910981805f03168092046002816003021880820260020302808202600203028082026002030280820260020302808202600203028091026002030293600183805f03040190848311900302920304170290565b5091500490565b91818302917fffffffffffffffffffffffffffffffffffffffffffffffffffffffffffffffff818509938380861095039480860395868511156103305714615ad9579082910981805f03168092046002816003021880820260020302808202600203028082026002030280820260020302808202600203028091026002030293600183805f03040190848311900302920304170290565b505091500490565b6fffffffffffffffffffffffffffffffff6c010000000000000000000000009173ffffffffffffffffffffffffffffffffffffffff80600195169116038060ff1d90810118931692615b33818561590f565b93091515160190565b6fffffffffffffffffffffffffffffffff9073ffffffffffffffffffffffffffffffffffffffff8061374e9594169116038060ff1d90810118911661590f565b9073ffffffffffffffffffffffffffffffffffffffff811673ffffffffffffffffffffffffffffffffffffffff831611615c2d575b73ffffffffffffffffffffffffffffffffffffffff8216928315615c21577bffffffffffffffffffffffffffffffff00000000000000000000000073ffffffffffffffffffffffffffffffffffffffff615c15948185169403169160601b16615d67565b90808206151591040190565b62bfc9215f526004601cfd5b90615bb1565b73ffffffffffffffffffffffffffffffffffffffff821673ffffffffffffffffffffffffffffffffffffffff821611615cd4575b73ffffffffffffffffffffffffffffffffffffffff8116918215615c215761374e937bffffffffffffffffffffffffffffffff00000000000000000000000073ffffffffffffffffffffffffffffffffffffffff615ccf948185169403169160601b16615a42565b614a21565b90615c67565b8015610330577f07060605060205000602030205040001060502050303040105050304000000006f8421084210842108cc6318c6db6d54be826fffffffffffffffffffffffffffffffff1060071b83811c67ffffffffffffffff1060061b1783811c63ffffffff1060051b1783811c61ffff1060041b1783811c60ff1060031b1792831c1c601f161a1790565b929190615d75828286615a42565b938215614a2b5709615d8357565b9060010190811561033057565b91908115615e01577bffffffffffffffffffffffffffffffff00000000000000000000000073ffffffffffffffffffffffffffffffffffffffff9160601b169216918282029183838311918404141615615df45761374e9261512f92820391615d67565b63f5c787f15f526004601cfd5b505090565b90918015615e945773ffffffffffffffffffffffffffffffffffffffff7bffffffffffffffffffffffffffffffff000000000000000000000000819460601b16921680820281615e568483614a21565b14615e7c575b5090615e6b615e709284614a21565b6130f9565b80820615159104011690565b8301838110615e5c579150615e9092615d67565b1690565b50905090565b9073ffffffffffffffffffffffffffffffffffffffff82169182036131c75756fea2646970667358221220cb6ff0ee75123f16780a5d0193d040e80ad0b885403a6ea219d55ca2203b9b6e64736f6c634300081a0033",
    "linkReferences": {}
  },
  "methodIdentifiers": {
    "allowance(address,address,uint256)": "598af9e7",
    "approve(address,uint256,uint256)": "426a8493",
    "balanceOf(address,uint256)": "00fdd58e",
    "burn(address,uint256,uint256)": "f5298aca",
    "clear(address,uint256)": "80f0b44c",
    "collectProtocolFees(address,address,uint256)": "8161b874",
    "donate((address,address,uint24,int24,address),uint256,uint256,bytes)": "234266d7",
    "extsload(bytes32)": "1e2eaeaf",
    "extsload(bytes32,uint256)": "35fd631a",
    "extsload(bytes32[])": "dbd035ff",
    "exttload(bytes32)": "f135baaa",
    "exttload(bytes32[])": "9bf6645f",
    "initialize((address,address,uint24,int24,address),uint160)": "6276cbbe",
    "isOperator(address,address)": "b6363cf2",
    "mint(address,uint256,uint256)": "156e29f6",
    "modifyLiquidity((address,address,uint24,int24,address),(int24,int24,int256,bytes32),bytes)": "5a6bcfda",
    "owner()": "8da5cb5b",
    "protocolFeeController()": "f02de3b2",
    "protocolFeesAccrued(address)": "97e8cd4e",
    "setOperator(address,bool)": "558a7297",
    "setProtocolFee((address,address,uint24,int24,address),uint24)": "7e87ce7d",
    "setProtocolFeeController(address)": "2d771389",
    "settle()": "11da60b4",
    "settleFor(address)": "3dd45adb",
    "supportsInterface(bytes4)": "01ffc9a7",
    "swap((address,address,uint24,int24,address),(bool,int256,uint160),bytes)": "f3cd914c",
    "sync(address)": "a5841194",
    "take(address,address,uint256)": "0b0d9c09",
    "transfer(address,uint256,uint256)": "095bcdb6",
    "transferFrom(address,address,uint256,uint256)": "fe99049a",
    "transferOwnership(address)": "f2fde38b",
    "unlock(bytes)": "48c89491",
    "updateDynamicLPFee((address,address,uint24,int24,address),uint24)": "52759651"
  },
  "id": 21
}