{"abi":[{"type":"function","name":"approve","inputs":[{"name":"","type":"address","internalType":"address"},{"name":"","type":"uint256","internalType":"uint256"}],"outputs":[],"stateMutability":"pure"},{"type":"function","name":"badgeIdsOf","inputs":[{"name":"account","type":"address","internalType":"address"}],"outputs":[{"name":"","type":"uint256[]","internalType":"uint256[]"}],"stateMutability":"view"},{"type":"function","name":"badgeRule","inputs":[{"name":"badgeId","type":"uint256","internalType":"uint256"}],"outputs":[{"name":"","type":"uint256","internalType":"uint256"}],"stateMutability":"view"},{"type":"function","name":"badgeURI","inputs":[{"name":"badgeId","type":"uint256","internalType":"uint256"}],"outputs":[{"name":"","type":"string","internalType":"string"}],"stateMutability":"view"},{"type":"function","name":"balanceOf","inputs":[{"name":"account","type":"address","internalType":"address"}],"outputs":[{"name":"","type":"uint256","internalType":"uint256"}],"stateMutability":"view"},{"type":"function","name":"getApproved","inputs":[{"name":"","type":"uint256","internalType":"uint256"}],"outputs":[{"name":"","type":"address","internalType":"address"}],"stateMutability":"pure"},{"type":"function","name":"hasBadge","inputs":[{"name":"account","type":"address","internalType":"address"},{"name":"ruleId","type":"uint256","internalType":"uint256"}],"outputs":[{"name":"","type":"bool","internalType":"bool"}],"stateMutability":"view"},{"type":"function","name":"isApprovedForAll","inputs":[{"name":"","type":"address","internalType":"address"},{"name":"","type":"address","internalType":"address"}],"outputs":[{"name":"","type":"bool","internalType":"bool"}],"stateMutability":"pure"},{"type":"function","name":"issueBadge","inputs":[{"name":"account","type":"address","internalType":"address"},{"name":"ruleId","type":"uint256","internalType":"uint256"},{"name":"metadataURI","type":"string","internalType":"string"}],"outputs":[{"name":"badgeId","type":"uint256","internalType":"uint256"}],"stateMutability":"nonpayable"},{"type":"function","name":"name","inputs":[],"outputs":[{"name":"","type":"string","internalType":"string"}],"stateMutability":"view"},{"type":"function","name":"owner","inputs":[],"outputs":[{"name":"","type":"address","internalType":"address"}],"stateMutability":"view"},{"type":"function","name":"ownerOf","inputs":[{"name":"badgeId","type":"uint256","internalType":"uint256"}],"outputs":[{"name":"","type":"address","internalType":"address"}],"stateMutability":"view"},{"type":"function","name":"safeTransferFrom","inputs":[{"name":"","type":"address","internalType":"address"},{"name":"","type":"address","internalType":"address"},{"name":"","type":"uint256","internalType":"uint256"}],"outputs":[],"stateMutability":"pure"},{"type":"function","name":"safeTransferFrom","inputs":[{"name":"","type":"address","internalType":"address"},{"name":"","type":"address","internalType":"address"},{"name":"","type":"uint256","internalType":"uint256"},{"name":"","type":"bytes","internalType":"bytes"}],"outputs":[],"stateMutability":"pure"},{"type":"function","name":"setApprovalForAll","inputs":[{"name":"","type":"address","internalType":"address"},{"name":"","type":"bool","internalType":"bool"}],"outputs":[],"stateMutability":"pure"},{"type":"function","name":"supportsInterface","inputs":[{"name":"interfaceId","type":"bytes4","internalType":"bytes4"}],"outputs":[{"name":"","type":"bool","internalType":"bool"}],"stateMutability":"pure"},{"type":"function","name":"symbol","inputs":[],"outputs":[{"name":"","type":"string","internalType":"string"}],"stateMutability":"view"},{"type":"function","name":"totalSupply","inputs":[],"outputs":[{"name":"","type":"uint256","internalType":"uint256"}],"stateMutability":"view"},{"type":"function","name":"transferFrom","inputs":[{"name":"","type":"address","internalType":"address"},{"name":"","type":"address","internalType":"address"},{"name":"","type":"uint256","internalType":"uint256"}],"outputs":[],"stateMutability":"pure"},{"type":"function","name":"transferOwnership","inputs":[{"name":"newOwner","type":"address","internalType":"address"}],"outputs":[],"stateMutability":"nonpayable"},{"type":"event","name":"BadgeMinted","inputs":[{"name":"account","type":"address","indexed":true,"internalType":"address"},{"name":"ruleId","type":"uint256","indexed":true,"internalType":"uint256"},{"name":"badgeId","type":"uint256","indexed":false,"internalType":"uint256"},{"name":"metadataURI","type":"string","indexed":false,"internalType":"string"}],"anonymous":false},{"type":"event","name":"OwnershipTransferred","inputs":[{"name":"previousOwner","type":"address","indexed":true,"internalType":"address"},{"name":"newOwner","type":"address","indexed":true,"internalType":"address"}],"anonymous":false},{"type":"error","name":"BadgeAlreadyClaimed","inputs":[{"name":"ruleId","type":"uint256","internalType":"uint256"}]},{"type":"error","name":"BadgeNotFound","inputs":[{"name":"badgeId","type":"uint256","internalType":"uint256"}]},{"type":"error","name":"Soulbound","inputs":[]}],"bytecode":{"object":"0x6080604052600180553480156012575f5ffd5b50602033602460201b60201c565b60e5565b5f5f5f9054906101000a900473ffffffffffffffffffffffffffffffffffffffff169050815f5f6101000a81548173ffffffffffffffffffffffffffffffffffffffff021916908373ffffffffffffffffffffffffffffffffffffffff1602179055508173ffffffffffffffffffffffffffffffffffffffff168173ffffffffffffffffffffffffffffffffffffffff167f8be0079c531659141344cd1fd0a4f28419497f9722a3daafe3b4186f6b6457e060405160405180910390a35050565b611ad3806100f25f395ff3fe608060405234801561000f575f5ffd5b506004361061012a575f3560e01c80636352211e116100ab578063a22cb4651161006f578063a22cb4651461037a578063b5588c6e14610396578063b88d4fde146103c6578063e985e9c5146103e2578063f2fde38b146104125761012a565b80636352211e146102ae57806370a08231146102de5780638da5cb5b1461030e57806394a33e3e1461032c57806395d89b411461035c5761012a565b806323b872dd116100f257806323b872dd146101e65780632edf741f1461020257806334959d5b1461023257806342842e0e146102625780634c6a70ce1461027e5761012a565b806301ffc9a71461012e57806306fdde031461015e578063081812fc1461017c578063095ea7b3146101ac57806318160ddd146101c8575b5f5ffd5b61014860048036038101906101439190610f7c565b61042e565b6040516101559190610fc1565b60405180910390f35b61016661045f565b604051610173919061104a565b60405180910390f35b6101966004803603810190610191919061109d565b610498565b6040516101a39190611107565b60405180910390f35b6101c660048036038101906101c1919061114a565b6104a1565b005b6101d06104d3565b6040516101dd9190611197565b60405180910390f35b61020060048036038101906101fb91906111b0565b6104e7565b005b61021c60048036038101906102179190611261565b610519565b6040516102299190611197565b60405180910390f35b61024c600480360381019061024791906112d2565b61086f565b60405161025991906113b4565b60405180910390f35b61027c600480360381019061027791906111b0565b610902565b005b6102986004803603810190610293919061114a565b610934565b6040516102a59190610fc1565b60405180910390f35b6102c860048036038101906102c3919061109d565b610996565b6040516102d59190611107565b60405180910390f35b6102f860048036038101906102f391906112d2565b610a44565b6040516103059190611197565b60405180910390f35b610316610a8d565b6040516103239190611107565b60405180910390f35b6103466004803603810190610341919061109d565b610ab4565b6040516103539190611197565b60405180910390f35b610364610b6e565b604051610371919061104a565b60405180910390f35b610394600480360381019061038f91906113fe565b610ba7565b005b6103b060048036038101906103ab919061109d565b610bd9565b6040516103bd919061104a565b60405180910390f35b6103e060048036038101906103db9190611491565b610d1a565b005b6103fc60048036038101906103f79190611515565b610d4c565b6040516104099190610fc1565b60405180910390f35b61042c600480360381019061042791906112d2565b610d56565b005b5f6301ffc9a760e01b827bffffffffffffffffffffffffffffffffffffffffffffffffffffffff1916149050919050565b6040518060400160405280601881526020017f43726561746f722052657075746174696f6e204261646765000000000000000081525081565b5f5f9050919050565b6040517fa4420a9500000000000000000000000000000000000000000000000000000000815260040160405180910390fd5b5f600180546104e29190611580565b905090565b6040517fa4420a9500000000000000000000000000000000000000000000000000000000815260040160405180910390fd5b5f5f5f9054906101000a900473ffffffffffffffffffffffffffffffffffffffff1673ffffffffffffffffffffffffffffffffffffffff163373ffffffffffffffffffffffffffffffffffffffff16146105a8576040517f08c379a000000000000000000000000000000000000000000000000000000000815260040161059f906115fd565b60405180910390fd5b5f73ffffffffffffffffffffffffffffffffffffffff168573ffffffffffffffffffffffffffffffffffffffff1603610616576040517f08c379a000000000000000000000000000000000000000000000000000000000815260040161060d90611665565b60405180910390fd5b60065f8673ffffffffffffffffffffffffffffffffffffffff1673ffffffffffffffffffffffffffffffffffffffff1681526020019081526020015f205f8581526020019081526020015f205f9054906101000a900460ff16156106b157836040517f5cc763910000000000000000000000000000000000000000000000000000000081526004016106a89190611197565b60405180910390fd5b60015f8154809291906106c390611683565b9190505590508460025f8381526020019081526020015f205f6101000a81548173ffffffffffffffffffffffffffffffffffffffff021916908373ffffffffffffffffffffffffffffffffffffffff1602179055508360035f8381526020019081526020015f2081905550828260045f8481526020019081526020015f20918261074e9291906118fe565b5060055f8673ffffffffffffffffffffffffffffffffffffffff1673ffffffffffffffffffffffffffffffffffffffff1681526020019081526020015f2081908060018154018082558091505060019003905f5260205f20015f9091909190915055600160065f8773ffffffffffffffffffffffffffffffffffffffff1673ffffffffffffffffffffffffffffffffffffffff1681526020019081526020015f205f8681526020019081526020015f205f6101000a81548160ff021916908315150217905550838573ffffffffffffffffffffffffffffffffffffffff167f5436dc28583773ca1024aefe4527413e52bd65f3829cc6e138ee939f6653d9c183868660405161085f93929190611a05565b60405180910390a3949350505050565b606060055f8373ffffffffffffffffffffffffffffffffffffffff1673ffffffffffffffffffffffffffffffffffffffff1681526020019081526020015f208054806020026020016040519081016040528092919081815260200182805480156108f657602002820191905f5260205f20905b8154815260200190600101908083116108e2575b50505050509050919050565b6040517fa4420a9500000000000000000000000000000000000000000000000000000000815260040160405180910390fd5b5f60065f8473ffffffffffffffffffffffffffffffffffffffff1673ffffffffffffffffffffffffffffffffffffffff1681526020019081526020015f205f8381526020019081526020015f205f9054906101000a900460ff16905092915050565b5f5f60025f8481526020019081526020015f205f9054906101000a900473ffffffffffffffffffffffffffffffffffffffff1690505f73ffffffffffffffffffffffffffffffffffffffff168173ffffffffffffffffffffffffffffffffffffffff1603610a3b57826040517fdc29602f000000000000000000000000000000000000000000000000000000008152600401610a329190611197565b60405180910390fd5b80915050919050565b5f60055f8373ffffffffffffffffffffffffffffffffffffffff1673ffffffffffffffffffffffffffffffffffffffff1681526020019081526020015f20805490509050919050565b5f5f5f9054906101000a900473ffffffffffffffffffffffffffffffffffffffff16905090565b5f5f73ffffffffffffffffffffffffffffffffffffffff1660025f8481526020019081526020015f205f9054906101000a900473ffffffffffffffffffffffffffffffffffffffff1673ffffffffffffffffffffffffffffffffffffffff1603610b5557816040517fdc29602f000000000000000000000000000000000000000000000000000000008152600401610b4c9190611197565b60405180910390fd5b60035f8381526020019081526020015f20549050919050565b6040518060400160405280600381526020017f435242000000000000000000000000000000000000000000000000000000000081525081565b6040517fa4420a9500000000000000000000000000000000000000000000000000000000815260040160405180910390fd5b60605f73ffffffffffffffffffffffffffffffffffffffff1660025f8481526020019081526020015f205f9054906101000a900473ffffffffffffffffffffffffffffffffffffffff1673ffffffffffffffffffffffffffffffffffffffff1603610c7b57816040517fdc29602f000000000000000000000000000000000000000000000000000000008152600401610c729190611197565b60405180910390fd5b60045f8381526020019081526020015f208054610c979061172e565b80601f0160208091040260200160405190810160405280929190818152602001828054610cc39061172e565b8015610d0e5780601f10610ce557610100808354040283529160200191610d0e565b820191905f5260205f20905b815481529060010190602001808311610cf157829003601f168201915b50505050509050919050565b6040517fa4420a9500000000000000000000000000000000000000000000000000000000815260040160405180910390fd5b5f5f905092915050565b5f5f9054906101000a900473ffffffffffffffffffffffffffffffffffffffff1673ffffffffffffffffffffffffffffffffffffffff163373ffffffffffffffffffffffffffffffffffffffff1614610de4576040517f08c379a0000000000000000000000000000000000000000000000000000000008152600401610ddb906115fd565b60405180910390fd5b5f73ffffffffffffffffffffffffffffffffffffffff168173ffffffffffffffffffffffffffffffffffffffff1603610e52576040517f08c379a0000000000000000000000000000000000000000000000000000000008152600401610e4990611a7f565b60405180910390fd5b610e5b81610e5e565b50565b5f5f5f9054906101000a900473ffffffffffffffffffffffffffffffffffffffff169050815f5f6101000a81548173ffffffffffffffffffffffffffffffffffffffff021916908373ffffffffffffffffffffffffffffffffffffffff1602179055508173ffffffffffffffffffffffffffffffffffffffff168173ffffffffffffffffffffffffffffffffffffffff167f8be0079c531659141344cd1fd0a4f28419497f9722a3daafe3b4186f6b6457e060405160405180910390a35050565b5f5ffd5b5f5ffd5b5f7fffffffff0000000000000000000000000000000000000000000000000000000082169050919050565b610f5b81610f27565b8114610f65575f5ffd5b50565b5f81359050610f7681610f52565b92915050565b5f60208284031215610f9157610f90610f1f565b5b5f610f9e84828501610f68565b91505092915050565b5f8115159050919050565b610fbb81610fa7565b82525050565b5f602082019050610fd45f830184610fb2565b92915050565b5f81519050919050565b5f82825260208201905092915050565b8281835e5f83830152505050565b5f601f19601f8301169050919050565b5f61101c82610fda565b6110268185610fe4565b9350611036818560208601610ff4565b61103f81611002565b840191505092915050565b5f6020820190508181035f8301526110628184611012565b905092915050565b5f819050919050565b61107c8161106a565b8114611086575f5ffd5b50565b5f8135905061109781611073565b92915050565b5f602082840312156110b2576110b1610f1f565b5b5f6110bf84828501611089565b91505092915050565b5f73ffffffffffffffffffffffffffffffffffffffff82169050919050565b5f6110f1826110c8565b9050919050565b611101816110e7565b82525050565b5f60208201905061111a5f8301846110f8565b92915050565b611129816110e7565b8114611133575f5ffd5b50565b5f8135905061114481611120565b92915050565b5f5f604083850312156111605761115f610f1f565b5b5f61116d85828601611136565b925050602061117e85828601611089565b9150509250929050565b6111918161106a565b82525050565b5f6020820190506111aa5f830184611188565b92915050565b5f5f5f606084860312156111c7576111c6610f1f565b5b5f6111d486828701611136565b93505060206111e586828701611136565b92505060406111f686828701611089565b9150509250925092565b5f5ffd5b5f5ffd5b5f5ffd5b5f5f83601f84011261122157611220611200565b5b8235905067ffffffffffffffff81111561123e5761123d611204565b5b60208301915083600182028301111561125a57611259611208565b5b9250929050565b5f5f5f5f6060858703121561127957611278610f1f565b5b5f61128687828801611136565b945050602061129787828801611089565b935050604085013567ffffffffffffffff8111156112b8576112b7610f23565b5b6112c48782880161120c565b925092505092959194509250565b5f602082840312156112e7576112e6610f1f565b5b5f6112f484828501611136565b91505092915050565b5f81519050919050565b5f82825260208201905092915050565b5f819050602082019050919050565b61132f8161106a565b82525050565b5f6113408383611326565b60208301905092915050565b5f602082019050919050565b5f611362826112fd565b61136c8185611307565b935061137783611317565b805f5b838110156113a757815161138e8882611335565b97506113998361134c565b92505060018101905061137a565b5085935050505092915050565b5f6020820190508181035f8301526113cc8184611358565b905092915050565b6113dd81610fa7565b81146113e7575f5ffd5b50565b5f813590506113f8816113d4565b92915050565b5f5f6040838503121561141457611413610f1f565b5b5f61142185828601611136565b9250506020611432858286016113ea565b9150509250929050565b5f5f83601f84011261145157611450611200565b5b8235905067ffffffffffffffff81111561146e5761146d611204565b5b60208301915083600182028301111561148a57611489611208565b5b9250929050565b5f5f5f5f5f608086880312156114aa576114a9610f1f565b5b5f6114b788828901611136565b95505060206114c888828901611136565b94505060406114d988828901611089565b935050606086013567ffffffffffffffff8111156114fa576114f9610f23565b5b6115068882890161143c565b92509250509295509295909350565b5f5f6040838503121561152b5761152a610f1f565b5b5f61153885828601611136565b925050602061154985828601611136565b9150509250929050565b7f4e487b71000000000000000000000000000000000000000000000000000000005f52601160045260245ffd5b5f61158a8261106a565b91506115958361106a565b92508282039050818111156115ad576115ac611553565b5b92915050565b7f4f776e61626c653a206e6f74206f776e657200000000000000000000000000005f82015250565b5f6115e7601283610fe4565b91506115f2826115b3565b602082019050919050565b5f6020820190508181035f830152611614816115db565b9050919050565b7f52657075746174696f6e42616467653a207a65726f206163636f756e740000005f82015250565b5f61164f601d83610fe4565b915061165a8261161b565b602082019050919050565b5f6020820190508181035f83015261167c81611643565b9050919050565b5f61168d8261106a565b91507fffffffffffffffffffffffffffffffffffffffffffffffffffffffffffffffff82036116bf576116be611553565b5b600182019050919050565b5f82905092915050565b7f4e487b71000000000000000000000000000000000000000000000000000000005f52604160045260245ffd5b7f4e487b71000000000000000000000000000000000000000000000000000000005f52602260045260245ffd5b5f600282049050600182168061174557607f821691505b60208210810361175857611757611701565b5b50919050565b5f819050815f5260205f209050919050565b5f6020601f8301049050919050565b5f82821b905092915050565b5f600883026117ba7fffffffffffffffffffffffffffffffffffffffffffffffffffffffffffffffff8261177f565b6117c4868361177f565b95508019841693508086168417925050509392505050565b5f819050919050565b5f6117ff6117fa6117f58461106a565b6117dc565b61106a565b9050919050565b5f819050919050565b611818836117e5565b61182c61182482611806565b84845461178b565b825550505050565b5f5f905090565b611843611834565b61184e81848461180f565b505050565b5b81811015611871576118665f8261183b565b600181019050611854565b5050565b601f8211156118b6576118878161175e565b61189084611770565b8101602085101561189f578190505b6118b36118ab85611770565b830182611853565b50505b505050565b5f82821c905092915050565b5f6118d65f19846008026118bb565b1980831691505092915050565b5f6118ee83836118c7565b9150826002028217905092915050565b61190883836116ca565b67ffffffffffffffff811115611921576119206116d4565b5b61192b825461172e565b611936828285611875565b5f601f831160018114611963575f8415611951578287013590505b61195b85826118e3565b8655506119c2565b601f1984166119718661175e565b5f5b8281101561199857848901358255600182019150602085019450602081019050611973565b868310156119b557848901356119b1601f8916826118c7565b8355505b6001600288020188555050505b50505050505050565b828183375f83830152505050565b5f6119e48385610fe4565b93506119f18385846119cb565b6119fa83611002565b840190509392505050565b5f604082019050611a185f830186611188565b8181036020830152611a2b8184866119d9565b9050949350505050565b7f4f776e61626c653a207a65726f206164647265737300000000000000000000005f82015250565b5f611a69601583610fe4565b9150611a7482611a35565b602082019050919050565b5f6020820190508181035f830152611a9681611a5d565b905091905056fea264697066735822122055502442eb45984be2af502008f8b90de0823995fd6b11068f9abc216d8c543264736f6c634300081e0033","linkReferences":{}},"methodIdentifiers":{"approve(address,uint256)":"095ea7b3","badgeIdsOf(address)":"34959d5b","badgeRule(uint256)":"94a33e3e","badgeURI(uint256)":"b5588c6e","balanceOf(address)":"70a08231","getApproved(uint256)":"081812fc","hasBadge(address,uint256)":"4c6a70ce","isApprovedForAll(address,address)":"e985e9c5","issueBadge(address,uint256,string)":"2edf741f","name()":"06fdde03","owner()":"8da5cb5b","ownerOf(uint256)":"6352211e","safeTransferFrom(address,address,uint256)":"42842e0e","safeTransferFrom(address,address,uint256,bytes)":"b88d4fde","setApprovalForAll(address,bool)":"a22cb465","supportsInterface(bytes4)":"01ffc9a7","symbol()":"95d89b41","totalSupply()":"18160ddd","transferFrom(address,address,uint256)":"23b872dd","transferOwnership(address)":"f2fde38b"},"id":23}