{"abi":[{"type":"function","name":"getBuyerStat","inputs":[{"name":"account","type":"address","internalType":"address"}],"outputs":[{"name":"","type":"tuple","internalType":"struct ReputationDataFeed.BuyerStat","components":[{"name":"totalPurchases","type":"uint256","internalType":"uint256"},{"name":"totalVolume","type":"uint256","internalType":"uint256"}]}],"stateMutability":"view"},{"type":"function","name":"getCreatorStat","inputs":[{"name":"account","type":"address","internalType":"address"}],"outputs":[{"name":"","type":"tuple","internalType":"struct ReputationDataFeed.CreatorStat","components":[{"name":"totalSales","type":"uint256","internalType":"uint256"},{"name":"totalVolume","type":"uint256","internalType":"uint256"}]}],"stateMutability":"view"},{"type":"function","name":"marketplace","inputs":[],"outputs":[{"name":"","type":"address","internalType":"address"}],"stateMutability":"view"},{"type":"function","name":"owner","inputs":[],"outputs":[{"name":"","type":"address","internalType":"address"}],"stateMutability":"view"},{"type":"function","name":"setMarketplace","inputs":[{"name":"newMarketplace","type":"address","internalType":"address"}],"outputs":[],"stateMutability":"nonpayable"},{"type":"function","name":"syncBuyerStat","inputs":[{"name":"account","type":"address","internalType":"address"},{"name":"stat","type":"tuple","internalType":"struct ReputationDataFeed.BuyerStat","components":[{"name":"totalPurchases","type":"uint256","internalType":"uint256"},{"name":"totalVolume","type":"uint256","internalType":"uint256"}]}],"outputs":[],"stateMutability":"nonpayable"},{"type":"function","name":"syncCreatorStat","inputs":[{"name":"account","type":"address","internalType":"address"},{"name":"stat","type":"tuple","internalType":"struct ReputationDataFeed.CreatorStat","components":[{"name":"totalSales","type":"uint256","internalType":"uint256"},{"name":"totalVolume","type":"uint256","internalType":"uint256"}]}],"outputs":[],"stateMutability":"nonpayable"},{"type":"function","name":"transferOwnership","inputs":[{"name":"newOwner","type":"address","internalType":"address"}],"outputs":[],"stateMutability":"nonpayable"},{"type":"event","name":"BuyerStatSynced","inputs":[{"name":"account","type":"address","indexed":true,"internalType":"address"},{"name":"totalPurchases","type":"uint256","indexed":false,"internalType":"uint256"},{"name":"totalVolume","type":"uint256","indexed":false,"internalType":"uint256"}],"anonymous":false},{"type":"event","name":"CreatorStatSynced","inputs":[{"name":"account","type":"address","indexed":true,"internalType":"address"},{"name":"totalSales","type":"uint256","indexed":false,"internalType":"uint256"},{"name":"totalVolume","type":"uint256","indexed":false,"internalType":"uint256"}],"anonymous":false},{"type":"event","name":"MarketplaceUpdated","inputs":[{"name":"marketplace","type":"address","indexed":true,"internalType":"address"}],"anonymous":false},{"type":"event","name":"OwnershipTransferred","inputs":[{"name":"previousOwner","type":"address","indexed":true,"internalType":"address"},{"name":"newOwner","type":"address","indexed":true,"internalType":"address"}],"anonymous":false}],"bytecode":{"object":"0x6080604052348015600e575f5ffd5b50601c33602060201b60201c565b60e1565b5f5f5f9054906101000a900473ffffffffffffffffffffffffffffffffffffffff169050815f5f6101000a81548173ffffffffffffffffffffffffffffffffffffffff021916908373ffffffffffffffffffffffffffffffffffffffff1602179055508173ffffffffffffffffffffffffffffffffffffffff168173ffffffffffffffffffffffffffffffffffffffff167f8be0079c531659141344cd1fd0a4f28419497f9722a3daafe3b4186f6b6457e060405160405180910390a35050565b610e17806100ee5f395ff3fe608060405234801561000f575f5ffd5b5060043610610086575f3560e01c80638da5cb5b116100595780638da5cb5b1461010e578063abc8c7af1461012c578063f2fde38b1461014a578063fcacff6d1461016657610086565b8063330200661461008a57806357e1b8ef146100a657806373ad6c2d146100d65780638a00bc98146100f2575b5f5ffd5b6100a4600480360381019061009f9190610a1e565b610196565b005b6100c060048036038101906100bb9190610a5c565b6102d3565b6040516100cd9190610ac3565b60405180910390f35b6100f060048036038101906100eb9190610a5c565b61033d565b005b61010c60048036038101906101079190610b29565b6104bf565b005b6101166105fc565b6040516101239190610b76565b60405180910390f35b610134610623565b6040516101419190610b76565b60405180910390f35b610164600480360381019061015f9190610a5c565b610648565b005b610180600480360381019061017b9190610a5c565b610750565b60405161018d9190610bbc565b60405180910390f35b60015f9054906101000a900473ffffffffffffffffffffffffffffffffffffffff1673ffffffffffffffffffffffffffffffffffffffff163373ffffffffffffffffffffffffffffffffffffffff1614610225576040517f08c379a000000000000000000000000000000000000000000000000000000000815260040161021c90610c2f565b60405180910390fd5b8060025f8473ffffffffffffffffffffffffffffffffffffffff1673ffffffffffffffffffffffffffffffffffffffff1681526020019081526020015f205f820151815f0155602082015181600101559050508173ffffffffffffffffffffffffffffffffffffffff167f294b890e36687775cdc68aeef5206560a1226adebb88103af6de7a0de2f12199825f015183602001516040516102c7929190610c5c565b60405180910390a25050565b6102db61087b565b60025f8373ffffffffffffffffffffffffffffffffffffffff1673ffffffffffffffffffffffffffffffffffffffff1681526020019081526020015f206040518060400160405290815f82015481526020016001820154815250509050919050565b5f5f9054906101000a900473ffffffffffffffffffffffffffffffffffffffff1673ffffffffffffffffffffffffffffffffffffffff163373ffffffffffffffffffffffffffffffffffffffff16146103cb576040517f08c379a00000000000000000000000000000000000000000000000000000000081526004016103c290610ccd565b60405180910390fd5b5f73ffffffffffffffffffffffffffffffffffffffff168173ffffffffffffffffffffffffffffffffffffffff1603610439576040517f08c379a000000000000000000000000000000000000000000000000000000000815260040161043090610d5b565b60405180910390fd5b8060015f6101000a81548173ffffffffffffffffffffffffffffffffffffffff021916908373ffffffffffffffffffffffffffffffffffffffff1602179055508073ffffffffffffffffffffffffffffffffffffffff167f210690abd7fd6cdbb8f2beb202b2a253d58d7a0813b2175c4172c14c0c1af6dc60405160405180910390a250565b60015f9054906101000a900473ffffffffffffffffffffffffffffffffffffffff1673ffffffffffffffffffffffffffffffffffffffff163373ffffffffffffffffffffffffffffffffffffffff161461054e576040517f08c379a000000000000000000000000000000000000000000000000000000000815260040161054590610c2f565b60405180910390fd5b8060035f8473ffffffffffffffffffffffffffffffffffffffff1673ffffffffffffffffffffffffffffffffffffffff1681526020019081526020015f205f820151815f0155602082015181600101559050508173ffffffffffffffffffffffffffffffffffffffff167fd448cfa0e23d7574bf258664242e56577b8f7a3e598c096b54e90d48c24bebdc825f015183602001516040516105f0929190610c5c565b60405180910390a25050565b5f5f5f9054906101000a900473ffffffffffffffffffffffffffffffffffffffff16905090565b60015f9054906101000a900473ffffffffffffffffffffffffffffffffffffffff1681565b5f5f9054906101000a900473ffffffffffffffffffffffffffffffffffffffff1673ffffffffffffffffffffffffffffffffffffffff163373ffffffffffffffffffffffffffffffffffffffff16146106d6576040517f08c379a00000000000000000000000000000000000000000000000000000000081526004016106cd90610ccd565b60405180910390fd5b5f73ffffffffffffffffffffffffffffffffffffffff168173ffffffffffffffffffffffffffffffffffffffff1603610744576040517f08c379a000000000000000000000000000000000000000000000000000000000815260040161073b90610dc3565b60405180910390fd5b61074d816107ba565b50565b610758610893565b60035f8373ffffffffffffffffffffffffffffffffffffffff1673ffffffffffffffffffffffffffffffffffffffff1681526020019081526020015f206040518060400160405290815f82015481526020016001820154815250509050919050565b5f5f5f9054906101000a900473ffffffffffffffffffffffffffffffffffffffff169050815f5f6101000a81548173ffffffffffffffffffffffffffffffffffffffff021916908373ffffffffffffffffffffffffffffffffffffffff1602179055508173ffffffffffffffffffffffffffffffffffffffff168173ffffffffffffffffffffffffffffffffffffffff167f8be0079c531659141344cd1fd0a4f28419497f9722a3daafe3b4186f6b6457e060405160405180910390a35050565b60405180604001604052805f81526020015f81525090565b60405180604001604052805f81526020015f81525090565b5f604051905090565b5f5ffd5b5f73ffffffffffffffffffffffffffffffffffffffff82169050919050565b5f6108e1826108b8565b9050919050565b6108f1816108d7565b81146108fb575f5ffd5b50565b5f8135905061090c816108e8565b92915050565b5f5ffd5b5f601f19601f8301169050919050565b7f4e487b71000000000000000000000000000000000000000000000000000000005f52604160045260245ffd5b61095c82610916565b810181811067ffffffffffffffff8211171561097b5761097a610926565b5b80604052505050565b5f61098d6108ab565b90506109998282610953565b919050565b5f819050919050565b6109b08161099e565b81146109ba575f5ffd5b50565b5f813590506109cb816109a7565b92915050565b5f604082840312156109e6576109e5610912565b5b6109f06040610984565b90505f6109ff848285016109bd565b5f830152506020610a12848285016109bd565b60208301525092915050565b5f5f60608385031215610a3457610a336108b4565b5b5f610a41858286016108fe565b9250506020610a52858286016109d1565b9150509250929050565b5f60208284031215610a7157610a706108b4565b5b5f610a7e848285016108fe565b91505092915050565b610a908161099e565b82525050565b604082015f820151610aaa5f850182610a87565b506020820151610abd6020850182610a87565b50505050565b5f604082019050610ad65f830184610a96565b92915050565b5f60408284031215610af157610af0610912565b5b610afb6040610984565b90505f610b0a848285016109bd565b5f830152506020610b1d848285016109bd565b60208301525092915050565b5f5f60608385031215610b3f57610b3e6108b4565b5b5f610b4c858286016108fe565b9250506020610b5d85828601610adc565b9150509250929050565b610b70816108d7565b82525050565b5f602082019050610b895f830184610b67565b92915050565b604082015f820151610ba35f850182610a87565b506020820151610bb66020850182610a87565b50505050565b5f604082019050610bcf5f830184610b8f565b92915050565b5f82825260208201905092915050565b7f52657075746174696f6e44617461466565643a20756e617574686f72697a65645f82015250565b5f610c19602083610bd5565b9150610c2482610be5565b602082019050919050565b5f6020820190508181035f830152610c4681610c0d565b9050919050565b610c568161099e565b82525050565b5f604082019050610c6f5f830185610c4d565b610c7c6020830184610c4d565b9392505050565b7f4f776e61626c653a206e6f74206f776e657200000000000000000000000000005f82015250565b5f610cb7601283610bd5565b9150610cc282610c83565b602082019050919050565b5f6020820190508181035f830152610ce481610cab565b9050919050565b7f52657075746174696f6e44617461466565643a207a65726f206d61726b6574705f8201527f6c61636500000000000000000000000000000000000000000000000000000000602082015250565b5f610d45602483610bd5565b9150610d5082610ceb565b604082019050919050565b5f6020820190508181035f830152610d7281610d39565b9050919050565b7f4f776e61626c653a207a65726f206164647265737300000000000000000000005f82015250565b5f610dad601583610bd5565b9150610db882610d79565b602082019050919050565b5f6020820190508181035f830152610dda81610da1565b905091905056fea2646970667358221220622e37091f04f63c5386401899b4522b6c7b8033c73f055bd17c802b748afcbb64736f6c634300081e0033","linkReferences":{}},"methodIdentifiers":{"getBuyerStat(address)":"57e1b8ef","getCreatorStat(address)":"fcacff6d","marketplace()":"abc8c7af","owner()":"8da5cb5b","setMarketplace(address)":"73ad6c2d","syncBuyerStat(address,(uint256,uint256))":"33020066","syncCreatorStat(address,(uint256,uint256))":"8a00bc98","transferOwnership(address)":"f2fde38b"},"id":25}